:100000000C94610A0C947E0A0C947E0A0C947E0A6D
:100010000C947E0A0C947E0A0C947E0A0C947E0A40
:100020000C947E0A0C947E0A0C947E0A0C947E0A30
:100030000C947E0A0C947E0A0C947E0A0C947E0A20
:100040000C94770B0C947E0A0C947E0A0C947E0A16
:100050000C947E0A0C947E0A0C947E0A0C947E0A00
:100060000C947E0A0C947E0A0000000023002600F7
:100070002900FFFFFFFFFFFFFFFFFFFFFFFFFFFF65
:10008000FFFFFFFFFFFFFFFFFFFFFFFFFFFFFFFF80
:10009000FFFFFFFFFFFFFFFFFFFFFFFFFFFFFFFF70
:1000A000FFFFFFFFFFFFFFFFFFFFFFFFFFFFFFFF60
:1000B000FFFFFFFFFFFFFFFFFFFFFFFFFFFFFFFF50
:10047000FFFF7F7F80808080818181818282828274
:100480008383838384848484858585858686868624
:100490008787878788888888898989898A8A8A8AD4
:1004A0008B8B8B8B8C8C8C8C8D8D8D8D8E8E8E8E84
:1004B0008F8F8F8F90909090919191919292929234
:1004C00093939393949494949595959596969696E4
:1004D0009797979798989898999999999A9A9A9A94
:1004E0009B9B9B9B9C9C9C9C9D9D9D9D9E9E9E9E44
:1004F0009F9F9F9FA0A0A0A0A1A1A1A1A2A2A2A2F4
:10050000A3A3A3A3A4A4A4A4A5A5A5A5A6A6A6A6A3
:10051000A7A7A7A7A8A8A8A8A9A9A9A9AAAAAAAA53
:10052000AAABABABABACACACACADADADADAEAEAE07
:10053000AEAFAFAFAFB0B0B0B0B1B1B1B1B2B2B2B7
:10054000B2B3B3B3B3B4B4B4B4B5B5B5B5B6B6B667
:10055000B6B7B7B7B7B8B8B8B8B9B9B9B9BABABA17
:10056000BABBBBBBBBBCBCBCBCBDBDBDBDBEBEBEC7
:10057000BEBFBFBFBFC0C0C0C0C1C1C1C1C2C2C277
:10058000C2C3C3C3C3C4C4C4C4C5C5C5C5C6C6C627
:10059000C6C7C7C7C7C8C8C8C8C9C9C9C9CACACAD7
:1005A000CACBCBCBCBCCCCCCCCCDCDCDCDCECECE87
:1005B000CECFCFCFCFD0D0D0D0D1D1D1D1D2D2D237
:1005C000D2D3D3D3D3D4D4D4D4D5D5D5D5D6D6D6E7
:1005D000D6D7D7D7D7D8D8D8D8D9D9D9D9DADADA97
:1005E000DADBDBDBDBDCDCDCDCDDDDDDDDDEDEDE47
:1005F000DEDFDFDFDFE0E0E0E0E1E1E1E1E2E2E2F7
:10060000E2E3E3E3E3E4E4E4E4E5E5E5E5E6E6E6A6
:10061000E6E7E7E7E7E8E8E8E8E9E9E9E9EAEAEA56
:10062000EAEBEBEBEBECECECECEDEDEDEDEEEEEE06
:10063000EEEFEFEFEFF0F0F0F0F1F1F1F1F2F2F2B6
:10064000F2F3F3F3F3F4F4F4F4F5F5F5F5F6F6F666
:10065000F6F7F7F7F7F8F8F8F8F9F9F9F9FAFAFA16
:10066000FAFBFBFBFBFCFCFCFCFDFDFDFDFEFEFEC6
:10067000FEFF00000000000101010102020202036E
:10068000030303040404040505050506060606071E
:1006900007070708080808090909090A0A0A0A0BCE
:1006A0000B0B0B0C0C0C0C0D0D0D0D0E0E0E0E0F7E
:1006B0000F0F0F101010101111111112121212132E
:1006C00013131314141414151515151616161617DE
:1006D00017171718181818191919191A1A1A1A1B8E
:1006E0001B1B1B1C1C1C1C1D1D1D1D1E1E1E1E1F3E
:1006F0001F1F1F20202020212121212222222223EE
:10070000232323242424242525252526262626279D
:1007100027272728282828292929292A2A2A2A2B4D
:100720002B2B2B2C2C2C2C2D2D2D2D2E2E2E2E2FFD
:100730002F2F2F30303030313131313232323233AD
:10074000333333343434343535353536363636375D
:1007500037373738383838393939393A3A3A3A3B0D
:100760003B3B3B3C3C3C3C3D3D3D3D3E3E3E3E3FBD
:100770003F3F3F404040404141414142424242436D
:10078000434343444444444545454546464646471D
:1007900047474748484848494949494A4A4A4A4BCD
:1007A0004B4B4B4C4C4C4C4D4D4D4D4E4E4E4E4F7D
:1007B0004F4F4F505050505151515152525252532D
:1007C00053535354545454555555555556565656DF
:1007D0005757575758585858595959595A5A5A5A91
:1007E0005B5B5B5B5C5C5C5C5D5D5D5D5E5E5E5E41
:1007F0005F5F5F5F606060606161616162626262F1
:1008000063636363646464646565656566666666A0
:100810006767676768686868696969696A6A6A6A50
:100820006B6B6B6B6C6C6C6C6D6D6D6D6E6E6E6E00
:100830006F6F6F6F707070707171717172727272B0
:100840007373737374747474757575757676767660
:100850007777777778787878797979797A7A7A7A10
:100860007B7B7B7B7C7C7C7C7D7D7D7D7E7E7E7EC0
:100870007F7FFFFFFFFFFFFFFFFFFFFFFFFFFFFF88
:10088000FFFFFFFFFFFFFFFFFFFFFFFFFFFFFFFF78
:10089000FFFFFFFFFFFFFFFFFFFFFFFFFFFFFFFF68
:1008A000FFFFFFFFFFFFFFFFFFFFFFFFFFFFFFFF58
:1008B000FFFFFFFFFFFFFFFFFFFFFFFFFFFFFFFF48
:1008C000FFFFFFFFFFFFFFFFFFFFFFFFFFFFFFFF38
:1008D000FFFFFFFFFFFFFFFFFFFFFFFFFFFFFFFF28
:1008E000FFFFFFFFFFFFFFFFFFFFFFFFFFFFFFFF18
:1008F000FFFFFFFFFFFFFFFFFFFFFFFFFFFFFFFF08
:10090000FFFFFFFFFFFFFFFFFFFFFFFFFFFFFFFFF7
:10091000FFFFFFFFFFFFFFFFFFFFFFFFFFFFFFFFE7
:10092000FFFFFFFFFFFFFFFFFFFFFFFFFFFFFFFFD7
:10093000FFFFFFFFFFFFFFFFFFFFFFFFFFFFFFFFC7
:10094000FFFFFFFFFFFFFFFFFFFFFFFFFFFFFFFFB7
:10095000FFFFFFFFFFFFFFFFFFFFFFFFFFFFFFFFA7
:10096000FFFFFFFFFFFFFFFFFFFFFFFFFFFFFFFF97
:10097000FFFFFFFFFFFFFFFFFFFFFFFFFFFFFFFF87
:10098000FFFFFFFFFFFFFFFFFFFFFFFFFFFFFFFF77
:10099000FFFFFFFFFFFFFFFFFFFFFFFFFFFFFFFF67
:1009A000FFFFFFFFFFFFFFFFFFFFFFFFFFFFFFFF57
:1009B000FFFFFFFFFFFFFFFFFFFFFFFFFFFFFFFF47
:1009C000FFFFFFFFFFFFFFFFFFFFFFFFFFFFFFFF37
:1009D000FFFFFFFFFFFFFFFFFFFFFFFFFFFFFFFF27
:1009E000FFFFFFFFFFFFFFFFFFFFFFFFFFFFFFFF17
:1009F000FFFFFFFFFFFFFFFFFFFFFFFFFFFFFFFF07
:100A0000FFFFFFFFFFFFFFFFFFFFFFFFFFFFFFFFF6
:100A1000FFFFFFFFFFFFFFFFFFFFFFFFFFFFFFFFE6
:100A2000FFFFFFFFFFFFFFFFFFFFFFFFFFFFFFFFD6
:100A3000FFFFFFFFFFFFFFFFFFFFFFFFFFFFFFFFC6
:100A4000FFFFFFFFFFFFFFFFFFFFFFFFFFFFFFFFB6
:100A5000FFFFFFFFFFFFFFFFFFFFFFFFFFFFFFFFA6
:100A6000FFFFFFFFFFFFFFFFFFFFFFFFFFFFFFFF96
:100A7000FFFF000000000000000000000000000078
:100A80000000000000000000000000000000000066
:100A90000000000000000000000000000000000056
:100AA0000000000000000000000000000000000046
:100AB0000000000000000000000000000000000036
:100AC0000000000000000000000000000000000026
:100AD0000000000000000000000000000000000016
:100AE0000000000000000000000000000000000006
:100AF00000000000000000000000000000000000F6
:100B000000000000000000000000000000000000E5
:100B100000000000000000000000000000000000D5
:100B200000000000000000000000000000000000C5
:100B300000000000000000000000000000000000B5
:100B400000000000000000000000000000000000A5
:100B50000000000000000000000000000000000095
:100B60000000000000000000000000000000000085
:100B70000000000000000000000000000000000075
:100B80000000000000000000000000000000000065
:100B90000000000000000000000000000000000055
:100BA0000000000000000000000000000000000045
:100BB0000000000000000000000000000000000035
:100BC0000000000000000000000000000000000025
:100BD0000000000000000000000000000000000015
:100BE0000000000000000000000000000000000005
:100BF00000000000000000000000000000000000F5
:100C000000000000000000000000000000000000E4
:100C100000000000000000000000000000000000D4
:100C200000000000000000000000000000000000C4
:100C300000000000000000000000000000000000B4
:100C400000000000000000000000000000000000A4
:100C50000000000000000000000000000000000094
:100C60000000000000000000000000000000000084
:100C70000000000000010102020303040405050650
:100C8000060707080809090A0A0B0B0C0C0D0D0EC4
:100C90000E0F0F1010111112121313141415151634
:100CA000161717181819191A1A1B1B1C1C1D1D1EA4
:100CB0001E1F1F2020212122222323242425252614
:100CC000262727282829292A2A2B2B2C2C2D2D2E84
:100CD0002E2F2F30303131323233333434353536F4
:100CE000363737383839393A3A3B3B3C3C3D3D3E64
:100CF0003E3F3F40404141424243434444454546D4
:100D0000464747484849494A4A4B4B4C4C4D4D4E43
:100D10004E4F4F50505151525253535454555556B3
:100D2000565757585859595A5A5B5B5C5C5D5D5E23
:100D30005E5F5F6060616162626363646465656693
:100D4000666767686869696A6A6B6B6C6C6D6D6E03
:100D50006E6F6F7070717172727373747475757673
:100D6000767777787879797A7A7B7B7C7C7D7D7EE3
:100D70007E7F7F7F8080818182828383848485855A
:100D800086868787888889898A8A8B8B8C8C8D8DCB
:100D90008E8E8F8F9090919192929393949495953B
:100DA00096969797989899999A9A9B9B9C9C9D9DAB
:100DB0009E9E9F9FA0A0A1A1A2A2A3A3A4A4A5A51B
:100DC000A6A6A7A7A8A8A9A9AAAAABABACACADAD8B
:100DD000AEAEAFAFB0B0B1B1B2B2B3B3B4B4B5B5FB
:100DE000B6B6B7B7B8B8B9B9BABABBBBBCBCBDBD6B
:100DF000BEBEBFBFC0C0C1C1C2C2C3C3C4C4C5C5DB
:100E0000C6C6C7C7C8C8C9C9CACACBCBCCCCCDCD4A
:100E1000CECECFCFD0D0D1D1D2D2D3D3D4D4D5D5BA
:100E2000D6D6D7D7D8D8D9D9DADADBDBDCDCDDDD2A
:100E3000DEDEDFDFE0E0E1E1E2E2E3E3E4E4E5E59A
:100E4000E6E6E7E7E8E8E9E9EAEAEBEBECECEDED0A
:100E5000EEEEEFEFF0F0F1F1F2F2F3F3F4F4F5F57A
:100E6000F6F6F7F7F8F8F9F9FAFAFBFBFCFCFDFDEA
:100E7000FEFEFFFEFEFDFDFCFCFBFBFAFAF9F9F8B5
:100E8000F8F7F7F6F6F5F5F4F4F3F3F2F2F1F1F022
:100E9000F0EFEFEEEEEDEDECECEBEBEAEAE9E9E892
:100EA000E8E7E7E6E6E5E5E4E4E3E3E2E2E1E1E002
:100EB000E0DFDFDEDEDDDDDCDCDBDBDADAD9D9D872
:100EC000D8D7D7D6D6D5D5D4D4D3D3D2D2D1D1D0E2
:100ED000D0CFCFCECECDCDCCCCCBCBCACAC9C9C852
:100EE000C8C7C7C6C6C5C5C4C4C3C3C2C2C1C1C0C2
:100EF000C0BFBFBEBEBDBDBCBCBBBBBABAB9B9B832
:100F0000B8B7B7B6B6B5B5B4B4B3B3B2B2B1B1B0A1
:100F1000B0AFAFAEAEADADACACABABAAAAA9A9A811
:100F2000A8A7A7A6A6A5A5A4A4A3A3A2A2A1A1A081
:100F3000A09F9F9E9E9D9D9C9C9B9B9A9A999998F1
:100F40009897979696959594949393929291919061
:100F5000908F8F8E8E8D8D8C8C8B8B8A8A898988D1
:100F60008887878686858584848383828281818041
:100F7000807F7F7F7E7E7D7D7C7C7B7B7A7A7979AA
:100F80007878777776767575747473737272717119
:100F900070706F6F6E6E6D6D6C6C6B6B6A6A696989
:100FA00068686767666665656464636362626161F9
:100FB00060605F5F5E5E5D5D5C5C5B5B5A5A595969
:100FC00058585757565655555454535352525151D9
:100FD00050504F4F4E4E4D4D4C4C4B4B4A4A494949
:100FE00048484747464645454444434342424141B9
:100FF00040403F3F3E3E3D3D3C3C3B3B3A3A393929
:101000003838373736363535343433333232313198
:1010100030302F2F2E2E2D2D2C2C2B2B2A2A292908
:101020002828272726262525242423232222212178
:1010300020201F1F1E1E1D1D1C1C1B1B1A1A1919E8
:101040001818171716161515141413131212111158
:1010500010100F0F0E0E0D0D0C0C0B0B0A0A0909C8
:101060000808070706060505040403030202010138
:1010700000007F8081818283848485868788888937
:101080008A8B8B8C8D8E8F8F909192929394959664
:1010900096979899999A9B9C9C9D9E9F9FA0A1A290
:1010A000A3A3A4A5A6A6A7A8A8A9AAABABACADAEBE
:1010B000AEAFB0B1B1B2B3B3B4B5B6B6B7B8B8B9F4
:1010C000BABABBBCBCBDBEBFBFC0C1C1C2C3C3C432
:1010D000C5C5C6C6C7C8C8C9CACACBCCCCCDCDCE7B
:1010E000CFCFD0D0D1D2D2D3D3D4D5D5D6D6D7D7CF
:1010F000D8D9D9DADADBDBDCDCDDDDDEDFDFE0E02E
:10110000E1E1E2E2E3E3E4E4E4E5E5E6E6E7E7E89B
:10111000E8E9E9E9EAEAEBEBECECECEDEDEEEEEE1A
:10112000EFEFEFF0F0F1F1F1F2F2F2F3F3F3F4F4A8
:10113000F4F4F5F5F5F6F6F6F7F7F7F7F8F8F8F84A
:10114000F9F9F9F9F9FAFAFAFAFAFBFBFBFBFBFCFD
:10115000FCFCFCFCFCFCFDFDFDFDFDFDFDFDFEFEC3
:10116000FEFEFEFEFEFEFEFEFEFEFEFEFEFEFEFE9F
:10117000FEFEFFFEFEFEFEFEFEFEFEFEFEFEFEFE8E
:10118000FEFEFEFEFEFEFEFDFDFDFDFDFDFDFDFC89
:10119000FCFCFCFCFCFCFBFBFBFBFBFAFAFAFAFA9E
:1011A000F9F9F9F9F9F8F8F8F8F7F7F7F7F6F6F6C4
:1011B000F5F5F5F4F4F4F4F3F3F3F2F2F2F1F1F1FE
:1011C000F0F0EFEFEFEEEEEEEDEDECECECEBEBEA4A
:1011D000EAE9E9E9E8E8E7E7E6E6E5E5E4E4E4E3A7
:1011E000E3E2E2E1E1E0E0DFDFDEDDDDDCDCDBDB12
:1011F000DADAD9D9D8D7D7D6D6D5D5D4D3D3D2D28F
:10120000D1D0D0CFCFCECDCDCCCCCBCACAC9C8C817
:10121000C7C6C6C5C5C4C3C3C2C1C1C0BFBFBEBDAA
:10122000BCBCBBBABAB9B8B8B7B6B6B5B4B3B3B24A
:10123000B1B1B0AFAEAEADACABABAAA9A8A8A7A6F2
:10124000A6A5A4A3A3A2A1A09F9F9E9D9C9C9B9AA0
:10125000999998979696959493929291908F8F8E54
:101260008D8C8B8B8A89888887868584848382810C
:1012700081807F7E7D7D7C7B7A7A797877767675C2
:101280007473737271706F6F6E6D6C6C6B6A69687A
:1012900068676665656463626261605F5F5E5D5C2E
:1012A0005B5B5A59585857565655545353525150E0
:1012B000504F4E4D4D4C4B4B4A494848474646458A
:1012C000444443424241403F3F3E3D3D3C3B3B3A2C
:1012D00039393838373636353434333232313130C3
:1012E0002F2F2E2E2D2C2C2B2B2A2929282827274F
:1012F0002625252424232322222121201F1F1E1ED0
:101300001D1D1C1C1B1B1A1A1A1919181817171641
:1013100016151515141413131212121111101010A2
:101320000F0F0F0E0E0D0D0D0C0C0C0B0B0B0A0AF4
:101330000A0A090909080808070707070606060632
:10134000050505050504040404040303030303025F
:101350000202020202020101010101010101000079
:10136000000000000000000000000000000000007D
:10137000000000000000000000000000000000006D
:101380000000000000000001010101010101010253
:10139000020202020202030303030304040404041E
:1013A00005050505050606060607070707080808D8
:1013B0000909090A0A0A0A0B0B0B0C0C0C0D0D0D7E
:1013C0000E0E0F0F0F101010111112121213131412
:1013D0001415151516161717181819191A1A1A1B95
:1013E0001B1C1C1D1D1E1E1F1F202121222223230A
:1013F00024242525262727282829292A2B2B2C2C6D
:101400002D2E2E2F2F3031313232333434353636C3
:1014100037383839393A3B3B3C3D3D3E3F3F404110
:101420004242434444454646474848494A4B4B4C50
:101430004D4D4E4F50505152535354555656575888
:1014400058595A5B5B5C5D5E5F5F606162626364BA
:10145000656566676868696A6B6C6C6D6E6F6F70E6
:1014600071727373747576767778797A7A7B7C7D0E
:101470007D7E00000000240027002A0000000000FC
:10148000250028002B0004040404040404040202C0
:1014900002020202030303030303010204081020F3
:1014A00040800102040810200102040810200000FE
:1014B0000008000201000003040700000000000013
:1014C000000011241FBECFEFD8E0DEBFCDBF11E07A
:1014D000A0E0B1E0ECEEF4E202C005900D92AE3077
:1014E000B107D9F721E0AEE0B1E001C01D92AD3304
:1014F000B207E1F70E94C10B0C9474120C94000027
:10150000833081F028F4813099F08230A9F0089579
:101510008730A9F08830C9F08430B1F48091800020
:101520008F7D03C0809180008F7780938000089525
:1015300084B58F7784BD089584B58F7DFBCF80916E
:10154000B0008F778093B00008958091B0008F7DB8
:10155000F9CF1F93CF93DF93282F30E0F901E255A5
:10156000FB4E8491F901E656FB4ED491F901EA57FE
:10157000FB4EC491CC23A9F0162F81110E94800A42
:10158000EC2FF0E0EE0FFF1FE458FB4EA591B49155
:101590008FB7F894EC91111108C0D095DE23DC933D
:1015A0008FBFDF91CF911F910895DE2BF8CFCF939E
:1015B000DF9390E0FC01E656FB4E24918A579B4E48
:1015C000FC0184918823D1F090E0880F991FFC01E1
:1015D000EE58FB4EA591B491FC01E458FB4EC59129
:1015E000D491623071F49FB7F8943C91822F80952A
:1015F00083238C93E8812E2B28839FBFDF91CF918B
:1016000008958FB7F894EC912E2B2C938FBFF6CFC3
:101610001F93CF93DF93182FEB0161E00E94D70A4D
:10162000209739F460E0812FDF91CF911F910C94C6
:10163000A90ACF3FD10511F461E0F5CFE12FF0E029
:10164000E255FB4EE491E33031F140F4E130B1F08A
:10165000E230E1F0C038D1057CF7E4CFE73029F182
:10166000E83059F1E430B1F78091800080628093D6
:101670008000D0938B00C0938A0004C084B580683A
:1016800084BDC7BDDF91CF911F91089584B580625D
:1016900084BDC8BDF7CF80918000806880938000B2
:1016A000D0938900C0938800EDCF8091B00080680E
:1016B0008093B000C093B300E5CF8091B00080620A
:1016C0008093B000C093B400DDCF8E5080648093CF
:1016D0007C0080917A00806480937A0080917A0007
:1016E00086FDFCCF809178009091790008951F923B
:1016F0000F920FB60F9211242F933F938F939F93C6
:10170000AF93BF938091390190913A01A0913B0131
:10171000B0913C013091380123E0230F2D3758F56B
:101720000196A11DB11D209338018093390190933A
:101730003A01A0933B01B0933C0180913401909118
:101740003501A0913601B09137010196A11DB11D5F
:101750008093340190933501A0933601B093370103
:10176000BF91AF919F918F913F912F910F900FBE9D
:101770000F901F90189526E8230F0296A11DB11D0A
:10178000D2CF789484B5826084BD84B5816084BDF5
:1017900085B5826085BD85B5816085BD80916E000F
:1017A000816080936E001092810080918100826040
:1017B000809381008091810081608093810080917D
:1017C00080008160809380008091B100846080936C
:1017D000B1008091B00081608093B00080917A0068
:1017E000846080937A0080917A00826080937A008E
:1017F00080917A00816080937A0080917A0080687D
:1018000080937A001092C10062E084E00E94D70ABF
:1018100061E083E00E94D70A61E08BE00E94D70A72
:1018200090E080E00E94950F90E0909307018093F4
:10183000060183E28093B00081E08093B10082E8EA
:101840008093800089E1809381008FEF90E09093F6
:1018500087008093860084E10E94650BBC01990F8C
:10186000880B990B611571058105910511F00E9496
:101870008C0F4AE8242E44E1342EEE24EA94F12C15
:1018800060E0C62E60E0D62E8FB7F89480903901C4
:1018900090903A01A0903B01B0903C018FBF8092A4
:1018A000300190923101A0923201B0923301E2EB0B
:1018B000F4E18491EEE9F4E1D491F101C491CC23F7
:1018C00009F406C181110E94800AEC2FF0E0EE0FAE
:1018D000FF1FE859FF4FA591B4918C91D82391E057
:1018E00080E009F490E0C92FD82F80912C019091CD
:1018F0002D01A0912E01B0912F01881A990AAA0AF0
:10190000BB0AF3E38F169104A104B10430F12097D0
:1019100021F580910801882301F1809106019091C1
:1019200007016AE0019709F061E0609306011092F7
:10193000070190E080E00E949D0F8091300190911E
:101940003101A0913201B091330180932C01909329
:101950002D01A0932E01B0932F01C170C0930801F7
:101960008EE00E94650BEC0181E10E94650B8C0FFB
:101970009D1F811524E0920714F08FEF93E0BC01C6
:10198000990F880B990B0E942A1126EA3BE944EC37
:101990005AE30E94DF114B015C01609106017091D6
:1019A0000701072E000C880B990B0E942A119B013E
:1019B000AC01C501B4010E94DF114B015C018092B2
:1019C000020190920301A0920401B09205018FE000
:1019D0000E94650B8C0182E10E94650B080F191FA4
:1019E000902F812F011534E0130714F09FEF83E04F
:1019F00090932A0180932B0180E10E94650B782E41
:101A0000D92F83E10E94650B272D3D2F37FF02C0A0
:101A10002D5F3F4FE901D595C795D595C7959C0199
:101A200097FF02C02D5F3F4F359527953595279538
:101A3000C20FD31FCF3FD10519F014F0CFEFD0E084
:101A4000D0930101C09300014090300150903101CA
:101A500060903201709033018091260190912701AE
:101A6000A0912801B0912901481659066A067B0603
:101A700009F48EC1409226015092270160922801FC
:101A8000709229010736110534F560912201709199
:101A9000230180912401909125010E94F2106E583B
:101AA0007F4EFB0164916C9FC0016D9F900D1124CE
:101AB000B7010E944C12CB01770FAA0BBB0B80938E
:101AC0001E0190931F01A0932001B093210123C117
:101AD000D0E0C0E00ACF0533F1E01F076CF460915D
:101AE00022017091230180912401909125010E948F
:101AF000F2106E58734FD5CF0330F2E01F076CF42D
:101B0000609122017091230180912401909125011F
:101B10000E94F2106E58774FC4CF013DF2E01F07CC
:101B20006CF46091220170912301809124019091C5
:101B300025010E94F2106E587B4FB3CF0D39134030
:101B40000CF031C1A501940160E070E08AE794E4F3
:101B50000E9480104B015C01809116019091170149
:101B6000A0911801B0911901A3019201281B390B12
:101B70004A0B5B0BCA01B9010E942811A50194010F
:101B80000E94DA1187FD30C0409216015092170171
:101B900060921801709219010E943D0F20E031E01F
:101BA00040E050E00E94AB0F0E942A1160931201A6
:101BB00070931301809314019093150120911A01E1
:101BC00030911B0140911C0150911D010E940E108B
:101BD000A50194010E94801060930E0170930F0183
:101BE000809310019093110140900E0150900F01CD
:101BF000609010017090110120911A0130911B0129
:101C000040911C0150911D01C301B2010E940F10AF
:101C10004B015C0120E030E0A9010E947B1087FDB0
:101C2000BEC020E030E04FE753E4C501B4010E949C
:101C3000DA11181634F4812C912C8FE7A82E83E446
:101C4000B82E80921A0190921B01A0921C01B092B2
:101C50001D0120E030E0A901C301B2010E94DA11A8
:101C6000181674F42091120130911301409114015F
:101C700050911501C501B4010E94DA1187FF17C008
:101C800020E030E0A901C301B2010E947B1087FF70
:101C90001EC0209112013091130140911401509106
:101CA0001501C501B4010E947B10181684F08091C3
:101CB000120190911301A0911401B091150180932C
:101CC0001A0190931B01A0931C01B0931D01609118
:101CD000000170910101072E000C880B990B0E94E6
:101CE0002A1120911A0130911B0140911C01509141
:101CF0001D010E94DF1120E030E04FE753E40E9415
:101D000080100E94F21060931E0170931F01809357
:101D100020019093210180911E01C82F70911F0115
:101D2000682F8BE00E94080BF0E4CF9FC0011124C4
:101D3000B7010E944C1283E00E94080B209102011F
:101D400030910301409104015091050160912201FD
:101D50007091230180912401909125010E940F1020
:101D60002AE037ED43E25CE30E940F104B015C0177
:101D700020E030E040E854E40E94DA1187FF20C000
:101D80008092220190922301A0922401B092250119
:101D9000C114D10409F478CD0E94000075CD812CC6
:101DA000912C54014ECF60912201709123018091BA
:101DB0002401909125010E94F2106E587F4F71CE40
:101DC00020E030E040E854E4C501B4010E940E1068
:101DD0006093220170932301809324019093250145
:101DE000D7CF8F929F92AF92BF92CF92DF92EF9216
:101DF000FF92CF93DF93EC01688179818A819B8187
:101E0000611571058105910521F464E279ED8BE599
:101E100097E02DE133EF41E050E00E94AB0F490124
:101E20005A019B01AC01A7EAB1E40E94CA0F6B0101
:101E30007C01ACEEB4EFA50194010E94D80FC60E50
:101E4000D71EE81EF91EF7FE06C081E0C81AD108A9
:101E5000E10880E8F80AC882D982EA82FB82C701D9
:101E6000B6019F77DF91CF91FF90EF90DF90CF90F9
:101E7000BF90AF909F908F9008958F929F92AF9256
:101E8000BF92CF92DF92EF92FF9260910901709121
:101E90000A0180910B0190910C016115710581057A
:101EA000910521F464E279ED8BE597E02DE133EFC4
:101EB00041E050E00E94AB0F49015A019B01AC0187
:101EC000A7EAB1E40E94CA0F6B017C01ACEEB4EF4B
:101ED000A50194010E94D80FC60ED71EE81EF91E58
:101EE000F7FE06C081E0C81AD108E10880E8F80AC8
:101EF000C0920901D0920A01E0920B01F0920C010C
:101F0000C701B6019F77FF90EF90DF90CF90BF9011
:101F1000AF909F908F9008956093090170930A018C
:101F200080930B0190930C010895F999FECF92BD17
:101F300081BDF89A992780B50895262FF999FECF8B
:101F40001FBA92BD81BD20BD0FB6F894FA9AF99AD6
:101F50000FBE01960895052E97FB1EF400940E9473
:101F6000C20F57FD07D00E94DD0F07FC03D04EF4CF
:101F70000C94C20F50954095309521953F4F4F4F8F
:101F80005F4F089590958095709561957F4F8F4F25
:101F90009F4F08950E94FF0FA59F900DB49F900D35
:101FA000A49F800D911D11240895B7FF0C94CA0FB2
:101FB0000E94CA0F821B930B0895A1E21A2EAA1B3E
:101FC000BB1BFD010DC0AA1FBB1FEE1FFF1FA217E9
:101FD000B307E407F50720F0A21BB30BE40BF50BE6
:101FE000661F771F881F991F1A9469F7609570956F
:101FF000809590959B01AC01BD01CF010895A29FF2
:10200000B001B39FC001A39F700D811D1124911DCC
:10201000B29F700D811D1124911D08955058BB274A
:10202000AA270E9426100C94A0110E94921138F049
:102030000E94991120F039F49F3F19F426F40C9472
:102040008F110EF4E095E7FB0C948911E92F0E94A3
:10205000B11158F3BA17620773078407950720F088
:1020600079F4A6F50C94D3110EF4E0950B2EBA2F4B
:10207000A02D0B01B90190010C01CA01A00111248E
:10208000FF27591B99F0593F50F4503E68F11A163A
:10209000F040A22F232F342F4427585FF3CF4695CB
:1020A00037952795A795F0405395C9F77EF41F16ED
:1020B000BA0B620B730B840BBAF09150A1F0FF0FB7
:1020C000BB1F661F771F881FC2F70EC0BA0F621FA3
:1020D000731F841F48F4879577956795B795F79593
:1020E0009E3F08F0B0CF9395880F08F09927EE0F28
:1020F0009795879508950E94651108F481E00895E9
:102100000E9494100C94A0110E94991158F00E9402
:10211000921140F029F45F3F29F00C94891151117C
:102120000C94D4110C948F110E94B11168F399236F
:10213000B1F3552391F3951B550BBB27AA276217C3
:102140007307840738F09F5F5F4F220F331F441FD0
:10215000AA1FA9F335D00E2E3AF0E0E832D0915004
:102160005040E695001CCAF72BD0FE2F29D0660FF1
:10217000771F881FBB1F261737074807AB07B0E834
:1021800009F0BB0B802DBF01FF2793585F4F3AF03A
:102190009E3F510578F00C9489110C94D4115F3F47
:1021A000E4F3983ED4F3869577956795B795F795C0
:1021B0009F5FC9F7880F911D9695879597F90895A8
:1021C000E1E0660F771F881FBB1F62177307840744
:1021D000BA0720F0621B730B840BBA0BEE1F88F753
:1021E000E09508950E94F9106894B1110C94D411EF
:1021F00008950E94B91188F09F5798F0B92F992738
:10220000B751B0F0E1F0660F771F881F991F1AF0E1
:10221000BA95C9F714C0B13091F00E94D311B1E062
:1022200008950C94D311672F782F8827B85F39F061
:10223000B93FCCF3869577956795B395D9F73EF47A
:1022400090958095709561957F4F8F4F9F4F089522
:10225000E89409C097FB3EF4909580957095619540
:102260007F4F8F4F9F4F9923A9F0F92F96E9BB27F6
:102270009395F695879577956795B795F111F8CF72
:10228000FAF4BB0F11F460FF1BC06F5F7F4F8F4FDD
:102290009F4F16C0882311F096E911C0772321F0D3
:1022A0009EE8872F762F05C0662371F096E8862F6B
:1022B00070E060E02AF09A95660F771F881FDAF7C2
:1022C000880F9695879597F90895990F0008550FEF
:1022D000AA0BE0E8FEEF16161706E807F907C0F0AC
:1022E00012161306E407F50798F0621B730B840BB4
:1022F000950B39F40A2661F0232B242B252B21F48E
:1023000008950A2609F4A140A6958FEF811D811D2D
:10231000089597F99F6780E870E060E008959FEF67
:1023200080EC089500240A9416161706180609066C
:10233000089500240A94121613061406050608953B
:10234000092E0394000C11F4882352F0BB0F40F4C3
:10235000BF2B11F460FF04C06F5F7F4F8F4F9F4F03
:10236000089557FD9058440F551F59F05F3F71F085
:102370004795880F97FB991F61F09F3F79F08795EC
:102380000895121613061406551FF2CF4695F1DF75
:1023900008C0161617061806991FF1CF8695710505
:1023A000610508940895E894BB2766277727CB0139
:1023B00097F908950E94651108F48FEF08950E941F
:1023C000F2110C94A0110E94921138F00E94991100
:1023D00020F0952311F00C9489110C948F11112485
:1023E0000C94D4110E94B11170F3959FC1F3950F15
:1023F00050E0551F629FF001729FBB27F00DB11D89
:10240000639FAA27F00DB11DAA1F649F6627B00D18
:10241000A11D661F829F2227B00DA11D621F739F01
:10242000B00DA11D621F839FA00D611D221F749F0F
:102430003327A00D611D231F849F600D211D822F56
:10244000762F6A2F11249F5750409AF0F1F088237D
:102450004AF0EE0FFF1FBB1F661F771F881F9150AA
:102460005040A9F79E3F510580F00C9489110C94BF
:10247000D4115F3FE4F3983ED4F386957795679542
:10248000B795F795E7959F5FC1F7FE2B880F911DD4
:102490009695879597F9089597FB072E16F4009463
:1024A00007D077FD09D00E94601207FC05D03EF4EA
:1024B000909581959F4F0895709561957F4F0895F0
:1024C000AA1BBB1B51E107C0AA1FBB1FA617B7075A
:1024D00010F0A61BB70B881F991F5A95A9F7809576
:0C24E0009095BC01CD010895F894FFCF49
:0E24EC00FF00CDCCCC3D01000101000000003E
:00000001FF
