:100000000C946C000C9494000C9494000C94940048
:100010000C9494000C9494000C9494000C94940010
:100020000C9494000C9494000C9494000C94940000
:100030000C9494000C9494000C9494000C949400F0
:100040000C942F050C9494000C949F050C94790546
:100050000C9494000C9494000C9494000C949400D0
:100060000C9494000C94940005A84CCDB2D44EB9D5
:100070003836A9020C50B9918688083CA6AAAA2A4B
:10008000BE000000803F00000000240027002A007E
:1000900000000000250028002B00040404040404D0
:1000A0000404020202020202030303030303010227
:1000B00004081020408001020408102001020408F6
:1000C00010200000000800020100000304070000E7
:1000D0000000000000006B1411241FBECFEFD8E019
:1000E000DEBFCDBF12E0A0E0B1E0E8E3F7E302C07D
:1000F00005900D92AE38B107D9F723E0AEE8B2E033
:1001000001C01D92AD3CB207E1F710E0CCE6D0E0B3
:1001100004C02197FE010E948019CB36D107C9F790
:100120000E94D1050C949A1B0C940000EBE7F3E0BD
:100130008FEF9FEF2191822728E0AC014170552776
:1001400096958795452B21F031E0832730EA932758
:10015000215099F723E0E73CF20761F70895E5ECB9
:10016000F0E02491E1EBF0E09491EDE9F0E0E4912E
:10017000EE23C9F0222339F0233001F1A8F4213015
:1001800019F1223029F1F0E0EE0FFF1FE057FF4F89
:10019000A591B4912FB7F894EC91811126C0909558
:1001A0009E239C932FBF08952730A9F02830C9F0D3
:1001B000243049F7209180002F7D03C020918000DA
:1001C0002F7720938000DFCF24B52F7724BDDBCF9E
:1001D00024B52F7DFBCF2091B0002F772093B00066
:1001E000D2CF2091B0002F7DF9CF9E2BDACF209176
:1001F0000B0190E4299F900111248E50822B809353
:100200007C0080917A00806480937A0080917A00EB
:1002100086FDFCCF809178009091790008953FB7DA
:10022000F8948091DA029091DB02A091DC02B09107
:10023000DD0226B5A89B05C02F3F19F00196A11D30
:10024000B11D3FBFBA2FA92F982F8827BC01CD0120
:10025000620F711D811D911D42E0660F771F881F7F
:10026000991F4A95D1F708958F929F92AF92BF92AE
:10027000CF92DF92EF92FF924B015C010E940F013F
:100280006B017C010E940F016C197D098E099F0989
:10029000683E734081059105A8F321E0821A910818
:1002A000A108B10888EEC80E83E0D81EE11CF11C3D
:1002B00081149104A104B10429F7FF90EF90DF901D
:1002C000CF90BF90AF909F908F9008952FB7F894E4
:1002D0006091D6027091D7028091D8029091D90294
:1002E0002FBF0895AF92BF92CF92DF92EF92FF920D
:1002F0000F931F93CF93DF936C017B018B01040F4E
:10030000151FEB015E01AE18BF08C017D10759F0E9
:100310006991D601ED91FC910190F081E02DC6012B
:100320000995892B79F7C501DF91CF911F910F9125
:10033000FF90EF90DF90CF90BF90AF900895FC01B9
:10034000538D448D252F30E0842F90E0821B930B3A
:10035000541710F0CF96089501970895FC01918DE0
:10036000828D981761F0A28DAE0FBF2FB11D5D96E3
:100370008C91928D9F5F9F73928F90E008958FEF85
:100380009FEF08950F931F930E9466016093E6020A
:100390007093E7028093E8029093E9028EED92E079
:1003A0000E94AE0197FF1DC00E9466010091E60207
:1003B0001091E7022091E8023091E902601B710B75
:1003C000820B930B0091E2021091E3022091E40270
:1003D0003091E5026017710782079307F8F28FEFFB
:1003E0009FEF1F910F910895FC01918D828D9817B9
:1003F00031F0828DE80FF11D858D90E008958FEF2B
:100400009FEF0895FC01918D228D892F90E0805CF3
:100410009F4F821B91098F73992708958EED92E06B
:100420000E94020221E0892B09F420E0822F089526
:1004300080E090E0892B29F00E940E0281110C943B
:1004400000000895FC01A48DA80FB92FB11DA35A77
:10045000BF4F2C91848D90E001968F739927848FE4
:10046000A689B7892C93A089B1898C918370806407
:100470008C93938D848D981306C00288F389E02DA8
:1004800080818F7D80830895EF92FF920F931F9359
:10049000CF93DF93EC0181E0888F9B8D8C8D981337
:1004A0001AC0E889F989808185FF15C09FB7F89443
:1004B000EE89FF896083E889F9898081837080648F
:1004C00080839FBF81E090E0DF91CF911F910F91DA
:1004D000FF90EF900895F62E0B8D10E00F5F1F4FE9
:1004E0000F731127E02E8C8D8E110CC00FB607FCF8
:1004F000FACFE889F989808185FFF5CFCE010E9486
:100500002202F1CFEB8DEC0FFD2FF11DE35AFF4FCF
:10051000F0829FB7F8940B8FEA89FB898081806213
:10052000CFCFCF93DF93EC01888D8823B9F0AA89D0
:10053000BB89E889F9898C9185FD03C0808186FD9E
:100540000DC00FB607FCF7CF8C9185FFF2CF8081ED
:1005500085FFEDCFCE010E942202E9CFDF91CF913E
:100560000895CF93DF93FC01EB0199E0A8EAB2E094
:1005700001900D929A95E1F70E94660160939002B6
:10058000709391028093920290939302D093010111
:10059000C093000181E0209709F480E080939402E9
:1005A000CD2B49F489E0E8EAF2E0A6EBB2E0019055
:1005B0000D928A95E1F7DF91CF910895CF93DF9364
:1005C000D1E0D80FC0E0CD17A0F481E00E94AF00C9
:1005D00066E970E080E090E00E94340180E00E94D3
:1005E000AF0066E970E080E090E00E943401CF5FE8
:1005F000EACFDF91CF91089597FD05C08F3F910518
:1006000009F01CF4089580E008958FEF0895CF92CB
:10061000DF92EF92FF92CF93DF9369017A01C82FA7
:10062000D0E070E06C1B7D0B072E000C880B990B43
:100630000E948815A70196010E94E7156B017C01B5
:10064000BE01DD0F880B990B0E9488159B01AC0140
:10065000C701B6010E9459176B017C0120E030E010
:10066000A9010E94C51820E030E040E05FE387FD6B
:100670000FC0C701B6010E9459170E943718CB015D
:10068000DF91CF91FF90EF90DF90CF900C94FC0220
:10069000C701B6010E945817F0CFFC01019000205D
:1006A000E9F73197AF01481B590BBC018EED92E081
:1006B0000C9472018F929F92AF92BF920F931F93EF
:1006C000CF93DF93CDB7DEB7A1970FB6F894DEBF17
:1006D0000FBECDBF19A2423008F44AE08E010F5D73
:1006E0001F4F842E912CB12CA12CA50194010E94A6
:1006F0002717E62FB901CA01EA30F4F4E05DD8010A
:10070000EE938D01232B242B252B79F790E080E0AD
:10071000109719F0CD010E944D03A1960FB6F894E1
:10072000DEBF0FBECDBFDF91CF911F910F91BF9064
:10073000AF909F908F900895E95CE1CFCF92DF92C8
:10074000EF92FF92CF93DF936B017C016DE28EED10
:1007500092E00E944402EC0166277727CB016C19D6
:100760007D098E099F094AE00E945A038C0F9D1F44
:10077000DF91CF91FF90EF90DF90CF9008950C9490
:100780004D03CF93DF930E944D03EC0188E491E089
:100790000E944D038C0F9D1FDF91CF910895682F0C
:1007A00070E090E080E04AE00C945A03CF93DF932E
:1007B0000E94CF03EC0188E491E00E944D038C0F6E
:1007C0009D1FDF91CF910895CF93DF93BC01990FC7
:1007D000880B990B97FF0CC00E949E03EC0188E4E4
:1007E00091E00E944D038C0F9D1FDF91CF910895E2
:1007F0004AE00E945A03F2CFBC01990F880B990B73
:1008000097FD0C949E034AE00C945A03FC018081EE
:100810009181009711F00C94221A0895FC018081B7
:100820009181009711F00C943C1560E070E0CB01D1
:100830000895FB0144815581FC01248135812417F1
:10084000350778F080819181009759F0FB01608134
:1008500071816115710529F00E948C1B21E0892BA3
:1008600009F020E0822F08950F931F93CF93DF9319
:10087000EC0188819981009759F02A813B812617E4
:10088000370730F081E0DF91CF911F910F910895EC
:100890008B016F5F7F4F0E94AB1A009759F09983CD
:1008A00088831B830A832C813D81232B59F7FC010C
:1008B0001082E8CF80E0E7CFEF92FF920F931F9373
:1008C000CF93DF93EC017B018A01BA010E943404CB
:1008D00028813981811114C02115310519F0C90110
:1008E0000E94221A198218821D821C821B821A827F
:1008F000CE01DF91CF911F910F91FF90EF9008955E
:100900001D830C83B701C9010E94851BF1CFCF93D2
:10091000DF93EC016115710571F0FB01019000207E
:10092000E9F73197AF01461B570B0E945C04CE01DB
:10093000DF91CF91089588819981009711F00E94ED
:10094000221A198218821D821C821B821A82EFCF02
:10095000FC01118210821382128215821482FB0123
:1009600001900020E9F73197AF01461B570B0C941B
:100970005C04AF92BF92CF92DF92EF92FF920F93FF
:100980001F93CF93DF935C016B017A01DB01149617
:100990000D911C910417150720F48F2D7801042F59
:1009A000182F6AE471E0C5010E94A804F601C48111
:1009B000D581EC16FD06C8F40C171D0708F4E801F4
:1009C000D601ED91FC911197EC0FFD1F1081108263
:1009D0006D917C916E0D7F1DC5010E948704F6010B
:1009E00080819181C80FD91F1883C501DF91CF91F4
:1009F0001F910F91FF90EF90DF90CF90BF90AF903D
:100A00000895FF920F931F93CF93DF9381E39DE4AB
:100A100090937C0380937B0384E080937D030E940A
:100A200096009093C8038093C7030BE713E0D0E0D0
:100A3000C0E0F801F1908F01CE010E94A816F816CF
:100A400021F06F2DCE010E94B0162196CE34D10533
:100A500081F7DF91CF911F910F91FF9008951F9221
:100A60000F920FB60F9211242F933F938F939F9362
:100A7000AF93BF938091D6029091D702A091D802F4
:100A8000B091D9023091D50223E0230F2D3758F5CC
:100A90000196A11DB11D2093D5028093D60290939B
:100AA000D702A093D802B093D9028091DA02909134
:100AB000DB02A091DC02B091DD020196A11DB11D07
:100AC0008093DA029093DB02A093DC02B093DD0204
:100AD000BF91AF919F918F913F912F910F900FBE3A
:100AE0000F901F90189526E8230F0296A11DB11DA7
:100AF000D2CF1F920F920FB60F9211242F933F93D4
:100B00004F935F936F937F938F939F93AF93BF9315
:100B1000EF93FF938EED92E00E942202FF91EF91FE
:100B2000BF91AF919F918F917F916F915F914F9105
:100B30003F912F910F900FBE0F901F9018951F920D
:100B40000F920FB60F9211242F938F939F93EF93D1
:100B5000FF93E091EE02F091EF028081E091F402C8
:100B6000F091F50282FD1BC090818091F7028F5FAA
:100B70008F732091F802821741F0E091F702F0E0C4
:100B8000E252FD4F958F8093F702FF91EF919F9175
:100B90008F912F910F900FBE0F901F90189580810D
:100BA000F4CFCF93DF93CDB7DEB7E3970FB6F894CA
:100BB000DEBF0FBECDBF789484B5826084BD84B59E
:100BC000816084BD85B5826085BD85B5816085BD48
:100BD00080916E00816080936E0010928100809100
:100BE0008100826080938100809181008160809388
:100BF0008100809180008160809380008091B100AD
:100C000084608093B1008091B00081608093B000D7
:100C100080917A00846080937A0080917A0082606B
:100C200080937A0080917A00816080937A0080912D
:100C30007A00806880937A001092C100E2EBF0E0C5
:100C40002491EEE9F0E084918823C9F090E0880FC8
:100C5000991FFC01EA57FF4F45915491FC01E05761
:100C6000FF4FA591B4919FB7F894FA013081822F7C
:100C7000809583238083EC91E22BEC939FBFE1EB83
:100C8000F0E02491EDE9F0E08491882399F090E080
:100C9000880F991FFC01EA57FF4FA591B491FC0101
:100CA000E057FF4F859194918FB7F894EC91E22B28
:100CB000EC938FBF80E00E94AF0091E090930B0116
:100CC00084B1866084B981EA8093800089E0809352
:100CD0008100109289001092880010928B0010926F
:100CE0008A00239A83E88093B0009093B10080E853
:100CF0008093B3000BE713E06801F12CE12CC701EE
:100D00000E94A816D6018D936D01BFEFEB1AFB0A66
:100D1000EEE4EE16F10499F780917B0390917C0349
:100D200081339D4409F0CEC080917D03843009F069
:100D3000C9C00E9496002091C7033091C803821752
:100D4000930709F0BFC080917E03883010F01092A5
:100D50007E03E0917E0389E08E9FF0011124E1582B
:100D6000FC4FA6EBB2E0982F01900D929A95E1F717
:100D7000E6EBF2E0A8EAB2E001900D928A95E1F785
:100D8000E091EE02F091EF0282E08083E091EA02CE
:100D9000F091EB021082E091EC02F091ED0280E123
:100DA00080831092F602E091F202F091F30286E065
:100DB0008083E091F002F091F10280818061808374
:100DC000E091F002F091F102808188608083E091EF
:100DD000F002F091F102808180688083E091F0025E
:100DE000F091F10280818F7D808364E670E080E085
:100DF00090E00E9434018BE491E00E94C1038BE6F5
:100E000092E00E94BF0380917E030E94CF0384E89A
:100E100092E00E94BF038091BE020E94D60380919F
:100E2000BE020E94DE028EE00E94F7009695879532
:100E3000969587958093A7028FE00E94F70096957C
:100E40008795969587958093A60280E10E94F7008A
:100E500096958795969587958093A50229E0222EF1
:100E6000332433948EED92E00E940202892B09F420
:100E7000BEC36AE471E0CE0181960E94A8040E947C
:100E8000C20197FD65C08A30910509F461C089836C
:100E90001A820DA11EA10F5F1F4FB801CE018196CE
:100EA0000E943404882359F329A13AA18DA19EA15F
:100EB000BE016F5F7F4F820F931F0E94851B1EA391
:100EC0000DA3DDCF81E39DE490937C0380937B03AE
:100ED00084E080937D0310927E0348E552E0ECE3CA
:100EE0003AE5F0E520E066E0F62E8AE3830F880F0E
:100EF0006EE194E1243010F060E596E4D801149698
:100F0000FC93149715963C9315971696EC931697A9
:100F100017968C93179718966C93189719969C931D
:100F200019971B965C934E931A97822F6F2D0E94F0
:100F30004C191C969C932F5FF45F075F1F4F365F21
:100F4000EF5E48535F4F283081F60E94010501CFC4
:100F50001A8A198A1C8A1B8A1E8A1D8A69A17AA18B
:100F60006115710531F04DA15EA1CE0141960E943F
:100F70005C04C988DA88C114D10439F00D891E894E
:100F800076010115110509F03FC08D899E89892BD5
:100F900009F43DC169E571E0CE0101960E94A80403
:100FA000BE016F5F7F4FCE0141960E941904182F3A
:100FB000CE0101960E940604112309F464C045E0A5
:100FC00050E0BE016F5E7F4FCE0101960E94B904D2
:100FD000CE0101960E940E046B01CE0101960E9483
:100FE0000604B6E0CB16D10408F044C0C092BE029D
:100FF000C092B0028C2D0E94DE028FE591E00E942B
:10100000BF03C6013DC075015701BFEFAB1ABB0A54
:10101000F7018081082E000C990B0E947815892B0E
:1010200091F7015011090C0D1D1DD8018C91082E4E
:10103000000C990B0E947815892B31F00E151F05B5
:1010400018F001501109F1CFA8014F5F5F4F4E1901
:101050005F095E8B4D8BCE14DF0420F4B701C6010F
:101060000E94681BE989FA898D899E89E80FF91F1A
:1010700010828BCF88E691E00E94BF0385E090E06C
:101080000E94E403C4C065E771E0CE0101960E94AE
:10109000A804BE016F5F7F4FCE0141960E941904E4
:1010A000182FCE0101960E940604112359F146E043
:1010B00050E0BE016F5E7F4FCE0101960E94B904E1
:1010C000CE0101960E940E046B01CE0101960E9492
:1010D0000604E1EACE16EFE0DE0678F4D0920101D4
:1010E000C0920001D092BD02C092BC02D092AF0269
:1010F000C092AE028CE791E082CF86E891E00E9438
:10110000C10385C068E971E0CE0101960E94A80480
:10111000BE016F5F7F4FCE0141960E941904182FC8
:10112000CE0101960E940604112309F47CC08D892A
:101130009E89049708F46BC009891A8960E270E0FF
:10114000C80103960E94711B009709F460C09C01BE
:10115000201B310B8901121613060CF058C06901CF
:1011600083E0A82EB12C2330310524F0590193E0FF
:10117000C92ED12C6AE471E0CE0101960E94A80428
:10118000ED88FE88CE14DF04C0F4AE14BF0408F46A
:101190007501E989FA89EE0DFF1DB0801082698919
:1011A0007A896C0D7D1DCE0101960E948704898984
:1011B0009A89E80EF91ED701BC92CE0101960E94D1
:1011C0000E044B01CE0101960E940604A8014F5F58
:1011D0005F4FBE016F5E7F4FCE0101960E94B90442
:1011E000CE0101960E940E046B01CE0101960E9471
:1011F0000604BFEF8B16910409F090F4EFEFCE16C2
:10120000D10409F068F480920401C0920301CE0178
:1012100041960E940604CE0181960E94060422CEC9
:101220008CE991E06CCF6AEA71E0CE0101960E94F0
:10123000A804BE016F5F7F4FCE0141960E94190442
:10124000182FCE0101960E9406041123E9F042E016
:1012500050E0BE016F5E7F4FCE0101960E94B9043F
:10126000CE0101960E940E046B01CE0101960E94F0
:101270000604FFEFCF16D10409F018F4C092020162
:10128000C6CF8DEA91E03BCF6AEB71E0CE010196CB
:101290000E94A804BE016F5F7F4FCE0141960E945D
:1012A0001904182FCE0101960E9406041123D1F1D2
:1012B00045E050E0BE016F5E7F4FCE0101960E9477
:1012C000B904CE0101960E940E046B01CE01019675
:1012D0000E94060408E0C016D10408F5C0927E03FF
:1012E0002C9CF0012D9CF00D1124E158FC4FDE01E7
:1012F0001196822D01900D928A95E1F76F81788584
:10130000CE0101960E94B10230920A013092090189
:10131000309208010E94010580EC91E070CE89ECCA
:1013200091E0EDCE67ED71E0CE0101960E94A80438
:10133000BE016F5F7F4FCE0141960E941904182FA6
:10134000CE0101960E940604112371F145E050E0A0
:10135000BE016F5E7F4FCE0101960E94B904CE019F
:1013600001960E940E046B01CE0101960E940604B4
:1013700018E0C116D104A8F42C9CD0012D9CB00D0E
:101380001124A158BC4FE6EBF2E0822D01900D92A2
:101390008A95E1F7C0927E030E9401058DED91E0F0
:1013A0002ECE86EE91E0ABCE64EF71E0CE010196D9
:1013B0000E94A804BE016F5F7F4FCE0141960E943C
:1013C0001904182FCE0101960E940604112309F476
:1013D0007EC044E050E0BE016F5E7F4FCE010196BB
:1013E0000E94B904CE0101960E940E046B01CE0149
:1013F00001960E94060428E0C216D10408F064C0D9
:101400008BE692E00E94BF03C6010E94FC0389EFB5
:1014100091E00E94BF032C9C80012D9C100D112493
:1014200005581C4FD8011C968C910E94CF038DEF5C
:1014300091E00E94BF03F80184810E94CF0381E004
:1014400092E00E94BF03D80115968C910E94CF03B1
:1014500085E092E00E94BF03F80186810E94CF03DD
:1014600089E092E00E94BF03D80117968C910E94F8
:10147000CF038EE092E00E94BF03F80180850E94B6
:10148000CF0383E192E00E94BF03FFEFCF1ADF0A90
:101490002C9CF0012D9CF00D1124E558FC4F80810F
:1014A0000E94CF0388E192E00E94BF03D8011A9600
:1014B0006D917C9190E080E04AE00E945A0388E4BC
:1014C00091E00E944D03A3CE8CE192E018CE69E238
:1014D00072E0CE0101960E94A804BE016F5F7F4FAB
:1014E000CE0141960E941904182FCE0101960E9448
:1014F0000604112311F145E050E0BE016F5E7F4FFD
:10150000CE0101960E94B904CE0101960E940E04FC
:101510006B01CE0101960E940604BDE0CB16D104FA
:1015200028F4C092A4028FE292E069CD88E392E0B1
:101530000E94BF038CE090E0A3CD8D899E89892B0A
:1015400009F452C065E472E089899A890E947C1B83
:10155000892B09F049C08CE492E00E94BF0380917E
:101560007E030E94CF0384E592E00E94BF03809136
:10157000BE020E94CF0381E392E00E94BF038091EC
:10158000A40290E00E94FC038BE592E00E94BF035E
:10159000609100017091010190E080E04AE00E94BA
:1015A0005A038DEF91E00E94BF0360918800709113
:1015B000890090E080E04AE00E945A0381E092E0D6
:1015C0000E94BF0360918A0070918B0090E080E0E0
:1015D0004AE00E945A0385E092E00E94BF03809196
:1015E000B3000E94D60313CE83E692E088CD0E941A
:1015F00066014B015C018091CD0281110AC080928D
:10160000C9029092CA02A092CB02B092CC02309250
:10161000CD028091C9029091CA02A091CB02B091F3
:10162000CC0295018401081B190B2A0B3B0BC90145
:10163000B8010E94861520E030E04AE754E40E9499
:10164000C5176CA77DA78EA79FA78092C90290920D
:10165000CA02A092CB02B092CC028091C5029091B6
:10166000C602A091C702B091C802A5019401281B2F
:10167000390B4A0B5B0BDA01C9010597A105B105CE
:1016800040F11091A4021123E1F081E10E94F700E2
:101690009C019093A2028093A10201E00FA38130EC
:1016A000924008F41FA2143009F4F6C208F0A6C252
:1016B000113009F4B7C2133009F4DFC20FA100934F
:1016C0008F028092C5029092C602A092C702B09289
:1016D000C80289B180712091C3023091C4022115E2
:1016E000310509F076C381110EC021E030E030935E
:1016F000C4022093C3028092BF029092C002A092C3
:10170000C102B092C20280919402882309F4B0C051
:101710000E94660100919002109191022091920224
:1017200030919302601B710B820B930B0E94861504
:101730006B017C01609100017091010190E080E0FB
:101740000E9486159B01AC01C701B6010E94C51716
:101750006B017C0120E030E040E85FE30E94C518A7
:1017600087FD08C010929402C12CD12C10E8E12E04
:101770001FE3F12EA70196016091A8028091B602A5
:101780000E9407038093B602A70196016091A90207
:101790008091B7020E9407038093B702A7019601C8
:1017A0006091AA028091B8020E9407038093B80258
:1017B000A70196016091AB028091B9020E940703D4
:1017C0008093B902A70196016091AC028091BA02A0
:1017D0000E9407038093BA02A70196016091AD02AF
:1017E0008091BB020E9407038093BB020091BC0260
:1017F0001091BD026091AE027091AF02600F711F37
:1018000090E080E00E9486154B015C01B801110F49
:10181000880B990B0E948815A70196010E94E71575
:101820009B01AC01C501B4010E9458176B017C01FA
:1018300020E030E0A9010E94C51820E030E040E03F
:101840005FE387FD90C3C701B6010E9459170E944C
:101850003718272F862F922F97FF02C090E080E045
:101860009093BD028093BC028091B0028093BE022F
:101870008EE00E94F7007C01F694E794F694E794DA
:101880008FE00E94F7008C01169507951695079535
:1018900080E10E94F700969587959695879520910F
:1018A0000801222369F02091A7024E2D421B550BFF
:1018B0009A012B5F3F4F2B30310510F41092080135
:1018C00020910901222369F02091A602A02FA21BDA
:1018D000BB0B9D012B5F3F4F2B30310510F4109255
:1018E000090120910A01222369F02091A502E82F25
:1018F000E21BFF0B9F012B5F3F4F2B30310510F494
:1019000010920A0120910801211102C0E092A70261
:1019100020910901211102C00093A60220910A0121
:10192000211102C08093A5020091A4020FA380910F
:10193000BE02833009F43AC608F01AC31091B60209
:1019400018AB0091B70209AB1091B8021AAB009125
:10195000A6020BAB1091A502813009F48FC382302F
:1019600009F4CEC41091A5020091A6026091A702CD
:101970002FA1293009F058C36091A1027091A202F1
:1019800090E080E00E94861520E030EC4FE754E4C0
:101990000E94C5176B017C01602F70E090E080E031
:1019A0000E94881520E030E04FE753E40E94C517FD
:1019B0004B015C018091B802482F50E059A748A71D
:1019C0006091B60270E090E080E00E9488152B01E3
:1019D0003C01A701960160E070E080E89FE30E946F
:1019E00058179B01AC01C301B2010E94E7152B01FE
:1019F0003C016091B70270E090E080E00E948815A1
:101A0000A70196010E94E7159B01AC01C301B20139
:101A10000E9459176B017C01A501940160E070E000
:101A200080E89FE30E9458179B01AC01C701B601F3
:101A30000E94E7156B017C01A8A5B9A5BD01BB0FEC
:101A4000880B990B0E948815A50194010E94E71547
:101A50009B01AC01C701B6010E9459174B015C0103
:101A60006091B9020FA1053009F4E8C270E090E07E
:101A700080E00E94861520E030E04FE753E40E94AA
:101A8000C51724E13EEA4FE151E40E94E7152AE040
:101A900037ED43EA5CE30E9459179B01AC016CA54A
:101AA0007DA58EA59FA50E94E715209199023091F2
:101AB0009A0240919B0250919C020E9459176B011F
:101AC0007C0120E030E040E85FE30E94C518181672
:101AD0000CF4C1C2C0929902D0929A02E0929B0289
:101AE000F0929C022AED3FE049EC50E460919902AB
:101AF00070919A0280919B0290919C020E94E7153E
:101B00000E94CA182B013C010FA1C12CD12CE0E886
:101B1000EE2EEFE3FE2E023081F46091A10270916F
:101B2000A20290E080E00E94861520E030EC4FE7B2
:101B300054E40E94C5176B017C01612F70E090E0B6
:101B400080E00E94881520E030E04FE753E40E94D7
:101B5000C51720E030E040E05FE30E94E71520E099
:101B600030E04EEF52E40E94E715A30192010E947B
:101B7000E715A70196010E94E7150E9437186B012F
:101B8000C501B4010E9437188B010C191D09CB0146
:101B90008C0D9D1D0E94FC02D82EC8010E94FC02E3
:101BA000C82E88A599A50E94FC021FA11C3009F02F
:101BB0008BC69091A302992309F486C6D0900701A1
:101BC000C0900601809105016D2D70E07093890031
:101BD00060938800D12CD0928B00C0928A008093B1
:101BE000B30080E090E0892B09F43CC90E940E020A
:101BF000882309F433C90E94000030C91A3009F45F
:101C000079C01C3009F05ACD0FA10093A3022130F6
:101C1000324008F453CD80918F0281114FCD87E778
:101C200092E0D4C02130324008F448CD80918F0238
:101C3000811144CD80917E038F5F877080937E03F6
:101C4000289EC0011124FC01E558FC4F6285738574
:101C500081589C4F0E94B10210930A011093090110
:101C6000109308010E94010587E692E00E94BF03DD
:101C700080917E030E94D60321CDA0EABFE00E949E
:101C800049172FEF33E040E050E00E94BE1630933A
:101C900001012093000112CDA7E0B0E00E94491796
:101CA0002FEF33E040E050E00E94BE16122F8091EB
:101CB0008E02821709F402CD20938E0220937E03B8
:101CC000229EC0011124FC01E558FC4F62857385FA
:101CD00081589C4F0E94B10230920A013092090152
:101CE000309208010E9401058DE692E00E94BF0338
:101CF000812FC0CF213082E0380708F4DFCC8091FB
:101D00008F028111DBCCB90190E080E006E0660F24
:101D1000771F881F991F0A95D1F72FEF33E040E016
:101D200050E00E94BE160091B60210E044245524F3
:101D3000421A530A052C000C660877082F5F3F4FA4
:101D40006901330FEE08FF08C418D508E608F70844
:101D50000E94E414A70196010E94BE16DC01CB018B
:101D6000840D951DA61DB71D800F911F0E94FC02BA
:101D70008093B6020091B70210E00E94E414A7011C
:101D800096010E94BE16DC01CB01840D951DA61D97
:101D9000B71D800F911F0E94FC028093B702009133
:101DA000B80210E00E94E414A70196010E94BE163A
:101DB000DC01CB01840D951DA61DB71D800F911F61
:101DC0000E94FC028093B80282E792E00E94C10365
:101DD00075CC2130310509F0BAC04091BF02509155
:101DE000C0026091C1027091C20295018401041B7E
:101DF000150B260B370BB901A801882309F49AC0EB
:101E00001092C4021092C302E0917E034E3E5240F3
:101E10006105710518F12E9ED0011124A158BC4F07
:101E2000E6EBF2E0822D01900D928A95E1F70E9497
:101E3000010581E00E94AF0064EF71E080E090E076
:101E40000E94340180E00E94AF008BE792E00E9484
:101E5000BF0380917E030E94D60355CC8091B502CA
:101E60008823B9F18091B1029091B202A091B3029E
:101E7000B091B402A5019401281B390B4A0B5B0BEE
:101E8000DA01C9018B3F9105A105B10510F58091DB
:101E9000BE0290E0019666E070E00E945819182F8B
:101EA0008093BE028093B0022E9EF0011124E5586B
:101EB000FC4F84870E940105812F0E94DE0281E889
:101EC00092E00E94BF03812F0E94D6031092B502B8
:101ED0001ACCEF5FE770E0937E032E9EF001112491
:101EE000E158FC4FDE011196822D01900D928A95EA
:101EF000E1F76F817885CE0101960E94B1023092A0
:101F00000A0130920901309208010E94010587E818
:101F100092E00E94BF0380917E030E94D60330921C
:101F2000B5028092B1029092B202A092B302B09236
:101F3000B402E9CB4E3E52406105710508F4E3CB93
:101F400082E090E09093C4028093C302DCCB223005
:101F5000310509F0D8CB882309F4D5CB1092C402FF
:101F60001092C302B3CFC701B6010E9458176FCCBD
:101F7000843009F492C3853009F0F4CCD090040188
:101F8000C09003010FA1083009F076C46091A1024E
:101F90007091A20290E080E00E94861520E030EC73
:101FA0004FE754E40E94C51726E636E646EE5FE3A7
:101FB0000E94E7152DEC3CEC4CE45EE30E945917BF
:101FC0004B015C012D2D2058330BB901072E000C5D
:101FD000880B990B0E948815A50194010E94E715B2
:101FE0000E9437187B0130E8E30EF11C4C2D40585D
:101FF000550BBA01072E000C880B990B0E9488150F
:10200000A50194010E94E7150E9437188B01005822
:102010001F4FC7010E94FC02D82EC8010E94FC027B
:10202000C82E80910201C1CD70E090E080E00E9456
:10203000881520E030E04FE753E4AACC6091A1027C
:102040007091A20290E080E00E94861520E030ECC2
:102050004FE754E414CDC701B6010E946D189B01EF
:10206000AC01C701B6010E945817609399027093A2
:102070009A0280939B0290939C0234CD0FA106306C
:1020800081F56091A1027091A20290E080E00E942F
:10209000861520E030EC4FE754E40E94C51720E09D
:1020A00030E040EF52E40E94E71520E030E040E7E6
:1020B00052E40E94581768A779A78AA79BA70BA983
:1020C000602F70E090E080E00E94861520E030E014
:1020D0004FE753E40E94C51720E030E040E05FE3A3
:1020E00038C06091A70270E090E080E00E94861501
:1020F00020E030E04FE753E40E94C51720E030E0D5
:1021000040EA52E40E94E71520E030E040E252E469
:102110000E94581768A779A78AA79BA70FA1073025
:1021200071F66091A1027091A20290E080E00E949D
:10213000861520E030EC4FE754E40E94C5172AE9E9
:1021400039E949ED5FE30E94E7152AE939E949E9F0
:102150005EE30E9459174B015C01612F70E090E033
:1021600080E00E94861520E030E04FE753E40E94B3
:10217000C51720E030E040E05FE30E94E71520E073
:1021800030E0A9010E9459172CA53DA54EA55FA5D9
:102190000E94E71520919502309196024091970296
:1021A000509198020E9459176B017C010E946D1892
:1021B0002B013C0120E030E040E85FE3C701B601BD
:1021C0000E94C51818160CF47FC0C0929502D092D8
:1021D0009602E0929702F0929802C0909502D090F9
:1021E0009602E0909702F0909802C701B6010E9413
:1021F0006D189B01AC01C701B6010E9458176B0115
:102200007C0120E030E040E05FE30E94811587FF21
:102210006AC020E030E040E850E4C701B6010E9407
:10222000E71520E030E040E85FE30E94581720E027
:1022300030E040EA51E40E94E7150E9437186B0134
:1022400018A9612F70E090E080E00E948815A50138
:1022500094010E94E7150E9437188B010C0D1D1D7B
:1022600029A9622F70E090E080E00E948815A50106
:1022700094010E94E7150E9437182B0168A579A5E3
:102280008AA59BA50E943718460E571E4C185D085C
:102290003AA9632F70E090E080E00E948815A501C4
:1022A00094010E94E7150E943718CB010E94FC029E
:1022B000F82EC8010E94FC02D82EC2010E94FC0226
:1022C000C82E8F2D90E06FCCA3019201C701B601FB
:1022D0000E9458176093950270939602809397021C
:1022E000909398027ACFA701960160E070E080E8B1
:1022F0009FE30E94581720E030E040E850E48FCF81
:102300006091A7020FA1053009F011C16091A102EF
:102310007091A20290E080E00E94861520E030ECEF
:102320004FE754E40E94C51724E13EEA4FE151E42F
:102330000E94E7152AE037ED43EA5CE30E94591753
:102340009B01AC016CA57DA58EA59FA50E94E715FC
:102350002B013C012091990230919A0240919B02FD
:1023600050919C020E9459174B015C0120E030E023
:1023700040E85FE30E94C51818160CF4E8C080928C
:10238000990290929A02A0929B02B0929C0223E83A
:1023900030EC4AE25FE3C301B2010E94E7152091ED
:1023A00095023091960240919702509198020E94B6
:1023B00059174B015C010E946D182B013C0120E074
:1023C00030E040E85FE3C501B4010E94C51818166B
:1023D0000CF4D0C08092950290929602A09297023F
:1023E000B09298022AED3FE049EC50E460919902E6
:1023F00070919A0280919B0290919C020E94E71535
:102400000E94CA182B013C01809095029090960280
:10241000A0909702B0909802C501B4010E946D1877
:102420009B01AC01C501B4010E9458174B015C012E
:1024300020E030E040E05FE30E94811587FFA9C003
:1024400020E030E040E850E4C501B4010E94E71507
:1024500020E030E040E85FE30E9458176B017C0108
:102460000FA1812C912C70E8A72E7FE3B72E0230AC
:1024700081F46091A1027091A20290E080E00E943C
:10248000861520E030EC4FE754E40E94C5174B015D
:102490005C01612F70E090E080E00E94881520E0F0
:1024A00030E04FE753E40E94C51720E030E04EEFE4
:1024B00052E40E94E715A70196010E94E715A501C5
:1024C00094010E94E7150E94371829A9022F10E0F5
:1024D000060F171F3BA9632F70E090E080E00E9479
:1024E000881520E030E04FE753E40E94C51720E054
:1024F00030E04EEF52E40E94E715A30192010E94E2
:10250000E715A50194010E94E7150E94371848A914
:10251000242F30E0C901860F971F0E94FC02D82E9D
:10252000C8010E94FC02C82E0AA9802FCBCE70E001
:1025300090E080E00E94861520E030E04FE753E411
:102540000E94C51729E23CE54FEF50E4F1CEC501EA
:10255000B4010E946D189B01AC01C501B4010E9439
:1025600058176093990270939A0280939B029093FC
:102570009C020DCFA3019201C501B4010E9458171E
:1025800060939502709396028093970290939802BD
:1025900029CFA501940160E070E080E89FE30E94EC
:1025A000581720E030E040E850E450CF1091A502E9
:1025B0000091A6026091A70270E090E080E00E9486
:1025C000861520E030E04FE753E40E94C51720E075
:1025D00030EE46E755E40E94E71520E030E048E49D
:1025E00052E40E9459170E943E18709301016093B3
:1025F0000001602F70E090E080E00E94861520E0EE
:1026000030E04FE753E40E94C51720E030E040E09F
:1026100053E40E94E71520E030E040E852E40E94D5
:1026200058170E9437186B01612F70E090E080E02E
:102630000E94861520E030E04FE753E40E94C51762
:1026400020E030E0A9010E9459170E9437186C9DC4
:10265000A0016D9D500D7C9D500D1124E090B7029E
:10266000E40EF52EF11C0091B80210E09A0157FF1C
:1026700002C02F5F3F4F35952795020F131F209102
:10268000B602CA01820F911D0E94FC02D82EC7011A
:102690000E94FC02C82EC80186CAD090A502F09004
:1026A000A6026091A70270E090E080E00E9486158B
:1026B00020E030E04FE753E40E94C5172AE939E9EA
:1026C00049EF50E40E94E7152DEC3CEC4CE45EE34E
:1026D0000E9459172CA53DA54EA55FA50E94E715A0
:1026E00020919D0230919E0240919F025091A00244
:1026F0000E9459174B015C0120E030E040E85FE3A5
:102700000E94C51818160CF4A4C080929D029092E5
:102710009E02A0929F02B092A00220E030E040E032
:1027200051E460919D0270919E0280919F02909170
:10273000A0020E94E7150E9437184B018B01077019
:10274000112780E1E6E1F1E0DE01519601900D9262
:102750008A95E1F780E1E6E2F1E0DE011196019071
:102760000D928A95E1F76F2D70E090E080E00E9475
:10277000861520E030E04FE753E40E94C51720E0C3
:1027800030E04EEF52E40E94E71520E030E040E8F0
:1027900052E40E9459170E9437187B012FE7E21A72
:1027A000F1086D2D70E090E080E00E94861520E039
:1027B00030E04FE753E40E94C51720E030E040ECE2
:1027C00051E40E94E71520E030E0A9010E9459176A
:1027D0000E9437189B01A091B602000F111FE1E083
:1027E000F0E0EC0FFD1FE00FF11F408951894A0F07
:1027F000511DFA01EE0DFF1D41E084229924892824
:1028000049F437FF02C02F5F3F4F3595279531952B
:10281000219531096091B70281E090E08C0F9D1FF6
:10282000080F191FD8014D915C91640F752F711D10
:10283000E60EF71EE21AF30ACF01820F931F0E94E1
:10284000FC02D82EC7010E94FC02C82E8091B8025B
:1028500039CDC501B4010E946D189B01AC01C501C1
:10286000B4010E94581760939D0270939E0280935A
:102870009F029093A00251CF0FA10B3009F0D1CB52
:10288000A091A102B091A20224E03FEF4FEF5FEFD1
:102890000E94DD162FEF33E040E050E00E94BE16AC
:1028A000622F70E080E091E00E945819262F8D2D54
:1028B0000E944C19829FD02C11248C2D0E944C19FF
:1028C000829FC02C1124ADCBD0920701C09206018B
:1028D0008093050179C9EEEDF2E01382128288EE51
:1028E00093E0A0E0B0E084839583A683B7838AE376
:1028F00091E09183808385EC90E09587848784ECD8
:1029000090E09787868780EC90E0918B808B81ECBC
:1029100090E0938B828B82EC90E0958B848B86EC9D
:1029200090E0978B868B118E128E138E148E0895E5
:102930008F929F92AF92BF92CF92DF92EF92FF92CF
:10294000CF93DF93EC01688179818A819B81611546
:1029500071058105910521F464E279ED8BE597E03D
:102960002DE133EF41E050E00E94BE1649015A01CB
:102970009B01AC01A7EAB1E40E94DD166B017C016A
:10298000ACEEB4EFA50194010E94EB16C60ED71E63
:10299000E81EF91EF7FE06C081E0C81AD108E1085A
:1029A00080E8F80AC882D982EA82FB82C701B601B0
:1029B0009F77DF91CF91FF90EF90DF90CF90BF9006
:1029C000AF909F908F9008958F929F92AF92BF92F9
:1029D000CF92DF92EF92FF9260910C0170910D0106
:1029E00080910E0190910F0161157105810591058E
:1029F00021F464E279ED8BE597E02DE133EF41E0DE
:102A000050E00E94BE1649015A019B01AC01A7EAA1
:102A1000B1E40E94DD166B017C01ACEEB4EFA501C0
:102A200094010E94EB16C60ED71EE81EF91EF7FE93
:102A300006C081E0C81AD108E10880E8F80AC0920F
:102A40000C01D0920D01E0920E01F0920F01C7012E
:102A5000B6019F77FF90EF90DF90CF90BF90AF903F
:102A60009F908F90089560930C0170930D01809357
:102A70000E0190930F0108951F93FC019927882759
:102A8000BC01E89411911032E9F3193010F01E30B6
:102A9000C8F31B3251F01D3249F4689406C00E94FD
:102AA0006315610F711D811D911D119110531A3015
:102AB000B0F33EF490958095709561957F4F8F4F60
:102AC0009F4F1F910895592F482F372F262F660F9C
:102AD000771F881F991F660F771F881F991F620F26
:102AE000731F841F951F660F771F881F991F0895F6
:102AF00091110C945416803219F089508550C8F702
:102B000008950E94C31508F481E00895E89409C06F
:102B100097FB3EF490958095709561957F4F8F4F10
:102B20009F4F9923A9F0F92F96E9BB279395F69526
:102B3000879577956795B795F111F8CFFAF4BB0FA4
:102B400011F460FF1BC06F5F7F4F8F4F9F4F16C008
:102B5000882311F096E911C0772321F09EE8872F92
:102B6000762F05C0662371F096E8862F70E060E04E
:102B70002AF09A95660F771F881FDAF7880F9695C7
:102B8000879597F90895990F0008550FAA0BE0E86B
:102B9000FEEF16161706E807F907C0F0121613061F
:102BA000E407F50798F0621B730B840B950B39F45F
:102BB0000A2661F0232B242B252B21F408950A26C5
:102BC00009F4A140A6958FEF811D811D08950E94F3
:102BD000FA150C946E160E94601638F00E94671663
:102BE00020F0952311F00C9457160C945D161124C7
:102BF0000C94A2160E947F1670F3959FC1F3950F57
:102C000050E0551F629FF001729FBB27F00DB11D70
:102C1000639FAA27F00DB11DAA1F649F6627B00D00
:102C2000A11D661F829F2227B00DA11D621F739FE9
:102C3000B00DA11D621F839FA00D611D221F749FF7
:102C40003327A00D611D231F849F600D211D822F3E
:102C5000762F6A2F11249F5750409AF0F1F0882365
:102C60004AF0EE0FFF1FBB1F661F771F881F915092
:102C70005040A9F79E3F510580F00C9457160C94D4
:102C8000A2165F3FE4F3983ED4F386957795679557
:102C9000B795F795E7959F5FC1F7FE2B880F911DBC
:102CA0009695879597F9089599278827089597F914
:102CB0009F6780E870E060E008959FEF80EC0895E2
:102CC00000240A941616170618060906089500240B
:102CD0000A9412161306140605060895092E039485
:102CE000000C11F4882352F0BB0F40F4BF2B11F4F9
:102CF00060FF04C06F5F7F4F8F4F9F4F089557FD58
:102D00009058440F551F59F05F3F71F04795880F59
:102D100097FB991F61F09F3F79F0879508951216F0
:102D200013061406551FF2CF4695F1DF08C016169C
:102D300017061806991FF1CF86957105610508944D
:102D40000895E894BB2766277727CB0197F9089564
:102D5000F999FECF92BD81BDF89A992780B5089563
:102D6000262FF999FECF1FBA92BD81BD20BD0FB6A7
:102D7000F894FA9AF99A0FBE01960895052E97FBDA
:102D80001EF400940E94D51657FD07D00E94271705
:102D900007FC03D04EF40C94D51650954095309511
:102DA00021953F4F4F4F5F4F0895909580957095B7
:102DB00061957F4F8F4F9F4F08950E944917A59FA0
:102DC000900DB49F900DA49F800D911D1124089526
:102DD000B7FF0C94DD160E94DD16821B930B08953D
:102DE0002F923F924F925F926F927F928F929F921B
:102DF000AF92BF92CF92DF92EF92FF920F931F9309
:102E0000CF93DF93CDB7DEB7CA1BDB0B0FB6F894B9
:102E1000DEBF0FBECDBF09942A88398848885F84F9
:102E20006E847D848C849B84AA84B984C884DF806A
:102E3000EE80FD800C811B81AA81B981CE0FD11D4E
:102E40000FB6F894DEBF0FBECDBFED010895A1E22D
:102E50001A2EAA1BBB1BFD010DC0AA1FBB1FEE1F14
:102E6000FF1FA217B307E407F50720F0A21BB30B5F
:102E7000E40BF50B661F771F881F991F1A9469F7DB
:102E800060957095809590959B01AC01BD01CF0137
:102E90000895A29FB001B39FC001A39F700D811D33
:102EA0001124911DB29F700D811D1124911D089553
:102EB0005058BB27AA270E9470170C946E160E94C8
:102EC000601638F00E94671620F039F49F3F19F41D
:102ED00026F40C945D160EF4E095E7FB0C9457165F
:102EE000E92F0E947F1658F3BA1762077307840709
:102EF000950720F079F4A6F50C94A1160EF4E09550
:102F00000B2EBA2FA02D0B01B90190010C01CA01A3
:102F1000A0011124FF27591B99F0593F50F4503E4E
:102F200068F11A16F040A22F232F342F4427585F40
:102F3000F3CF469537952795A795F0405395C9F758
:102F40007EF41F16BA0B620B730B840BBAF0915010
:102F5000A1F0FF0FBB1F661F771F881FC2F70EC0AF
:102F6000BA0F621F731F841F48F487957795679582
:102F7000B795F7959E3F08F0B0CF9395880F08F06E
:102F80009927EE0F9795879508950E94D9170C946D
:102F90006E160E94671658F00E94601640F029F4E1
:102FA0005F3F29F00C94571651110C94A2160C9403
:102FB0005D160E947F1668F39923B1F3552391F3B0
:102FC000951B550BBB27AA2762177307840738F098
:102FD0009F5F5F4F220F331F441FAA1FA9F335D0F5
:102FE0000E2E3AF0E0E832D091505040E695001CA9
:102FF000CAF72BD0FE2F29D0660F771F881FBB1F63
:10300000261737074807AB07B0E809F0BB0B802D40
:10301000BF01FF2793585F4F3AF09E3F510578F06C
:103020000C9457160C94A2165F3FE4F3983ED4F329
:10303000869577956795B795F7959F5FC9F7880F40
:10304000911D9695879597F90895E1E0660F771F92
:10305000881FBB1F621773078407BA0720F0621B23
:10306000730B840BBA0BEE1F88F7E09508950E944E
:103070003E186894B1110C94A21608950E94871608
:1030800088F09F5798F0B92F9927B751B0F0E1F029
:10309000660F771F881F991F1AF0BA95C9F714C0D9
:1030A000B13091F00E94A116B1E008950C94A116E0
:1030B000672F782F8827B85F39F0B93FCCF3869512
:1030C00077956795B395D9F73EF49095809570956F
:1030D00061957F4F8F4F9F4F08950E94AD1890F0DC
:1030E0009F3748F4911116F00C94A21660E070E03E
:1030F00080E89FEB089526F41B16611D711D811D4C
:103100000C9484180C949F18882371F4772321F071
:103110009850872B762F07C0662311F499270DC08E
:103120009051862B70E060E02AF09A95660F771F29
:10313000881FDAF7880F9695879597F908959F3F2E
:1031400031F0915020F4879577956795B795880F62
:10315000911D9695879597F908950E948716A0F07E
:10316000BEE7B91788F4BB279F3860F41616B11D67
:10317000672F782F8827985FF7CF86957795679583
:10318000B11D93959639C8F308950E94C31508F4AC
:103190008FEF08959F930E94D4180F9007FCEE5F65
:1031A0000C94FD180C945D160E948716D8F3E894D1
:1031B000E0E0BB279F57F0F02AED3FE049EC06C066
:1031C000EE0FBB0F661F771F881F28F0B23A620709
:1031D0007307840728F0B25A620B730B840BE395D4
:1031E0009A9572F7803830F49A95BB0F661F771F57
:1031F000881FD2F790480C94A118EF93E0FF07C006
:10320000A2EA2AED3FE049EC5FEB0E9470170E94B2
:103210006E160F90039401FC9058E8E6F0E00C94D1
:1032200011199F938F937F936F93FF93EF939B015C
:10323000AC010E94E715EF91FF910E9425192F9193
:103240003F914F915F910C94E715DF93CF931F93BC
:103250000F93FF92EF92DF927B018C01689406C07E
:10326000DA2EEF010E94FA15FE01E894A59125914E
:10327000359145915591A6F3EF010E947017FE011B
:103280009701A801DA9469F7DF90EF90FF900F9112
:103290001F91CF91DF910895991B79E004C0991F88
:1032A000961708F0961B881F7A95C9F780950895A0
:1032B00097FB072E16F4009407D077FD09D00E94E3
:1032C0006C1907FC05D03EF4909581959F4F0895A9
:1032D000709561957F4F0895AA1BBB1B51E107C0F4
:1032E000AA1FBB1FA617B70710F0A61BB70B881F96
:1032F000991F5A95A9F780959095BC01CD01089525
:10330000EE0FFF1F0590F491E02D09940F931F938A
:10331000CF93DF938230910510F482E090E0E0914A
:10332000CB03F091CC0330E020E0B0E0A0E0309798
:1033300099F42115310509F44AC0281B390B2430B2
:103340003105D8F58A819B816115710589F1FB01F1
:1033500093838283FE0111C04081518102811381D8
:1033600048175907E0F04817590799F4109761F08A
:1033700012960C93129713961C933296CF01DF91FD
:10338000CF911F910F9108950093CB031093CC031D
:10339000F4CF2115310551F04217530738F0A90138
:1033A000DB019A01BD01DF01F801C1CFEF01F9CFC7
:1033B0009093CC038093CB03CDCFFE01E20FF31F9C
:1033C000819391932250310939832883D7CF20915B
:1033D000C9033091CA03232B41F42091120130918B
:1033E00013013093CA032093C90320911001309137
:1033F00011012115310541F42DB73EB7409114015B
:1034000050911501241B350BE091C903F091CA03BB
:10341000E217F307A0F42E1B3F0B2817390778F0AB
:10342000AC014E5F5F4F2417350748F04E0F5F1F0A
:103430005093CA034093C903819391939FCFF0E0C7
:10344000E0E09CCFCF93DF930097E9F0FC01329747
:1034500013821282A091CB03B091CC03ED0130E036
:1034600020E01097A1F420813181820F931F2091D9
:10347000C9033091CA032817390709F061C0F093D6
:10348000CA03E093C903DF91CF910895EA01CE17F3
:10349000DF07E8F54A815B819E0141155105B1F7CF
:1034A000E901FB83EA8349915991C40FD51FEC17B9
:1034B000FD0761F4808191810296840F951FE901D7
:1034C00099838883828193819B838A83F0E0E0E003
:1034D00012968D919C9113970097B9F52D913C917F
:1034E0001197CD010296820F931F2091C90330914D
:1034F000CA032817390739F6309751F51092CC03D3
:103500001092CB03B093CA03A093C903BCCFD3835B
:10351000C28340815181840F951FC817D90761F478
:103520004E5F5F4F88819981480F591F51834083B7
:103530008A819B81938382832115310509F0B0CF65
:10354000F093CC03E093CB039ECFFD01DC01C0CF11
:1035500013821282D7CFB0E0A0E0E1EBFAE10C9445
:10356000F2168C01009751F4CB010E9486198C0150
:10357000C801CDB7DEB7E0E10C940E17FC01E60FF1
:10358000F71F9C0122503109E217F30708F49DC090
:10359000D901CD91DC911197C617D70798F0C530A6
:1035A000D10530F3CE0104978617970708F3C61BA1
:1035B000D70B2297C193D1936D937C93CF010E9437
:1035C000221AD6CF5B01AC1ABD0A4C018C0E9D1E8F
:1035D000A091CB03B091CC03512C412CF12CE12CC8
:1035E000109731F58091C9039091CA038815990508
:1035F00009F05CC04616570608F058C080911001CB
:1036000090911101009741F48DB79EB7409114013C
:1036100050911501841B950BE817F90708F055C068
:10362000F093CA03E093C903F90171836083A0CFCB
:103630008D919C91119712966C90129713967C9095
:103640001397A815B90559F56C0142E0C40ED11CB9
:10365000CA14DB0420F1AC014A195B09DA011296A5
:10366000159780F06282738251834083D9016D93F4
:103670007C93E114F10471F0D7011396FC93EE935F
:10368000129776CF22968C0F9D1FF901918380832C
:10369000F301EFCFF093CC03E093CB0369CF48164F
:1036A000590608F42C017D01D3019ACFCB010E9469
:1036B00086197C01009749F0AE01B8010E94681B91
:1036C000C8010E94221A870153CF10E000E050CFBA
:1036D000FB01DC0102C001900D9241505040D8F72F
:1036E0000895FC018191861721F08823D9F7992745
:1036F00008953197CF010895FB01DC018D91019070
:1037000080190110D9F3990B0895FB01DC01019098
:103710000D920020E1F70895FB01DC01415050407B
:1037200030F08D910190801919F40020B9F7881BB1
:08373000990B0895F894FFCFF6
:103738002003808080808080010101010100000059
:103748000000CD03800000000A00F1FF1900E2FF2D
:103758002800D3FF3C000000EEFF1600E4FF230022
:10376800D8FF3000C2FF00000000440272019F0130
:1037780091020202AE01F4010D0A004D4F443120BE
:103788007632205265616479004D4F444520004FE0
:103798004B204D4F44453D00455252204D4F444526
:1037A80020302E2E004D4F52504820004F4B204DB8
:1037B8004F5250483D00455252204D4F52504820DC
:1037C800302E2E34303030005859200045525220C7
:1037D800585920302E2E323535004320004552529C
:1037E800204320302E2E323535004C4F41442000E6
:1037F8004F4B204C4F41443D00455252204C4F41C5
:103808004420302E2E37005341564520004F4B2080
:10381800534156453D0045525220534156452030AC
:103828002E2E37004745542000204D3D0020413DB5
:103838000020423D0020433D00204C523D002044E2
:10384800413D002044423D0020543D004552522055
:1038580047455420302E2E37004356494E20004FFE
:103868004B204356494E3D00455252204356494E3F
:1038780020302E2E00535441545553005072657316
:1038880065743D00204D6F64653D00204D6F72707A
:10389800683D0045525200434C4B2050004356208F
:1038A800500052414E440046525A0053415620504F
:0E38B8000042544E204D0042544E205000005D
:00000001FF
