:100000000C9475030C9492030C9492030C94920339
:100010000C9492030C9492030C9492030C9492030C
:100020000C9492030C9492030C9492030C949203FC
:100030000C9492030C94AA050C9492030C949203D2
:100040000C9460050C9492030C9492030C9492030C
:100050000C9492030C9492030C9492030C949203CC
:100060000C9492030C9492030C9400000C940000E6
:100070000C9400000C940000808E9CA9B6C2CDD7D1
:10008000E0E7EDF1F3F4F3F0EBE5DDD3C8BCAFA1AD
:10009000938576685A4D40352A2119130E0B0909AC
:1000A0000B0E1319212A34404C5A68768492A0AD65
:1000B000BAC6D1DBE3EAEFF2F4F4F2EEE9E2D9CF2B
:1000C000C4B8AB9E908375685C50453B322B2520AD
:1000D0001D1C1C1E22272E363F4A55616E7B8895BB
:1000E000A2AEBAC5CFD8DFE5E9ECEDEDEBE7E2DB98
:1000F000D3CAC0B5A99D9084776B5F54494038310D
:100100002B27252424262A2F353D46505B66727FF7
:100110008B98A4B0BBC5CED6DDE2E6E8E9E8E6E21E
:10012000DDD6CEC5BBB0A4988B7F72665B50463DD2
:10013000352F2A26242425272B31384049545F6B3C
:100140007784909DA9B5C0CAD3DBE2E7EBEDEDEC77
:10015000E9E5DFD8CFC5BAAEA295887B6E61554A76
:100160003F362E27221E1C1C1D20252B323B4550BE
:100170005C687583909EABB880868C92989EA4AA8A
:10018000B0B5BBC0C5CACFD3D7DBDFE2E5E8EAEC48
:10019000EEEFF0F1F1F1F1F0EFEDEBE9E6E3E0DCA9
:1001A000D8D4CFCBC6C1BBB6B0AAA49E98928C8639
:1001B000807A746E68625C56504B45403B36312DF8
:1001C0002925211E1B1816141211100F0F0F0F10C6
:1001D000111315171A1D2024282C31353A3F454A92
:1001E00050565C62686E747A80868C92989EA4AA3F
:1001F000B0B5BBC0C5CACFD3D7DBDFE2E5E8EAECD8
:10020000EEEFF0F1F1F1F1F0EFEDEBE9E6E3E0DC38
:10021000D8D4CFCBC6C1BBB6B0AAA49E98928C86C8
:10022000807A746E68625C56504B45403B36312D87
:100230002925211E1B1816141211100F0F0F0F1055
:10024000111315171A1D2024282C31353A3F454A21
:1002500050565C62686E747A80868C92989EA4AACE
:10026000B0B5BBC0C5CACFD3D7DBDFE2E5E8EAEC67
:10027000EEEFF0F1F1F1F1F08079726C66615C58AB
:1002800055535151515254575A5E63686E747B8274
:100290008990969DA3A8ADB1B4B7B8B9B9B7B5B2B6
:1002A000AEA9A49E97908981797169615A534D478F
:1002B000423E3B393838393B3E42474D535A6169DB
:1002C0007179818990979EA4A9AEB2B5B7B9B9B832
:1002D000B7B4B1ADA8A39D969089827B746E686314
:1002E0005E5A5754525151515355585C61666C7265
:1002F0007980878E949A9FA4A8ABAEAFB0B0AEAC15
:10030000A9A5A09B958E878079726C66615C585513
:10031000535151515254575A5E63686E747B8289AF
:1003200090969DA3A8ADB1B4B7B8B9B9B7B5B2AE00
:10033000A9A49E97908981797169615A534D47426A
:100340003E3B393838393B3E42474D535A6169711B
:1003500079818990979EA4A9AEB2B5B7B9B9B8B75B
:10036000B4B1ADA8A39D969089827B746E68635EDC
:100370005A57545251515153BCBDBDBCBAB7B3AE1C
:10038000A8A19991887E746A60554B41372E251D2E
:10039000160F090401000002060B121A232D38441F
:1003A000505D6A7784919DA9B4BEC7CFD6DBDFE2EA
:1003B000E3E3E1DED9D3CCC4BBB1A69B8F83776BDB
:1003C00060554A41383029231E1B1918191C202555
:1003D0002C343D47525D6975818D99A4AFB9C2CA6D
:1003E000D1D6DADDDEDEDCD9D4CEC7BFB6ACA1967D
:1003F0008B7F74695E544B433B35302C2928282A67
:100400002D31373E464F58626D77828C97A1AAB343
:10041000BBC2C8CDD0D2D3D2D0CDC8C2BBB3AAA1A3
:10042000978C82776D62584F463E37312D2A2828A7
:10043000292C30353B434B545E69747F8B96A1ACBD
:10044000B6BFC7CED4D9DCDEDEDDDAD6D1CAC2B9BA
:10045000AFA4998D8175695D52473D342C25201CD0
:100460001918191B1E23293038414A55606B7783B0
:100470008F9BA6B1BBC4CCD3808386898C8F929589
:10048000989B9EA1A4A7AAADB0B3B6B8BBBEC0C38B
:10049000C5C7C9CBCDCFD1D2D4D5D6D7D8D9DADA42
:1004A000DBDBDBDBDBDBDADAD9D8D7D6D5D4D2D1CC
:1004B000CFCDCBC9C7C5C3C0BEBBB8B6B3B0ADAA5C
:1004C000A7A4A19E9B9895928F8C898683807D7A24
:1004D0007774716E6B6865625F5C595653504D4A14
:1004E000484542403D3B39373533312F2E2C2B2A9E
:1004F0002928272626252525252525262627282996
:100500002A2B2C2E2F31333537393B3D404245487D
:100510004A4D505356595C5F6265686B6E717477D3
:100520007A7D808386898C8F9295989B9EA1A4A7C3
:10053000AAADB0B3B6B8BBBEC0C3C5C7C9CBCDCFDB
:10054000D1D2D4D5D6D7D8D9DADADBDBDBDBDBDB2B
:10055000DADAD9D8D7D6D5D4D2D1CFCDCBC9C7C581
:10056000C3C0BEBBB8B6B3B0ADAAA7A4A19E9B98AA
:1005700095928F8C8986838080878E959CA3A9AF66
:10058000B4B9BDC0C2C4C4C4C2C0BDB9B4AFA9A3CC
:100590009C958E878079726B645D57514C474340C0
:1005A0003E3C3C3C3E4043474C51575D646B727946
:1005B00080878E959CA3A9AFB4B9BDC0C2C4C4C482
:1005C000C2C0BDB9B4AFA9A39C958E878079726B68
:1005D000645D57514C4743403E3C3C3C3E404347A2
:1005E0004C51575D646B727980878E959CA3A9AF3F
:1005F000B4B9BDC0C2C4C4C4C2C0BDB9B4AFA9A35C
:100600009C958E878079726B645D57514C4743404F
:100610003E3C3C3C3E4043474C51575D646B7279D5
:1006200080878E959CA3A9AFB4B9BDC0C2C4C4C411
:10063000C2C0BDB9B4AFA9A39C958E878079726BF7
:10064000645D57514C4743403E3C3C3C3E40434731
:100650004C51575D646B727980878E959CA3A9AFCE
:10066000B4B9BDC0C2C4C4C4C2C0BDB9B4AFA9A3EB
:100670009C958E878079726B780278017800780576
:100680007804780300000000240027002A002D00D1
:1006900000000000250028002B002E0004040404A4
:1006A000040404040202020202020303030303031C
:1006B0000505050505050503010204081020408015
:1006C000010204081020010204081020020801049D
:1006D0001040204000000008500201000003040701
:1006E0000000000000000000000011241FBECFEF3A
:1006F000D8E0DEBFCDBF11E0A0E0B1E0E2EBF6E173
:1007000002C005900D92A230B107D9F721E0A2E016
:10071000B1E001C01D92A132B207E1F70E944B0681
:100720000C94570B0C940000E7EDF6E02491EBEBF2
:10073000F6E03491EFE9F6E09491992361F12223F8
:10074000C9F021502B30B0F4E22FF0E0E655FC4F19
:100750000C94D50AD003D403B503CC03BA03BA036F
:10076000D703DD03E103E703EB03209180002F773C
:1007700020938000E92FF0E0EE0FFF1FE057F94FC4
:10078000A591B4919FB7F894EC91811128C0309550
:100790003E233C939FBF0895209180002F7DE8CF9A
:1007A00024B52F7724BDE6CF24B52F7DFBCF209134
:1007B000B0002F772093B000DDCF2091B0002F7DC7
:1007C000F9CF209190002F7720939000D3CF2091E4
:1007D00090002F7DF9CF20919000277FF5CF3E2B01
:1007E000D8CFCF93DF93282F30E0F901E854F94FA9
:1007F00044912456394FF9012491843019F483E04F
:100800008093A0002223D9F0822F90E0880F991FB7
:10081000FC01EC57F94FA591B491FC01E057F94F59
:10082000C591D491623071F49FB7F8942C91842FC4
:10083000809582238C93E8814E2B48839FBFDF9164
:10084000CF9108958FB7F894EC914E2B4C938FBFB6
:10085000F6CF80917A00806480937A0080917A004C
:1008600086FDFCCF809178009091790008950F93D8
:100870001F93CF93DF93EDEAF0E09081907F908318
:100880008E50806480937C000DE710E0F801808139
:10089000806280830E942904EC01F80180818F7DB1
:1008A00080830E9429048C0F9D1F9C0136952795FB
:1008B000892F9927A901481B590BCA01DF91CF91B4
:1008C0001F910F9108950E943704959587959595EE
:1008D000879508953FB7F89480911D0190911E016E
:1008E000A0911F01B091200126B5A89B05C02F3F04
:1008F00019F00196A11DB11D3FBFBA2FA92F982F46
:100900008827BC01CD01620F711D811D911D42E040
:10091000660F771F881F991F4A95D1F708958F9208
:100920009F92AF92BF92CF92DF92EF92FF924B01D4
:100930005C010E946A046B017C010E946A046C19CC
:100940007D098E099F09683E734081059105A8F3D2
:1009500021E0821A9108A108B10888EEC80E83E050
:10096000D81EE11CF11C81149104A104B10429F7E3
:10097000FF90EF90DF90CF90BF90AF909F908F90BF
:100980000895AF92BF92CF92DF92EF92FF920F93B2
:100990001F93809106018F5F8093060187708130DD
:1009A00039F170F08230E9F1833009F477C01F919A
:1009B0000F91FF90EF90DF90CF90BF90AF90089590
:1009C0008EE00E94630420911101222381F360E0F4
:1009D0008B3A2EEF92074CF062E0823024E09207CF
:1009E00024F466E571E00E94C10A60930B01DFCF39
:1009F0008FE00E946304209111012130C1F22FEB9E
:100A000030E0DC010E94DB0A2FEF33E040E050E0F1
:100A10000E943708205C3F4F4F4F5F4F20930001EB
:100A2000C6CF80911101823011F280E10E946304EF
:100A3000BC01990F880B990B0E94A40923E333E3AF
:100A40004FE951E40E94400A20E030EC4FE754E4C3
:100A50000E94F4082DEC3CEC4CEC5DE30E9488080D
:100A60000E946B09E5E7AE2EF3E9BF2EA8E1CA2E7E
:100A7000B4E0DB2EE12CF12C00E010E00E94E20A51
:100A80000AE00E943C0BC901DA01809307019093B0
:100A90000801A0930901B0930A0189CF81E10E9466
:100AA0006304833391050CF482CF2091110121302E
:100AB00009F4A5CF08F490CF223009F4B9CF77CF4D
:100AC0001F920F920FB60F9211242F933F938F9383
:100AD0009F93AF93BF938091190190911A01A091B8
:100AE0001B01B0911C013091180123E0230F2D3719
:100AF00058F50196A11DB11D20931801809319018D
:100B000090931A01A0931B01B0931C0180911D01C9
:100B100090911E01A0911F01B09120010196A11D8D
:100B2000B11D80931D0190931E01A0931F01B093EE
:100B30002001BF91AF919F918F913F912F910F9085
:100B40000FBE0F901F90189526E8230F0296A11D47
:100B5000B11DD2CF1F920F920FB60F9211242F9377
:100B60003F934F935F936F937F938F939F93AF9335
:100B7000BF93EF93FF93409107015091080160915B
:100B8000090170910A018091020190910301A091E5
:100B90000401B0910501840F951FA61FB71F809314
:100BA000020190930301A0930401B09305014091C9
:100BB0000201509103016091040170910501E091DF
:100BC0000B01F0E0EE0FFF1FE258F94F2591349131
:100BD000E0910B01F0E0EE0FFF1FE858F94F85910F
:100BE0009491472F552766277727240F351FF90142
:100BF0002491FC01E40FF51FE49140910001622F64
:100C00006058770B469F9001479F300D1124220FAB
:100C1000232F221F330B20583F4F40910001E058F3
:100C2000FF0B4E9FC0014F9F900D1124880F892FFD
:100C3000881F990B80589F4F37FD27C02F3F3105E4
:100C400019F014F02FEF30E03093890020938800E2
:100C500097FD1EC08F3F910519F014F08FEF90E0C3
:100C600090938B0080938A00FF91EF91BF91AF9199
:100C70009F918F917F916F915F914F913F912F91B4
:100C80000F900FBE0F901F90189530E020E0DCCF42
:100C900090E080E0E5CF8091F20080618EBB80E83B
:100CA0008093F2009EB39093F2008093610021E064
:100CB000209361009091F2009F799EBB8093F20097
:100CC0009EB39093F2009091F2009B7F9EBB809325
:100CD000F2009EB39093F200809361002093610034
:100CE000789484B5826084BD84B5816084BD85B507
:100CF000826085BD85B5816085BD80916E00816013
:100D000080936E00109281008091810082608093B8
:100D100081008091810081608093810080918000BA
:100D20008160809380008091B10084608093B100E5
:100D30008091B00081608093B000809191008260CA
:100D400080939100809191008160809391008091C7
:100D5000900081608093900080917A008B7F8093D7
:100D60007A0080917A00826080937A0080917A0084
:100D7000816080937A0080917A00806880937A0005
:100D80001092C10061E089E00E94F10361E08AE015
:100D90000E94F10361E083E00E94F10362E084E0DD
:100DA0000E94F103C3E0D0E081E00E94940364E676
:100DB00070E080E090E00E948F0480E00E94940345
:100DC00064E670E080E090E00E948F04219761F774
:100DD000F89480E890E010928000109281001092C8
:100DE00085001092840021EA2093800029E020935E
:100DF0008100909389008093880090938B0080936A
:100E00008A0081E080936F00789410920B0180E853
:100E1000809300011092110184E296E0A1E0B0E01D
:100E20008093070190930801A0930901B0930A01F0
:100E300081E00E94940364EF71E080E090E00E9402
:100E40008F040E94C10484E6E82EF12CC3E0D0E0B8
:100E500000E010E0DD24D3942FB7F89480911901BD
:100E600090911A01A0911B01B0911C012FBF4091DC
:100E700014015091150160911601709117014C01F8
:100E80005D01841A950AA60AB70AB501A4014A3081
:100E900051056105710508F499C080931401909380
:100EA0001501A0931601B09317010E94C1045C982C
:100EB0002AE12A95F1F70000000099B15C9ACC2450
:100EC000C3948091010194FD93C0C12C8130A9F499
:100ED0002FB7F8948091190190911A01A0911B01EC
:100EE000B0911C012FBF80930D0190930E01A09330
:100EF0000F01B093100110920C0180910C0181112F
:100F000042C02FB7F8948091190190911A01A091D5
:100F10001B01B0911C012FBF40910D0150910E019A
:100F200060910F0170911001841B950BA60BB70BFC
:100F3000843F9140A105B10530F18091110190E00D
:100F40000196BE010E94C10A5C0180931101D092FA
:100F50000C01912C812C81E00E94940366E970E0E1
:100F600080E090E00E948F0480E00E94940366E994
:100F700070E080E090E00E948F048FEF881A980A5A
:100F8000A814B90444F7C092010180911201909114
:100F9000130101969093130180931201B7010E94EF
:100FA000AD0A9C0180911101813029F048F0823016
:100FB000A1F080E009C02A303105C0F02451310988
:100FC00081E02A303105A8F70E949403011511052C
:100FD00009F442CF0E9400003FCF2A30310530F0A3
:100FE000C9014497285231090A9750F781E0ECCFA4
:100FF0008111C9CF80910C018111C5CF2FB7F89411
:101000008091190190911A01A0911B01B0911C01CE
:101010002FBF40910D0150910E0160910F01709111
:101020001001841B950BA60BB70B843F9140A105C3
:10103000B10508F0A8CF80910B0190E00196BE01A8
:101040000E94C10A80930B0181E00E94940364E630
:1010500070E080E090E00E948F0480E00E949403A2
:1010600062E370E080E090E00E948F048CCF052E58
:1010700097FB1EF400940E944E0857FD07D00E9473
:10108000560807FC03D04EF40C944E08509540953A
:10109000309521953F4F4F4F5F4F08959095809524
:1010A000709561957F4F8F4F9F4F0895A1E21A2E43
:1010B000AA1BBB1BFD010DC0AA1FBB1FEE1FFF1FFC
:1010C000A217B307E407F50720F0A21BB30BE40B4C
:1010D000F50B661F771F881F991F1A9469F7609593
:1010E0007095809590959B01AC01BD01CF0108954D
:1010F000A29FB001B39FC001A39F700D811D112459
:10110000911DB29F700D811D1124911D089550589D
:10111000BB27AA270E949F080C94060A0E94F80980
:1011200038F00E94FF0920F039F49F3F19F426F4AB
:101130000C94E5090EF4E095E7FB0C94DF09E92F28
:101140000E94170A58F3BA176207730784079507B6
:1011500020F079F4A6F50C94390A0EF4E0950B2EE4
:10116000BA2FA02D0B01B90190010C01CA01A001F9
:101170001124FF27591B99F0593F50F4503E68F154
:101180001A16F040A22F232F342F4427585FF3CF95
:10119000469537952795A795F0405395C9F77EF466
:1011A0001F16BA0B620B730B840BBAF09150A1F0AF
:1011B000FF0FBB1F661F771F881FC2F70EC0BA0F35
:1011C000621F731F841F48F4879577956795B795BD
:1011D000F7959E3F08F0B0CF9395880F08F09927B8
:1011E000EE0F9795879508950E9408090C94060ABA
:1011F0000E94FF0958F00E94F80940F029F45F3F6F
:1012000029F00C94DF0951110C943A0A0C94E50969
:101210000E94170A68F39923B1F3552391F3951BA4
:10122000550BBB27AA2762177307840738F09F5F07
:101230005F4F220F331F441FAA1FA9F335D00E2E74
:101240003AF0E0E832D091505040E695001CCAF7E1
:101250002BD0FE2F29D0660F771F881FBB1F2617A4
:1012600037074807AB07B0E809F0BB0B802DBF017B
:10127000FF2793585F4F3AF09E3F510578F00C944A
:10128000DF090C943A0A5F3FE4F3983ED4F3869565
:1012900077956795B795F7959F5FC9F7880F911D6B
:1012A0009695879597F90895E1E0660F771F881F57
:1012B000BB1F621773078407BA0720F0621B730B0A
:1012C000840BBA0BEE1F88F7E0950895BEE304D0B7
:1012D00008F490E80895BFE322273327A9010E946C
:1012E0001F0A60F19F5748F1B91740F1BFE3B91BDE
:1012F0009927B8503AF4660F771F881F991FB39546
:10130000D2F316C0B8504AF0232F342F452F562F52
:10131000672F782F8827B850BAF7B85F49F08695BD
:10132000779567955795479537952795BA95B9F766
:1013300016F40E94E80988940895889460E070E0AB
:10134000CB010895E89409C097FB3EF490958095F1
:10135000709561957F4F8F4F9F4F9923A9F0F92F7B
:1013600096E9BB279395F695879577956795B795F9
:10137000F111F8CFFAF4BB0F11F460FF1BC06F5FDF
:101380007F4F8F4F9F4F16C0882311F096E911C0F1
:10139000772321F09EE8872F762F05C0662371F012
:1013A00096E8862F70E060E02AF09A95660F771F26
:1013B000881FDAF7880F9695879597F9089597F91A
:1013C0009F6780E870E060E008959FEF80EC0895EB
:1013D00090958095709560955095409530952195A4
:1013E0003F4F4F4F5F4F6F4F7F4F8F4F9F4F08952E
:1013F00000240A94161617061806090608950024F4
:101400000A9412161306140605060895092E03946D
:10141000000C11F4882352F0BB0F40F4BF2B11F4E1
:1014200060FF04C06F5F7F4F8F4F9F4F089557FD40
:101430009058440F551F59F05F3F71F04795880F42
:1014400097FB991F61F09F3F79F0879508951216D9
:1014500013061406551FF2CF4695F1DF08C0161685
:1014600017061806991FF1CF869571056105089436
:101470000895E894BB2766277727CB0197F908954D
:101480000E94530A0C94060A0E94F80938F00E9440
:10149000FF0920F0952311F00C94DF090C94E50965
:1014A00011240C943A0A0E94170A70F3959FC1F315
:1014B000950F50E0551F629FF001729FBB27F00D02
:1014C000B11D639FAA27F00DB11DAA1F649F662757
:1014D000B00DA11D661F829F2227B00DA11D621FA6
:1014E000739FB00DA11D621F839FA00D611D221F60
:1014F000749F3327A00D611D231F849F600D211D44
:10150000822F762F6A2F11249F5750409AF0F1F0C6
:1015100088234AF0EE0FFF1FBB1F661F771F881F2F
:1015200091505040A9F79E3F510580F00C94DF097F
:101530000C943A0A5F3FE4F3983ED4F3869577958E
:101540006795B795F795E7959F5FC1F7FE2B880FD5
:10155000911D9695879597F90895AA1BBB1B51E19C
:1015600007C0AA1FBB1FA617B70710F0A61BB70B13
:10157000881F991F5A95A9F780959095BC01CD01B8
:10158000089597FB072E16F4009407D077FD09D035
:101590000E94AD0A07FC05D03EF4909581959F4FBF
:1015A0000895709561957F4F0895EE0FFF1F059088
:1015B000F491E02D09940E947808B7FF0895821BEA
:1015C000930B0895DF93CF931F930F939A9DF02D64
:1015D000219FF00D8B9DF00D8A9DE02DF10D039F55
:1015E000F00D029FE00DF11D4E9DE00DF11D5E9D81
:1015F000F00D4F9DF00D7F936F93BF92AF925F936D
:101600004F93D5010E9478088B01AC01D7010E944D
:101610007808EB01E80FF91FD6010E94310B2F91DA
:101620003F91D6010E947808C60FD71FE81FF91F07
:10163000AF91BF910E94310B2F913F910E9478088A
:10164000C60FD71FE81FF91FD6010E947808E60FC2
:10165000F71F9801BE01CF010F911F91CF91DF912C
:1016600008950E947808460F571FC81FD91F08F415
:101670003196089597FD1094002E083098F0085088
:10168000232F342F452F562F672F782F892F912DF9
:10169000F4CF1594979587957795679557954795C6
:1016A000379527950A95AAF71124002D0895F894E7
:0216B000FFCF6A
:0216B2008001B5
:00000001FF
