:100000000C9464000C9476000C9476000C947600AA
:100010000C9476000C9476000C9476000C94760088
:100020000C9476000C9476000C9476000C94760078
:100030000C9476000C9476000C9476000C94760068
:100040000C94F0000C9476000C9476000C947600DE
:100050000C9476000C9476000C9476000C94760048
:100060000C9476000C9476000C9400000C94000024
:100070000C9400000C9400000000000025002800F3
:100080002B002E0000000000240027002A002D0075
:10009000040404040404040402020202020203032E
:1000A000030303030505050505050503010204080F
:1000B00010204080010204081020010204081020D2
:1000C000020801041040204011241FBECFEFD8E0E9
:1000D000DEBFCDBF21E0A0E0B1E001C01D92AD3098
:1000E000B207E1F70E943A010C94C4020C9400009C
:1000F000CF93DF93282F30E0F901E455FF4F44916F
:1001000020573F4FF9012491843019F483E0809304
:10011000A0002223D1F0822F90E0880F991FFC01CC
:10012000EC57FF4FA591B491FC01E858FF4FC591E2
:10013000D49161110DC09FB7F8948C9140958423A0
:100140008C938881482348839FBFDF91CF91089586
:100150008FB7F894EC914E2B4C938FBFF6CF8091D4
:100160007A00806480937A0080917A0086FDFCCFCB
:10017000809178009091790008950F931F93CF9309
:10018000DF93EDEAF0E09081907F90838E50806461
:1001900080937C000DE710E0F8018081806280830D
:1001A0000E94AF00EC01F80180818F7D80830E9466
:1001B000AF008C0F9D1F9C0136952795892F99279D
:1001C000A901481B590BCA01DF91CF911F910F91D3
:1001D00008950E94BD0095958795959587950895FA
:1001E0001F920F920FB60F9211242F933F938F936C
:1001F0009F93AF93BF938091090190910A01A091C1
:100200000B01B0910C013091080123E0230F2D3731
:1002100058F50196A11DB11D209308018093090195
:1002200090930A01A0930B01B0930C0180910401FB
:1002300090910501A0910601B09107010196A11DC1
:10024000B11D8093040190930501A0930601B09322
:100250000701BF91AF919F918F913F912F910F9087
:100260000FBE0F901F90189526E8230F0296A11D30
:10027000B11DD2CF8091F20080618EBB80E8809367
:10028000F2009EB39093F20080936100C1E0C093AE
:1002900061009091F2009F799EBB8093F2009EB323
:1002A0009093F2009091F2009B7F9EBB8093F200AE
:1002B0009EB39093F20080936100C09361007894A4
:1002C00084B5826084BD84B5816084BD85B582605B
:1002D00085BD85B5816085BD80916E00816080930C
:1002E0006E00109281008091810082608093810075
:1002F0008091810081608093810080918000816085
:10030000809380008091B10084608093B1008091DF
:10031000B00081608093B0008091910082608093F2
:100320009100809191008160809391008091900074
:1003300081608093900080917A008B7F80937A0017
:1003400080917A00826080937A0080917A00816047
:1003500080937A0080917A00806880937A0010926E
:10036000C10061E08AE00E94780061E08BE00E94B9
:10037000780061E083E00E94780060E081E10E9403
:10038000780060E082E10E94780060E08FE00E94E7
:10039000780060E080E10E94780010928000109266
:1003A000810081EA8093800089E08093810010922F
:1003B0008B0010928A001092B0001092B10083EA74
:1003C0008093B000C093B1001092B3001092B400BB
:1003D000D1E070E0E72E70E0F72E8EE00E94E90099
:1003E000C0E086369105A4F0C1E0843321E0920795
:1003F0007CF0C2E0823042E0940754F0C3E0803DDC
:1004000062E096072CF0C4E08E3993400CF0C5E012
:100410008FE00E94E9005C0181E10E94E900A80EE2
:10042000B91E8501A11444E0B40614F00FEF13E0E7
:1004300080E10E94E9006C0182E10E94E9008C0DDC
:100440009D1DAC01811564E0960714F04FEF53E059
:1004500031E021E0A21622E0B2060CF430E021E007
:10046000813062E096070CF420E0C33009F45FC0ED
:10047000F0F4C13009F44CC0C23009F455C021E099
:10048000A21622E0B2062CF0813042E094070CF074
:1004900047C061E0A61662E0B60624F081309240C3
:1004A0000CF04CC02FEF30E090E080E059C0C43039
:1004B00009F446C0C53019F741E0A41642E0B4067D
:1004C0004CF040910301411105C0409102014D27BC
:1004D00040930201813092404CF0809101018111E2
:1004E00005C0809100018D278093000130930301A6
:1004F0002093010180910201882309F440C08FEF0D
:1005000090E0209100012223E9F12FEF30E028C094
:1005100041E0A41642E0B4061CF48130924014F28B
:1005200020E08FEF90E01CC02313FACFBBCF401721
:100530005107B4F3041715070CF4B4CF20E0B4CF7F
:100540009A013595279535952795C80195958795F5
:1005500095958795401751071CF0582FC901252FF5
:1005600090938B0080938A002093B3008093B40013
:10057000E114F10409F431CF0E9400002ECF90E085
:0C05800080E0BFCF20E0ECCFF894FFCF6C
:00000001FF
