:100000000C94C0000C9426050C94FF040C94E8009A
:100010000C94E8000C94E8000C94E8000C94A505FE
:100020000C94E8000C94E8000C94E8000C94E800B0
:100030000C94E8000C94E8000C94E8000C94E800A0
:100040000C94B5040C94E8000C9473050C944D05C5
:100050000C94E8000C94E8000C94E8000C94E80080
:100060000C94E8000C94E8000C9400000C94000040
:100070000C9400000C94000005A84CCDB2D44EB9ED
:100080003836A9020C50B9918688083CA6AAAA2A3B
:10009000BE000000803F07634236B79BD8A71A39DD
:1000A000685618AEBAAB558C1D3CB7CC5763BD6DC6
:1000B000EDFD753EF6177231BF000000803F08006D
:1000C0000000BE922449123EABAAAA2ABECDCCCCD7
:1000D0004C3E00000080BEABAAAAAA3E0000000071
:1000E000BF000000803F0000000000084178D3BB43
:1000F0004387D1133D190E3CC3BD4282AD2B3E68F0
:10010000EC8276BED98FE1A93E4C80EFFFBE01C4E0
:10011000FF7F3F00000000000000000024002700D7
:100120002A002D0000000000250028002B002E00D2
:10013000040404040404040402020202020203038D
:10014000030303030505050505050503010204086E
:100150001020408001020408102001020408102031
:100160000208010410402040000000085002010075
:100170000003040700000000000000000000CF0A98
:1001800011241FBECFEFD8E0DEBFCDBF12E0A0E04C
:10019000B1E0ECEFF6E202C005900D92A833B10792
:1001A000D9F724E0A8E3B2E001C01D92A436B2075B
:1001B000E1F710E0C0ECD0E004C02197FE010E94FE
:1001C0006213CF3BD107C9F70E942D0C0C947C130E
:1001D0000C940000EBE6F1E02491EFE4F1E03491BF
:1001E000E3E3F1E09491992361F12223C9F02150D6
:1001F0002B30B0F4E22FF0E0E050FF4F0C9462138C
:1002000026012A010B012201100110012D013301E9
:1002100037013D014101209180002F77209380001C
:10022000E92FF0E0EE0FFF1FEC5DFE4FA591B491BA
:100230009FB7F894EC91811128C030953E233C93F0
:100240009FBF0895209180002F7DE8CF24B52F77A0
:1002500024BDE6CF24B52F7DFBCF2091B0002F77B2
:100260002093B000DDCF2091B0002F7DF9CF2091F9
:1002700090002F7720939000D3CF209190002F7D76
:10028000F9CF20919000277FF5CF3E2BD8CFCF9389
:10029000DF93282F30E0F901E45BFE4F4491205DAD
:1002A0003E4FF9012491843019F483E08093A0003B
:1002B0002223D1F0822F90E0880F991FFC01E85E85
:1002C000FE4FA591B491FC01EC5DFE4FC591D49118
:1002D00061110DC09FB7F8948C91409584238C9345
:1002E0008881482348839FBFDF91CF910895623072
:1002F00051F49FB7F8942C91842F809582238C938E
:10030000E8814E2BEFCF8FB7F894EC914E2B4C93A6
:100310008FBFEACF80917A00806480937A008091C9
:100320007A0086FDFCCF8091780090917900089545
:10033000CF93DF939091AD00907F9093AD00863185
:1003400011F08C3129F49091AD0096609093AD003E
:100350008E3008F08E508F71806480937C00809185
:100360007D00806280937D000E948A01EC01809173
:100370007D008F7D80937D000E948A018C0F9D1FE0
:100380009C0136952795892F9927A901481B590B60
:10039000CA01DF91CF9108950E94980195958795A4
:1003A0009595879508953FB7F89480914F02909165
:1003B0005002A0915102B091520226B5A89B05C0EF
:1003C0002F3F19F00196A11DB11D3FBFBA2FA92FD4
:1003D000982F8827BC01CD01620F711D811D911DD1
:1003E00042E0660F771F881F991F4A95D1F708953D
:1003F0008F929F92AF92BF92CF92DF92EF92FF9235
:100400004B015C010E94D3016B017C010E94D3016E
:100410006C197D098E099F09683E7340810591051D
:10042000A8F321E0821A9108A108B10888EEC80E4D
:1004300083E0D81EE11CF11C81149104A104B104D5
:1004400029F7FF90EF90DF90CF90BF90AF909F90F3
:100450008F9008950895AF92BF92CF92DF92EF925E
:10046000FF920F931F93CF93DF936C017B018B015E
:10047000040F151FEB015E01AE18BF08C017D107AE
:1004800059F06991D601ED91FC910190F081E02D38
:10049000C6010995892B79F7C501DF91CF911F918D
:1004A0000F91FF90EF90DF90CF90BF90AF900895A5
:1004B000FC01538D448D252F30E0842F90E0821B6A
:1004C000930B541710F0CF96089501970895FC01EF
:1004D000918D828D981761F0A28DAE0FBF2FB11D47
:1004E0005D968C91928D9F5F9F73928F90E008959F
:1004F0008FEF9FEF0895FC01918D828D981731F059
:10050000828DE80FF11D858D90E008958FEF9FEFAC
:100510000895FC01918D228D892F90E0805C9F4F82
:10052000821B91098F739927089583E592E00E94B9
:10053000890221E0892B09F420E0822F089580E0D0
:1005400090E0892B29F00E94950281110C94000003
:100550000895FC01A48DA80FB92FB11DA35ABF4F58
:100560002C91848D90E001968F739927848FA689B2
:10057000B7892C93A089B1898C91837080648C9306
:10058000938D848D981306C00288F389E02D8081B5
:100590008F7D80830895EF92FF920F931F93CF93E7
:1005A000DF93EC0181E0888F9B8D8C8D98131AC0AE
:1005B000E889F989808185FF15C09FB7F894EE8995
:1005C000FF896083E889F9898081837080648083F2
:1005D0009FBF81E090E0DF91CF911F910F91FF903D
:1005E000EF900895F62E0B8D10E00F5F1F4F0F73E5
:1005F0001127E02E8C8D8E110CC00FB607FCFACFA0
:10060000E889F989808185FFF5CFCE010E94A90292
:10061000F1CFEB8DEC0FFD2FF11DE35AFF4FF08270
:100620009FB7F8940B8FEA89FB8980818062CFCFD6
:10063000CF93DF93EC01888D8823B9F0AA89BB8919
:10064000E889F9898C9185FD03C0808186FD0DC004
:100650000FB607FCF7CF8C9185FFF2CF808185FF25
:10066000EDCFCE010E94A902E9CFDF91CF9108958D
:100670000E94CC01BC01990F880B990B0E94D80FE6
:1006800020E030EC4FE754E40E942E0F08952FB77E
:10069000F89480914B0290914C02A0914D02B09140
:1006A0004E022FBF409138025091390260913A02B8
:1006B00070913B02841B950BA60BB70B893C9105EF
:1006C000A105B105B0F081E0809344022FB7F89402
:1006D00080914B0290914C02A0914D02B0914E023C
:1006E0002FBF8093380290933902A0933A02B093BF
:1006F0003B020895FC0101900020E9F73197AF011A
:10070000481B590BBC0183E592E00C942B028F929D
:100710009F92AF92BF920F931F93CF93DF93CDB76A
:10072000DEB7A1970FB6F894DEBF0FBECDBF19A2FA
:10073000423008F44AE08E010F5D1F4F842E912C49
:10074000B12CA12CA50194010E944013E62FB90100
:10075000CA01EA30F4F4E05DD801EE938D01232B59
:10076000242B252B79F790E080E0109719F0CD012C
:100770000E947A03A1960FB6F894DEBF0FBECDBFDC
:10078000DF91CF911F910F91BF90AF909F908F906D
:100790000895E95CE1CFCF93DF930E947A03EC01E7
:1007A00086E191E00E947A038C0F9D1FDF91CF912B
:1007B00008954F925F926F927F928F929F92AF9225
:1007C000BF92CF92DF92EF92FF920F931F93CF933E
:1007D0006B017C01742EAC019B010E94D711882310
:1007E00099F089E191E0CF911F910F91FF90EF90E7
:1007F000DF90CF90BF90AF909F908F907F906F9041
:100800005F904F900C947A0346015701E894B7F833
:100810002FEF3FEF4FE75FE7C501B4010E94D7110B
:1008200081110DC02FEF3FEF4FE75FE7C501B40126
:100830000E94240F18161CF48DE191E0D4CF2FEF05
:100840003FEF4FE75FE4C701B6010E94C7101816DB
:100850001CF481E291E0C7CF2FEF3FEF4FE75FEC51
:10086000C701B6010E94240F87FDF3CF20E030E0DE
:10087000A901C701B6010E94240F10E000E087FF24
:100880000AC06DE283E592E00E94CB028C01F7FA88
:10089000F094F7F8F094C0E060E070E080E09FE34F
:1008A0007C1641F020E030E040E251E40E942E0F3F
:1008B000CF5FF6CFA70196010E94B80E2B013C0135
:1008C0000E94A70F4B015C014AE00E9487037C0154
:1008D000E00EF11ECC23C1F1C501B4010E94D60F78
:1008E0009B01AC01C301B2010E94B70E4B015C0138
:1008F0006EE283E592E00E94CB02E80EF91EC15041
:1009000018F120E030E040E251E4C501B4010E945A
:10091000CC102B013C010E94A70F4B01B12CA12C44
:100920004AE0C501B4010E948703E80EF91EC50123
:10093000B4010E94D60F9B01AC01C301B2010E9419
:10094000B70E4B015C01DBCFC701CF911F910F9117
:10095000FF90EF90DF90CF90BF90AF909F908F90DF
:100960007F906F905F904F9008951F920F920FB6F7
:100970000F9211242F933F938F939F93AF93BF9325
:1009800080914B0290914C02A0914D02B0914E0289
:1009900030914A0223E0230F2D3758F50196A11D0F
:1009A000B11D20934A0280934B0290934C02A09376
:1009B0004D02B0934E0280914F0290915002A0914F
:1009C0005102B09152020196A11DB11D80934F02B8
:1009D00090935002A0935102B0935202BF91AF91F5
:1009E0009F918F913F912F910F900FBE0F901F906D
:1009F000189526E8230F0296A11DB11DD2CF1F9294
:100A00000F920FB60F9211242F933F934F935F9342
:100A10006F937F938F939F93AF93BF93EF93FF93C6
:100A2000E0910201F09103010995FF91EF91BF91CF
:100A3000AF919F918F917F916F915F914F913F9176
:100A40002F910F900FBE0F901F9018951F920F922D
:100A50000FB60F9211242F933F934F935F936F9391
:100A60007F938F939F93AF93BF93EF93FF93E09107
:100A70000001F09101010995FF91EF91BF91AF91B4
:100A80009F918F917F916F915F914F913F912F91A6
:100A90000F900FBE0F901F9018951F920F920FB6D8
:100AA0000F9211242F933F934F935F936F937F93F4
:100AB0008F939F93AF93BF93EF93FF9383E592E060
:100AC0000E94A902FF91EF91BF91AF919F918F91E9
:100AD0007F916F915F914F913F912F910F900FBE3A
:100AE0000F901F9018951F920F920FB60F9211241E
:100AF0002F938F939F93EF93FF93E0916302F09175
:100B000064028081E0916902F0916A0282FD1BC05B
:100B1000908180916C028F5F8F7320916D0282179C
:100B200041F0E0916C02F0E0ED5AFD4F958F80931B
:100B30006C02FF91EF919F918F912F910F900FBEBB
:100B40000F901F9018958081F4CF1F920F920FB6CF
:100B50000F9211244F925F926F927F928F929F9289
:100B6000AF92BF92CF92DF92EF92FF922F933F937B
:100B70004F935F936F937F938F939F93AF93BF93A5
:100B8000EF93FF93CF93DF93CDB7DEB76C97DEBFC4
:100B9000CDBF80914402882349F110924402809194
:100BA000450290E0019663E070E00E942C13809370
:100BB0004502B12CA12C809145028A151B04B4F08A
:100BC00081E00E94EA0064E670E080E090E00E942C
:100BD000F80180E00E94EA0064E670E080E090E0C6
:100BE0000E94F8012FEFA21AB20AE5CF8EE090E042
:100BF0000E9438032B013C018FE090E00E943803F3
:100C00004B015C0180E190E00E943803698B7A8B94
:100C10008B8B9C8B81E190E00E9438036D8B7E8BE7
:100C20008F8B988F8EE00E94CC01BC01990F880BAE
:100C3000990B0E94D80F20E030EC4FE754E40E945B
:100C40002E0F9B01AC010E94B80E20E030E040E87E
:100C50005FE30E94B70E69877A878B879C878091B4
:100C60004502813009F138F0823009F4FAC3412C91
:100C7000512C32013BC020E030E040EE50E4C50191
:100C8000B4010E94CC1020E030E040E85FE30E9415
:100C9000B80E6B017C011D821E821F82188619828C
:100CA0001A821B821C8222C020E030E040E051E426
:100CB000C501B4010E94CC1020E030E040E05FE3C9
:100CC0000E94B80E6B017C0120E030E040E05FE361
:100CD00069857A858B859C850E94CC1069837A838F
:100CE0008B839C831D821E821F82188640920C0477
:100CF00050920D0460920E0470920F04C092000492
:100D0000D0920104E0920204F092030489899A8946
:100D1000AB89BC898093F4039093F503A093F60309
:100D2000B093F7038090100490901104A0901204E7
:100D3000B0901304209108043091090440910A04F2
:100D400050910B04C501B4010E94CC106D877E87C1
:100D50008F87988BA501940160E070E080E89FE3A5
:100D60000E94B70EA30192010E94CC109B01AC011E
:100D70006D857E858F8598890E94B80E2B013C0178
:100D8000409208045092090460920A0470920B0485
:100D90008090040490900504A0900604B09007048D
:100DA0002091FC033091FD034091FE035091FF031D
:100DB000C501B4010E94CC106D877E878F87988B08
:100DC000A501940160E070E080E89FE30E94B70E07
:100DD000A70196010E94CC109B01AC016D857E8518
:100DE0008F8598890E94B80E6D877E878F87988B34
:100DF0006093FC037093FD038093FE039093FF03C5
:100E0000C090F803D090F903E090FA03F090FB0350
:100E10002091F0033091F1034091F2035091F303DC
:100E2000C701B6010E94CC104B015C01A7019601DD
:100E300060E070E080E89FE30E94B70E29893A895C
:100E40004B895C890E94CC109B01AC01C501B401A7
:100E50000E94B80E6093F0037093F1038093F20345
:100E60009093F30320E030E040E05FE30E94B70E90
:100E700020E030E040E850E40E94CC106B017C019F
:100E8000C0923004D0923104E0923204F0923304E4
:100E900020E030E040E05FE36D897E898F89988DA6
:100EA0000E94B70E20E030E040EA50E40E94CC10EF
:100EB000A70196010E94B80E9B01AC0160E070E0B2
:100EC00080E090E40E94391120912C0430912D048F
:100ED00040912E0450912F040E94CC102091340494
:100EE0003091350440913604509137040E94CC1063
:100EF000698B7A8B8B8B9C8B60933804709339044D
:100F000080933A0490933B048D859E85AF85B88984
:100F10008093440490934504A0934604B0934704FF
:100F200020E030E0A901C301B2010E94240F87FD37
:100F3000C8C220E030E040E85FE3C301B2010E9494
:100F4000C71018160CF4C1C24092480450924904CC
:100F500060924A0470924B0489819A81AB81BC8172
:100F600080934C0490934D04A0934E04B0934F048F
:100F70002FE632E143E85AE360914002709141026A
:100F800080914202909143020E94B80E6B017C0155
:100F90002BED3FE049EC50E40E94C71018160CF40A
:100FA0009BC2C0924002D0924102E0924202F09273
:100FB0004302C0904002D0904102E0904202F09083
:100FC0004302C701B6010E94290F9B01AC016D814C
:100FD0007E818F8198850E94CC106D8B7E8B8F8B4C
:100FE000988F6093500470935104809352049093AF
:100FF0005304C701B6010E9489119B01AC016D81A8
:101000007E818F8198850E94CC10698F7A8F8B8F1B
:101010009C8F60935404709355048093560490936E
:10102000570480914502811168C220E030E040E021
:101030005FE369857A858B859C850E94CC106D83E2
:101040007E838F8398878091400490914104A09182
:101050004204B091430489879A87AB87BC8720916B
:10106000600430916104409162045091630469818D
:101070007A818B819C810E94CC1029853A854B8591
:101080005C850E94B80E0E94290F4B015C01A301F0
:10109000920160E070E080E89FE30E94B70E6B0170
:1010A0007C01A5019401C301B2010E94CC109B01F7
:1010B000AC01C701B6010E94B80E4B015C018092E1
:1010C000600490926104A0926204B0926304C090A4
:1010D0003C04D0903D04E0903E04F0903F04209109
:1010E00058043091590440915A0450915B046D8921
:1010F0007E898F89988D0E94CC10A70196010E944D
:10110000B80E0E94290F9B01AC01C501B4010E94D9
:10111000CC1069837A838B839C8320915C0430910B
:101120005D0440915E0450915F04698D7A8D8B8DD2
:101130009C8D0E94CC10A70196010E94B80E0E94BF
:1011400089119B01AC01C501B4010E94CC102B0197
:101150003C0189819A81AB81BC8180935804909332
:101160005904A0935A04B0935B0440925C045092DB
:101170005D0460925E0470925F042D813E814F8118
:10118000588569897A898B899C890E94B80EA70144
:1011900096010E94B80E4B015C0180923C04909233
:1011A0003D04A0923E04B0923F042D853E854F85BC
:1011B000588969897A898B899C890E94CC102985F4
:1011C0003A854B855C850E94B80E6B017C01C0920C
:1011D0004004D0924104E0924204F09243042BED8B
:1011E0003FE049EC50E4C501B4010E94C71087FDFF
:1011F00089C12BED3FE049EC50E4C501B4010E94E8
:10120000B70E60933C0470933D0480933E0490932A
:101210003F042BED3FE049EC50E4C701B6010E94CA
:10122000C71087FD81C12BED3FE049EC50E4C701B9
:10123000B6010E94B70E60934004709341048093FE
:10124000420490934304209124043091250440915A
:1012500026045091270460912804709129048091FC
:101260002A0490912B040E94CC106B017C012091E8
:10127000200430912104409122045091230469817B
:101280007A818B819C810E94B70E9B01AC01C701C2
:10129000B6010E94B80E6B017C0189819A81AB81F5
:1012A000BC818093200490932104A0932204B093E6
:1012B0002304C0922404D0922504E0922604F092E4
:1012C0002704209118043091190440911A04509178
:1012D0001B0460911C0470911D0480911E04909168
:1012E0001F040E94CC104B015C012091140430912A
:1012F00015044091160450911704C301B2010E94D5
:10130000B70E9B01AC01C501B4010E94B80E4B01A0
:101310005C0140921404509215046092160470927D
:1013200017048092180490921904A0921A04B092A3
:101330001B0420E030E04EEF52E4C701B6010E94EA
:10134000CC1020E030E040E053E40E94B80E0E9450
:10135000A00F6F3F710519F014F06FEF70E077FF89
:1013600002C070E060E0709389006093880020E024
:1013700030E04EEF52E4C501B4010E94CC1020E0F1
:1013800030E040E053E40E94B80E0E94A00F6F3F8F
:10139000710519F014F06FEF70E077FF02C070E094
:1013A00060E070938B0060938A00E0913E02F091C0
:1013B0003F0283E0EE0FFF1F8A95E1F7E051FD4FFA
:1013C000C082D182E282F382E0913E02F0913F023C
:1013D00093E0EE0FFF1F9A95E1F7E051FD4F8482F5
:1013E0009582A682B78280913E0290913F0201963B
:1013F0008F71992790933F0280933E0280913C0227
:1014000090913D020196893EA3E09A070CF09EC0A0
:1014100090933D0280933C026C960FB6F894DEBF29
:101420000FBECDBFDF91CF91FF91EF91BF91AF91F3
:101430009F918F917F916F915F914F913F912F91EC
:10144000FF90EF90DF90CF90BF90AF909F908F90E4
:101450007F906F905F904F900F900FBE0F901F90F6
:10146000189520E030E040E051E4C501B4010E944D
:10147000CC1020E030E040E05FE30E94B80E6B014A
:101480007C0120E030E0A90169857A858B859C8507
:101490000E94C71018162CF42DEC3CEC4CE45FE3D2
:1014A00017CC2AE939E949E15FE369857A858B85BB
:1014B0009C8590580E94CC106D837E838F83988783
:1014C000EECB412C512C32013FCD412C512C20E848
:1014D000622E2FE3722E38CD2BED3FE049EC50E425
:1014E000C701B6010E94B70E60934002709341029B
:1014F00080934202909343025CCD1D821E821F8224
:101500001886A1CD20E030E0A901C501B4010E94F8
:10151000240F87FF7ECE2BED3FE049EC50E4C50160
:10152000B4010E94B80E6DCE20E030E0A901C701E1
:10153000B6010E94240F87FF86CE2BED3FE049ECD9
:1015400050E4C701B6010E94B80E75CE10923D025C
:1015500010923C02A7019601C701B6010E94CC106F
:101560006B017C01A5019401C501B4010E94CC105E
:101570009B01AC01C701B6010E94B80E0E949711F1
:10158000B1E0B98320E030E040E05FE30E94C710A3
:1015900018160CF0198289810E94EA003DCF109242
:1015A00056021092550288EE93E0A0E0B0E08093DE
:1015B000570290935802A0935902B0935A0288E0C0
:1015C00091E0909354028093530285EC90E09093C5
:1015D000600280935F0284EC90E0909362028093BB
:1015E000610280EC90E0909364028093630281EC4E
:1015F00090E0909366028093650282EC90E0909375
:1016000068028093670286EC90E090936A02809370
:10161000690210926C0210926D0210926E0210928A
:101620006F028FE192E4A9E0B9E3809334049093D0
:101630003504A0933604B093370410923C04109202
:101640003D0410923E0410923F0410924004109208
:101650004104109242041092430480E090E0A0E81C
:10166000BFE38093440490934504A0934604B09351
:1016700047048093480490934904A0934A04B0938C
:101680004B0410924C0410924D0410924E04109290
:101690004F04109250041092510410925204109270
:1016A0005304109254041092550410925604109250
:1016B0005704109258041092590410925A04109230
:1016C0005B0410925C0410925D0410925E04109210
:1016D0005F041092600410926104109262041092F0
:1016E000630445EA59EE6BEE7BE340933804509374
:1016F000390460933A0470933B0440E050E06CE599
:1017000072E440932C0450932D0460932E04709344
:101710002F0410923004109231041092320410926F
:10172000330410922004109221041092220410928B
:10173000230410922404109225041092260410927F
:10174000270442E558EB6EE77FE34093280450936B
:10175000290460932A0470932B04109214041092AD
:101760001504109216041092170410921804109287
:10177000190410921A0410921B0440931C045093F5
:101780001D0460931E0470931F04109208041092AD
:10179000090410920A0410920B0410920C04109287
:1017A0000D0410920E0410920F044FE852EC65E7FE
:1017B0007FE34093100450931104609312047093DC
:1017C00013048093FC039093FD03A093FE03B09356
:1017D000FF038093000490930104A0930204B0934C
:1017E000030486E696E6A6E6BFE38093040490939E
:1017F0000504A0930604B093070480E090E0A0E005
:10180000BFE38093F0039093F103A093F203B093AE
:10181000F3038093F4039093F503A093F603B0933E
:10182000F70383E393E3A3E7BFE38093F803909385
:10183000F903A093FA03B093FB03E0EFF2E0108208
:1018400011821282138214821582168217823896B0
:1018500083E0E03FF80799F708958091F2008061F6
:101860008EBB80E88093F2009EB39093F200809349
:10187000610021E0209361009091F2009F799EBB6E
:101880008093F2009EB39093F2009091F2009B7FC0
:101890009EBB8093F2009EB39093F2008093610010
:1018A00020936100789484B5826084BD84B58160A2
:1018B00084BD85B5826085BD85B5816085BD80911B
:1018C0006E00816080936E00109281008091810093
:1018D000826080938100809181008160809381008B
:1018E000809180008160809380008091B10084604D
:1018F0008093B1008091B00081608093B0008091AE
:10190000910082608093910080919100816080932A
:1019100091008091900081608093900080917A0086
:101920008B7F80937A0080917A00826080937A0026
:1019300080917A00816080937A0080917A0080683B
:1019400080937A001092C100E0916302F0916402EA
:1019500082E08083E0915F02F09160021082E0916A
:101960006102F091620280E1808310926B02E0914B
:101970006702F091680286E08083E0916502F09151
:101980006602808180618083E0916502F091660249
:10199000808188608083E0916502F0916602808199
:1019A00080688083E0916502F091660280818F7D7E
:1019B000808385E291E00E94CB038EE391E00E9458
:1019C000CB0388E191E00E94CB0360E08EE00E94AF
:1019D000470160E08FE00E94470160E080E10E94E3
:1019E000470160E081E10E94470160E08EE00E94D3
:1019F000470161E083E00E94470162E084E00E94C9
:101A00004701C3E0D0E081E00E94EA0064E670E0B4
:101A100080E090E00E94F80180E00E94EA0064E625
:101A200070E080E090E00E94F801219761F761E0AA
:101A300089E00E94470161E08AE00E94470180E856
:101A400090E022EA2093800029E1209381002FEF8B
:101A500030E0309387002093860090938900809334
:101A6000880090938B0080938A001092300410922B
:101A70003104109232041092330410923C041092FC
:101A80003D0410923E0410923F04109240041092C4
:101A90004104109242041092430410925804109290
:101AA000590410925A0410925B0410925C04109234
:101AB0005D0410925E0410925F0410926004109214
:101AC00061041092620410926304F8941092B000C2
:101AD0001092B1001092B20089E28093B30080911D
:101AE000B00082608093B0008091B10082608093EA
:101AF000B10080917000826080937000789481E6DC
:101B000091E00E94CB038AE791E00E94CB0381E839
:101B100091E00E94CB0389E991E00E94CB0389EC1C
:101B200091E00E94CB0388E191E00E94CB0300EF9B
:101B300013E080E0282E80E0382E2FB7F8948091B3
:101B40004B0290914C02A0914D02B0914E022FBFDA
:101B500040914602509147026091480270914902BB
:101B6000841B950BA60BB70B893E9340A105B105CD
:101B700008F4EBC02FB7F89480914B0290914C027F
:101B8000A0914D02B0914E022FBF809346029093D8
:101B90004702A0934802B09349028EE090E00E9471
:101BA00038036B017C018FE090E00E94380380E1F4
:101BB00090E00E9438034B015C0181E190E00E94BB
:101BC00038032B013C018EE00E94CC01EC0120E0A7
:101BD00030E040E05FE3C501B4010E94B70E20E0B1
:101BE00030E040E850E40E94CC104B015C0120E062
:101BF00030E040E05FE3C301B2010E94B70E20E095
:101C000030E040EA50E40E94CC109B01AC01C501D9
:101C1000B4010E94B80E9B01AC0160E070E080E06E
:101C200090E40E9439114B015C0184EF91E00E9425
:101C30007A036091450270E090E080E04AE00E9403
:101C400087038BEF91E00E947A0320E030E04CE5BF
:101C500052E4C501B4010E94CC1042E00E94D903B5
:101C600085E092E00E947A0342E0C701B6010E943B
:101C7000D90387E192E00E947A036091FC0370919E
:101C8000FD038091FE039091FF0342E00E94D9037F
:101C900082E292E00E947A03BE01DD0F880B990B6D
:101CA0000E94D80F20E030EC4FE754E40E942E0F42
:101CB0009B01AC010E94B80E20E030E040E85FE3F9
:101CC0000E94B70E42E00E94D903C0EFD2E0C12CBF
:101CD000D12C7601688179818A819B818C809D805D
:101CE000AE80BF809B01AC010E94CC102B013C0157
:101CF000A5019401C501B4010E94CC109B01AC0167
:101D0000C301B2010E94B80E0E9497119B01AC0161
:101D1000C701B6010E94B80E6B017C0128960C1712
:101D20001D07C1F68BE292E00E947A0320E030E0CA
:101D300040E05DE3C701B6010E94CC1043E00E9481
:101D4000D90386E191E00E947A036AE070E080E0C6
:101D500090E00E94F8012114310409F4EECE0E94B3
:101D60009502882309F4E9CE0E940000E6CE50587F
:101D7000BB27AA270E94CF0E0C9479100E94401016
:101D800038F00E94471020F039F49F3F19F426F4F0
:101D90000C943D100EF4E095E7FB0C943710E92FFE
:101DA0000E949E1058F3BA176207730784079507BD
:101DB00020F079F4A6F50C94C0100EF4E0950B2EEB
:101DC000BA2FA02D0B01B90190010C01CA01A0018D
:101DD0001124FF27591B99F0593F50F4503E68F1E8
:101DE0001A16F040A22F232F342F4427585FF3CF29
:101DF000469537952795A795F0405395C9F77EF4FA
:101E00001F16BA0B620B730B840BBAF09150A1F042
:101E1000FF0FBB1F661F771F881FC2F70EC0BA0FC8
:101E2000621F731F841F48F4879577956795B79550
:101E3000F7959E3F08F0B0CF9395880F08F099274B
:101E4000EE0F9795879508950E94131008F481E08E
:101E500008950E945010E3950C948A100E94420F3E
:101E60000C9479100E94471058F00E94401040F0E6
:101E700029F45F3F29F00C94371051110C94C110D4
:101E80000C943D100E949E1068F39923B1F35523E2
:101E900091F3951B550BBB27AA276217730784077D
:101EA00038F09F5F5F4F220F331F441FAA1FA9F313
:101EB00035D00E2E3AF0E0E832D091505040E69501
:101EC000001CCAF72BD0FE2F29D0660F771F881F62
:101ED000BB1F261737074807AB07B0E809F0BB0B55
:101EE000802DBF01FF2793585F4F3AF09E3F510569
:101EF00078F00C9437100C94C1105F3FE4F3983ED7
:101F0000D4F3869577956795B795F7959F5FC9F751
:101F1000880F911D9695879597F90895E1E0660FD2
:101F2000771F881FBB1F621773078407BA0720F04B
:101F3000621B730B840BBA0BEE1F88F7E0950895B4
:101F40000E94A70F6894B1110C94C11008950E94CB
:101F5000A61088F09F5798F0B92F9927B751B0F085
:101F6000E1F0660F771F881F991F1AF0BA95C9F71D
:101F700014C0B13091F00E94C010B1E008950C94EB
:101F8000C010672F782F8827B85F39F0B93FCCF39E
:101F9000869577956795B395D9F73EF4909580959A
:101FA000709561957F4F8F4F9F4F0895E89409C0BA
:101FB00097FB3EF490958095709561957F4F8F4F7C
:101FC0009F4F9923A9F0F92F96E9BB279395F69592
:101FD000879577956795B795F111F8CFFAF4BB0F10
:101FE00011F460FF1BC06F5F7F4F8F4F9F4F16C074
:101FF000882311F096E911C0772321F09EE8872FFE
:10200000762F05C0662371F096E8862F70E060E0B9
:102010002AF09A95660F771F881FDAF7880F969532
:10202000879597F90895990F0008550FAA0BE0E8D6
:10203000FEEF16161706E807F907C0F0121613068A
:10204000E407F50798F0621B730B840B950B39F4CA
:102050000A2661F0232B242B252B21F408950A2630
:1020600009F4A140A6958FEF811D811D089597F970
:102070009F6780E870E060E008959FEF80EC08952E
:1020800000240A9416161706180609060895002457
:102090000A94121613061406050608950C943D10B2
:1020A0000E94A610D8F3E894E0E0BB279F57F0F019
:1020B0002AED3FE049EC06C0EE0FBB0F661F771F0D
:1020C000881F28F0B23A62077307840728F0B25AD3
:1020D000620B730B840BE3959A9572F7803830F49A
:1020E0009A95BB0F661F771F881FD2F790480C94F4
:1020F0001812092E0394000C11F4882352F0BB0F20
:1021000040F4BF2B11F460FF04C06F5F7F4F8F4F0F
:102110009F4F0895EF93E0FF07C0A2EA2AED3FE04A
:1021200049EC5FEB0E94CF0E0E9479100F90039450
:1021300001FC9058E8E7F0E00C94521257FD9058DB
:10214000440F551F59F05F3F71F04795880F97FB7B
:10215000991F61F09F3F79F0879508951216130635
:102160001406551FF2CF4695F1DF08C01616170664
:102170001806991FF1CF8695710561050894089599
:10218000E894BB2766277727CB0197F908950E942B
:10219000131008F48FEF08950E94DF100C9479104B
:1021A0000E94401038F00E94471020F0952311F053
:1021B0000C9437100C943D1011240C94C1100E9403
:1021C0009E1070F3959FC1F3950F50E0551F629FCD
:1021D000F001729FBB27F00DB11D639FAA27F00D80
:1021E000B11DAA1F649F6627B00DA11D661F829FA7
:1021F0002227B00DA11D621F739FB00DA11D621F8C
:10220000839FA00D611D221F749F3327A00D611DA8
:10221000231F849F600D211D822F762F6A2F11248A
:102220009F5750409AF0F1F088234AF0EE0FFF1FBD
:10223000BB1F661F771F881F91505040A9F79E3F14
:10224000510580F00C9437100C94C1105F3FE4F3FB
:10225000983ED4F3869577956795B795F795E7956A
:102260009F5FC1F7FE2B880F911D9695879597F973
:102270000895FA01EE0FFF1F309621053105A1F1F7
:102280006115710561F48038BFE39B0749F16894DB
:102290009038810561F08038BFEF9B0741F09923AA
:1022A0004AF5FF3FE1053105210519F1E89408944D
:1022B000E795D901AA2329F4AB2FBE2FF85FD0F3FD
:1022C00010C0FF5F70F4A695E0F7F73950F019F0F1
:1022D000FF3A38F49F779F930DD00F9007FC9058EA
:1022E000089546F00C943D1060E070E080E89FE3B4
:1022F00008954FE79F775F934F933F932F930E94EB
:10230000B0122F913F914F915F910E94CC100C948D
:10231000E4119F930E9450100F9007FCEE5F0C9405
:102320008A1019F416F40C943D100C9416120E94A5
:10233000A610B8F39923C9F3B6F39F57550B87FF3F
:102340000E9424120024A0E640EA9001805856958D
:10235000979528F4805C660F771F881F20F026175A
:102360003707480730F4621B730B840B202931298F
:102370004A2BA69517940794202531254A2758F70C
:10238000660F771F881F20F026173707480730F49D
:10239000620B730B840B200D311D411DA09581F73D
:1023A000B901842F9158880F9695879508950E94BA
:1023B0001310880B990B089529F416F00C9437101C
:1023C0000C94C0100C943D100E94A610A8F39638EF
:1023D000A0F707F80F92E8942BE33AEA48EB5FE79F
:1023E0000E94E2100F920F920F924DB75EB70F92BC
:1023F0000E94F812E6E9F0E00E942B124F915F91E3
:10240000EF91FF91E595EE1FFF1F49F0FE57E06841
:102410004427EE0F441FFA95E1F74195550B0E94B2
:1024200072120F9007FE0C94661208959F3F31F0D0
:10243000915020F4879577956795B795880F911DF2
:102440009695879597F9089591505040660F771F9C
:10245000881FD2F70895DF93CF931F930F93FF92B6
:10246000EF92DF927B018C01689406C0DA2EEF01B7
:102470000E94DF10FE01E894A591259135914591C8
:102480005591A6F3EF010E94CF0EFE019701A8011E
:10249000DA9469F7DF90EF90FF900F911F91CF9141
:1024A000DF9108959F938F937F936F93FF93EF93A3
:1024B0009B01AC010E94CC10EF91FF910E942B1266
:1024C0002F913F914F915F910C94CC109B01AC01E7
:1024D00060E070E080E89FE30C942E0F0C943710BE
:1024E0000C9416120E94A610D8F39923C9F3940FE6
:1024F000511DA3F39150504094F059F0882332F0CD
:10250000660F771F881F91505040C1F79E3F5105BD
:102510002CF7880F911D9695879597F908955F3F41
:10252000ACF0983E9CF0BB27869577956795B7955C
:1025300008F4B1609395C1F7BB0F58F711F460FF31
:10254000E8CF6F5F7F4F8F4F9F4FE3CF0C94C11049
:1025500016F00C9416120C943D1068940C943710DD
:102560000E94A610A8F39923C1F3AEF3DF93CF9393
:102570001F930F93FF92C92FDD2788232AF02197FD
:10258000660F771F881FDAF720E030E040E85FEB46
:102590009FE3883920F0803E38F021968F770E94A3
:1025A000B80EEEEBF0E004C00E94B80EEBEEF0E0E7
:1025B0000E942B128B01BE01EC01FB2E6F5771099B
:1025C0007595771F880B990B0E94D80F28E132E789
:1025D00041E35FE30E94DF10AF2D9801AE01FF9051
:1025E0000F911F91CF91DF910E94CF0E0C94791023
:1025F000FA01DC01AA0FBB1F9B01AC01BF5728F4F5
:10260000222733274427507820C0B75190F4AB2FAE
:102610000024469537952795011CA395D2F30020F9
:1026200071F0220F331F441FB395DAF30ED00C94D0
:10263000B70E61307105A0E88A07B94630F49B01F6
:10264000AC016627772788279078309621F0208381
:10265000318342835383089597FB072E16F4009429
:1026600007D077FD09D00E94681307FC05D03EF41F
:10267000909581959F4F0895709561957F4F08952E
:10268000A1E21A2EAA1BBB1BFD010DC0AA1FBB1F76
:10269000EE1FFF1FA217B307E407F50720F0A21BE8
:1026A000B30BE40BF50B661F771F881F991F1A9455
:1026B00069F760957095809590959B01AC01BD017F
:1026C000CF010895EE0FFF1F0590F491E02D0994BE
:1026D000AA1BBB1B51E107C0AA1FBB1FA617B70748
:1026E00010F0A61BB70B881F991F5A95A9F7809564
:0C26F0009095BC01CD010895F894FFCF37
:1026FC002A022A0200000000CB022B025802180307
:10270C00890267027B020D0A006E616E00696E66BB
:10271C00006F766600526F7365204F7363696C6C43
:10272C0061746F7220666F72204D4F4431004261AC
:10273C00736564206F6E20526F73654C69636850CB
:10274C006174636820627920616E74697376696E56
:10275C0000496E697469616C697A6174696F6E2085
:10276C00636F6D706C65746521004D6F6465733AB1
:10277C00002020303A204E6F726D616C2028464D3F
:10278C00206F6E2043563229002020313A204665B6
:10279C0065646261636B202843563220636F6E74EC
:1027AC00726F6C7320616D706C69747564652066F2
:1027BC006565646261636B29002020323A20436FA7
:1027CC006D706C6578202843563220636F6E74727E
:1027DC006F6C7320626F74682066656564626163F8
:1027EC006B7329004D6F64653A2000207C20467283
:1027FC0065713A200020487A207C204861726D6F08
:10280C006E6963733A2000207C20526174696F3AC0
:10281C002000207C204356323A2000207C20536933
:08282C00676E616C3A200000A8
:00000001FF
