:100000000C9470000C948D000C948D000C948D0059
:100010000C948D000C948D000C948D000C948D002C
:100020000C948D000C948D000C948D000C948D001C
:100030000C948D000C948D000C948D000C948D000C
:100040000C945C020C948D000C948D000C948D002B
:100050000C948D000C948D000C948D000C948D00EC
:100060000C948D000C948D0005A84CCDB2D44EB9E3
:100070003836A9020C50B9918688083CA6AAAA2A4B
:10008000BE000000803F0000000023002600290081
:100090000000000800020100000304070000000047
:1000A0000000000000000000250028002B000000D8
:1000B0000000240027002A000404040404040404AB
:1000C0000202020202020303030303030102040803
:1000D00010204080010204081020010204081020B2
:1000E00011241FBECFEFD8E0DEBFCDBF11E0A0E0EE
:1000F000B1E0ECEEF2E102C005900D92A231B10741
:10010000D9F725E0A2E1B1E001C01D92A136B20706
:10011000E1F70E94A6020C9474090C940000CF939E
:10012000DF9390E0FC01E453FF4F249188549F4FEC
:10013000FC0184918823D1F090E0880F991FFC0185
:10014000E255FF4FA591B491FC01EC55FF4FC591CD
:10015000D491623071F49FB7F8943C91822F8095CE
:1001600083238C93E8812E2B28839FBFDF91CF912F
:1001700008958FB7F894EC912E2B2C938FBFF6CF68
:100180008E50806480937C0080917A00806480939C
:100190007A0080917A0086FDFCCF609178007091A2
:1001A0007900072E000C880B990B0E949A0720E01B
:1001B00030EC4FE754E40E94F00629E23CE54FE9B9
:1001C00050E40E944F082AE037ED43EA5CE30E94C6
:1001D0007F0608952F923F924F925F926F927F9287
:1001E0008F929F92AF92BF92CF92DF92EF92FF9247
:1001F0000F931F93CF93DF932B013C011A01E90169
:10020000A601950160E070E08AE794E40E94F006A0
:100210004B015C01F10180819181A281B381A30135
:100220009201281B390B4A0B5B0BCA01B9010E94D2
:100230009807A50194010E944A0887FD23C0F10197
:1002400040825182628273820E94AD0520E031E0DB
:1002500040E050E00E941B060E949A07F80160836C
:10026000718382839383288139814A815B810E94D3
:100270007E06A50194010E94F006F7016083718358
:1002800082839383F7012081318142815381688188
:1002900079818A819B810E947F064B015C01888263
:1002A0009982AA82BB82F70140805180628073806C
:1002B00020E030E0A901C301B2010E944A081816EB
:1002C0005CF4F8012081318142815381C501B40180
:1002D0000E944A0887FF14C020E030E0A901C30152
:1002E000B2010E94EB0687FF14C0F8012081318122
:1002F00042815381C501B4010E94EB0618164CF0EF
:10030000F80180819181A281B38188839983AA8336
:10031000BB83DF91CF911F910F91FF90EF90DF9002
:10032000CF90BF90AF909F908F907F906F905F9095
:100330004F903F902F900895CF92DF92EF92FF92CF
:100340000F931F93CF93DF93EC018130910509F454
:100350007FC08230910581F1892B29F506E111E0FA
:10036000C11532E0D3070CF084C0BE010D2E000C85
:10037000880B990B0E949A0720E030E04FE753E486
:100380000E944F0820E030E040E05BE30E944F080D
:100390000E946907F801608321960F5F1F4FC11506
:1003A000F4E0DF07E9F6DF91CF911F910F91FF9005
:1003B000EF90DF90CF90089506E111E0D0E0C0E02B
:1003C000BE010D2E000C880B990B0E949A0720E0AD
:1003D00030E040E85AE30E944F082BED3FE049EC43
:1003E00050E40E944F080E94BC0820E030E040E842
:1003F0005FE30E947F0620E030E04FEF52E40E946E
:100400004F086B017C0120E030E0A9010E94EB065F
:1004100087FD4EC020E030E04FE753E4C701B6014E
:100420000E944A08181634F4C12CD12C8FE7E82E0C
:1004300083E4F82EC701B6010E946907F8016193B1
:100440008F012196C115F4E0DF0709F0B9CFABCFDA
:10045000E6E1F1E090E080E02FEF811532E09307D4
:100460002CF5108201963196811534E09307A9F797
:100470009ACFBE017250072E000C880B990B0E9478
:100480009A0720E030E04FE753E40E944F0820E055
:1004900030E040E05BE30E944F089B01AC0160E06C
:1004A00070E08FE793E40E947E0672CF2083DACF5C
:1004B000C12CD12C7601BECF1F920F920FB60F9296
:1004C00011242F933F938F939F93AF93BF9380916A
:1004D0005D0590915E05A0915F05B091600530913A
:1004E0005C0523E0230F2D3758F50196A11DB11DA2
:1004F00020935C0580935D0590935E05A0935F0556
:10050000B09360058091580590915905A0915A05C6
:10051000B0915B050196A11DB11D80935805909384
:100520005905A0935A05B0935B05BF91AF919F9178
:100530008F913F912F910F900FBE0F901F901895A4
:1005400026E8230F0296A11DB11DD2CFCF93DF93D2
:1005500000D000D0CDB7DEB7789484B5826084BD7A
:1005600084B5816084BD85B5826085BD85B58160B7
:1005700085BD80916E00816080936E001092810035
:1005800080918100826080938100809181008160F0
:1005900080938100809180008160809380008091B1
:1005A000B10084608093B1008091B000816080933D
:1005B000B00080917A00846080937A0080917A0004
:1005C000826080937A0080917A00816080937A00C3
:1005D00080917A00806880937A001092C10061E077
:1005E00089E00E948F0061E08AE00E948F0061E054
:1005F0008BE00E948F0061E083E00E948F0062E048
:1006000084E00E948F0010928000109281008091FF
:100610008000816A8093800080918100896080934E
:1006200081001092B0001092B1008091B000836AF6
:100630008093B0008091B10081608093B10090E020
:1006400080E00E940506843008F080E090E09093FE
:100650005305809352050E949C0160E0262E60E0C5
:10066000362EE4E9F0E08491E0EDF0E09491ECEBDB
:10067000F0E02491F12CE12C2223E9F0882359F0B9
:10068000833009F487C108F07AC1813009F488C148
:10069000823009F489C1E22FF0E0EE0FFF1FEA5724
:1006A000FF4FA591B4918C91982321E080E009F44B
:1006B00020E0E22EF82E8FB7F89480905D059090A0
:1006C0005E05A0905F05B09060058FBF809112011C
:1006D00090911301A0911401B0911501950184012D
:1006E000081B190B2A0B3B0BD901C801C397A105A5
:1006F000B10530F1E114F10419F5809100019091F8
:1007000001010197E9F480915205909153050196FA
:1007100064E070E00E944C09D82E809352059093BB
:1007200053050E949C016D2D90E080E00E940D0613
:100730008092120190921301A0921401B0921501BF
:10074000F0920101E09200013FB7F89480915805C2
:1007500090915905A0915A05B0915B0526B5A89BCB
:1007600005C02F3F19F00196A11DB11D3FBFBA2F43
:10077000A92F982F8827820F911DA11DB11D42E03E
:10078000880F991FAA1FBB1F4A95D1F740915405A6
:100790005091550560915605709157058C019D014A
:1007A000041B150B260B370BB901A801403951402A
:1007B0006105710508F4DCC08093540590935505DC
:1007C000A0935605B09357058EE090E00E94C000BC
:1007D0002B013C018FE090E00E94C0004B015C01C6
:1007E00080E190E00E94C00069837A838B839C83C0
:1007F00081E190E00E94C0006B017C01AC019B0193
:10080000C301B2010E947F062B013C0140920A0104
:1008100050920B0160920C0170920D01A70196019C
:10082000C501B4010E947F064B015C018092060164
:1008300090920701A0920801B0920901A7019601C8
:1008400069817A818B819C810E947F066B017C018A
:10085000C0920201D0920301E0920401F0920501DE
:100860008091520590915305039709F0AAC08FB764
:10087000F89440905D0550905E0560905F05709023
:1008800060058FBFA0900A01B0900B01C0900C01D1
:10089000D0900D0182E4E82E85E0F82E06E415E004
:1008A0002AE435E04EE455E0C301B2010E94EA00BB
:1008B000A0900601B0900701C0900801D0900901F6
:1008C00092E3E92E95E0F92E06E315E02AE335E000
:1008D0004EE355E0C301B2010E94EA00A09002017C
:1008E000B0900301C0900401D090050122E2E22EF5
:1008F00025E0F22E06E215E02AE235E04EE255E070
:10090000C301B2010E94EA0060914A0570914B0553
:1009100080914C0590914D050E9469077093890064
:100920006093880060913A0570913B0580913C0589
:1009300090913D050E94690770938B0060938A0037
:1009400060912A0570912B0580912C0590912D05C1
:100950000E9469076093B30060914A0570914B054E
:1009600080914C0590914D050E9469076093B400F9
:100970002114310409F475CE0E94000072CE873034
:10098000B1F08830D1F0843009F085CE80918000BC
:100990008F7D03C0809180008F77809380007BCE15
:1009A00084B58F7784BD77CE84B58F7DFBCF809162
:1009B000B0008F778093B0006ECE8091B0008F7DB5
:1009C000F9CF27E137EB41ED5EE3C301B2010E94AD
:1009D0004F0820911E0530911F0540912005509130
:1009E00021050E947F062B013C0140921E0550927A
:1009F0001F05609220057092210527E137EB41ED3C
:100A00005EE3C501B4010E944F0820911A053091A0
:100A10001B0540911C0550911D050E947F064B014E
:100A20005C0180921A0590921B05A0921C05B09261
:100A30001D0527E137EB41ED5EE3C701B6010E94DA
:100A40004F082091160530911705409118055091D7
:100A500019050E947F066B017C01C0921605D09299
:100A60001705E0921805F0921905C301B2010E9422
:100A7000620773706A5E7E4FFB017080C501B4012E
:100A80000E94620773706A5E7E4FFB01B080C701EF
:100A9000B6010E94620773706A5E7E4FFB0120817F
:100AA000872D90E090938900809388008B2D90E0B3
:100AB00090938B0080938A002093B3007092B400CF
:100AC00057CF8F929F92AF92BF92CF92DF92EF92C9
:100AD000FF92CF93DF93EC01688179818A819B81BA
:100AE000611571058105910521F464E279ED8BE5CD
:100AF00097E02DE133EF41E050E00E941B064901F1
:100B00005A019B01AC01A7EAB1E40E943A066B01CD
:100B10007C01ACEEB4EFA50194010E944806C60E1C
:100B2000D71EE81EF91EF7FE06C081E0C81AD108DC
:100B3000E10880E8F80AC882D982EA82FB82C7010C
:100B4000B6019F77DF91CF91FF90EF90DF90CF902C
:100B5000BF90AF909F908F9008958F929F92AF9289
:100B6000BF92CF92DF92EF92FF9260910E0170914F
:100B70000F0180911001909111016115710581059E
:100B8000910521F464E279ED8BE597E02DE133EFF7
:100B900041E050E00E941B0649015A019B01AC0153
:100BA000A7EAB1E40E943A066B017C01ACEEB4EF17
:100BB000A50194010E944806C60ED71EE81EF91E24
:100BC000F7FE06C081E0C81AD108E10880E8F80AFB
:100BD000C0920E01D0920F01E0921001F09211012B
:100BE000C701B6019F77FF90EF90DF90CF90BF9045
:100BF000AF909F908F90089560930E0170930F01B6
:100C000080931001909311010895F999FECF92BD40
:100C100081BDF89A992780B50895262FF999FECFBE
:100C20001FBA92BD81BD20BD0FB6F894FA9AF99A09
:100C30000FBE01960895052E97FB1EF400940E94A6
:100C4000320657FD07D00E944D0607FC03D04EF434
:100C50000C94320650954095309521953F4F4F4F5B
:100C60005F4F089590958095709561957F4F8F4F58
:100C70009F4F08950E946F06A59F900DB49F900D01
:100C8000A49F800D911D11240895B7FF0C943A067E
:100C90000E943A06821B930B0895A1E21A2EAA1B0A
:100CA000BB1BFD010DC0AA1FBB1FEE1FFF1FA2171C
:100CB000B307E407F50720F0A21BB30BE40BF50B19
:100CC000661F771F881F991F1A9469F760957095A2
:100CD000809590959B01AC01BD01CF010895A29F25
:100CE000B001B39FC001A39F700D811D1124911D00
:100CF000B29F700D811D1124911D08955058BB277E
:100D0000AA270E9496060C9410080E94020838F048
:100D10000E94090820F039F49F3F19F426F40C943E
:100D2000FF070EF4E095E7FB0C94F907E92F0E940A
:100D3000210858F3BA17620773078407950720F054
:100D400079F4A6F50C9443080EF4E0950B2EBA2F17
:100D5000A02D0B01B90190010C01CA01A0011124C1
:100D6000FF27591B99F0593F50F4503E68F11A166D
:100D7000F040A22F232F342F4427585FF3CF4695FE
:100D800037952795A795F0405395C9F77EF41F1620
:100D9000BA0B620B730B840BBAF09150A1F0FF0FEA
:100DA000BB1F661F771F881FC2F70EC0BA0F621FD6
:100DB000731F841F48F4879577956795B795F795C6
:100DC0009E3F08F0B0CF9395880F08F09927EE0F5B
:100DD0009795879508950E94D50708F481E00895B6
:100DE0000E9404070C9410080E94090858F00E9401
:100DF000020840F029F45F3F29F00C94F9075111E3
:100E00000C9444080C94FF070E94210868F399236E
:100E1000B1F3552391F3951B550BBB27AA276217F6
:100E20007307840738F09F5F5F4F220F331F441F03
:100E3000AA1FA9F335D00E2E3AF0E0E832D0915037
:100E40005040E695001CCAF72BD0FE2F29D0660F24
:100E5000771F881FBB1F261737074807AB07B0E867
:100E600009F0BB0B802DBF01FF2793585F4F3AF06D
:100E70009E3F510578F00C94F9070C9444085F3FAD
:100E8000E4F3983ED4F3869577956795B795F795F3
:100E90009F5FC9F7880F911D9695879597F90895DB
:100EA000E1E0660F771F881FBB1F62177307840777
:100EB000BA0720F0621B730B840BBA0BEE1F88F786
:100EC000E09508950E9469076894B1110C94440854
:100ED00008950E94290888F09F5798F0B92F992704
:100EE000B751B0F0E1F0660F771F881F991F1AF015
:100EF000BA95C9F714C0B13091F00E944308B1E02F
:100F000008950C944308672F782F8827B85F39F02D
:100F1000B93FCCF3869577956795B395D9F73EF4AD
:100F200090958095709561957F4F8F4F9F4F089555
:100F3000E89409C097FB3EF4909580957095619573
:100F40007F4F8F4F9F4F9923A9F0F92F96E9BB2729
:100F50009395F695879577956795B795F111F8CFA5
:100F6000FAF4BB0F11F460FF1BC06F5F7F4F8F4F10
:100F70009F4F16C0882311F096E911C0772321F006
:100F80009EE8872F762F05C0662371F096E8862F9E
:100F900070E060E02AF09A95660F771F881FDAF7F5
:100FA000880F9695879597F90895990F0008550F22
:100FB000AA0BE0E8FEEF16161706E807F907C0F0DF
:100FC00012161306E407F50798F0621B730B840BE7
:100FD000950B39F40A2661F0232B242B252B21F4C1
:100FE00008950A2609F4A140A6958FEF811D811D61
:100FF000089597F99F6780E870E060E008959FEF9B
:1010000080EC089500240A9416161706180609069F
:10101000089500240A94121613061406050608956E
:10102000092E0394000C11F4882352F0BB0F40F4F6
:10103000BF2B11F460FF04C06F5F7F4F8F4F9F4F36
:10104000089557FD9058440F551F59F05F3F71F0B8
:101050004795880F97FB991F61F09F3F79F087951F
:101060000895121613061406551FF2CF4695F1DFA8
:1010700008C0161617061806991FF1CF8695710538
:10108000610508940895E894BB2766277727CB016C
:1010900097F908950E94D50708F48FEF08950E94EC
:1010A00062080C9410080E94020838F00E94090897
:1010B00020F0952311F00C94F9070C94FF071124EC
:1010C0000C9444080E94210870F3959FC1F3950F7A
:1010D00050E0551F629FF001729FBB27F00DB11DBC
:1010E000639FAA27F00DB11DAA1F649F6627B00D4C
:1010F000A11D661F829F2227B00DA11D621F739F35
:10110000B00DA11D621F839FA00D611D221F749F42
:101110003327A00D611D231F849F600D211D822F89
:10112000762F6A2F11249F5750409AF0F1F08823B0
:101130004AF0EE0FFF1FBB1F661F771F881F9150DD
:101140005040A9F79E3F510580F00C94F9070C948C
:1011500044085F3FE4F3983ED4F38695779567950E
:10116000B795F795E7959F5FC1F7FE2B880F911D07
:101170009695879597F908959F930E94C6080F90BA
:1011800007FCEE5F0C94EF080C94FF070E942908FF
:10119000D8F3E894E0E0BB279F57F0F02AED3FE05A
:1011A00049EC06C0EE0FBB0F661F771F881F28F0A3
:1011B000B23A62077307840728F0B25A620B730BC6
:1011C000840BE3959A9572F7803830F49A95BB0FAB
:1011D000661F771F881FD2F790480C940509EF937C
:1011E000E0FF07C0A2EA2AED3FE049EC5FEB0E9476
:1011F00096060E9410080F90039401FC9058E8E6B0
:10120000F0E00C9411099F3F31F0915020F4879544
:1012100077956795B795880F911D9695879597F95E
:1012200008959F938F937F936F93FF93EF939B0109
:10123000AC010E944F08EF91FF910E9425092F9168
:101240003F914F915F910C944F08DF93CF931F9381
:101250000F93FF92EF92DF927B018C01689406C09E
:10126000DA2EEF010E946208FE01E894A591259113
:10127000359145915591A6F3EF010E949606FE0126
:101280009701A801DA9469F7DF90EF90FF900F9132
:101290001F91CF91DF91089597FB072E16F40094CC
:1012A00007D077FD09D00E94600907FC05D03EF405
:1012B000909581959F4F0895709561957F4F089502
:1012C000AA1BBB1B51E107C0AA1FBB1FA617B7076C
:1012D00010F0A61BB70B881F991F5A95A9F7809588
:0C12E0009095BC01CD010895F894FFCF5B
:1012EC0001000AD7A33C0AD7A33C0AD7A33C0100B0
:0212FC000000F0
:00000001FF
