:100000000C9475000C9492000C9492000C94920045
:100010000C9492000C9492000C9492000C94920018
:100020000C9492000C9492000C9492000C94920008
:100030000C9492000C9492000C9492000C949200F8
:100040000C94B8010C9492000C9492000C949200C1
:100050000C9492000C9492000C9492000C949200D8
:100060000C9492000C9492000C9400000C940000EC
:100070000C9400000C9400000000000024002700F5
:100080002A002D0000000000250028002B002E0073
:10009000000000002300260029002C0004040404B2
:1000A0000404040402020202020203030303030322
:1000B000050505050505050301020408102040801B
:1000C00001020408102001020408102002080104A3
:1000D0001040204000000008500201000003040707
:1000E0000000000000000000000011241FBECFEF40
:1000F000D8E0DEBFCDBF13E0A0E0B1E0E4E9FAE074
:1001000002C005900D92A43BB107D9F723E0A4EB00
:10011000B3E001C01D92AD3CB207E1F70E940202BC
:100120000C9448050C94000081508B3088F5E82F22
:10013000F0E0E356FF4F0C942705B200B600A8008C
:10014000AE00C800C800B900BF00C300C900CD00A0
:10015000809180008F778093800008958091800047
:100160008F7DF9CF84B58F7784BD089584B58F7D59
:10017000FBCF8091B0008F778093B000089580917D
:10018000B0008F7DF9CF809190008F7780939000A1
:100190000895809190008F7DF9CF80919000877FA6
:1001A000F5CFCF93DF93282F30E0F901EC52FF4FCA
:1001B0008491F901E854FF4FD491F901E456FF4FBF
:1001C000C491CC23A1F081110E949400EC2FF0E0A7
:1001D000EE0FFF1FE057FF4FA591B491EC91ED2377
:1001E00081E090E009F480E0DF91CF91089580E014
:1001F00090E0FACF1F93CF93DF93282F30E0F901DF
:10020000EC52FF4F8491F901E854FF4FD491F9016A
:10021000E456FF4FC491CC23A9F0162F81110E9400
:100220009400EC2FF0E0EE0FFF1FEC57FF4FA5916D
:10023000B4918FB7F894EC91111108C0D095DE23DA
:10024000DC938FBFDF91CF911F910895DE2BF8CF04
:10025000CF93DF93282F30E0F901E854FF4F44910A
:1002600024563F4FF9012491843019F483E08093A0
:10027000A0002223D1F0822F90E0880F991FFC016B
:10028000E858FF4FA591B491FC01EC57FF4FC59181
:10029000D49161110DC09FB7F8948C91409584233F
:1002A0008C938881482348839FBFDF91CF91089525
:1002B000623051F49FB7F8942C91842F809582235B
:1002C0008C93E8814E2BEFCF8FB7F894EC914E2BA7
:1002D0004C938FBFEACF80917A00806480937A003C
:1002E00080917A0086FDFCCF809178009091790012
:1002F00008950F931F93CF93DF93EDEAF0E0908181
:10030000907F90838E50806480937C000DE710E096
:10031000F8018081806280830E946B01EC01F8010A
:1003200080818F7D80830E946B018C0F9D1F9C01BB
:1003300036952795892F9927A901481B590BCA0182
:10034000DF91CF911F910F9108950E9479019595AA
:1003500087959595879508952FB7F8946091C9036F
:100360007091CA038091CB039091CC032FBF089565
:100370001F920F920FB60F9211242F933F938F93DA
:100380009F93AF93BF938091C9039091CA03A091AB
:10039000CB03B091CC033091C80323E0230F2D375A
:1003A00058F50196A11DB11D2093C8038093C90380
:1003B0009093CA03A093CB03B093CC038091C40362
:1003C0009091C503A091C603B091C7030196A11DEA
:1003D000B11D8093C4039093C503A093C603B0934B
:1003E000C703BF91AF919F918F913F912F910F9034
:1003F0000FBE0F901F90189526E8230F0296A11D9F
:10040000B11DD2CF8091F20080618EBB80E88093D5
:10041000F2009EB39093F2008093610021E020935C
:1004200061009091F2009F799EBB8093F2009EB391
:100430009093F2009091F2009B7F9EBB8093F2001C
:100440009EB39093F20080936100209361007894B2
:1004500084B5826084BD84B5816084BD85B58260C9
:1004600085BD85B5816085BD80916E00816080937A
:100470006E001092810080918100826080938100E3
:1004800080918100816080938100809180008160F3
:10049000809380008091B10084608093B10080914E
:1004A000B00081608093B000809191008260809361
:1004B00091008091910081608093910080919000E3
:1004C00081608093900080917A008B7F80937A0086
:1004D00080917A00826080937A0080917A008160B6
:1004E00080937A0080917A00806880937A001092DD
:1004F000C10060E081E10E94280162E084E00E9486
:10050000280161E08BE00E94280161E083E00E9405
:10051000280160E089E00E94280160E08EE00E94EE
:10052000280160E08BE00E94FA00CC24CA94A3E08A
:10053000DA2EE12CF12CB4E64B2E512C612C712CCF
:100540002224239480E10E94A5018C0181E0011501
:1005500022E012070CF480E08093C3038091C20371
:100560008823A1F0011582E018070CF44CC10E9409
:10057000AC01683E73408105910540F060E083E086
:100580000E94FA001092C2031092C1038EE00E94F2
:10059000A501EC0183E10E94A5018C0F9D1FCFEF07
:1005A000D3E08F3F93404CF48EE00E94A501EC0114
:1005B00083E10E94A501C80FD91FBE01DD0F880B82
:1005C000990B011522E012070CF4DFC0F4E0660F6E
:1005D000771F881F991FFA95D1F7A70196010E94EE
:1005E000B004E9018FE00E94A5015C0189E00E944E
:1005F000D100332433948130910509F0312C0197D7
:1006000009F056C08091C003811152C08091C1038E
:1006100081114EC024E630E0D5010E942D05A701CE
:1006200096010E94B00449015A018091BE03909145
:10063000BF03011512400CF4B0C044E0CC0FDD1F25
:100640004A95E1F7C80FD91FCC0FDD1FCC56DE4FFE
:10065000888199810197F9F40E945804A3019201BD
:100660000E94B004681579058A059B05A4F461E031
:100670008BE00E94FA0061E083E00E94FA000E9491
:10068000AC016093BA037093BB038093BC03909357
:10069000BD032092B9038091BE039091BF030196E0
:1006A00060E170E00E9413059093BF038093BE0346
:1006B00081E10E94D100EC015C988AE18A95F1F712
:1006C0000000000019B110715C9AC130D10511F021
:1006D000111129C08091B803811121C00E94AC0181
:1006E0008090B4039090B503A090B603B090B70388
:1006F000681979098A099B09633371058105910598
:1007000070F00E94AC016093B4037093B5038093C2
:10071000B6039093B7031092BF031092BE0381E01B
:10072000219711F0111180E08093B8033092C0033B
:100730008091B903882309F10E94AC010091BA03AA
:100740001091BB032091BC033091BD03601B710B62
:10075000820B930B6A3071058105910570F060E0A2
:100760008BE00E94FA008091C103811104C060E017
:1007700083E00E94FA001092B90380E090E0892B98
:1007800009F4E0CE0E940000DDCEE3E0660F771FA3
:10079000881F991FEA95D1F720CF23E0CC0FDD1FEA
:1007A0002A95E1F7C80FD91FCC0FDD1FCC5FDE4FB4
:1007B000888199810197F9F40E945804A30192015C
:1007C0000E94B004681579058A059B05A4F461E0D0
:1007D0008BE00E94FA0061E083E00E94FA000E9430
:1007E000AC016093BA037093BB038093BC039093F6
:1007F000BD032092B9038091BE039091BF0301967F
:1008000068E070E04FCF0E94AC01643F7140810509
:10081000910508F4BBCEB2CE8F929F92AF92BF9259
:10082000CF92DF92EF92FF92CF93DF93EC0168813A
:1008300079818A819B81611571058105910521F47A
:1008400064E279ED8BE597E02DE133EF41E050E094
:100850000E94B00449015A019B01AC01A7EAB1E42E
:100860000E94CF046B017C01ACEEB4EFA5019401B2
:100870000E94DD04C60ED71EE81EF91EF7FE06C054
:1008800081E0C81AD108E10880E8F80AC882D98254
:10089000EA82FB82C701B6019F77DF91CF91FF907B
:1008A000EF90DF90CF90BF90AF909F908F90089582
:1008B0008F929F92AF92BF92CF92DF92EF92FF9270
:1008C00060910001709101018091020190910301FA
:1008D000611571058105910521F464E279ED8BE5DF
:1008E00097E02DE133EF41E050E00E94B004490170
:1008F0005A019B01AC01A7EAB1E40E94CF046B014D
:100900007C01ACEEB4EFA50194010E94DD04C60E9B
:10091000D71EE81EF91EF7FE06C081E0C81AD108EE
:10092000E10880E8F80AC0920001D0920101E0924B
:100930000201F0920301C701B6019F77FF90EF908B
:10094000DF90CF90BF90AF909F908F90089560936D
:1009500000017093010180930201909303010895B7
:10096000052E97FB1EF400940E94C70457FD07D084
:100970000E94E20407FC03D04EF40C94C704509587
:100980004095309521953F4F4F4F5F4F089590957B
:100990008095709561957F4F8F4F9F4F08950E946E
:1009A0000405A59F900DB49F900DA49F800D911DEF
:1009B00011240895B7FF0C94CF040E94CF04821B2A
:1009C000930B0895A1E21A2EAA1BBB1BFD010DC0BB
:1009D000AA1FBB1FEE1FFF1FA217B307E407F507EF
:1009E00020F0A21BB30BE40BF50B661F771F881FCB
:1009F000991F1A9469F760957095809590959B0161
:100A0000AC01BD01CF010895A29FB001B39FC00109
:100A1000A39F700D811D1124911DB29F700D811D2A
:100A20001124911D089597FB072E16F4009407D00A
:100A300077FD09D00E94340507FC05D03EF490955F
:100A400081959F4F0895709561957F4F0895EE0FA2
:100A5000FF1F0590F491E02D09940E940405B7FF53
:100A60000895821B930B0895AA1BBB1B51E107C07D
:100A7000AA1FBB1FA617B70710F0A61BB70B881F2E
:100A8000991F5A95A9F780959095BC01CD010895BD
:040A9000F894FFCF08
:100A94000100000000000000000000000000000051
:100AA4000000000001000000000000000000000041
:100AB4000000000001000000000000000100000030
:100AC400000000000100000001000000000001001F
:100AD400000000000100000001000000010000000F
:100AE40001000000010001000000010001000000FD
:100AF40001000000010001000100000001000100EC
:100B040001000000010001000100010001000100DA
:100B140001000000010001000100010001000100CA
:100B240001000100000000000000000000000000BF
:100B340000000000000000000000000000000000B1
:100B440000000000010000000000000000000000A0
:100B54000000000000000000000000000000000091
:100B64000000000001000000000000000000000080
:100B74000000000001000000000000000000000070
:100B8400000000000100000000000000000001005F
:100B94000000000000000000010000000000000050
:100BA400000000000100000000000000010000003F
:100BB400000000000100000000000000010000002F
:100BC400000000000100000000000100000000001F
:100BD400010000000000010000000000010000000E
:100BE40000000000010000000100000000000100FE
:100BF40000000000010000000100000000000100EE
:100C040000000000010000000100000001000000DD
:100C140001000000000001000000010000000100CC
:100C240000000000010000000100000001000000BD
:100C340001000000010000000100000001000000AC
:100C4400010000000100010000000100000001009B
:100C5400000001000100000001000000010000008C
:100C6400010000000100010000000100010000007B
:100C7400010000000100010000000100010000006B
:100C8400010000000100010001000000010001005A
:100C9400000001000100000001000100000001004B
:100CA400010000000100010001000000010001003A
:100CB400010000000100010001000000010001002A
:100CC400010000000100010001000100010000001A
:100CD4000100010001000100000001000100010009
:100CE40001000000010001000100010001000100F9
:100CF40001000000010001000100010001000100E9
:100D040001000000010001000100010001000100D8
:100D140001000100010001000100010001000100C7
:100D240001000000010001000100010001000100B8
:100D340001000100010001000100010001000100A7
:040D440001000100A9
:00000001FF
