:100000000C9436040C945E040C945E040C945E0410
:100010000C945E040C945E040C945E040C945E04D8
:100020000C945E040C945E040C945E040C945E04C8
:100030000C945E040C945E040C945E040C945E04B8
:100040000C946E0A0C945E040C94DE0A0C94B80AAC
:100050000C945E040C945E040C945E040C945E0498
:100060000C945E040C945E040C9400000C9400004C
:100070000C9400000C94000001000001000001003D
:10008000000100000100000100000100000100006B
:10009000010000010000010000010000010000015A
:1000A000000001000001000001000001000001004B
:1000B000000100000100000100000100000000003C
:1000C0000100010001000100010001000100010028
:1000D000010001000100010001000000000000001B
:1000E0000100010001000100010001000100010008
:1000F00001000100010001000100000000010000FA
:1001000001000100000101000000000100000101E8
:1001100000000101000001010000010100000001D8
:1001200000010001000100010001000100010001C7
:1001300000000101000001010000010100000001B8
:1001400000000100000100000100000100000100AA
:100150000100000101000001000001000001000099
:10016000010000010000010000010000010000008A
:100170000000010001000100010001000100010078
:100180000000010001000100010001000100010068
:100190000100010001000100010001000100010057
:1001A0000000010001000100010001000100010048
:1001B00000007C847C70FEFE7C847C70FEFE98FED9
:1001C000988CFEFE90FE907CFEFE84FE84908C84D3
:1001D0007C847C70FEFE84FE84908C847C847C70A5
:1001E000FEFE98FE98A4988C90FEFEA0FEFE907CE9
:1001F000707C746860FEFEFE0000908C847C847CC1
:10020000747074706870746870FE7C847C74707430
:10021000706860FEFE0000000000908C847C847C8E
:10022000747074706870746870FE7C847C74707410
:10023000706860FEFE00607474747CFE8484847C4C
:10024000848C90FEFE90848C7C607474747CFE843C
:1002500084847C848C90FEFE00909084848C8C7CC2
:100260007C909084848C8C7C00607474747CFE849C
:1002700084847C848C90FEFE004C606068605C54DA
:10028000545468687068605C4C4C7070747068603E
:10029000544C4C54685C60FE00607C7C7C74FE7442
:1002A00070707068FE687068604C545C60FEFE00A0
:1002B000007070700070707000707C606870FEFE7E
:1002C0000074747474747070707068687068FE7C08
:1002D000007070700070707000707C606870FEFE5E
:1002E0000074747474747070707C7C746860FEFE4A
:1002F000002D2D2D2D2D2D2D2D2D2D2D2D2D2D2D5B
:100300002D2D2D2D2D2D2D2D2D2D2D2D2D2D2D2D1D
:100310002D2D2D2D2D2D2D2D2D007800313A312014
:1003200000737472657463682000636F6D7072652A
:100330007373200043204D616A6F720046204D6147
:100340006A6F72002020526174696F3A2020202069
:100350002020002073746570730020204772696448
:100360003A20202020202020002020536F6E67207C
:1003700073746570733A200020487A290020505029
:100380004D2028002020436C6F636B3A20202020F2
:100390002020002042504D00202054656D706F3A9F
:1003A00020202020202000202054696D65205369E2
:1003B000673A2020200020205363616C653A20209A
:1003C000202020200020204B65793A20202020206A
:1003D000202020002D2D2D2D2D2D2D2D2D2D2D2DA1
:1003E0002D2D2D2D2D2D2D2D2D2D2D2D2D2D2D2D3D
:1003F0002D2D2D2D2D2D2D2D2D2D2D2D003A200087
:10040000536F6E672023002D2D2D2D2D2D2D2D2D7D
:100410002D2D2D2D2D2D2D2D2D2D2D2D2D2D2D2D0C
:100420002D2D2D2D2D2D2D2D2D2D2D2D2D2D2D0029
:100430002A204D75746174696F6E732072657365DF
:100440007420746F206F726967696E616C206D65CE
:100450006C6F6479002066726F6D20454550524F75
:100460004D004C6F6164656420736F6E67202300DC
:10047000454550524F4D206E6F7420696E69746906
:10048000616C697A65642C207573696E6720646598
:100490006661756C7420736F6E6700526561647974
:1004A000212057616974696E6720666F7220636CE2
:1004B0006F636B2E2E2E002020413120203D2050D6
:1004C00069746368204F666673657400202041304C
:1004D00020203D2047726964204C656E6774680077
:1004E0002020443420203D20536F6E6720427574D5
:1004F000746F6E002020443320203D204C45440082
:100500002020443131203D2042656C6C204F7574B1
:10051000002020443130203D20506974636820431E
:1005200056202850574D29205B5357415050454481
:100530005D002020443920203D2047617465204F14
:100540007574205B535741505045445D0020204452
:100550003137203D20436C6F636B20496E0048614A
:100560007264776172652070696E733A003D3D3D3B
:100570003D3D3D3D3D3D3D3D3D3D3D3D3D3D3D3DAB
:100580003D3D3D3D3D3D3D3D3D3D3D3D3D3D3D3D9B
:100590003D3D3D3D3D0020204665737469766520F4
:1005A0004669726D7761726520666F7220484147B7
:1005B00049574F204D4F4431002020584D41532082
:1005C00053455155454E434552202D204D6F64757E
:1005D0006C6F76652032303234003D3D3D3D3D3D0F
:1005E0003D3D3D3D3D3D3D3D3D3D3D3D3D3D3D3D3B
:1005F0003D3D3D3D3D3D3D3D3D3D3D3D3D3D3D3D2B
:100600003D3D0020746F20454550524F4D005361D1
:1006100076656420736F6E672023003E3E20534F43
:100620004E47204348414E474544203C3C004254FD
:100630004E3A2073686F7274207072657373202D48
:10064000206E65787420736F6E670042544E3A20B6
:1006500072656C65617365640042544E3A206C6F3C
:100660006E67207072657373202D207265736574D8
:10067000206D75746174696F6E730042544E3A2038
:10068000707265737365640000000000230026002B
:1006900029002C00303840444C545C606870747CF5
:1006A000848C9098A0A4AC444C5458606870747CBE
:1006B00084889098A0A4AC00000100003A206669EC
:1006C000667468207570202D3E2050574D3D0020E7
:1006D0002020204772696420003A202D3E20524598
:1006E000535400202020204772696420003A206F74
:1006F000637461766520646F776E202D3E205057BD
:100700004D3D00202020204772696420003A206F70
:100710006374617665207570202D3E2050574D3DE5
:1007200000202020204772696420003A20737465FD
:100730007020646F776E202D3E2050574D3D002075
:100740002020204772696420003A2073746570206D
:100750007570202D3E2050574D3D00202020204711
:10076000726964200020616C7265616479206D7526
:1007700074617465645D002073746570287329204A
:100780005B0020207E204D75746174696E672000C7
:10079000207374657073206D7574617465645D0099
:1007A0002020205B002073746570730020737465D3
:1007B0007073207C20536F6E673A2000207C2047A6
:1007C0007269643A20003E3E204C6F6F7020230017
:1007D00072013F01FC00C0007800B10279023602CC
:1007E000FA01B2014030403C4820737465707300D8
:1007F0003E3E2047726964206368616E67656420CD
:10080000746F200000000000240027002A002D0043
:1008100000000000250028002B002E000404040422
:10082000040404040202020202020303030303039A
:100830000505050505050503010204081020408093
:10084000010204081020010204081020020801041B
:10085000104020400000000850020100000304077F
:1008600000000000000000000000100B11241FBE5B
:10087000CFEFD8E0DEBFCDBF11E0A0E0B1E0ECE407
:10088000F9E202C005900D92AE3AB107D9F722E025
:10089000AEEAB1E001C01D92A63EB207E1F714E056
:1008A000C6E3D4E004C02197FE010E949E14C53324
:1008B000D107C9F70E94430B0C94A4140C940000B8
:1008C00081508B3088F5E82FF0E0E759FB4F0C940E
:1008D0009E147E04820474047A04940494048504AF
:1008E0008B048F0495049904809180008F77809306
:1008F00080000895809180008F7DF9CF84B58F7737
:1009000084BD089584B58F7DFBCF8091B0008F7733
:100910008093B00008958091B0008F7DF9CF8091D1
:1009200090008F77809390000895809190008F7D44
:10093000F9CF80919000877FF5CF1F93CF93DF93FE
:10094000282F30E0F901EC5AF74F8491F901E85C67
:10095000F74FD491F901E45EF74FC491CC23A9F08D
:10096000162F81110E946004EC2FF0E0EE0FFF1FA4
:10097000E05FF74FA591B4918FB7F894EC91111106
:1009800008C0D095DE23DC938FBFDF91CF911F91FC
:100990000895DE2BF8CFCF93DF93282F30E0F901B5
:1009A000E85CF74F4491245E374FF901249184307D
:1009B00019F483E08093A0002223D1F0822F90E0ED
:1009C000880F991FFC01EC5FF74FA591B491FC01D2
:1009D000E05FF74FC591D49161110DC09FB7F894B6
:1009E0008C91409584238C938881482348839FBFB2
:1009F000DF91CF910895623051F49FB7F8942C9114
:100A0000842F809582238C93E8814E2BEFCF8FB774
:100A1000F894EC914E2B4C938FBFEACFCF93DF939A
:100A2000EC0161E08AE00E94CB04209731F460E0A1
:100A30008AE0DF91CF910C949D04EEE5F8E0E4911B
:100A4000E73009F447C0C0F4E230A9F138F4E130EE
:100A500059F1C038D1055CF361E0EACFE33081F1B0
:100A6000E430B9F780918000806280938000D09359
:100A70008B00C0938A001CC0EA30E1F170F4E830CA
:100A800089F1E93031F7809190008068809390007F
:100A9000D0939900C09398000BC0EB30A9F1E035DA
:100AA000C1F6C093A10004C084B5806884BDC7BDF1
:100AB000DF91CF91089584B5806284BDC8BDF8CF21
:100AC00080918000806880938000D0938900C093DB
:100AD0008800EECF8091B00080688093B000C09312
:100AE000B300E6CF8091B00080628093B000C093E5
:100AF000B400DECF80919000806280939000D0930C
:100B00009B00C0939A00D4CF80919000886080931E
:100B10009000D0939F00C0939E00CACF80917A002E
:100B2000806480937A0080917A0086FDFCCF80916A
:100B300078009091790008950F931F93CF93DF93DE
:100B4000EDEAF0E09081907F90838E5080648093F6
:100B50007C000DE710E0F8018081806280830E94B4
:100B60008E05EC01F80180818F7D80830E948E05C7
:100B70008C0F9D1F9C0136952795892F9927A901D8
:100B8000481B590BCA01DF91CF911F910F91089516
:100B90000E949C05959587959595879508953FB7F3
:100BA000F8948091450290914602A0914702B0913D
:100BB000480226B5A89B05C02F3F19F00196A11D3C
:100BC000B11D3FBFBA2FA92F982F8827BC01CD0197
:100BD000620F711D811D911D42E0660F771F881FF6
:100BE000991F4A95D1F708958F929F92AF92BF9225
:100BF000CF92DF92EF92FF924B015C010E94CF05F2
:100C00006B017C010E94CF056C197D098E099F093B
:100C1000683E734081059105A8F321E0821A91088E
:100C2000A108B10888EEC80E83E0D81EE11CF11CB3
:100C300081149104A104B10429F7FF90EF90DF9093
:100C4000CF90BF90AF909F908F900895AF92BF923A
:100C5000CF92DF92EF92FF920F931F93CF93DF9388
:100C60006C017B018B01040F151FEB015E01AE18B7
:100C7000BF08C017D10759F06991D601ED91FC91D9
:100C80000190F081E02DC6010995892B79F7C50106
:100C9000DF91CF911F910F91FF90EF90DF90CF9058
:100CA000BF90AF900895FC01538D448D252F30E007
:100CB000842F90E0821B930B541710F0CF96089569
:100CC00001970895FC01918D828D981761F0A28D96
:100CD000AE0FBF2FB11D5D968C91928D9F5F9F735C
:100CE000928F90E008958FEF9FEF0895FC01918D12
:100CF000828D981731F0828DE80FF11D858D90E07F
:100D000008958FEF9FEF0895FC01918D228D892F1B
:100D100090E0805C9F4F821B91098F739927089503
:100D200089E492E00E94840621E0892B09F420E006
:100D3000822F089580E090E0892B29F00E94900690
:100D400081110C9400000895FC01A48DA80FB92F07
:100D5000B11DA35ABF4F2C91848D90E001968F73E3
:100D60009927848FA689B7892C93A089B1898C9102
:100D7000837080648C93938D848D981306C0028851
:100D8000F389E02D80818F7D80830895EF92FF921B
:100D90000F931F93CF93DF93EC0181E0888F9B8D9E
:100DA0008C8D98131AC0E889F989808185FF15C058
:100DB0009FB7F894EE89FF896083E889F98980817B
:100DC0008370806480839FBF81E090E0DF91CF914A
:100DD0001F910F91FF90EF900895F62E0B8D10E06C
:100DE0000F5F1F4F0F731127E02E8C8D8E110CC0DB
:100DF0000FB607FCFACFE889F989808185FFF5CF26
:100E0000CE010E94A406F1CFEB8DEC0FFD2FF11D5A
:100E1000E35AFF4FF0829FB7F8940B8FEA89FB8962
:100E200080818062CFCF0F931F93CF93DF938C018C
:100E3000D0E0C0E0F801EC0FFD1F6491662341F0A3
:100E400089E492E00E94C606892B11F02196F2CF28
:100E5000CE01DF91CF911F910F910895CF93DF9332
:100E6000EC01888D8823B9F0AA89BB89E889F989C2
:100E70008C9185FD03C0808186FD0DC00FB607FCF7
:100E8000F7CF8C9185FFF2CF808185FFEDCFCE012A
:100E90000E94A406E9CFDF91CF91089587FD80E0FD
:100EA000282F082E000C330B4217130609F014F4F8
:100EB0008FEF840F680F711D87FD7A95FB01849178
:100EC00008958C3F43E0940750F06CEF73E00E946C
:100ED0007614362F330F330F20E0820F931F06B6A0
:100EE00006FE13C046B743702CEF33E002C0220F5A
:100EF000331F4A95E2F78217930750F481BD92BDE4
:100F0000F89A0000000080B5089530E020E0F3CFAB
:100F100080E00895EF92FF921F93CF93DF93EC014F
:100F2000162F888199810E946107181749F18881DD
:100F300099818C3F23E0920750F06CEF73E00E94A0
:100F40007614F62EFF0CFF0CE12C8E0D9F1D06B6BD
:100F500006FE1DC046B743702CEF33E002C0220FDF
:100F6000331F4A95E2F78217930750F42FB781BDDC
:100F700092BD10BDF89484E08FBB82E08FBB2FBF81
:100F8000CE01DF91CF911F91FF90EF90089530E057
:100F900020E0E9CFFC0101900020E9F73197AF0193
:100FA000481B590BBC0189E492E00C9426068F92F1
:100FB0009F92AF92BF920F931F93CF93DF93CDB7C2
:100FC000DEB7A1970FB6F894DEBF0FBECDBF19A252
:100FD000423008F44AE08E010F5D1F4F842E912CA1
:100FE000B12CA12CA50194010E940912E62FB90190
:100FF000CA01EA30F4F4E05DD801EE938D01232BB1
:10100000242B252B79F790E080E0109719F0CD0183
:101010000E94CA07A1960FB6F894DEBF0FBECDBFDF
:10102000DF91CF911F910F91BF90AF909F908F90C4
:101030000895E95CE1CFCF92DF92EF92FF92CF93D8
:10104000DF936B017C016DE289E492E00E94C606A9
:10105000EC0166277727CB016C197D098E099F0962
:101060004AE00E94D7078C0F9D1FDF91CF91FF9020
:10107000EF90DF90CF900895BC01990F880B990BEA
:1010800097FD0C941B084AE00C94D707682F70E07A
:1010900090E080E04AE00C94D70780E491E00C9463
:1010A000CA07CF93DF930E941307EC010E944D08FB
:1010B0008C0F9D1FDF91CF910895E4EFF1E0A4EB39
:1010C000B1E011921D9282E0E433F807D1F780E39A
:1010D00094E00C945108CF93DF930E944608EC01F2
:1010E0000E944D088C0F9D1FDF91CF9108954F9264
:1010F0005F926F927F928F929F92AF92BF92CF92A8
:10110000DF92EF92FF920F931F93CF936B017C01BD
:10111000742EAC019B010E947114882399F083E422
:1011200091E0CF911F910F91FF90EF90DF90CF90C2
:10113000BF90AF909F908F907F906F905F904F90F7
:101140000C94CA0746015701E894B7F82FEF3FEF18
:101150004FE75FE7C501B4010E94711481110DC012
:101160002FEF3FEF4FE75FE7C501B4010E94A712E1
:1011700018161CF487E491E0D4CF2FEF3FEF4FE730
:101180005FE4C701B6010E94FF1318161CF48BE43C
:1011900091E0C7CF2FEF3FEF4FE75FECC701B601FC
:1011A0000E94A71287FDF3CF20E030E0A901C7011C
:1011B000B6010E94A71210E000E087FF0AC06DE2AE
:1011C00089E492E00E94C6068C01F7FAF094F7F8E1
:1011D000F094C0E060E070E080E09FE37C1641F0B6
:1011E00020E030E040E251E40E94AC12CF5FF6CF45
:1011F000A70196010E943B122B013C010E941E1385
:101200004B015C014AE00E94D7077C01E00EF11E11
:10121000CC23C1F1C501B4010E944D139B01AC0167
:10122000C301B2010E943A124B015C016EE289E4F3
:1012300092E00E94C606E80EF91EC15018F120E0A7
:1012400030E040E251E4C501B4010E9404142B01D6
:101250003C010E941E134B01B12CA12C4AE0C50198
:10126000B4010E94D707E80EF91EC501B4010E941F
:101270004D139B01AC01C301B2010E943A124B0114
:101280005C01DBCFC701CF911F910F91FF90EF90D1
:10129000DF90CF90BF90AF909F908F907F906F9096
:1012A0005F904F900895CF93DF93D0E0C0E0009718
:1012B00019F00E94CA07EC010E944D088C0F9D1F77
:1012C000DF91CF910895CF92DF92EF92FF92CF936B
:1012D000DF9387E094E00E94510880E094E00E9450
:1012E00013078091380290E001960E943C088DEF30
:1012F00093E00E941307E0913802F0E0EE0FFF1F29
:10130000EF5DFE4F808191810E94530984ED93E04F
:101310000E94510885EC93E00E941307E091380287
:10132000F0E0EE0FFF1FE95EFE4F808191810E9489
:10133000530986EB93E00E941307E0913802F0E036
:10134000E954F94FE49184E393E0E13011F48CE344
:1013500093E00E94510887EA93E00E941307E0910E
:101360003802F0E0EE0FFF1FE35FFE4F80819181B6
:101370000E94530988E993E00E941307E091380224
:10138000F0E0E85FFE4F80810E94460883E993E029
:101390000E945108E0913802F0E0E85FFE4F608162
:1013A000C62FD0E0CC0FDD1F84E893E00E94130726
:1013B000BE010D2E000C880B990B4AE00E94D70746
:1013C0008DE793E00E941307BE0190E080E00E9449
:1013D0004D1320E030E040E752E40E94AC1242E0BE
:1013E0000E94770888E793E00E94510889E693E01D
:1013F0000E941307E0913802F0E0EC51F84F84911D
:101400000E946B088AE593E00E9413078091020115
:101410000E94460883E593E00E945108E09138025B
:10142000F0E0EC51F84FC4916091020170E090E05F
:1014300080E00E944D136B017C016C2F70E090E006
:1014400080E00E944D139B01AC01C701B6010E94D0
:10145000AC126B017C0184E493E00E94130720E04E
:1014600030E040E85FE3C701B6010E94A71287FFA2
:1014700019C08AE293E00E94130742E0C701B60157
:101480000E9477088AE193E00E94510881EF92E080
:101490000E945108DF91CF91FF90EF90DF90CF90A5
:1014A0000C944D0820E030E040E85FE3C701B6014E
:1014B0000E94FF1318161CF481E293E0DCCF8CE14C
:1014C00093E0D9CF5C988AE18A95F1F7000000009B
:1014D00089B15C9A8295817090E008951F920F9275
:1014E0000FB60F9211242F933F938F939F93AF9337
:1014F000BF938091410290914202A0914302B0912A
:1015000044023091400223E0230F2D3758F5019615
:10151000A11DB11D2093400280934102909342028D
:10152000A0934302B09344028091450290914602F9
:10153000A0914702B09148020196A11DB11D809370
:10154000450290934602A0934702B0934802BF9190
:10155000AF919F918F913F912F910F900FBE0F9060
:101560001F90189526E8230F0296A11DB11DD2CF1A
:101570001F920F920FB60F9211242F933F934F9308
:101580005F936F937F938F939F93AF93BF93EF93EB
:10159000FF9389E492E00E94A406FF91EF91BF912E
:1015A000AF919F918F917F916F915F914F913F91FB
:1015B0002F910F900FBE0F901F9018951F920F92B2
:1015C0000FB60F9211242F938F939F93EF93FF9356
:1015D000E0915902F0915A028081E0915F02F0910E
:1015E000600282FD1BC09081809162028F5F8F73C9
:1015F00020916302821741F0E0916202F0E0E75B24
:10160000FD4F958F80936202FF91EF919F918F9193
:101610002F910F900FBE0F901F9018958081F4CFDF
:10162000E9E4F2E01382128288EE93E0A0E0B0E0F9
:1016300084839583A683B78382E391E0918380833B
:1016400085EC90E09587848784EC90E09787868787
:1016500080EC90E0918B808B81EC90E0938B828B7F
:1016600082EC90E0958B848B86EC90E0978B868B58
:10167000118E128E138E148E90E896BF8CE486BF66
:1016800096BF86BF0895CF93DF93CDB7DEB762973D
:101690000FB6F894DEBF0FBECDBF8091F20080611F
:1016A0008EBB80E88093F2009EB39093F20080930B
:1016B000610011E0109361009091F2009F799EBB50
:1016C0008093F2009EB39093F2009091F2009B7F82
:1016D0009EBB8093F2009EB39093F20080936100D2
:1016E00010936100789484B5826084BD84B5816074
:1016F00084BD85B5826085BD85B5816085BD8091DD
:101700006E00816080936E00109281008091810054
:10171000826080938100809181008160809381004C
:10172000809180008160809380008091B10084600E
:101730008093B1008091B00081608093B00080916F
:1017400091008260809391008091910081608093EC
:1017500091008091900081608093900080917A0048
:101760008B7F80937A0080917A00826080937A00E8
:1017700080917A00816080937A0080917A008068FD
:1017800080937A001092C100E0915902F0915A02C0
:1017900082E08083E0915502F09156021082E09140
:1017A0005702F091580280E1808310926102E0912B
:1017B0005D02F0915E0286E08083E0915B02F09131
:1017C0005C02808180618083E0915B02F0915C0229
:1017D000808188608083E0915B02F0915C0280816F
:1017E00080688083E0915B02F0915C0280818F7D54
:1017F00080830E944D088AED95E00E94510889EB94
:1018000095E00E94510886E995E00E9451088DE616
:1018100095E00E9451080E944D088EE595E00E94D7
:1018200051088DE495E00E94510882E395E00E9402
:10183000510881E195E00E94510880E095E00E9406
:10184000510884EF94E00E94510880EE94E00E94D9
:1018500051088CEC94E00E94510887EB94E00E94C0
:1018600051080E944D0860E081E10E94CB0461E0D4
:101870008AE00E94CB0461E089E00E94CB0461E031
:101880008BE00E94CB0461E083E00E94CB0462E025
:1018900084E00E94CB0460E08EE00E94CB0460E014
:1018A0008FE00E94CB0481EA809380001093810036
:1018B00080E10E94C8058C0181E10E94C805B80141
:1018C000680F791F072E000C880B990B61157105A5
:1018D0008105910511F00E94CE1181E090E00E94F7
:1018E0006107853A09F071C190E080E00E946107CC
:1018F000182F853078F48093380282E694E00E94B5
:101900001307812F90E001960E943C0885E594E042
:101910000E9451080E945D0890E080E00E940E0540
:1019200060E089E00E949D0460E08BE00E949D04DD
:10193000E0913802F0E0EC51F84FE491E0930101BE
:10194000E0910301F0E0E55DFE4F808180930201AC
:101950000E94620A21E0892B09F420E02093000113
:101960000E946309F4E6EF2EF12C10E000E061E044
:1019700089E00E949D04B801617077278BE00E9486
:101980009D0461E083E00E949D04C7010E940E0552
:101990006CE370E080E090E00E94F40560E089E094
:1019A0000E949D0460E083E00E949D0468E270E074
:1019B00080E090E00E94F4050F5F1F4F23E2E20EEB
:1019C000F11C0430110599F660E08BE00E949D0443
:1019D00090E080E00E940E058BE994E00E9451089F
:1019E0000E944D088FB7F894209041023090420237
:1019F00040904302509044028FBF8EE00E94C80581
:101A0000B0E0A0E0BC01CD01660F771F881F991FD1
:101A10002FEF33E040E050E00E94D711233008F070
:101A200022E080910301281711F120930301E22F96
:101A3000F0E0E55DFE4F10811093020180EF97E02A
:101A40000E941307812F0E94460889EE97E00E94AA
:101A5000510861E083E00E949D0464E170E080E051
:101A600090E00E94F40560E083E00E949D048FE016
:101A70000E94C8059C01A0E3B0E00E942B122FEF4A
:101A800033E040E050E00E94D711BA01A90148516B
:101A900051096109710981E0840F833008F498C00D
:101AA00040933F020E94620A9C01FF24F394892B19
:101AB00009F4F12C90910001232B09F04EC39923D6
:101AC00071F02092AF013092B0014092B10150927A
:101AD000B2011092AE018BE796E00E94510880910E
:101AE000AE01811137C08091AF019091B001A091FA
:101AF000B101B091B201A2019101281B390B4A0B2F
:101B00005B0BDA01C901883E9340A105B10510F1D4
:101B100089E596E00E9451080E945D0881E080936B
:101B2000AE0103E010E061E083E00E949D046EE1FD
:101B300070E080E090E00E94F40560E083E00E94A5
:101B40009D046EE170E080E090E00E94F405015099
:101B5000110949F7F0920001E5E6F8E08491E9E423
:101B6000F8E00491EDE2F8E01491111137C080E043
:101B700080933E0280913D028823D1F0809139020A
:101B800090913A02A0913B02B0913C02A2019101D6
:101B9000281B390B4A0B5B0BDA01C9014E97A105D3
:101BA000B10530F060E08BE00E949D0410923D0290
:101BB00080E090E0892B09F415CF0E9490068823DD
:101BC00009F410CF0E9400000DCF80E794E0A0CE72
:101BD00010923F0267CF1092AE01BCCF81110E94DC
:101BE0006004E12FF0E0EE0FFF1FE857F94FA591D9
:101BF000B4918C91082309F4BACF80913E028111EF
:101C0000B7CF8FB7F89420914102309142024091B2
:101C10004302509144022B873C874D875E878FBFDC
:101C20008091380290E0FC01EC51F84FE491E09390
:101C30000101880F991FFC01E652F84F65907490DE
:101C4000FC01E053F84F45915491588B4F87809198
:101C5000360290913702892B09F0E1C000913402DD
:101C6000109135020F5F1F4F10933502009334021D
:101C700061E083E00E949D0486EC97E00E941307D8
:101C8000B80190E080E04AE00E94D7078CEB97E033
:101C90000E941307809102010E9446088CEA97E097
:101CA0000E941307809101010E94460885EA97E08F
:101CB0000E945108E0913802F0E0E954F94FE491B4
:101CC00020E1C22E37EA832E36E0932EE13031F048
:101CD00083E1C82E94E9892E96E0992E1091020195
:101CE000E4EFF1E080E000E0181739F0803429F0EB
:101CF000919191110F5F8F5FF7CF509101015A873A
:101D00000E947F1124E630E040E050E00E94D711AD
:101D1000DD24D39469317105810591050CF0D12C36
:101D20000E947F1124E630E040E050E00E94D7118D
:101D30006C307105810591050CF4D3940E947F11DC
:101D400024E630E040E050E00E94D7116630710593
:101D5000810591050CF056C0D39482E897E00E946B
:101D600013078D2D0E94460887E797E00E9413070E
:101D7000802F0E94460885E697E00E94510884E182
:101D80008B83A12C212F30E050E040E02C833D8359
:101D90004E835F834C2D50E059874887812F90E018
:101DA0009A8B898B6C812C813D814E815F81232BA5
:101DB000242B252B41F00E947F112C813D814E81E7
:101DC0005F810E94D711B62E3FE3361790F0E62EC2
:101DD000F12CF701EC50FE4F8081882309F46DC08F
:101DE000F701EC54FE4F00810E3F11F0011172C05B
:101DF000AA94A394AD1498F49B8191509B83911164
:101E0000D1CF0DC0D110A9CF80EA97E00E9413076F
:101E1000802F0E94460880E997E00E9451080091B7
:101E20003602109137020230110521F460E083E0A0
:101E30000E949D04E0900201F12C80910101089F15
:101E4000C0011124B7010E947614772700341105D0
:101E500008F02EC1F801EC50FE4F8081882309F470
:101E600027C1F801EC54FE4FD080EF85F889E60FCA
:101E7000F71FE491EE2399F061E08BE00E949D044E
:101E800081E080933D028B859C85AD85BE858093E6
:101E9000390290933A02A0933B02B0933C029EEF2A
:101EA000D9120BC1C8010196B7010E947614909314
:101EB00037028093360281E05BCE4A85649FC00181
:101EC000112469897A890E947614F301E60FF11DC5
:101ED00004918ACF90E080E010E06FEF402F50E057
:101EE000F401E80FF91FE4919A012E1B310937FF25
:101EF00003C0319521953109261710F4182F622F50
:101F000001968C1568F30E947F1128E030E040E0D4
:101F100050E00E94D711633009F47CC038F461307E
:101F200039F1623009F455C0102F93C0653009F4BF
:101F3000A6C008F491C06730B9F784E0810F282F5C
:101F4000082E000C330BE885F9852E173F070CF09F
:101F500050CF4C2DB4010E944E07182F8FEC96E005
:101F60000E9413078B2D0E9446088CEB96E06CC0F4
:101F70000E947F1122E030E040E050E00E94D71143
:101F8000DC01CB010196A11DB11D4C2DB401810FC7
:101F90000E944E07182F081709F42BCF8BE597E006
:101FA0000E9413078B2D0E94460889E497E00E9447
:101FB0001307812F0E946B08112309F41ACFF70130
:101FC000EC54FE4F1083F701EC50FE4F21E02083CC
:101FD00010CF0E947F1122E030E040E050E00E94EC
:101FE000D711DC01CB010196A11DB11D4C2DB4010F
:101FF000181B812F0E944E07182F081709F4F9CEDD
:102000008FE397E00E9413078B2D0E9446088BE216
:1020100097E0CDCF87E0810F282F082E000C330BDF
:10202000A885B9852A173B070CF0E3CE4C2DB401E7
:102030000E944E07182F81E297E00E9413078B2D14
:102040000E9446088DE097E00E941307812F0E94AE
:102050006B080113B1CFCDCE89EF810F87FDC9CEBB
:102060004C2DB4010E944E07182F83E097E00E9488
:1020700013078B2D0E9446088DEE96E0E5CF0E9457
:102080007F1125E030E040E050E00E94D711672B3F
:10209000682B692B09F0ADCE83EE96E00E94130702
:1020A0008B2D0E94460889ED96E00E945108A1CE32
:1020B000F301E60FF71FD490D8CED11007C060E02F
:1020C00089E00E949D041092B301ECCE8091B3018F
:1020D000882349F060E089E00E949D04AAEAB9E201
:1020E0001197F1F7000020913F028D2D90E0820FB3
:1020F000911D27FD9A958B3F910514F08AEF90E092
:102100008431910514F484E190E00E940E05EAE226
:10211000F4E03197F1F7000061E089E00E949D044E
:1021200081E08093B3018FB7F894409141025091C0
:10213000420260914302709144028FBF64E170E0FB
:1021400080E090E00E94F405809136029091370281
:1021500001966091020170E0A8CE9111FBCC8BE456
:1021600096E00E9451088091AE01811134CD80919A
:10217000AF019091B001A091B101B091B201A20163
:102180009101281B390B4A0B5B0BDA01C901C2977D
:10219000A105B10508F41FCD8EE296E00E9451081A
:1021A0008091380290E0019665E070E00E948A1408
:1021B0008093380210923702109236021092350244
:1021C000109234028C51984FFC018491809301014C
:1021D0000E945D08109138021A821982612FCE0187
:1021E00001960E948A0721E030E03A83298365EA5C
:1021F000CE0101960E948A078EE096E00E941307A6
:10220000612F70E06F5F7F4F072E000C880B990BDA
:102210004AE00E94D70783E096E00E9451080E949E
:102220004D088BE196E00E9451080E94630910E07E
:1022300080913802811708F4CECC61E083E00E94DF
:102240009D0464E670E080E090E00E94F40560E0A8
:1022500083E00E949D0464E670E080E090E00E94CC
:10226000F4051F5FE5CF8F929F92AF92BF92CF92FE
:10227000DF92EF92FF92CF93DF93EC016881798137
:102280008A819B81611571058105910521F464E2C4
:1022900079ED8BE597E02DE133EF41E050E00E94CE
:1022A000D71149015A019B01AC01A7EAB1E40E9490
:1022B000F6116B017C01ACEEB4EFA50194010E9414
:1022C0000412C60ED71EE81EF91EF7FE06C081E0F6
:1022D000C81AD108E10880E8F80AC882D982EA82DF
:1022E000FB82C701B6019F77DF91CF91FF90EF90FE
:1022F000DF90CF90BF90AF909F908F9008958F9276
:102300009F92AF92BF92CF92DF92EF92FF92609135
:1023100004017091050180910601909107016115FA
:1023200071058105910521F464E279ED8BE597E073
:102330002DE133EF41E050E00E94D71149015A01ED
:102340009B01AC01A7EAB1E40E94F6116B017C018C
:10235000ACEEB4EFA50194010E940412C60ED71E84
:10236000E81EF91EF7FE06C081E0C81AD108E10890
:1023700080E8F80AC0920401D0920501E0920601BB
:10238000F0920701C701B6019F77FF90EF90DF90B1
:10239000CF90BF90AF909F908F900895609304016D
:1023A0007093050180930601909307010895052E0F
:1023B00097FB1EF400940E94EE1157FD07D00E9477
:1023C000091207FC03D04EF40C94EE115095409581
:1023D000309521953F4F4F4F5F4F089590958095D1
:1023E000709561957F4F8F4F9F4F08950E942B12DC
:1023F000A59F900DB49F900DA49F800D911D112459
:102400000895B7FF0C94F6110E94F611821B930BEE
:102410000895A1E21A2EAA1BBB1BFD010DC0AA1F25
:10242000BB1FEE1FFF1FA217B307E407F50720F03D
:10243000A21BB30BE40BF50B661F771F881F991FB8
:102440001A9469F760957095809590959B01AC0101
:10245000BD01CF010895A29FB001B39FC001A39F0A
:10246000700D811D1124911DB29F700D811D1124CD
:10247000911D08955058BB27AA270E9452120C9410
:10248000C5130E94B71338F00E94BE1320F039F430
:102490009F3F19F426F40C94B4130EF4E095E7FB77
:1024A0000C94AE13E92F0E94D61358F3BA176207A3
:1024B00073078407950720F079F4A6F50C94F813B8
:1024C0000EF4E0950B2EBA2FA02D0B01B90190014F
:1024D0000C01CA01A0011124FF27591B99F0593F93
:1024E00050F4503E68F11A16F040A22F232F342FDB
:1024F0004427585FF3CF469537952795A795F04029
:102500005395C9F77EF41F16BA0B620B730B840B3D
:10251000BAF09150A1F0FF0FBB1F661F771F881FF5
:10252000C2F70EC0BA0F621F731F841F48F487954D
:1025300077956795B795F7959E3F08F0B0CF93953F
:10254000880F08F09927EE0F9795879508950E94B8
:102550008A1308F481E008950E94C0120C94C513F8
:102560000E94BE1358F00E94B71340F029F45F3F59
:1025700029F00C94AE1351110C94F9130C94B4136C
:102580000E94D61368F39923B1F3552391F3951B59
:10259000550BBB27AA2762177307840738F09F5F84
:1025A0005F4F220F331F441FAA1FA9F335D00E2EF1
:1025B0003AF0E0E832D091505040E695001CCAF75E
:1025C0002BD0FE2F29D0660F771F881FBB1F261721
:1025D00037074807AB07B0E809F0BB0B802DBF01F8
:1025E000FF2793585F4F3AF09E3F510578F00C94C7
:1025F000AE130C94F9135F3FE4F3983ED4F3869541
:1026000077956795B795F7959F5FC9F7880F911DE7
:102610009695879597F90895E1E0660F771F881FD3
:10262000BB1F621773078407BA0720F0621B730B86
:10263000840BBA0BEE1F88F7E09508950E94DE1315
:1026400088F09F5798F0B92F9927B751B0F0E1F073
:10265000660F771F881F991F1AF0BA95C9F714C023
:10266000B13091F00E94F813B1E008950C94F81382
:10267000672F782F8827B85F39F0B93FCCF386955C
:1026800077956795B395D9F73EF4909580957095B9
:1026900061957F4F8F4F9F4F0895E89409C097FB36
:1026A0003EF490958095709561957F4F8F4F9F4F29
:1026B0009923A9F0F92F96E9BB279395F69587956D
:1026C00077956795B795F111F8CFFAF4BB0F11F430
:1026D00060FF1BC06F5F7F4F8F4F9F4F16C08823D7
:1026E00011F096E911C0772321F09EE8872F762F0D
:1026F00005C0662371F096E8862F70E060E02AF04E
:102700009A95660F771F881FDAF7880F9695879539
:1027100097F90895990F0008550FAA0BE0E8FEEF0E
:1027200016161706E807F907C0F012161306E40795
:10273000F50798F0621B730B840B950B39F40A268E
:1027400061F0232B242B252B21F408950A2609F46C
:10275000A140A6958FEF811D811D089597F99F6770
:1027600080E870E060E008959FEF80EC0895002419
:102770000A941616170618060906089500240A94E6
:1027800012161306140605060895092E0394000C6C
:1027900011F4882352F0BB0F40F4BF2B11F460FFFB
:1027A00004C06F5F7F4F8F4F9F4F089557FD905824
:1027B000440F551F59F05F3F71F04795880F97FB05
:1027C000991F61F09F3F79F08795089512161306BF
:1027D0001406551FF2CF4695F1DF08C016161706EE
:1027E0001806991FF1CF8695710561050894089523
:1027F000E894BB2766277727CB0197F908950E94B5
:102800008A1308F48FEF08950E9417140C94C513CF
:102810000E94B71338F00E94BE1320F0952311F0E8
:102820000C94AE130C94B41311240C94F9130E945D
:10283000D61370F3959FC1F3950F50E0551F629F1B
:10284000F001729FBB27F00DB11D639FAA27F00D09
:10285000B11DAA1F649F6627B00DA11D661F829F30
:102860002227B00DA11D621F739FB00DA11D621F15
:10287000839FA00D611D221F749F3327A00D611D32
:10288000231F849F600D211D822F762F6A2F112414
:102890009F5750409AF0F1F088234AF0EE0FFF1F47
:1028A000BB1F661F771F881F91505040A9F79E3F9E
:1028B000510580F00C94AE130C94F9135F3FE4F3D0
:1028C000983ED4F3869577956795B795F795E795F4
:1028D0009F5FC1F7FE2B880F911D9695879597F9FD
:1028E00008950E948A13880B990B0895AA1BBB1B9D
:1028F00051E107C0AA1FBB1FA617B70710F0A61B00
:10290000B70B881F991F5A95A9F780959095BC0120
:10291000CD01089597FB072E16F4009407D077FD9C
:1029200009D00E94761407FC05D03EF4909581955D
:102930009F4F0895709561957F4F0895EE0FFF1F8B
:0C2940000590F491E02D0994F894FFCF6D
:10294C000140400201000000786448783C4F01537C
:10295C000153014F0157015B015B0163015B015B9B
:10296C00016B01780184019101A00110204000004D
:10297C000000C606260653062E0784066206760657
:10298C000D0A006E616E00696E66006F766600342B
:10299C002F3400332F3400362F380043206D616AFA
:1029AC006F720046206D616A6F72004A696E676CC7
:1029BC00652042656C6C73005765205769736820FD
:1029CC00596F75004F2054616E6E656E6261756D46
:1029DC00004465636B207468652048616C6C7300FF
:0E29EC0053696C656E74204E69676874000054
:00000001FF
