:100000000C9462010C947F010C947F010C947F018D
:100010000C947F010C947F010C947F010C944C0B89
:100020000C947F010C947F010C947F010C947F0150
:100030000C947F010C947F010C947F010C947F0140
:100040000C94020B0C947F010C947F010C947F01A3
:100050000C947F010C947F010C947F010C947F0120
:100060000C947F010C947F010C9400000C94000010
:100070000C9400000C94000008000000BE9224497B
:10008000123EABAAAA2ABECDCCCC4C3E00000080CA
:10009000BEABAAAAAA3E00000000BF000000803F3D
:1000A0000000000000084178D3BB4387D1133D19FD
:1000B0000E3CC3BD4282AD2B3E68EC8276BED98F2A
:1000C000E1A93E4C80EFFFBE01C4FF7F3F0000006E
:1000D000000007634236B79BD8A71A39685618AE96
:1000E000BAAB558C1D3CB7CC5763BD6DEDFD753E6D
:1000F000F6177231BF000000803F05A84CCDB2D486
:100100004EB93836A9020C50B9918688083CA6AA87
:10011000AA2ABE000000803FFE04FF02FD04FF0289
:1001200054026002FF0248043C01400143014801BF
:100130003C01400143014F013C01400143014A01A0
:100140003C01400143014C01400240024102430294
:100150004302410240023E023C023C023E02400297
:1001600040033E013E04400143014501470148026E
:10017000470145014302FF01410145014701480193
:100180004A02480147014502FF013E014101430186
:1001900045014702450143014102FF01400143017E
:1001A000450147014804FF02390239013901390389
:1001B0003C03FF0139023901390139033E03FF01D4
:1001C00039023901390139034003FF014104400478
:1001D000FF0240014001FF014001FF013C014001DD
:1001E000FF014302FF023702FF023C02FF01370218
:1001F000FF013402FF013901FF013B01FF013A0118
:100200003901FF0137024302450241014201400228
:100210003C013E013B02FF02400242024302450212
:100220004302420240023E023C023E0240024202BF
:1002300040023E023C02FF0239023C0240023E0202
:100240003C023E024002420240023E023C02FF02E9
:1002500000000000240027002A002D0000000000FC
:10026000250028002B002E0002000000002300269D
:100270000029002C00040404040404040402020203
:100280000202020303030303030505050505050533
:10029000030102040810204080010204081020011C
:1002A0000204081020020801041040204000000051
:1002B00008500201000003040700000000000000D5
:1002C0000000000011241FBECFEFD8E0DEBFCDBF7D
:1002D00011E0A0E0B1E0E8E1FCE202C005900D927F
:1002E000A631B107D9F721E0A6E1B1E001C01D9226
:1002F000A03BB207E1F70E94A80B0C940A160C94DD
:10030000000081508B3088F5E82FF0E0E657FE4F73
:100310000C94FD159F01A30195019B01B501B50149
:10032000A601AC01B001B601BA01809180008F77BF
:10033000809380000895809180008F7DF9CF84B5EF
:100340008F7784BD089584B58F7DFBCF8091B000F9
:100350008F778093B00008958091B0008F7DF9CFA2
:10036000809190008F778093900008958091900005
:100370008F7DF9CF80919000877FF5CFCF93DF936A
:10038000EEEBF2E08491E2EAF2E0D491E6E8F2E00A
:10039000C491CC23A1F081110E948101EC2FF0E0E7
:1003A000EE0FFF1FE759FD4FA591B491EC91ED239E
:1003B00081E090E009F480E0DF91CF91089580E042
:1003C00090E0FACF1F93CF93DF93282F30E0F9010D
:1003D000E355FD4F8491F901EF56FD4FD491F9019A
:1003E000EB58FD4FC491CC23A9F0162F81110E9428
:1003F0008101EC2FF0E0EE0FFF1FE45AFD4FA591B5
:10040000B4918FB7F894EC91111108C0D095DE2308
:10041000DC938FBFDF91CF911F910895DE2BF8CF32
:10042000CF93DF93282F30E0F901EF56FD4F449131
:100430002B583D4FF9012491843019F483E08093C7
:10044000A0002223D1F0822F90E0880F991FFC0199
:10045000E05BFD4FA591B491FC01E45AFD4FC591BD
:10046000D49161110DC09FB7F8948C91409584236D
:100470008C938881482348839FBFDF91CF91089553
:10048000623051F49FB7F8942C91842F8095822389
:100490008C93E8814E2BEFCF8FB7F894EC914E2BD5
:1004A0004C938FBFEACF8F929F92AF92BF92CF9221
:1004B000DF92EF92FF92CF936C01809109018B3014
:1004C00069F08F3F09F470C0CF91FF90EF90DF90FB
:1004D000CF90BF90AF909F908F900895E8E6F2E0A4
:1004E000C491C7FDF1CF61E08BE00E941002CC23E4
:1004F00019F0C23009F043C1F12CE12C60E072E147
:100500008AE790E0A70196010E94281149015A014B
:10051000DA01C9010197A109B1098F3F9105A10530
:10052000B10509F00CF40FC160E472E48FE090E0D3
:10053000A70196010E942811215031094109510952
:10054000C23009F0C1C082E02F3F3105410551059D
:1005500009F00CF4CBC160E970ED83E090E0A701F5
:1005600096010E942811215031094109510983E067
:100570002F3F31054105510509F00CF4B7C168E47E
:1005800078EE81E090E0A70196010E9428112150A9
:100590003109410951092F3F31054105510511F03C
:1005A0000CF0B0C084E0A2C18BE080930901E8E6C2
:1005B000F2E0C491CF3F09F487CFC13039F168F040
:1005C000C23009F441C0C33009F460C0C7FD7CCF1C
:1005D00061E08BE00E9410028CCF14BC15BC84B586
:1005E000826084BD85B5816085BDE0E8F2E0E4917C
:1005F000F0E0EE0FFF1FE45AFD4F85919491ECE976
:10060000F2E0E491E0939F01C0E06DCF1092800092
:100610001092810080918100886080938100809198
:100620008100816080938100E0E8F2E0E491F0E0F5
:10063000EE0FFF1FE45AFD4F85919491ECE9F2E033
:10064000E491E0939E014FCF1092B0001092B10060
:100650008091B00082608093B0008091B100816091
:100660008093B100E0E8F2E0E491F0E0EE0FFF1FCC
:10067000E45AFD4F8591949190939D0180939C0144
:10068000ECE9F2E0E491E0939B012DCF1092900011
:1006900010929100809191008860809391008091E8
:1006A0009100816080939100E0E8F2E0E491F0E055
:1006B000EE0FFF1FE45AFD4F85919491ECE9F2E0B3
:1006C000E491E0939A010FCF2F3F31054105510589
:1006D00009F00CF452C068E478EE81E090E0A701E4
:1006E00096010E9428112150310941095109CC235A
:1006F00009F4D1C02F3F31054105510511F00CF02F
:10070000D2C050CF64E274EF80E090E0A701960180
:100710000E942811215031094109510985E02F3FDC
:1007200031054105510509F008F4E0C062E17AE7BE
:1007300080E090E0A70196010E9428112150310924
:1007400041095109BEC09C0181E0C111CFC095B5DE
:10075000987F892B85BD27BD8FEF9FEFDC018093AC
:10076000AC019093AD01A093AE01B093AF01809125
:100770006E00826080936E00A7CE82E0E6CFF12CFF
:10078000E12C60E072E18AE790E0A70196010E9407
:100790002811215031094109510991E021153105F4
:1007A00081E0480751056CF068E478EE81E090E064
:1007B000A70196010E9428112150310941095109D0
:1007C00093E0C130D9F480918100887F892B809398
:1007D000810030938900209388008FEF9FEFDC0128
:1007E0008093A8019093A901A093AA01B093AB01B3
:1007F00080916F00826080936F0066CEC33009F0F5
:100800007BC080919100887F892B809391003093E9
:100810009900209398008FEF9FEFDC018093A00157
:100820009093A101A093A201B093A30180917100C4
:1008300082608093710048CEC23019F0C33039F322
:1008400043CE2093B3008FEF9FEFDC018093A40190
:100850009093A501A093A601B093A7018091700089
:1008600082608093700030CE84E02F3F31054105D7
:10087000510509F008F46BCF8AE0B594A7949794DA
:1008800087948A95D1F7A501940121503109410936
:10089000510985E05CCF83E02F3F310541055105CB
:1008A00009F00CF454CF62E17AE780E090E0A70110
:1008B00096010E9428112150310941095109CC2388
:1008C00099F286E02F3F31054105510579F070F02E
:1008D0009AE0B594A794979487949A95D1F7A50137
:1008E0009401215031094109510987E09091B100EB
:1008F000987F892B8093B100C13009F46ACF0CF046
:100900009BCFC111E1CD27CF80917A008064809385
:100910007A0080917A0086FDFCCF809178009091DA
:10092000790008950F931F93CF93DF93EDEAF0E0E2
:100930009081907F90838E50806480937C000DE73F
:1009400010E0F8018081806280830E948404EC01C1
:10095000F80180818F7D80830E9484048C0F9D1F0D
:100960009C0136952795892F9927A901481B590B7A
:10097000CA01DF91CF911F910F9108950E949204B7
:10098000959587959595879508952FB7F8946091DB
:1009900096017091970180919801909199012FBFD4
:1009A00008959091090189130DC0E8E6F2E0E49101
:1009B0009FEF90930901E13059F038F0E23071F087
:1009C000E330E9F060E00C94E20110926E00FACF9F
:1009D00090916F009D7F90936F00F4CF9091700085
:1009E0009D7F9093700091E09093B0009091B10042
:1009F000987F94609093B1001092B300E3CF9091F0
:100A000071009D7F90937100DDCF8093540110920F
:100A100044010E94C504609346017093470180938E
:100A20004801909349011092450160E083E00C94E5
:100A3000E20180915A0190915B0160E0892B71F491
:100A400081E10E94100210928E0110924A011092D0
:100A50004B0110924C0110924D01089581E10C94CC
:100A60001002CF92DF92EF92FF92C0907001D0906F
:100A70007101E0907201F090730120E030E040E8F5
:100A80005FE3C701B6010E945013181634F0C12C61
:100A9000D12C80E8E82E8FE3F82EA701960160E0C4
:100AA00070E68AE697E40E94FD1120E030E040E81D
:100AB0005EE30E94D8130E946F1270930701609347
:100AC0000601FF90EF90DF90CF900895CF92DF92D4
:100AD000EF92FF92CF93DF930E94C504C09016015E
:100AE000D0901701E0901801F09019019B01AC0122
:100AF0002C193D094E095F0969017A013AE0C316D4
:100B0000D104E104F10408F4C3C0609316017093AA
:100B1000170180931801909319018EE00E94BE0482
:100B2000BC01990F880B990B0E94A01220E030ECB9
:100B30004FE754E40E94FD11609386017093870192
:100B4000809388019093890120918F0130919001C9
:100B50002115310509F4A3C02530310508F0B4C0D2
:100B60008FE00E94BE04EC0182E10E94BE048C0F63
:100B70009D1F811544E0940714F08FEF93E0DC0192
:100B800097FF02C0B0E0A0E020E330E00E9403162F
:100B90002FEF33E040E050E00E9428112851310946
:100BA00041095109309375012093740180E10E943D
:100BB000BE04EC0183E10E94BE04BE01680F791FF0
:100BC00077FD8FC0611554E075070CF08DC0613062
:100BD00082E078070CF08AC0072E000C880B990B76
:100BE0000E94A01220E030E040E05BE30E94D813B6
:100BF0006B017C012FE632E143E05BE30E94D813F6
:100C000060937601709377018093780190937901D6
:100C100020E030E040E450E4C701B6010E94D81360
:100C200020E030E040E450E40E948C1160937A01AF
:100C300070937B0180937C0190937D01A7019601C5
:100C400060E070E080E89FE30E948B116B017C0103
:100C500020E030E046E153E40E94D81360937E0127
:100C600070937F01809380019093810120E030E0B8
:100C700048E452E4C701B6010E94D8130E946F12E3
:100C80006093820170938301809384019093850126
:100C9000DF91CF91FF90EF90DF90CF90089520E00B
:100CA00030E044E353E40E94D81320E030E040E712
:100CB00052E40E948C1160937001709371018093D3
:100CC0007201909373014CCF80E090E0A0EFB2E40A
:100CD0008093700190937101A0937201B09373019E
:100CE0003FCF70E060E078CF6FEF73E07250072E77
:100CF000000C880B990B0E94A01220E030E84FEF07
:100D000053E40E94FD116B017C012CEB34E743E9B5
:100D10005CE30E94D8132FE632E143E05BE30E94DC
:100D20008C11609376017093770180937801909392
:100D3000790120E030E040EC50E4C701B6010E94A8
:100D4000D81320E030E040EC50E40E948C11609316
:100D50007A0170937B0180937C0190937D011092C6
:100D60007E0110927F0110928001109281011092F9
:100D7000820110928301109284011092850188CF24
:100D8000CF92DF92EF92FF920F931F93CF9320E0C9
:100D900030E040EC51E46091260170912701809190
:100DA0002801909129010E948B1120E030E040E45D
:100DB00051E40E94FD116B017C0120E030E0A901AB
:100DC0000E94F81187FD3CC020E030E040EA50E48A
:100DD000C701B6010E945013181634F4C12CD12C4F
:100DE00080EAE82E80E4F82E20E030E04FE753E47C
:100DF000C701B6010E94D81320E030E040EA50E479
:100E00000E94FD110E946F12C62F80912A018C173B
:100E100079F00C2F10E061E08AE00E9410020115C9
:100E2000110591F460E08AE00E94E201C0932A017A
:100E3000CF911F910F91FF90EF90DF90CF90089589
:100E4000C12CD12C7601D0CF0F3F110511F461E0F8
:100E5000EACFE7EBF2E0E491E73009F444C0B8F4FC
:100E6000E23091F130F4E13051F1003811057CF7B6
:100E7000D9CFE33071F1E430C1F780918000806216
:100E80008093800010938B0000938A00CFCFEA30CC
:100E9000D1F170F4E83079F1E93039F780919000C0
:100EA0008068809390001093990000939800BECFC3
:100EB000EB3099F1E035C9F6C093A100B7CF84B506
:100EC000806884BDC7BDB2CF84B5806284BDC8BD13
:100ED000ADCF80918000806880938000109389005E
:100EE00000938800A3CF8091B00080688093B00009
:100EF000C093B3009BCF8091B00080628093B0001C
:100F0000C093B40093CF8091900080628093900052
:100F100010939B0000939A0089CF80919000886085
:100F20008093900010939F0000939E007FCF8BE0F2
:100F30000E94D10461E08AE00E94100260E08AE031
:100F40000E94E20110922A011092260110922701BC
:100F5000109228011092290180E090E0A0E8BFEBF8
:100F60008093000190930101A0930201B0930301CB
:100F700008954F925F926F927F928F929F92AF925D
:100F8000BF92CF92DF92EF92FF92CF93DF9300D088
:100F900000D0CDB7DEB76B017C0120E030E04CED36
:100FA00053E40E94FD110E945D1328E132E741E302
:100FB0005FE30E94FD1120E030E040E451E40E9434
:100FC000D81320E030E04AE852E40E948C1160938C
:100FD0002601709327018093280190932901809125
:100FE0008F01909190018330910509F4B6C084304F
:100FF000910509F4C3C1029709F03FC180908601B1
:1010000090908701A0908801B09089010E94C5044A
:101010002B013C018091330190913401A091350165
:10102000B0913601A3019201281B390B4A0B5B0BCF
:10103000CA01B9010E949E1220E030E04AE754E460
:101040000E94FD1169837A838B839C8340923301D4
:1010500050923401609235017092360120E030E008
:1010600040E252E4C501B4010E94D81320E030E010
:1010700040E051E40E948C112BED3FE049EC50E43C
:101080000E94D81329813A814B815C810E94D81338
:1010900020911A0130911B0140911C0150911D01BA
:1010A0000E948C112B013C012BED3FE049EC50E4F8
:1010B0000E9450131816DCF140921A0150921B0145
:1010C00060921C0170921D0160911A0170911B01C8
:1010D00080911C0190911D010E9495142B013C01EF
:1010E000A5019401C501B4010E948C1120E030E0FB
:1010F00040E85FE30E948B119B01AC01C301B20188
:101100000E945013181624F160E070E080E89FEB15
:101110002AE037ED43E25CE30E94D813A501940175
:101120000E94D81320E030E040E85FE39CC02BED44
:101130003FE049EC50E4C301B2010E948B1160937F
:101140001A0170931B0180931C0190931D01BCCF69
:1011500060E070E080E89FE3DBCF809086019090B4
:101160008701A0908801B09089010E94C504409039
:101170002F015090300160903101709032019B013D
:10118000AC01241935094609570929013A0133E30D
:10119000431651046104710408F459C060932F018F
:1011A0007093300180933101909332010E94C710F7
:1011B00028EC30E040E050E00E94281164567109AC
:1011C000810991090E94A01220E030E44CE156E42C
:1011D0000E94FD11A50194010E94D81320911E01C7
:1011E00030911F0140912001509121010E948C11EA
:1011F0004B015C012AE037ED43EA5CE30E945013A7
:1012000018160CF4AEC080921E0190921F01A0929D
:101210002001B09221012AE037ED43EA5CEB6091B6
:101220001E0170911F0180912001909121010E9467
:10123000F81187FF0CC08AE097EDA3EABCEB80931E
:101240001E0190931F01A0932001B093210120E083
:1012500030E040E85FE360911E0170911F018091D2
:101260002001909121010E948C119B01AC01C701CA
:10127000B6010E94D8136B017C0120E030E048EFFA
:1012800051E4C701B6010E94F81187FD0BC120E0AF
:101290003FEF4FE757E4C701B6010E9450131816FD
:1012A0003CF4C12CDD24DA942FE7E22E27E4F22E61
:1012B0000E94C5048090600190906101A09062013D
:1012C000B090630181149104A104B10409F4F9C040
:1012D00040906401509065016090660170906701D4
:1012E0009B01AC01241935094609570929013A0126
:1012F000481459046A047B0408F0DBC0C0906801FC
:10130000D0906901E0906A01F0906B0120E030E03C
:1013100048EF51E4C701B6010E94F81187FF06C0EB
:10132000C12CD12C88EFE82E81E4F82EC701B6013C
:101330000E946F12CB010E9453020F900F900F90EA
:101340000F90DF91CF91FF90EF90DF90CF90BF9003
:10135000AF909F908F907F906F905F904F900C9484
:10136000C0068AE097EDA3EABCE380931E01909348
:101370001F01A0932001B09321014DCF80908601E1
:1013800090908701A0908801B09089010E94C504C7
:101390002B013C0180912B0190912C01A0912D01FA
:1013A000B0912E01A3019201281B390B4A0B5B0B54
:1013B000CA01B9010E949E1220E030E04AE754E4DD
:1013C0000E94FD1169837A838B839C8340922B0159
:1013D00050922C0160922D0170922E01A501940172
:1013E000C501B4010E948C112DEC3CEC4CE45EE391
:1013F0000E948C112BED3FE049EC50E40E94D81381
:1014000029813A814B815C810E94D813209122016D
:101410003091230140912401509125010E948C11AB
:101420002B013C012BED3FE049EC50E40E945013AE
:1014300018163CF14092220150922301609224013F
:101440007092250160912201709123018091240105
:10145000909125010E94951420E030E040E05FE388
:101460000E94D81320E030E040E05FE30E948C113E
:10147000A50194010E94D8132AE939E949E95EE3FC
:101480004FCE2BED3FE049EC50E4C301B2010E9486
:101490008B11609322017093230180932401909318
:1014A0002501D0CFC12CD12C98EFE92E91E4F92E53
:1014B000FFCE609364017093650180936601909301
:1014C000670180905C0190905D01A0905E01B090FA
:1014D0005F0120E030E0A901C501B4010E94501372
:1014E0001816CCF420E030E0A901C501B4010E9437
:1014F000F811181684F4A5019401C701B6010E94E1
:10150000FD110E94A5130E94A012A50194010E9442
:10151000D8136B017C01C0926801D0926901E092FE
:101520006A01F0926B01209100013091010140911C
:10153000020150910301C701B6010E948B119F77F0
:1015400020E030E040E85EE30E94501318160CF0F3
:10155000F4CEC0920001D0920101E0920201F0921B
:101560000301E4CEFC014617570760F4C901BF012F
:10157000440F551F640F751F42E050E00E941F1179
:1015800081E0089580E008959C01E0915A01F09176
:101590005B013197E730F10598F5EB52F54F40913B
:1015A0005201509153010C94FD15DC0AE20AE70A3E
:1015B000EC0AF10AF60AFB0A6CE170E088E192E0BD
:1015C0000C94B20A63E270E082ED91E0F9CF65E13C
:1015D00070E088EA91E0F4CF61E270E086E691E0A5
:1015E000EFCF6FE070E088E491E0EACF60E170E077
:1015F00088E291E0E5CF68E070E088E191E0E0CF3B
:1016000080E008951F920F920FB60F9211242F932E
:101610003F938F939F93AF93BF9380919601909147
:101620009701A0919801B09199013091950123E023
:10163000230F2D3758F50196A11DB11D209395015B
:101640008093960190939701A0939801B09399018C
:101650008091910190919201A0919301B091940198
:101660000196A11DB11D8093910190939201A093C9
:101670009301B0939401BF91AF919F918F913F914E
:101680002F910F900FBE0F901F90189526E8230FF3
:101690000296A11DB11DD2CF1F920F920FB60F92CD
:1016A00011242F933F934F935F936F937F938F9367
:1016B0009F93AF93BF93EF93FF938091A401909179
:1016C000A501A091A601B091A701892B8A2B8B2B94
:1016D000D1F190919B01E0919C01F0919D0180815D
:1016E000892780838091A4019091A501A091A601F2
:1016F000B091A701181619061A061B069CF48091D2
:10170000A4019091A501A091A601B091A701019714
:10171000A109B1098093A4019093A501A093A6010A
:10172000B093A701FF91EF91BF91AF919F918F91DE
:101730007F916F915F914F913F912F910F900FBECD
:101740000F901F901895809109010E94D104EACF53
:10175000CF93DF93CDB7DEB72B970FB6F894DEBFEC
:101760000FBECDBF8091F20080618EBB80E8809378
:10177000F2009EB39093F2008093610021E02093E9
:1017800061009091F2009F799EBB8093F2009EB31E
:101790009093F2009091F2009B7F9EBB8093F200A9
:1017A0009EB39093F200809361002093610078943F
:1017B00084B5826084BD84B5816084BD85B5826056
:1017C00085BD85B5816085BD80916E008160809307
:1017D0006E00109281008091810082608093810070
:1017E0008091810081608093810080918000816080
:1017F000809380008091B10084608093B1008091DB
:10180000B00081608093B0008091910082608093ED
:10181000910080919100816080939100809190006F
:1018200081608093900080917A008B7F80937A0012
:1018300080917A00826080937A0080917A00816042
:1018400080937A0080917A00806880937A00109269
:10185000C10061E08BE00E94100261E08AE00E941A
:10186000100262E084E00E94100261E083E00E94C6
:10187000100260E083E00E94E20182E28093800037
:1018800089E1809381008FEF90E0909387008093AF
:10189000860010928B0010928A0084E10E94BE04A0
:1018A000BC01990F880B990B611571058105910594
:1018B00011F00E9416110E9419050E94C504609340
:1018C0008A0170938B0180938C0190938D010E940B
:1018D000C504609333017093340180933501909374
:1018E00036010E94C50460932F01709330018093EC
:1018F0003101909332010E94C50460932B017093D3
:101900002C0180932D0190932E010E9466050E9468
:1019100031051092530110925201109255010E940C
:10192000BE018093050110924A0110924B01109262
:101930004C0110924D0110928E0198E0292E312C0D
:1019400005E010E00E94C5046B017C015C982AE16F
:101950002A95F1F70000000099B15C9A81E0292FE7
:10196000207194FF80E090910401891751F0C0929A
:101970004001D0924101E0924201F09243018093F4
:1019800004018091400190914101A0914201B091E8
:101990004301B701A601481B590B6A0B7B0BDB0106
:1019A000CA014F97A105B10588F080913F0121112F
:1019B00072C381110BC051E050933F01C0923B01B3
:1019C000D0923C01E0923D01F0923E01F090540132
:1019D000FF20C9F10E94C504809046019090470104
:1019E000A0904801B09049019B01AC012819390928
:1019F0004A095B0949015A0138E783169104A10499
:101A0000B10408F160934601709347018093480147
:101A100090934901E090450141E0E426E0924501C0
:101A20006E2D83E00E94E201E1100DC0809144011F
:101A30008F5F809344018F1530F01092540160E065
:101A400083E00E94E2010E94660580908F019090E1
:101A500090019C828B82892819F080918E018111DE
:101A60000E9431050E94C5042B013C0180918A012E
:101A700090918B01A0918C01B0918D01A3019201F5
:101A8000281B390B4A0B5B0BCA01B9010E949E123D
:101A900020E030E04AE754E40E94FD116B017C0134
:101AA00040928A0150928B0160928C0170928D015C
:101AB0002BED3FE049EC50E460917A0170917B019D
:101AC00080917C0190917D010E94D813A70196011D
:101AD0000E94D81320916C0130916D0140916E01EC
:101AE00050916F010E948C116B017C012BED3FE046
:101AF00049EC50E40E94501318160CF419C1C0921E
:101B00006C01D0926D01E0926E01F0926F016091D4
:101B10006C0170916D0180916E0190916F010E9436
:101B20009514209176013091770140917801509180
:101B300079010E94D8136B017C0180917E01909104
:101B40007F01A0918001B091810180935C0190930D
:101B50005D01A0935E01B0935F018091820190913D
:101B60008301A0918401B0918501809360019093DD
:101B70006101A0936201B093630180915A01909139
:101B80005B0120E0892B09F451C00E94BE018F83C4
:101B90000E94C5043F81313009F0DBC0209105016E
:101BA0002111D7C080904E0190904F01A09050011C
:101BB000B09051019B01AC01281939094A095B0910
:101BC000223031054105510508F4C3C060934E0130
:101BD00070934F01809350019093510160934A019B
:101BE00070934B0180934C0190934D0121E08F80C5
:101BF0008092050140915A0150915B01452B09F4F7
:101C0000AAC080904A0190904B01A0904C01B090E6
:101C10004D01681979098A099B0931E06C3D7540CD
:101C20008105910508F030E030938E0180915A01D2
:101C300090915B01009709F491C0089730F480916E
:101C40000801811101C10E949707809154018111FF
:101C50000CC080915A0190915B0160E0892B11F0DA
:101C60006091080183E00E94E20160E070E0672B70
:101C700009F468CE0E94000065CE809137019091F2
:101C80003801A0913901B0913A01B701A601481B72
:101C9000590B6A0B7B0BDB01CA0180399140A1050E
:101CA000B105C0F480918F01909190010196B80127
:101CB0000E94E9159093900180938F0181E00E942A
:101CC00005051092370110923801109239011092D7
:101CD0003A017CCE80915A0190915B010196B1014D
:101CE0000E94E91590935B0180935A010E941905A7
:101CF00080915A0190915B018F5F0E9405051092BF
:101D0000530110925201109255010E94C504609334
:101D10005601709357018093580190935901C092D6
:101D20003701D0923801E0923901F0923A014ECE5B
:101D30002BED3FE049EC50E4C701B6010E948B1146
:101D400060936C0170936D0180936E0190936F01AD
:101D5000DECE20E04CCF10928E0168CF81E10E9450
:101D6000BE043C016B817C81812C912C80ECA82EDF
:101D70008FE3B82E6130710581F420E030E040E857
:101D80005FE3609186017091870180918801909155
:101D900089010E948C114B015C01B301770C880B07
:101DA000990B0E94A0122AE038E240EA5BE30E940D
:101DB000D8139B01AC0160E070E080E090E40E94E9
:101DC00045142B013C016091740170917501072E3F
:101DD000000C880B990B0E94A01220E030E040E438
:101DE00051E40E94FD119B01AC0160E070E080E0D5
:101DF00090E40E9445146B837C838D839E8320E056
:101E000030E040E252E4C501B4010E94D813A301BE
:101E100092010E94D8132B813C814D815E810E94EA
:101E2000D8134B015C0120E030E040E85FE3C701DC
:101E3000B6010E948C119B01AC01C501B4010E9446
:101E4000D8130E94B90701CF80918E01882309F42D
:101E500051C0211171C01A821982CE0101960E94CF
:101E6000C40A882309F4F1CE89808B82282D2F3F64
:101E700009F4E9CE6091740170917501072E000C90
:101E8000880B990B0E94A0122B013C0187FC90C08B
:101E9000682D880C770B880B990B0E94A012A30168
:101EA00092010E948C1120E030E04AE852E40E9446
:101EB0008B1120E030E040E451E40E94FD119B01D1
:101EC000AC0160E070E080E090E40E94451420E006
:101ED00030E04CED53E40E94D8132B013C0120E08C
:101EE00030E040E85FE3C701B6010E948C11A30116
:101EF0009201A5CF8091560190915701A091580170
:101F0000B0915901B301A201481B590B6A0B7B0B1D
:101F10008091060190910701B0E0A0E048175907B1
:101F20006A077B0708F497CF4092560150925701F9
:101F3000609258017092590180915501882319F0DF
:101F400081508093550180915501811184CF1A826F
:101F50001982CE0101960E94C40A811107C0109215
:101F6000530110925201109255016FCE8A81811156
:101F700001C081E0809355018091520190915301FD
:101F8000019620915A0130915B012150310961E0A5
:101F900070E02730310528F4225F3E4FF90160815F
:101FA00070E00E94D515909353018093520153CF56
:101FB0009A809F82911002C021E02F83909055015A
:101FC000911002C09924939420E030E040E752E45D
:101FD000C301B2010E948C1120E030E04AE852E4D3
:101FE0000E948B1120E030E040E451E40E94FD119A
:101FF0009B01AC0160E070E080E090E40E94451439
:1020000020E030E04CED53E40E94D8132B013C015A
:10201000692D70E090E080E00E949E124B015C010F
:102020003F81632F70E090E080E00E949E129B0150
:10203000AC01C501B4010E94FD119B01AC0160E03F
:1020400070E080E89FE30E948B114B814D3FA1F02F
:102050004E3F09F044CF20E030E040E250E40E94DF
:10206000D81320E030E040E85FE30E948C119B0130
:10207000AC01C301B2012FCF2DEC3CEC4CE45FE38B
:102080000E94D8139B01AC0160E070E080E89FE300
:102090000E948B11ECCF882309F498CC80913B01EE
:1020A00090913C01A0913D01B0913E014601570144
:1020B000881A990AAA0ABB0AD501C40110923F01E5
:1020C00081329340A105B10508F4D7CD80915A0122
:1020D00090915B01892B09F479CCF09054016091C7
:1020E000080131E0632760930801F11073CC83E0AD
:1020F0000E94E2016BCC8F929F92AF92BF92CF92DF
:10210000DF92EF92FF92CF93DF93EC0168817981A8
:102110008A819B81611571058105910521F464E235
:1021200079ED8BE597E02DE133EF41E050E00E943F
:10213000281149015A019B01AC01A7EAB1E40E94B0
:1021400047116B017C01ACEEB4EFA50194010E9434
:102150005511C60ED71EE81EF91EF7FE06C081E017
:10216000C81AD108E10880E8F80AC882D982EA8250
:10217000FB82C701B6019F77DF91CF91FF90EF906F
:10218000DF90CF90BF90AF909F908F9008958F92E7
:102190009F92AF92BF92CF92DF92EF92FF926091A7
:1021A0000A0170910B0180910C0190910D01611554
:1021B00071058105910521F464E279ED8BE597E0E5
:1021C0002DE133EF41E050E00E94281149015A010E
:1021D0009B01AC01A7EAB1E40E9447116B017C01AD
:1021E000ACEEB4EFA50194010E945511C60ED71EA6
:1021F000E81EF91EF7FE06C081E0C81AD108E10802
:1022000080E8F80AC0920A01D0920B01E0920C011A
:10221000F0920D01C701B6019F77FF90EF90DF901C
:10222000CF90BF90AF909F908F90089560930A01D8
:1022300070930B0180930C0190930D010895FB01A5
:10224000DC0102C005900D9241505040D8F708952E
:10225000052E97FB1EF400940E943F1157FD07D0F6
:102260000E945A1107FC03D04EF40C943F11509574
:102270004095309521953F4F4F4F5F4F0895909572
:102280008095709561957F4F8F4F9F4F08950E9465
:102290007C11A59F900DB49F900DA49F800D911D62
:1022A00011240895B7FF0C9447110E944711821B17
:1022B000930B0895A1E21A2EAA1BBB1BFD010DC0B2
:1022C000AA1FBB1FEE1FFF1FA217B307E407F507E6
:1022D00020F0A21BB30BE40BF50B661F771F881FC2
:1022E000991F1A9469F760957095809590959B0158
:1022F000AC01BD01CF010895A29FB001B39FC00101
:10230000A39F700D811D1124911DB29F700D811D21
:102310001124911D08955058BB27AA270E94A3118C
:102320000C9416130E94081338F00E940F1320F02B
:1023300039F49F3F19F426F40C9405130EF4E0953C
:10234000E7FB0C94FF12E92F0E94271358F3BA17EA
:10235000620773078407950720F079F4A6F50C94BB
:1023600049130EF4E0950B2EBA2FA02D0B01B901E5
:1023700090010C01CA01A0011124FF27591B99F0FB
:10238000593F50F4503E68F11A16F040A22F232F07
:10239000342F4427585FF3CF469537952795A79557
:1023A000F0405395C9F77EF41F16BA0B620B730BFE
:1023B000840BBAF09150A1F0FF0FBB1F661F771F6F
:1023C000881FC2F70EC0BA0F621F731F841F48F424
:1023D000879577956795B795F7959E3F08F0B0CFAD
:1023E0009395880F08F09927EE0F97958795089594
:1023F0000E94DB1208F481E008950E9411120C94EF
:1024000016130E940F1358F00E94081340F029F48D
:102410005F3F29F00C94FF1251110C944A130C9455
:1024200005130E94271368F39923B1F3552391F301
:10243000951B550BBB27AA2762177307840738F033
:102440009F5F5F4F220F331F441FAA1FA9F335D090
:102450000E2E3AF0E0E832D091505040E695001C44
:10246000CAF72BD0FE2F29D0660F771F881FBB1FFE
:10247000261737074807AB07B0E809F0BB0B802DDC
:10248000BF01FF2793585F4F3AF09E3F510578F008
:102490000C94FF120C944A135F3FE4F3983ED4F37C
:1024A000869577956795B795F7959F5FC9F7880FDC
:1024B000911D9695879597F90895E1E0660F771F2E
:1024C000881FBB1F621773078407BA0720F0621BBF
:1024D000730B840BBA0BEE1F88F7E09508950E94EA
:1024E0002F1388F09F5798F0B92F9927B751B0F064
:1024F000E1F0660F771F881F991F1AF0BA95C9F788
:1025000014C0B13091F00E944913B1E008950C94C9
:102510004913672F782F8827B85F39F0B93FCCF37C
:10252000869577956795B395D9F73EF49095809504
:10253000709561957F4F8F4F9F4F0895E89409C024
:1025400097FB3EF490958095709561957F4F8F4FE6
:102550009F4F9923A9F0F92F96E9BB279395F695FC
:10256000879577956795B795F111F8CFFAF4BB0F7A
:1025700011F460FF1BC06F5F7F4F8F4F9F4F16C0DE
:10258000882311F096E911C0772321F09EE8872F68
:10259000762F05C0662371F096E8862F70E060E024
:1025A0002AF09A95660F771F881FDAF7880F96959D
:1025B000879597F90895990F0008550FAA0BE0E841
:1025C000FEEF16161706E807F907C0F012161306F5
:1025D000E407F50798F0621B730B840B950B39F435
:1025E0000A2661F0232B242B252B21F408950A269B
:1025F00009F4A140A6958FEF811D811D089597F9DB
:102600009F6780E870E060E008959FEF80EC089598
:1026100000240A94161617061806090608950024C1
:102620000A9412161306140605060895092E03943B
:10263000000C11F4882352F0BB0F40F4BF2B11F4AF
:1026400060FF04C06F5F7F4F8F4F9F4F089557FD0E
:102650009058440F551F59F05F3F71F04795880F10
:1026600097FB991F61F09F3F79F0879508951216A7
:1026700013061406551FF2CF4695F1DF08C0161653
:1026800017061806991FF1CF869571056105089404
:102690000895E894BB2766277727CB0197F908951B
:1026A0000E94DB1208F48FEF089516F00C94D714F3
:1026B0000C94051368940C94FF120E942F13A8F336
:1026C0009923C1F3AEF3DF93CF931F930F93FF9240
:1026D000C92FDD2788232AF02197660F771F881FCF
:1026E000DAF720E030E040E85FEB9FE3883920F044
:1026F000803E38F021968F770E948C11E8E7F0E059
:1027000004C00E948C11E5EAF0E00E94E5148B0100
:10271000BE01EC01FB2E6F5771097595771F880B71
:10272000990B0E94A01228E132E741E35FE30E9487
:10273000EB13AF2D9801AE01FF900F911F91CF9138
:10274000DF910E94A3110C9416130E942F1358F1CD
:102750009E5760F19851A0F0E9F0983020F5092ECD
:102760009927660F771F881F991F0A94D1F712C007
:10277000062E672F782F8827985F11F4000C07C06A
:10278000993FB4F38695779567959395D9F7611D31
:10279000711D811D3EF490958095709561957F4FD8
:1027A0008F4F9F4F089568940C944A130C944913CB
:1027B0000E94EB130C9416130E94081338F00E9429
:1027C0000F1320F0952311F00C94FF120C940513B5
:1027D00011240C944A130E94271370F3959FC1F3A0
:1027E000950F50E0551F629FF001729FBB27F00DBF
:1027F000B11D639FAA27F00DB11DAA1F649F662714
:10280000B00DA11D661F829F2227B00DA11D621F62
:10281000739FB00DA11D621F839FA00D611D221F1C
:10282000749F3327A00D611D231F849F600D211D00
:10283000822F762F6A2F11249F5750409AF0F1F083
:1028400088234AF0EE0FFF1FBB1F661F771F881FEC
:1028500091505040A9F79E3F510580F00C94FF1213
:102860000C944A135F3FE4F3983ED4F38695779532
:102870006795B795F795E7959F5FC1F7FE2B880F92
:10288000911D9695879597F90895FA01EE0FFF1F10
:10289000309621053105A1F16115710561F480388B
:1028A000BFE39B0749F168949038810561F0803857
:1028B000BFEF9B0741F099234AF5FF3FE105310542
:1028C000210519F1E8940894E795D901AA2329F480
:1028D000AB2FBE2FF85FD0F310C0FF5F70F4A6954A
:1028E000E0F7F73950F019F0FF3A38F49F779F93EB
:1028F0000DD00F9007FC9058089546F00C940513E6
:1029000060E070E080E89FE308954FE79F775F9372
:102910004F933F932F930E945D132F913F914F91BF
:102920005F910E94D8130C94A5149F930E940E15DA
:102930000F9007FCEE5F0C94371529F416F00C94F9
:10294000FF120C9449130C9405130E942F13A8F343
:102950009638A0F707F80F92E8942BE33AEA48EB91
:102960005FE70E94EE130F920F920F924DB75EB782
:102970000F920E948D15E2EDF0E00E94E5144F9158
:102980005F91EF91FF91E595EE1FFF1F49F0FE5714
:10299000E0684427EE0F441FFA95E1F74195550B87
:1029A0000E9457150F9007FE0C944B1508959F3FFA
:1029B00031F0915020F4879577956795B795880FFA
:1029C000911D9695879597F90895DF93CF931F935F
:1029D0000F93FF92EF92DF927B018C01689406C007
:1029E000DA2EEF010E94EB13FE01E894A5912591E8
:1029F000359145915591A6F3EF010E94A311FE0177
:102A00009701A801DA9469F7DF90EF90FF900F919A
:102A10001F91CF91DF9108950C9405130E942F13FD
:102A2000D8F3E894E0E0BB279F57F0F02AED3FE0B1
:102A300049EC06C0EE0FBB0F661F771F881F28F0FA
:102A4000B23A62077307840728F0B25A620B730B1D
:102A5000840BE3959A9572F7803830F49A95BB0F02
:102A6000661F771F881FD2F790480C94D914EF93F4
:102A7000E0FF07C0A2EA2AED3FE049EC5FEB0E94CD
:102A8000A3110E9416130F90039401FC9058EAEFD3
:102A9000F0E00C94C1159B01AC0160E070E080E8AF
:102AA0009FE30C94FD110C94FF120C94D7140E9418
:102AB0002F13D8F39923C9F3940F511DA3F3915009
:102AC000504094F059F0882332F0660F771F881F2A
:102AD00091505040C1F79E3F51052CF7880F911D32
:102AE0009695879597F908955F3FACF0983E9CF0D6
:102AF000BB27869577956795B79508F4B160939550
:102B0000C1F7BB0F58F711F460FFE8CF6F5F7F4F3D
:102B10008F4F9F4FE3CF0C944A13FA01DC01AA0FA9
:102B2000BB1F9B01AC01BF5728F422273327442742
:102B3000507820C0B75190F4AB2F002446953795BC
:102B40002795011CA395D2F3002071F0220F331FAB
:102B5000441FB395DAF30ED00C948B1161307105DC
:102B6000A0E88A07B94630F49B01AC0166277727B5
:102B700088279078309621F02083318342835383D5
:102B800008959F938F937F936F93FF93EF939B0190
:102B9000AC010E94D813EF91FF910E94E5142F9190
:102BA0003F914F915F910C94D813AA1BBB1B51E12D
:102BB00007C0AA1FBB1FA617B70710F0A61BB70BAD
:102BC000881F991F5A95A9F780959095BC01CD0152
:102BD000089597FB072E16F4009407D077FD09D0CF
:102BE0000E94D51507FC05D03EF4909581959F4F26
:102BF0000895709561957F4F0895EE0FFF1F059022
:102C0000F491E02D09940E947C11B7FF0895821B76
:082C1000930B0895F894FFCF27
:102C1800000080BF01017D0001FF010000001C23AE
:062C280015210F10080049
:00000001FF
