:100000000C9475000C9492000C9492000C94920045
:100010000C9492000C9492000C9492000C94920018
:100020000C9492000C9492000C9492000C94920008
:100030000C9492000C9492000C9492000C949200F8
:100040000C9412020C9492000C9492000C94920066
:100050000C9492000C9492000C9492000C949200D8
:100060000C9492000C9492000C9400000C940000EC
:100070000C9400000C9400000000000023002600F7
:1000800029002C0000000000240027002A002D0079
:1000900000000000250028002B002E0004040404AA
:1000A0000404040402020202020203030303030322
:1000B000050505050505050301020408102040801B
:1000C00001020408102001020408102002080104A3
:1000D0001040204000000008500201000003040707
:1000E0000000000000000000000011241FBECFEF40
:1000F000D8E0DEBFCDBF11E0A0E0B1E0EAE3F3E17C
:1001000002C005900D92A830B107D9F725E0A8E00C
:10011000B1E001C01D92A533B207E1F70E94580279
:100120000C949B090C940000E2ECF0E02491E6EAC8
:10013000F0E08491882399F090E0880F991FFC01EA
:10014000EC57FF4FA591B491FC01E057FF4F85910B
:1001500094918FB7F894EC91E22BEC938FBF0895B4
:1001600081508B3088F5E82FF0E0E754FF4F0C9476
:100170008609CE00D200C400CA00E400E400D50025
:10018000DB00DF00E500E900809180008F7780933D
:1001900080000895809180008F7DF9CF84B58F779E
:1001A00084BD089584B58F7DFBCF8091B0008F779B
:1001B0008093B00008958091B0008F7DF9CF809139
:1001C00090008F77809390000895809190008F7DAC
:1001D000F9CF80919000877FF5CF1F93CF93DF9366
:1001E000EEEDF0E09491E2ECF0E0D491E6EAF0E09C
:1001F000C491CC23B9F0182F992319F0892F0E94AC
:10020000B000EC2FF0E0EE0FFF1FE057FF4FA5917D
:10021000B4918FB7F894EC91111108C0D095DE23FA
:10022000DC938FBFDF91CF911F910895DE2BF8CF24
:10023000CF93DF93EC010E949400209729F480E093
:10024000DF91CF910C94ED00CF3FD10511F481E007
:10025000F7CFEEEDF0E0E491E73009F446C0B8F4F2
:10026000E230A1F130F4E13051F1C038D1057CF732
:10027000E6CFE33081F1E430C1F780918000806205
:1002800080938000D0938B00C0938A001CC0EA301A
:10029000E1F170F4E83089F1E93039F780919000AC
:1002A000806880939000D0939900C09398000BC011
:1002B000EB30A9F1E035C9F6C093A10004C084B5C4
:1002C000806884BDC7BDDF91CF91089584B58062F9
:1002D00084BDC8BDF8CF8091800080688093800085
:1002E000D0938900C0938800EECF8091B0008068E1
:1002F0008093B000C093B300E6CF8091B0008062DD
:100300008093B000C093B400DECF809190008062F3
:1003100080939000D0939B00C0939A00D4CF80919B
:100320009000886080939000D0939F00C0939E00BF
:10033000CACF80917A00806480937A0080917A009D
:1003400086FDFCCF809178009091790008950F93FD
:100350001F93CF93DF93EDEAF0E09081907F90833D
:100360008E50806480937C000DE710E0F80180815E
:10037000806280830E949901EC01F80180818F7D69
:1003800080830E9499018C0F9D1F9C0136952795B3
:10039000892F9927A901481B590BCA01DF91CF91D9
:1003A0001F910F910895CF93C0910301C11103C014
:1003B000CF910C94A70190910201913049F40E94D1
:1003C000A70102C095958795CA95E2F7CF91089548
:1003D0000E94A70102C0880F991FCA95E2F7F6CFC5
:1003E0003FB7F8948091310590913205A091330583
:1003F000B091340526B5A89B05C02F3F19F0019692
:10040000A11DB11D3FBFBA2FA92F982F8827BC016E
:10041000CD01620F711D811D911D660F771F881F11
:10042000991F08951F920F920FB60F9211242F93C8
:100430003F938F939F93AF93BF9380912D0590919E
:100440002E05A0912F05B091300530912C0520E4A8
:10045000230F2D3728F023EC230F0196A11DB11D8A
:1004600020932C0580932D0590932E05A0932F05A6
:10047000B09330058091310590913205A0913305FC
:10048000B09134050196A11DB11D80933105909363
:100490003205A0933305B0933405BF91AF919F917E
:1004A0008F913F912F910F900FBE0F901F90189535
:1004B000CF93DF93CDB7DEB760970FB6F894DEBF6A
:1004C0000FBECDBF8091F20080618EBB80E880932B
:1004D000F2009EB39093F2008093610091E09093BC
:1004E00061009091F2009F799EBB8093F2009EB3D1
:1004F0009093F2009091F2009B7F9EBB8093F2005C
:100500009EB39093F2008093610010926100789402
:1005100084B5826084BD84B5816084BD85B5826008
:1005200085BD85B5816085BD80916E0081608093B9
:100530006E00109281008091810082608093810022
:100540008091810081608093810080918000816032
:10055000809380008091B10084608093B10080918D
:10056000B00081608093B0008091910082608093A0
:100570009100809191008160809391008091900022
:1005800081608093900080917A00846080937A00EB
:1005900080917A008D7F80937A0080917A008E7F9F
:1005A00080937A0080917A00806880937A0010921C
:1005B000C10028E031E03A83298310E000E0B8016F
:1005C000012E000C880B990B0E9469082BEB3BE76E
:1005D00040E85BE30E941909E981FA816193719314
:1005E00081939193FA83E9830F5F1F4F0F3F1105AA
:1005F00031F70E94940082E08093030181E08093B0
:1006000002010E94F00160930C0570930D05809328
:100610000E0590930F052FB7F89480912D059091BA
:100620002E05A0912F05B09130052FBF80931C059A
:1006300090931D05A0931E05B0931F058091810026
:10064000887F809381008091810081608093810008
:100650000E94F0014B015C0162E3C62ED12CE12C1B
:10066000F12C0E94F001681979098A099B09683EFA
:10067000734081059105A8F3F1E0CF1AD108E10894
:10068000F10828EE820E23E0921EA11CB11CC114B9
:10069000D104E104F10429F722242A94312C00E04A
:1006A00010E0E7EDF0E08491EBEBF0E0F490EFE99F
:1006B000F0E0E490EE2009F4C5C281110E94B00080
:1006C000EE2DF0E0EE0FFF1FE858FF4FA591B4911B
:1006D0008C91F82291E080E009F490E0E92EF82E68
:1006E00080912A0590912B058E159F0551F1F1E01F
:1006F000EF16F10411F56091280570912905072E78
:10070000000C880B990B0E946908209124053091F8
:10071000250540912605509127050E94190920E0E2
:1007200030E04FE753E40E94BF07609320057093C9
:1007300021058093220590932305F0922B05E092EA
:100740002A052FB7F89480912D0590912E05A09140
:100750002F05B09130052FBF40911C0550911D050C
:1007600060911E0570911F05841B950BA60BB70B9E
:10077000C297A105B10508F44EC08FE00E94D301D5
:100780009C01A7E0BFEF0E948C092FEF33E040E00F
:1007900050E00E94EA0626503F4F4F4F5F4F68E2FD
:1007A000629FC001639F900D112490931B0580935D
:1007B0001A0581E10E94D3012FEF30E0DC010E9495
:1007C00094092FEF33E040E050E00E94EA063093B6
:1007D0001905209318058EE00E94D30197FD03961A
:1007E00095958795959587959093290580932805EC
:1007F0002FB7F89480912D0590912E05A0912F058B
:10080000B09130052FBF80931C0590931D05A093D8
:100810001E05B0931F05409014055090150560907B
:100820001605709017052091100530911105409123
:10083000120550911305A0901A05B0901B051A14CB
:100840001B040CF002C2C301B2010E944D076B01F0
:100850007C01B501BB0C880B990B0E9469089B01B8
:10086000AC010E944E074B015C0120E030EC44E6F5
:1008700054E40E94BA0787FF10C0A501940160E00C
:1008800070EC84E694E40E94BF079B01AC01C701B1
:10089000B6010E9419096B017C0120E030E0A9013A
:1008A000C701B6010E94BA0787FDD7C10E94F001B7
:1008B00080900C0590900D05A0900E05B0900F054E
:1008C0009B01AC01281939094A095B0949015A0100
:1008D000C701B6010E94380886169706A806B90611
:1008E00008F4A9C1409210055092110560921205BA
:1008F0007092130580910A0590910B0501969093D3
:100900000B0580930A058F3F91050CF450C0809130
:1009100000019091010110920B0510920A0590932D
:100920000905809308050E9492062FEF30E040E011
:1009300050E00E94EA06709301016093000183E198
:100940000E94D3012CE231E0DC010E9494092FEFD8
:1009500033E040E050E00E94EA0688249924821A9D
:10096000930A092C000CAA08BB0882169306A40659
:10097000B5069CF469017A01C818D908EA08FB0891
:1009800041F00E949206A70196010E94EA066B01BF
:100990007C018C0C9D1CAE1CBF1C80911A05909193
:1009A0001B05880E991E90921B0580921A05E091F6
:1009B0000A05F0910B05EE0FFF1FEE0FFF1FE85F1A
:1009C000FE4FC080D180E280F380A701960160E0F5
:1009D00070E080E89FE30E944D074B015C01AC0191
:1009E0009B010E9419092B013C01A7019601C70137
:1009F000B6010E94190969837A838B839C83A301C2
:100A00009201C501B4010E9419096D877E878F8705
:100A1000988B29813A814B815C81C701B6010E9484
:100A200019096D837E838F83988720E030E040E44E
:100A300050E4C301B2010E941909A70196010E9466
:100A4000190969877A878B879C8760901805709051
:100A5000190520E030E040E450E4C501B4010E94F3
:100A6000190929813A814B815C810E9419096983A6
:100A70007A838B839C83B10166197709072E000C5A
:100A8000880B990B0E94690829813A814B815C810E
:100A90000E9419096B017C01B301770C880B990B3B
:100AA0000E94690829853A854B855C850E94190951
:100AB0009B01AC01C701B6010E944E076B017C018E
:100AC00020E030E04FE753E46D817E818F8198858F
:100AD0000E9419099B01AC01C701B6010E944E0793
:100AE0006B017C0160911A0570911B05072E000CAB
:100AF000880B990B0E9469089B01AC01C701B601E4
:100B00000E9419099B01AC010E944E0720E030E0D1
:100B100040E85FE30E944E076B017C0120E030E07B
:100B200040EA50E40E94BA0787FF06C0C12CD12CCE
:100B300080EAE82E80E4F82EC0921405D0921505C4
:100B4000E0921605F092170560910805709109056D
:100B5000072E000C880B990B0E9469084B015C0161
:100B60006091000170910101072E000C880B990B18
:100B70000E9469086B017C01A50194016D857E8549
:100B80008F8598890E9419092B013C01A5019401C8
:100B900069857A858B859C850E9419099B01AC012A
:100BA000C301B2010E944E074B015C01A7019601EF
:100BB00069817A818B819C810E9419099B01AC011A
:100BC000C501B4010E944E074B015C01A7019601CB
:100BD0006D817E818F8198850E9419099B01AC01EE
:100BE000C501B4010E944E076B017C01C09224052F
:100BF000D0922505E0922605F09227050E94F0018B
:100C000060930C0570930D0580930E0590930F056E
:100C100080912A0590912B05019719F56091200587
:100C20007091210580912205909123050E94310841
:100C3000CB010E9418010115110509F432CD0E9463
:100C400000002DCDF12CE12C4BCDC12C20ECD22E6F
:100C500024E6E22E24E4F22E29CEC12CD12C7601FA
:100C600025CE6091280570912905072E000C880B70
:100C7000990B0E946908A70196010E94190920E0BA
:100C800030E04FE753E40E94BF07D0CF8F929F928E
:100C9000AF92BF92CF92DF92EF92FF92CF93DF930A
:100CA000EC01688179818A819B81611571058105DB
:100CB000910521F464E279ED8BE597E02DE133EFC6
:100CC00041E050E00E94EA0649015A019B01AC0153
:100CD000A7EAB1E40E9409076B017C01ACEEB4EF16
:100CE000A50194010E941707C60ED71EE81EF91E23
:100CF000F7FE06C081E0C81AD108E10880E8F80ACA
:100D0000C882D982EA82FB82C701B6019F77DF9150
:100D1000CF91FF90EF90DF90CF90BF90AF909F90DA
:100D20008F9008958F929F92AF92BF92CF92DF9251
:100D3000EF92FF926091040170910501809106018C
:100D400090910701611571058105910521F464E217
:100D500079ED8BE597E02DE133EF41E050E00E9423
:100D6000EA0649015A019B01AC01A7EAB1E40E94DD
:100D700009076B017C01ACEEB4EFA50194010E9460
:100D80001707C60ED71EE81EF91EF7FE06C081E043
:100D9000C81AD108E10880E8F80AC0920401D0928C
:100DA0000501E0920601F0920701C701B6019F77A5
:100DB000FF90EF90DF90CF90BF90AF909F908F907B
:100DC0000895609304017093050180930601909348
:100DD00007010895052E97FB1EF400940E94010759
:100DE00057FD07D00E941C0707FC03D04EF40C945B
:100DF000010750954095309521953F4F4F4F5F4FDC
:100E0000089590958095709561957F4F8F4F9F4F76
:100E100008950E943E07A59F900DB49F900DA49F3A
:100E2000800D911D11240895B7FF0C9409070E94AD
:100E30000907821B930B0895A1E21A2EAA1BBB1B64
:100E4000FD010DC0AA1FBB1FEE1FFF1FA217B30796
:100E5000E407F50720F0A21BB30BE40BF50B661FAC
:100E6000771F881F991F1A9469F760957095809570
:100E700090959B01AC01BD01CF010895A29FB001E7
:100E8000B39FC001A39F700D811D1124911DB29FBE
:100E9000700D811D1124911D08955058BB27AA275C
:100EA0000E9465070C94DF080E94D10838F00E9468
:100EB000D80820F039F49F3F19F426F40C94CE089A
:100EC0000EF4E095E7FB0C94C808E92F0E94F008A7
:100ED00058F3BA17620773078407950720F079F46F
:100EE000A6F50C9412090EF4E0950B2EBA2FA02D46
:100EF0000B01B90190010C01CA01A0011124FF27C7
:100F0000591B99F0593F50F4503E68F11A16F040C1
:100F1000A22F232F342F4427585FF3CF46953795C0
:100F20002795A795F0405395C9F77EF41F16BA0B85
:100F3000620B730B840BBAF09150A1F0FF0FBB1F33
:100F4000661F771F881FC2F70EC0BA0F621F731F7C
:100F5000841F48F4879577956795B795F7959E3FD9
:100F600008F0B0CF9395880F08F09927EE0F97956A
:100F7000879508950E94A40808F481E008950E94CE
:100F8000D3070C94DF080E94D80858F00E94D108BB
:100F900040F029F45F3F29F00C94C80851110C94DB
:100FA00013090C94CE080E94F00868F39923B1F35A
:100FB000552391F3951B550BBB27AA27621773077F
:100FC000840738F09F5F5F4F220F331F441FAA1F13
:100FD000A9F335D00E2E3AF0E0E832D091505040CF
:100FE000E695001CCAF72BD0FE2F29D0660F771F7D
:100FF000881FBB1F261737074807AB07B0E809F063
:10100000BB0B802DBF01FF2793585F4F3AF09E3FE7
:10101000510578F00C94C8080C9413095F3FE4F371
:10102000983ED4F3869577956795B795F7959F5F2A
:10103000C9F7880F911D9695879597F90895E1E076
:10104000660F771F881FBB1F621773078407BA07D5
:1010500020F0621B730B840BBA0BEE1F88F7E09530
:1010600008950E9438086894B1110C9413090895EA
:101070000E94F80888F09F5798F0B92F9927B75128
:10108000B0F0E1F0660F771F881F991F1AF0BA952C
:10109000C9F714C0B13091F00E941209B1E008956F
:1010A0000C941209672F782F8827B85F39F0B93F61
:1010B000CCF3869577956795B395D9F73EF49095DF
:1010C0008095709561957F4F8F4F9F4F0895E8945D
:1010D00009C097FB3EF490958095709561957F4F80
:1010E0008F4F9F4F9923A9F0F92F96E9BB2793952E
:1010F000F695879577956795B795F111F8CFFAF43E
:10110000BB0F11F460FF1BC06F5F7F4F8F4F9F4F6E
:1011100016C0882311F096E911C0772321F09EE8CC
:10112000872F762F05C0662371F096E8862F70E032
:1011300060E02AF09A95660F771F881FDAF7880F0C
:101140009695879597F90895990F0008550FAA0B62
:10115000E0E8FEEF16161706E807F907C0F01216CA
:101160001306E407F50798F0621B730B840B950BCD
:1011700039F40A2661F0232B242B252B21F4089522
:101180000A2609F4A140A6958FEF811D811D0895BF
:1011900097F99F6780E870E060E008959FEF80EC2A
:1011A000089500240A9416161706180609060895CD
:1011B00000240A9412161306140605060895092E33
:1011C0000394000C11F4882352F0BB0F40F4BF2BA2
:1011D00011F460FF04C06F5F7F4F8F4F9F4F0895E2
:1011E00057FD9058440F551F59F05F3F71F04795D8
:1011F000880F97FB991F61F09F3F79F087950895BD
:10120000121613061406551FF2CF4695F1DF08C0DB
:10121000161617061806991FF1CF869571056105F8
:1012200008940895E894BB2766277727CB0197F9A0
:1012300008950E942C090C94DF080E94D10838F010
:101240000E94D80820F0952311F00C94C8080C9443
:10125000CE0811240C9413090E94F00870F3959F96
:10126000C1F3950F50E0551F629FF001729FBB279D
:10127000F00DB11D639FAA27F00DB11DAA1F649F39
:101280006627B00DA11D661F829F2227B00DA11DEC
:10129000621F739FB00DA11D621F839FA00D611D72
:1012A000221F749F3327A00D611D231F849F600D93
:1012B000211D822F762F6A2F11249F5750409AF0BC
:1012C000F1F088234AF0EE0FFF1FBB1F661F771F48
:1012D000881F91505040A9F79E3F510580F00C9413
:1012E000C8080C9413095F3FE4F3983ED4F3869545
:1012F00077956795B795F795E7959F5FC1F7FE2BB3
:10130000880F911D9695879597F90895EE0FFF1F09
:101310000590F491E02D09940E943E07332312F4C6
:101320008A1B9B0B0C9496090E943E07B7FF0895F9
:0A133000821B930B0895F894FFCF81
:08133A00FF00010201000000A8
:00000001FF
