:100000000C94E3040C9426180C94FF170C940B0525
:100010000C940B050C940B050C940B050C940B0520
:100020000C940B050C940B050C940B050C940B0510
:100030000C940B050C940B050C940B050C940B0500
:100040000C94B9170C940B050C940B050C940B0530
:100050000C940B050C940B050C940B050C940B05E0
:100060000C944D180C940B050C9400000C9400009B
:100070000C9400000C940000414C4C205345545407
:10008000494E47532053415645440046696C743AE3
:1000900000526672733A004F6666733A00545249D2
:1000A00047004176673A2000486967683A0054691A
:1000B0006D653A004D6F64653A0000000000003E37
:1000C0005B4F5B3E3E6B4F6B3E1C3E7C3E1C183CC8
:1000D0007E3C181C577D571C1C5E7F5E1C00183C24
:1000E0001800FFE7C3E7FF0018241800FFE7DBE76D
:1000F000FF30483A060E2629792926407F05050754
:10010000407F05253F5A3CE73C5A7F3E1C1C0808AF
:100110001C1C3E7F14227F22145F5F005F5F060974
:100120007F017F006689956A606060606094A2FFCD
:10013000A29408047E040810207E201008082A1CBF
:1001400008081C2A08081E101010100C1E0C1E0C8B
:1001500030383E3830060E3E0E060000000000002B
:10016000005F00000007000700147F147F14242A9A
:100170007F2A12231308646236495620500008076C
:100180000300001C2241000041221C002A1C7F1C8D
:100190002A08083E0808008070300008080808088F
:1001A000000060600020100804023E5149453E00F6
:1001B000427F400072494949462141494D33181454
:1001C000127F1027454545393C4A494931412111A3
:1001D00009073649494936464949291E0000140095
:1001E00000004034000000081422411414141414B8
:1001F000004122140802015909063E415D594E7C16
:100200001211127C7F494949363E414141227F41CA
:1002100041413E7F494949417F090909013E414128
:1002200051737F0808087F00417F41002040413F13
:10023000017F081422417F404040407F021C027F22
:100240007F0408107F3E4141413E7F090909063E77
:100250004151215E7F091929462649494932030146
:100260007F01033F4040403F1F2040201F3F403858
:10027000403F631408146303047804036159494D33
:1002800043007F4141410204081020004141417F69
:1002900004020102044040404040000307080020DF
:1002A000545478407F2844443838444444283844DF
:1002B00044287F385454541800087E090218A4A416
:1002C0009C787F0804047800447D40002040403D35
:1002D000007F1028440000417F40007C04780478AF
:1002E0007C080404783844444438FC182424181842
:1002F000242418FC7C08040408485454542404049E
:100300003F44243C4040207C1C2040201C3C40308A
:10031000403C44281028444C9090907C4464544CB9
:100320004400083641000000770000004136080014
:1003300002010204023C2623263C1EA1A161123ABE
:100340004040207A3854545559215555794122540A
:10035000547842215554784020545579400C1E520F
:1003600072123955555559395454545939555454B4
:10037000580000457C410002457D420001457C401B
:100380007D1211127DF0282528F07C54554500205F
:1003900054547C547C0A097F4932494949323A44D1
:1003A00044443A324A4848303A4141217A3A42403C
:1003B0002078009DA0A07D3D4242423D3D4040400E
:1003C0003D3C24FF2424487E4943662B2FFC2F2BE1
:1003D000FF0929F620C0887E090320545479410082
:1003E00000447D413048484A32384040227A007A01
:1003F0000A0A727D0D19317D2629292F28262929DF
:10040000292630484D402038080808080808080800
:10041000382F10C8ACBA2F102834FA00007B000027
:1004200008142A142222142A14085500550055AA2B
:1004300055AA55AAFF55FF55FF000000FF001010F8
:1004400010FF00141414FF001010FF00FF1010F034
:1004500010F0141414FC001414F700FF0000FF0047
:10046000FF1414F404FC141417101F10101F101F95
:100470001414141F00101010F0000000001F1010C2
:1004800010101F10101010F010000000FF101010BE
:10049000101010101010FF10000000FF140000FFDB
:1004A00000FF00001F10170000FC04F414141710C4
:1004B000171414F404F40000FF00F71414141414B7
:1004C0001414F700F7141414171410101F101F142D
:1004D0001414F4141010F010F000001F101F00008E
:1004E000001F14000000FC140000F010F01010FFBA
:1004F00010FF141414FF141010101F00000000F05F
:1005000010FFFFFFFFFFF0F0F0F0F0FFFFFF000033
:10051000000000FFFF0F0F0F0F0F3844443844FC5A
:100520004A4A4A347E02020606027E027E02635571
:100530004941633844443C04407E201E2006027E2C
:10054000020299A5E7A5991C2A492A1C4C7201723E
:100550004C304A4D4D303048784830BC625A463DA8
:100560003E494949007E0101017E2A2A2A2A2A445D
:10057000445F444440514A444040444A5140000092
:10058000FF0103E080FF000008086B6B083612369D
:100590002436060F090F060000181800000010107E
:1005A000003040FF0101001F01011E00191D17123C
:1005B000003C3C3C3C0000000000000103070F1F12
:1005C0003F7F0080C0E0F0F8FCFEDB40A4A62EAF29
:1005D0002000A1C8D300408DAED580A80000000047
:1005E000000000000000C00000000000000000004B
:1005F000000000000001C00000000000000000003A
:100600000000000000016000000000000000000089
:100610000000000000036000000000000000000077
:10062000E03C000700026000000000000000000144
:10063000A06C000D800640000000000000000001DA
:1006400020C8000D0004400000000000000000036E
:100650006088001B000CC0000000000000000002C9
:100660004198001300088000000000000000000610
:10067000C3300036001980000000000000000007B1
:100680008360002400190000000000000000000743
:100690000640006C00130000000000000000000E87
:1006A000048000780032000000C000000000000E4E
:1006B0000D8000700036000003E000000000000C18
:1006C0000F0000F0002C00000660000000007F1802
:1006D0001E0E02E4082C3841CC6000000003FC1818
:1006E000181F0EC418787CC3C8C00000000E003864
:1006F0003019FDC41070C7C27F8000000018006D63
:10070000E01FF98C306046863E000000003000C7D4
:10071000E001618830E07C842000380000600180C6
:100720004061431860C33D8C2001FF00004003007E
:1007300040C3C318608205886003080000C002003F
:10074000C0838330C1860D8840060000008006000B
:10075000C1838630C3860D984004000000C00C00A1
:10076000C1078671C30E09904004000000C0380024
:10077000C3078E71870E19B04004000000C06000EE
:10078000C70D0EF38D1E11B0600C00000060C0009C
:10079000CD991EF2993230A030180000003F800041
:1007A00079F1F7BEF1E3E0E03FF00000000E000059
:1007B00030E0C31860C0C0400FE000004F66660024
:1007C0004F6E00486F6C6420327320746F20736129
:1007D00076652B6578697400426F6F74204C6F6783
:1007E0006F3A20003138302064656700302064653E
:1007F00067004F4C45443A2000730054696D6572A0
:100800003A20005265766572736564004E6F726DB2
:10081000616C00456E636F6465723A2000474C4F0F
:1008200042414C2053455454494E4753005345547C
:1008300054494E475320534156454400000306098E
:100840000C0F1215181C1F2225282B2E3033363979
:100850003C3F414447494C4E515355585A5C5E60A9
:10086000626466686A6C6D6F70727375767778799A
:100870007A7B7C7C7D7E7E7F7F7F7F7F7F7F7F7F9B
:100880007F7F7E7E7D7C7C7B7A79787776757372CC
:10089000706F6D6C6A68666462605E5C5A5855532E
:1008A000514E4C494744413F3C393633302E2B287A
:1008B00025221F1C1815120F0C09060300FDFAF75C
:1008C000F4F1EEEBE8E4E1DEDBD8D5D2D0CDCAC757
:1008D000C4C1BFBCB9B7B4B2AFADABA8A6A4A2A007
:1008E0009E9C9A9896949391908E8D8B8A898887F6
:1008F0008685848483828281818181814320432310
:1009000044204423452046204623472047234120B6
:1009100041234220003366466CB6728979C3806BEE
:1009200088879020993AA2E0AB18B6ECC04E6F20B1
:100930007369676E616C002D2D2D004F4B002053A5
:100940004156454421004D4F444520000000000021
:10095000240027002A002D000000000025002800A8
:100960002B002E002200FF21000000085002010091
:100970000003040700000000000000000000010266
:10098000040810204080010204081020010204081D
:100990001020020801041040204000000000230045
:1009A000260029002C0004040404040404040202A8
:1009B00002020202030303030303050505050505FF
:1009C00005036C19852B11241FBECFEFD8E0DEBFC5
:1009D000CDBF11E0A0E0B1E0EAEBF0E602C0059087
:1009E0000D92A035B107D9F723E0A0E5B1E001C031
:1009F0001D92A536B207E1F714E0C2EED4E004C0C0
:100A00002197FE010E94FD2BC13ED107C9F70E942C
:100A1000391A0C9450300C94000081508B3088F5BA
:100A2000E82FF0E0EA5EFA4F0C94FD2B2B052F0522
:100A30002105270541054105320538053C054205DC
:100A40004605809180008F77809380000895809183
:100A500080008F7DF9CF84B58F7784BD089584B5EC
:100A60008F7DFBCF8091B0008F778093B000089589
:100A70008091B0008F7DF9CF809190008F77809327
:100A800090000895809190008F7DF9CF8091900023
:100A9000877FF5CFCF93DF93282F30E0F901E85916
:100AA000F64F8491F901E258F64FD491F901EA55D5
:100AB000F64FC491CC23A1F081110E940D05EC2FBB
:100AC000F0E0EE0FFF1FE656F64FA591B491EC91C2
:100AD000ED2381E090E009F480E0DF91CF9108956B
:100AE00080E090E0FACF1F93CF93DF93282F30E080
:100AF000F901E859F64F8491F901E258F64FD49183
:100B0000F901EA55F64FC491CC23A9F0162F8111B3
:100B10000E940D05EC2FF0E0EE0FFF1FE85AF64F94
:100B2000A591B4918FB7F894EC91111108C0D095AC
:100B3000DE23DC938FBFDF91CF911F910895DE2BD1
:100B4000F8CFEBE6F9E0E491E73009F444C0B8F4FB
:100B5000E23091F130F4E13051F160E083E00C9447
:100B60007305E33071F1E430C1F720918000206219
:100B70002093800090938B0080938A000895EA3040
:100B8000D1F170F4E83079F1E93039F72091900033
:100B90002068209390009093990080939800089586
:100BA000EB3099F1E035C9F68093A100089594B532
:100BB000906894BD87BD089594B5906294BD88BD3A
:100BC00008952091800020682093800090938900F0
:100BD0008093880008959091B00090689093B00041
:100BE0008093B30008959091B00090629093B0000C
:100BF0008093B4000895209190002062209390008B
:100C000090939B0080939A00089520919000286013
:100C10002093900090939F0080939E000895CF931F
:100C2000DF93282F30E0F901E258F64F44912A551E
:100C3000364FF9012491843011F583E08093A000B0
:100C40002223D1F0822F90E0880F991FFC01E45BF2
:100C5000F64FA591B491FC01E85AF64FC591D49195
:100C6000611122C09FB7F8948C91409584238C9396
:100C70008881482348839FBFDF91CF9108959AEEE2
:100C8000980F923020F48FEF84BF84BFD9CF893181
:100C9000B9F68091F00082608EBB80E88093F0000E
:100CA0008EB38093F000CCCF623051F49FB7F894AC
:100CB0002C91842F809582238C93E8814E2BDACF60
:100CC0008FB7F894EC914E2B4C938FBFD5CF80917A
:100CD0007A00806480937A0080917A0086FDFCCF50
:100CE000809178009091790008950F931F93CF938E
:100CF000DF93EDEAF0E08081807F808380E4809361
:100D00007C000DE710E0F8018081806280830E9402
:100D10006706EC01F80180818F7D80830E94670661
:100D20008C0F9D1F9C0136952795892F9927A90126
:100D3000481B590BCA01DF91CF911F910F91089564
:100D40003FB7F8948091090390910A03A0910B0397
:100D5000B0910C0326B5A89B05C02F3F19F0019652
:100D6000A11DB11D3FBFBA2FA92F982F8827BC0105
:100D7000CD01620F711D811D911D660F771F881FA8
:100D8000991F08958F929F92AF92BF92CF92DF9258
:100D9000EF92FF924B015C010E94A0066B017C0167
:100DA0000E94A0066C197D098E099F09683E734058
:100DB00081059105A8F321E0821A9108A108B108E4
:100DC00088EEC80E83E0D81EE11CF11C811491044A
:100DD000A104B10429F7FF90EF90DF90CF90BF906E
:100DE000AF909F908F9008952FB7F894609105036E
:100DF0007091060380910703909108032FBF089517
:100E00000895089508950895AF92BF92CF92DF920A
:100E1000EF92FF920F931F93CF93DF936C017B01AF
:100E20008B01040F151FEB015E01AE18BF08C01740
:100E3000D10759F06991D601ED91FC910190F081B3
:100E4000E02DC6010995892B79F7C501DF91CF9176
:100E50001F910F91FF90EF90DF90CF90BF90AF90D8
:100E60000895EF92FF920F931F93CF93DF93EC01BE
:100E7000EC80FD806E157F050CF070C057FF04C03C
:100E8000240F351F50E040E08E819F81FA01E20F70
:100E9000F31F8E179F071CF49C01241B350B1216A1
:100EA00013060CF05BC0922F842F8695869586954D
:100EB0008E9DD0018F9DB00D11246A0F7B1FAF8DC9
:100EC000B8A1A60FB71F477049F188E0841B482FCF
:100ED000682F70E0FB01EE53FA4FE491281708F0F9
:100EE00063C0621B71092FEF30E002C03595279572
:100EF0006A95E2F7E2230130110539F0B0F10230D2
:100F0000110561F58C91E82702C08C91E82BEC93D8
:100F1000941720F12C813D81A20FB31FE92FE41B10
:100F2000E83078F00230110521F58E2F9C919095D4
:100F30009C932C813D81A20FB31F88508830B0F75D
:100F4000E770EE2359F0F0E0E654FA4FE4910130F7
:100F50001105F9F010F10230110519F1DF91CF916F
:100F60001F910F91FF90EF900895E0958C91E823E9
:100F7000CECF81E00115110509F480E081959E2F07
:100F80008C932C813D81A20FB31F98509830C0F7ED
:100F9000D7CF8C91E82BEC93E1CFE0958C91E823AF
:100FA000FACF8C91E827F7CF0130110509F4ADCFC6
:100FB000E0F20230110509F4A5CFAE0DBF1DAECF92
:100FC0000F931F93CF93DF9377FF04C0260F371F34
:100FD00070E060E0DC011496CD91DC91FB01E20F42
:100FE000F31FCE17DF071CF49E01261B370B1216CA
:100FF00013064CF5FA0157FD3796A3E0F595E795F2
:10100000AA95E1F7EC9FD001ED9FB00DFC9FB00DCC
:1010100011246A0F7B1FDC015F96ED91FC91E60FB6
:10102000F71F4770552781E090E001C0880F4A956F
:10103000EAF7482F0130110559F0A8F02E0F3F1F95
:1010400002301105E1F0DF91CF911F910F910895CA
:101050002E0F3F1FE217F307B1F38191DF011197C4
:10106000842B8C93F7CF80952E0F3F1FE217F30749
:1010700051F39191DF01119798239C93F7CFE217D9
:10108000F30709F38191DF01119784278C93F7CF40
:101090000F931F93FA01DC0156964C9156974230FC
:1010A000E9F04330A1F1413061F514964D915C9126
:1010B000DA01AE1BBF0BFD01E21BF30B77FD0BC08A
:1010C000DC0116964D915C916417750724F4AB0111
:1010D000BF010E94E0071F910F91089514964D9152
:1010E0005C91DA01A61BB70BBD0161507109DC01EF
:1010F00016964D915C91DA01AE1BBF0BFD01E21B10
:10110000F30B77FDE8CFAF010E943107E4CF1696CD
:101110004D915C91DA01A61BB70BBD0161507109BD
:10112000CDCF0F931F93FA01DC0156964C91569741
:101130004230A9F0433091F1413019F514964D91A8
:101140005C91DA01AE1BBF0BFD013197F7FD04C0C6
:10115000AB01BF010E9431071F910F9108951496B2
:101160004D915C91DA01A61BB70BBD01DC0116960F
:101170004D915C91DA01AE1BBF0BFD013197621BF3
:10118000730BF7FDE9CFDC0116964D915C91E417E6
:10119000F50714F7AF010E94E007DECF16964D91D8
:1011A0005C91DA01A61BB70BBD01621B730BCECF9E
:1011B000FC0177FD64C080859185681779070CF084
:1011C0005EC057FD5CC082859385481759070CF0B7
:1011D00056C086898230B1F0833029F1813041F4E4
:1011E00084819581841B950BAB01BC016150710911
:1011F0002130310509F108F443C02230310509F4EA
:1012000063C0089584819581DC01A61BB70BBD01E5
:101210006150710986819781DC01A41BB50BAD017A
:1012200041505109E5CF86819781861B970BBA0102
:10123000AC0141505109DCCFCA0157FD0796A3E02C
:1012400095958795AA95E1F7A481B5818A9F90012C
:101250008B9F300D9A9F300D1124620F731F078CE6
:10126000F0A1E02DE60FF71F4770552721E030E091
:1012700001C0220F4A95EAF78081822B808308956E
:10128000CA0157FD079633E0959587953A95E1F7A2
:10129000A481B5818A9F90018B9F300D9A9F300D5C
:1012A0001124620F731F078CF0A1E02DE60FF71FCA
:1012B0004770552781E090E001C0880F4A95EAF712
:1012C000809590818923DACFCA0157FD079623E0E4
:1012D000959587952A95E1F7A481B5818A9F90011C
:1012E0008B9F300D9A9F300D1124620F731F078C56
:1012F000F0A1E02DE60FF71F4770552721E030E001
:1013000001C0220F4A95EAF780818227B7CF20914A
:101310009E01260F3327331F29303105ECF420912D
:10132000AA01FC0190E080E0243069F082E0089599
:10133000A0919E012191AC014A565E4FA40FB52F9A
:10134000B11D2C930196861798F380919E01680F2A
:1013500060939E0180E0089581E008951092AA01B3
:1013600081E08093AC011092AB0161E082E10E94C8
:10137000730561E083E10E947305E9EBF0E0808191
:101380008E7F808380818D7F808388E98093B80001
:1013900085E48093BC000895CF93DF9391E0909310
:1013A00095018823B9F0C091B800D091BA0080911E
:1013B000BC008A7B8093BC0060E082E10E947305E0
:1013C00060E083E10E9473050E94AE09D093BA00E9
:1013D000C093B800DF91CF910895E091BE01809154
:1013E000BD01E81730F4F0E0E059FE4F808190E055
:1013F00008958FEF9FEF08959091BE018091BD01F8
:101400002FEF3FEF981748F4E92FF0E0E059FE4F37
:10141000208130E09F5F9093BE01C90108958091C3
:10142000BD019091BE01891B990B0895CF92DF9267
:10143000EF92FF920F931F93CF93DF937C01CB0129
:101440008A0120911003222389F0EB016B01C40E65
:10145000D51ECC15DD0569F06991D701ED91FC91A0
:101460000190F081E02DC7010995F3CF642F0E9410
:101470008709C801DF91CF911F910F91FF90EF90E5
:10148000DF90CF900895CF93DF931F92CDB7DEB753
:101490006983209110032223F9F020910D0320325B
:1014A00058F021E030E0FC013383228390E080E0BB
:1014B0000F90DF91CF91089580910E03E82FF0E017
:1014C000E05BFE4F998190838F5F80930E03809342
:1014D0000D0381E090E0ECCF61E0CE0101960E9427
:1014E0008709F7CFCF92DF92EF92FF920F931F936E
:1014F000CF93DF93D0910D0381E0D93008F09CC0E9
:10150000C0910F030E94A0066B017C018091AA018B
:1015100081116CC082E08093AA0181E08093AC01CC
:101520008FEF8093A9011092B601D093B501A0E589
:10153000B1E0EDEAF1E080E0D8138DC01092B70180
:101540008091B701CC0FC82BC093B7018091AB013C
:10155000813009F084C01092AB010E94A0066B019B
:101560007C018091B7018093BB00809191019091A3
:101570009201A0919301B0919401892B8A2B8B2B1E
:10158000A1F00E94A006009191011091920120917A
:101590009301309194016C197D098E099F090617FA
:1015A00017072807390708F442C08091BC0083FD63
:1015B000D8CF85EC8093BC000E94A0066B017C0113
:1015C0008091AA01823009F44CC08091A9018F3F1B
:1015D00009F469C08091A901803209F466C0809144
:1015E000A901803309F463C084E026C08091910191
:1015F00090919201A0919301B0919401892B8A2B33
:101600008B2B09F483CF0E94A006009191011091C9
:10161000920120919301309194016C197D098E09FA
:101620009F09061717072807390708F06FCF809121
:1016300090010E94CC0985E010920E0310920D03D8
:1016400010921003DF91CF911F910F91FF90EF90B7
:10165000DF90CF9008959D9191938F5F6DCF85EE30
:10166000A9CF8091910190919201A0919301B091A5
:101670009401892B8A2B8B2B09F4A2CF0E94A00600
:101680000091910110919201209193013091940168
:101690006C197D098E099F09061717072807390756
:1016A00008F08ECFC4CF80E0C7CF82E0C5CF83E003
:1016B000C3CF08958EBD0000CE99FECF8EB594E4C1
:1016C00099BB0895EF92FF920F931F93CF93DF93EF
:1016D0007C01C62F80913E0390913F03009709F44F
:1016E00059C02091420331E03093100320930F033F
:1016F00010920E0310920D03DC01ED91FC9101900C
:10170000F081E02D60E009958701EE24E394F12C4F
:10171000D1E0C15080913E0390913F03CF3F91F1C2
:10172000B0E2EB16F104D8F00E94720A80913E03F9
:1017300090913F0320914203D093100320930F0315
:1017400010920E0310920D03DC01ED91FC910190BB
:10175000F081E02D60E00995EE24E394F12C809176
:101760003E0390913F03F8016491DC01ED91FC91FF
:101770000190F081E02D0995BFEFEB1AFB0A0F5F96
:101780001F4FC7CFDF91CF911F910F91FF90EF9027
:101790000C94720AE0914E03F0914F039081809176
:1017A00054038095892380838701C15008F438C091
:1017B000F801849120913C0330913D03232B29F0C3
:1017C0000E945A0B0F5F1F4FF0CF28E030E040E837
:1017D000E0914A03F0914B0390915203582F542308
:1017E000D9F05081952B9083E0914C03F0914D03FB
:1017F000908150915303952B9083E0914C03F0918D
:101800004D03508190915303909595239083469575
:1018100021503109E9F6D6CF508190959523E3CF39
:10182000DF91CF911F910F91FF90EF9008951F933B
:10183000CF93DF93EC018D8D9E8D009721F1162FB4
:1018400029A131E03093100320930F0310920E036F
:1018500010920D03DC01ED91FC910190F081E02DDF
:1018600060E009958D8D9E8DDC01ED91FC910190DC
:10187000F081E02D612F09958D8D9E8DDF91CF91A7
:101880001F910C94720AADA5BEA59C918BA9809561
:1018900089238C938B8D9C8D892B31F0862FDF9142
:1018A000CF911F910C945A0B28E030E080E8A9A555
:1018B000BAA599A9462F4823C1F04C91942B9C932B
:1018C000ABA5BCA59C914AA9942B9C93ABA5BCA5A8
:1018D0004C919AA9909594239C9386952150310917
:1018E00031F7DF91CF911F9108954C9190959423FA
:1018F000E6CF8CBD9DBD0895DF92EF92FF920F93CE
:101900001F93CF93DF9380913E0390913F03892BE8
:1019100009F4A5C020915603309157034091580314
:101920005091590360E078E488EE91E00E94BC2B6E
:101930002051310941095109569547953795279509
:101940002093B80064E084E699E00E94620B8091E5
:101950002503909126038034910509F097C060E239
:1019600081E293E00E94170C60912503615E81E2A1
:1019700093E00E94170C2091270330912803C9019E
:10198000079697FD079633E0959587953A95E1F789
:101990002091250330912603829F8001839F100DA3
:1019A000929F100D1124C0914003D091410380916A
:1019B0003E0390913F030C0F1D1F009709F498C040
:1019C0002091420331E03093100320930F031092D3
:1019D0000E0310920D03DC01ED91FC910190F0815A
:1019E000E02D60E40995EE24E394F12CDD24D394FA
:1019F00080913E0390913F030C171D0709F44FC0DF
:101A0000B0E2EB16F104D8F00E94720A80913E0316
:101A100090913F0320914203D092100320930F0333
:101A200010920E0310920D03DC01ED91FC910190D8
:101A3000F081E02D60E40995EE24E394F12C80918F
:101A40003E0390913F036991DC01ED91FC9101907F
:101A5000F081E02D0995BFEFEB1AFB0AC9CF809109
:101A60003C0390913D03892B31F080915F0390916D
:101A700060030E94790CE0915003F0915103908132
:101A8000809155038095892380835CCF60E081E25B
:101A900093E00E94170C60912503615068CF0E946B
:101AA000720A80913E0390913F03892B09F461C033
:101AB00020915A0330915B0340915C0350915D0388
:101AC00060E078E488EE91E00E94BC2B205131095F
:101AD0004109510956954795379527952093B800A8
:101AE000DF91CF911F910F91FF90EF90DF900895BC
:101AF000E0914E03F0914F03808190915403892B24
:101B000080830C171D0769F2899120913C03309165
:101B10003D03232B19F00E945A0BF3CF28E030E04D
:101B200040E8E0914A03F0914B0390915203582F03
:101B30005423D9F05081952B9083E0914C03F09180
:101B40004D03908150915303952B9083E0914C036A
:101B5000F0914D035081909153039095952390837C
:101B6000469521503109E9F6CCCF508190959523C7
:101B7000E3CFE0915003F0915103808190915503A0
:101B8000892B8083ADCF1F93CF93DF93EC01162F6A
:101B90008D8D9E8D892BB1F12DA93EA94FA958ADF0
:101BA00060E078E488EE91E00E94BC2B205131097E
:101BB0004109510956954795379527952093B800C7
:101BC00066EA111167EACE010E94170C8D8D9E8D79
:101BD000892B41F129AD3AAD4BAD5CAD60E078E4C5
:101BE00088EE91E00E94BC2B205131094109510936
:101BF00056954795379527952093B800DF91CF915B
:101C00001F9108958B8D9C8D892B21F08EAD9FADFA
:101C10000E94790CEFA5F8A990818CA98095892361
:101C20008083CECFEFA5F8A980819CA9892B8083E2
:101C3000E5CF0895FC016370668B848195812681D0
:101C40003781613039F0633029F09187808733879D
:101C500022870895318720879387828708952F925E
:101C60003F924F925F926F927F928F929F92AF922C
:101C7000BF92CF92DF92EF92FF920F931F93CF9379
:101C8000DF93CDB7DEB76A970FB6F894DEBF0FBE0D
:101C9000CDBF9A8F898F7A8369834A01D22E1887A4
:101CA0000F833701BC2CDC0159962D913C915A973A
:101CB0002115310509F015C118968D919C91199740
:101CC000681779070CF0D7C11A968D919C91481727
:101CD00059070CF0D0C14C2C512CB6E0CB9E600DB6
:101CE000711D11247C876B87161617060CF0C3C173
:101CF000EA2DF0E0FA87E98793E0EE0FFF1F9A954F
:101D0000E1F7F88BEF87CF01840F951F181619069E
:101D10000CF0B1C1A98DBA8D58968C91811104C077
:101D2000BFEABD1508F4D394A98DBA8DED91FC914D
:101D300011970284F385E02DCD010995B5E0DB9E76
:101D4000C0011124E981FA81FC83EB83312C212C21
:101D50009C0126543F4F388F2F8B4A2D50E05E8BCD
:101D60004D8BEF89F88DE20DF31D44919E828D829B
:101D7000D12CC12C69817A81620D731D7A8B698B9C
:101D8000842F90E09C8B8B8BE98DFA8DA081B181A3
:101D900040FF82C0F1E0BF126FC0AF126DC01C9651
:101DA000ED91FC912F813885A4014C0D5D1D698951
:101DB0007A89898D9A8D0995EB89FC89F595E79546
:101DC0004E2F5FEFC51AD50A6D817E818D899E8960
:101DD000680F791F7E836D8398E0C916D10481F660
:101DE000AFEF2A1A3A0AEB81FC81E40DF51DFC8362
:101DF000EB83F5E02F16310409F0B3CF2F8138853E
:101E000026153705B9F0A98DBA8DED91FC91B1E099
:101E1000BB1257C0AB1255C069817A816B5F7F4F8F
:101E20000088F189E02D830128E030E0A401898D4C
:101E30009A8D0995A98DBA8DED91FC91119706881F
:101E4000F789E02DCD016A960FB6F894DEBF0FBE7C
:101E5000CDBFDF91CF911F910F91FF90EF90DF9059
:101E6000CF90BF90AF909F908F907F906F905F903A
:101E70004F903F902F9009941E96ED91FC91EF802A
:101E8000F88409851A8592014D815E816B817C8180
:101E9000898D9A8D099590CF2F8138852615370524
:101EA00009F48ACF31E0B31207C0A31205C01C9613
:101EB000ED91FC91930178CF1E96ED91FC91730109
:101EC000E0CF6B857C85641975090684F785E02D64
:101ED00073010F8518899201A401898D9A8D099546
:101EE000A9CFF90134969491329745915491D91A1A
:101EF000B7E0DB9E400D511D1124F901259134916D
:101F00003C8B2B8BFA0125903490FA013296749019
:101F100031963491398B329664903196449041E0F9
:101F20004C1518F04A1508F07FC0662D062C000CE1
:101F3000770B7C836B83842D042C000C990B9E8380
:101F40008D83A98DBA8DED91FC9111970284F38553
:101F5000E02DCD010995512CD12CC12CEA2DF0E0BA
:101F6000FA87E9872B2D30E03C872B87A401440DAD
:101F7000511D47FC5A95588F4F8B69817A81660DA8
:101F8000711D67FC7A957E876D877989C71608F081
:101F900051CF2C2D30E04D815E81420F531FA9851A
:101FA000BA854A9FC0014B9F900D5A9F900D1124F6
:101FB000FC01E80DF91DF88BEF87852D612C4F8909
:101FC000588D420F531F5E8B4D8B671408F050C025
:101FD00044244394480E877041F4C1010196EB8973
:101FE000FC89E20DF31DD4901C01D7FE19C0A98D08
:101FF000BA8DED91FC91662D70E0B1E0BB1219C075
:10200000AB1217C02D853E85620F731F0484F585C2
:10201000E02D2F8138854D895E89898D9A8D0995AE
:10202000DD0C6394842DD1CF1E821D821C821B8205
:1020300088CF4B815C81640F751FAB85BC856A9F1F
:10204000C0016B9F900D7A9F900D112469817A8158
:10205000680F791F0684F785E02DEF80F8840985E5
:102060001A859D014F855889898D9A8D0995D8CFFC
:10207000570CC3948ACF6A960FB6F894DEBF0FBE92
:10208000CDBFDF91CF911F910F91FF90EF90DF9027
:10209000CF90BF90AF909F908F907F906F905F9008
:1020A0004F903F902F9008958F929F92AF92CF9232
:1020B000EF92FF920F931F93CF93DF93EC01262FA4
:1020C000898D9A8D009709F051C06A30D1F41D8630
:1020D0001C868D8948E0849F900111248E859F8500
:1020E000820F931F9F878E8781E090E0DF91CF91D1
:1020F0001F910F91FF90EF90CF90AF909F908F9096
:1021000008956D3089F3CC88AD888F898823C1F01C
:102110008C859D8536E0C39E800D911D11244885D8
:1021200059854817590764F44E855F851D861C86BE
:1021300038E0A39EC0011124840F951F9F878E87CE
:10214000EA88FB88088919894E855F856C857D85BD
:10215000CE010E942F0E2C898C859D8546E0249F00
:10216000800D911D11249D878C87BECF6A3069F444
:102170001D861C86FC013896E4912D898E859F85ED
:10218000E29F800D911D1124ADCF6D3009F4ACCFCD
:10219000FC0134963491631708F4A6CF3296E4918B
:1021A000E61708F4A1CFFC01329685909490462F53
:1021B000431B342F47E0349F800C911C1124F40101
:1021C000329634913196E4913323A9F1EE2399F1BB
:1021D000CC88F4013596E491AD884F89442301F110
:1021E0000E2E000CFF0BE30FF11DCE9EA001CF9E23
:1021F000500D11246C857D85460F571F68857985A4
:10220000641775076CF44E855F851D861C86FC017E
:102210003896E491AE9E400D511D11245F874E8784
:10222000EA88FB88088919894E855F856C857D85DC
:10223000CE010E942F0EF4013496E4912C898C85F6
:102240009D85E29F800D911D11248DCF0F931F93CB
:10225000CF93DF938C01D0E0C0E0F801EC0FFD1FBD
:102260006491662341F081E293E00E945410892B2F
:1022700011F02196F2CFCE01DF91CF911F910F91F6
:102280000895682F81E293E00C9454106F927F922E
:102290008F929F92AF92BF92CF92DF92EF92FF9276
:1022A0000F931F93CF93DF93EC016B015A01390118
:1022B0004801E881F9810284F385E02D0995E881E0
:1022C000F9810288F389E02D87019301A501B60108
:1022D000CE010995A501480D591D41505109E881CC
:1022E000F9810288F389E02D9301B601CE010995A9
:1022F000E881F9810088F189E02D9401A501B601FA
:10230000CE010995C60CD71CB60161507109E88150
:10231000F9810088F189E02D9401A501CE0109958C
:10232000E881F9810688F789E02DCE01DF91CF9110
:102330001F910F91FF90EF90DF90CF90BF90AF90E3
:102340009F908F907F906F9009946F927F928F9261
:102350009F92AF92BF92CF92DF92EF92FF920F9334
:102360001F93CF93DF935C01EB016A0149013801B0
:102370008701DC01ED91FC916217730719F5641672
:1023800075062CF0962D872D3A01C92ED82E960170
:10239000261937092F5F3F4F048CF58DE02DA301DF
:1023A000BE01C5010995DF91CF911F910F91FF905B
:1023B000EF90DF90CF90BF90AF909F908F907F90E5
:1023C0006F9008954615570591F42617370724F0A6
:1023D000892D4B01C22FD82F9E01281939092F5F53
:1023E0003F4F068CF78DE02DA601B401DACF0284B1
:1023F000F385E02D0995D501ED91FC910488F589CF
:10240000E02D83019401A601BE01C5010995D50106
:10241000ED91FC910688F789E02DC501DF91CF9100
:102420001F910F91FF90EF90DF90CF90BF90AF90F2
:102430009F908F907F906F900994EF92FF920F93EF
:102440001F93DC011A960D911C911B9718962D91E4
:102450003C911997ED91FC9100A0F1A1E02D7B0139
:1024600050E040E070E060E009951F910F91FF900F
:10247000EF9008954F925F926F927F928F929F920A
:10248000AF92BF92CF92DF92EF92FF920F931F9382
:10249000CF93DF936C012B015A0139014801DC0114
:1024A000ED91FC910284F385E02D0995E201640C25
:1024B000751CD601ED91FC91C615D7055CF400881A
:1024C000F189E02D87019401A501BE01C60109959E
:1024D0002196EFCF0688F789E02DC601DF91CF91D5
:1024E0001F910F91FF90EF90DF90CF90BF90AF9032
:1024F0009F908F907F906F905F904F9009948F92F4
:102500009F92AF92BF92CF92DF92EF92FF920F9382
:102510001F93CF93DF93EC015B014A016901E881CE
:10252000F9810284F385E02D099595012C0D3D1D5F
:1025300021503109E881F9810488F589E02D78017D
:102540008401A401B501CE010995E881F9810688CD
:10255000F789E02DCE01DF91CF911F910F91FF9070
:10256000EF90DF90CF90BF90AF909F908F900994A5
:102570008F929F92AF92BF92CF92DF92EF92FF9293
:102580000F931F93CF93DF93EC015B014A01690125
:102590007801E881F9810284F385E02D0995C80C62
:1025A000D91C860101501109E881F9810488F58957
:1025B000E02D9501A401B501CE010995E881F981CD
:1025C0000688F789E02DCE01DF91CF911F910F9101
:1025D000FF90EF90DF90CF90BF90AF909F908F9043
:1025E0000994EF92FF920F931F93DC01ED91FC9100
:1025F00000A0F1A1E02D09951F910F91FF90EF90A0
:1026000008950F931F93DC01ED91FC91068CF78DDB
:10261000E02D09951F910F9108950F931F93DC01F1
:10262000ED91FC91048CF58DE02D09951F910F9192
:102630000895DC01ED91FC910084F185E02D099471
:102640002F923F924F925F926F927F928F929F92C2
:10265000AF92BF92CF92DF92EF92FF920F931F93B0
:10266000CF93DF9300D000D000D0CDB7DEB73C01D0
:102670006A013E832D83FC82EB825801A41AB50ABD
:10268000B7FE03C0B194A194B1088D809E80861AD4
:10269000970A97FE03C09194819491088A149B0431
:1026A0005CF0902F812F0D811E819D838E839C2D48
:1026B0008D2D6B01692F782F0C151D055CF09D8108
:1026C0008E817E836D83692F782F902F812F8601D5
:1026D000C92ED82E1601201A310A2B012D813E81D8
:1026E000421A530A57FE03C0519441945108710194
:1026F00037FE03C03FEFE31AF30AF594E7948D81A8
:102700009E81861797075CF5A1E0B0E0BA83A983A4
:10271000C016D1064CF1D301ED91FC910484F585EE
:10272000E02D2B813C81A8016D817E818A149B0460
:102730001CF04D815E81B801C3010995E418F508CC
:10274000F7FE0AC02D813E8189819A81280F391FA9
:102750003E832D83E20CF31C0F5F1F4FD9CF2FEF69
:102760003FEF3A832983D4CF26960FB6F894DEBF85
:102770000FBECDBFDF91CF911F910F91FF90EF90D2
:10278000DF90CF90BF90AF909F908F907F906F9091
:102790005F904F903F902F900895089590E080E0D3
:1027A00008958150853088F490E0FC01EE0FFF1F02
:1027B000E80FF91FE154FE4F8091F9028083809168
:1027C00005018183809104018283089580E68093CE
:1027D0007C0085EC80937A0080917A0086FDFCCFA6
:1027E000809179000895DC01ED91FD918081ED915A
:1027F000FD919081ED91FD916C9163708E2309F0B4
:1028000064609F2309F06860E0E1F4E1E60FF11DE8
:10281000659565956D936D917D918D919D910994CF
:1028200023C01AC012C016C010C01EC009C014C0F8
:1028300013C006C019C009C00DC007C00DC014C028
:1028400062507040804090400BC0615070408040AA
:10285000904006C06E5F01C06F5F7F4F8F4F9F4FEC
:102860009E938E937E936E93089580911103909121
:1028700012030C94F31380911303909114030C949E
:10288000F31380912003823078F4F89485E193E08B
:102890000E94F31360911C0370911D0380911E032D
:1028A00090911F0378940895F894F4CFE62F8C3F0D
:1028B00043E0940750F06CEF73E00E94942B362FA6
:1028C000330F330F20E0820F931F06B606FE17C0AA
:1028D00046B743702CEF33E002C0220F331F4A95F6
:1028E000E2F78217930750F42FB781BD92BDE0BD88
:1028F000F89484E08FBB82E08FBB2FBF089530E057
:1029000020E0EFCF8C3F43E0940750F06CEF73E092
:102910000E94942B362F330F330F20E0820F931F2A
:1029200006B606FE13C046B743702CEF33E002C074
:10293000220F331F4A95E2F78217930750F481BDA7
:1029400092BDF89A0000000080B5089530E020E0C4
:10295000F3CF80E008951F93CF93DF93EC01162F00
:10296000888199810E948214181729F0612F88812B
:1029700099810E945614CE01DF91CF911F91089545
:10298000EF92FF920F931F93CF93DF9300D0CDB7B9
:10299000DEB760910D0184E090E09A838983CE01D7
:1029A00001960E94AB149FEBE92E91E0F92E05E011
:1029B00010E0F70160811A830983CE0101960E941D
:1029C000AB14F7016181C80101969A838983CE0116
:1029D00001960E94AB14F7016281C80102969A83A6
:1029E0008983CE0101960E94AB14F3E0EF0EF11C37
:1029F0000D5F1F4F04311105E1F6EE24E394F12C35
:102A00000AE010E020E830E046E350E070E060E0EB
:102A100081E293E00E943A12109234031092330341
:102A2000109232031092310384E090E090932E03D1
:102A300080932D0387E390E09093300380932F03DE
:102A400088E790E00E9426110E947C0C64EF71E000
:102A500080E090E00E94C2060F900F90DF91CF912E
:102A60001F910F91FF90EF9008950F931F93CF93B5
:102A7000DF938C01EB010E9482148883C8010196C8
:102A80000E9482148983CE01DF91CF911F910F9113
:102A900008950C94821485ED8093BC00809191017F
:102AA00090919201A0919301B09194010796A11D7C
:102AB000B11D23E0B695A795979587952A95D1F7EF
:102AC0002091BC0024FD03C01092AA0108954091FA
:102AD0009101509192016091930170919401452B65
:102AE000462B472B69F30097A105B10541F025E579
:102AF0002A95F1F700000197A109B109E1CF809172
:102B000090010C94CC092091270330912803C9012E
:102B1000079697FD079623E0959587952A95E1F707
:102B20002091250330912603829FA001839F500DA1
:102B3000929F500D112470E060E0809140039091CD
:102B400041030C94682D2FEF280F253048F530E015
:102B5000F901EE0FFF1FE20FF31FE154FE4F9081CA
:102B60009093F902918190930501928190930401D1
:102B7000833009F43FC0F8F48230E1F160E086E090
:102B80000E940F0661E083E00E940F0660E083E090
:102B90000E94730580917A00887F846080937A0018
:102BA000EDEEF1E080E091E0DF019C011D9221500B
:102BB0003040E1F70895843051F18530F9F661E055
:102BC00083E00E940F068FE790E00E94A10560E07D
:102BD00086E00E940F0680917A00887F846080934F
:102BE0007A001092E9011092EA011092EB01109222
:102BF000EC01D6CF61E083E00E940F068FE790E002
:102C00000E94A10560E086E00E940F06C3CF61E04C
:102C100083E00E940F068FE790E00E94A10561E02B
:102C200086E00E940F0660E086E00E9473058091B6
:102C30007A008760B3CFFC0101900020E9F731975B
:102C4000AF01481B590BBC0181E293E00C940407CF
:102C5000CF93DF930E942611EC0184E491E00E945F
:102C60001B168C0F9D1FDF91CF9108958F929F921D
:102C7000AF92BF920F931F93CF93DF93CDB7DEB781
:102C8000A1970FB6F894DEBF0FBECDBF19A2423098
:102C900008F44AE08E010F5D1F4F842E912CB12C59
:102CA000A12CA50194010E94BC2BE62FB901CA01F9
:102CB000EA30F4F4E05DD801EE938D01232B242B50
:102CC000252B79F790E080E0109719F0CD010E9454
:102CD0001B16A1960FB6F894DEBF0FBECDBFDF91D5
:102CE000CF911F910F91BF90AF909F908F900895BB
:102CF000E95CE1CFCF92DF92EF92FF92CF93DF9327
:102D00006C01990FEE08FF08F7FE17C08DE20E94D4
:102D10004111EC0166277727CB016C197D098E09DB
:102D20009F094AE00E9436168C0F9D1FDF91CF91BC
:102D3000FF90EF90DF90CF9008954AE0C701B60171
:102D4000DF91CF91FF90EF90DF90CF900C943616EB
:102D5000EF92FF920F931F93809106018150990B80
:102D60002AE2289FB001299F700D11249B012C5D40
:102D70003F4FEE24E394F12C08E010E048E050E0EF
:102D800081E293E00E94A5112091F90281E090E098
:102D9000213011F490E080E090933203809331036E
:102DA00081E090E0213011F090E080E090933403D6
:102DB0008093330310922E0310922D031092300350
:102DC00010922F0384EB90E00E9426118EE190E098
:102DD00090932E0380932D031092300310922F03B3
:102DE00060910D0170E090E080E04AE00E943616AC
:102DF0002091F90281E090E0223011F490E080E02F
:102E0000909332038093310381E090E0223011F0FF
:102E100090E080E090933403809333038AE290E063
:102E200090932E0380932D031092300310922F0362
:102E300080910D01843009F445C0D0F58130E8F56A
:102E400088E490E090932E0380932D03109230033A
:102E500010922F036091050170E090E080E04AE05D
:102E60000E94361680910D018330A1F58091E0011A
:102E700081112BC090E080E021E030E030933203FC
:102E800020933103909334038093330384E590E0DF
:102E900090932E0380932D031092300310922F03F2
:102EA0008DE990E01F910F91FF90EF900C94261107
:102EB000853031F682EA90E002C08EEA90E00E940E
:102EC0002611BECF88EA90E0FACF81E090E030E0B2
:102ED00020E0D4CF853009F445C09091F90221E07B
:102EE00030E0933011F430E020E03093320320934F
:102EF000310321E030E0933011F030E020E03093F6
:102F000034032093330324E530E030932E032093E1
:102F10002D031092300310922F038230E9F0843099
:102F2000F1F0813021F487E990E00E94261182E7D8
:102F300090E090932E0380932D0310923003109213
:102F40002F0380910401082E000C990B1F910F9103
:102F5000FF90EF900C947A1681E990E0E6CF8BE831
:102F600090E0E3CF1F910F91FF90EF9008950E94A2
:102F7000512D1F920F920FB60F9211242F933F9352
:102F80008F939F93AF93BF93809105039091060316
:102F9000A0910703B09108033091040320E4230FAC
:102FA0002D3728F023EC230F0196A11DB11D20938E
:102FB00004038093050390930603A0930703B09343
:102FC00008038091090390910A03A0910B03B0912B
:102FD0000C030196A11DB11D8093090390930A0370
:102FE000A0930B03B0930C03BF91AF919F918F916E
:102FF0003F912F910F900FBE0F901F9018951F9229
:103000000F920FB60F9211242F933F934F935F931C
:103010006F937F938F939F93AF93BF93EF93FF93A0
:10302000E0911001F09111010995FF91EF91BF918D
:10303000AF919F918F917F916F915F914F913F9150
:103040002F910F900FBE0F901F9018951F920F9207
:103050000FB60F9211242F933F934F935F936F936B
:103060007F938F939F93AF93BF93EF93FF93E091E1
:103070000E01F0910F010995FF91EF91BF91AF9172
:103080009F918F917F916F915F914F913F912F9180
:103090000F900FBE0F901F9018951F920F920FB6B2
:1030A0000F9211242F933F934F935F936F937F93CE
:1030B0008F939F93AF93BF93EF93FF938091B9004A
:1030C000887F803609F44AC0F0F5883209F4A7C039
:1030D00018F5803109F49BC0B8F4882309F4F9C0CD
:1030E000883009F494C0FF91EF91BF91AF919F9107
:1030F0008F917F916F915F914F913F912F910F90A1
:103100000FBE0F901F901895883109F488C0803247
:1031100051F78093A90114C0803409F49DC040F494
:103120008033B9F38833F9F68093A90185ECB0C0F8
:10313000803509F485C0883509F496C0883499F63D
:103140000E944B15D0CF883909F48CC038F58837E8
:1031500029F050F4883611F0803729F683E0809307
:10316000AA011092A80157C0883809F47BC08039A1
:1031700019F0803809F0B7CF8091A801883008F0A5
:1031800071C0E091A80181E08E0F8093A801809129
:10319000BB00F0E0E056FE4F80833DC0803B39F03D
:1031A000E0F4803A09F479C0883A09F09CCF84E0D1
:1031B0008093AA0110929F0110929E01E091BB01A1
:1031C000F091BC01099580919E0181110FC081E0B1
:1031D00080939E011092960109C0803C09F4A6CF0D
:1031E000883C09F4A3CF883B09F07DCFE0919F0193
:1031F00081E08E0F80939F01F0E0EA56FE4F8081C0
:103200008093BB0090919F0180919E0129C0809185
:10321000B7018093BB0085EC8093BC0064CF909194
:10322000B6018091B501981758F5E091B60181E09B
:103230008E0F8093B601F0E0E355FE4F8081E9CF19
:10324000E091B60181E08E0F8093B6018091BB00C2
:10325000F0E0E355FE4F80839091B6018091B50177
:103260009817C8F285E8D8CFE091B60181E08E0FBB
:103270008093B6018091BB00F0E0E355FE4F808360
:103280008091AC0181115CCF81E08093AB0184EA35
:103290008093BC001092AA0126CF85EC8093BC00DD
:1032A0001092AA018091A801883030F4E091A80121
:1032B000F0E0E056FE4F10826091A80170E0E091CE
:1032C000B901F091BA0180EA91E009951092A80144
:1032D0000ACF1092A90134CF90E896BF8CE486BF44
:1032E00096BF86BF109224031092230320E830E09B
:1032F000309326032093250380E490E090932803E5
:103300008093270330932A032093290390932C035F
:1033100080932B031092370310922E0310922D03EB
:103320001092300310922F0381E080933603809334
:1033300035032FEF3FEF3093340320933303309363
:103340003203209331038093380310923903109293
:103350003B0310923A032CE131E030932203209397
:10336000210310923D0310923C0310923F031092F0
:103370003E03109241031092400399E0909345035D
:103380009AE0909346039BE0909347039CE09093D0
:1033900048039DE09093490391E590935F038093E8
:1033A000600362E082E00E940F0662E084E00E9417
:1033B0000F06E8EAF9E0E491F0E0EE0FFF1FE656B1
:1033C000F64F859194919093160380931503E0E84E
:1033D000F9E0E491E0931903EAEAF9E0E491F0E01E
:1033E000EE0FFF1FE656F64F8591949190931803C8
:1033F00080931703E2E8F9E0E491E0931A03109256
:103400001C0310921D0310921E0310921F0385E5EA
:1034100093E50197F1F7E0911503F0911603908180
:1034200080911903982381E009F480E0E09117036B
:10343000F0911803908120911A03922309F0826081
:1034400080931B0385E193E0909312038093110313
:1034500085E394E190930F0180930E0180916900C0
:103460008C7F816080936900E89A81E080932003DB
:103470000895CF93DF93CDB7DEB7A4970FB6F89436
:10348000DEBF0FBECDBF8091F20080618EBB80E8B1
:103490008093F2009EB39093F2008093610091E0DC
:1034A000909361009091F2009F799EBB8093F2000F
:1034B0009EB39093F2009091F2009B7F9EBB80930D
:1034C000F2009EB39093F20080936100109261002D
:1034D000789484B5826084BD84B5816084BD85B5EF
:1034E000826085BD85B5816085BD80916E008160FB
:1034F00080936E00109281008091810082608093A1
:1035000081008091810081608093810080918000A2
:103510008160809380008091B10084608093B100CD
:103520008091B00081608093B000809191008260B2
:1035300080939100809191008160809391008091AF
:10354000900081608093900080917A0084608093E5
:103550007A0080917A008D7F80937A0080917A0042
:103560008E7F80937A0080917A00806880937A00C1
:103570001092C10067E071E090E080E00E94351594
:1035800080910701909108018130910541F00196E9
:1035900031F081E090E0909308018093070181E091
:1035A00090E00E9449158093D2018D7F11F0109216
:1035B000D20162E071E082E090E00E9435158091D6
:1035C0000201909103010197CC9730F085E090E0E3
:1035D000909303018093020183E090E00E944915DB
:1035E00080930001823018F081E08093000184E034
:1035F00090E00E9449159FEF980F953010F480934A
:103600000D018091400390914103892B09F488C0FA
:103610000E94831582E08093430380913E03909142
:103620003F03892B09F032C261E0809147030E9479
:103630000F0661E0809148030E940F0680914703C6
:10364000082E000C990BFC01EA55F64FE491F0E0CE
:10365000EE0FFF1FE85AF64F2591349130934F0338
:1036600020934E03FC01E258F64FE491E09354039B
:1036700080914803082E000C990BFC01EA55F64F87
:10368000E491F0E0EE0FFF1FE85AF64FA591B491D8
:10369000B0935103A0935003FC01E258F64FE4911C
:1036A000E09355038C91E82BEC9380913C0390912F
:1036B0003D03892B09F4D2C21FB7F8948091B80159
:1036C000811127C0E0EBF9E08491E8E8F9E09491FA
:1036D000E82FF0E0EE0FFF1FE45BF64FA591B491E9
:1036E000EC91E92321F461E08AE00E94730561E036
:1036F0008AE00E940F068CB580618CBD8CB5806419
:103700008CBD61E08DE00E940F0661E08BE00E94BD
:103710000F068091B8018F5F8093B8011FBFD6C19B
:103720002091270330912803C901079697FD07963A
:1037300043E0959587954A95E1F7209125033091CF
:103740002603AC01429FC001439F900D529F900DF4
:1037500011240E942C2C9093410380934003892BC9
:1037600009F056CF6091D20181E293E00E941A0ED7
:103770000E94831581E0809335038093360381E0B6
:1037800090E09093340380933303909332038093BB
:10379000310380910001882309F454C0D12CC12C3D
:1037A0000E948315B12CA12C912C9EE0E92EF12CC6
:1037B00010E000E0C80187709927990C892B59F413
:1037C000F80183E0F595E7958A95E1F7EA0DFB1D91
:1037D000E452FA4F949097FE08C021E030E0A70130
:1037E000B80181E293E00E9419130F5F1F4F003868
:1037F000110501F75FEFE51AF50A60E1A60EB11CAD
:103800007CE2E716F104A1F698012C193D09F12C90
:10381000E12C0EE110E04EE050E0B60181E293E0D1
:103820000E943A120E947C0C8AE0C80ED11C92E8D9
:10383000C916D10409F0B4CF60E273E080E090E0F3
:103840000E94C20661E083E00E940F0662E085E00C
:103850000E940F0660E086E00E940F0660E087E0AD
:103860000E940F068091B100887F8093B100809103
:10387000B10081608093B100FFEBCF2EF1E0DF2E2D
:10388000A5E0EA2EF12CAA24A394B12C01E0C701F3
:103890000E944915982ED6018C93C70101960E946B
:1038A0004915182FF6018183C70102960E94491518
:1038B000D60112968C93B3E0B91510F4F60110827C
:1038C000F3E0AF16B10409F479C208F050C232E057
:1038D000A316B10409F460C2112309F45BC21930C4
:1038E00008F018E01093C001982F8B300CF09AE08C
:1038F0009A3F0CF49AEF9093C101811102C000939A
:10390000C1016FEFA61AB60A73E0E70EF11C83E05F
:10391000C80ED11C94E1E916F10409F0B8CF8091EA
:103920000D010E94A315DE011D96B98BA88BFE0127
:1039300031961F01009103030093020310910D01C2
:1039400010930C0185E00E944A0521E0009709F0E0
:1039500020E020930303892B09F050C2011111C00C
:103960000E94F4066093FE027093FF0280930003AE
:103970009093010381E08093FD021092FC0210926B
:10398000FB028091FD028823F9F08091FC028111F5
:103990001BC00E94F406C090FE02D090FF02E0908F
:1039A0000003F09001036C197D098E099F09683EA0
:1039B00073408105910540F0812F0E94D1130E9430
:1039C000C01481E08093FC02F0900303FF2071F1AA
:1039D0008091FA0281112FC08091FB028111F7C3FF
:1039E0008091FC02882309F4F2C30E94F40600913E
:1039F000FE021091FF022091000330910103601B31
:103A0000710B820B930B683B7B408105910508F499
:103A1000DEC381E08093FA028093FB0280930B0166
:103A20000E94411470930A01609309018091FA0287
:103A3000882309F4CCC300910701109108010E946A
:103A40004114E0910901F0910A01AF014D5F5F4F10
:103A5000461757070CF093C270930A01609309014F
:103A600080910B01813009F4B2C2823009F0CCC1DF
:103A700080910201909103018230910508F4D3C135
:103A800001979093030180930201CDC18091270398
:103A900090912803809709F0DFC08CE38093420364
:103AA0001092BE011092BD0110920E0310920D03F0
:103AB0000E94AE0981E097E09093BC018093BB0126
:103AC00082E097E09093BA018093B9018091490315
:103AD00087FD1EC061E00E940F0661E080914903EE
:103AE0000E94730561E070E080E090E00E94C206F1
:103AF00060E0809149030E9473056AE070E080E015
:103B000090E00E94C20661E0809149030E94730523
:103B100080913E0390913F03892B09F4E2C02091EC
:103B2000560330915703409158035091590360E078
:103B300078E488EE91E00E94BC2B205131094109C4
:103B4000510956954795379527952093B80064E01D
:103B500088ED95E00E94620B60912703615081E23D
:103B600093E00E94170C64E084ED95E00E94620BE4
:103B70008091430360E1813009F064E181E293E0E8
:103B80000E94170C64E080ED95E00E94620B8FE8C4
:103B900080935E03809125039091260380389105E0
:103BA00009F0B6C0809127039091280380349105D5
:103BB00009F0BEC080914303813009F0CCC08FE989
:103BC00080935E0312E16AED81E293E00E94170C9C
:103BD000612F81E293E00E94170C61E881E293E09B
:103BE0000E94170C60915E0381E293E00E94170C23
:103BF00069ED81E293E00E94170C8091430362E239
:103C0000813009F061EF81E293E00E94170C66E0D9
:103C10008AEC95E00E94620B80913E0390913F03F5
:103C2000892B09F49AC020915A0330915B0340918B
:103C30005C0350915D0360E078E488EE91E00E94BF
:103C4000BC2B2051310941095109569547953795AB
:103C500027952093B80086CD8DE320CF61E0809139
:103C600045030E940F0661E0809146030E940F0603
:103C700080914503082E000C990BFC01EA55F64F84
:103C8000E491F0E0EE0FFF1FE85AF64F25913491D2
:103C900030934B0320934A03FC01E258F64FE49122
:103CA000E093520380914603082E000C990BFC010F
:103CB000EA55F64FE491F0E0EE0FFF1FE85AF64F99
:103CC000A591B491B0934D03A0934C03FC01E2582D
:103CD000F64FE491E09353038C91E095E823EC9345
:103CE000F5CE80913C0390913D03892B31F080917A
:103CF0005F03909160030E94790CE0915003F09172
:103D000051039081809155038095892380831FCF33
:103D10008036910589F4809127039091280340977C
:103D200039F480914303813029F480E180935E036C
:103D300012E049CF8FEAFACF80349105C9F780911C
:103D4000270390912803809799F78091430381304E
:103D500011F480E135CF8FEC33CFE0915003F09137
:103D60005103808190915503892B8083FBCC44E0E3
:103D7000A416B10479F155E0A516B10409F0ACCD53
:103D80001123D1F1193008F018E01093CC01009301
:103D9000CD01B7CD11E0A6CD112371F0193008F097
:103DA00018E01093C30187300CF086E018160CF071
:103DB00081E08093C401A5CD11E0F3CF112341F040
:103DC000153008F014E01093C6010093C70199CD97
:103DD00011E0F9CF112371F0153008F014E01093C1
:103DE000C90189300CF088E018160CF081E080934E
:103DF000CA0187CD11E0F3CF11E0C7CF002309F44A
:103E0000C0CD1092FD02BDCD833041F41092D2019D
:103E100060E081E293E00E941A0E05C0843019F43C
:103E200081E0809300018091070190910801801743
:103E3000910721F01093080100930701809102037C
:103E40008111CBC0FF2009F4CAC080910B0183709F
:103E50008F5F80930B010E94F4066093CE017093F4
:103E6000CF018093D0019093D101C090CE01D0902A
:103E7000CF01E090D001F090D101C114D104E10450
:103E8000F10409F4B4C00E94F4066C197D098E098E
:103E90009F09603D77408105910508F4A8C01A820A
:103EA000198260910701C1010E94AB1401E010E08A
:103EB0001A83098360910801C1010E94AB146091CB
:103EC000D20181E090E00E9456146091020182E0EC
:103ED00090E09A838983C1010E94AB146091000134
:103EE00083E090E00E94561480910D010E94D1134E
:103EF0000E94C0140E94831510933403009333036F
:103F0000109332030093310380E190E090932E03ED
:103F100080932D0389E190E09093300380932F03E9
:103F20008DE298E00E9426110E947C0C60E273E012
:103F300080E090E00E94C2061092FA021092CE0138
:103F40001092CF011092D0011092D1010E94411421
:103F50002091070130910801269FA001279F500D55
:103F6000369F500D112450930A014093090180E0BF
:103F700090E0892B09F4DECC0E940000D8CCAF0180
:103F800043505109641775070CF04DCF70930A0127
:103F90006093090180910B018130E1F0823051F48E
:103FA00080910201909103018C33910508F03BCF81
:103FB000019667CD833029F482E08093D20162E0DC
:103FC00028CF843009F02FCF109200012CCF01E0D0
:103FD00010E029CF0FEF1FEF26CFF11046CF109240
:103FE000CE011092CF011092D0011092D1010E9407
:103FF000831510922E0310922D031092300310920D
:104000002F0381E090E090933403809333039093E7
:104010003203809331038DE198E00E94281684E4F6
:1040200091E00E941B1620910B0181E090E021306D
:1040300011F490E080E0909332038093310381E0AB
:1040400090E0213011F090E080E090933403809371
:10405000330383E198E00E94261181E090E0909381
:104060003403809333039093320380933103809120
:10407000070190910801019709F0A0C08CE098E039
:104080000E94281620910B0181E090E0223011F46B
:1040900090E080E0909332038093310381E090E0E0
:1040A000223011F090E080E090933403809333034A
:1040B0008BEF97E00E94261181E090E0909334030B
:1040C0008093330390933203809331036091020114
:1040D0007091030190E080E04AE00E94361689EF7B
:1040E00097E00E94281620910B0181E090E0233098
:1040F00011F490E080E0909332038093310381E0EB
:1041000090E0233011F090E080E0909334038093AE
:10411000330382EF97E00E94261181E090E09093B4
:10412000340380933303909332038093310380915F
:10413000D201811146C08CEE97E00E942816209192
:104140000B0181E090E0243011F490E080E0909346
:1041500032038093310381E090E0243011F090E04D
:1041600080E0909334038093330388ED97E00E94BE
:10417000261181E090E09093340380933303909371
:10418000320380933103809100018823E9F080ECB1
:1041900097E00E94281684E090E090932E0380938D
:1041A0002D0388E390E09093300380932F0383ECFA
:1041B00097E00E9426110E947C0CD9CE83E098E003
:1041C0005FCF84EE97E0B9CF8CEB97E0E2CF0E940F
:1041D00041148091FC0281115CC180910203811124
:1041E000B0C1FF2009F4AFC1809106019091F9029E
:1041F000981347C11092F9020E94F4066093F502E9
:104200007093F6028093F7029093F8020E94411493
:104210004091070150910801469F9001479F300D42
:10422000569F300D11248091090190910A0197FD4C
:10423000039695958795959587950091F90210912C
:104240000D01A9014350510957FDA9015595479505
:1042500055954795841795070CF0ABC130930A012B
:10426000209309010E94F4066093F5027093F60210
:104270008093F7029093F802013009F485C108F4A5
:104280007AC1023009F489C1033009F48CC110915C
:104290000D01133009F416C208F0C7C1113009F43A
:1042A000D7C1123009F4F2C180910C011817A9F09E
:1042B0000E94D113812F0E94A3150E948315013003
:1042C00011F40093F9020E94F4066093F5027093D2
:1042D000F6028093F7029093F8020E94F406C090D1
:1042E000F502D090F602E090F702F090F8029B0100
:1042F000AC012C193D094E095F092C8B3D8B4E8B6F
:104300005F8B2091020130910301A8EEB3E00E947F
:10431000032C688F798F8A8F9B8F133009F49AC38F
:1043200008F0F8C1113009F48DC2123009F043CF02
:1043300080910601882309F437C3843008F083E0B4
:104340008093060100910501002309F42FC3093071
:1043500008F008E0009305011091040117300CF4F7
:1043600027C316E0109304010E94F4066B017C0140
:10437000A12F110FBB0B119724E630E00E94122CE5
:104380006E5C7F4F8F4F9F4F8090D7019090D801E8
:10439000A090D901B090DA01C818D908EA08FB0842
:1043A000C616D706E806F90608F405CF0E94F406FB
:1043B0006093D7017093D8018093D9019093DA016B
:1043C0000E948315063008F4F8C284E1089F002D8E
:1043D00011240456FDEECF2EF1E0DF2E760110E021
:1043E0000E94E613D7018D937D01C801880F991FA4
:1043F000880F991F019700F400F000F400F000000E
:1044000000000197D1F7EDE6F2E0EA17FB0741F76C
:1044100070E060E05B01FFEFAF1ABF0AF601818137
:104420002FEFC21AD20A90E09595879595958795BA
:104430000FE310E0081B190B808190E0959587959C
:10444000959587954FE350E0481B590BEE24E39474
:10445000F12C950181E293E00E94A511B5016F371F
:104460007105C1F64C895D896E897F89888D998D2A
:10447000AA8DBB8D481759076A077B0708F09BCEAA
:1044800087C29FEF980F933008F0C0CE8093F90257
:10449000B3CEFF2009F457C08091F1029091F2024F
:1044A000A091F302B091F402892B8A2B8B2B51F44B
:1044B0000E94F4066093F1027093F2028093F3027B
:1044C0009093F4020E94F4060091F1021091F2021E
:1044D0002091F3023091F402601B710B820B930B5D
:1044E000683572408105910508F041CD0E94831521
:1044F00081E090E0909334038093330390933203F0
:1045000080933103809335038093360388E090E0F5
:1045100090932E0380932D038CE190E090933003D1
:1045200080932F0386E499E00E94261160910D018B
:1045300070E090E080E04AE00E9436168EE399E059
:1045400038CEF11063CE8091F1029091F202A091E9
:10455000F302B091F402892B8A2B8B2B09F456CEEF
:104560001092F1021092F2021092F3021092F402F1
:104570001092FC024BCE80910601815019F080937D
:10458000060185CE83E0FBCF115019F010930D0189
:104590007ECE85E080930D017ACE80910501815019
:1045A0008093050174CE80910401815080930401B1
:1045B0006ECEA9014D5F5F4F57FF02C04D5F5F4F49
:1045C0005595479555954795481759070CF05FCE77
:1045D00030930A01209309010E94F4066093F502CA
:1045E0007093F6028093F7029093F802013091F0F5
:1045F00048F00230B1F0033009F049CE8091040157
:104600008F5FD4CF809106018F5F843008F4B7CFDD
:1046100081E0B5CF1F5F163008F4B8CF00930D01CD
:1046200036CE809105018F5FBBCF143009F459C09D
:10463000153009F039CE80910501811103C088E061
:104640008093050180910501893008F046C038C08B
:1046500080910501811103C088E08093050180915C
:104660000501893018F081E08093050180910401F3
:104670008A3F1CF48AE080930401809104018B300E
:104680000CF412CE8AEF809304010ECE80910501C6
:10469000811103C088E08093050180910501893074
:1046A00018F081E0809305018091040118161CF038
:1046B00086E0809304018091040187300CF4F4CDEE
:1046C00081E0E1CF80910501811103C084E08093F6
:1046D000050180910501853098F381E08093050103
:1046E000EFCF80910501811102C0109305018091E7
:1046F0000501853018F081E0809305018091040167
:1047000018161CF088E08093040180910401893020
:10471000BCF6CACD143009F456C2153009F04BCDA1
:1047200080910601882309F4F6C3833008F082E003
:104730008093060180910501882309F4EEC3893036
:1047400008F088E0809305010E94F4060091ED02D4
:104750001091EE022091EF023091F002601B710B7C
:10476000820B930B603571058105910508F42CC40B
:104770000E94F4066093ED027093EE028093EF02C4
:104780009093F002F89480E680937C00ADEEB1E067
:104790004DEE52E0FD0136EC30937A0020917A0024
:1047A00026FDFCCF2091790021938FE594E00197BD
:1047B000F1F7000000004E175F0771F7789440E0B2
:1047C00050E0BA0180E02FEF9D91921708F4292F55
:1047D000891708F4892F490F511D611D711DEA17B2
:1047E000FB0791F7821B843108F4C7C3452F562F6E
:1047F000672F7727869586958695883008F488E018
:10480000082F040F481B51E08091ED01081708F0B4
:1048100050E02EEE31E0F0E0E0E070E060E0F12CFE
:1048200081E090E0D9011D919D01511178C30117DC
:1048300008F079C3F394FC016115710509F46BC5A7
:1048400051E071C380910601882309F4A4C084302B
:1048500008F083E08093060100910501002309F42C
:104860009CC0093008F008E0009305011091040194
:104870001B300CF494C01AE0109304010E94E6135C
:10488000F82E4FE750E06DEE71E08EEE91E00E9461
:10489000562D8F2D90E095958795959587958093CA
:1048A000ED010E94F406C090D301D090D401E090B5
:1048B000D501F090D6016C197D098E099F096E31E2
:1048C00071058105910508F476CC0E94F406609389
:1048D000D3017093D4018093D5019093D6010E94A7
:1048E000831589E090E04C01801A9108812F110F07
:1048F000990B019726E0289F2001299F500C112435
:104900008EE790E0B4010E94A82B3B01BDEEAB2ED8
:10491000B1E0BB2E1FE7C12ED12CB601D5014D91C0
:104920005D01C818D9080C91040D152D111D003416
:10493000110514F00FE310E017FF02C010E000E0D3
:10494000440D552D511D4034510514F04FE350E0F6
:1049500057FF02C050E040E0EE24E394F12C9601B2
:1049600081E293E00E94A511C5018D5E91408615FC
:1049700097059CF22C893D894E895F89688D798DD8
:104980008A8D9B8D261737074807590708F013CCE7
:104990000E94A81610CC81E05DCF01E065CF1A3FE0
:1049A0000CF06ACF1AEF68CF81E0CACC01E0D2CC1C
:1049B00011160CF4D7CC11E0D5CC86E090E05C0168
:1049C000A01AB10880E890E0B5010E94A82B4B0125
:1049D0000DEE11E00E94E613D8018D938D01CD01FB
:1049E0008D5E914088159905ACF39DEEC92E91E03E
:1049F000D92E70E060E0B1E08B1A91083501660EA7
:104A0000771EC6018D5E9140881599050CF02ACD60
:104A1000F60181812FEFC21AD20A90E09595879511
:104A2000959587950FE310E0081B190B808190E0A6
:104A300095958795959587954FE350E0481B590BC1
:104A4000EE24E394F12C930181E293E00E94A511FE
:104A5000B301D4CF80910601882309F49DC083302F
:104A600008F082E0809306018091050111E088231F
:104A700021F0182F853008F014E010930501009103
:104A8000E0010093DF0187E00E944A0521E00097E2
:104A900009F420E02093E00101113CC0892B09F4C6
:104AA00039C0A12FA150BB0B29E130E040E050E01C
:104AB00004C0220F331F441F551FAA95D2F7790156
:104AC00057EFC52E51E0D52E0DEE11E00E94E613F2
:104AD000D6018D936D01C701880F991F880F991F0B
:104AE000019700F400F000F400F0000000000197CE
:104AF000D1F7EDE6F2E0EA17FB0741F780E8D801CD
:104B00008D938D01E7EFF1E0EA17FB07C1F781E034
:104B10008093010180910101882309F43FC00E9424
:104B2000F4066093DB017093DC018093DD019093C8
:104B3000DE01109201010E9483154DEEC42E41E06A
:104B4000D42E70E060E05B01FFEFAF1ABF0AF60100
:104B500081812FEFC21AD20A90E09595879595959D
:104B600087950FE310E0081B190B808190E0959565
:104B70008795959587954FE350E0481B590BEE2498
:104B8000E394F12C950181E293E00E94A511B50117
:104B90006F377105C1F666CC81E064CF0E94F406E0
:104BA0000091DB011091DC012091DD013091DE01EB
:104BB000601B710B820B930B683C7105810591059D
:104BC00008F0ADCFF8CA80910601882309F49FC18F
:104BD000843008F083E080930601809105018823EA
:104BE00009F497C1853008F084E080930501809135
:104BF000040189300CF088E018160CF081E08093F5
:104C000004010E94F4060091E1011091E20120915B
:104C1000E3013091E401601B710B820B930B64364E
:104C200071058105910508F4C6CA0E94F4066093D7
:104C3000E1017093E2018093E3019093E401ADEE12
:104C4000B1E0BB8BAA8B7D0110E00E947506B4E039
:104C500095958795BA95E1F78058F70181937F0183
:104C6000E158FF4F10821F5F103879F7EDEEF1E049
:104C700090E080E041E050E020E830E03595279575
:104C8000B901680F791F60387105C4F7B901615027
:104C9000710986239723820F931F48175907ACF495
:104CA0002181DC01A351BE4F3C9131832C939F01A4
:104CB0002F573F4FD9016C918C0103591D4FD801DB
:104CC0007C91D9017C93D8016C934F5F5F4F3196F3
:104CD0004038510589F667E0662E712C882483944C
:104CE000912C2401440C551C21E030E0062C02C01C
:104CF000220F331F0A94E2F739A328A32CE338E0EC
:104D00008DEE91E0F901E05CFF4F5491F90144917F
:104D1000E52F550FFF0BBF01759567957D8F6C8F44
:104D20004195042E000C550B6A01D594C794D4010B
:104D3000A80FB91FBCA3ABA3FC01ABA1BCA14C91B4
:104D4000042E000C550B6C8D7D8D649F7001659F4A
:104D5000F00C749FF00C1124A058BF4FBF8FAE8F82
:104D60006C91062E000C770BC69E8001C79E100D1D
:104D7000D69E100D1124E6FABB27B0F95801AA0CF3
:104D8000AB2CAA1CBB081B2F1A19EE0CEF2CEE1C27
:104D9000FF08E10E06FB002700F9E01AAC8DBD8D7F
:104DA000A69F8001A79F100DB69F100D1124C49ED1
:104DB000B001C59E700DD49E700D1124AB01440F3F
:104DC000452F441F550B5801AA0CAB2CAA1CBB083D
:104DD0004A0D66FBAA24A0F8A40E06FB002700F9E2
:104DE0000A0D5F01B0E8AB0EB11CD5014C91042E49
:104DF000000C550B559547956081062E000C770BDE
:104E000075956795562F5E19ABA1BCA15C93542F85
:104E1000501BAE8DBF8D5C93E60EE082400FD50136
:104E20004C934BA15CA1440D551D5CA34BA3E40D19
:104E3000F51DAF014D5E5140403851050CF47DCF5A
:104E400068A179A1260F371F0196AC014D5E514034
:104E5000481559050CF456CF71E0671A71084201E4
:104E600009F03FCF0E948315D12CC12CAA89BB89A0
:104E70008D91BB8BAA8BFD01E158FF4F0081002E65
:104E8000000C110B17FF03C0119501951109082E95
:104E9000000C990B97FF03C0919581959109800FA4
:104EA000911F20910401220F330B8217930734F1D5
:104EB000209105012150330B2C9D80012D9D100D5B
:104EC0003C9D100D1124080F191F17FF02C010E0A0
:104ED00000E00034110514F00FE310E04FE350E060
:104EE000401B510BEE24E394F12C22E030E0B6019C
:104EF000660F771F81E293E00E943A12BFEFCB1A50
:104F0000DB0AE0E4CE16D10409F0B0CF33CD81E066
:104F100062CE81E06ACE81E00BCC81E013CC51E01F
:104F2000141708F450E001968115B1E09B0709F0D1
:104F300079CC21E02F1508F5E61BF70BE830F105D9
:104F4000E0F04F2D4150550BDA0128E23AE649E0F6
:104F500050E00E94242C9F0150E040E00E94BC2BB6
:104F600069017A01DA01C90180529340A109B109AE
:104F7000813E9143AC40B10518F0C12CD12C760193
:104F80008090E9019090EA01A090EB01B090EC01D3
:104F9000D701C6018D5D9540A109B10983349B49B4
:104FA000A740B10508F003C278EE871673E09706B4
:104FB000A104B10408F0B1C1C092E901D092EA01A4
:104FC000E092EB01F092EC010E94F4060091E50101
:104FD0001091E6012091E7013091E801601B710B0F
:104FE000820B930B663971058105910508F4E3C8BE
:104FF0000E94F4066093E5017093E6018093E70157
:105000009093E8010E9483152C893D894E895F8920
:10501000688D798D8A8D9B8D0AE010E02617370701
:105020004807590710F010E000E04090E901509067
:10503000EA016090EB017090EC01780178E0E70EF6
:10504000F11C8DED481685E058066104710408F4E2
:105050008EC2A4E0DA2E93E6491696E05906610462
:10506000710408F0BFC18DE28D871E86B12CD12C52
:10507000E889F98901900020E9F73197A889B98971
:10508000EA1BFB0B82E08093350380933603FF27F6
:1050900031968CE08E9F90018F9F300D112480E817
:1050A00090E0821B930B97FD0196959587959093C1
:1050B0002E0380932D03C8010496909330038093B0
:1050C0002F03CE010D960E941B168D2DDD0C990B22
:1050D0000E947A1681E08093350380933603CB2CAF
:1050E0000B2C000CDD08B7FE07C284E090E0909323
:1050F0002E0380932D03F0923003E0922F03C6011C
:105100000E947A1683E60E94411181E08093350364
:10511000809336036091E9017091EA018091EB017F
:105120009091EC0124E630E040E050E00E94BC2B7E
:1051300049012436310508F003C22AE030E040E09E
:1051400050E00E94BC2B3F932F939F928F9287E455
:1051500091E09F938F933F922F920E946F2D0FB6F5
:10516000F894DEBF0FBECDBFF10101900020E9F73A
:105170003197E219F30986E08E9F90018F9F300DE1
:10518000112480E890E0821B930B97FD0196959582
:10519000879590932E0380932D03085E1F4F1093E5
:1051A000300300932F03C1010E941B164C895D89B7
:1051B0006E897F89888D998DAA8DBB8D4817590777
:1051C0006A077B0708F0CDC1BCE2AB2EB12CEE2400
:1051D000E394F12C06E010E024E630E0A5016EE057
:1051E00070E081E293E00E944611A501425051090E
:1051F00001E010E02AE030E060E470E081E293E05A
:105200000E944808A5014F5F5F4FB601625C7F4F67
:1052100004E010E025E030E081E293E00E943A12E1
:1052200098E0A90EB11C2C893D894E895F89688D53
:10523000798D8A8D9B8D261737074807590708F403
:1052400094C12EE0EDEEF1E0C12C9FEF30E08191B2
:10525000891708F4982FC81608F4C82E3F5F303815
:10526000B1F78C2D891B8A3008F48AE0EDEE4E2EC2
:10527000E1E05E2E712C612C892E912CA22FA15081
:10528000BB0BBB8BAA8BC82ED12C21502C8FF201CB
:1052900041912F01208130E0281939096A897B89E1
:1052A000269FC001279F900D369F900D1124B601B7
:1052B0000E94942B0C8D061B0A0D1B2D111D9F01A6
:1052C0002D5E314050E048195909AA89BB894A9F8F
:1052D000C0014B9F900D5A9F900D1124B6010E9462
:1052E000942B4C8D461B4A0D5B2D511DEE24E394EF
:1052F000F12CB30181E293E00E94A511BFEF6B1A7C
:105300007B0AEFE76E16710411F681E08093350396
:1053100080933603A7C8BC0193CAA4E6B0E08C14FE
:105320009D04AE04BF04D0F5A701960128193909E0
:105330004A095B090E94192CA50194010E94BC2B0B
:1053400080910501E82FEE0FE80F26303105410569
:10535000510558F1EE5CA4E6B0E0AE1BB109A7011F
:1053600096010E94242C6B017C01AE2FB0E0A501B8
:1053700094010E94192C6C0D7D1D8E1D9F1D24E62D
:1053800030E040E050E00E94BC2B2093E9013093D4
:10539000EA014093EB015093EC0116CEA501940174
:1053A0002C193D094E095F09C5CFEA5BD4CFA5E5AD
:1053B000B0E0A50194010E94192C24E630E040E001
:1053C00050E00E94BC2B2C3D85E03807410551057B
:1053D000E0F61092E9011092EA011092EB011092AE
:1053E000EC01F2CDA3E34A16A6E65A066104710465
:1053F00040F4DD2031F0440C551C661C771CDA9417
:10540000F1CFB5E64B16BCEC5B066104710448F0C5
:10541000E7E0ED1534F07694679457944794D3946D
:10542000F0CF25E139E03B8B2A8B20E088248A9459
:10543000982C540130E0EA89FB8985919491B0E081
:10544000A0E084159505A605B70508F049C0B3018D
:10545000A201481B590B6A0B7B0BDB01CA018815A3
:105460009905AA05BB0518F44C015D01232F3F5F88
:105470006A897B896E5F7F4F7B8B6A8B3C30D9F664
:10548000822F880F90E0FC01E450F74FE491ED8704
:10549000FC01E350F74FE491EE871F86E03209F4F8
:1054A0001E86E22FF0E0EE0FFF1FEB5EF64F8590B9
:1054B0009490B12CA12CA3019201281939094A0911
:1054C0005B09ADEAB0E00E94192CA50194010E948D
:1054D000DE2BB22E72E3721744F452E3B52EC8CD20
:1054E00084199509A609B709BACF8EEC28170CF0D4
:1054F000BFCD4EECB42EBCCDBB2099F0B9E088E610
:1055000090E0BB1514F08EE690E090932E0380930C
:105510002D03F0923003E0922F038BE20E944111A1
:10552000EECD8EE690E090932E0380932D03F092C3
:105530003003E0922F038BE399E00E942611E5CD22
:105540009F922F938AE491E09F938F933F922F92A3
:105550000E946F2D0F900F900F900F900F900F9053
:1055600003CEA2E2AA2EB12C32CE2AE06BCE82E08C
:1055700080933503809336038CE290E090932E0362
:1055800080932D03F0923003E0922F0387E399E09C
:105590000E94261181E0809335038093360382E2D6
:1055A00090E090932E0380932D03065E1F4F10937F
:1055B000300300932F038DE299E00E9426112C897D
:1055C0003D894E895F89688D798D8A8D9B8D2617DF
:1055D00037074807590708F092C06CE2A62EB12C95
:1055E000EE24E394F12C06E010E024E630E0A5017F
:1055F0006EE070E081E293E00E944611A501425006
:10560000510901E010E02AE030E060E470E081E25E
:1056100093E00E94480878E0A70EB11C8C899D8910
:10562000AE89BF89288D398D4A8D5B8D821793078E
:10563000A407B50708F467C02EE0EDEEF1E0C12C39
:105640009FEF30E08191891708F4982FC81608F46D
:10565000C82E3F5F3038B1F78C2D891B8A3008F493
:105660008AE03DEE432E31E0532E712C612C892EC1
:10567000912C422F4150550B5B8B4A8BC82ED12C5D
:1056800021502C8FD2014D912D012C9130E0281901
:105690003909EA89FB892E9FC0012F9F900D3E9FFB
:1056A000900D1124B6010E94942B0C8D061B0A0D3F
:1056B0001B2D111D92012D5E314050E048195909F2
:1056C0004E9FC0014F9F900D5E9F900D1124B6011B
:1056D0000E94942B4C8D461B4A0D5B2D511DEE24D0
:1056E000E394F12CB30181E293E00E94A511FFEF56
:1056F0006F1A7F0A2FE76216710421F606CE52E276
:10570000A52EB12C6DCF2AE098CF8CE191E090933B
:1057100022038093210380914003909141030097DD
:1057200011F00C94C82C0895AA1BBB1B51E107C0B3
:10573000AA1FBB1FA617B70710F0A61BB70B881F21
:10574000991F5A95A9F780959095BC01CD010895B0
:1057500097FB072E16F4009407D077FD09D00E941E
:10576000942B07FC05D03EF4909581959F4F0895AA
:10577000709561957F4F0895A1E21A2EAA1BBB1B5D
:10578000FD010DC0AA1FBB1FEE1FFF1FA217B3070D
:10579000E407F50720F0A21BB30BE40BF50B661F23
:1057A000771F881F991F1A9469F7609570958095E7
:1057B00090959B01AC01BD01CF010895052E97FB8B
:1057C0001EF400940E94F52B57FD07D00E94BC2BBD
:1057D00007FC03D04EF40C94F52B50954095309572
:1057E00021953F4F4F4F5F4F08959095809570954D
:1057F00061957F4F8F4F9F4F0895EE0FFF1F0590CC
:10580000F491E02D0994A29FB001B39FC001A39F22
:10581000700D811D1124911DB29F700D811D1124E9
:10582000911D08950E94032CB7FF0895821B930BCE
:1058300008950E94032CA59F900DB49F900DA49FE6
:10584000800D911D11240895B7FF0C94192C0E940E
:10585000192C821B930B08950F931F93CF93DF9303
:105860008230910510F482E090E0E0916303F091C2
:10587000640330E020E0B0E0A0E0309799F4211517
:10588000310509F44AC0281B390B24303105D8F5FD
:105890008A819B816115710589F1FB019383828364
:1058A000FE0111C0408151810281138148175907BF
:1058B000E0F04817590799F4109761F012960C938D
:1058C000129713961C933296CF01DF91CF911F91BF
:1058D0000F9108950093630310936403F4CF21158F
:1058E000310551F04217530738F0A901DB019A0145
:1058F000BD01DF01F801C1CFEF01F9CF909364033F
:1059000080936303CDCFFE01E20FF31F8193919348
:105910002250310939832883D7CF209161033091F8
:105920006203232B41F4209114013091150130932F
:10593000620320936103209112013091130121151C
:10594000310541F42DB73EB7409116015091170132
:10595000241B350BE0916103F0916203E217F3071A
:10596000A0F42E1B3F0B2817390778F0AC014E5FCF
:105970005F4F2417350748F04E0F5F1F50936203A7
:1059800040936103819391939FCFF0E0E0E09CCF3F
:10599000CF93DF930097E9F0FC01329713821282D4
:1059A000A0916303B0916403ED0130E020E0109713
:1059B000A1F420813181820F931F209161033091E6
:1059C00062032817390709F061C0F0936203E0937E
:1059D0006103DF91CF910895EA01CE17DF07E8F563
:1059E0004A815B819E0141155105B1F7E901FB83B5
:1059F000EA8349915991C40FD51FEC17FD0761F453
:105A0000808191810296840F951FE9019983888393
:105A1000828193819B838A83F0E0E0E012968D91EE
:105A20009C9113970097B9F52D913C911197CD0159
:105A30000296820F931F2091610330916203281711
:105A4000390739F6309751F51092640310926303C9
:105A5000B0936203A0936103BCCFD383C283408120
:105A60005181840F951FC817D90761F44E5F5F4FAE
:105A700088819981480F591F518340838A819B8176
:105A8000938382832115310509F0B0CFF09364032D
:105A9000E09363039ECFFD01DC01C0CF138212822D
:105AA000D7CF81E090E0F8940C94503068177907D4
:105AB00068F4FB01DC01E40FF51FA40FB51F02C061
:105AC00002900E9241505040D8F708950C94772FD1
:105AD000DC0101C06D9341505040E0F70895AEE005
