:100000000C9429060C940B1D0C94E41C0C945106C2
:100010000C9451060C9451060C9451060C94510604
:100020000C9451060C9451060C9451060C945106F4
:100030000C9451060C9451060C9451060C945106E4
:100040000C949E1C0C9451060C9451060C94510671
:100050000C9451060C94511E0C9451060C945106AC
:100060000C94321D0C9451060C9400000C9400006A
:100070000C9400000C940000808386898C8F9295EC
:10008000989B9EA2A5A7AAADB0B3B6B8BBBEC0C38D
:10009000C5C8CACCCFD1D3D5D7D9DBDDDFE0E2E408
:1000A000E5E7E8E9EAECEDEEEFF0F0F1F2F2F3F378
:1000B000F4F4F4F5F5F5F5F553455454494E47532A
:1000C00020534156454400523A004F3A005A4300EB
:1000D000543A0047454E0054554E45005741564549
:1000E000004C464F0000000000003E5B4F5B3E3E70
:1000F0006B4F6B3E1C3E7C3E1C183C7E3C181C57D4
:100100007D571C1C5E7F5E1C00183C1800FFE7C377
:10011000E7FF0018241800FFE7DBE7FF30483A0646
:100120000E2629792926407F050507407F05253FB2
:100130005A3CE73C5A7F3E1C1C08081C1C3E7F149E
:10014000227F22145F5F005F5F06097F017F0066E8
:1001500089956A606060606094A2FFA29408047E42
:10016000040810207E201008082A1C08081C2A08F1
:10017000081E101010100C1E0C1E0C30383E3830AB
:10018000060E3E0E06000000000000005F000000AA
:1001900007000700147F147F14242A7F2A122313D8
:1001A00008646236495620500008070300001C22EC
:1001B00041000041221C002A1C7F1C2A08083E081E
:1001C000080080703000080808080800006060001F
:1001D00020100804023E5149453E00427F40007213
:1001E000494949462141494D331814127F1027458A
:1001F0004545393C4A4949314121110907364949A8
:100200004936464949291E000014000000403400C8
:10021000000008142241141414141400412214087C
:1002200002015909063E415D594E7C1211127C7F34
:10023000494949363E414141227F4141413E7F4942
:100240004949417F090909013E414151737F08082D
:10025000087F00417F41002040413F017F08142278
:10026000417F404040407F021C027F7F0408107F96
:100270003E4141413E7F090909063E4151215E7FD1
:1002800009192946264949493203017F01033F40A4
:1002900040403F1F2040201F3F4038403F6314082C
:1002A000146303047804036159494D43007F4141BD
:1002B000410204081020004141417F040201020470
:1002C0004040404040000307080020545478407FDD
:1002D000284444383844444428384444287F385417
:1002E00054541800087E090218A4A49C787F0804BE
:1002F000047800447D40002040403D007F102844A9
:100300000000417F40007C047804787C0804047875
:100310003844444438FC1824241818242418FC7C3D
:1003200008040408485454542404043F44243C4022
:1003300040207C1C2040201C3C4030403C44281085
:1003400028444C9090907C4464544C4400083641BE
:10035000000000770000004136080002010204029C
:100360003C2623263C1EA1A161123A4040207A3847
:1003700054545559215555794122545478422155A8
:1003800054784020545579400C1E527212395555FC
:100390005559395454545939555454580000457CD2
:1003A000410002457D420001457C407D1211127DD5
:1003B000F0282528F07C545545002054547C547C6A
:1003C0000A097F4932494949323A4444443A324A57
:1003D0004848303A4141217A3A42402078009DA075
:1003E000A07D3D4242423D3D4040403D3C24FF24F3
:1003F00024487E4943662B2FFC2F2BFF0929F6202A
:10040000C0887E090320545479410000447D413066
:1004100048484A32384040227A007A0A0A727D0DF2
:1004200019317D2629292F28262929292630484DAA
:100430004020380808080808080808382F10C8ACF9
:10044000BA2F102834FA00007B000008142A142266
:1004500022142A14085500550055AA55AA55AAFF7A
:1004600055FF55FF000000FF00101010FF0014148E
:1004700014FF001010FF00FF1010F010F0141414FF
:10048000FC001414F700FF0000FF00FF1414F40434
:10049000FC141417101F10101F101F1414141F0029
:1004A000101010F0000000001F101010101F10108E
:1004B0001010F010000000FF10101010101010109D
:1004C00010FF10000000FF140000FF00FF00001FDD
:1004D00010170000FC04F414141710171414F4047B
:1004E000F40000FF00F714141414141414F700F7A8
:1004F000141414171410101F101F141414F41410D3
:1005000010F010F000001F101F0000001F1400006A
:1005100000FC140000F010F01010FF10FF14141471
:10052000FF141010101F00000000F010FFFFFFFF6D
:10053000FFF0F0F0F0F0FFFFFF0000000000FFFF11
:100540000F0F0F0F0F3844443844FC4A4A4A347E98
:1005500002020606027E027E026355494163384468
:10056000443C04407E201E2006027E020299A5E73C
:10057000A5991C2A492A1C4C7201724C304A4D4DD7
:10058000303048784830BC625A463D3E49494900BF
:100590007E0101017E2A2A2A2A2A44445F444440DB
:1005A000514A444040444A51400000FF0103E0806A
:1005B000FF000008086B6B083612362436060F0958
:1005C0000F06000018180000001010003040FF0156
:1005D00001001F01011E00191D1712003C3C3C3C8C
:1005E00000000000002200FF21000103070F1F3F51
:1005F0007F0080C0E0F0F8FCFEDB40A4A62EAF2018
:1006000000A1C8D300408DAED580A80000600000D6
:10061000000000000000000000000000E0000000FA
:100620000000000000000000000001E000000000E9
:1006300000000000000000000001F00000000000C9
:10064000000000000000000003F0000000000000B7
:100650000000000000000007F000000000000000A3
:1006600000000000000007F800000000000000008B
:1006700000000000000FF800000003C0007E000032
:1006800001E0007F0FF800000003C000FE00000141
:10069000E000FFEFF800000003C000FE000001E0F2
:1006A00000FFFFF800000003C000F00000000F0092
:1006B0007FFE7FC0000003C000F00000000F003F7D
:1006C000FE7FF83FF1FBCFFCFEF3BC3DEFE01FFEE9
:1006D0007FFF7FFBFFDFFEFEFFBC3DEFE01FC6FF9D
:1006E000FF7FFBFFDFFEFEFFBC3DEFE00FE3C7FE39
:1006F000787BC3DE1EF0FFBC3DEF0007FF87FC7870
:100700007BC3DE1EF0F83C3DEF0001FFFFF0007BF5
:10071000C3C01EF0F03C3DEF0001F37FE03FFBC3A0
:10072000CFFEF0F03C3DEF0003E33F807FFBC3DFF3
:10073000FEF0F03C3DEF0007E73C00787BC3DE1E97
:10074000F0F03C3DEF0007FFBE00787BC3DE1EF0FB
:10075000F03C3DEF0007FFFE00787BC3DE1EF0F0AB
:100760003C3DEF000FFFFE007FFBFFDFFEF0F03FA0
:10077000FDEFE00FFFFF007FFBFFDFFEF0F03FFD2E
:10078000EFE00FF9FF003E79F9CF9EF0F01F3DE753
:10079000E01FF1FF0000000000000000000000006A
:1007A0001F80FF007FFFFFFFFFFFFFFFFFFFE01C39
:1007B000007F007FFFFFFFFEB46D888D18E0000012
:1007C0001F007FFFFFFFFE95AD7DB577E000000FB6
:1007D000007FFFFFFFFEA5AD9D8D19E00000060024
:1007E0007FFFFFFFFEB5ADEDB57EE000000000002D
:1007F00001800000000000000000000380000000F5
:1008000000000000000007C0000000000000000021
:100810000007C00000000000000000000FC0000042
:10082000000000000000001FE000000000000000C9
:1008300000001FE00000000000000000003FE0009A
:1008400000000000000000003FF000000000000079
:100850000000007FF0000000000000001FF87FF0A3
:10086000000000000000003FFE7FF00000000000DC
:1008700000003FFF7FF0000000000000001FFFFBB2
:10088000E0000000000000000FFFF9FFC0000000C2
:100890000000000FFFF9FFF800000000000007FF54
:1008A000F1FFFF00000000000003FC73FFFF800069
:1008B0000000000001FE3FFFFF800000000000007C
:1008C000FF1E0FFF000000000000007FFE1FFC0065
:1008D0000000000000003FFFFFF8000000000000E3
:1008E000000FDFFFE0000000000000001F19FFC044
:1008F000000000000000003F3CFF0000000000007E
:1009000000007E7CF800000000000000007FFE7CFC
:100910000000000000000000FFFFFC0000000000DD
:10092000000000FFFFFE0000000000000000FFFFCD
:10093000FE0000000000000001FFEFFE00000000CC
:1009400000000001FFCFFE0000000000000003FFD8
:1009500007FE0000000000000003FC07FE0000008E
:100960000000000003F003FE000000000000000192
:100970008000FE000000000000000000007E00007B
:1009800000000000000000003E0000000000000029
:100990000000000C000000000000078000FC0000C8
:1009A00003C0000000078001FC000003C00000003D
:1009B000078001FC000003C0000000078001E00088
:1009C00000001E000000078001E00000001E007F04
:1009D000E3F79FF9FDE7787BDFC0FFF7FFBFFDFD81
:1009E000FF787BDFC0FFF7FFBFFDFDFF787BDFC037
:1009F000F0F787BC3DE1FF787BDE00F0F787BC3D78
:100A0000E1F0787BDE0000F787803DE1E0787BDE77
:100A1000007FF7879FFDE1E0787BDE00FFF787BF6F
:100A2000FDE1E0787BDE00F0F787BC3DE1E0787B1C
:100A3000DE00F0F787BC3DE1E0787BDE00F0F78771
:100A4000BC3DE1E0787BDE00FFF7FFBFFDE1E07F2A
:100A5000FBDFC0FFF7FFBFFDE1E07FFBDFC07CF302
:100A6000F39F3DE1E03E7BCFC000000000000000AE
:100A700000000000FFFFFFFFFFFFFFFFFFFFC0FFC1
:100A8000FFFFFFFD68DB111A31C0FFFFFFFFFD2BE9
:100A90005AFB6AEFC0FFFFFFFFFD4B5B3B1A33C001
:100AA000FFFFFFFFFD6B5BDB6AFDC020444143009D
:100AB0002033323800204C47540076320076322EF4
:100AC00035004D6F64756C6F76652076332E370078
:100AD00053434F5045002033323800204C475400D8
:100AE00076320076322E3500486F6C6420327320E7
:100AF0000044414320476E3A2000444143204F6662
:100B0000733A20003138300030004F4C45443A20D1
:100B10000054696D65723A2000526576004E6F721E
:100B20006D00456E633A200053455454494E475377
:100B30000053455454494E475320534156454400B1
:100B400054524947007F3F1F0F07030100432043D2
:100B50002344204423452046204623472047234161
:100B6000204123422000380AD40A790B270CE00CDC
:100B7000A40D740E500F3910301136124B134E6FF6
:100B8000207369676E616C002D2D2D004F4B004363
:100B9000414C3A0053494E005452490053415700CA
:100BA00053515200444320000100020005000A0096
:100BB000140032006400C800F401E803D007881371
:100BC0001027204E43414C3A004441433A004745E8
:100BD0004E206E656564732076322E35000000006D
:100BE00000240027002A002D000000000025002816
:100BF000002B002E00000000002300260029002CFE
:100C000000040404040404040402020202020203B5
:100C10000303030303050505050505050301020498
:100C2000081020408001020408102001020408106E
:100C3000200208010410402040000000085002017A
:100C40000000030407000000000000000000000096
:100C5000ED1E11241FBECFEFD8E0DEBFCDBF11E0E7
:100C6000A0E0B1E0EAEFF2E702C005900D92A835EE
:100C7000B107D9F724E0A8E5B1E001C01D92A03288
:100C8000B207E1F716E0C9E2D6E004C02197FE0101
:100C90000E946B37C832D107C9F70E94F41E0C942A
:100CA0007B390C9400003F924F925F926F927F923B
:100CB0008F929F92AF92BF92CF92DF92EF92FF926C
:100CC0000F931F93CF93DF9300D000D0CDB7DEB743
:100CD0009C838B833B016A015901DC01ED91FC91FE
:100CE0000284F385E02D09952801B7E04B0E511CD5
:100CF00093E0559447949A95E1F7C6018E0D9F1D98
:100D00009A838983912C812C312CF12CE12CC70101
:100D100087709927330C892B59F4F70183E0F595F7
:100D2000E7958A95E1F7E80DF91DEA0DFB1D349072
:100D300037FE10C0AB81BC81ED91FC91119704840A
:100D4000F585E02D21E030E0A601B701660D771DA5
:100D5000CD010995BFEFEB1AFB0A0E151F05B9F679
:100D60008FEFC81AD80A840C951CA981BA81CA16BB
:100D7000DB0659F6AB81BC81ED91FC911197068899
:100D8000F789E02DCD010F900F900F900F90DF911C
:100D9000CF911F910F91FF90EF90DF90CF90BF9078
:100DA000AF909F908F907F906F905F904F903F900B
:100DB000099481508B3088F5E82FF0E0EE51F94F1F
:100DC0000C946B37F706FB06ED06F3060D070D07CF
:100DD000FE06040708070E071207809180008F7730
:100DE000809380000895809180008F7DF9CF84B535
:100DF0008F7784BD089584B58F7DFBCF8091B0003F
:100E00008F778093B00008958091B0008F7DF9CFE7
:100E1000809190008F77809390000895809190004A
:100E20008F7DF9CF80919000877FF5CFCF93DF93AF
:100E3000282F30E0F901E75CF34F8491F901E35E7C
:100E4000F34FD491F901EF5FF34FC491CC23A1F09C
:100E500081110E94D906EC2FF0E0EE0FFF1FEB503E
:100E6000F44FA591B491EC91ED2381E090E009F469
:100E700080E0DF91CF91089580E090E0FACF1F935A
:100E8000CF93DF93282F30E0F901E75CF34F849193
:100E9000F901E35EF34FD491F901EF5FF34FC49191
:100EA000CC23A9F0162F81110E94D906EC2FF0E077
:100EB000EE0FFF1FE751F44FA591B4918FB7F8944F
:100EC000EC91111108C0D095DE23DC938FBFDF9128
:100ED000CF911F910895DE2BF8CFCF93DF93282F6A
:100EE00030E0F901E35EF34F94912F5F334FF90146
:100EF0002491633029F5843039F53091A0003C60AD
:100F00003093A0002223C9F030E0220F331FF901F3
:100F1000E352F44FA591B491F901E751F44FC59113
:100F2000D491611126C02FB7F8948C9190958923A4
:100F30008C938881982398832FBFDF91CF91089558
:100F4000843011F433E0DCCF3AEE380F323020F445
:100F50003FEF34BF34BFD6CF8931A1F63091F000D6
:100F600032603EBB30E83093F0003EB33093F00087
:100F7000C9CF623051F42FB7F8943C91892F8095F6
:100F800083238C93E8819E2BD6CF843011F461307B
:100F9000A1F68FB7F894EC919E2B9C938FBFCDCF89
:100FA000E82FF0E0E75CF34FE491E73009F447C045
:100FB000D0F4E230A9F148F4E13069F1603871050C
:100FC0000CF061C060E00C943F07E33071F1E43055
:100FD000A9F78091800080628093800070938B00DD
:100FE00060938A000895EA30D1F170F4E83079F125
:100FF000E93021F780919000806880939000709391
:101000009900609398000895EB3099F1E035B1F6BE
:101010006093A100089584B5806884BD67BD08957C
:1010200084B5806284BD68BD089580918000806829
:101030008093800070938900609388000895809168
:10104000B00080688093B0006093B30008958091F1
:10105000B00080628093B0006093B40008958091E6
:10106000900080628093900070939B0060939A0040
:1010700008958091900088608093900070939F0005
:1010800060939E00089561E09ECF80917A00806415
:1010900080937A0080917A0086FDFCCF8091780061
:1010A0009091790008950F931F93CF93DF93EDEA0A
:1010B000F0E08081807F80838091220120E4829F04
:1010C000C0011124876080937C000DE710E0F801D7
:1010D0008081806280830E944508EC01F801808154
:1010E0008F7D80830E9445088C0F9D1F9C01369543
:1010F0002795892F9927A901481B590BCA01DF9110
:10110000CF911F910F9108953FB7F89480911804E3
:1011100090911904A0911A04B0911B0426B5A89BC4
:1011200005C02F3F19F00196A11DB11D3FBFBA2F79
:10113000A92F982F8827BC01CD01620F711D811D39
:10114000911D660F771F881F991F08958F929F9298
:10115000AF92BF92CF92DF92EF92FF924B015C0170
:101160000E9484086B017C010E9484086C197D092F
:101170008E099F09683E734081059105A8F321E01F
:10118000821A9108A108B10888EEC80E83E0D81E23
:10119000E11CF11C81149104A104B10429F7FF9012
:1011A000EF90DF90CF90BF90AF909F908F90089579
:1011B0002FB7F8946091140470911504809116046F
:1011C000909117042FBF0895089508950895DC01A4
:1011D000ED91FC910190F081E02D0994EF92FF9246
:1011E0000F931F93CF93DF938C017B01D0E0C0E07E
:1011F000F701EC0FFD1F6491662361F0D801ED91BA
:10120000FC910190F081E02DC8010995892B11F026
:101210002196EECFCE01DF91CF911F910F91FF90DC
:10122000EF900895AF92BF92CF92DF92EF92FF922C
:101230000F931F93CF93DF936C017B018B01040FFE
:10124000151FEB015E01AE18BF08C017D10759F09A
:101250006991D601ED91FC910190F081E02DC601DC
:101260000995892B79F7C501DF91CF911F910F91D6
:10127000FF90EF90DF90CF90BF90AF900895EF92E6
:10128000FF920F931F93CF93DF93EC01EC80FD80CF
:101290006E157F050CF070C057FF04C0240F351F7A
:1012A00050E040E08E819F81FA01E20FF31F8E171C
:1012B0009F071CF49C01241B350B121613060CF01F
:1012C0005BC0922F842F8695869586958E9DD00142
:1012D0008F9DB00D11246A0F7B1FAF8DB8A1A60F93
:1012E000B71F477049F188E0841B482F682F70E0D2
:1012F000FB01EF50FA4FE491281708F063C0621B1E
:1013000071092FEF30E002C0359527956A95E2F715
:10131000E2230130110539F0B0F10230110561F519
:101320008C91E82702C08C91E82BEC93941720F164
:101330002C813D81A20FB31FE92FE41BE83078F028
:101340000230110521F58E2F9C9190959C932C8154
:101350003D81A20FB31F88508830B0F7E770EE23AD
:1013600059F0F0E0E751FA4FE49101301105F9F03E
:1013700010F10230110519F1DF91CF911F910F91FA
:10138000FF90EF900895E0958C91E823CECF81E017
:101390000115110509F480E081959E2F8C932C8115
:1013A0003D81A20FB31F98509830C0F7D7CF8C91D2
:1013B000E82BEC93E1CFE0958C91E823FACF8C9168
:1013C000E827F7CF0130110509F4ADCFE0F2023084
:1013D000110509F4A5CFAE0DBF1DAECF0F931F931E
:1013E000CF93DF9377FF04C0260F371F70E060E0D4
:1013F000DC011496CD91DC91FB01E20FF31FCE17B7
:10140000DF071CF49E01261B370B121613064CF542
:10141000FA0157FD3796A3E0F595E795AA95E1F710
:10142000EC9FD001ED9FB00DFC9FB00D11246A0F11
:101430007B1FDC015F96ED91FC91E60FF71F477073
:10144000552781E090E001C0880F4A95EAF7482FC0
:101450000130110559F0A8F02E0F3F1F0230110581
:10146000E1F0DF91CF911F910F9108952E0F3F1F53
:10147000E217F307B1F38191DF011197842B8C936D
:10148000F7CF80952E0F3F1FE217F30751F391918D
:10149000DF01119798239C93F7CFE217F30709F325
:1014A0008191DF01119784278C93F7CF0F931F93BE
:1014B000FA01DC0156964C9156974230E9F04330E0
:1014C000A1F1413061F514964D915C91DA01AE1BAA
:1014D000BF0BFD01E21BF30B77FD0BC0DC01169681
:1014E0004D915C916417750724F4AB01BF010E9414
:1014F000EE091F910F91089514964D915C91DA01B8
:10150000A61BB70BBD0161507109DC0116964D9108
:101510005C91DA01AE1BBF0BFD01E21BF30B77FD03
:10152000E8CFAF010E943F09E4CF16964D915C9140
:10153000DA01A61BB70BBD0161507109CDCF0F9326
:101540001F93FA01DC0156964C9156974230A9F050
:10155000433091F1413019F514964D915C91DA01C7
:10156000AE1BBF0BFD013197F7FD04C0AB01BF01FE
:101570000E943F091F910F91089514964D915C911F
:10158000DA01A61BB70BBD01DC0116964D915C91EB
:10159000DA01AE1BBF0BFD013197621B730BF7FD28
:1015A000E9CFDC0116964D915C91E417F50714F72D
:1015B000AF010E94EE09DECF16964D915C91DA01E3
:1015C000A61BB70BBD01621B730BCECFFC0177FDD1
:1015D00064C080859185681779070CF05EC057FD5F
:1015E0005CC082859385481759070CF056C08689E0
:1015F0008230B1F0833029F1813041F484819581CA
:10160000841B950BAB01BC01615071092130310580
:1016100009F108F443C02230310509F463C008958C
:1016200084819581DC01A61BB70BBD016150710956
:1016300086819781DC01A41BB50BAD014150510996
:10164000E5CF86819781861B970BBA01AC0141508B
:101650005109DCCFCA0157FD0796A3E09595879500
:10166000AA95E1F7A481B5818A9F90018B9F300DE7
:101670009A9F300D1124620F731F078CF0A1E02D8B
:10168000E60FF71F4770552721E030E001C0220F19
:101690004A95EAF78081822B80830895CA0157FD1D
:1016A000079633E0959587953A95E1F7A481B58142
:1016B0008A9F90018B9F300D9A9F300D1124620FED
:1016C000731F078CF0A1E02DE60FF71F4770552719
:1016D00081E090E001C0880F4A95EAF780959081FB
:1016E0008923DACFCA0157FD079623E095958795A0
:1016F0002A95E1F7A481B5818A9F90018B9F300DD7
:101700009A9F300D1124620F731F078CF0A1E02DFA
:10171000E60FF71F4770552721E030E001C0220F88
:101720004A95EAF780818227B7CF08958EBD0000E1
:10173000CE99FECF8EB594E499BB08958CBD9DBD26
:1017400008950895FC016370668B848195812681DC
:101750003781613039F0633029F091878087338792
:1017600022870895318720879387828708952F9253
:101770003F924F925F926F927F928F929F92AF9221
:10178000BF92CF92DF92EF92FF920F931F93CF936E
:10179000DF93CDB7DEB76A970FB6F894DEBF0FBE02
:1017A000CDBF9A8F898F7A8369834A01D22E188799
:1017B0000F833701BC2CDC0159962D913C915A972F
:1017C0002115310509F015C118968D919C91199735
:1017D000681779070CF0D7C11A968D919C9148171C
:1017E00059070CF0D0C14C2C512CB6E0CB9E600DAB
:1017F000711D11247C876B87161617060CF0C3C168
:10180000EA2DF0E0FA87E98793E0EE0FFF1F9A9543
:10181000E1F7F88BEF87CF01840F951F1816190693
:101820000CF0B1C1A98DBA8D58968C91811104C06C
:10183000BFEABD1508F4D394A98DBA8DED91FC9142
:1018400011970284F385E02DCD010995B5E0DB9E6B
:10185000C0011124E981FA81FC83EB83312C212C16
:101860009C012B513F4F388F2F8B4A2D50E05E8BC0
:101870004D8BEF89F88DE20DF31D44919E828D8290
:10188000D12CC12C69817A81620D731D7A8B698B91
:10189000842F90E09C8B8B8BE98DFA8DA081B18198
:1018A00040FF82C0F1E0BF126FC0AF126DC01C9646
:1018B000ED91FC912F813885A4014C0D5D1D698946
:1018C0007A89898D9A8D0995EB89FC89F595E7953B
:1018D0004E2F5FEFC51AD50A6D817E818D899E8955
:1018E000680F791F7E836D8398E0C916D10481F655
:1018F000AFEF2A1A3A0AEB81FC81E40DF51DFC8357
:10190000EB83F5E02F16310409F0B3CF2F81388532
:1019100026153705B9F0A98DBA8DED91FC91B1E08E
:10192000BB1257C0AB1255C069817A816B5F7F4F84
:101930000088F189E02D830128E030E0A401898D41
:101940009A8D0995A98DBA8DED91FC911197068814
:10195000F789E02DCD016A960FB6F894DEBF0FBE71
:10196000CDBFDF91CF911F910F91FF90EF90DF904E
:10197000CF90BF90AF909F908F907F906F905F902F
:101980004F903F902F9009941E96ED91FC91EF801F
:10199000F88409851A8592014D815E816B817C8175
:1019A000898D9A8D099590CF2F8138852615370519
:1019B00009F48ACF31E0B31207C0A31205C01C9608
:1019C000ED91FC91930178CF1E96ED91FC917301FE
:1019D000E0CF6B857C85641975090684F785E02D59
:1019E00073010F8518899201A401898D9A8D09953B
:1019F000A9CFF90134969491329745915491D91A0F
:101A0000B7E0DB9E400D511D1124F9012591349161
:101A10003C8B2B8BFA0125903490FA01329674900E
:101A200031963491398B329664903196449041E0EE
:101A30004C1518F04A1508F07FC0662D062C000CD6
:101A4000770B7C836B83842D042C000C990B9E8375
:101A50008D83A98DBA8DED91FC9111970284F38548
:101A6000E02DCD010995512CD12CC12CEA2DF0E0AF
:101A7000FA87E9872B2D30E03C872B87A401440DA2
:101A8000511D47FC5A95588F4F8B69817A81660D9D
:101A9000711D67FC7A957E876D877989C71608F076
:101AA00051CF2C2D30E04D815E81420F531FA9850F
:101AB000BA854A9FC0014B9F900D5A9F900D1124EB
:101AC000FC01E80DF91DF88BEF87852D612C4F89FE
:101AD000588D420F531F5E8B4D8B671408F050C01A
:101AE00044244394480E877041F4C1010196EB8968
:101AF000FC89E20DF31DD4901C01D7FE19C0A98DFD
:101B0000BA8DED91FC91662D70E0B1E0BB1219C069
:101B1000AB1217C02D853E85620F731F0484F585B7
:101B2000E02D2F8138854D895E89898D9A8D0995A3
:101B3000DD0C6394842DD1CF1E821D821C821B82FA
:101B400088CF4B815C81640F751FAB85BC856A9F14
:101B5000C0016B9F900D7A9F900D112469817A814D
:101B6000680F791F0684F785E02DEF80F8840985DA
:101B70001A859D014F855889898D9A8D0995D8CFF1
:101B8000570CC3948ACF6A960FB6F894DEBF0FBE87
:101B9000CDBFDF91CF911F910F91FF90EF90DF901C
:101BA000CF90BF90AF909F908F907F906F905F90FD
:101BB0004F903F902F9008958F929F92AF92CF9227
:101BC000EF92FF920F931F93CF93DF93EC01262F99
:101BD000898D9A8D009709F051C06A30D1F41D8625
:101BE0001C868D8948E0849F900111248E859F85F5
:101BF000820F931F9F878E8781E090E0DF91CF91C6
:101C00001F910F91FF90EF90CF90AF909F908F908A
:101C100008956D3089F3CC88AD888F898823C1F011
:101C20008C859D8536E0C39E800D911D11244885CD
:101C300059854817590764F44E855F851D861C86B3
:101C400038E0A39EC0011124840F951F9F878E87C3
:101C5000EA88FB88088919894E855F856C857D85B2
:101C6000CE010E94B70B2C898C859D8546E0249F70
:101C7000800D911D11249D878C87BECF6A3069F439
:101C80001D861C86FC013896E4912D898E859F85E2
:101C9000E29F800D911D1124ADCF6D3009F4ACCFC2
:101CA000FC0134963491631708F4A6CF3296E49180
:101CB000E61708F4A1CFFC01329685909490462F48
:101CC000431B342F47E0349F800C911C1124F401F6
:101CD000329634913196E4913323A9F1EE2399F1B0
:101CE000CC88F4013596E491AD884F89442301F105
:101CF0000E2E000CFF0BE30FF11DCE9EA001CF9E18
:101D0000500D11246C857D85460F571F6885798598
:101D1000641775076CF44E855F851D861C86FC0173
:101D20003896E491AE9E400D511D11245F874E8779
:101D3000EA88FB88088919894E855F856C857D85D1
:101D4000CE010E94B70BF4013496E4912C898C8566
:101D50009D85E29F800D911D11248DCF6F927F9202
:101D60008F929F92AF92BF92CF92DF92EF92FF92AB
:101D70000F931F93CF93DF93EC016B015A0139014D
:101D80004801E881F9810284F385E02D0995E88115
:101D9000F9810288F389E02D87019301A501B6013D
:101DA000CE010995A501480D591D41505109E88101
:101DB000F9810288F389E02D9301B601CE010995DE
:101DC000E881F9810088F189E02D9401A501B6012F
:101DD000CE010995C60CD71CB60161507109E88186
:101DE000F9810088F189E02D9401A501CE010995C2
:101DF000E881F9810688F789E02DCE01DF91CF9146
:101E00001F910F91FF90EF90DF90CF90BF90AF9018
:101E10009F908F907F906F9009946F927F928F9296
:101E20009F92AF92BF92CF92DF92EF92FF920F9369
:101E30001F93CF93DF935C01EB016A0149013801E5
:101E40008701DC01ED91FC916217730719F56416A7
:101E500075062CF0962D872D3A01C92ED82E9601A5
:101E6000261937092F5F3F4F048CF58DE02DA30114
:101E7000BE01C5010995DF91CF911F910F91FF9090
:101E8000EF90DF90CF90BF90AF909F908F907F901A
:101E90006F9008954615570591F42617370724F0DB
:101EA000892D4B01C22FD82F9E01281939092F5F88
:101EB0003F4F068CF78DE02DA601B401DACF0284E6
:101EC000F385E02D0995D501ED91FC910488F58904
:101ED000E02D83019401A601BE01C5010995D5013C
:101EE000ED91FC910688F789E02DC501DF91CF9136
:101EF0001F910F91FF90EF90DF90CF90BF90AF9028
:101F00009F908F907F906F900994EF92FF920F9324
:101F10001F93DC011A960D911C911B9718962D9119
:101F20003C911997ED91FC9100A0F1A1E02D7B016E
:101F300050E040E070E060E009951F910F91FF9044
:101F4000EF9008954F925F926F927F928F929F923F
:101F5000AF92BF92CF92DF92EF92FF920F931F93B7
:101F6000CF93DF936C012B015A0139014801DC0149
:101F7000ED91FC910284F385E02D0995E201640C5A
:101F8000751CD601ED91FC91C615D7055CF400884F
:101F9000F189E02D87019401A501BE01C6010995D3
:101FA0002196EFCF0688F789E02DC601DF91CF910A
:101FB0001F910F91FF90EF90DF90CF90BF90AF9067
:101FC0009F908F907F906F905F904F9009948F9229
:101FD0009F92AF92BF92CF92DF92EF92FF920F93B8
:101FE0001F93CF93DF93EC015B014A016901E88104
:101FF000F9810284F385E02D099595012C0D3D1D95
:1020000021503109E881F9810488F589E02D7801B2
:102010008401A401B501CE010995E881F981068802
:10202000F789E02DCE01DF91CF911F910F91FF90A5
:10203000EF90DF90CF90BF90AF909F908F900994DA
:102040008F929F92AF92BF92CF92DF92EF92FF92C8
:102050000F931F93CF93DF93EC015B014A0169015A
:102060007801E881F9810284F385E02D0995C80C97
:10207000D91C860101501109E881F9810488F5898C
:10208000E02D9501A401B501CE010995E881F98102
:102090000688F789E02DCE01DF91CF911F910F9136
:1020A000FF90EF90DF90CF90BF90AF909F908F9078
:1020B00009940895EF92FF920F931F93DC01ED9125
:1020C000FC9100A0F1A1E02D09951F910F91FF90C7
:1020D000EF9008950F931F93DC01ED91FC91068C16
:1020E000F78DE02D09951F910F9108950F931F9380
:1020F000DC01ED91FC91048CF58DE02D09951F918B
:102100000F910895DC01ED91FC910084F185E02DA3
:1021100009942F923F924F925F926F927F928F928B
:102120009F92AF92BF92CF92DF92EF92FF920F9366
:102130001F93CF93DF9300D000D000D0CDB7DEB790
:102140003C016A013E832D83FC82EB825801A41A74
:10215000B50AB7FE03C0B194A194B1088D809E80EA
:10216000861A970A97FE03C09194819491088A1465
:102170009B045CF0902F812F0D811E819D838E83A7
:102180009C2D8D2D6B01692F782F0C151D055CF092
:102190009D818E817E836D83692F782F902F812F73
:1021A0008601C92ED82E1601201A310A2B012D8145
:1021B0003E81421A530A57FE03C05194419451087C
:1021C000710137FE03C03FEFE31AF30AF594E79479
:1021D0008D819E81861797075CF5A1E0B0E0BA83F8
:1021E000A983C016D1064CF1D301ED91FC91048472
:1021F000F585E02D2B813C81A8016D817E818A14BB
:102200009B041CF04D815E81B801C3010995E4185F
:10221000F508F7FE0AC02D813E8189819A81280F39
:10222000391F3E832D83E20CF31C0F5F1F4FD9CF64
:102230002FEF3FEF3A832983D4CF26960FB6F89439
:10224000DEBF0FBECDBFDF91CF911F910F91FF90E9
:10225000EF90DF90CF90BF90AF909F908F907F9046
:102260006F905F904F903F902F9008950895CF9377
:10227000CFB7F89480910E02811127C0EBE0FCE00B
:102280008491E7E2FCE09491E82FF0E0EE0FFF1F6D
:10229000E352F44FA591B491EC91E92321F461E06C
:1022A0008AE00E943F0761E08AE00E946D078CB5DA
:1022B00080618CBD8CB580648CBD61E08DE00E9436
:1022C0006D0761E08BE00E946D0780910E028F5FC9
:1022D00080930E02CFBFCF9108952091C401260FA5
:1022E0003327331F21323105ECF42091E801FC0142
:1022F00090E080E0243069F082E00895A091C4016C
:102300002191AC014C555E4FA40FB52FB11D2C93FC
:102310000196861798F38091C401680F6093C401F9
:1023200080E0089581E008951092E80181E08093B3
:10233000EA011092E90161E082E10E943F0761E059
:1023400083E10E943F07E9EBF0E080818E7F80838C
:1023500080818D7F808388E98093B80085E48093B5
:10236000BC000895CF93DF9391E09093A30188235D
:10237000B9F0C091B800D091BA008091BC008A7BBE
:102380008093BC0060E082E10E943F0760E083E14F
:102390000E943F070E949411D093BA00C093B800E6
:1023A000DF91CF910895E091180280911702E8170C
:1023B00030F4F0E0E258FE4F808190E008958FEF16
:1023C0009FEF089590911802809117022FEF3FEF31
:1023D000981748F4E92FF0E0E258FE4F208130E0F2
:1023E0009F5F90931802C901089580911702909100
:1023F0001802891B990B0895CF92DF92EF92FF92FA
:102400000F931F93CF93DF937C01CB018A0120911F
:102410001002222389F0EB016B01C40ED51ECC15EE
:10242000DD0569F06991D701ED91FC910190F08192
:10243000E02DC7010995F3CF642F0E946D11C801EB
:10244000DF91CF911F910F91FF90EF90DF90CF9090
:102450000895CF93DF931F92CDB7DEB769832091A4
:1024600010022223F9F020911502203258F021E0C9
:1024700030E0FC013383228390E080E00F90DF9115
:10248000CF91089580911602E82FF0E0E25AFE4FB6
:10249000998190838F5F809316028093150281E06B
:1024A00090E0ECCF61E0CE0101960E946D11F7CF74
:1024B000CF92DF92EF92FF920F931F93CF93DF9310
:1024C000D091150281E0D13208F09CC0C0910F027A
:1024D0000E9484086B017C018091E80181116CC02D
:1024E00082E08093E80181E08093EA018FEF80939E
:1024F000E70110920C02D0930B02AEE5B1E0EBEED7
:10250000F1E080E0D8138DC010920D0280910D0291
:10251000CC0FC82BC0930D028091E901813009F0E6
:1025200084C01092E9010E9484086B017C018091B3
:102530000D028093BB0080919F019091A001A0911A
:10254000A101B091A201892B8A2B8B2BA1F00E94B3
:10255000840800919F011091A0012091A101309168
:10256000A2016C197D098E099F0906171707280714
:10257000390708F442C08091BC0083FDD8CF85ECB8
:102580008093BC000E9484086B017C018091E8016B
:10259000823009F44CC08091E7018F3F09F469C093
:1025A0008091E701803209F466C08091E7018033B1
:1025B00009F463C084E026C080919F019091A0013E
:1025C000A091A101B091A201892B8A2B8B2B09F438
:1025D00083CF0E94840800919F011091A001209157
:1025E000A1013091A2016C197D098E099F0906177E
:1025F00017072807390708F06FCF80919E010E94C6
:10260000B21185E01092160210921502109210027B
:10261000DF91CF911F910F91FF90EF90DF90CF90BE
:1026200008959D9191938F5F6DCF85EEA9CF809195
:102630009F019091A001A091A101B091A201892BCD
:102640008A2B8B2B09F4A2CF0E94840800919F0152
:102650001091A0012091A1013091A2016C197D0976
:102660008E099F09061717072807390708F08ECF2C
:10267000C4CF80E0C7CF82E0C5CF83E0C3CFCF9285
:10268000DF92EF92FF920F931F93CF93DF93EC01B2
:102690006B01142F8D8D9E8D009709F454C029A1D4
:1026A00031E03093100220930F0210921602109224
:1026B0001502DC01ED91FC910190F081E02D60E0CC
:1026C00009957601CC24C394D12C01E011508D8D55
:1026D0009E8D1F3F71F1B0E2CB16D104C0F00E9475
:1026E00058128D8D9E8D29A10093100220930F0208
:1026F0001092160210921502DC01ED91FC910190EE
:10270000F081E02D60E00995CC24C394D12C8D8D0F
:102710009E8DF7016491DC01ED91FC910190F081B7
:10272000E02D0995BFEFCB1ADB0AEFEFEE1AFE0A98
:10273000CDCFDF91CF911F910F91FF90EF90DF9060
:10274000CF900C945812EDA5FEA590818BA9809591
:10275000892380837B01115070F1F70184912B8DC7
:102760003C8D232B31F00E94960BFFEFEF1AFF0AEE
:10277000F2CF28E030E040E8E9A5FAA599A9582F62
:102780005423A9F05081952B9083EBA5FCA5908153
:102790005AA9952B9083EBA5FCA550819AA99095F9
:1027A0009523908346952150310931F7DECF508132
:1027B00090959523E9CFDF91CF911F910F91FF90D5
:1027C000EF90DF90CF9008951F93CF93DF93EC01AC
:1027D0008D8D9E8D009721F1162F29A131E0309328
:1027E000100220930F021092160210921502DC01C3
:1027F000ED91FC910190F081E02D60E009958D8DC7
:102800009E8DDC01ED91FC910190F081E02D612F16
:1028100009958D8D9E8DDF91CF911F910C9458124B
:10282000ADA5BEA59C918BA9809589238C938B8D9A
:102830009C8D892B31F0862FDF91CF911F910C94C5
:10284000960B28E030E080E8A9A5BAA599A9462F03
:102850004823C1F04C91942B9C93ABA5BCA59C91B3
:102860004AA9942B9C93ABA5BCA54C919AA9909591
:1028700094239C9386952150310931F7DF91CF91B4
:102880001F9108954C9190959423E6CF1F93CF9379
:10289000DF93EC01162F8D8D9E8D892BB1F12DA923
:1028A0003EA94FA958AD60E078E488EE91E00E941F
:1028B000BF34205131094109510956954795379543
:1028C00027952093B80066EA111167EACE010E94AD
:1028D000E4138D8D9E8D892B41F129AD3AAD4BAD21
:1028E0005CAD60E078E488EE91E00E94BF34205156
:1028F00031094109510956954795379527952093F8
:10290000B800DF91CF911F9108958B8D9C8D892BFD
:1029100021F08EAD9FAD0E949E0BEFA5F8A990818E
:102920008CA9809589238083CECFEFA5F8A98081DB
:102930009CA9892B8083E5CFBF92CF92DF92EF9243
:10294000FF920F931F93CF93DF93EC018D8D9E8D9C
:10295000892B09F48FC02DA93EA94FA958AD60E07D
:1029600078E488EE91E00E94BF342051310941099A
:10297000510956954795379527952093B80044E01F
:1029800065EE75E0CE010E943F138C819D818034FD
:10299000910509F07FC060E2CE010E94E4136C81D2
:1029A000615ECE010E94E4132E813F81C90107962A
:1029B00097FD079633E0959587953A95E1F72C8139
:1029C0003D81829F7001839FF00C929FF00C112437
:1029D0000F8D18A18D8D9E8DE00EF11E009709F4CC
:1029E00085C029A131E03093100220930F0210928C
:1029F000160210921502DC01ED91FC910190F0811C
:102A0000E02D60E40995CC24C394D12CBB24B3946D
:102A10008D8D9E8DE016F10609F443C0B0E2CB1611
:102A2000D104C0F00E9458128D8D9E8D29A1B092C4
:102A3000100220930F021092160210921502DC0170
:102A4000ED91FC910190F081E02D60E40995CC249A
:102A5000C394D12C8D8D9E8DF80161918F01DC0185
:102A6000ED91FC910190F081E02D0995BFEFCB1A1B
:102A7000DB0ACECF8B8D9C8D892B21F08EAD9FAD47
:102A80000E949E0BEFA5F8A990818CA980958923BF
:102A9000808375CF60E0CE010E94E4136C816150A9
:102AA00080CF0E9458128D8D9E8D892B09F453C0C2
:102AB00029AD3AAD4BAD5CAD60E078E488EE91E0D5
:102AC0000E94BF342051310941095109569547955B
:102AD000379527952093B800DF91CF911F910F91E3
:102AE000FF90EF90DF90CF90BF900895EDA5FEA5E9
:102AF00080819BA9892B8083E016F106A1F2F80161
:102B000081918F012B8D3C8D232B19F00E94960B08
:102B1000F3CF28E030E040E8E9A5FAA599A9582FBD
:102B20005423A9F05081952B9083EBA5FCA59081AF
:102B30005AA9952B9083EBA5FCA550819AA9909555
:102B40009523908346952150310931F7D5CF508197
:102B500090959523E9CFEFA5F8A980819CA9892BB1
:102B60008083BACF90E080E008950F931F939091F7
:102B7000060491111BC090911801981317C0809101
:102B8000FF0390910004DC011C962D913C911D9750
:102B9000261B370B21503109ED91FC91068CF78DE6
:102BA000E02D01E010E048E050E009951F910F9101
:102BB0000895E091FF03F0910004909106049813AA
:102BC0000DC081E090E030E020E0318B208B938BD2
:102BD000828B7587648717861686089590E080E05B
:102BE00021E030E0F2CFE0912101E150E43090F4B7
:102BF0008E2F90E0FC01EE0FFF1FE80FF91FE65E3D
:102C0000FD4F80910604808380911701818380911C
:102C1000160182830895823061F120F4813061F0E1
:102C200060E818C08330B1F08430D1F7E62FE0952A
:102C30006E2F660F660B0EC0862F90E0FC01E858E1
:102C4000FF4F603430F067FD07C0E7EFF0E0E81BAE
:102C5000F90B6491862F0895FC01E850F040603C28
:102C600020F0E7E7F1E0E81BF90BE4916E2F6095A7
:102C7000F1CF67FD02C0660FEDCFEFEFF0E0E61B8E
:102C8000F1096E2FF8CFEAE7F0E08081877D80833D
:102C90001092DB030895CF92DF92EF92FF920F9391
:102CA0001F93CF93DF9300D000D000D0CDB7DEB715
:102CB000FC01CB018E010F5F1F4F77FF1AC02DE281
:102CC00020839195819591093196E12C2AE0C22EBD
:102CD000D12C21E02E0DE00EF12EF11CB6010E9448
:102CE0005737805DD7018C93CB01E22E009789F78F
:102CF00005C0009751F780E3898321E0822F90E09F
:102D00009801280F391FBF010217130739F0D901A5
:102D10004E919D01DB014D93BD01F6CF8E0F9F1F9C
:102D2000FC01108226960FB6F894DEBF0FBECDBF11
:102D3000DF91CF911F910F91FF90EF90DF90CF9097
:102D40000895CF93FC01CB0177FF06C02DE22083CD
:102D500091958195910931966AE070E00E9457370C
:102D6000C82FCF010E944B16FC018EE28083C05D0C
:102D7000C1831282CF010296CF910895DC01ED91BB
:102D8000FD918081ED91FD919081ED91FD916C918E
:102D900063708E2309F064609F2309F06860EBED97
:102DA000F6E1E60FF11D659565956D936D917D9149
:102DB0008D919D91099423C01AC012C016C010C0F5
:102DC0001EC009C014C013C006C019C009C00DC080
:102DD00007C00DC014C062507040804090400BC0CE
:102DE000615070408040904006C06E5F01C06F5FD0
:102DF0007F4F8F4F9F4F9E938E937E936E93089538
:102E000080915A0190915B010C94BE1680915801FB
:102E1000909159010C94BE16CF93DF93EC018B85F2
:102E2000823060F4F894CE010E94BE166F817885DE
:102E300089859A857894DF91CF910895F894F6CF9B
:102E40008C3F43E0940750F06CEF73E00E944337EF
:102E5000362F330F330F20E0820F931F06B606FE86
:102E600013C046B743702CEF33E002C0220F331F6C
:102E70004A95E2F78217930750F481BD92BDF89A04
:102E80000000000080B5089530E020E0F3CF80E03E
:102E900008950F931F93CF93DF938C01EB010E9452
:102EA00020178883C80101960E9420178983CE01CC
:102EB000DF91CF911F910F9108950C942017E62F69
:102EC0008C3F43E0940750F06CEF73E00E9443376F
:102ED000362F330F330F20E0820F931F06B606FE06
:102EE00017C046B743702CEF33E002C0220F331FE8
:102EF0004A95E2F78217930750F42FB781BD92BD30
:102F0000E0BDF89484E08FBB82E08FBB2FBF0895B3
:102F100030E020E0EFCF1F93CF93DF93EC01162F2B
:102F2000888199810E942017181729F0612F8881C4
:102F300099810E945F17CE01DF91CF911F91089573
:102F4000CF93DF9300D0CDB7DEB79A838983CE01CC
:102F500001960E948B170F900F90DF91CF910895EB
:102F6000EF92FF920F931F93CF93DF9369EA90E064
:102F700080E00E94A0176091210185E090E00E940E
:102F8000A0170AE112E0C6E0D0E0D8016C91CE01B2
:102F90000E94A017F8016181CE0101960E94A0173E
:102FA000D80112966C91CE0102960E94A0170D5F77
:102FB0001F4F2396C231D10541F76091ED0382E1A5
:102FC00090E00E94A0176091040183E190E00E94CC
:102FD000A0178091FF0390910004DC01ED91FC911A
:102FE00000A0F1A1E02DEE24E394F12C0AE010E022
:102FF00020E830E046E350E070E060E00995E091C1
:10300000FF03F0910004138A128A118A108A84E067
:1030100090E09587848787E390E09787868768EBC1
:1030200070E0CF010E94EE088091FF0390910004B0
:103030000E949C1464EF71E080E090E0DF91CF91FA
:103040001F910F91FF90EF900C94A60860910401DE
:10305000869FB0011124660F672F661F770B809142
:10306000ED03680F711D87FD7A956F3F710519F0AB
:1030700014F06FEF70E077FF02C070E060E084E072
:103080000C94D007823021F08330A9F080E00895BD
:10309000709359016093580186E097E19093010184
:1030A00080930001809169008C7F8160809369002A
:1030B000E89A81E0089570935B0160935A0180E083
:1030C00097E1909303018093020180916900837FCF
:1030D000846080936900E99AECCFFB0101900020A5
:1030E000E9F73197AF01461B570BDC01ED91FC91DD
:1030F0000280F381E02D09948F929F92AF92BF924C
:10310000EF92FF920F931F93CF93DF93CDB7DEB76C
:10311000A1970FB6F894DEBF0FBECDBF7C01FA01B8
:10312000CB0119A2223008F42AE08E010F5D1F4F57
:10313000822E912CB12CA12CBF01A50194010E94DB
:10314000BF34F901CA016A300CF5605DD8016E9395
:103150008D01232B242B252B79F790E080E010970D
:1031600021F0BD01C7010E946D18A1960FB6F89419
:10317000DEBF0FBECDBFDF91CF911F910F91FF90AA
:10318000EF90BF90AF909F908F900895695CDECFD5
:10319000CF92DF92EF92FF920F931F93CF93DF9323
:1031A0006B01072E000CEE08FF0877FF1BC0EC0137
:1031B0006DE20E94E7088C0144275527BA014C199B
:1031C0005D096E097F092AE0CE010E947C18800FFC
:1031D000911FDF91CF911F910F91FF90EF90DF90A2
:1031E000CF9008952AE0B701A601DF91CF911F91FA
:1031F0000F91FF90EF90DF90CF900C947C180F937D
:103200001F93CF93DF93EC010E94EE088C0165E5DC
:1032100071E0CE010E946D18800F911FDF91CF9158
:103220001F910F910895CF93DF93EC01683E83E0E7
:10323000780778F4CE010E94A11609900020E9F7E2
:10324000219788E488838AE789831A82DF91CF9166
:103250000895CB016AE070E00E944337CE010E94DE
:103260004B16EBCFEF92FF920F931F93CF93DF9309
:10327000CDB7DEB72A970FB6F894DEBF0FBECDBF2D
:103280000091FF031091000481E0F801848B858B8D
:1032900070E060E00E94D91580912101823009F42C
:1032A0006FC008F062C061EE70E0813009F464C064
:1032B00070E060E081E00E94B51564E270E082E0B9
:1032C0000E94D91580912101833009F496C008F03D
:1032D0005DC0813008F07CC064E270E082E00E9452
:1032E000B51510912101143009F0AEC062E470E010
:1032F00083E00E94D915E09116010091FF0310911F
:10330000000480911701853009F083C06E2F70E0B2
:10331000CE0101960E94A116BE016F5F7F4FC801CA
:103320000E946D1866E58091FF03909100040E9451
:10333000E70862E470E083E00E94B515E091FF03C6
:10334000F091000481E090E0938B828B918B808BD5
:103350002A960FB6F894DEBF0FBECDBFDF91CF9196
:103360001F910F91FF90EF900895833061F063ED0E
:1033700070E0843009F09CCFC8010E94EE0898CF1D
:103380006CED70E0F9CF67ED70E0F6CF843009F0B6
:10339000A3CF609117016623C9F1663008F065E09C
:1033A0006150770B660F771F660F771F6C56744F4F
:1033B00044E050E0CE0101960E948434BE016F5F6C
:1033C0007F4F8091FF03909100040E946D1884CF7D
:1033D00060ED70E08091FF03909100040E94EE0880
:1033E0004091170150E070E060E02AE08091FF0317
:1033F000909100040E947C186FCF6DEC70E080917A
:10340000FF03909100040E94EE0866CF70E060E038
:10341000C9CFEE23B1F0EF3008F0EEE0E150FF0B42
:10342000EE0FFF1FE855F44F65917491CE010196A0
:103430000E941319BE016F5F7F4FC8010E946D1873
:1034400078CFF0E0E0E0ECCF133009F477CFE090F4
:10345000FF03F09000046EE470E083E00E94D91551
:103460006AEC70E0113011F067EC70E0C7010E9467
:10347000EE084091160150E070E060E02AE0809193
:10348000FF03909100040E947C186EE470E053CF1B
:103490000E945439FC01868197819C01295F3F4F2E
:1034A00037FF02C0295F3F4F83E0359527958A9506
:1034B000E1F784819581289FA001299F500D389FB5
:1034C000500D112470E060E0878D90A10C946B3951
:1034D000BF92CF92DF92EF92FF920F931F93CF9301
:1034E000DF93B82E8091FF03909100040E944A1A46
:1034F000CFE3D2E0D12CC12C8FEFC81AD80AA0E8B4
:10350000CA16D10401F18091FF0390910004098152
:1035100010E01595079515950795488150E055954C
:10352000479555954795DC01ED91FC9104A0F5A1D7
:10353000E02DEE24E394F12C9601BE016F5372400E
:1035400021960995D9CFBB2059F0DF91CF911F91DA
:103550000F91FF90EF90DF90CF90BF900C943219B5
:10356000DF91CF911F910F91FF90EF90DF90CF905F
:10357000BF900895AF92BF92CF92DF92EF92FF92E9
:103580000F931F93CF93DF93C82F0E944316809110
:103590000104882349F070E060E084E00E94D007D5
:1035A00060E084E00E946D078FEF8C0F843058F547
:1035B00090E0FC01EE0FFF1FE80FF91FE65EFD4FE4
:1035C000808180930604818180931701828180939A
:1035D0001601C33009F440C0C43009F456C0C230EB
:1035E00059F160E086E00E946D0761E083E00E948F
:1035F0006D0760E083E00E943F0780917A00887F3A
:10360000846080937A00E3EDF2E080E091E0DF01F6
:103610009C011D9221503040E1F71092C902109296
:10362000EC03DF91CF911F910F91FF90EF90DF900E
:10363000CF90BF90AF90089561E083E00E946D0746
:103640006FE770E083E00E94D00760E086E00E94B0
:103650006D071092CA02D7CF61E083E00E946D0728
:103660006FE770E083E00E94D00760E086E00E9490
:103670006D071092D7031092D8031092D9031092BD
:10368000DA0382E080930D01BECF61E083E00E9407
:103690006D0760E083E00E943F0760E086E00E94E3
:1036A0006D0781E0809322018091AD008F7B809334
:1036B000AD008091220181117AC08091A0008C70B0
:1036C00081608093A0008091F00081FF0AC080910A
:1036D000F0008D7F8EBB80E88093F0008EB38093E6
:1036E000F000809122018295880F880F807C809362
:1036F0007C0063E084E00E946D0770E060E084E09D
:103700000E94D00780E593ECA0E0B0E08093100128
:1037100090931101A0931201B093130184E190E002
:1037200090930F0180930E011092EF031092F0031B
:103730001092F1031092F20380911701853009F481
:103740005CC0E0911601EE2309F455C0EF3008F09B
:10375000EEE0E150FF0BEE0FFF1FE855F44F8591AF
:1037600094912AE9A22E39E9B32E49E9C42E59E1F0
:10377000D52EE12CF12C00E010E09C0140E050E05F
:1037800060E070E080E090E00E947837E0E5AE2EE7
:10379000F3ECBF2EC12CD12C0E94D2372093F7031B
:1037A0003093F8034093F9035093FA032CCF813000
:1037B00031F48091A0008C708093A00092CF809112
:1037C000A0008C7082608093A000809122018230E2
:1037D00029F48091CE008093C80083CF843041F4D7
:1037E0008091AD0080648093AD008091CC00F3CFD8
:1037F0008091CD00F0CFE1E0ACCF1092F7031092B2
:10380000F8031092F9031092FA03FDCE85ED809330
:10381000BC0080919F019091A001A091A101B09165
:10382000A2010796A11DB11D23E0B695A795979516
:1038300087952A95D1F72091BC0024FD03C01092F2
:10384000E801089540919F015091A0016091A1016C
:103850007091A201452B462B472B69F30097A105D8
:10386000B10541F025E52A95F1F700000197A1097E
:10387000B109E1CF80919E010C94B2110F931F9377
:10388000CF93DF93EC01062F142F62E0802F0E946C
:103890006D0762E0812F0E946D07802F90E0FC0190
:1038A000EF5FF34FE491F0E0EE0FFF1FEB50F44FAA
:1038B0002591349139832883FC01E35EF34FE49131
:1038C000EC83812F90E0FC01EF5FF34FE491F0E097
:1038D000EE0FFF1FEB50F44F259134913B832A8369
:1038E000FC01E35EF34FE491ED831F821886198695
:1038F0001A8685E593E50197F1F7E881F9819081D2
:103900008C81982381E009F480E0EA81FB81908139
:103910002D81922309F082608E83BE01802F0E9448
:1039200042188B87BE01812F0E9442189B85890F08
:103930008B87DF91CF911F910F9108951F920F9266
:103940000FB60F9211242F933F938F939F93AF93B2
:10395000BF938091140490911504A0911604B09126
:1039600017043091130420E4230F2D3728F023ECA3
:10397000230F0196A11DB11D2093130480931404FD
:1039800090931504A0931604B09317048091180423
:1039900090911904A0911A04B0911B040196A11DE5
:1039A000B11D8093180490931904A0931A04B09346
:1039B0001B04BF91AF919F918F913F912F910F90D9
:1039C0000FBE0F901F9018951F920F920FB60F9277
:1039D00011242F933F934F935F936F937F938F9314
:1039E0009F93AF93BF93EF93FF93E0910201F09108
:1039F00003010995FF91EF91BF91AF919F918F9135
:103A00007F916F915F914F913F912F910F900FBEDA
:103A10000F901F9018951F920F920FB60F921124BE
:103A20002F933F934F935F936F937F938F939F93C6
:103A3000AF93BF93EF93FF93E0910001F0910101E9
:103A40000995FF91EF91BF91AF919F918F917F91D8
:103A50006F915F914F913F912F910F900FBE0F90FB
:103A60001F9018951F920F920FB60F9211242F934B
:103A70003F934F935F936F937F938F939F93AF93F6
:103A8000BF93EF93FF938091B900887F803609F44C
:103A90004AC0F0F5883209F4A7C018F5803109F45E
:103AA0009BC0B8F4882309F4F9C0883009F494C0A5
:103AB000FF91EF91BF91AF919F918F917F916F9106
:103AC0005F914F913F912F910F900FBE0F901F90DC
:103AD0001895883109F488C0803251F78093E70146
:103AE00014C0803409F49DC040F48033B9F38833A6
:103AF000F9F68093E70185ECB0C0803509F485C004
:103B0000883509F496C0883499F60E94061CD0CFF7
:103B1000883909F48CC038F5883729F050F4883694
:103B200011F0803729F683E08093E8011092E601D6
:103B300057C0883809F47BC0803919F0803809F003
:103B4000B7CF8091E601803208F071C0E091E601C4
:103B500081E08E0F8093E6018091BB00F0E0EA5394
:103B6000FE4F80833DC0803B39F0E0F4803A09F499
:103B700079C0883A09F09CCF84E08093E8011092E4
:103B8000C5011092C401E0911302F091140209954D
:103B90008091C40181110FC081E08093C401109213
:103BA000A40109C0803C09F4A6CF883C09F4A3CF46
:103BB000883B09F07DCFE091C50181E08E0F8093B5
:103BC000C501F0E0EC55FE4F80818093BB009091E1
:103BD000C5018091C40129C080910D028093BB0072
:103BE00085EC8093BC0064CF90910C0280910B0215
:103BF000981758F5E0910C0281E08E0F80930C022B
:103C0000F0E0E551FE4F8081E9CFE0910C0281E0C8
:103C10008E0F80930C028091BB00F0E0E551FE4FC7
:103C2000808390910C0280910B029817C8F285E86E
:103C3000D8CFE0910C0281E08E0F80930C0280912E
:103C4000BB00F0E0E551FE4F80838091EA018111D5
:103C50005CCF81E08093E90184EA8093BC001092FC
:103C6000E80126CF85EC8093BC001092E80180919A
:103C7000E601803230F4E091E601F0E0EA53FE4FD5
:103C800010826091E60170E0E0911102F091120261
:103C900086EC91E009951092E6010ACF1092E701B7
:103CA00034CF1F920F920FB60F9211242F933F9390
:103CB0004F935F938F939F93EF93FF93309179008E
:103CC00099B1892F807897FF1CC090915D01911167
:103CD00018C080935D0181E08093CA029091DB035C
:103CE000913099F0923079F1FF91EF919F918F91FE
:103CF0005F914F913F912F910F900FBE0F901F90AA
:103D0000189580935D0180E0E9CF811117C0809103
:103D1000CB02823049F38091CB02813079F49091CB
:103D20003C02391718F08093CF02DECF8091CF028A
:103D30008823D1F280913D028317B0F282E0809314
:103D4000DB0310925C0180915C01882331F080914B
:103D50005C01815080935C01C7CF8091D002809339
:103D60005C012091CC028091D1029091D202AC01F1
:103D70004F5F5F4F5093D2024093D1028D529D4FBF
:103D8000820F911DFC0130832091D1023091D2022B
:103D900080910B0190910C012817390708F4A4CFEA
:103DA0008091CC028093BF0291E09093CE028091EB
:103DB000CD02882371F08091CC0280588093CC0290
:103DC0001092D2021092D1021092CF029093DB0394
:103DD0008BCF83E08093DB0387CF90E896BF8CE4A2
:103DE00086BF96BF86BF0895CF93DF93CDB7DEB76A
:103DF000A1970FB6F894DEBF0FBECDBF8091F20041
:103E000080618EBB80E88093F2009EB39093F200B5
:103E10008093610091E0909361002091F2002F79EE
:103E20002EBB8093F2002EB32093F2002091F2007B
:103E30002B7F2EBB8093F2002EB32093F200809351
:103E4000610010926100789484B5826084BD84B56D
:103E5000816084BD85B5826085BD85B5816085BD85
:103E600080916E00816080936E001092810080913D
:103E700081008260809381008091810081608093C5
:103E80008100809180008160809380008091B100EA
:103E900084608093B1008091B00081608093B00015
:103EA0008091910082608093910080919100816067
:103EB0008093910080919000816080939000809128
:103EC0007A00846080937A0080917A008D7F80935D
:103ED0007A0080917A008E7F80937A0080917A00B8
:103EE000806880937A001092C100909326020E940D
:103EF00053089C01359527953595279591E02436F3
:103F000031050CF090E090932702909301048CE02F
:103F100090E0243631050CF09AC40E942F388C01B1
:103F200041E160E1C8010E943E1C10930804009327
:103F3000070469E171E081E090E00E9449178091F7
:103F4000190190911A018130910541F0019631F0EB
:103F500081E090E090931A018093190182E090E053
:103F60000E945D1780932C028D7F11F010922C021D
:103F700064E171E083E090E00E94491780911401B0
:103F8000909115010197CC9730F085E090E09093E7
:103F900015018093140185E090E00E945D179FEF6A
:103FA000980F943008F459C481E0809321018091E6
:103FB0002702882309F45CC40E9437118CB58C7FDA
:103FC0008CBD8DB581608DBD80E490E00E942F385E
:103FD000FC011382128220E830E03583248380E4E0
:103FE00090E0978386833187208793878287168A1C
:103FF000158614861786168681E0858B848B2FEFB5
:104000003FEF338B228B318B208B878B108E128E60
:10401000118E8DE291E09183808389E192E0948F0B
:10402000838F168E158E10A2178E8FEF84A385A313
:1040300089E086A38AE087A388E080A780E586AF31
:1040400017AEF0930004E093FF03C090FF03D090FD
:104050000004D60116962D913C91C901079697FD53
:104060000796A3E095958795AA95E1F7F601248137
:1040700035812C01429EC001439E900D529E900DB1
:1040800011240E942F38D60190969C938E935F97AF
:10409000892B09F40CC1C6010E944A1AF6018681D7
:1040A000978164817581AC0181970CF41EC44054E2
:1040B000510957FF02C04F5F5F4F559547956255B5
:1040C000710977FF02C06F5F7F4F75956795E0E4D8
:1040D000EE2EF12C02E510E02BEE37E0C6010E9437
:1040E000530682E0D60192968C9392975D968D91BD
:1040F0009C915E97892B09F412C416968D919C9120
:10410000809709F00AC48CE3F60181A3109218028B
:104110001092170210921602109215020E9494112A
:1041200084EE98E0909314028093130285EE98E059
:104130009093120280931102D60198968C9187FD7C
:104140001FC061E00E946D0761E0F60180A50E943A
:104150003F0761E070E080E090E00E94A60860E028
:10416000D60198968C910E943F076AE070E080E04B
:1041700090E00E94A60861E0F60180A50E943F073A
:10418000D6015D968D919C915E97892B09F459C457
:10419000D5962D913D914D915C91D89760E078E452
:1041A00088EE91E00E94BF34205131094109510944
:1041B00056954795379527952093B80044E067E0DA
:1041C00076E0C6010E943F13F60166816150C60188
:1041D0000E94E41344E063E076E0C6010E943F13CE
:1041E000D60192968C9160E1813009F064E1C601BC
:1041F0000E94E41344E06FEF75E0C6010E943F1394
:104200008FE8F60185AF848195818038910509F0AA
:104210002DC4868197818034910509F035C482A12F
:10422000813009F041C48FE9D601DD968C9312E10B
:104230006AEDC6010E94E413612FC6010E94E413D7
:1042400061E8C6010E94E413F60165ADC6010E9453
:10425000E41369EDC6010E94E413D60192968C9195
:1042600062E2813009F061EFC6010E94E41346E08A
:1042700069EF75E0C6010E943F13F601858D968DAA
:10428000892B09F413C421AD32AD43AD54AD60E0C8
:1042900078E488EE91E00E94BF3420513109410951
:1042A000510956954795379527952093B8008091E9
:1042B000FF0390910004DC01ED91FC91008CF18DE5
:1042C000E02D60912C0209950091FF0310910004EC
:1042D000C8010E944A1AFF24F394F801F48AF58A6F
:1042E00081E090E0938B828B918B808BC8010E9440
:1042F0004A1A82E0D80154968C93549755968C9321
:10430000559780E1C82ED12C1D96DC92CE921C9739
:104310008AE090E01F969C938E931E9760ED7AE062
:10432000C8010E94EE08E091FF03F0910004F48AB6
:10433000F58AD586C48680E290E09787868762EC0E
:104340007AE0CF010E94EE088091FF039091000473
:10435000FC011586148628E330E0378726872091F4
:1043600027026DEB7AE0211102C06AEB7AE00E942D
:10437000EE088091FF03909100042091260265EBE6
:104380007AE0211102C060EB7AE00E94EE08809191
:104390000104882341F06BEA7AE08091FF03909159
:1043A00000040E94EE088091FF03909100040E9497
:1043B0009C1460E273E080E090E00E94A60861E057
:1043C00083E00E946D0762E085E00E946D0760E077
:1043D00086E00E946D0760E087E00E946D07809193
:1043E000B100887F81608093B10090E080E00E94FE
:1043F0005D17893AC1F169EA90E080E00E94A01758
:1044000061E081E090E00E94A01760E082E090E02F
:104410000E94A01765E083E090E00E94A01761E091
:1044200085E090E00E94A01706E010E060E0C8017F
:104430000E94A01762E0C80101960E94A01761E0E7
:10444000C80102960E94A0170D5F1F4F023111058F
:1044500069F760E082E190E00E94A01760E883E1E4
:1044600090E00E94A01782E190E00E945D17809387
:10447000ED0383E190E00E945D1780930401803298
:1044800018F480E880930401AAE1EA2EA2E0FA2E53
:1044900006E010E0CC24C394D12CAA24A394C80134
:1044A0000E945D17982ED7018C93C80101960E9437
:1044B0005D17B82EF7018183C80102960E945D172F
:1044C000D70112968C93B3E0B91510F4F70110825E
:1044D000F3E0CF16D10409F406C324E0C216D104D8
:1044E00009F406C332E0C316D10409F4E9C291E02D
:1044F000BB2021F09B2D993008F098E090931B028F
:10450000982F8B3008F09AE090931C02811102C022
:10451000A0921C026FEFC61AD60A0D5F1F4F73E000
:10452000E70EF11C0231110509F0B9CF809121018C
:104530000E94BA1ACE010D969A8B898BDE011196D4
:10454000BC8BAB8B1091120410931104809121014C
:104550008093200185E00E94160721E0009709F072
:1045600020E020931204892B09F0DEC2111111C042
:104570000E94D80860930D0470930E0480930F047A
:104580009093100481E080930C0410920B0410921D
:104590000A0480910C048823F1F080910B048111AE
:1045A0001AC00E94D80800910D0410910E042091A9
:1045B0000F0430911004601B710B820B930B683E4B
:1045C00073408105910538F00E94F3150E94B017E1
:1045D00081E080930B04B0901204009107041091C5
:1045E0000804BB20C9F18091090481110C940330A7
:1045F00080910A0481110C940D3080910B04882362
:1046000011F40C940D300E94D808C0900D04D09085
:104610000E04E0900F04F09010046C197D098E09CF
:104620009F09683B7B408105910510F40C940D3087
:1046300081E08093090480930A0480931F01C801DC
:104640000E940C170E94053660931B0170931C0199
:1046500080931D0190931E01C0901B01D0901C01FE
:10466000E0901D01F0901E0180910904882311F44F
:104670000C941530A0901901B0901A01C8010E9445
:104680000C170E9405362B013C0120E030E040E48D
:1046900050E4C701B6010E94F1349B01AC01C30193
:1046A000B2010E94B53618160CF078C240921B0178
:1046B00050921C0160921D0170921E0180911F0199
:1046C000833009F453C208F035C2813009F4B4C212
:1046D000823009F43DC28091190190911A018A1526
:1046E0009B0521F0B0921A01A09219018091120449
:1046F0009091110491110C94C131882311F40C9400
:10470000C43180911F0165E00E9437379F5F90930D
:104710001F010E94D8086093280270932902809399
:104720002A0290932B02C0902802D0902902E09098
:104730002A02F0902B02C114D104E104F10411F417
:104740000C94CC310E94D8086C197D098E099F0900
:10475000603D77408105910510F40C94CC31EE2436
:10476000E394F12CFA82E98260911901CE0101965D
:104770000E948B1782E090E09A83898360911A01EE
:10478000CE0101960E948B1760912C0282E090E08E
:104790000E945F176091140183E090E09A838983FF
:1047A000CE0101960E948B170E94F3150E94B0174C
:1047B0000091FF0310910004C8010E944A1AF801F9
:1047C000F38AE28AF18AE08A80E190E09587848723
:1047D00089E190E09787868761E37BE0C8010E94CA
:1047E000EE088091FF03909100040E949C1460E207
:1047F00073E080E090E00E94A608109209041092F5
:1048000028021092290210922A0210922B02809103
:104810000704909108040E940C179B01AC01A09121
:104820001901B0911A010E94B7340E9405366093B5
:104830001B0170931C0180931D0190931E0180E069
:1048400090E0892B09F47ECE0E94000077CE0E9472
:104850002F388C0144E062E065CB809321018430E5
:1048600009F0A5CB80910104882309F49DCB9FCB4F
:1048700080E490E00E942F38FC011382128220E82D
:1048800030E03583248380E490E09783868331870A
:10489000208793878287168A158614861786168640
:1048A00081E0858B848B2FEF3FEF338B228B318B15
:1048B000208B878B108E128E118E2DE231E031838A
:1048C0002083148E138E168E158E10A2178E99E0EB
:1048D00094A39AE095A39BE096A39CE097A39DE008
:1048E00090A791E596AF87AFACCB4052510957FFE7
:1048F00002C04F5F5F4F559547956357710977FF2A
:1049000002C06F5F7F4F7595679590E2E92EF12C9D
:1049100003E710E02BE036E0E1CB8DE3F5CB61E07F
:1049200096968C910E946D0761E0F60187A10E9426
:104930006D07D60196968C919697082E000C990BD0
:10494000FC01EF5FF34FE491F0E0EE0FFF1FE75142
:10495000F44F25913491F60136A725A7FC01E35EBB
:10496000F34FE491D396EC93D39797968C91082EBE
:10497000000C990BFC01EF5FF34FE491F0E0EE0FB8
:10498000FF1FE751F44FA591B491F601B0ABA7A773
:10499000FC01E35EF34F9491F60194AB8C91E92F07
:1049A000E82BEC93D6015B968D919C91892B19F0A5
:1049B0000E943711C1CB61E0F60184A10E946D070E
:1049C00061E0D60195968C910E946D07F60184A155
:1049D000082E000C990BFC01EF5FF34FE491F0E01F
:1049E000EE0FFF1FE751F44F25913491D6019A96AF
:1049F0003C932E939997FC01E35EF34FE491D1969B
:104A0000EC93D19795968C91082E000C990BFC0194
:104A1000EF5FF34FE491F0E0EE0FFF1FE751F44F2B
:104A2000A591B491F601B4A7A3A7FC01E35EF34FEF
:104A30009491F60192AB8C91E92FE095E823EC93E9
:104A40007BCBF601838D948D892B21F086AD97ADBC
:104A50000E949E0BD6019F96ED91FC91D09790817C
:104A6000D4968C91809589238083A8CB803691053C
:104A700079F486819781409739F482A1813031F4AD
:104A800080E1D601DD968C9312E0D2CB8FEAF9CF8C
:104A900080349105C9F7868197818097A9F782A113
:104AA000813011F480E1C0CB8FECBECBD60107A4DE
:104AB000F0A9E02D8081D4969C91892B8083F7CB3F
:104AC00091E0BB2021F09B2D993008F098E0909365
:104AD0001E02882331F0873008F086E080931F02A1
:104AE00019CD81E0FBCFA0922102A092220212CD2B
:104AF000B11008C0A09224028823A1F08F3078F072
:104B00008EE00DC09B2D45E04B1508F495E0909389
:104B1000240254E05B1580F7833308F082E380932E
:104B20002502F8CC81E0FBCF112309F432CD10929D
:104B30000C042FCD843049F1853009F0CCCD809123
:104B40000401813208F4C7CD815080930401C3CDA4
:104B500080911401909115018230910508F4BBCD2C
:104B600001979093150180931401B5CD10922C02FA
:104B70008091FF0390910004DC01ED91FC91008C89
:104B8000F18DE02D60E00995A6CD8091ED038F3C7D
:104B90000CF4A1CD81508093ED039DCD20E030E059
:104BA00040E450E4C701B6010E94F0349B01AC011F
:104BB000C301B2010E945D3587FF8DCD40921B017C
:104BC00050921C0160921D0170921E0180911F0184
:104BD0008330E1F078F4813099F1823009F07BCDB7
:104BE00080911401909115018C33910508F073CDDB
:104BF0000196B7CF8430C9F0853009F06CCD809133
:104C000004018F3F09F467CD8F5F9FCF82E08093CF
:104C10002C028091FF0390910004DC01ED91FC9146
:104C2000008CF18DE02D62E0AECF8091ED038233F8
:104C30000CF051CD8F5FAFCFAA24A394B12C4BCDF4
:104C4000AA24AA94BA2C47CD9FEF980F933010F066
:104C50000C943130809306040C94273020E030E02F
:104C600040E450E4C501B4010E94F13420E030E09A
:104C700040E85EE30E94BA369B01AC01C701B60171
:104C80000E94B536181614F00C948A3080921B01DD
:104C900090921C01A0921D01B0921E010E94D808A2
:104CA00060930204709303048093040490930504BA
:104CB00081E00C947730933091F491E020911801C9
:104CC000820F79F08093180180911801981710F0E5
:104CD0000C948A3081E0809318010C948A3093E020
:104CE000EDCF90931801F0CF980FD9F09093210158
:104CF00090912101953018F091E0909321019091CD
:104D00002101943011F00C948A309091010491119A
:104D10000C948A308C5F853031F0809321010C94A3
:104D20008A3094E0E3CF81E0F8CF21E0933021F0A6
:104D300028E0943009F425E030911701830FD9F071
:104D40008093170180911701022E000C330B8217FC
:104D50001306A1F09CF081E080931701943011F0CC
:104D60000C948A308091160181508E3010F40C948E
:104D70008A3084E010C020931701E4CF943011F002
:104D80000C948A30853071F780911601833310F4CA
:104D90000C948A3089E1809316010C948A30923009
:104DA00061F19430F9F0913029F59AE02AEF3091D1
:104DB0001601830F422F022E000C550B8417150687
:104DC00004F18093160130911601892F990F990BE8
:104DD0003817190609F014F40C948A302093160140
:104DE0000C948A309091170121E0953041F420E035
:104DF00092E3DDCF91E021E0DACF96E0FCCF9EE0B8
:104E0000D6CF90931601DFCF133009F443C214308C
:104E100011F00C94533380911801882309F4F2C6E1
:104E2000843008F083E0809318013090170133201C
:104E300009F4EAC63D8E032D063010F015E01D8FF3
:104E40004D8C40921701809101048111E0C60E94AF
:104E5000D8080091FB031091FC032091FD033091D1
:104E6000FE03601B710B820B930B683C710581057F
:104E7000910508F4E4CC0E94D8086093FB0370937A
:104E8000FC038093FD039093FE030091FF031091B8
:104E90000004C8010E944A1A81E0D80154968C93FC
:104EA000549755968C9355978AE090E01D969C9365
:104EB0008E931C9788E190E01F969C938E931E978B
:104EC0006EEC7BE0C80117C081E00C94DE3081E01D
:104ED0000C94E93080913502882379F08091FF03AA
:104EE00090910004FC011586148628E330E0378792
:104EF000268760E47BE00E94EE084D885E886F881C
:104F0000788CE98CFA8C0B8D1C8D4E145F04600636
:104F1000710610F00C9453330E9432190C945333E1
:104F2000B0901801BB2009F482C103E0F02EFB14FD
:104F300010F413E0B12EB092180100911701002374
:104F400009F478C1093008F008E0009317011091C6
:104F50001601112309F470C1173008F016E0109300
:104F600016010E94D8086B017C018091CA02882337
:104F700051F01092CA02C0920701D0920801E0924B
:104F80000901F0920A018091070190910801A09116
:104F90000901B0910A01A7019601281B390B4A0BA0
:104FA0005B0BDA01C901AA24A39480319742A105C1
:104FB000B10540F087E00E941607AA24A394892B2C
:104FC00009F4A12C4D885E886F88788C298D3A8DE4
:104FD0004B8D5C8D421653066406750608F42EC18F
:104FE00030E020E0992493944D885E886F88788C17
:104FF000498D5A8D6B8D7C8D441655066606770655
:1050000008F0912C8091060490E0982F88279295C3
:10501000907F9B2960E1069FA0011124842B952B92
:10502000612E712C8C0106291729022B132B8091DC
:105030000501909106010817190779F010930601F0
:105040000093050108271927007F1127012B09F478
:10505000F8C00E9443161092C9029091C9029111A2
:1050600040C0A11092E0E0911701E150FF0BEB5B13
:10507000F44FE491F8941092D2021092D102A0E879
:10508000B0E0B0930C01A0930B01E093D00210921A
:10509000CF021092CE0281E08093CD021092CC021A
:1050A0009093CB028093DB0390E690937C009DEE7F
:1050B00090937A0010927B007894C092C502D092AF
:1050C000C602E092C702F092C802C092C102D0921A
:1050D000C202E092C302F092C4028093C90210920D
:1050E000C0028091CE02882309F443C01092CE0200
:1050F000E091BF02F0E0ED52FD4F80E8AFE3B2E097
:1051000001900D928A95E1F781E080933E02C09272
:10511000C102D092C202E092C302F092C402EFE355
:10512000F2E080E09FEF30E02191291708F4922F00
:10513000821708F4822F3F5F3038B1F7891B21E0D6
:10514000883008F420E02093C002883090F0282FA7
:1051500030E0869586958695833008F483E0359512
:105160002795920F292F281B20933D02980F90938B
:105170003C028091DB03813009F06CC0C092C50213
:10518000D092C602E092C702F092C80282E0A1105B
:105190005EC08091C1029091C202A091C302B09101
:1051A000C40297018601081B190B2A0B3B0BD9017E
:1051B000C80185369105A105B10508F446C01092D5
:1051C000CB0280913E02882311F40C945333D30117
:1051D00011972AE030E00E9471376C5E7F4F8F4F4D
:1051E0009F4F009138021091390220913A0230917C
:1051F0003B0226013701401A510A620A730A9301E1
:105200008201061717072807390710F40C94533347
:10521000C0923802D0923902E0923A02F0923B02F8
:1052200010923E02892D0E94681A0C945333BB24BD
:10523000B39481CE01E089CE11E091CE20E030E838
:10524000D1CE892D0E94681A08CF8091C002809328
:10525000CB02B7CF8091DB03823009F0B2CF8091CF
:10526000C5029091C602A091C702B091C802A701E1
:105270009601281B390B4A0B5B0BDA01C9018935F2
:105280009240A105B10508F49CCF0E9443161092EC
:10529000C90297CF81E0809318018091EC0381309F
:1052A00009F40AC108F46CC0823009F426C10E94D6
:1052B000D8080091D3031091D4032091D5033091E5
:1052C000D603601B710B820B930B60357105810552
:1052D000910510F40C9453338090FF0390900004D8
:1052E0000E94D8086093D3037093D4038093D503AE
:1052F0009093D603C4010E944A1A4D885E886F8835
:10530000788CE98CFA8C0B8D1C8D5AE0252E312C73
:105310004E145F046006710610F0312C212CC090F1
:10532000D703D090D803E090D903F090DA0321019D
:1053300008E0400E511C20E030E040E751E4C70196
:10534000B6010E94B53618160CF0FBC320E030E021
:1053500040E251E4C701B6010E94BA360E94D4353A
:105360006B01CB0104E0803714E1910708F418C207
:10537000093009F415C20196969587950F5FF3CF12
:105380000E94D8080091E8031091E9032091EA03F4
:105390003091EB03601B710B820B930B683271052C
:1053A0008105910508F483CFC090E403D090E50314
:1053B000E090E603F090E70320E030E040EA52E4BA
:1053C000C701B6010E945D3587FD05C010910D0132
:1053D000113009F042C081E080930D01E12C10E909
:1053E000F12E01EB15E4E092E003F092E10300936B
:1053F000E2031093E30391E087E0F8941092D20265
:105400001092D10220E031E030930C0120930B0187
:105410009093D0021092CF021092CE021092CD0241
:105420001092CC021092CB0291E09093DB0320E625
:1054300020937C00886E80937A0010927B00789491
:105440009093EC030E94D8086093DC037093DD0313
:105450008093DE039093DF032ACF20E030E048E41E
:1054600053E4C701B6010E945D3587FD02C01230CA
:1054700089F482E080930D0100E010E921E336E435
:105480000093E0031093E1032093E2033093E303DE
:1054900090E0B2CF83E080930D0120E03EE841EB45
:1054A00056E42093E0033093E1034093E2035093EA
:1054B000E30390E086E0A1CF8091DB03833021F409
:1054C00082E08093EC03F3CE0E94D8080091DC03C5
:1054D0001091DD032091DE033091DF03601B710B1F
:1054E000820B930B693C71058105910508F4DFCEB1
:1054F0000E9443161092EC03DACEE3EDF2E043EDA6
:1055000053E090E02FEF8191821708F4282F98172D
:1055100008F4982F4E175F07B1F7892F821B8E3141
:1055200008F40AC1290F3327331F3595279566E004
:105530000E94373701E09091D302291708F000E06C
:10554000A4EDB2E070E060E0F0E0E0E010E041E007
:1055500050E090E07901E81AF90A820F931F2D912B
:1055600030E001110AC08217930764F41F5FBA018B
:10557000309709F489C001E005C001E02E153F0510
:105580000CF400E04F5F5F4F411531E0530739F7EE
:10559000123008F4D1C06E1B7F0B90E080E00E94B7
:1055A00003366B017C01412F4150550BBA01072E88
:1055B000000C880B990B0E9405369B01AC01C701BA
:1055C000B6010E9462359B01AC016091E0037091CD
:1055D000E1038091E2039091E3030E9462356B0145
:1055E0007C0120E030E040E751E40E94B536181617
:1055F0000CF0A2C020E030E44CE955E4C701B6014C
:105600000E945D3587FF98C08090D7039090D803A3
:10561000A090D903B090DA03C092E403D092E503DE
:10562000E092E603F092E70320E030E040E251E44C
:10563000C501B4010E945D3587FF28C0C092D70321
:10564000D092D803E092D903F092DA03C090D70346
:10565000D090D803E090D903F090DA0320E030E056
:1056600040E752E4C701B6010E945D3587FD5EC088
:1056700020E030E046E153E4C701B6010E945D3509
:1056800087FF58C082E053C0FA0175CFA50194018D
:10569000C701B6010E94F0342B013C0120E030E04C
:1056A000A9010E94B536181624F077FA709477F89D
:1056B0007094A5019401C301B2010E9462352DECE2
:1056C0003CEC4CEC5DE30E94B536412C512C612C36
:1056D0007FE3772E18163CF063E3462E542C63EBE1
:1056E000662E6EE3762EA301920160E070E080E802
:1056F0009FE30E94F034A50194010E94BA364B0149
:105700005C01A7019601C301B2010E94BA369B0158
:10571000AC01C501B4010E94F1346093D7037093CA
:10572000D8038093D9039093DA0390CF81E08093DC
:105730000D0122C083E0FBCF2AE939E949E55FE3A7
:105740006091D7037091D8038091D9039091DA03C7
:105750000E94BA366B017C0120E030E040E751E462
:105760000E945D3587FD13C0C092D703D092D80345
:10577000E092D903F092DA030E94D8086093E8031C
:105780007093E9038093EA039093EB03B3CE1092F6
:10579000D7031092D8031092D9031092DA0372CF74
:1057A00088332AE0920730F4101624F4880F991FEA
:1057B0000150F6CF26E6A22E2BE0B22E10E0AFEF7E
:1057C000BFE7712CF50125913491AC01421B530BBD
:1057D0009A01BA0157FF04C066277727641B750B2F
:1057E000AD01B7FF04C0442755274A1B5B0B641764
:1057F000750714F4D901172D739452E0A50EB11C4E
:105800006CE07612DFCF1B30B1F480579441AC01CD
:1058100097FF04C044275527481B590B9D01B7FF2C
:1058200004C0222733272A1B3B0B421753071CF4C3
:105830000F5FDC0110E0E12FF0E0EE0FFF1FEA59EF
:10584000F44F4591549123EC36E00E9471379A0150
:1058500050E040E00E948D34CA01B9012AE030E0F6
:1058600040E050E00E948D34B22EA22E72E37217F7
:105870000CF03AC1E2E3AE2E110F812F90E0FC0153
:10588000E35BF44FE491ED87FC01E25BF44FE491BC
:10589000EE871F86E03209F41E8682E0D40154961A
:1058A0008C93549755968C93E989FA89019000203E
:1058B000E9F7CF0169887A88861997094CE0489FF3
:1058C0009001499F300D112480E890E0821B930BDA
:1058D00097FD019695958795D4011D969C938E937F
:1058E0001C97C10104961F969C938E931E97BE0130
:1058F000635F7F4FC4010E946D18602F000F770B0C
:105900008091FF03909100040E94C818E091FF036A
:10591000F091000481E0848B858B8A2CAA0C990875
:10592000B7FEE9C084E090E0958784875786468675
:10593000B401CF010E94C81863E68091FF039091E3
:1059400000040E94E708B601CE0101960E941319D7
:105950008091FF0390910004EB89FC890190002065
:10596000E9F731974B885C88E419F50946E04E9FCA
:1059700090014F9F300D112440E8642E712C621A63
:10598000730A930136952795DC011D963C932E935F
:105990001C97B8E12B0E311CFC0137862686BE0110
:1059A0006F5F7F4F0E946D184D885E886F88788C7E
:1059B000E98CFA8C0B8D1C8D4E145F046006710609
:1059C00008F0BCC004E210E0B4EDAB2EB2E0BB2E98
:1059D000EE24E394F12C68012BE0C20ED11C9CE074
:1059E000792ED5018D915D01879DC0011124892FEC
:1059F000990F990BF601E81BF90BA801E017F107C5
:105A00002CF0A601EC15FD050CF4AF018091FF030D
:105A100090910004DC01ED91FC910084F185E02D72
:105A200021E030E0B7010995BFEFEB1AFB0AEFE781
:105A3000EE16F104B1F64D885E886F88788CE98C9B
:105A4000FA8C0B8D1C8DF4E3CF2ED12C4E145F04F9
:105A50006006710618F0E2E3CE2ED12C8091FF0390
:105A600090910004DC01ED91FC9106A0F7A1E02DDE
:105A7000EE24E394F12C06E010E024E630E0A601E9
:105A80006EE070E009958091FF0390910004A601FB
:105A900042505109DC01ED91FC91048CF58DE02D13
:105AA00001E010E02AE030E060E470E009958091C8
:105AB000FF0390910004A6014F5F5F4FB401625C49
:105AC0007F4FDC01ED91FC9100A0F1A1E02D04E0FD
:105AD00010E025E030E00995E091FF03F09100042B
