:100000000C9433070C94E91A0C94C21A0C945B07F5
:100010000C945B070C945B070C945B070C945B07D8
:100020000C945B070C945B070C945B070C945B07C8
:100030000C945B070C945B070C945B070C945B07B8
:100040000C947C1A0C945B070C945B070C945B0774
:100050000C945B070C945B070C945B070C945B0798
:100060000C94101B0C945B070C9400000C94000083
:100070000C9400000C940000414C4C205345545407
:10008000494E47532053415645440046696C743AE3
:1000900000526672733A004F6666733A00545249D2
:1000A00047004176673A2000486967683A0054691A
:1000B0006D653A004D6F64653A0000000000003E37
:1000C0005B4F5B3E3E6B4F6B3E1C3E7C3E1C183CC8
:1000D0007E3C181C577D571C1C5E7F5E1C00183C24
:1000E0001800FFE7C3E7FF0018241800FFE7DBE76D
:1000F000FF30483A060E2629792926407F05050754
:10010000407F05253F5A3CE73C5A7F3E1C1C0808AF
:100110001C1C3E7F14227F22145F5F005F5F060974
:100120007F017F006689956A606060606094A2FFCD
:10013000A29408047E040810207E201008082A1CBF
:1001400008081C2A08081E101010100C1E0C1E0C8B
:1001500030383E3830060E3E0E060000000000002B
:10016000005F00000007000700147F147F14242A9A
:100170007F2A12231308646236495620500008076C
:100180000300001C2241000041221C002A1C7F1C8D
:100190002A08083E0808008070300008080808088F
:1001A000000060600020100804023E5149453E00F6
:1001B000427F400072494949462141494D33181454
:1001C000127F1027454545393C4A494931412111A3
:1001D00009073649494936464949291E0000140095
:1001E00000004034000000081422411414141414B8
:1001F000004122140802015909063E415D594E7C16
:100200001211127C7F494949363E414141227F41CA
:1002100041413E7F494949417F090909013E414128
:1002200051737F0808087F00417F41002040413F13
:10023000017F081422417F404040407F021C027F22
:100240007F0408107F3E4141413E7F090909063E77
:100250004151215E7F091929462649494932030146
:100260007F01033F4040403F1F2040201F3F403858
:10027000403F631408146303047804036159494D33
:1002800043007F4141410204081020004141417F69
:1002900004020102044040404040000307080020DF
:1002A000545478407F2844443838444444283844DF
:1002B00044287F385454541800087E090218A4A416
:1002C0009C787F0804047800447D40002040403D35
:1002D000007F1028440000417F40007C04780478AF
:1002E0007C080404783844444438FC182424181842
:1002F000242418FC7C08040408485454542404049E
:100300003F44243C4040207C1C2040201C3C40308A
:10031000403C44281028444C9090907C4464544CB9
:100320004400083641000000770000004136080014
:1003300002010204023C2623263C1EA1A161123ABE
:100340004040207A3854545559215555794122540A
:10035000547842215554784020545579400C1E520F
:1003600072123955555559395454545939555454B4
:10037000580000457C410002457D420001457C401B
:100380007D1211127DF0282528F07C54554500205F
:1003900054547C547C0A097F4932494949323A44D1
:1003A00044443A324A4848303A4141217A3A42403C
:1003B0002078009DA0A07D3D4242423D3D4040400E
:1003C0003D3C24FF2424487E4943662B2FFC2F2BE1
:1003D000FF0929F620C0887E090320545479410082
:1003E00000447D413048484A32384040227A007A01
:1003F0000A0A727D0D19317D2629292F28262929DF
:10040000292630484D402038080808080808080800
:10041000382F10C8ACBA2F102834FA00007B000027
:1004200008142A142222142A14085500550055AA2B
:1004300055AA55AAFF55FF55FF000000FF001010F8
:1004400010FF00141414FF001010FF00FF1010F034
:1004500010F0141414FC001414F700FF0000FF0047
:10046000FF1414F404FC141417101F10101F101F95
:100470001414141F00101010F0000000001F1010C2
:1004800010101F10101010F010000000FF101010BE
:10049000101010101010FF10000000FF140000FFDB
:1004A00000FF00001F10170000FC04F414141710C4
:1004B000171414F404F40000FF00F71414141414B7
:1004C0001414F700F7141414171410101F101F142D
:1004D0001414F4141010F010F000001F101F00008E
:1004E000001F14000000FC140000F010F01010FFBA
:1004F00010FF141414FF141010101F00000000F05F
:1005000010FFFFFFFFFFF0F0F0F0F0FFFFFF000033
:10051000000000FFFF0F0F0F0F0F3844443844FC5A
:100520004A4A4A347E02020606027E027E02635571
:100530004941633844443C04407E201E2006027E2C
:10054000020299A5E7A5991C2A492A1C4C7201723E
:100550004C304A4D4D303048784830BC625A463DA8
:100560003E494949007E0101017E2A2A2A2A2A445D
:10057000445F444440514A444040444A5140000092
:10058000FF0103E080FF000008086B6B083612369D
:100590002436060F090F060000181800000010107E
:1005A000003040FF0101001F01011E00191D17123C
:1005B000003C3C3C3C0000000000000103070F1F12
:1005C0003F7F0080C0E0F0F8FCFEDB40A4A62EAF29
:1005D0002000A1C8D300408DAED580A800006000E7
:1005E00000000000000000000000000000E000002B
:1005F000000000000000000000000001E00000001A
:100600000000000000000000000001F000000000F9
:1006100000000000000000000003F00000000000E7
:10062000000000000000000007F0000000000000D3
:100630000000000000000007F800000000000000BB
:100640000000000000000FF800000003C0007E0062
:100650000001E0007F0FF800000003C000FE000072
:1006600001E000FFEFF800000003C000FE00000101
:10067000E000FFFFF800000003C000F00000000FE2
:10068000007FFE7FC0000003C000F00000000F00EC
:100690003FFE7FF83FF1FBCFFCFEF3BC3DEFE01FD8
:1006A000FE7FFF7FFBFFDFFEFEFFBC3DEFE01FC6CE
:1006B000FFFF7FFBFFDFFEFEFFBC3DEFE00FE3C768
:1006C000FE787BC3DE1EF0FFBC3DEF0007FF87FC1A
:1006D000787BC3DE1EF0F83C3DEF0001FFFFF00029
:1006E0007BC3C01EF0F03C3DEF0001F37FE03FFB19
:1006F000C3CFFEF0F03C3DEF0003E33F807FFBC340
:10070000DFFEF0F03C3DEF0007E73C00787BC3DE06
:100710001EF0F03C3DEF0007FFBE00787BC3DE1EFD
:10072000F0F03C3DEF0007FFFE00787BC3DE1EF0DB
:10073000F03C3DEF000FFFFE007FFBFFDFFEF0F01F
:100740003FFDEFE00FFFFF007FFBFFDFFEF0F03F1C
:10075000FDEFE00FF9FF003E79F9CF9EF0F01F3D6D
:10076000E7E01FF1FF0000000000000000000000B3
:10077000001F80FF007FFFFFFFFFFFFFFFFFFFE085
:100780001C007F007FFFFFFFFEB46D888D18E00026
:10079000001F007FFFFFFFFE95AD7DB577E00000F5
:1007A0000F007FFFFFFFFEA5AD9D8D19E000000645
:1007B000007FFFFFFFFEB5ADEDB57EE0000000005D
:1007C0000001800000000000000000000380000025
:1007D0000000000000000007C00000000000000052
:1007E000000007C00000000000000000000FC00073
:1007F00000000000000000001FE0000000000000FA
:100800000000001FE00000000000000000003FE0CA
:100810000000000000000000003FF00000000000A9
:10082000000000007FF0000000000000001FF87FC3
:10083000F0000000000000003FFE7FF0000000001C
:100840000000003FFF7FF0000000000000001FFFDD
:10085000FBE0000000000000000FFFF9FFC00000F7
:10086000000000000FFFF9FFF80000000000000783
:10087000FFF1FFFF00000000000003FC73FFFF809A
:10088000000000000001FE3FFFFF800000000000AC
:1008900000FF1E0FFF000000000000007FFE1FFC95
:1008A000000000000000003FFFFFF8000000000013
:1008B00000000FDFFFE0000000000000001F19FF34
:1008C000C0000000000000003F3CFF0000000000EE
:1008D0000000007E7CF800000000000000007FFEA9
:1008E0007C0000000000000000FFFFFC0000000092
:1008F00000000000FFFFFE0000000000000000FFFD
:10090000FFFE0000000000000001FFEFFE000000FD
:100910000000000001FFCFFE000000000000000307
:10092000FF07FE0000000000000003FC07FE0000BF
:10093000000000000003F003FE00000000000000C3
:10094000018000FE000000000000000000007E00AA
:100950000000000000000000003E00000000000059
:10096000000000000C000000000000078000FC00F8
:100970000003C0000000078001FC000003C000006D
:1009800000078001FC000003C0000000078001E0B8
:100990000000001E000000078001E00000001E00B3
:1009A0007FE3F79FF9FDE7787BDFC0FFF7FFBFFD2F
:1009B000FDFF787BDFC0FFF7FFBFFDFDFF787BDF2A
:1009C000C0F0F787BC3DE1FF787BDE00F0F787BC25
:1009D0003DE1F0787BDE0000F787803DE1E0787B49
:1009E000DE007FF7879FFDE1E0787BDE00FFF78781
:1009F000BFFDE1E0787BDE00F0F787BC3DE1E07809
:100A00007BDE00F0F787BC3DE1E0787BDE00F0F7AD
:100A100087BC3DE1E0787BDE00FFF7FFBFFDE1E052
:100A20007FFBDFC0FFF7FFBFFDE1E07FFBDFC07CA6
:100A3000F3F39F3DE1E03E7BCFC0000000000000EB
:100A40000000000000FFFFFFFFFFFFFFFFFFFFC0F0
:100A5000FFFFFFFFFD68DB111A31C0FFFFFFFFFD45
:100A60002B5AFB6AEFC0FFFFFFFFFD4B5B3B1A33C6
:100A7000C0FFFFFFFFFD6B5BDB6AFDC000000000F5
:100A8000000000000000C0000000000000000000A6
:100A9000000000000001C000000000000000000095
:100AA00000000000000160000000000000000000E5
:100AB00000000000000360000000000000000000D3
:100AC000E03C0007000260000000000000000001A0
:100AD000A06C000D80064000000000000000000136
:100AE00020C8000D000440000000000000000003CA
:100AF0006088001B000CC000000000000000000225
:100B0000419800130008800000000000000000066B
:100B1000C33000360019800000000000000000070C
:100B2000836000240019000000000000000000079E
:100B30000640006C00130000000000000000000EE2
:100B4000048000780032000000C000000000000EA9
:100B50000D8000700036000003E000000000000C73
:100B60000F0000F0002C00000660000000007F185D
:100B70001E0E02E4082C3841CC6000000003FC1873
:100B8000181F0EC418787CC3C8C00000000E0038BF
:100B90003019FDC41070C7C27F8000000018006DBE
:100BA000E01FF98C306046863E000000003000C730
:100BB000E001618830E07C84200038000060018022
:100BC0004061431860C33D8C2001FF0000400300DA
:100BD00040C3C318608205886003080000C002009B
:100BE000C0838330C1860D88400600000080060067
:100BF000C1838630C3860D984004000000C00C00FD
:100C0000C1078671C30E09904004000000C038007F
:100C1000C3078E71870E19B04004000000C0600049
:100C2000C70D0EF38D1E11B0600C00000060C000F7
:100C3000CD991EF2993230A030180000003F80009C
:100C400079F1F7BEF1E3E0E03FF00000000E0000B4
:100C500030E0C31860C0C0400FE000004F6666007F
:100C60004F6E00486F6C6420327320746F20736184
:100C700076652B6578697400426F6F74204C6F67DE
:100C80006F3A200031383020646567003020646599
:100C900067004F4C45443A2000730054696D6572FB
:100CA0003A20005265766572736564004E6F726D0E
:100CB000616C00456E636F6465723A2000474C4F6B
:100CC00042414C2053455454494E475300534554D8
:100CD00054494E47532053415645440000030609EA
:100CE0000C0F1215181C1F2225282B2E30333639D5
:100CF0003C3F414447494C4E515355585A5C5E6005
:100D0000626466686A6C6D6F7072737576777879F5
:100D10007A7B7C7C7D7E7E7F7F7F7F7F7F7F7F7FF6
:100D20007F7F7E7E7D7C7C7B7A7978777675737227
:100D3000706F6D6C6A68666462605E5C5A58555389
:100D4000514E4C494744413F3C393633302E2B28D5
:100D500025221F1C1815120F0C09060300FDFAF7B7
:100D6000F4F1EEEBE8E4E1DEDBD8D5D2D0CDCAC7B2
:100D7000C4C1BFBCB9B7B4B2AFADABA8A6A4A2A062
:100D80009E9C9A9896949391908E8D8B8A89888751
:100D9000868584848382828181818181432043236B
:100DA0004420442345204620462347204723412012
:100DB00041234220003366466CB6728979C3806B4A
:100DC00088879020993AA2E0AB18B6ECC04E6F200D
:100DD0007369676E616C002D2D2D004F4B00205301
:100DE0004156454421004D4F44452000000000007D
:100DF000240027002A002D00000000002500280004
:100E00002B002E002200FF210000000850020100EC
:100E100000030407000000000000000000000102C1
:100E20000408102040800102040810200102040878
:100E300010200208010410402040000000002300A0
:100E4000260029002C000404040404040404020203
:100E5000020202020303030303030505050505055A
:100E600005032F1C642E11241FBECFEFD8E0DEBF78
:100E7000CDBF11E0A0E0B1E0E8E7F6E602C00590E2
:100E80000D92A035B107D9F723E0A0E5B1E001C08C
:100E90001D92AD3AB207E1F717E0C2E3D7E004C014
:100EA0002197FE010E94DC2EC133D107C9F70E94B1
:100EB000FC1C0C942F330C940000089581508B304F
:100EC00088F5E82FF0E0E959F84F0C94DC2E7C0708
:100ED00080077207780792079207830789078D07B3
:100EE00093079707809180008F7780938000089503
:100EF000809180008F7DF9CF84B58F7784BD089570
:100F000084B58F7DFBCF8091B0008F778093B00048
:100F100008958091B0008F7DF9CF809190008F77F8
:100F2000809390000895809190008F7DF9CF8091FB
:100F30009000877FF5CFCF93DF93282F30E0F90122
:100F4000E85FF14F8491F901E25EF14FD491F9012C
:100F5000EA5BF14FC491CC23A1F081110E945E079E
:100F6000EC2FF0E0EE0FFF1FE65CF14FA591B4917E
:100F7000EC91ED2381E090E009F480E0DF91CF91E6
:100F8000089580E090E0FACF1F93CF93DF93282F4E
:100F900030E0F901E85FF14F8491F901E25EF14F31
:100FA000D491F901EA5BF14FC491CC23A9F0162F3B
:100FB00081110E945E07EC2FF0E0EE0FFF1FE8505A
:100FC000F24FA591B4918FB7F894EC91111108C02C
:100FD000D095DE23DC938FBFDF91CF911F910895D1
:100FE000DE2BF8CFEBE0FEE0E491E73009F444C0FB
:100FF000B8F4E23091F130F4E13051F160E083E097
:101000000C94C407E33071F1E430C1F72091800003
:1010100020622093800090938B0080938A00089533
:10102000EA30D1F170F4E83079F1E93039F7209104
:1010300090002068209390009093990080939800EE
:101040000895EB3099F1E035C9F68093A100089539
:1010500094B5906894BD87BD089594B5906294BD91
:1010600088BD08952091800020682093800090938F
:1010700089008093880008959091B00090689093C3
:10108000B0008093B30008959091B0009062909367
:10109000B0008093B40008952091900020622093C6
:1010A000900090939B0080939A0008952091900067
:1010B00028602093900090939F0080939E00089555
:1010C000CF93DF93282F30E0F901E25EF14F449196
:1010D0002A5B314FF9012491843011F583E080932C
:1010E000A0002223D1F0822F90E0880F991FFC01ED
:1010F000E451F24FA591B491FC01E850F24FC59133
:10110000D491611122C09FB7F8948C9140958423AB
:101110008C938881482348839FBFDF91CF910895A6
:101120009AEE980F923020F48FEF84BF84BFD9CF0E
:101130008931B9F68091F00082608EBB80E880939F
:10114000F0008EB38093F000CCCF623051F49FB7A3
:10115000F8942C91842F809582238C93E8814E2BD8
:10116000DACF8FB7F894EC914E2B4C938FBFD5CF3D
:1011700080917A00806480937A0080917A0086FD65
:10118000FCCF809178009091790008950F931F9380
:10119000CF93DF93EDEAF0E08081807F808380E46D
:1011A00080937C000DE710E0F801808180628083ED
:1011B0000E94B808EC01F80180818F7D80830E9435
:1011C000B8088C0F9D1F9C0136952795892F99276C
:1011D000A901481B590BCA01DF91CF911F910F91B3
:1011E00008953FB7F8948091510390915203A091D4
:1011F0005303B091540326B5A89B05C02F3F19F0A7
:101200000196A11DB11D3FBFBA2FA92F982F882786
:10121000BC01CD01620F711D811D911D660F771FED
:10122000881F991F08958F929F92AF92BF92CF927D
:10123000DF92EF92FF924B015C010E94F1086B017B
:101240007C010E94F1086C197D098E099F09683E96
:10125000734081059105A8F321E0821A9108A10845
:10126000B10888EEC80E83E0D81EE11CF11C811481
:101270009104A104B10429F7FF90EF90DF90CF9083
:10128000BF90AF909F908F9008952FB7F894609182
:101290004D0370914E0380914F03909150032FBFE7
:1012A0000895089508950895AF92BF92CF92DF9266
:1012B000EF92FF920F931F93CF93DF936C017B010B
:1012C0008B01040F151FEB015E01AE18BF08C0179C
:1012D000D10759F06991D601ED91FC910190F0810F
:1012E000E02DC6010995892B79F7C501DF91CF91D2
:1012F0001F910F91FF90EF90DF90CF90BF90AF9034
:101300000895EF92FF920F931F93CF93DF93EC0119
:10131000EC80FD806E157F050CF070C057FF04C097
:10132000240F351F50E040E08E819F81FA01E20FCB
:10133000F31F8E179F071CF49C01241B350B1216FC
:1013400013060CF05BC0922F842F869586958695A8
:101350008E9DD0018F9DB00D11246A0F7B1FAF8D24
:10136000B8A1A60FB71F477049F188E0841B482F2A
:10137000682F70E0FB01EE53FA4FE491281708F054
:1013800063C0621B71092FEF30E002C035952795CD
:101390006A95E2F7E2230130110539F0B0F102302D
:1013A000110561F58C91E82702C08C91E82BEC9334
:1013B000941720F12C813D81A20FB31FE92FE41B6C
:1013C000E83078F00230110521F58E2F9C91909530
:1013D0009C932C813D81A20FB31F88508830B0F7B9
:1013E000E770EE2359F0F0E0E654FA4FE491013053
:1013F0001105F9F010F10230110519F1DF91CF91CB
:101400001F910F91FF90EF900895E0958C91E82344
:10141000CECF81E00115110509F480E081959E2F62
:101420008C932C813D81A20FB31F98509830C0F748
:10143000D7CF8C91E82BEC93E1CFE0958C91E8230A
:10144000FACF8C91E827F7CF0130110509F4ADCF21
:10145000E0F20230110509F4A5CFAE0DBF1DAECFED
:101460000F931F93CF93DF9377FF04C0260F371F8F
:1014700070E060E0DC011496CD91DC91FB01E20F9D
:10148000F31FCE17DF071CF49E01261B370B121625
:1014900013064CF5FA0157FD3796A3E0F595E7954D
:1014A000AA95E1F7EC9FD001ED9FB00DFC9FB00D28
:1014B00011246A0F7B1FDC015F96ED91FC91E60F12
:1014C000F71F4770552781E090E001C0880F4A95CB
:1014D000EAF7482F0130110559F0A8F02E0F3F1FF1
:1014E00002301105E1F0DF91CF911F910F91089526
:1014F0002E0F3F1FE217F307B1F38191DF01119720
:10150000842B8C93F7CF80952E0F3F1FE217F307A4
:1015100051F39191DF01119798239C93F7CFE21734
:10152000F30709F38191DF01119784278C93F7CF9B
:101530000F931F93FA01DC0156964C915697423057
:10154000E9F04330A1F1413061F514964D915C9181
:10155000DA01AE1BBF0BFD01E21BF30B77FD0BC0E5
:10156000DC0116964D915C916417750724F4AB016C
:10157000BF010E94300A1F910F91089514964D915A
:101580005C91DA01A61BB70BBD0161507109DC014A
:1015900016964D915C91DA01AE1BBF0BFD01E21B6B
:1015A000F30B77FDE8CFAF010E948109E4CF1696D7
:1015B0004D915C91DA01A61BB70BBD016150710919
:1015C000CDCF0F931F93FA01DC0156964C9156979D
:1015D0004230A9F0433091F1413019F514964D9104
:1015E0005C91DA01AE1BBF0BFD013197F7FD04C022
:1015F000AB01BF010E9481091F910F9108951496BC
:101600004D915C91DA01A61BB70BBD01DC0116966A
:101610004D915C91DA01AE1BBF0BFD013197621B4E
:10162000730BF7FDE9CFDC0116964D915C91E41741
:10163000F50714F7AF010E94300ADECF16964D91E0
:101640005C91DA01A61BB70BBD01621B730BCECFF9
:10165000FC0177FD64C080859185681779070CF0DF
:101660005EC057FD5CC082859385481759070CF012
:1016700056C086898230B1F0833029F1813041F43F
:1016800084819581841B950BAB01BC01615071096C
:101690002130310509F108F443C02230310509F445
:1016A00063C0089584819581DC01A61BB70BBD0141
:1016B0006150710986819781DC01A41BB50BAD01D6
:1016C00041505109E5CF86819781861B970BBA015E
:1016D000AC0141505109DCCFCA0157FD0796A3E088
:1016E00095958795AA95E1F7A481B5818A9F900188
:1016F0008B9F300D9A9F300D1124620F731F078C42
:10170000F0A1E02DE60FF71F4770552721E030E0EC
:1017100001C0220F4A95EAF78081822B80830895C9
:10172000CA0157FD079633E0959587953A95E1F7FD
:10173000A481B5818A9F90018B9F300D9A9F300DB7
:101740001124620F731F078CF0A1E02DE60FF71F25
:101750004770552781E090E001C0880F4A95EAF76D
:10176000809590818923DACFCA0157FD079623E03F
:10177000959587952A95E1F7A481B5818A9F900177
:101780008B9F300D9A9F300D1124620F731F078CB1
:10179000F0A1E02DE60FF71F4770552721E030E05C
:1017A00001C0220F4A95EAF780818227B7CF2091A6
:1017B000B601260F3327331F21323105ECF4209177
:1017C000DA01FC0190E080E0243069F082E00895C5
:1017D000A091B6012191AC014A565E4FA40FB52FDE
:1017E000B11D2C930196861798F38091B601680F6E
:1017F0006093B60180E0089581E008951092DA01C7
:1018000081E08093DC011092DB0161E082E10E94C3
:10181000C40761E083E10E94C407E9EBF0E0808146
:101820008E7F808380818D7F808388E98093B8005C
:1018300085E48093BC000895CF93DF9391E090936B
:1018400095018823B9F0C091B800D091BA00809179
:10185000BC008A7B8093BC0060E082E10E94C407E8
:1018600060E083E10E94C4070E94FE0BD093BA009F
:10187000C093B800DF91CF910895E0910602809166
:101880000502E81730F4F0E0E059FE4F808190E067
:1018900008958FEF9FEF08959091060280910502C1
:1018A0002FEF3FEF981748F4E92FF0E0E059FE4F93
:1018B000208130E09F5F90930602C90108958091D6
:1018C000050290910602891B990B0895CF92DF9231
:1018D000EF92FF920F931F93CF93DF937C01CB0185
:1018E0008A0120915803222389F0EB016B01C40E79
:1018F000D51ECC15DD0569F06991D701ED91FC91FC
:101900000190F081E02DC7010995F3CF642F0E946B
:10191000D70BC801DF91CF911F910F91FF90EF90EE
:10192000DF90CF900895CF93DF931F92CDB7DEB7AE
:101930006983209158032223F9F020915503203226
:1019400058F021E030E0FC013383228390E080E016
:101950000F90DF91CF91089580915603E82FF0E02A
:10196000E05BFE4F998190838F5F80935603809355
:10197000550381E090E0ECCF61E0CE0101960E943A
:10198000D70BF7CFCF92DF92EF92FF920F931F9377
:10199000CF93DF93D091550381E0D13208F09CC002
:1019A000C09157030E94F1086B017C018091DA011C
:1019B00081116CC082E08093DA0181E08093DC01C8
:1019C0008FEF8093D9011092FE01D093FD01A0E525
:1019D000B1E0EDEDF1E080E0D8138DC01092FF0191
:1019E0008091FF01CC0FC82BC093FF018091DB01D8
:1019F000813009F084C01092DB010E94F1086B0174
:101A00007C018091FF018093BB00809191019091B6
:101A10009201A0919301B0919401892B8A2B8B2B79
:101A2000A1F00E94F1080091910110919201209182
:101A30009301309194016C197D098E099F09061755
:101A400017072807390708F442C08091BC0083FDBE
:101A5000D8CF85EC8093BC000E94F1086B017C011B
:101A60008091DA01823009F44CC08091D9018F3F16
:101A700009F469C08091D901803209F466C080916F
:101A8000D901803309F463C084E026C080919101BC
:101A900090919201A0919301B0919401892B8A2B8E
:101AA0008B2B09F483CF0E94F108009191011091D2
:101AB000920120919301309194016C197D098E0956
:101AC0009F09061717072807390708F06FCF80917D
:101AD00090010E941C0C85E0109256031092550351
:101AE00010925803DF91CF911F910F91FF90EF90CB
:101AF000DF90CF9008959D9191938F5F6DCF85EE8C
:101B0000A9CF8091910190919201A0919301B09100
:101B10009401892B8A2B8B2B09F4A2CF0E94F10808
:101B200000919101109192012091930130919401C3
:101B30006C197D098E099F090617170728073907B1
:101B400008F08ECFC4CF80E0C7CF82E0C5CF83E05E
:101B5000C3CF08958EBD0000CE99FECF8EB594E41C
:101B600099BB0895EF92FF920F931F93CF93DF934A
:101B70007C01C62F8091860390918703009709F41A
:101B800059C020918A0331E03093580320935703C2
:101B90001092560310925503DC01ED91FC910190D7
:101BA000F081E02D60E009958701EE24E394F12CAB
:101BB000D1E0C1508091860390918703CF3F91F18E
:101BC000B0E2EB16F104D8F00E94C20C80918603BB
:101BD0009091870320918A03D09358032093570351
:101BE0001092560310925503DC01ED91FC91019087
:101BF000F081E02D60E00995EE24E394F12C8091D2
:101C0000860390918703F8016491DC01ED91FC91CA
:101C10000190F081E02D0995BFEFEB1AFB0A0F5FF1
:101C20001F4FC7CFDF91CF911F910F91FF90EF9082
:101C30000C94C20CE0919603F091970390818091EF
:101C40009C038095892380838701C15008F438C0A4
:101C5000F80184912091840330918503232B29F08E
:101C60000E94AA0D0F5F1F4FF0CF28E030E040E840
:101C7000E0919203F091930390919A03582F54238B
:101C8000D9F05081952B9083E0919403F0919503C6
:101C9000908150919B03952B9083E0919403F09158
:101CA0009503508190919B03909595239083469541
:101CB00021503109E9F6D6CF508190959523E3CF95
:101CC000DF91CF911F910F91FF90EF9008951F9397
:101CD000CF93DF93EC018D8D9E8D009721F1162F10
:101CE00029A131E0309358032093570310925603F3
:101CF00010925503DC01ED91FC910190F081E02DF3
:101D000060E009958D8D9E8DDC01ED91FC91019037
:101D1000F081E02D612F09958D8D9E8DDF91CF9102
:101D20001F910C94C20CADA5BEA59C918BA980956A
:101D300089238C938B8D9C8D892B31F0862FDF919D
:101D4000CF911F910C94AA0D28E030E080E8A9A55E
:101D5000BAA599A9462F4823C1F04C91942B9C9386
:101D6000ABA5BCA59C914AA9942B9C93ABA5BCA503
:101D70004C919AA9909594239C9386952150310972
:101D800031F7DF91CF911F9108954C919095942355
:101D9000E6CF8CBD9DBD0895DF92EF92FF920F9329
:101DA0001F93CF93DF938091860390918703892BB4
:101DB00009F4A5C020919E0330919F034091A00398
:101DC0005091A10360E078E488EE91E00E949B2EA0
:101DD0002051310941095109569547953795279565
:101DE0002093B80064E084E09EE00E94B20D8091F0
:101DF0006D0390916E038034910509F097C060E205
:101E000089E693E00E94670E60916D03615E89E64A
:101E100093E00E94670E20916F0330917003C90117
:101E2000079697FD079633E0959587953A95E1F7E4
:101E300020916D0330916E03829F8001839F100D6E
:101E4000929F100D1124C0918803D0918903809135
:101E50008603909187030C0F1D1F009709F498C00B
:101E600020918A0331E03093580320935703109256
:101E7000560310925503DC01ED91FC910190F08125
:101E8000E02D60E40995EE24E394F12CDD24D39455
:101E900080918603909187030C171D0709F44FC0AA
:101EA000B0E2EB16F104D8F00E94C20C80918603D8
:101EB0009091870320918A03D0925803209357036F
:101EC0001092560310925503DC01ED91FC910190A4
:101ED000F081E02D60E40995EE24E394F12C8091EB
:101EE0008603909187036991DC01ED91FC9101904B
:101EF000F081E02D0995BFEFEB1AFB0AC9CF809165
:101F0000840390918503892B31F08091A7039091F0
:101F1000A8030E94C90EE0919803F0919903908163
:101F200080919D038095892380835CCF60E089E662
:101F300093E00E94670E60916D03615068CF0E942C
:101F4000C20C8091860390918703892B09F461C0AC
:101F50002091A2033091A3034091A4035091A503C3
:101F600060E078E488EE91E00E949B2E20513109D8
:101F70004109510956954795379527952093B80003
:101F8000DF91CF911F910F91FF90EF90DF90089517
:101F9000E0919603F0919703808190919C03892BA7
:101FA00080830C171D0769F2899120918403309179
:101FB0008503232B19F00E94AA0DF3CF28E030E00F
:101FC00040E8E0919203F091930390919A03582F87
:101FD0005423D9F05081952B9083E0919403F09194
:101FE0009503908150919B03952B9083E0919403EE
:101FF000F0919503508190919B0390959523908348
:10200000469521503109E9F6CCCF50819095952322
:10201000E3CFE0919803F0919903808190919D0323
:10202000892B8083ADCF1F93CF93DF93EC01162FC5
:102030008D8D9E8D892BB1F12DA93EA94FA958AD4B
:1020400060E078E488EE91E00E949B2E20513109F7
:102050004109510956954795379527952093B80022
:1020600066EA111167EACE010E94670E8D8D9E8D82
:10207000892B41F129AD3AAD4BAD5CAD60E078E420
:1020800088EE91E00E949B2E2051310941095109AF
:1020900056954795379527952093B800DF91CF91B6
:1020A0001F9108958B8D9C8D892B21F08EAD9FAD56
:1020B0000E94C90EEFA5F8A990818CA9809589236B
:1020C0008083CECFEFA5F8A980819CA9892B80833E
:1020D000E5CF0895FC016370668B8481958126812C
:1020E0003781613039F0633029F0918780873387F9
:1020F00022870895318720879387828708952F92BA
:102100003F924F925F926F927F928F929F92AF9287
:10211000BF92CF92DF92EF92FF920F931F93CF93D4
:10212000DF93CDB7DEB76A970FB6F894DEBF0FBE68
:10213000CDBF9A8F898F7A8369834A01D22E1887FF
:102140000F833701BC2CDC0159962D913C915A9795
:102150002115310509F015C118968D919C9119979B
:10216000681779070CF0D7C11A968D919C91481782
:1021700059070CF0D0C14C2C512CB6E0CB9E600D11
:10218000711D11247C876B87161617060CF0C3C1CE
:10219000EA2DF0E0FA87E98793E0EE0FFF1F9A95AA
:1021A000E1F7F88BEF87CF01840F951F18161906FA
:1021B0000CF0B1C1A98DBA8D58968C91811104C0D3
:1021C000BFEABD1508F4D394A98DBA8DED91FC91A9
:1021D00011970284F385E02DCD010995B5E0DB9ED2
:1021E000C0011124E981FA81FC83EB83312C212C7D
:1021F0009C0126543F4F388F2F8B4A2D50E05E8B29
:102200004D8BEF89F88DE20DF31D44919E828D82F6
:10221000D12CC12C69817A81620D731D7A8B698BF7
:10222000842F90E09C8B8B8BE98DFA8DA081B181FE
:1022300040FF82C0F1E0BF126FC0AF126DC01C96AC
:10224000ED91FC912F813885A4014C0D5D1D6989AC
:102250007A89898D9A8D0995EB89FC89F595E795A1
:102260004E2F5FEFC51AD50A6D817E818D899E89BB
:10227000680F791F7E836D8398E0C916D10481F6BB
:10228000AFEF2A1A3A0AEB81FC81E40DF51DFC83BD
:10229000EB83F5E02F16310409F0B3CF2F81388599
:1022A00026153705B9F0A98DBA8DED91FC91B1E0F5
:1022B000BB1257C0AB1255C069817A816B5F7F4FEB
:1022C0000088F189E02D830128E030E0A401898DA8
:1022D0009A8D0995A98DBA8DED91FC91119706887B
:1022E000F789E02DCD016A960FB6F894DEBF0FBED8
:1022F000CDBFDF91CF911F910F91FF90EF90DF90B5
:10230000CF90BF90AF909F908F907F906F905F9095
:102310004F903F902F9009941E96ED91FC91EF8085
:10232000F88409851A8592014D815E816B817C81DB
:10233000898D9A8D099590CF2F813885261537057F
:1023400009F48ACF31E0B31207C0A31205C01C966E
:10235000ED91FC91930178CF1E96ED91FC91730164
:10236000E0CF6B857C85641975090684F785E02DBF
:1023700073010F8518899201A401898D9A8D0995A1
:10238000A9CFF90134969491329745915491D91A75
:10239000B7E0DB9E400D511D1124F90125913491C8
:1023A0003C8B2B8BFA0125903490FA013296749075
:1023B00031963491398B329664903196449041E055
:1023C0004C1518F04A1508F07FC0662D062C000C3D
:1023D000770B7C836B83842D042C000C990B9E83DC
:1023E0008D83A98DBA8DED91FC9111970284F385AF
:1023F000E02DCD010995512CD12CC12CEA2DF0E016
:10240000FA87E9872B2D30E03C872B87A401440D08
:10241000511D47FC5A95588F4F8B69817A81660D03
:10242000711D67FC7A957E876D877989C71608F0DC
:1024300051CF2C2D30E04D815E81420F531FA98575
:10244000BA854A9FC0014B9F900D5A9F900D112451
:10245000FC01E80DF91DF88BEF87852D612C4F8964
:10246000588D420F531F5E8B4D8B671408F050C080
:1024700044244394480E877041F4C1010196EB89CE
:10248000FC89E20DF31DD4901C01D7FE19C0A98D63
:10249000BA8DED91FC91662D70E0B1E0BB1219C0D0
:1024A000AB1217C02D853E85620F731F0484F5851E
:1024B000E02D2F8138854D895E89898D9A8D09950A
:1024C000DD0C6394842DD1CF1E821D821C821B8261
:1024D00088CF4B815C81640F751FAB85BC856A9F7B
:1024E000C0016B9F900D7A9F900D112469817A81B4
:1024F000680F791F0684F785E02DEF80F884098541
:102500001A859D014F855889898D9A8D0995D8CF57
:10251000570CC3948ACF6A960FB6F894DEBF0FBEED
:10252000CDBFDF91CF911F910F91FF90EF90DF9082
:10253000CF90BF90AF909F908F907F906F905F9063
:102540004F903F902F9008958F929F92AF92CF928D
:10255000EF92FF920F931F93CF93DF93EC01262FFF
:10256000898D9A8D009709F051C06A30D1F41D868B
:102570001C868D8948E0849F900111248E859F855B
:10258000820F931F9F878E8781E090E0DF91CF912C
:102590001F910F91FF90EF90CF90AF909F908F90F1
:1025A00008956D3089F3CC88AD888F898823C1F078
:1025B0008C859D8536E0C39E800D911D1124488534
:1025C00059854817590764F44E855F851D861C861A
:1025D00038E0A39EC0011124840F951F9F878E872A
:1025E000EA88FB88088919894E855F856C857D8519
:1025F000CE010E947F102C898C859D8546E0249F0A
:10260000800D911D11249D878C87BECF6A3069F49F
:102610001D861C86FC013896E4912D898E859F8548
:10262000E29F800D911D1124ADCF6D3009F4ACCF28
:10263000FC0134963491631708F4A6CF3296E491E6
:10264000E61708F4A1CFFC01329685909490462FAE
:10265000431B342F47E0349F800C911C1124F4015C
:10266000329634913196E4913323A9F1EE2399F116
:10267000CC88F4013596E491AD884F89442301F16B
:102680000E2E000CFF0BE30FF11DCE9EA001CF9E7E
:10269000500D11246C857D85460F571F68857985FF
:1026A000641775076CF44E855F851D861C86FC01DA
:1026B0003896E491AE9E400D511D11245F874E87E0
:1026C000EA88FB88088919894E855F856C857D8538
:1026D000CE010E947F10F4013496E4912C898C8500
:1026E0009D85E29F800D911D11248DCF0F931F9327
:1026F000CF93DF938C01D0E0C0E0F801EC0FFD1F19
:102700006491662341F089E693E00E94A412892B2C
:1027100011F02196F2CFCE01DF91CF911F910F9151
:102720000895682F89E693E00C94A4126F927F922B
:102730008F929F92AF92BF92CF92DF92EF92FF92D1
:102740000F931F93CF93DF93EC016B015A01390173
:102750004801E881F9810284F385E02D0995E8813B
:10276000F9810288F389E02D87019301A501B60163
:10277000CE010995A501480D591D41505109E88127
:10278000F9810288F389E02D9301B601CE01099504
:10279000E881F9810088F189E02D9401A501B60155
:1027A000CE010995C60CD71CB60161507109E881AC
:1027B000F9810088F189E02D9401A501CE010995E8
:1027C000E881F9810688F789E02DCE01DF91CF916C
:1027D0001F910F91FF90EF90DF90CF90BF90AF903F
:1027E0009F908F907F906F9009946F927F928F92BD
:1027F0009F92AF92BF92CF92DF92EF92FF920F9390
:102800001F93CF93DF935C01EB016A01490138010B
:102810008701DC01ED91FC916217730719F56416CD
:1028200075062CF0962D872D3A01C92ED82E9601CB
:10283000261937092F5F3F4F048CF58DE02DA3013A
:10284000BE01C5010995DF91CF911F910F91FF90B6
:10285000EF90DF90CF90BF90AF909F908F907F9040
:102860006F9008954615570591F42617370724F001
:10287000892D4B01C22FD82F9E01281939092F5FAE
:102880003F4F068CF78DE02DA601B401DACF02840C
:10289000F385E02D0995D501ED91FC910488F5892A
:1028A000E02D83019401A601BE01C5010995D50162
:1028B000ED91FC910688F789E02DC501DF91CF915C
:1028C0001F910F91FF90EF90DF90CF90BF90AF904E
:1028D0009F908F907F906F900994EF92FF920F934B
:1028E0001F93DC011A960D911C911B9718962D9140
:1028F0003C911997ED91FC9100A0F1A1E02D7B0195
:1029000050E040E070E060E009951F910F91FF906A
:10291000EF9008954F925F926F927F928F929F9265
:10292000AF92BF92CF92DF92EF92FF920F931F93DD
:10293000CF93DF936C012B015A0139014801DC016F
:10294000ED91FC910284F385E02D0995E201640C80
:10295000751CD601ED91FC91C615D7055CF4008875
:10296000F189E02D87019401A501BE01C6010995F9
:102970002196EFCF0688F789E02DC601DF91CF9130
:102980001F910F91FF90EF90DF90CF90BF90AF908D
:102990009F908F907F906F905F904F9009948F924F
:1029A0009F92AF92BF92CF92DF92EF92FF920F93DE
:1029B0001F93CF93DF93EC015B014A016901E8812A
:1029C000F9810284F385E02D099595012C0D3D1DBB
:1029D00021503109E881F9810488F589E02D7801D9
:1029E0008401A401B501CE010995E881F981068829
:1029F000F789E02DCE01DF91CF911F910F91FF90CC
:102A0000EF90DF90CF90BF90AF909F908F90099400
:102A10008F929F92AF92BF92CF92DF92EF92FF92EE
:102A20000F931F93CF93DF93EC015B014A01690180
:102A30007801E881F9810284F385E02D0995C80CBD
:102A4000D91C860101501109E881F9810488F589B2
:102A5000E02D9501A401B501CE010995E881F98128
:102A60000688F789E02DCE01DF91CF911F910F915C
:102A7000FF90EF90DF90CF90BF90AF909F908F909E
:102A80000994EF92FF920F931F93DC01ED91FC915B
:102A900000A0F1A1E02D09951F910F91FF90EF90FB
:102AA00008950F931F93DC01ED91FC91068CF78D37
:102AB000E02D09951F910F9108950F931F93DC014D
:102AC000ED91FC91048CF58DE02D09951F910F91EE
:102AD0000895DC01ED91FC910084F185E02D0994CD
:102AE0003F924F925F926F927F928F929F92AF929E
:102AF000BF92CF92DF92EF92FF920F931F93CF93EB
:102B0000DF9300D000D0CDB7DEB75C013B016A0196
:102B10004901280187E0480E511C93E055944794E1
:102B20009A95E1F7CA018E0D9F1D9A838983F12C36
:102B3000E12C312C1C821B828B819C818770992710
:102B4000330C892B61F4EB81FC8183E0F595E795EB
:102B50008A95E1F7EE0DFF1DE80DF91D349037FE63
:102B60000AC021E030E0A6016B817C81660D771DF3
:102B7000C5010E9469158B819C8101969C838B8382
:102B800008171907C9F69FEFC91AD90AE40CF51CF2
:102B900089819A81C816D90669F60F900F900F9017
:102BA0000F90DF91CF911F910F91FF90EF90DF90E9
:102BB000CF90BF90AF909F908F907F906F905F90DD
:102BC0004F903F9008952F923F924F925F926F9255
:102BD0007F928F929F92AF92BF92CF92DF92EF92AD
:102BE000FF920F931F93CF93DF9300D000D000D0BC
:102BF000CDB7DEB73C016A013E832D83FC82EB82B8
:102C00005801A41AB50AB7FE03C0B194A194B10843
:102C10008D809E80861A970A97FE03C091948194B6
:102C200091088A149B045CF0902F812F0D811E81E6
:102C30009D838E839C2D8D2D6B01692F782F0C1514
:102C40001D055CF09D818E817E836D83692F782FB9
:102C5000902F812F8601C92ED82E1601201A310AF5
:102C60002B012D813E81421A530A57FE03C0519415
:102C700041945108710137FE03C03FEFE31AF30A94
:102C8000F594E7948D819E81861797075CF5A1E006
:102C9000B0E0BA83A983C016D1064CF1D301ED91FF
:102CA000FC910484F585E02D2B813C81A8016D8188
:102CB0007E818A149B041CF04D815E81B801C301A2
:102CC0000995E418F508F7FE0AC02D813E81898137
:102CD0009A81280F391F3E832D83E20CF31C0F5F6E
:102CE0001F4FD9CF2FEF3FEF3A832983D4CF2696BA
:102CF0000FB6F894DEBF0FBECDBFDF91CF911F910D
:102D00000F91FF90EF90DF90CF90BF90AF909F908A
:102D10008F907F906F905F904F903F902F9008958D
:102D2000089590E080E008958150853088F490E027
:102D3000FC01EE0FFF1FE80FF91FE95FFD4F8091C7
:102D40004103808380910501818380910401828306
:102D5000089580E680937C0085EC80937A008091D2
:102D60007A0086FDFCCF809179000895DC01ED9119
:102D7000FD918081ED91FD919081ED91FD916C919E
:102D800063708E2309F064609F2309F06860E3EDAF
:102D9000F6E1E60FF11D659565956D936D917D9159
:102DA0008D919D91099423C01AC012C016C010C005
:102DB0001EC009C014C013C006C019C009C00DC090
:102DC00007C00DC014C062507040804090400BC0DE
:102DD000615070408040904006C06E5F01C06F5FE0
:102DE0007F4F8F4F9F4F9E938E937E936E93089548
:102DF0008091590390915A030C94B61680915B030D
:102E000090915C030C94B61680916803823078F43C
:102E1000F8948DE593E00E94B6166091640370917A
:102E20006503809166039091670378940895F89400
:102E3000F4CF8C3F43E0940750F06CEF73E00E94B6
:102E4000732E362F330F330F20E0820F931F06B6F9
:102E500006FE13C046B743702CEF33E002C0220FCA
:102E6000331F4A95E2F78217930750F481BD92BD54
:102E7000F89A0000000080B5089530E020E0F3CF1C
:102E800080E008950F931F93CF93DF938C01EB01A4
:102E90000E9419178883C80101960E941917898317
:102EA000CE01DF91CF911F910F9108950C941917C6
:102EB000E62F8C3F43E0940750F06CEF73E00E94E4
:102EC000732E362F330F330F20E0820F931F06B679
:102ED00006FE17C046B743702CEF33E002C0220F46
:102EE000331F4A95E2F78217930750F42FB781BD3D
:102EF00092BDE0BDF89484E08FBB82E08FBB2FBF12
:102F0000089530E020E0EFCF1F93CF93DF93EC01E3
:102F1000162F888199810E941917181729F0612F9F
:102F2000888199810E945817CE01DF91CF911F911E
:102F30000895EF92FF920F931F93CF93DF9300D0EA
:102F4000CDB7DEB760910D0184E090E09A8389836C
:102F5000CE0101960E94841797E0E92E92E0F92EA7
:102F600005E010E0F70160811A830983CE01019624
:102F70000E948417F7016181C80101969A838983B1
:102F8000CE0101960E948417F7016281C801029662
:102F90009A838983CE0101960E948417F3E0EF0E95
:102FA000F11C0D5F1F4F04311105E1F6EE24E3948F
:102FB000F12C0AE010E020E830E046E350E070E059
:102FC00060E089E693E00E948A1410927C031092DC
:102FD0007B0310927A031092790384E090E090933F
:102FE00076038093750387E390E090937803809352
:102FF000770388E790E00E9476130E94CC0E64EF7E
:1030000071E080E090E00E9413090F900F90DF9133
:10301000CF911F910F91FF90EF90089585ED8093D0
:10302000BC008091910190919201A0919301B09187
:1030300094010796A11DB11D23E0B695A79597951C
:1030400087952A95D1F72091BC0024FD03C01092EA
:10305000DA0108954091910150919201609193019C
:1030600070919401452B462B472B69F30097A105DE
:10307000B10541F025E52A95F1F700000197A10976
:10308000B109E1CF809190010C941C0C20916F0349
:1030900030917003C901079697FD079623E0959537
:1030A00087952A95E1F720916D0330916E03829FF9
:1030B000A001839F500D929F500D112470E060E09D
:1030C00080918803909189030C9447302FEF280F4B
:1030D000253048F530E0F901EE0FFF1FE20FF31F36
:1030E000E95FFD4F90819093410391819093050199
:1030F000928190930401833009F43FC0F8F4823048
:10310000E1F160E086E00E94600861E083E00E94F7
:10311000600860E083E00E94C40780917A00887FA5
:10312000846080937A00E5E3F2E080E091E0DF01E3
:103130009C011D9221503040E1F70895843051F1F7
:103140008530F9F661E083E00E9460088FE790E047
:103150000E94F20760E086E00E94600880917A0099
:10316000887F846080937A0010923102109232023C
:103170001092330210923402D6CF61E083E00E94B5
:1031800060088FE790E00E94F20760E086E00E940E
:103190006008C3CF61E083E00E9460088FE790E0A1
:1031A0000E94F20761E086E00E94600860E086E02D
:1031B0000E94C40780917A008760B3CFFC01019020
:1031C0000020E9F73197AF01481B590BBC0189E694
:1031D00093E00C945409CF93DF930E947613EC0193
:1031E00084E491E00E94DE188C0F9D1FDF91CF9147
:1031F00008958F929F92AF92BF920F931F93CF9398
:10320000DF93CDB7DEB7A1970FB6F894DEBF0FBE40
:10321000CDBF19A2423008F44AE08E010F5D1F4F66
:10322000842E912CB12CA12CA50194010E949B2EDF
:10323000E62FB901CA01EA30F4F4E05DD801EE935B
:103240008D01232B242B252B79F790E080E010971C
:1032500019F0CD010E94DE18A1960FB6F894DEBFDA
:103260000FBECDBFDF91CF911F910F91BF90AF9057
:103270009F908F900895E95CE1CFCF92DF92EF921B
:10328000FF92CF93DF936C01990FEE08FF08F7FED2
:1032900017C08DE20E949113EC0166277727CB01BE
:1032A0006C197D098E099F094AE00E94F9188C0F5C
:1032B0009D1FDF91CF91FF90EF90DF90CF90089509
:1032C0004AE0C701B601DF91CF91FF90EF90DF9008
:1032D000CF900C94F918EF92FF920F931F93809167
:1032E00006018150990B2AE2289FB001299F700D99
:1032F00011249B012C5D3F4FEE24E394F12C08E058
:1033000010E048E050E089E693E00E94F513209138
:10331000410381E090E0213011F490E080E090934F
:103320007A038093790381E090E0213011F090E0FE
:1033300080E090937C0380937B031092760310923D
:103340007503109278031092770384EB90E00E944B
:1033500076138EE190E0909376038093750310923C
:1033600078031092770360910D0170E090E080E0A7
:103370004AE00E94F9182091410381E090E0223058
:1033800011F490E080E090937A038093790381E0D8
:1033900090E0223011F090E080E090937C038093E5
:1033A0007B038AE290E090937603809375031092FA
:1033B00078031092770380910D01843009F445C0A1
:1033C000D0F58130E8F588E490E09093760380931F
:1033D000750310927803109277036091050170E0F5
:1033E00090E080E04AE00E94F91880910D0183305E
:1033F000A1F58091280281112BC090E080E021E0AE
:1034000030E030937A032093790390937C03809388
:103410007B0384E590E0909376038093750310928C
:103420007803109277038DE990E01F910F91FF9040
:10343000EF900C947613853031F682EA90E002C06A
:103440008EEA90E00E947613BECF88EA90E0FACF31
:1034500081E090E030E020E0D4CF853009F445C031
:103460009091410321E030E0933011F430E020E00E
:1034700030937A032093790321E030E0933011F008
:1034800030E020E030937C0320937B0324E530E0A0
:10349000309376032093750310927803109277038C
:1034A0008230E9F08430F1F0813021F487E990E056
:1034B0000E94761382E790E09093760380937503E1
:1034C000109278031092770380910401082E000C6B
:1034D000990B1F910F91FF90EF900C943D1981E98A
:1034E00090E0E6CF8BE890E0E3CF1F910F91FF9043
:1034F000EF9008950E9430301F920F920FB60F92F6
:1035000011242F933F938F939F93AF93BF938091F9
:103510004D0390914E03A0914F03B0915003309111
:103520004C0320E4230F2D3728F023EC230F0196C2
:10353000A11DB11D20934C0380934D0390934E0326
:10354000A0934F03B0935003809151039091520385
:10355000A0915303B09154030196A11DB11D809316
:10356000510390935203A0935303B0935403BF911C
:10357000AF919F918F913F912F910F900FBE0F9020
:103580001F9018951F920F920FB60F9211242F9330
:103590003F934F935F936F937F938F939F93AF93DB
:1035A000BF93EF93FF93E0911001F0911101099502
:1035B000FF91EF91BF91AF919F918F917F916F910B
:1035C0005F914F913F912F910F900FBE0F901F90E1
:1035D00018951F920F920FB60F9211242F933F93BD
:1035E0004F935F936F937F938F939F93AF93BF930B
:1035F000EF93FF93E0910E01F0910F010995FF9178
:10360000EF91BF91AF919F918F917F916F915F915A
:103610004F913F912F910F900FBE0F901F901895D3
:103620001F920F920FB60F9211242F933F934F9337
:103630005F936F937F938F939F93AF93BF93EF931A
:10364000FF938091B900887F803609F44AC0F0F575
:10365000883209F4A7C018F5803109F49BC0B8F48A
:10366000882309F4F9C0883009F494C0FF91EF91E0
:10367000BF91AF919F918F917F916F915F914F918A
:103680003F912F910F900FBE0F901F90189588318A
:1036900009F488C0803251F78093D90114C0803476
:1036A00009F49DC040F48033B9F38833F9F6809370
:1036B000D90185ECB0C0803509F485C0883509F49E
:1036C00096C0883499F60E940E18D0CF883909F434
:1036D0008CC038F5883729F050F4883611F08037DF
:1036E00029F683E08093DA011092D80157C0883818
:1036F00009F47BC0803919F0803809F0B7CF809188
:10370000D801803208F071C0E091D80181E08E0FBD
:103710008093D8018091BB00F0E0E854FE4F808395
:103720003DC0803B39F0E0F4803A09F479C0883A32
:1037300009F09CCF84E08093DA011092B7011092D7
:10374000B601E0910302F091040209958091B6015F
:1037500081110FC081E08093B6011092960109C0DB
:10376000803C09F4A6CF883C09F4A3CF883B09F03C
:103770007DCFE091B70181E08E0F8093B701F0E03B
:10378000EA56FE4F80818093BB009091B7018091F3
:10379000B60129C08091FF018093BB0085EC809326
:1037A000BC0064CF9091FE018091FD01981758F5FF
:1037B000E091FE0181E08E0F8093FE01F0E0E35284
:1037C000FE4F8081E9CFE091FE0181E08E0F809372
:1037D000FE018091BB00F0E0E352FE4F80839091A8
:1037E000FE018091FD019817C8F285E8D8CFE091DD
:1037F000FE0181E08E0F8093FE018091BB00F0E01E
:10380000E352FE4F80838091DC0181115CCF81E027
:103810008093DB0184EA8093BC001092DA0126CF0A
:1038200085EC8093BC001092DA018091D80180323F
:1038300030F4E091D801F0E0E854FE4F108260913E
:10384000D80170E0E0910102F091020288EB91E072
:1038500009951092D8010ACF1092D90134CF90E87F
:1038600096BF8CE486BF96BF86BF10926C03109201
:103870006B0320E830E030936E0320936D0380E407
:1038800090E09093700380936F03309372032093C2
:103890007103909374038093730310927F031092CB
:1038A000760310927503109278031092770381E0EB
:1038B00080937E0380937D032FEF3FEF30937C0353
:1038C00020937B0330937A032093790380938003C2
:1038D0001092810310928303109282032CE131E055
:1038E00030936A0320936903109285031092840336
:1038F0001092870310928603109289031092880316
:1039000099E090938D039AE090938E039BE09093BF
:103910008F039CE0909390039DE09093910391E539
:103920009093A7038093A80362E082E00E9460085E
:1039300062E084E00E946008E8E4FEE0E491F0E0E8
:10394000EE0FFF1FE65CF14F8591949190935E031B
:1039500080935D03E0E2FEE0E491E0936103EAE43A
:10396000FEE0E491F0E0EE0FFF1FE65CF14F859181
:1039700094919093600380935F03E2E2FEE0E49110
:10398000E093620310926403109265031092660341
:103990001092670385E593E50197F1F7E0915D03E8
:1039A000F0915E03908180916103982381E009F496
:1039B00080E0E0915F03F0916003908120916203C9
:1039C000922309F08260809363038DE593E09093E6
:1039D0005A038093590388EF96E190930F018093E7
:1039E0000E01809169008C7F816080936900E89A64
:1039F00081E0809368030895CF93DF93CDB7DEB75E
:103A0000A4970FB6F894DEBF0FBECDBF8091F20031
:103A100080618EBB80E88093F2009EB39093F200A9
:103A20008093610091E0909361009091F2009F7902
:103A30009EBB8093F2009EB39093F2009091F200AF
:103A40009B7F9EBB8093F2009EB39093F200809385
:103A5000610010926100789484B5826084BD84B561
:103A6000816084BD85B5826085BD85B5816085BD79
:103A700080916E00816080936E0010928100809131
:103A800081008260809381008091810081608093B9
:103A90008100809180008160809380008091B100DE
:103AA00084608093B1008091B00081608093B00009
:103AB000809191008260809391008091910081605B
:103AC000809391008091900081608093900080911C
:103AD0007A00846080937A0080917A008D7F809351
:103AE0007A0080917A008E7F80937A0080917A00AC
:103AF000806880937A001092C10067E071E090E0E6
:103B000080E00E9442178091070190910801813066
:103B1000910541F0019631F081E090E09093080129
:103B20008093070181E090E00E94561780931A026B
:103B30008D7F11F010921A0262E071E082E090E055
:103B40000E94421780910201909103010197CC9746
:103B500030F085E090E0909303018093020183E0D0
:103B600090E00E94561780930001823018F081E0A7
:103B70008093000184E090E00E9456179FEF980F19
:103B8000953010F480930D01809188039091890302
:103B9000892B39F10E94461880916F039091700330
:103BA00060916D0370916E03813291050CF0ABC191
:103BB000AC014052510957FF02C04F5F5F4F55950E
:103BC00047956357710977FF02C06F5F7F4F759507
:103BD0006795F0E2EF2EF12C03E710E02CED35E0D5
:103BE000AAC120916F0330917003C901079697FD18
:103BF000079623E0959587952A95E1F720916D0327
:103C000030916E03AC01429FC001439F900D529FC3
:103C1000900D11240E940B2F9093890380938803A9
:103C2000892B09F0B7CF60911A0289E693E00E94D0
:103C30006A100E94461881E080937D0380937E0382
:103C400081E090E090937C0380937B0390937A03D0
:103C50008093790380910001882389F1D12CC12CB4
:103C60000E9446181EE1E12EF12C00E810E02CE73E
:103C70003AE04EE050E070E060E089E693E00E94B8
:103C8000701520E830E02C193D09F12CE12C0EE1F3
:103C900010E04EE050E0B60189E693E00E948A14FD
:103CA0000E94CC0E5AE0C50ED11C62E8C616D104A3
:103CB000B9F660E273E080E090E00E94130961E0F1
:103CC00083E00E94600862E085E00E94600860E096
:103CD00086E00E94600860E087E00E9460088091B2
:103CE000B100887F8093B1008091B10081608093A2
:103CF000B100F7E0CF2EF2E0DF2EA5E0EA2EF12CA6
:103D0000AA24A394B12C01E0C7010E945617982E53
:103D1000D6018C93C70101960E945617182FF60101
:103D20008183C70102960E945617D60112968C9382
:103D3000B3E0B91510F4F6011082F3E0AF16B10448
:103D400009F41BC308F0F2C232E0A316B10409F46F
:103D500002C3112309F4FDC2193008F018E01093D2
:103D60000802982F8B300CF09AE09A3F0CF49AEFEF
:103D700090930902811102C0009309026FEFA61A05
:103D8000B60A73E0E70EF11C83E0C80ED11C94E183
:103D9000E916F10409F0B8CF80910D010E94661870
:103DA000DE011D96B98BA88BFE0131961F01009193
:103DB0004B0300934A0310910D0110930C0185E011
:103DC0000E949B0721E0009709F020E020934B031D
:103DD000892B09F0F2C2011111C00E9445096093BC
:103DE000460370934703809348039093490381E00F
:103DF000809345031092440310924303809145033E
:103E00008823F9F08091440381111BC00E94450969
:103E1000C0904603D0904703E0904803F0904903D8
:103E20006C197D098E099F09683E734081059105D3
:103E300040F0812F0E9494160E94991781E0809390
:103E40004403F0904B03FF2071F1809142038111F4
:103E50002FC080914303811199C48091440388232A
:103E600009F494C40E944509009146031091470348
:103E70002091480330914903601B710B820B930B17
:103E8000683B7B408105910508F480C481E0809304
:103E900042038093430380930B010E9404177093A5
:103EA0000A016093090180914203882309F46EC4DA
:103EB00000910701109108010E940417E091090187
:103EC000F0910A01AF014D5F5F4F461757070CF0A5
:103ED00035C370930A016093090180910B01813011
:103EE00009F454C3823009F06EC2809102019091AE
:103EF00003018230910508F475C201979093030184
:103F0000809302016FC2AC014054510957FF02C0B7
:103F10004F5F5F4F559547956255710977FF02C016
:103F20006F5F7F4F7595679510E4E12EF12C02E5E8
:103F300010E02CEB37E089E693E00E94701582E0F8
:103F400080938B038091860390918703892B09F4DA
:103F5000E8C080916F0390917003809709F0DFC0F3
:103F60008CE380938A03109206021092050210924D
:103F70005603109255030E94FE0B81E599E0909341
:103F800004028093030282E599E0909302028093F9
:103F900001028091910387FD1EC061E00E946008CC
:103FA00061E0809191030E94C40761E070E080E0CD
:103FB00090E00E94130960E0809191030E94C40781
:103FC0006AE070E080E090E00E94130961E0809177
:103FD00091030E94C4078091860390918703892BE7
:103FE00009F45EC120919E0330919F034091A0038C
:103FF0005091A10360E078E488EE91E00E949B2E4E
:104000002051310941095109569547953795279512
:104010002093B80064E088ED95E00E94B20D6091B5
:104020006F03615089E693E00E94670E64E084EDBF
:1040300095E00E94B20D80918B0360E1813009F020
:1040400064E189E693E00E94670E64E080ED95E00C
:104050000E94B20D8FE88093A60380916D0390912A
:104060006E038038910509F032C180916F03909101
:1040700070038034910509F03AC180918B0381303F
:1040800009F048C18FE98093A60312E16AED89E641
:1040900093E00E94670E612F89E693E00E94670E0D
:1040A00061E889E693E00E94670E6091A60389E6C5
:1040B00093E00E94670E69ED89E693E00E94670E27
:1040C00080918B0362E2813009F061EF89E693E031
:1040D0000E94670E66E08AEC95E00E94B20D809126
:1040E000860390918703892B09F416C12091A203BE
:1040F0003091A3034091A4035091A50360E078E4BC
:1041000088EE91E00E949B2E20513109410951090E
:1041100056954795379527952093B80084CD8DE324
:1041200020CF61E080918F030E94600861E0809160
:1041300090030E94600880918F03082E000C990B59
:10414000FC01EA5BF14FE491F0E0EE0FFF1FE85055
:10415000F24F259134913093970320939603FC01FD
:10416000E25EF14FE491E0939C0380919003082E6E
:10417000000C990BFC01EA5BF14FE491F0E0EE0FCB
:10418000FF1FE850F24FA591B491B0939903A0930B
:104190009803FC01E25EF14FE491E0939D038C9162
:1041A000E82BEC938091840390918503892B09F48B
:1041B00034C01FB7F89480910002811127C0E0E558
:1041C000FEE08491E8E2FEE09491E82FF0E0EE0F4B
:1041D000FF1FE451F24FA591B491EC91E92321F432
:1041E00061E08AE00E94C40761E08AE00E94600802
:1041F0008CB580618CBD8CB580648CBD61E08DE038
:104200000E94600861E08BE00E94600880910002DB
:104210008F5F809300021FBFBCCE61E080918D0351
:104220000E94600861E080918E030E946008809186
:104230008D03082E000C990BFC01EA5BF14FE49111
:10424000F0E0EE0FFF1FE850F24F259134913093CC
:10425000930320939203FC01E25EF14FE491E0931B
:104260009A0380918E03082E000C990BFC01EA5BE7
:10427000F14FE491F0E0EE0FFF1FE850F24FA591EF
:10428000B491B0939503A0939403FC01E25EF14FC7
:10429000E491E0939B038C91E095E823EC9379CE35
:1042A0008091840390918503892B31F08091A7033D
:1042B0009091A8030E94C90EE0919803F091990390
:1042C000908180919D03809589238083A3CE803641
:1042D000910589F480916F0390917003409739F4B0
:1042E00080918B03813029F480E18093A60312E052
:1042F000CDCE8FEAFACF80349105C9F780916F0354
:1043000090917003809799F780918B03813011F41D
:1043100080E1B9CE8FECB7CEE0919803F09199038C
:10432000808190919D03892B80837DCC44E0A416ED
:10433000B10479F155E0A516B10409F00ACD1123B5
:10434000D1F1193008F018E010931402009315020F
:1043500015CD11E004CD112371F0193008F018E0EB
:1043600010930B0287300CF086E018160CF081E0F9
:1043700080930C0203CD11E0F3CF112341F01530EF
:1043800008F014E010930E0200930F02F7CC11E036
:10439000F9CF112371F0153008F014E010931102D9
:1043A00089300CF088E018160CF081E0809312023E
:1043B000E5CC11E0F3CF11E0C7CF002309F41ECD07
:1043C000109245031BCD833041F410921A0260E035
:1043D00089E693E00E946A1005C0843019F481E0F8
:1043E0008093000180910701909108018017910747
:1043F00021F0109308010093070180914A03811175
:10440000CBC0FF2009F4CAC080910B0183708F5F7D
:1044100080930B010E944509609316027093170266
:104420008093180290931902C0901602D090170240
:10443000E0901802F0901902C114D104E104F104D3
:1044400009F4B4C00E9445096C197D098E099F09C1
:10445000603D77408105910508F4A8C01A82198251
:1044600060910701C1010E94841701E010E01A83E6
:10447000098360910801C1010E94841760911A02AA
:1044800081E090E00E9458176091020182E090E084
:104490009A838983C1010E9484176091000183E09F
:1044A00090E00E94581780910D010E9494160E947E
:1044B00099170E94461810937C0300937B03109376
:1044C0007A030093790380E190E0909376038093E0
:1044D000750389E190E090937803809377038DECE6
:1044E0009CE00E9476130E94CC0E60E273E080E0B4
:1044F00090E00E941309109242031092160210924B
:10450000170210921802109219020E9404172091AB
:10451000070130910801269FA001279F500D369F6B
:10452000500D112450930A014093090180E090E05E
:10453000892B09F43CCC0E94000036CCAF014350DB
:104540005109641775070CF04DCF70930A01609301
:10455000090180910B018130E1F0823051F48091AA
:104560000201909103018C33910508F03BCF019635
:10457000C5CC833029F482E080931A0262E028CF10
:10458000843009F02FCF109200012CCF01E010E011
:1045900029CF0FEF1FEF26CFF11046CF1092160252
:1045A0001092170210921802109219020E944618D7
:1045B000109276031092750310927803109277038D
:1045C00081E090E090937C0380937B0390937A0347
:1045D000809379038DEB9CE00E94EB1884E491E0DA
:1045E0000E94DE1820910B0181E090E0213011F44F
:1045F00090E080E090937A038093790381E090E0EB
:10460000213011F090E080E090937C0380937B0355
:1046100083EB9CE00E94761381E090E090937C0312
:1046200080937B0390937A038093790380910701B1
:1046300090910801019709F0A0C08CEA9CE00E94CB
:10464000EB1820910B0181E090E0223011F490E012
:1046500080E090937A038093790381E090E02230A8
:1046600011F090E080E090937C0380937B038BE9D2
:104670009CE00E94761381E090E090937C0380930D
:104680007B0390937A038093790360910201709188
:10469000030190E080E04AE00E94F91889E99CE07B
:1046A0000E94EB1820910B0181E090E0233011F47F
:1046B00090E080E090937A038093790381E090E02A
:1046C000233011F090E080E090937C0380937B0393
:1046D00082E99CE00E94761381E090E090937C0355
:1046E00080937B0390937A038093790380911A02DD
:1046F000811146C08CE89CE00E94EB1820910B01D0
:1047000081E090E0243011F490E080E090937A030F
:104710008093790381E090E0243011F090E080E014
:1047200090937C0380937B0388E79CE00E94761340
:1047300081E090E090937C0380937B0390937A03D5
:1047400080937903809100018823E9F080E69CE062
:104750000E94EB1884E090E09093760380937503B9
:1047600088E390E0909378038093770383E69CE05E
:104770000E9476130E94CC0ED9CE83EA9CE05FCFD4
:1047800084E89CE0B9CF8CE59CE0E2CF0E9404175E
:104790008091440381115CC180914A038111B0C1B1
:1047A000FF2009F4AFC18091060190914103981355
:1047B00047C1109241030E94450960933D037093E5
:1047C0003E0380933F03909340030E94041740915F
:1047D000070150910801469F9001479F300D569F59
:1047E000300D11248091090190910A0197FD0396E3
:1047F00095958795959587950091410310910D01A9
:10480000A9014350510957FDA90155954795559563
:104810004795841795070CF0ABC130930A0120939C
:1048200009010E94450960933D0370933E03809304
:104830003F0390934003013009F485C108F47AC125
:10484000023009F489C1033009F48CC110910D01C3
:10485000133009F416C208F0C7C1113009F4D7C1EA
:10486000123009F4F2C180910C011817A9F00E94CE
:104870009416812F0E9466180E944618013011F488
:10488000009341030E94450960933D0370933E03EA
:1048900080933F03909340030E944509C0903D03DD
:1048A000D0903E03E0903F03F09040039B01AC01A9
:1048B0002C193D094E095F092C8B3D8B4E8B5F8B6C
:1048C0002091020130910301A8EEB3E00E94E22E94
:1048D000688F798F8A8F9B8F133009F49AC308F001
:1048E000F8C1113009F48DC2123009F043CF809124
:1048F0000601882309F437C3843008F083E08093ED
:10490000060100910501002309F42FC3093008F0C6
:1049100008E0009305011091040117300CF427C33F
:1049200016E0109304010E9445096B017C01A12F40
:10493000110FBB0B119724E630E00E94F12E6E5C44
:104940007F4F8F4F9F4F80901F0290902002A0902A
:104950002102B0902202C818D908EA08FB08C6163E
:10496000D706E806F90608F405CF0E9445096093CA
:104970001F027093200280932102909322020E94D2
:104980004618063008F4F8C284E1089F002D11246F
:104990000456F5E3CF2EF2E0DF2E760110E00E9400
:1049A000A916D7018D937D01C801880F991F880F23
:1049B000991F019700F400F000F400F000000000DF
:1049C0000197D1F7E5EBF2E0EA17FB0741F770E05A
:1049D00060E05B01FFEFAF1ABF0AF60181812FEFA4
:1049E000C21AD20A90E095958795959587950FE321
:1049F00010E0081B190B808190E09595879595959F
:104A000087954FE350E0481B590BEE24E394F12CBB
:104A1000950189E693E00E94F513B5016F377105A2
:104A2000C1F64C895D896E897F89888D998DAA8DA3
:104A3000BB8D481759076A077B0708F09BCE87C2D2
:104A40009FEF980F933008F0C0CE80934103B3CE10
:104A5000FF2009F457C08091390390913A03A09147
:104A60003B03B0913C03892B8A2B8B2B51F40E9482
:104A700045096093390370933A0380933B03909305
:104A80003C030E9445090091390310913A0320919B
:104A90003B0330913C03601B710B820B930B683519
:104AA00072408105910508F041CD0E94461881E0D1
:104AB00090E090937C0380937B0390937A038093A0
:104AC000790380937D0380937E0388E090E0909348
:104AD0007603809375038CE190E090937803809344
:104AE000770386EE9DE00E94761360910D0170E0E1
:104AF00090E080E04AE00E94F9188EED9DE038CE0B
:104B0000F11063CE8091390390913A03A0913B0359
:104B1000B0913C03892B8A2B8B2B09F456CE109233
:104B2000390310923A0310923B0310923C03109207
:104B300044034BCE80910601815019F08093060109
:104B400085CE83E0FBCF115019F010930D017ECE7E
:104B500085E080930D017ACE80910501815080938C
:104B6000050174CE809104018150809304016ECEC2
:104B7000A9014D5F5F4F57FF02C04D5F5F4F5595D5
:104B8000479555954795481759070CF05FCE3093D8
:104B90000A01209309010E94450960933D03709327
:104BA0003E0380933F0390934003013091F048F01F
:104BB0000230B1F0033009F049CE809104018F5FDB
:104BC000D4CF809106018F5F843008F4B7CF81E0A5
:104BD000B5CF1F5F163008F4B8CF00930D0136CE65
:104BE000809105018F5FBBCF143009F459C0153097
:104BF00009F039CE80910501811103C088E08093CE
:104C0000050180910501893008F046C038C08091C7
:104C10000501811103C088E08093050180910501A1
:104C2000893018F081E080930501809104018A3F6A
:104C30001CF48AE080930401809104018B300CF411
:104C400012CE8AEF809304010ECE8091050181116E
:104C500003C088E08093050180910501893018F038
:104C600081E0809305018091040118161CF086E014
:104C7000809304018091040187300CF4F4CD81E02D
:104C8000E1CF80910501811103C084E0809305018B
:104C900080910501853098F381E080930501EFCF85
:104CA00080910501811102C01093050180910501D9
:104CB000853018F081E08093050180910401181679
:104CC0001CF088E080930401809104018930BCF6D7
:104CD000CACD143009F456C2153009F04BCD80917D
:104CE0000601882309F4F6C3833008F082E080933C
:104CF000060180910501882309F4EEC3893008F08C
:104D000088E0809305010E944509009135031091C8
:104D100036032091370330913803601B710B820BEF
:104D2000930B603571058105910508F42CC40E9430
:104D3000450960933503709336038093370390934E
:104D40003803F89480E680937C00A5E3B2E045E365
:104D500053E0FD0136EC30937A0020917A0026FD75
:104D6000FCCF2091790021938FE594E00197F1F732
:104D7000000000004E175F0771F7789440E050E0A4
:104D8000BA0180E02FEF9D91921708F4292F89171F
:104D900008F4892F490F511D611D711DEA17FB078A
:104DA00091F7821B843108F4C7C3452F562F672F14
:104DB0007727869586958695883008F488E0082FB1
:104DC000040F481B51E080913502081708F050E0AD
:104DD00026E332E0F0E0E0E070E060E0F12C81E01A
:104DE00090E0D9011D919D01511178C3011708F080
:104DF00079C3F394FC016115710509F46BC551E0A9
:104E000071C380910601882309F4A4C0843008F09E
:104E100083E08093060100910501002309F49CC002
:104E2000093008F008E000930501109104011B30DF
:104E30000CF494C01AE0109304010E94A916F82EF5
:104E40004FE750E065E372E086E392E00E94353080
:104E50008F2D90E095958795959587958093350250
:104E60000E944509C0901B02D0901C02E0901D02D8
:104E7000F0901E026C197D098E099F096E31710533
:104E80008105910508F476CC0E94450960931B02C8
:104E900070931C0280931D0290931E020E9446187C
:104EA00089E090E04C01801A9108812F110F990B35
:104EB000019726E0289F2001299F500C11248EE79E
:104EC00090E0B4010E94872E3B01B5E3AB2EB2E027
:104ED000BB2E1FE7C12ED12CB601D5014D915D012E
:104EE000C818D9080C91040D152D111D0034110599
:104EF00014F00FE310E017FF02C010E000E0440DD3
:104F0000552D511D4034510514F04FE350E057FF2B
:104F100002C050E040E0EE24E394F12C960189E6D3
:104F200093E00E94F513C5018553924086159705BD
:104F30009CF22C893D894E895F89688D798D8A8D97
:104F40009B8D261737074807590708F013CC0E9496
:104F50006B1910CC81E05DCF01E065CF1A3F0CF0FA
:104F60006ACF1AEF68CF81E0CACC01E0D2CC11162B
:104F70000CF4D7CC11E0D5CC86E090E05C01A01A0F
:104F8000B10880E890E0B5010E94872E4B0105E34F
:104F900012E00E94A916D8018D938D01CD01855391
:104FA000924088159905ACF395E3C92E92E0D92E6D
:104FB00070E060E0B1E08B1A91083501660E771E53
:104FC000C60185539240881599050CF02ACDF6014B
:104FD00081812FEFC21AD20A90E095958795959519
:104FE00087950FE310E0081B190B808190E09595E1
:104FF0008795959587954FE350E0481B590BEE2414
:10500000E394F12C930189E693E00E94F513B30138
:10501000D4CF80910601882309F49DC0833008F025
:1050200082E0809306018091050111E0882321F040
:10503000182F853008F014E0109305010091280224
:105040000093270287E00E949B0721E0009709F464
:1050500020E02093280201113CC0892B09F439C0BB
:10506000A12FA150BB0B29E130E040E050E004C08B
:10507000220F331F441F551FAA95D2F779015FE312
:10508000C52E52E0D52E05E312E00E94A916D601E6
:105090008D936D01C701880F991F880F991F019784
:1050A00000F400F000F400F0000000000197D1F7D8
:1050B000E5EBF2E0EA17FB0741F780E8D8018D93B2
:1050C0008D01EFE3F2E0EA17FB07C1F781E080937F
:1050D000010180910101882309F43FC00E94450924
:1050E00060932302709324028093250290932602FA
:1050F000109201010E94461845E3C42E42E0D42ECE
:1051000070E060E05B01FFEFAF1ABF0AF60181813A
:105110002FEFC21AD20A90E09595879595958795BD
:105120000FE310E0081B190B808190E0959587959F
:10513000959587954FE350E0481B590BEE24E39477
:10514000F12C950189E693E00E94F513B5016F37C4
:105150007105C1F666CC81E064CF0E9445090091DB
:105160002302109124022091250230912602601B17
:10517000710B820B930B683C71058105910508F05A
:10518000ADCFF8CA80910601882309F49FC184300D
:1051900008F083E08093060180910501882309F4DB
:1051A00097C1853008F084E0809305018091040167
:1051B00089300CF088E018160CF081E0809304012F
:1051C0000E9445090091290210912A0220912B0288
:1051D00030912C02601B710B820B930B64367105AE
:1051E0008105910508F4C6CA0E9445096093290209
:1051F00070932A0280932B0290932C02A5E3B2E0D5
:10520000BB8BAA8B7D0110E00E94C608B4E0959587
:105210008795BA95E1F78058F70181937F01E158AE
:10522000FF4F10821F5F103879F7E5E3F2E090E05E
:1052300080E041E050E020E830E035952795B90165
:10524000680F791F60387105C4F7B90161507109A1
:1052500086239723820F931F48175907ACF42181A7
:10526000DC01AB5CBD4F3C9131832C939F012F57E8
:105270003F4FD9016C918C010B541D4FD8017C918B
:10528000D9017C93D8016C934F5F5F4F31964038C2
:10529000510589F667E0662E712C88248394912C41
:1052A0002401440C551C21E030E0062C02C0220FE2
:1052B000331F0A94E2F739A328A32CED3CE085E3E1
:1052C00092E0F901E05CFF4F5491F9014491E52F20
:1052D000550FFF0BBF01759567957D8F6C8F4195BD
:1052E000042E000C550B6A01D594C794D401A80F65
:1052F000B91FBCA3ABA3FC01ABA1BCA14C91042E74
:10530000000C550B6C8D7D8D649F7001659FF00CBA
:10531000749FF00C1124A058BF4FBF8FAE8F6C91BB
:10532000062E000C770BC69E8001C79E100DD69EE0
:10533000100D1124E6FABB27B0F95801AA0CAB2CCA
:10534000AA1CBB081B2F1A19EE0CEF2CEE1CFF0831
:10535000E10E06FB002700F9E01AAC8DBD8DA69F7B
:105360008001A79F100DB69F100D1124C49EB0019F
:10537000C59E700DD49E700D1124AB01440F452FB6
:10538000441F550B5801AA0CAB2CAA1CBB084A0D94
:1053900066FBAA24A0F8A40E06FB002700F90A0D5C
:1053A0005F01B0E8AB0EB11CD5014C91042E000C8E
:1053B000550B559547956081062E000C770B75951A
:1053C0006795562F5E19ABA1BCA15C93542F501B5F
:1053D000AE8DBF8D5C93E60EE082400FD5014C93FD
:1053E0004BA15CA1440D551D5CA34BA3E40DF51D21
:1053F000AF0145535240403851050CF47DCF68A1B0
:1054000079A1260F371F0196AC014553524048152C
:1054100059050CF456CF71E0671A7108420109F082
:105420003FCF0E944618D12CC12CAA89BB898D91EF
:10543000BB8BAA8BFD01E158FF4F0081002E000CB1
:10544000110B17FF03C0119501951109082E000CCF
:10545000990B97FF03C0919581959109800F911F3A
:1054600020910401220F330B8217930734F120910E
:1054700005012150330B2C9D80012D9D100D3C9D6D
:10548000100D1124080F191F17FF02C010E000E0D3
:105490000034110514F00FE310E04FE350E0401B1F
:1054A000510BEE24E394F12C22E030E0B601660FBC
:1054B000771F89E693E00E948A14BFEFCB1ADB0ABC
:1054C000E0E4CE16D10409F0B0CF33CD81E062CE56
:1054D00081E06ACE81E00BCC81E013CC51E014175F
:1054E00008F450E001968115B1E09B0709F079CCF2
:1054F00021E02F1508F5E61BF70BE830F105E0F089
:105500004F2D4150550BDA0128E23AE649E050E0D0
:105510000E94032F9F0150E040E00E949B2E6901F2
:105520007A01DA01C90180529340A109B109813E93
:105530009143AC40B10518F0C12CD12C760180907C
:10554000310290903202A0903302B0903402D70121
:10555000C6018D5D9540A109B10983349B49A740DF
:10556000B10508F003C278EE871673E09706A10430
:10557000B10408F0B1C1C0923102D0923202E0927F
:105580003302F09234020E94450900912D021091DD
:105590002E0220912F0230913002601B710B820B82
:1055A000930B663971058105910508F4E3C80E94E3
:1055B000450960932D0270932E0280932F029093E1
:1055C00030020E9446182C893D894E895F89688D7A
:1055D000798D8A8D9B8D0AE010E0261737074807E2
:1055E000590710F010E000E0409031025090320274
:1055F0006090330270903402780178E0E70EF11C7D
:105600008DED481685E058066104710408F48EC2D9
:10561000A4E0DA2E93E6491696E059066104710477
:1056200008F0BFC18DE28D871E86B12CD12CE88990
:10563000F98901900020E9F73197A889B989EA1B17
:10564000FB0B82E080937D0380937E03FF273196DE
:105650008CE08E9F90018F9F300D112480E890E0A8
:10566000821B930B97FD01969595879590937603F2
:1056700080937503C8010496909378038093770311
:10568000CE010D960E94DE188D2DDD0C990B0E9427
:105690003D1981E080937D0380937E03CB2C0B2CFE
:1056A000000CDD08B7FE07C284E090E0909376031B
:1056B00080937503F0927803E0927703C6010E940D
:1056C0003D1983E60E94911381E080937D038093CE
:1056D0007E03609131027091320280913302909189
:1056E000340224E630E040E050E00E949B2E490165
:1056F0002436310508F003C22AE030E040E050E0F3
:105700000E949B2E3F932F939F928F9287E491E06C
:105710009F938F933F922F920E944E300FB6F89432
:10572000DEBF0FBECDBFF10101900020E9F7319738
:10573000E219F30986E08E9F90018F9F300D1124AE
:1057400080E890E0821B930B97FD019695958795D5
:105750009093760380937503085E1F4F1093780330
:1057600000937703C1010E94DE184C895D896E8920
:105770007F89888D998DAA8DBB8D481759076A0737
:105780007B0708F0CDC1BCE2AB2EB12CEE24E39434
:10579000F12C06E010E024E630E0A5016EE070E0B8
:1057A00089E693E00E949613A5014250510901E059
:1057B00010E02AE030E060E470E089E693E00E94C7
:1057C000980AA5014F5F5F4FB601625C7F4F04E00E
:1057D00010E025E030E089E693E00E948A1498E02A
:1057E000A90EB11C2C893D894E895F89688D798D00
:1057F0008A8D9B8D261737074807590708F494C1EF
:105800002EE0E5E3F2E0C12C9FEF30E081918917B3
:1058100008F4982FC81608F4C82E3F5F3038B1F747
:105820008C2D891B8A3008F48AE0E5E34E2EE2E0F5
:105830005E2E712C612C892E912CA22FA150BB0BB6
:10584000BB8BAA8BC82ED12C21502C8FF2014191F9
:105850002F01208130E0281939096A897B89269F28
:10586000C001279F900D369F900D1124B6010E9414
:10587000732E0C8D061B0A0D1B2D111D9F01255328
:10588000324050E048195909AA89BB894A9FC00192
:105890004B9F900D5A9F900D1124B6010E94732EBC
:1058A0004C8D461B4A0D5B2D511DEE24E394F12CCB
:1058B000B30189E693E00E94F513BFEF6B1A7B0AF0
:1058C000EFE76E16710411F681E080937D038093FB
:1058D0007E03A7C8BC0193CAA4E6B0E08C149D0463
:1058E000AE04BF04D0F5A7019601281939094A0969
:1058F0005B090E94F82EA50194010E949B2E8091C5
:105900000501E82FEE0FE80F26303105410551055E
:1059100058F1EE5CA4E6B0E0AE1BB109A701960118
:105920000E94032F6B017C01AE2FB0E0A501940112
:105930000E94F82E6C0D7D1D8E1D9F1D24E630E00B
:1059400040E050E00E949B2E2093310230933202BF
:10595000409333025093340216CEA50194012C19C2
:105960003D094E095F09C5CFEA5BD4CFA5E5B0E09C
:10597000A50194010E94F82E24E630E040E050E0BA
:105980000E949B2E2C3D85E0380741055105E0F62D
:1059900010923102109232021092330210923402AD
:1059A000F2CDA3E34A16A6E65A066104710440F458
:1059B000DD2031F0440C551C661C771CDA94F1CFC5
:1059C000B5E64B16BCEC5B066104710448F0E7E0F9
:1059D000ED1534F07694679457944794D394F0CFB0
:1059E00025EB3DE03B8B2A8B20E088248A94982C81
:1059F000540130E0EA89FB8985919491B0E0A0E000
:105A000084159505A605B70508F049C0B301A201A4
:105A1000481B590B6A0B7B0BDB01CA0188159905E2
:105A2000AA05BB0518F44C015D01232F3F5F6A896D
:105A30007B896E5F7F4F7B8B6A8B3C30D9F6822FE0
:105A4000880F90E0FC01E456F24FE491ED87FC01F1
:105A5000E356F24FE491EE871F86E03209F41E868A
:105A6000E22FF0E0EE0FFF1FEB54F24F8590949081
:105A7000B12CA12CA3019201281939094A095B090B
:105A8000ADEAB0E00E94F82EA50194010E94BD2E5F
:105A9000B22E72E3721744F452E3B52EC8CD8419C6
:105AA0009509A609B709BACF8EEC28170CF0BFCD1F
:105AB0004EECB42EBCCDBB2099F0B9E088E690E066
:105AC000BB1514F08EE690E09093760380937503F7
:105AD000F0927803E09277038BE20E949113EECD6F
