:100000000C9423060C94071D0C94E01C0C944B06D6
:100010000C944B060C944B060C944B060C944B061C
:100020000C944B060C944B060C944B060C944B060C
:100030000C944B060C944B060C944B060C944B06FC
:100040000C949A1C0C944B060C944B060C944B0687
:100050000C944B060C944D1E0C944B060C944B06C2
:100060000C942E1D0C944B060C9400000C94000074
:100070000C9400000C940000808386898C8F9295EC
:10008000989B9EA2A5A7AAADB0B3B6B8BBBEC0C38D
:10009000C5C8CACCCFD1D3D5D7D9DBDDDFE0E2E408
:1000A000E5E7E8E9EAECEDEEEFF0F0F1F2F2F3F378
:1000B000F4F4F4F5F5F5F5F553455454494E47532A
:1000C00020534156454400523A004F3A005A4300EB
:1000D000543A0047454E0054554E45005741564549
:1000E000004C464F0000000000003E5B4F5B3E3E70
:1000F0006B4F6B3E1C3E7C3E1C183C7E3C181C57D4
:100100007D571C1C5E7F5E1C00183C1800FFE7C377
:10011000E7FF0018241800FFE7DBE7FF30483A0646
:100120000E2629792926407F050507407F05253FB2
:100130005A3CE73C5A7F3E1C1C08081C1C3E7F149E
:10014000227F22145F5F005F5F06097F017F0066E8
:1001500089956A606060606094A2FFA29408047E42
:10016000040810207E201008082A1C08081C2A08F1
:10017000081E101010100C1E0C1E0C30383E3830AB
:10018000060E3E0E06000000000000005F000000AA
:1001900007000700147F147F14242A7F2A122313D8
:1001A00008646236495620500008070300001C22EC
:1001B00041000041221C002A1C7F1C2A08083E081E
:1001C000080080703000080808080800006060001F
:1001D00020100804023E5149453E00427F40007213
:1001E000494949462141494D331814127F1027458A
:1001F0004545393C4A4949314121110907364949A8
:100200004936464949291E000014000000403400C8
:10021000000008142241141414141400412214087C
:1002200002015909063E415D594E7C1211127C7F34
:10023000494949363E414141227F4141413E7F4942
:100240004949417F090909013E414151737F08082D
:10025000087F00417F41002040413F017F08142278
:10026000417F404040407F021C027F7F0408107F96
:100270003E4141413E7F090909063E4151215E7FD1
:1002800009192946264949493203017F01033F40A4
:1002900040403F1F2040201F3F4038403F6314082C
:1002A000146303047804036159494D43007F4141BD
:1002B000410204081020004141417F040201020470
:1002C0004040404040000307080020545478407FDD
:1002D000284444383844444428384444287F385417
:1002E00054541800087E090218A4A49C787F0804BE
:1002F000047800447D40002040403D007F102844A9
:100300000000417F40007C047804787C0804047875
:100310003844444438FC1824241818242418FC7C3D
:1003200008040408485454542404043F44243C4022
:1003300040207C1C2040201C3C4030403C44281085
:1003400028444C9090907C4464544C4400083641BE
:10035000000000770000004136080002010204029C
:100360003C2623263C1EA1A161123A4040207A3847
:1003700054545559215555794122545478422155A8
:1003800054784020545579400C1E527212395555FC
:100390005559395454545939555454580000457CD2
:1003A000410002457D420001457C407D1211127DD5
:1003B000F0282528F07C545545002054547C547C6A
:1003C0000A097F4932494949323A4444443A324A57
:1003D0004848303A4141217A3A42402078009DA075
:1003E000A07D3D4242423D3D4040403D3C24FF24F3
:1003F00024487E4943662B2FFC2F2BFF0929F6202A
:10040000C0887E090320545479410000447D413066
:1004100048484A32384040227A007A0A0A727D0DF2
:1004200019317D2629292F28262929292630484DAA
:100430004020380808080808080808382F10C8ACF9
:10044000BA2F102834FA00007B000008142A142266
:1004500022142A14085500550055AA55AA55AAFF7A
:1004600055FF55FF000000FF00101010FF0014148E
:1004700014FF001010FF00FF1010F010F0141414FF
:10048000FC001414F700FF0000FF00FF1414F40434
:10049000FC141417101F10101F101F1414141F0029
:1004A000101010F0000000001F101010101F10108E
:1004B0001010F010000000FF10101010101010109D
:1004C00010FF10000000FF140000FF00FF00001FDD
:1004D00010170000FC04F414141710171414F4047B
:1004E000F40000FF00F714141414141414F700F7A8
:1004F000141414171410101F101F141414F41410D3
:1005000010F010F000001F101F0000001F1400006A
:1005100000FC140000F010F01010FF10FF14141471
:10052000FF141010101F00000000F010FFFFFFFF6D
:10053000FFF0F0F0F0F0FFFFFF0000000000FFFF11
:100540000F0F0F0F0F3844443844FC4A4A4A347E98
:1005500002020606027E027E026355494163384468
:10056000443C04407E201E2006027E020299A5E73C
:10057000A5991C2A492A1C4C7201724C304A4D4DD7
:10058000303048784830BC625A463D3E49494900BF
:100590007E0101017E2A2A2A2A2A44445F444440DB
:1005A000514A444040444A51400000FF0103E0806A
:1005B000FF000008086B6B083612362436060F0958
:1005C0000F06000018180000001010003040FF0156
:1005D00001001F01011E00191D1712003C3C3C3C8C
:1005E00000000000002200FF21000103070F1F3F51
:1005F0007F0080C0E0F0F8FCFEDB40A4A62EAF2018
:1006000000A1C8D300408DAED580A80000600000D6
:10061000000000000000000000000000E0000000FA
:100620000000000000000000000001E000000000E9
:1006300000000000000000000001F00000000000C9
:10064000000000000000000003F0000000000000B7
:100650000000000000000007F000000000000000A3
:1006600000000000000007F800000000000000008B
:1006700000000000000FF800000003C0007E000032
:1006800001E0007F0FF800000003C000FE00000141
:10069000E000FFEFF800000003C000FE000001E0F2
:1006A00000FFFFF800000003C000F00000000F0092
:1006B0007FFE7FC0000003C000F00000000F003F7D
:1006C000FE7FF83FF1FBCFFCFEF3BC3DEFE01FFEE9
:1006D0007FFF7FFBFFDFFEFEFFBC3DEFE01FC6FF9D
:1006E000FF7FFBFFDFFEFEFFBC3DEFE00FE3C7FE39
:1006F000787BC3DE1EF0FFBC3DEF0007FF87FC7870
:100700007BC3DE1EF0F83C3DEF0001FFFFF0007BF5
:10071000C3C01EF0F03C3DEF0001F37FE03FFBC3A0
:10072000CFFEF0F03C3DEF0003E33F807FFBC3DFF3
:10073000FEF0F03C3DEF0007E73C00787BC3DE1E97
:10074000F0F03C3DEF0007FFBE00787BC3DE1EF0FB
:10075000F03C3DEF0007FFFE00787BC3DE1EF0F0AB
:100760003C3DEF000FFFFE007FFBFFDFFEF0F03FA0
:10077000FDEFE00FFFFF007FFBFFDFFEF0F03FFD2E
:10078000EFE00FF9FF003E79F9CF9EF0F01F3DE753
:10079000E01FF1FF0000000000000000000000006A
:1007A0001F80FF007FFFFFFFFFFFFFFFFFFFE01C39
:1007B000007F007FFFFFFFFEB46D888D18E0000012
:1007C0001F007FFFFFFFFE95AD7DB577E000000FB6
:1007D000007FFFFFFFFEA5AD9D8D19E00000060024
:1007E0007FFFFFFFFEB5ADEDB57EE000000000002D
:1007F00001800000000000000000000380000000F5
:1008000000000000000007C0000000000000000021
:100810000007C00000000000000000000FC0000042
:10082000000000000000001FE000000000000000C9
:1008300000001FE00000000000000000003FE0009A
:1008400000000000000000003FF000000000000079
:100850000000007FF0000000000000001FF87FF0A3
:10086000000000000000003FFE7FF00000000000DC
:1008700000003FFF7FF0000000000000001FFFFBB2
:10088000E0000000000000000FFFF9FFC0000000C2
:100890000000000FFFF9FFF800000000000007FF54
:1008A000F1FFFF00000000000003FC73FFFF800069
:1008B0000000000001FE3FFFFF800000000000007C
:1008C000FF1E0FFF000000000000007FFE1FFC0065
:1008D0000000000000003FFFFFF8000000000000E3
:1008E000000FDFFFE0000000000000001F19FFC044
:1008F000000000000000003F3CFF0000000000007E
:1009000000007E7CF800000000000000007FFE7CFC
:100910000000000000000000FFFFFC0000000000DD
:10092000000000FFFFFE0000000000000000FFFFCD
:10093000FE0000000000000001FFEFFE00000000CC
:1009400000000001FFCFFE0000000000000003FFD8
:1009500007FE0000000000000003FC07FE0000008E
:100960000000000003F003FE000000000000000192
:100970008000FE000000000000000000007E00007B
:1009800000000000000000003E0000000000000029
:100990000000000C000000000000078000FC0000C8
:1009A00003C0000000078001FC000003C00000003D
:1009B000078001FC000003C0000000078001E00088
:1009C00000001E000000078001E00000001E007F04
:1009D000E3F79FF9FDE7787BDFC0FFF7FFBFFDFD81
:1009E000FF787BDFC0FFF7FFBFFDFDFF787BDFC037
:1009F000F0F787BC3DE1FF787BDE00F0F787BC3D78
:100A0000E1F0787BDE0000F787803DE1E0787BDE77
:100A1000007FF7879FFDE1E0787BDE00FFF787BF6F
:100A2000FDE1E0787BDE00F0F787BC3DE1E0787B1C
:100A3000DE00F0F787BC3DE1E0787BDE00F0F78771
:100A4000BC3DE1E0787BDE00FFF7FFBFFDE1E07F2A
:100A5000FBDFC0FFF7FFBFFDE1E07FFBDFC07CF302
:100A6000F39F3DE1E03E7BCFC000000000000000AE
:100A700000000000FFFFFFFFFFFFFFFFFFFFC0FFC1
:100A8000FFFFFFFD68DB111A31C0FFFFFFFFFD2BE9
:100A90005AFB6AEFC0FFFFFFFFFD4B5B3B1A33C001
:100AA000FFFFFFFFFD6B5BDB6AFDC020444143009D
:100AB0002050002033323800204C4754007632005A
:100AC00076322E35004D6F64756C6F766520763307
:100AD0002E390053434F5045002033323800204C0C
:100AE00047540076320076322E3500486F6C642011
:100AF0003273200044414320476E3A200044414372
:100B0000204F66733A20003138300030004F4C459A
:100B1000443A200054696D65723A200052657600AF
:100B20004E6F726D00456E633A2000534554544930
:100B30004E47530053455454494E47532053415652
:100B400045440054524947007F3F1F0F07030100EF
:100B50004320432344204423452046204623472066
:100B6000472341204123422000380AD40A790B2729
:100B70000CE00CA40D740E500F3910301136124BCE
:100B8000134E6F207369676E616C002D2D2D004F21
:100B90004B0043414C3A0053494E005452490053D4
:100BA0004157005351520044432000010002000508
:100BB000000A00140032006400C800F401E803D009
:100BC0000788131027204E43414C3A004441433AD2
:100BD0000000000000240027002A002D0000000073
:100BE00000250028002B002E000000000023002616
:100BF0000029002C0004040404040404040202027A
:100C000002020203030303030305050505050505A9
:100C10000301020408102040800102040810200192
:100C200002040810200208010410402040000000C7
:100C3000085002010000030407000000000000004B
:100C400000000000EB1E11241FBECFEFD8E0DEBF76
:100C5000CDBF11E0A0E0B1E0E8E5F3E702C0059008
:100C60000D92AA35B107D9F723E0AAE5B1E001C09A
:100C70001D92A33AB207E1F716E0C3E2D6E004C042
:100C80002197FE010E949A37C232D107C9F70E940C
:100C9000F21E0C94AA390C9400003F924F925F927E
:100CA0006F927F928F929F92AF92BF92CF92DF927C
:100CB000EF92FF920F931F93CF93DF9300D000D05A
:100CC000CDB7DEB79C838B833B016A015901DC0100
:100CD000ED91FC910284F385E02D09952801B7E0A0
:100CE0004B0E511C93E0559447949A95E1F7C60139
:100CF0008E0D9F1D9A838983912C812C312CF12C90
:100D0000E12CC70187709927330C892B59F4F7011F
:100D100083E0F595E7958A95E1F7E80DF91DEA0D71
:100D2000FB1D349037FE10C0AB81BC81ED91FC916E
:100D300011970484F585E02D21E030E0A601B7018C
:100D4000660D771DCD010995BFEFEB1AFB0A0E1555
:100D50001F05B9F68FEFC81AD80A840C951CA98113
:100D6000BA81CA16DB0659F6AB81BC81ED91FC91C4
:100D700011970688F789E02DCD010F900F900F9005
:100D80000F90DF91CF911F910F91FF90EF90DF9027
:100D9000CF90BF90AF909F908F907F906F905F901B
:100DA0004F903F90099481508B3088F5E82FF0E008
:100DB000E452F94F0C949A37F106F506E706ED0672
:100DC00007070707F806FE06020708070C078091C9
:100DD00080008F77809380000895809180008F7DC0
:100DE000F9CF84B58F7784BD089584B58F7DFBCF0F
:100DF0008091B0008F778093B00008958091B0000B
:100E00008F7DF9CF809190008F7780939000089527
:100E1000809190008F7DF9CF80919000877FF5CFF2
:100E2000CF93DF93282F30E0F901E35DF34F8491F6
:100E3000F901EF5EF34FD491F901EB50F44FC491F7
:100E4000CC23A1F081110E94D306EC2FF0E0EE0F2D
:100E5000FF1FE751F44FA591B491EC91ED2381E090
:100E600090E009F480E0DF91CF91089580E090E078
:100E7000FACF1F93CF93DF93282F30E0F901E35D82
:100E8000F34F8491F901EF5EF34FD491F901EB50E8
:100E9000F44FC491CC23A9F0162F81110E94D306E0
:100EA000EC2FF0E0EE0FFF1FE352F44FA591B49149
:100EB0008FB7F894EC91111108C0D095DE23DC9324
:100EC0008FBFDF91CF911F910895DE2BF8CFCF9385
:100ED000DF93282F30E0F901EF5EF34F94912B5010
:100EE000344FF9012491633029F5843039F530917C
:100EF000A0003C603093A0002223C9F030E0220F14
:100F0000331FF901EF52F44FA591B491F901E35267
:100F1000F44FC591D491611126C02FB7F8948C91EC
:100F2000909589238C938881982398832FBFDF9194
:100F3000CF910895843011F433E0DCCF3AEE380FCE
:100F4000323020F43FEF34BF34BFD6CF8931A1F621
:100F50003091F00032603EBB30E83093F0003EB399
:100F60003093F000C9CF623051F42FB7F8943C9120
:100F7000892F809583238C93E8819E2BD6CF843054
:100F800011F46130A1F68FB7F894EC919E2B9C93ED
:100F90008FBFCDCFE82FF0E0E35DF34FE491E73072
:100FA00009F447C0D0F4E230A9F148F4E13069F126
:100FB000603871050CF061C060E00C943907E330D3
:100FC00071F1E430A9F78091800080628093800005
:100FD00070938B0060938A000895EA30D1F170F429
:100FE000E83079F1E93021F78091900080688093B2
:100FF000900070939900609398000895EB3099F1F8
:10100000E035B1F66093A100089584B5806884BD91
:1010100067BD089584B5806284BD68BD08958091E0
:1010200080008068809380007093890060938800BE
:1010300008958091B00080688093B0006093B30001
:1010400008958091B00080628093B0006093B400F6
:1010500008958091900080628093900070939B002F
:1010600060939A000895809190008860809390002A
:1010700070939F0060939E00089561E09ECF8091E1
:101080007A00806480937A0080917A0086FDFCCF9C
:10109000809178009091790008950F931F93CF93DA
:1010A000DF93EDEAF0E08081807F808380912401EE
:1010B00020E4829FC0011124876080937C000DE7AB
:1010C00010E0F8018081806280830E943F08EC017B
:1010D000F80180818F7D80830E943F088C0F9D1FC7
:1010E0009C0136952795892F9927A901481B590BF3
:1010F000CA01DF91CF911F910F9108953FB7F894E6
:1011000080919B0390919C03A0919D03B0919E03BD
:1011100026B5A89B05C02F3F19F00196A11DB11D52
:101120003FBFBA2FA92F982F8827BC01CD01620F8E
:10113000711D811D911D660F771F881F991F0895CE
:101140008F929F92AF92BF92CF92DF92EF92FF92D7
:101150004B015C010E947E086B017C010E947E08AD
:101160006C197D098E099F09683E734081059105C0
:10117000A8F321E0821A9108A108B10888EEC80EF0
:1011800083E0D81EE11CF11C81149104A104B10478
:1011900029F7FF90EF90DF90CF90BF90AF909F9096
:1011A0008F9008952FB7F8946091970370919803EA
:1011B0008091990390919A032FBF089508950895FF
:1011C0000895DC01ED91FC910190F081E02D0994EE
:1011D000EF92FF920F931F93CF93DF938C017B01CC
:1011E000D0E0C0E0F701EC0FFD1F6491662361F0D1
:1011F000D801ED91FC910190F081E02DC801099595
:10120000892B11F02196EECFCE01DF91CF911F9166
:101210000F91FF90EF900895AF92BF92CF92DF921F
:10122000EF92FF920F931F93CF93DF936C017B019B
:101230008B01040F151FEB015E01AE18BF08C0172C
:10124000D10759F06991D601ED91FC910190F0819F
:10125000E02DC6010995892B79F7C501DF91CF9162
:101260001F910F91FF90EF90DF90CF90BF90AF90C4
:101270000895EF92FF920F931F93CF93DF93EC01AA
:10128000EC80FD806E157F050CF070C057FF04C028
:10129000240F351F50E040E08E819F81FA01E20F5C
:1012A000F31F8E179F071CF49C01241B350B12168D
:1012B00013060CF05BC0922F842F86958695869539
:1012C0008E9DD0018F9DB00D11246A0F7B1FAF8DB5
:1012D000B8A1A60FB71F477049F188E0841B482FBB
:1012E000682F70E0FB01EF50FA4FE491281708F0E7
:1012F00063C0621B71092FEF30E002C0359527955E
:101300006A95E2F7E2230130110539F0B0F10230BD
:10131000110561F58C91E82702C08C91E82BEC93C4
:10132000941720F12C813D81A20FB31FE92FE41BFC
:10133000E83078F00230110521F58E2F9C919095C0
:101340009C932C813D81A20FB31F88508830B0F749
:10135000E770EE2359F0F0E0E751FA4FE4910130E5
:101360001105F9F010F10230110519F1DF91CF915B
:101370001F910F91FF90EF900895E0958C91E823D5
:10138000CECF81E00115110509F480E081959E2FF3
:101390008C932C813D81A20FB31F98509830C0F7D9
:1013A000D7CF8C91E82BEC93E1CFE0958C91E8239B
:1013B000FACF8C91E827F7CF0130110509F4ADCFB2
:1013C000E0F20230110509F4A5CFAE0DBF1DAECF7E
:1013D0000F931F93CF93DF9377FF04C0260F371F20
:1013E00070E060E0DC011496CD91DC91FB01E20F2E
:1013F000F31FCE17DF071CF49E01261B370B1216B6
:1014000013064CF5FA0157FD3796A3E0F595E795DD
:10141000AA95E1F7EC9FD001ED9FB00DFC9FB00DB8
:1014200011246A0F7B1FDC015F96ED91FC91E60FA2
:10143000F71F4770552781E090E001C0880F4A955B
:10144000EAF7482F0130110559F0A8F02E0F3F1F81
:1014500002301105E1F0DF91CF911F910F910895B6
:101460002E0F3F1FE217F307B1F38191DF011197B0
:10147000842B8C93F7CF80952E0F3F1FE217F30735
:1014800051F39191DF01119798239C93F7CFE217C5
:10149000F30709F38191DF01119784278C93F7CF2C
:1014A0000F931F93FA01DC0156964C9156974230E8
:1014B000E9F04330A1F1413061F514964D915C9112
:1014C000DA01AE1BBF0BFD01E21BF30B77FD0BC076
:1014D000DC0116964D915C916417750724F4AB01FD
:1014E000BF010E94E8091F910F91089514964D9134
:1014F0005C91DA01A61BB70BBD0161507109DC01DB
:1015000016964D915C91DA01AE1BBF0BFD01E21BFB
:10151000F30B77FDE8CFAF010E943909E4CF1696AF
:101520004D915C91DA01A61BB70BBD0161507109A9
:10153000CDCF0F931F93FA01DC0156964C9156972D
:101540004230A9F0433091F1413019F514964D9194
:101550005C91DA01AE1BBF0BFD013197F7FD04C0B2
:10156000AB01BF010E9439091F910F910895149694
:101570004D915C91DA01A61BB70BBD01DC011696FB
:101580004D915C91DA01AE1BBF0BFD013197621BDF
:10159000730BF7FDE9CFDC0116964D915C91E417D2
:1015A000F50714F7AF010E94E809DECF16964D91BA
:1015B0005C91DA01A61BB70BBD01621B730BCECF8A
:1015C000FC0177FD64C080859185681779070CF070
:1015D0005EC057FD5CC082859385481759070CF0A3
:1015E00056C086898230B1F0833029F1813041F4D0
:1015F00084819581841B950BAB01BC0161507109FD
:101600002130310509F108F443C02230310509F4D5
:1016100063C0089584819581DC01A61BB70BBD01D1
:101620006150710986819781DC01A41BB50BAD0166
:1016300041505109E5CF86819781861B970BBA01EE
:10164000AC0141505109DCCFCA0157FD0796A3E018
:1016500095958795AA95E1F7A481B5818A9F900118
:101660008B9F300D9A9F300D1124620F731F078CD2
:10167000F0A1E02DE60FF71F4770552721E030E07D
:1016800001C0220F4A95EAF78081822B808308955A
:10169000CA0157FD079633E0959587953A95E1F78E
:1016A000A481B5818A9F90018B9F300D9A9F300D48
:1016B0001124620F731F078CF0A1E02DE60FF71FB6
:1016C0004770552781E090E001C0880F4A95EAF7FE
:1016D000809590818923DACFCA0157FD079623E0D0
:1016E000959587952A95E1F7A481B5818A9F900108
:1016F0008B9F300D9A9F300D1124620F731F078C42
:10170000F0A1E02DE60FF71F4770552721E030E0EC
:1017100001C0220F4A95EAF780818227B7CF08954A
:101720008EBD0000CE99FECF8EB594E499BB08958E
:101730008CBD9DBD08950895FC016370668B848106
:10174000958126813781613039F0633029F09187A6
:101750008087338722870895318720879387828700
:1017600008952F923F924F925F926F927F928F9245
:101770009F92AF92BF92CF92DF92EF92FF920F9320
:101780001F93CF93DF93CDB7DEB76A970FB6F89468
:10179000DEBF0FBECDBF9A8F898F7A8369834A01DE
:1017A000D22E18870F833701BC2CDC0159962D915E
:1017B0003C915A972115310509F015C118968D9164
:1017C0009C911997681779070CF0D7C11A968D91DB
:1017D0009C91481759070CF0D0C14C2C512CB6E005
:1017E000CB9E600D711D11247C876B871616170622
:1017F0000CF0C3C1EA2DF0E0FA87E98793E0EE0F21
:10180000FF1F9A95E1F7F88BEF87CF01840F951FA3
:10181000181619060CF0B1C1A98DBA8D58968C9185
:10182000811104C0BFEABD1508F4D394A98DBA8D07
:10183000ED91FC9111970284F385E02DCD0109957E
:10184000B5E0DB9EC0011124E981FA81FC83EB83C2
:10185000312C212C9C012B513F4F388F2F8B4A2D3F
:1018600050E05E8B4D8BEF89F88DE20DF31D4491B6
:101870009E828D82D12CC12C69817A81620D731D6B
:101880007A8B698B842F90E09C8B8B8BE98DFA8D02
:10189000A081B18140FF82C0F1E0BF126FC0AF12E2
:1018A0006DC01C96ED91FC912F813885A4014C0DE3
:1018B0005D1D69897A89898D9A8D0995EB89FC89E5
:1018C000F595E7954E2F5FEFC51AD50A6D817E819C
:1018D0008D899E89680F791F7E836D8398E0C91674
:1018E000D10481F6AFEF2A1A3A0AEB81FC81E40DAC
:1018F000F51DFC83EB83F5E02F16310409F0B3CF1F
:101900002F81388526153705B9F0A98DBA8DED914F
:10191000FC91B1E0BB1257C0AB1255C069817A810E
:101920006B5F7F4F0088F189E02D830128E030E074
:10193000A401898D9A8D0995A98DBA8DED91FC919F
:1019400011970688F789E02DCD016A960FB6F894B5
:10195000DEBF0FBECDBFDF91CF911F910F91FF90E2
:10196000EF90DF90CF90BF90AF909F908F907F903F
:101970006F905F904F903F902F9009941E96ED913D
:10198000FC91EF80F88409851A8592014D815E8172
:101990006B817C81898D9A8D099590CF2F813885B7
:1019A0002615370509F48ACF31E0B31207C0A31218
:1019B00005C01C96ED91FC91930178CF1E96ED9198
:1019C000FC917301E0CF6B857C85641975090684F1
:1019D000F785E02D73010F8518899201A401898D87
:1019E0009A8D0995A9CFF901349694913297459132
:1019F0005491D91AB7E0DB9E400D511D1124F90115
:101A0000259134913C8B2B8BFA0125903490FA016F
:101A10003296749031963491398B32966490319627
:101A2000449041E04C1518F04A1508F07FC0662D2F
:101A3000062C000C770B7C836B83842D042C000C0C
:101A4000990B9E838D83A98DBA8DED91FC91119791
:101A50000284F385E02DCD010995512CD12CC12CA8
:101A6000EA2DF0E0FA87E9872B2D30E03C872B87C1
:101A7000A401440D511D47FC5A95588F4F8B698125
:101A80007A81660D711D67FC7A957E876D877989ED
:101A9000C71608F051CF2C2D30E04D815E81420FEA
:101AA000531FA985BA854A9FC0014B9F900D5A9F2D
:101AB000900D1124FC01E80DF91DF88BEF87852DA1
:101AC000612C4F89588D420F531F5E8B4D8B6714CD
:101AD00008F050C044244394480E877041F4C1017B
:101AE0000196EB89FC89E20DF31DD4901C01D7FE11
:101AF00019C0A98DBA8DED91FC91662D70E0B1E011
:101B0000BB1219C0AB1217C02D853E85620F731F23
:101B10000484F585E02D2F8138854D895E89898D76
:101B20009A8D0995DD0C6394842DD1CF1E821D8280
:101B30001C821B8288CF4B815C81640F751FAB8533
:101B4000BC856A9FC0016B9F900D7A9F900D1124F8
:101B500069817A81680F791F0684F785E02DEF800F
:101B6000F88409851A859D014F855889898D9A8D3C
:101B70000995D8CF570CC3948ACF6A960FB6F894BC
:101B8000DEBF0FBECDBFDF91CF911F910F91FF90B0
:101B9000EF90DF90CF90BF90AF909F908F907F900D
:101BA0006F905F904F903F902F9008958F929F92EB
:101BB000AF92CF92EF92FF920F931F93CF93DF9349
:101BC000EC01262F898D9A8D009709F051C06A305B
:101BD000D1F41D861C868D8948E0849F90011124D4
:101BE0008E859F85820F931F9F878E8781E090E06F
:101BF000DF91CF911F910F91FF90EF90CF90AF9019
:101C00009F908F9008956D3089F3CC88AD888F892F
:101C10008823C1F08C859D8536E0C39E800D911D83
:101C20001124488559854817590764F44E855F8506
:101C30001D861C8638E0A39EC0011124840F951FC9
:101C40009F878E87EA88FB88088919894E855F857A
:101C50006C857D85CE010E94B10B2C898C859D857C
:101C600046E0249F800D911D11249D878C87BECF57
:101C70006A3069F41D861C86FC013896E4912D8932
:101C80008E859F85E29F800D911D1124ADCF6D3013
:101C900009F4ACCFFC0134963491631708F4A6CF55
:101CA0003296E491E61708F4A1CFFC0132968590B4
:101CB0009490462F431B342F47E0349F800C911C97
:101CC0001124F401329634913196E4913323A9F131
:101CD000EE2399F1CC88F4013596E491AD884F89D3
:101CE000442301F10E2E000CFF0BE30FF11DCE9EDD
:101CF000A001CF9E500D11246C857D85460F571F86
:101D000068857985641775076CF44E855F851D8637
:101D10001C86FC013896E491AE9E400D511D1124A5
:101D20005F874E87EA88FB88088919894E855F8519
:101D30006C857D85CE010E94B10BF4013496E4914F
:101D40002C898C859D85E29F800D911D11248DCF5E
:101D50006F927F928F929F92AF92BF92CF92DF92BB
:101D6000EF92FF920F931F93CF93DF93EC016B01E0
:101D70005A0139014801E881F9810284F385E02D97
:101D80000995E881F9810288F389E02D87019301A3
:101D9000A501B601CE010995A501480D591D415077
:101DA0005109E881F9810288F389E02D9301B60198
:101DB000CE010995E881F9810088F189E02D94012F
:101DC000A501B601CE010995C60CD71CB60161501C
:101DD0007109E881F9810088F189E02D9401A5015C
:101DE000CE010995E881F9810688F789E02DCE01B9
:101DF000DF91CF911F910F91FF90EF90DF90CF90E7
:101E0000BF90AF909F908F907F906F9009946F924A
:101E10007F928F929F92AF92BF92CF92DF92EF927A
:101E2000FF920F931F93CF93DF935C01EB016A0145
:101E3000490138018701DC01ED91FC9162177307BC
:101E400019F5641675062CF0962D872D3A01C92ECA
:101E5000D82E9601261937092F5F3F4F048CF58D38
:101E6000E02DA301BE01C5010995DF91CF911F911E
:101E70000F91FF90EF90DF90CF90BF90AF909F9029
:101E80008F907F906F9008954615570591F426170F
:101E9000370724F0892D4B01C22FD82F9E01281916
:101EA00039092F5F3F4F068CF78DE02DA601B40155
:101EB000DACF0284F385E02D0995D501ED91FC91EF
:101EC0000488F589E02D83019401A601BE01C501B6
:101ED0000995D501ED91FC910688F789E02DC501A2
:101EE000DF91CF911F910F91FF90EF90DF90CF90F6
:101EF000BF90AF909F908F907F906F900994EF92DA
:101F0000FF920F931F93DC011A960D911C911B9762
:101F100018962D913C911997ED91FC9100A0F1A19B
:101F2000E02D7B0150E040E070E060E009951F91FA
:101F30000F91FF90EF9008954F925F926F927F9272
:101F40008F929F92AF92BF92CF92DF92EF92FF92C9
:101F50000F931F93CF93DF936C012B015A0139012B
:101F60004801DC01ED91FC910284F385E02D099597
:101F7000E201640C751CD601ED91FC91C615D705E4
:101F80005CF40088F189E02D87019401A501BE0170
:101F9000C60109952196EFCF0688F789E02DC60185
:101FA000DF91CF911F910F91FF90EF90DF90CF9035
:101FB000BF90AF909F908F907F906F905F904F9069
:101FC00009948F929F92AF92BF92CF92DF92EF923D
:101FD000FF920F931F93CF93DF93EC015B014A01B4
:101FE0006901E881F9810284F385E02D0995950165
:101FF0002C0D3D1D21503109E881F9810488F589B6
:10200000E02D78018401A401B501CE010995E88194
:10201000F9810688F789E02DCE01DF91CF911F91DC
:102020000F91FF90EF90DF90CF90BF90AF909F9077
:102030008F9009948F929F92AF92BF92CF92DF922E
:10204000EF92FF920F931F93CF93DF93EC015B010D
:102050004A0169017801E881F9810284F385E02D64
:102060000995C80CD91C860101501109E881F98134
:102070000488F589E02D9501A401B501CE010995EB
:10208000E881F9810688F789E02DCE01DF91CF91B3
:102090001F910F91FF90EF90DF90CF90BF90AF9086
:1020A0009F908F9009940895EF92FF920F931F9342
:1020B000DC01ED91FC9100A0F1A1E02D09951F91AB
:1020C0000F91FF90EF9008950F931F93DC01ED9116
:1020D000FC91068CF78DE02D09951F910F910895C5
:1020E0000F931F93DC01ED91FC91048CF58DE02D95
:1020F00009951F910F910895DC01ED91FC910084E9
:10210000F185E02D09942F923F924F925F926F924A
:102110007F928F929F92AF92BF92CF92DF92EF9277
:10212000FF920F931F93CF93DF9300D000D000D086
:10213000CDB7DEB73C016A013E832D83FC82EB8282
:102140005801A41AB50AB7FE03C0B194A194B1080E
:102150008D809E80861A970A97FE03C09194819481
:1021600091088A149B045CF0902F812F0D811E81B1
:102170009D838E839C2D8D2D6B01692F782F0C15DF
:102180001D055CF09D818E817E836D83692F782F84
:10219000902F812F8601C92ED82E1601201A310AC0
:1021A0002B012D813E81421A530A57FE03C05194E0
:1021B00041945108710137FE03C03FEFE31AF30A5F
:1021C000F594E7948D819E81861797075CF5A1E0D1
:1021D000B0E0BA83A983C016D1064CF1D301ED91CA
:1021E000FC910484F585E02D2B813C81A8016D8153
:1021F0007E818A149B041CF04D815E81B801C3016D
:102200000995E418F508F7FE0AC02D813E81898101
:102210009A81280F391F3E832D83E20CF31C0F5F38
:102220001F4FD9CF2FEF3FEF3A832983D4CF269684
:102230000FB6F894DEBF0FBECDBFDF91CF911F91D7
:102240000F91FF90EF90DF90CF90BF90AF909F9055
:102250008F907F906F905F904F903F902F90089558
:102260000895CF93CFB7F89480911002811127C0C1
:10227000EFEFFBE08491EBE1FCE09491E82FF0E0DC
:10228000EE0FFF1FEF52F44FA591B491EC91E923AB
:1022900021F461E08AE00E94390761E08AE00E944F
:1022A00067078CB580618CBD8CB580648CBD61E0A6
:1022B0008DE00E94670761E08BE00E9467078091D4
:1022C00010028F5F80931002CFBFCF9108952091AD
:1022D000C601260F3327331F21323105ECF420913C
:1022E000EA01FC0190E080E0243069F082E008958A
:1022F000A091C6012191AC014A555E4FA40FB52FA4
:10230000B11D2C930196861798F38091C601680F32
:102310006093C60180E0089581E008951092EA017B
:1023200081E08093EC011092EB0161E082E10E9478
:10233000390761E083E10E943907E9EBF0E0808131
:102340008E7F808380818D7F808388E98093B80031
:1023500085E48093BC000895CF93DF9391E0909340
:10236000A5018823B9F0C091B800D091BA0080913E
:10237000BC008A7B8093BC0060E082E10E94390748
:1023800060E083E10E9439070E948E11D093BA0069
:10239000C093B800DF91CF910895E0911B02809126
:1023A0001A02E81730F4F0E0E058FE4F808190E028
:1023B00008958FEF9FEF089590911B0280911A026C
:1023C0002FEF3FEF981748F4E92FF0E0E058FE4F69
:1023D000208130E09F5F90931B02C9010895809196
:1023E0001A0290911B02891B990B0895CF92DF92DC
:1023F000EF92FF920F931F93CF93DF937C01CB015A
:102400008A0120911202222389F0EB016B01C40E94
:10241000D51ECC15DD0569F06991D701ED91FC91D0
:102420000190F081E02DC7010995F3CF642F0E9440
:102430006711C801DF91CF911F910F91FF90EF902D
:10244000DF90CF900895CF93DF931F92CDB7DEB783
:102450006983209112022223F9F020911802203280
:1024600058F021E030E0FC013383228390E080E0EB
:102470000F90DF91CF91089580911902E82FF0E03D
:10248000E05AFE4F998190838F5F80931902809369
:10249000180281E090E0ECCF61E0CE0101960E944D
:1024A0006711F7CFCF92DF92EF92FF920F931F93B6
:1024B000CF93DF93D091180281E0D13208F09CC015
:1024C000C09111020E947E086B017C018091EA019B
:1024D00081116CC082E08093EA0181E08093EC017D
:1024E0008FEF8093E90110920E02D0930D02A0E6C7
:1024F000B1E0EDEEF1E080E0D8138DC010920F0254
:1025000080910F02CC0FC82BC0930F028091EB017A
:10251000813009F084C01092EB010E947E086B01AB
:102520007C0180910F028093BB008091A10190916A
:10253000A201A091A301B091A401892B8A2B8B2B1E
:10254000A1F00E947E080091A1011091A2012091AA
:10255000A3013091A4016C197D098E099F0906170A
:1025600017072807390708F442C08091BC0083FD93
:10257000D8CF85EC8093BC000E947E086B017C0163
:102580008091EA01823009F44CC08091E9018F3FCB
:1025900009F469C08091E901803209F466C0809134
:1025A000E901803309F463C084E026C08091A10171
:1025B0009091A201A091A301B091A401892B8A2B33
:1025C0008B2B09F483CF0E947E080091A10110910A
:1025D000A2012091A3013091A4016C197D098E09FB
:1025E0009F09061717072807390708F06FCF809152
:1025F000A0010E94AC1185E01092190210921802FD
:1026000010921202DF91CF911F910F91FF90EF90E6
:10261000DF90CF9008959D9191938F5F6DCF85EE60
:10262000A9CF8091A1019091A201A091A301B091A5
:10263000A401892B8A2B8B2B09F4A2CF0E947E0840
:102640000091A1011091A2012091A3013091A40158
:102650006C197D098E099F09061717072807390786
:1026600008F08ECFC4CF80E0C7CF82E0C5CF83E033
:10267000C3CFCF92DF92EF92FF920F931F93CF932E
:10268000DF93EC016B01142F8D8D9E8D009709F463
:1026900054C029A131E0309312022093110210920C
:1026A000190210921802DC01ED91FC910190F08169
:1026B000E02D60E009957601CC24C394D12C01E093
:1026C00011508D8D9E8D1F3F71F1B0E2CB16D1045C
:1026D000C0F00E9452128D8D9E8D29A1009312028E
:1026E000209311021092190210921802DC01ED9150
:1026F000FC910190F081E02D60E00995CC24C39419
:10270000D12C8D8D9E8DF7016491DC01ED91FC91B2
:102710000190F081E02D0995BFEFCB1ADB0AEFEFB6
:10272000EE1AFE0ACDCFDF91CF911F910F91FF904E
:10273000EF90DF90CF900C945212EDA5FEA5908102
:102740008BA98095892380837B01115070F1F7015B
:1027500084912B8D3C8D232B31F00E94900BFFEF49
:10276000EF1AFF0AF2CF28E030E040E8E9A5FAA529
:1027700099A9582F5423A9F05081952B9083EBA54C
:10278000FCA590815AA9952B9083EBA5FCA55081BF
:102790009AA990959523908346952150310931F758
:1027A000DECF508190959523E9CFDF91CF911F9196
:1027B0000F91FF90EF90DF90CF9008951F93CF93EC
:1027C000DF93EC018D8D9E8D009721F1162F29A1AD
:1027D00031E03093120220931102109219021092EC
:1027E0001802DC01ED91FC910190F081E02D60E098
:1027F00009958D8D9E8DDC01ED91FC910190F0810C
:10280000E02D612F09958D8D9E8DDF91CF911F91C8
:102810000C945212ADA5BEA59C918BA980958923DD
:102820008C938B8D9C8D892B31F0862FDF91CF91EE
:102830001F910C94900B28E030E080E8A9A5BAA580
:1028400099A9462F4823C1F04C91942B9C93ABA59A
:10285000BCA59C914AA9942B9C93ABA5BCA54C917B
:102860009AA9909594239C9386952150310931F72C
:10287000DF91CF911F9108954C9190959423E6CFCD
:102880001F93CF93DF93EC01162F8D8D9E8D892B97
:10289000B1F12DA93EA94FA958AD60E078E488EECA
:1028A00091E00E94EE3420513109410951095695B9
:1028B0004795379527952093B80066EA111167EA86
:1028C000CE010E94DE138D8D9E8D892B41F129ADA5
:1028D0003AAD4BAD5CAD60E078E488EE91E00E94EB
:1028E000EE342051310941095109569547953795E4
:1028F00027952093B800DF91CF911F9108958B8D7C
:102900009C8D892B21F08EAD9FAD0E94980BEFA579
:10291000F8A990818CA9809589238083CECFEFA5DB
:10292000F8A980819CA9892B8083E5CFBF92CF92A3
:10293000DF92EF92FF920F931F93CF93DF93EC01FF
:102940008D8D9E8D892B09F48FC02DA93EA94FA98D
:1029500058AD60E078E488EE91E00E94EE342051BA
:102960003109410951095695479537952795209387
:10297000B80044E065EE75E0CE010E9439138C8109
:102980009D818034910509F07FC060E2CE010E94F4
:10299000DE136C81615ECE010E94DE132E813F81C9
:1029A000C901079697FD079633E0959587953A9567
:1029B000E1F72C813D81829F7001839FF00C929FF3
:1029C000F00C11240F8D18A18D8D9E8DE00EF11E3F
:1029D000009709F485C029A131E0309312022093B9
:1029E00011021092190210921802DC01ED91FC9173
:1029F0000190F081E02D60E40995CC24C394D12CA2
:102A0000BB24B3948D8D9E8DE016F10609F443C06E
:102A1000B0E2CB16D104C0F00E9452128D8D9E8D73
:102A200029A1B09212022093110210921902109261
:102A30001802DC01ED91FC910190F081E02D60E441
:102A40000995CC24C394D12C8D8D9E8DF801619174
:102A50008F01DC01ED91FC910190F081E02D099551
:102A6000BFEFCB1ADB0ACECF8B8D9C8D892B21F04B
:102A70008EAD9FAD0E94980BEFA5F8A990818CA90F
:102A800080958923808375CF60E0CE010E94DE139C
:102A90006C81615080CF0E9452128D8D9E8D892B4A
:102AA00009F453C029AD3AAD4BAD5CAD60E078E4BC
:102AB00088EE91E00E94EE3420513109410951091C
:102AC00056954795379527952093B800DF91CF917C
:102AD0001F910F91FF90EF90DF90CF90BF900895DE
:102AE000EDA5FEA580819BA9892B8083E016F106C8
:102AF000A1F2F80181918F012B8D3C8D232B19F0D0
:102B00000E94900BF3CF28E030E040E8E9A5FAA559
:102B100099A9582F5423A9F05081952B9083EBA5A8
:102B2000FCA590815AA9952B9083EBA5FCA550811B
:102B30009AA990959523908346952150310931F7B4
:102B4000D5CF508190959523E9CFEFA5F8A9808145
:102B50009CA9892B8083BACF90E080E008950F93E1
:102B60001F939091890391111BC090911A019813A2
:102B700017C08091820390918303DC011C962D91F4
:102B80003C911D97261B370B21503109ED91FC918B
:102B9000068CF78DE02D01E010E048E050E009954B
:102BA0001F910F910895E0918203F091830390911A
:102BB000890398130DC081E090E030E020E0318B74
:102BC000208B938B828B7587648717861686089572
:102BD00090E080E021E030E0F2CFE0912301E1508D
:102BE000E43090F48E2F90E0FC01EE0FFF1FE80F11
:102BF000F91FE35EFD4F8091890380838091190165
:102C000081838091180182830895823061F120F4DC
:102C1000813061F060E818C08330B1F08430D1F7C2
:102C2000E62FE0956E2F660F660B0EC0862F90E0A4
:102C3000FC01E858FF4F603430F067FD07C0E7EF54
:102C4000F0E0E81BF90B6491862F0895FC01E85031
:102C5000F040603C20F0E7E7F1E0E81BF90BE4917D
:102C60006E2F6095F1CF67FD02C0660FEDCFEFEFDD
:102C7000F0E0E61BF1096E2FF8CFEAE7F0E0808183
:102C8000877D808310925E030895CF92DF92EF924A
:102C9000FF920F931F93CF93DF9300D000D000D00B
:102CA000CDB7DEB7FC01CB018E010F5F1F4F77FF61
:102CB0001AC02DE220839195819591093196E12CDE
:102CC0002AE0C22ED12C21E02E0DE00EF12EF11CB7
:102CD000B6010E948637805DD7018C93CB01E22E2E
:102CE000009789F705C0009751F780E3898321E0B9
:102CF000822F90E09801280F391FBF010217130798
:102D000039F0D9014E919D01DB014D93BD01F6CF04
:102D10008E0F9F1FFC01108226960FB6F894DEBF1F
:102D20000FBECDBFDF91CF911F910F91FF90EF901C
:102D3000DF90CF900895CF93FC01CB0177FF06C0C1
:102D40002DE2208391958195910931966AE070E09A
:102D50000E948637C82FCF010E944516FC018EE2E3
:102D60008083C05DC1831282CF010296CF91089506
:102D7000DC01ED91FD918081ED91FD919081ED91CE
:102D8000FD916C9163708E2309F064609F2309F0BC
:102D90006860E5EDF6E1E60FF11D659565956D93CB
:102DA0006D917D918D919D91099423C01AC012C09F
:102DB00016C010C01EC009C014C013C006C019C080
:102DC00009C00DC007C00DC014C0625070408040E3
:102DD00090400BC0615070408040904006C06E5FD4
:102DE00001C06F5F7F4F8F4F9F4F9E938E937E9357
:102DF0006E93089580915C0190915D010C94B816DA
:102E000080915A0190915B010C94B816CF93DF9397
:102E1000EC018B85823060F4F894CE010E94B816E4
:102E20006F81788589859A857894DF91CF9108950F
:102E3000F894F6CFE62F8C3F43E0940750F06CEF08
:102E400073E00E947237362F330F330F20E0820F6A
:102E5000931F06B606FE17C046B743702CEF33E04B
:102E600002C0220F331F4A95E2F78217930750F4EE
:102E70002FB781BD92BDE0BDF89484E08FBB82E0A6
:102E80008FBB2FBF089530E020E0EFCF8C3F43E0B1
:102E9000940750F06CEF73E00E947237362F330FB7
:102EA000330F20E0820F931F06B606FE13C046B70D
:102EB00043702CEF33E002C0220F331F4A95E2F734
:102EC0008217930750F481BD92BDF89A000000006C
:102ED00080B5089530E020E0F3CF80E008951F939F
:102EE000CF93DF93EC01162F888199810E944617BA
:102EF000181729F0612F888199810E941A17CE0135
:102F0000DF91CF911F910895CF93DF9300D0CDB77C
:102F1000DEB79A838983CE0101960E946F170F90C6
:102F20000F90DF91CF910895EF92FF920F931F932F
:102F3000CF93DF9369EA90E080E00E94841760916C
:102F4000230185E090E00E9484170DE112E0C6E0C5
:102F5000D0E0D8016C91CE010E948417F801618104
:102F6000CE0101960E948417D80112966C91CE0171
:102F700002960E9484170D5F1F4F2396C231D10520
:102F800041F76091700382E190E00E9484176091A4
:102F9000050183E190E00E94841780918203909163
:102FA0008303DC01ED91FC9100A0F1A1E02DEE2462
:102FB000E394F12C0AE010E020E830E046E350E032
:102FC00070E060E00995E0918203F0918303138A39
:102FD000128A118A108A84E090E09587848787E3BB
:102FE00090E09787868768EB70E0CF010E94E80841
:102FF00080918203909183030E94961464EF71E0A4
:1030000080E090E0DF91CF911F910F91FF90EF90C2
:103010000C94A0080F931F93CF93DF938C01EB01C7
:103020000E9446178883C80101960E94461789832B
:10303000CE01DF91CF911F910F9108950C94461707
:1030400060910501869FB0011124660F672F661FEE
:10305000770B80917003680F711D87FD7A956F3F24
:10306000710519F014F06FEF70E077FF02C070E0A7
:1030700060E084E00C94CA07823021F08330A9F02C
:1030800080E0089570935B0160935A0180E097E1BE
:103090009093010180930001809169008C7F816091
:1030A00080936900E89A81E0089570935D016093D0
:1030B0005C018AEF96E19093030180930201809175
:1030C0006900837F846080936900E99AECCFFB01FB
:1030D00001900020E9F73197AF01461B570BDC0147
:1030E000ED91FC910280F381E02D09948F929F92E3
:1030F000AF92BF92EF92FF920F931F93CF93DF9304
:10310000CDB7DEB7A1970FB6F894DEBF0FBECDBF27
:103110007C01FA01CB0119A2223008F42AE08E01C9
:103120000F5D1F4F822E912CB12CA12CBF01A50148
:1031300094010E94EE34F901CA016A300CF5605D19
:10314000D8016E938D01232B242B252B79F790E04A
:1031500080E0109721F0BD01C7010E946718A19679
:103160000FB6F894DEBF0FBECDBFDF91CF911F9198
:103170000F91FF90EF90BF90AF909F908F90089528
:10318000695CDECFCF92DF92EF92FF920F931F9395
:10319000CF93DF936B01770FEE08FF08F7FE1BC09C
:1031A000EC016DE20E94E1088C0144275527BA0129
:1031B0004C195D096E097F092AE0CE010E9476183C
:1031C000800F911FDF91CF911F910F91FF90EF9092
:1031D000DF90CF9008952AE0B701A601DF91CF914B
:1031E0001F910F91FF90EF90DF90CF900C94761885
:1031F0000F931F93CF93DF93EC010E94E8088C019B
:1032000067E571E0CE010E946718800F911FDF9182
:10321000CF911F910F910895CF93DF93EC01683EFA
:1032200083E0780778F4CE010E949B160990002075
:10323000E9F7219788E488838AE789831A82DF91F6
:10324000CF910895CB016AE070E00E947237CE0101
:103250000E944516EBCFEF92FF920F931F93CF93EF
:10326000DF93CDB7DEB72A970FB6F894DEBF0FBE57
:10327000CDBF009182031091830381E0F801848B1C
:10328000858B70E060E00E94D3158091230182302D
:1032900009F46FC008F062C061EE70E0813009F49B
:1032A00064C070E060E081E00E94AF1564E270E00D
:1032B00082E00E94D31580912301833009F496C0E7
:1032C00008F05DC0813008F07CC064E270E082E00C
:1032D0000E94AF1510912301143009F0AEC062E4D2
:1032E00070E083E00E94D315E09118010091820301
:1032F0001091830380911901853009F083C06E2FEE
:1033000070E0CE0101960E949B16BE016F5F7F4F59
:10331000C8010E94671866E580918203909183033B
:103320000E94E10862E470E083E00E94AF15E09142
:103330008203F091830381E090E0938B828B918BE9
:10334000808B2A960FB6F894DEBF0FBECDBFDF91FB
:10335000CF911F910F91FF90EF900895833061F00E
:1033600063ED70E0843009F09CCFC8010E94E8084A
:1033700098CF6CED70E0F9CF67ED70E0F6CF843058
:1033800009F0A3CF609119016623C9F1663008F0F6
:1033900065E06150770B660F771F660F771F6956E0
:1033A000744F44E050E0CE0101960E94B334BE0158
:1033B0006F5F7F4F80918203909183030E94671813
:1033C00084CF60ED70E080918203909183030E942E
:1033D000E8084091190150E070E060E02AE0809137
:1033E0008203909183030E9476186FCF6DEC70E09A
:1033F00080918203909183030E94E80866CF70E079
:1034000060E0C9CFEE23B1F0EF3008F0EEE0E1501C
:10341000FF0BEE0FFF1FE555F44F65917491CE0140
:1034200001960E940C19BE016F5F7F4FC8010E9478
:10343000671878CFF0E0E0E0ECCF133009F477CFF5
:10344000E0908203F09083036EE470E083E00E94DA
:10345000D3156AEC70E0113011F067EC70E0C70131
:103460000E94E8084091180150E070E060E02AE016
:1034700080918203909183030E9476186EE470E03D
:1034800053CF85ED8093BC008091A1019091A20162
:10349000A091A301B091A4010796A11DB11D23E045
:1034A000B695A795979587952A95D1F72091BC0059
:1034B00024FD03C01092EA0108954091A1015091AA
:1034C000A2016091A3017091A401452B462B472BCB
:1034D00069F30097A105B10541F025E52A95F1F7BB
:1034E00000000197A109B109E1CF8091A0010C94DE
:1034F000AC110F931F93CF93DF93EC01062F142F82
:1035000062E0802F0E94670762E0812F0E946707B8
:10351000802F90E0FC01EB50F44FE491F0E0EE0FCF
:10352000FF1FE751F44F2591349139832883FC0123
:10353000EF5EF34FE491EC83812F90E0FC01EB50C0
:10354000F44FE491F0E0EE0FFF1FE751F44F2591A7
:1035500034913B832A83FC01EF5EF34FE491ED83CA
:103560001F82188619861A8685E593E50197F1F77B
:10357000E881F98190818C81982381E009F480E0D1
:10358000EA81FB8190812D81922309F082608E83F4
:10359000BE01802F0E943C188B87BE01812F0E94A4
:1035A0003C189B85890F8B87DF91CF911F910F91DD
:1035B00008950E948339FC01868197819C01295FCF
:1035C0003F4F37FF02C0295F3F4F83E03595279576
:1035D0008A95E1F784819581289FA001299F500D4C
:1035E000389F500D112470E060E0878D90A10C94FD
:1035F0009A39BF92CF92DF92EF92FF920F931F936F
:10360000CF93DF93B82EC0910C01809182039091EB
:1036100083030E94DB1AD0E0CA5ADD4F70E060E0FD
:103620006B018FEFC81AD80AA0E8CA16D104F9F0C6
:103630008091820390918303FE010981219610E01D
:103640001595079515950795408150E05595479537
:1036500055954795DC01ED91FC9104A0F5A1E02D75
:10366000EE24E394F12C96010995B601D9CFBB2045
:1036700059F0DF91CF911F910F91FF90EF90DF9064
:10368000CF90BF900C942B19DF91CF911F910F9188
:10369000FF90EF90DF90CF90BF900895AF92BF92D0
:1036A000CF92DF92EF92FF920F931F93CF93DF930E
:1036B000C82F0E943D1680918403882349F070E052
:1036C00060E084E00E94CA0760E084E00E9467072F
:1036D0008FEF8C0F843058F590E0FC01EE0FFF1F48
:1036E000E80FF91FE35EFD4F80818093890381819C
:1036F00080931901828180931801C33009F440C07E
:10370000C43009F456C0C23059F160E086E00E942E
:10371000670761E083E00E94670760E083E00E9442
:10372000390780917A00887F846080937A00E6E58B
:10373000F2E080E091E0DF019C011D9221503040D9
:10374000E1F710924C0210926F03DF91CF911F911D
:103750000F91FF90EF90DF90CF90BF90AF900895C2
:1037600061E083E00E9467076FE770E083E00E94FA
:10377000CA0760E086E00E94670710924D02D7CF2B
:1037800061E083E00E9467076FE770E083E00E94DA
:10379000CA0760E086E00E94670710925A03109201
:1037A0005B0310925C0310925D0382E080930F0133
:1037B000BECF61E083E00E94670760E083E00E9483
:1037C000390760E086E00E94670781E0809324016A
:1037D0008091AD008F7B8093AD0080912401811199
:1037E0007AC08091A0008C7081608093A00080914D
:1037F000F00081FF0AC08091F0008D7F8EBB80E8D1
:103800008093F0008EB38093F00080912401829524
:10381000880F880F807C80937C0063E084E00E94A6
:10382000670770E060E084E00E94CA0780E593ECDF
:10383000A0E0B0E08093120190931301A0931401D3
:10384000B093150184E190E09093110180931001F1
:1038500010927603109277031092780310927903F6
:1038600080911901853009F45CC0E0911801EE23C4
:1038700009F455C0EF3008F0EEE0E150FF0BEE0F19
:10388000FF1FE555F44F859194912AE9A22E39E95D
:10389000B32E49E9C42E59E1D52EE12CF12C00E0DC
:1038A00010E09C0140E050E060E070E080E090E0DB
:1038B0000E94A737E0E5AE2EF3ECBF2EC12CD12C31
:1038C0000E94013820937E0330937F03409380034E
:1038D000509381032CCF813031F48091A0008C7003
:1038E0008093A00092CF8091A0008C708260809322
:1038F000A00080912401823029F48091CE00809331
:10390000C80083CF843041F48091AD0080648093FF
:10391000AD008091CC00F3CF8091CD00F0CFE1E0FD
:10392000ACCF10927E0310927F031092800310920E
:103930008103FDCE1F920F920FB60F9211242F9389
:103940003F938F939F93AF93BF93809197039091F1
:103950009803A0919903B0919A033091960320E4C3
:10396000230F2D3728F023EC230F0196A11DB11D45
:10397000209396038093970390939803A0939903C1
:10398000B0939A0380919B0390919C03A0919D0317
:10399000B0919E030196A11DB11D80939B0390934E
:1039A0009C03A0939D03B0939E03BF91AF919F9101
:1039B0008F913F912F910F900FBE0F901F901895F0
:1039C0001F920F920FB60F9211242F933F934F9394
:1039D0005F936F937F938F939F93AF93BF93EF9377
:1039E000FF93E0910201F09103010995FF91EF919E
:1039F000BF91AF919F918F917F916F915F914F9107
:103A00003F912F910F900FBE0F901F9018951F920E
:103A10000F920FB60F9211242F933F934F935F9302
:103A20006F937F938F939F93AF93BF93EF93FF9386
:103A3000E0910001F09101010995FF91EF91BF9193
:103A4000AF919F918F917F916F915F914F913F9136
:103A50002F910F900FBE0F901F9018951F920F92ED
:103A60000FB60F9211242F933F934F935F936F9351
:103A70007F938F939F93AF93BF93EF93FF93809127
:103A8000B900887F803609F44AC0F0F5883209F41D
:103A9000A7C018F5803109F49BC0B8F4882309F455
:103AA000F9C0883009F494C0FF91EF91BF91AF91B4
:103AB0009F918F917F916F915F914F913F912F9146
:103AC0000F900FBE0F901F901895883109F488C091
:103AD000803251F78093E90114C0803409F49DC00D
:103AE00040F48033B9F38833F9F68093E90185EC2B
:103AF000B0C0803509F485C0883509F496C0883493
:103B000099F60E94411AD0CF883909F48CC038F553
:103B1000883729F050F4883611F0803729F683E091
:103B20008093EA011092E80157C0883809F47BC0FD
:103B3000803919F0803809F0B7CF8091E8018032E0
:103B400008F071C0E091E80181E08E0F8093E801F8
:103B50008091BB00F0E0E853FE4F80833DC0803B86
:103B600039F0E0F4803A09F479C0883A09F09CCF42
:103B700084E08093EA011092C7011092C601E0919F
:103B80001602F091170209958091C60181110FC0AC
:103B900081E08093C6011092A60109C0803C09F41F
:103BA000A6CF883C09F4A3CF883B09F07DCFE091F4
:103BB000C70181E08E0F8093C701F0E0EA55FE4F08
:103BC00080818093BB009091C7018091C60129C07C
:103BD00080910F028093BB0085EC8093BC0064CF82
:103BE00090910E0280910D02981758F5E0910E0207
:103BF00081E08E0F80930E02F0E0E351FE4F808152
:103C0000E9CFE0910E0281E08E0F80930E02809149
:103C1000BB00F0E0E351FE4F808390910E02809153
:103C20000D029817C8F285E8D8CFE0910E0281E026
:103C30008E0F80930E028091BB00F0E0E351FE4FA7
:103C400080838091EC0181115CCF81E08093EB0156
:103C500084EA8093BC001092EA0126CF85EC809321
:103C6000BC001092EA018091E801803230F4E091CA
:103C7000E801F0E0E853FE4F10826091E80170E047
:103C8000E0911402F091150288EC91E009951092F0
:103C9000E8010ACF1092E90134CF1F920F920FB6BC
:103CA0000F9211242F933F934F935F938F939F9382
:103CB000EF93FF933091790099B1892F807897FF26
:103CC0001CC090915F01911118C080935F0181E049
:103CD00080934D0290915E03913099F0923079F18A
:103CE000FF91EF919F918F915F914F913F912F9114
:103CF0000F900FBE0F901F90189580935F0180E08A
:103D0000E9CF811117C080914E02823049F3809132
:103D10004E02813079F490913F02391718F0809368
:103D20005202DECF809152028823D1F2809140026C
:103D30008317B0F282E080935E0310925E0180915F
:103D40005E01882331F080915E01815080935E0195
:103D5000C7CF8091530280935E0120914F028091E2
:103D6000540290915502AC014F5F5F4F5093550242
:103D7000409354028A5A9D4F820F911DFC0130835B
:103D8000209154023091550280910D0190910E01C5
:103D90002817390708F4A4CF80914F02809342027C
:103DA00081E08093510280915002882391F08091AC
:103DB0004F02805890910C01981380934F021092FB
:103DC0005502109254021092520281E080935E03D9
:103DD00087CF83E0FBCF90E896BF8CE486BF96BF89
:103DE00086BF0895CF93DF93CDB7DEB7A1970FB607
:103DF000F894DEBF0FBECDBF8091F20080618EBB14
:103E000080E88093F2009EB39093F200809361006B
:103E100091E0909361002091F2002F792EBB809366
:103E2000F2002EB32093F2002091F2002B7F2EBBE4
:103E30008093F2002EB32093F200809361001092E1
:103E40006100789484B5826084BD84B5816084BD4E
:103E500085B5826085BD85B5816085BD80916E0028
:103E6000816080936E001092810080918100826059
:103E70008093810080918100816080938100809196
:103E800080008160809380008091B1008460809385
:103E9000B1008091B00081608093B000809191006A
:103EA0008260809391008091910081608093910065
:103EB0008091900081608093900080917A0084606E
:103EC00080937A0080917A008D7F80937A00809130
:103ED0007A008E7F80937A0080917A008068809348
:103EE0007A001092C1009093290262E085E00E945E
:103EF000670785E598E00197F1F784E190E00E947B
:103F00001E18182F8093040185E00E941007892B4A
:103F1000B9F468E572E080E090E00E94A00885E0D6
:103F20000E941007892B61F461E0610F6370143007
:103F300008F063E06093040184E190E00E9484173C
:103F400080910401843008F0C7C4982F9170909339
:103F50002A02869581708093130280912A029091A3
:103F600013028111892F80938403992309F4C0C41B
:103F70008CE090E00E945E388C0141E160E1C80174
:103F80000E94791A10938B0300938A036BE171E00E
:103F900081E090E00E940A1880911B0190911C0121
:103FA0008130910541F0019631F081E090E09093ED
:103FB0001C0180931B0182E090E00E941E188093F8
:103FC0002F028D7F11F010922F0266E171E083E0E5
:103FD00090E00E940A1880911601909117010197B4
:103FE000CC9730F085E090E0909317018093160114
:103FF00085E090E00E941E189FEF980F943008F41F
:104000007FC481E08093230180912A02882309F4F0
:1040100082C40E9431118CB58C7F8CBD8DB58160BE
:104020008DBD80E490E00E945E38FC011382128214
:1040300020E830E03583248380E490E09783868312
:104040003187208793878287168A1586148617867C
:10405000168681E0858B848B2FEF3FEF338B228B8D
:10406000318B208B878B108E128E118E8FE291E018
:10407000918380838CE192E0948F838F168E158ECE
:1040800010A2178E8FEF84A385A389E086A38AE010
:1040900087A388E080A780E586AF17AEF0938303FF
:1040A000E0938203C0908203D0908303F6012681BF
:1040B0003781C901079697FD0796A3E095958795E7
:1040C000AA95E1F7D60114962D913C91FC01E29F4F
:1040D000C001E39F900DF29F900D11240E945E3865
:1040E000D60190969C938E935F97892B09F40CC10F
:1040F000C6010E94DB1AF601868197816481758171
:10410000AC0181970CF444C44054510957FF02C0DC
:104110004F5F5F4F559547956255710977FF02C014
:104120006F5F7F4F75956795E0E4EE2EF12C02E509
:1041300010E02BEE37E0C6010E944D0682E0D6016A
:1041400092968C9392975D968D919C915E97892B18
:1041500009F438C416968D919C91809709F030C46B
:104160008CE3F60181A310921B0210921A021092A6
:104170001902109218020E948E118EED98E0909311
:104180001702809316028FED98E0909315028093AA
:104190001402D60198968C9187FD1FC061E00E94A1
:1041A000670761E0F60180A50E94390761E070E0D1
:1041B00080E090E00E94A00860E0D60198968C9183
:1041C0000E9439076AE070E080E090E00E94A00859
:1041D00061E0F60180A50E943907D6015D968D91B8
:1041E0009C915E97892B09F47FC4D5962D913D91C2
:1041F0004D915C91D89760E078E488EE91E00E9460
:10420000EE342051310941095109569547953795AA
:1042100027952093B80044E067E076E0C6010E944D
:104220003913F60166816150C6010E94DE1344E035
:1042300063E076E0C6010E943913D60192968C9114
:1042400060E1813009F064E1C6010E94DE1344E0C0
:104250006FEF75E0C6010E9439138FE8F60185AF54
:10426000848195818038910509F053C486819781B6
:104270008034910509F05BC482A1813009F067C4E4
:104280008FE9D601DD968C9312E16AEDC6010E949A
:10429000DE13612FC6010E94DE1361E8C6010E9491
:1042A000DE13F60165ADC6010E94DE1369EDC6019D
:1042B0000E94DE13D60192968C9162E2813009F061
:1042C00061EFC6010E94DE1346E069EF75E0C601AA
:1042D0000E943913F601858D968D892B09F439C416
:1042E00021AD32AD43AD54AD60E078E488EE91E0AD
:1042F0000E94EE34205131094109510956954795E4
:10430000379527952093B80080918203909183037D
:10431000DC01ED91FC91008CF18DE02D60912F027C
:1043200009950091820310918303C8010E94DB1A52
:10433000FF24F394F801F48AF58A81E090E0938BEE
:10434000828B918B808BC8010E94DB1A82E0D8019E
:1043500054968C93549755968C93559780E1C82E1C
:10436000D12C1D96DC92CE921C978AE090E01F968D
:104370009C938E931E9763ED7AE0C8010E94E80833
:10438000E0918203F0918303F48AF58AD586C4868E
:1043900080E290E09787868765EC7AE0CF010E9403
:1043A000E8088091820390918303FC0115861486AE
:1043B00028E330E03787268720912A0260EC7AE0F4
:1043C000211102C06DEB7AE00E94E808809182031F
:1043D000909183032091290268EB7AE0211102C0B9
:1043E00063EB7AE00E94E808809104018430A0F435
:1043F00060EB7AE080918203909183030E94E80849
:104400004091040150E070E060E02AE08091820376
:10441000909183030E947618809182039091830388
:1044200020918403222321F06BEA7AE00E94E808BD
:1044300080918203909183030E94961460E273E05E
:1044400080E090E00E94A00861E083E00E9467079E
:1044500062E085E00E94670760E086E00E946707EF
:1044600060E087E00E9467078091B100887F8160EB
:104470008093B10090E080E00E941E18893AC1F15B
:1044800069EA90E080E00E94841761E081E090E0BA
:104490000E94841760E082E090E00E94841765E04B
:1044A00083E090E00E94841761E085E090E00E9444
:1044B000841706E010E060E0C8010E94841762E003
:1044C000C80101960E94841761E0C80102960E940B
:1044D00084170D5F1F4F0231110569F760E082E11B
:1044E00090E00E94841760E883E190E00E948417C6
:1044F00082E190E00E941E188093700383E190E0B7
:104500000E941E1880930501803218F480E8809381
:104510000501ADE1EA2EA2E0FA2E06E010E0CC247F
:10452000C394D12CAA24A394C8010E941E18982ECB
:10453000D7018C93C80101960E941E18B82EF7016E
:104540008183C80102960E941E18D70112968C938F
:10455000B3E0B91510F4F7011082F3E0CF16D104DF
:1045600009F414C324E0C216D10409F414C332E0E0
:10457000C316D10409F4F7C291E0BB2021F09B2DB2
:10458000993008F098E090931E02982F8B3008F035
:104590009AE090931F02811102C0A0921F026FEF58
:1045A000C61AD60A0D5F1F4F73E0E70EF11C0231E9
:1045B000110509F0B9CF809123010E944E1BCE0155
:1045C0000D969A8B898BDE011196BC8BAB8B10916B
:1045D000950310939403809123018093220185E039
:1045E0000E94100721E0009709F020E02093950336
:1045F000892B09F0ECC2111111C00E94D2086093FE
:10460000900370939103809392039093930381E0BE
:1046100080938F0310928E0310928D0380918F03ED
:104620008823F1F080918E0381111AC00E94D20874
:104630000091900310919103209192033091930384
:10464000601B710B820B930B683E734081059105D3
:1046500038F00E94ED150E94941781E080938E033C
:10466000B090950300918A0310918B03BB20C9F190
:1046700080918C0381110C94323080918D038111D3
:104680000C943C3080918E03882311F40C943C30C0
:104690000E94D208C0909003D0909103E0909203C2
:1046A000F09093036C197D098E099F09683B7B404C
:1046B0008105910510F40C943C3081E080938C03CB
:1046C00080938D0380932101C8010E9406170E94E8
:1046D000343660931D0170931E0180931F019093E7
:1046E0002001C0901D01D0901E01E0901F01F090AC
:1046F000200180918C03882311F40C944430A09005
:104700001B01B0901C01C8010E9406170E9434369C
:104710002B013C0120E030E040E450E4C701B60149
:104720000E9420359B01AC01C301B2010E94E43616
:1047300018160CF086C240921D0150921E01609224
:104740001F017092200180912101833009F461C220
:1047500008F043C2813009F4C2C2823009F44BC26E
:1047600080911B0190911C018A159B0521F0B0924C
:104770001C01A0921B0180919503909194039111CB
:104780000C94F031882311F40C94F33180912101C1
:1047900065E00E9466379F5F909321010E94D208D6
:1047A00060932B0270932C0280932D0290932E0223
:1047B000C0902B02D0902C02E0902D02F0902E029F
:1047C000C114D104E104F10411F40C94FB310E94F2
:1047D000D2086C197D098E099F09603D77408105DB
:1047E000910510F40C94FB31EE24E394F12CFA8241
:1047F000E98260911B01CE0101960E946F1782E051
:1048000090E09A83898360911C01CE0101960E94F9
:104810006F1760912F0282E090E00E941A1760915A
:10482000160183E090E09A838983CE0101960E946D
:104830006F170E94ED150E9494170091820310914A
:104840008303C8010E94DB1AF801F38AE28AF18A25
:10485000E08A80E190E09587848789E190E09787FE
:10486000868764E37BE0C8010E94E80880918203A8
:10487000909183030E94961460E273E080E090E0E0
:104880000E94A00810928C0310922B0210922C020E
:1048900010922D0210922E0280918A0390918B0328
:1048A0000E9406179B01AC01A0911B01B0911C0155
:1048B0000E94E6340E94343660931D0170931E01FD
:1048C00080931F019093200180E090E0892B09F4F0
:1048D0007ECE0E94000077CE0E944D0821E08039F4
:1048E00091400CF020E02093130220932A0235CB54
:1048F0008CE090E00E945E388C0144E062E03FCBA7
:1049000080932301843009F07FCB80918403882336
:1049100009F477CB79CB80E490E00E945E38FC010B
:104920001382128220E830E03583248380E490E013
:10493000978386833187208793878287168A158697
:1049400014861786168681E0858B848B2FEF3FEFC8
:10495000338B228B318B208B878B108E128E118E96
:104960002FE231E031832083148E138E168E158E44
:1049700010A2178E99E094A39AE095A39BE096A3CA
:104980009CE097A39DE090A791E596AF87AF86CB7B
:104990004052510957FF02C04F5F5F4F55954795F1
:1049A0006357710977FF02C06F5F7F4F75956795F9
:1049B00090E2E92EF12C03E710E02BE036E0BBCBD0
:1049C0008DE3CFCB61E096968C910E94670761E002
:1049D000F60187A10E946707D60196968C9196975B
:1049E000082E000C990BFC01EB50F44FE491F0E021
:1049F000EE0FFF1FE352F44F25913491F60136A7D5
:104A000025A7FC01EF5EF34FE491D396EC93D39787
:104A100097968C91082E000C990BFC01EB50F44FEB
:104A2000E491F0E0EE0FFF1FE352F44FA591B49133
:104A3000F601B0ABA7A7FC01EF5EF34F9491F6012E
:104A400094AB8C91E92FE82BEC93D6015B968D917A
:104A50009C91892B19F00E9431119BCB61E0F601EA
:104A600084A10E94670761E0D60195968C910E940F
:104A70006707F60184A1082E000C990BFC01EB508E
:104A8000F44FE491F0E0EE0FFF1FE352F44F259155
:104A90003491D6019A963C932E939997FC01EF5E40
:104AA000F34FE491D196EC93D19795968C91082E83
:104AB000000C990BFC01EB50F44FE491F0E0EE0F89
:104AC000FF1FE352F44FA591B491F601B4A7A3A739
:104AD000FC01EF5EF34F9491F60192AB8C91E92FBC
:104AE000E095E823EC9355CBF601838D948D892BCB
:104AF00021F086AD97AD0E94980BD6019F96ED915F
:104B0000FC91D0979081D4968C9180958923808355
:104B100082CB8036910579F486819781409739F46C
:104B200082A1813031F480E1D601DD968C9312E0D0
:104B3000ACCB8FEAF9CF80349105C9F78681978194
:104B40008097A9F782A1813011F480E19ACB8FEC94
:104B500098CBD60107A4F0A9E02D8081D4969C9132
:104B6000892B8083D1CB91E0BB2021F09B2D993004
:104B700008F098E090932102882331F0873008F004
:104B800086E0809322020BCD81E0FBCFA09224022D
:104B9000A092250204CDB11008C0A092270288235C
:104BA000A1F08F3078F08EE00DC09B2D45E04B15C5
:104BB00008F495E09093270254E05B1580F7833367
:104BC00008F082E380932802EACC81E0FBCF112336
:104BD00009F424CD10928F0321CD843049F1853022
:104BE00009F0BECD80910501813208F4B9CD815024
:104BF00080930501B5CD8091160190911701823007
:104C0000910508F4ADCD019790931701809316019B
:104C1000A7CD10922F028091820390918303DC0133
:104C2000ED91FC91008CF18DE02D60E0099598CD1F
:104C3000809170038F3C0CF493CD8150809370036E
:104C40008FCD20E030E040E450E4C701B6010E947F
:104C50001F359B01AC01C301B2010E948C3587FF57
:104C60007FCD40921D0150921E0160921F017092F3
:104C70002001809121018330E1F078F4813099F1B5
:104C8000823009F06DCD80911601909117018C331F
:104C9000910508F065CD0196B7CF8430C9F0853015
:104CA00009F05ECD809105018F3F09F459CD8F5FEA
:104CB0009FCF82E080932F028091820390918303A3
:104CC000DC01ED91FC91008CF18DE02D62E0AECF26
:104CD0008091700382330CF043CD8F5FAFCFAA2455
:104CE000A394B12C3DCDAA24AA94BA2C39CD9FEF20
:104CF000980F933010F00C946030809389030C94DB
:104D0000563020E030E040E450E4C501B4010E9498
:104D1000203520E030E040E85EE30E94E9369B0168
:104D2000AC01C701B6010E94E436181614F00C94C9
:104D3000B93080921D0190921E01A0921F01B09285
:104D400020010E94D20860938503709386038093AC
:104D500087039093880381E00C94A630933091F4FC
:104D600091E020911A01820F79F080931A018091CD
:104D70001A01981710F00C94B93081E080931A0151
:104D80000C94B93093E0EDCF90931A01F0CF980FC7
:104D9000D9F09093230190912301953018F091E080
:104DA0009093230190912301943011F00C94B93029
:104DB0009091840391110C94B9308C5F853031F05F
:104DC000809323010C94B93094E0E3CF81E0F8CFD5
:104DD00021E0933021F028E0943009F425E030916F
:104DE0001901830FD9F08093190180911901022EC6
:104DF000000C330B82171306A1F09CF081E0809326
:104E00001901943011F00C94B9308091180181503F
:104E10008E3010F40C94B93084E010C02093190146
:104E2000E4CF943011F00C94B930853071F7809153
:104E30001801833310F40C94B93089E18093180180
:104E40000C94B930923061F19430F9F0913029F539
:104E50009AE02AEF30911801830F422F022E000CA6
:104E6000550B8417150604F1809318013091180131
:104E7000892F990F990B3817190609F014F40C941F
:104E8000B930209318010C94B9309091190121E0A8
:104E9000953041F420E092E3DDCF91E021E0DACFDC
:104EA00096E0FCCF9EE0D6CF90931801DFCF133071
:104EB00009F486C2143011F00C94823380911A01E7
:104EC000882309F438C7843008F083E080931A01FE
:104ED00030901901332009F430C73D8E032D063080
:104EE00010F015E01D8F4D8C4092190180918403C4
:104EF000882309F4E9CCE0911801042D053009F468
:104F000021C7EE2309F41CC7EF3008F0EEE0E09370
:104F10001801E150FF0BEE0FFF1FE555F44F4591CF
:104F200054918AE9A82E99E9B92E29E9C22E39E1CE
:104F3000D32EE12CF12C00E010E09A0140E050E08B
:104F400060E070E080E090E00E94A737C09012011E
:104F5000D0901301E0901401F09015015601670103
:104F6000E12CF12C0E94013820937E0330937F03C3
:104F700040938003509381030E947E0880907A03BF
:104F800090907B03A0907C03B0907D038B019C01EB
:104F9000081919092A093B09C0901001D090110184
:104FA000F12CE12CC016D106E206F30608F4F3C694
:104FB0000035134C2105310508F43CC760937A0392
:104FC00070937B0380937C0390937D0333C781E0D0
:104FD0000C940D3181E00C941831809138028823B3
:104FE00079F08091820390918303FC0115861486E9
:104FF00028E330E03787268763E47BE00E94E808F7
:105000004D885E886F88788CE98CFA8C0B8D1C8DAE
:105010004E145F046006710610F00C9482330E94F7
:105020002B190C948233B0901A01BB2009F495C15E
:1050300003E0F02EFB1410F413E0B12EB0921A012D
:1050400000911901002309F48BC1093008F008E030
:105050000093190110911801112309F483C117302D
:1050600008F016E0109318010E94D2086B017C0131
:1050700080914D02882351F010924D02C092080198
:10508000D0920901E0920A01F0920B01809108018F
:1050900090910901A0910A01B0910B01A70196011D
:1050A000281B390B4A0B5B0BDA01C901AA24A39414
:1050B00080319742A105B10540F087E00E941007BA
:1050C000AA24A394892B09F4A12C4D885E886F88AB
:1050D000788C298D3A8D4B8D5C8D42165306640673
:1050E000750608F441C130E020E0992493944D887E
:1050F0005E886F88788C498D5A8D6B8D7C8D4416B7
:1051000055066606770608F0912C8091890390E099
:10511000982F88279295907F9B2960E1069FA00198
:105120001124842B952B612E712C8C0106291729B3
:10513000022B132B80910601909107010817190784
:1051400079F0109307010093060108271927007FC3
:105150001127012B09F40BC10E943D1610924C023D
:1051600090914C02911143C0A11092E0E09119017D
:10517000E150FF0BE85BF44FE491F8941092550274
:1051800010925402A0E8B0E0B0930E01A0930D017C
:10519000E0935302109252021092510281E08093E8
:1051A000500210924F0220E820930C0190934E027F
:1051B00080935E0390E690937C009DEE90937A003E
:1051C00010927B007894C0924802D0924902E092FB
:1051D0004A02F0924B02C0924402D0924502E09201
:1051E0004602F092470280934C0210924302809153
:1051F0005102882309F453C0F8941092510280910F
:105200000C019091420290930C0120914F029091D9
:105210000C0129130BC080934F021092550210927B
:1052200054021092520281E080935E03789481E0F0
:1052300080934102C0924402D0924502E09246021D
:10524000F0924702E0910C01F0E0EA5AFD4F80E055
:105250009FEF30E02191291708F4922F821708F46C
:10526000822F3F5F3038B1F7891B21E0883008F486
:1052700020E020934302883090F0282F30E086957C
:1052800086958695833008F483E035952795920FAF
:10529000292F281B20934002980F90933F02809162
:1052A0005E03813009F06CC0C0924802D09249027E
:1052B000E0924A02F0924B0282E0A1105EC080911F
:1052C000440290914502A0914602B0914702970195
:1052D0008601081B190B2A0B3B0BD901C801853627
:1052E0009105A105B10508F446C010924E028091C7
:1052F0004102882311F40C948233D30111972AE0E0
:1053000030E00E94A0376C5E7F4F8F4F9F4F00911F
:105310003B0210913C0220913D0230913E02260159
:105320003701401A510A620A730A93018201061773
:1053300017072807390710F40C948233C0923B02F8
:10534000D0923C02E0923D02F0923E021092410265
:10535000892D0E94F91A0C948233BB24B3946ECE2B
:1053600001E076CE11E07ECE20E030E8BECE892D81
:105370000E94F91AF5CE8091430280934E02B7CF76
:1053800080915E03823009F0B2CF80914802909103
:105390004902A0914A02B0914B02A7019601281B35
:1053A000390B4A0B5B0BDA01C90189359240A10523
:1053B000B10508F49CCF0E943D1610924C0297CF85
:1053C00081E080931A0180916F03813009F40DC14F
:1053D00008F46CC0823009F429C10E94D2080091FF
:1053E0005603109157032091580330915903601BC5
:1053F000710B820B930B603571058105910510F4DB
:105400000C94823380908203909083030E94D20890
:1054100060935603709357038093580390935903F6
:10542000C4010E94DB1A4D885E886F88788CE98CF5
:10543000FA8C0B8D1C8D5AE0252E312C4E145F04F6
:105440006006710610F0312C212CC0905A03D090C8
:105450005B03E0905C03F0905D03210108E0400EE7
:10546000511C20E030E040E751E4C701B6010E9442
:10547000E43618160CF0FEC320E030E040E251E4C0
:10548000C701B6010E94E9360E9403366B01CB01C9
:1054900004E0803714E1910708F41BC2093009F4D5
:1054A00018C20196969587950F5FF3CF0E94D20898
:1054B00000916B0310916C0320916D0330916E038A
:1054C000601B710B820B930B68327105810591058E
:1054D00008F483CFC0906703D0906803E09069031D
:1054E000F0906A0320E030E040EA52E4C701B601E0
:1054F0000E948C3587FD05C010910F01113009F015
:1055000045C081E080930F01E12C10E9F12E01EB01
:1055100015E4E0926303F092640300936503109333
:10552000660391E087E0F8941092550210925402BD
:1055300020E031E030930E0120930D01909353024F
:1055400010925202109251021092500210924F0289
:1055500090E890930C0110924E0291E090935E03BC
:1055600020E620937C00886E80937A0010927B0066
:10557000789490936F030E94D20860935F037093B6
:105580006003809361039093620327CF20E030E0B3
:1055900048E453E4C701B6010E948C3587FD02C080
:1055A000123089F482E080930F0100E010E921E3DA
:1055B00036E40093630310936403209365033093F0
:1055C000660390E0AFCF83E080930F0120E03EE8D8
:1055D00041EB56E4209363033093640340936503E7
:1055E0005093660390E086E09ECF80915E03833007
:1055F00021F482E080936F03F0CE0E94D2080091E4
:105600005F03109160032091610330916203601B7E
:10561000710B820B930B693C71058105910508F4B0
:10562000DCCE0E943D1610926F03D7CEE6E5F2E085
:1056300046E553E090E02FEF8191821708F4282F80
:10564000981708F4982F4E175F07B1F7892F821B20
:105650008E3108F40AC1290F3327331F359527955A
:1056600066E00E94663701E090915602291708F023
:1056700000E0A7E5B2E070E060E0F0E0E0E010E01C
:1056800041E050E090E07901E81AF90A820F931F97
:105690002D9130E001110AC08217930764F41F5F57
:1056A000BA01309709F489C001E005C001E02E1568
:1056B0003F050CF400E04F5F5F4F411531E05307A9
:1056C00039F7123008F4D1C06E1B7F0B90E080E0F8
:1056D0000E9432366B017C01412F4150550BBA01BB
:1056E000072E000C880B990B0E9434369B01AC01ED
:1056F000C701B6010E9491359B01AC016091630323
:105700007091640380916503909166030E949135C6
:105710006B017C0120E030E040E751E40E94E43678
:1057200018160CF0A2C020E030E44CE955E4C701A3
:10573000B6010E948C3587FF98C080905A039090E4
:105740005B03A0905C03B0905D03C0926703D092AE
:105750006803E0926903F0926A0320E030E040E2DF
:1057600051E4C501B4010E948C3587FF28C0C09266
:105770005A03D0925B03E0925C03F0925D03C09009
:105780005A03D0905B03E0905C03F0905D0320E04F
:1057900030E040E752E4C701B6010E948C3587FD36
:1057A0005EC020E030E046E153E4C701B6010E944C
:1057B0008C3587FF58C082E053C0FA0175CFA50130
:1057C0009401C701B6010E941F352B013C0120E066
:1057D00030E0A9010E94E436181624F077FA70949C
:1057E00077F87094A5019401C301B2010E9491352C
:1057F0002DEC3CEC4CEC5DE30E94E436412C512C4A
:10580000612C7FE3772E18163CF063E3462E542C70
:1058100063EB662E6EE3762EA301920160E070E0EA
:1058200080E89FE30E941F35A50194010E94E9369C
:105830004B015C01A7019601C301B2010E94E93648
:105840009B01AC01C501B4010E94203560935A034D
:1058500070935B0380935C0390935D0390CF81E032
:1058600080930F0122C083E0FBCF2AE939E949E5A3
:105870005FE360915A0370915B0380915C039091A8
:105880005D030E94E9366B017C0120E030E040E7D7
:1058900051E40E948C3587FD13C0C0925A03D09208
:1058A0005B03E0925C03F0925D030E94D208609378
:1058B0006B0370936C0380936D0390936E03B3CE70
:1058C00010925A0310925B0310925C0310925D03D6
:1058D00072CF88332AE0920730F4101624F4880F30
:1058E000991F0150F6CF29E6A22E2BE0B22E10E030
:1058F000AFEFBFE7712CF50125913491AC01421B4C
:10590000530B9A01BA0157FF04C066277727641B1F
:10591000750BAD01B7FF04C0442755274A1B5B0B2D
:105920006417750714F4D901172D739452E0A50E6E
:10593000B11C6CE07612DFCF1B30B1F4805794417C
:10594000AC0197FF04C044275527481B590B9D0104
:10595000B7FF04C0222733272A1B3B0B42175307EC
:105960001CF40F5FDC0110E0E12FF0E0EE0FFF1FF1
:10597000E759F44F4591549123EC36E00E94A0374B
:105980009A0150E040E00E94BC34CA01B9012AE00B
:1059900030E040E050E00E94BC34B22EA22E72E310
:1059A00072170CF03AC1E2E3AE2E110F812F90E096
:1059B000FC01E05BF44FE491ED87FC01EF5AF44FFA
:1059C000E491EE871F86E03209F41E8682E0D4015E
:1059D00054968C93549755968C93E989FA89019043
:1059E0000020E9F7CF0169887A88861997094CE089
:1059F000489F9001499F300D112480E890E0821B60
:105A0000930B97FD019695958795D4011D969C93D0
:105A10008E931C97C10104961F969C938E931E979C
:105A2000BE01635F7F4FC4010E946718602F000FA3
:105A3000770B80918203909183030E94C218E091BA
:105A40008203F091830381E0848B858B8A2CAA0CDE
:105A50009908B7FEE9C084E090E09587848757866F
:105A60004686B401CF010E94C21863E6809182038A
:105A7000909183030E94E108B601CE0101960E9435
:105A80000C198091820390918303EB89FC8901902A
:105A90000020E9F731974B885C88E419F50946E066
:105AA0004E9F90014F9F300D112440E8642E712CC1
:105AB000621A730A930136952795DC011D963C9373
:105AC0002E931C97B8E12B0E311CFC0137862686DD
:105AD000BE016F5F7F4F0E9467184D885E886F8898
