:100000000C9425060C94BD1C0C94961C0C944D0667
:100010000C944D060C944D060C944D060C944D0614
:100020000C944D060C944D060C944D060C944D0604
:100030000C944D060C944D060C944D060C944D06F4
:100040000C94501C0C944D060C944D060C944D06CB
:100050000C944D060C94031E0C944D060C944D0606
:100060000C94E41C0C944D060C9400000C940000BD
:100070000C9400000C940000808386898C8F9295EC
:10008000989B9EA2A5A7AAADB0B3B6B8BBBEC0C38D
:10009000C5C8CACCCFD1D3D5D7D9DBDDDFE0E2E408
:1000A000E5E7E8E9EAECEDEEEFF0F0F1F2F2F3F378
:1000B000F4F4F4F5F5F5F5F553455454494E47532A
:1000C00020534156454400523A004F3A005A4300EB
:1000D000543A0047454E0054554E45005741564549
:1000E000004C464F0000000000003E5B4F5B3E3E70
:1000F0006B4F6B3E1C3E7C3E1C183C7E3C181C57D4
:100100007D571C1C5E7F5E1C00183C1800FFE7C377
:10011000E7FF0018241800FFE7DBE7FF30483A0646
:100120000E2629792926407F050507407F05253FB2
:100130005A3CE73C5A7F3E1C1C08081C1C3E7F149E
:10014000227F22145F5F005F5F06097F017F0066E8
:1001500089956A606060606094A2FFA29408047E42
:10016000040810207E201008082A1C08081C2A08F1
:10017000081E101010100C1E0C1E0C30383E3830AB
:10018000060E3E0E06000000000000005F000000AA
:1001900007000700147F147F14242A7F2A122313D8
:1001A00008646236495620500008070300001C22EC
:1001B00041000041221C002A1C7F1C2A08083E081E
:1001C000080080703000080808080800006060001F
:1001D00020100804023E5149453E00427F40007213
:1001E000494949462141494D331814127F1027458A
:1001F0004545393C4A4949314121110907364949A8
:100200004936464949291E000014000000403400C8
:10021000000008142241141414141400412214087C
:1002200002015909063E415D594E7C1211127C7F34
:10023000494949363E414141227F4141413E7F4942
:100240004949417F090909013E414151737F08082D
:10025000087F00417F41002040413F017F08142278
:10026000417F404040407F021C027F7F0408107F96
:100270003E4141413E7F090909063E4151215E7FD1
:1002800009192946264949493203017F01033F40A4
:1002900040403F1F2040201F3F4038403F6314082C
:1002A000146303047804036159494D43007F4141BD
:1002B000410204081020004141417F040201020470
:1002C0004040404040000307080020545478407FDD
:1002D000284444383844444428384444287F385417
:1002E00054541800087E090218A4A49C787F0804BE
:1002F000047800447D40002040403D007F102844A9
:100300000000417F40007C047804787C0804047875
:100310003844444438FC1824241818242418FC7C3D
:1003200008040408485454542404043F44243C4022
:1003300040207C1C2040201C3C4030403C44281085
:1003400028444C9090907C4464544C4400083641BE
:10035000000000770000004136080002010204029C
:100360003C2623263C1EA1A161123A4040207A3847
:1003700054545559215555794122545478422155A8
:1003800054784020545579400C1E527212395555FC
:100390005559395454545939555454580000457CD2
:1003A000410002457D420001457C407D1211127DD5
:1003B000F0282528F07C545545002054547C547C6A
:1003C0000A097F4932494949323A4444443A324A57
:1003D0004848303A4141217A3A42402078009DA075
:1003E000A07D3D4242423D3D4040403D3C24FF24F3
:1003F00024487E4943662B2FFC2F2BFF0929F6202A
:10040000C0887E090320545479410000447D413066
:1004100048484A32384040227A007A0A0A727D0DF2
:1004200019317D2629292F28262929292630484DAA
:100430004020380808080808080808382F10C8ACF9
:10044000BA2F102834FA00007B000008142A142266
:1004500022142A14085500550055AA55AA55AAFF7A
:1004600055FF55FF000000FF00101010FF0014148E
:1004700014FF001010FF00FF1010F010F0141414FF
:10048000FC001414F700FF0000FF00FF1414F40434
:10049000FC141417101F10101F101F1414141F0029
:1004A000101010F0000000001F101010101F10108E
:1004B0001010F010000000FF10101010101010109D
:1004C00010FF10000000FF140000FF00FF00001FDD
:1004D00010170000FC04F414141710171414F4047B
:1004E000F40000FF00F714141414141414F700F7A8
:1004F000141414171410101F101F141414F41410D3
:1005000010F010F000001F101F0000001F1400006A
:1005100000FC140000F010F01010FF10FF14141471
:10052000FF141010101F00000000F010FFFFFFFF6D
:10053000FFF0F0F0F0F0FFFFFF0000000000FFFF11
:100540000F0F0F0F0F3844443844FC4A4A4A347E98
:1005500002020606027E027E026355494163384468
:10056000443C04407E201E2006027E020299A5E73C
:10057000A5991C2A492A1C4C7201724C304A4D4DD7
:10058000303048784830BC625A463D3E49494900BF
:100590007E0101017E2A2A2A2A2A44445F444440DB
:1005A000514A444040444A51400000FF0103E0806A
:1005B000FF000008086B6B083612362436060F0958
:1005C0000F06000018180000001010003040FF0156
:1005D00001001F01011E00191D1712003C3C3C3C8C
:1005E00000000000002200FF21000103070F1F3F51
:1005F0007F0080C0E0F0F8FCFEDB40A4A62EAF2018
:1006000000A1C8D300408DAED580A80000600000D6
:10061000000000000000000000000000E0000000FA
:100620000000000000000000000001E000000000E9
:1006300000000000000000000001F00000000000C9
:10064000000000000000000003F0000000000000B7
:100650000000000000000007F000000000000000A3
:1006600000000000000007F800000000000000008B
:1006700000000000000FF800000003C0007E000032
:1006800001E0007F0FF800000003C000FE00000141
:10069000E000FFEFF800000003C000FE000001E0F2
:1006A00000FFFFF800000003C000F00000000F0092
:1006B0007FFE7FC0000003C000F00000000F003F7D
:1006C000FE7FF83FF1FBCFFCFEF3BC3DEFE01FFEE9
:1006D0007FFF7FFBFFDFFEFEFFBC3DEFE01FC6FF9D
:1006E000FF7FFBFFDFFEFEFFBC3DEFE00FE3C7FE39
:1006F000787BC3DE1EF0FFBC3DEF0007FF87FC7870
:100700007BC3DE1EF0F83C3DEF0001FFFFF0007BF5
:10071000C3C01EF0F03C3DEF0001F37FE03FFBC3A0
:10072000CFFEF0F03C3DEF0003E33F807FFBC3DFF3
:10073000FEF0F03C3DEF0007E73C00787BC3DE1E97
:10074000F0F03C3DEF0007FFBE00787BC3DE1EF0FB
:10075000F03C3DEF0007FFFE00787BC3DE1EF0F0AB
:100760003C3DEF000FFFFE007FFBFFDFFEF0F03FA0
:10077000FDEFE00FFFFF007FFBFFDFFEF0F03FFD2E
:10078000EFE00FF9FF003E79F9CF9EF0F01F3DE753
:10079000E01FF1FF0000000000000000000000006A
:1007A0001F80FF007FFFFFFFFFFFFFFFFFFFE01C39
:1007B000007F007FFFFFFFFEB46D888D18E0000012
:1007C0001F007FFFFFFFFE95AD7DB577E000000FB6
:1007D000007FFFFFFFFEA5AD9D8D19E00000060024
:1007E0007FFFFFFFFEB5ADEDB57EE000000000002D
:1007F00001800000000000000000000380000000F5
:1008000000000000000007C0000000000000000021
:100810000007C00000000000000000000FC0000042
:10082000000000000000001FE000000000000000C9
:1008300000001FE00000000000000000003FE0009A
:1008400000000000000000003FF000000000000079
:100850000000007FF0000000000000001FF87FF0A3
:10086000000000000000003FFE7FF00000000000DC
:1008700000003FFF7FF0000000000000001FFFFBB2
:10088000E0000000000000000FFFF9FFC0000000C2
:100890000000000FFFF9FFF800000000000007FF54
:1008A000F1FFFF00000000000003FC73FFFF800069
:1008B0000000000001FE3FFFFF800000000000007C
:1008C000FF1E0FFF000000000000007FFE1FFC0065
:1008D0000000000000003FFFFFF8000000000000E3
:1008E000000FDFFFE0000000000000001F19FFC044
:1008F000000000000000003F3CFF0000000000007E
:1009000000007E7CF800000000000000007FFE7CFC
:100910000000000000000000FFFFFC0000000000DD
:10092000000000FFFFFE0000000000000000FFFFCD
:10093000FE0000000000000001FFEFFE00000000CC
:1009400000000001FFCFFE0000000000000003FFD8
:1009500007FE0000000000000003FC07FE0000008E
:100960000000000003F003FE000000000000000192
:100970008000FE000000000000000000007E00007B
:1009800000000000000000003E0000000000000029
:100990000000000C000000000000078000FC0000C8
:1009A00003C0000000078001FC000003C00000003D
:1009B000078001FC000003C0000000078001E00088
:1009C00000001E000000078001E00000001E007F04
:1009D000E3F79FF9FDE7787BDFC0FFF7FFBFFDFD81
:1009E000FF787BDFC0FFF7FFBFFDFDFF787BDFC037
:1009F000F0F787BC3DE1FF787BDE00F0F787BC3D78
:100A0000E1F0787BDE0000F787803DE1E0787BDE77
:100A1000007FF7879FFDE1E0787BDE00FFF787BF6F
:100A2000FDE1E0787BDE00F0F787BC3DE1E0787B1C
:100A3000DE00F0F787BC3DE1E0787BDE00F0F78771
:100A4000BC3DE1E0787BDE00FFF7FFBFFDE1E07F2A
:100A5000FBDFC0FFF7FFBFFDE1E07FFBDFC07CF302
:100A6000F39F3DE1E03E7BCFC000000000000000AE
:100A700000000000FFFFFFFFFFFFFFFFFFFFC0FFC1
:100A8000FFFFFFFD68DB111A31C0FFFFFFFFFD2BE9
:100A90005AFB6AEFC0FFFFFFFFFD4B5B3B1A33C001
:100AA000FFFFFFFFFD6B5BDB6AFDC020444143009D
:100AB0002033323800204C47540076320076322EF4
:100AC00035004D6F64756C6F76652076332E34007B
:100AD00053434F5045002033323800204C475400D8
:100AE00076320076322E3500486F6C6420327320E7
:100AF0000044414320476E3A2000444143204F6662
:100B0000733A20003138300030004F4C45443A20D1
:100B10000054696D65723A2000526576004E6F721E
:100B20006D00456E633A200053455454494E475377
:100B30000053455454494E475320534156454400B1
:100B40005452494700432043234420442345204630
:100B50002046234720472341204123422000380AD2
:100B6000D40A790B270CE00CA40D740E500F391029
:100B7000301136124B134E6F207369676E616C0033
:100B80002D2D2D004F4B0043414C3A0053494E0050
:100B900054524900534157005351520044432000DE
:100BA0000100020005000A00140032006400C800C1
:100BB000F401E803D00788131027204E43414C3A34
:100BC000004441433A0047454E206E6565647320FA
:100BD00076322E350000000000240027002A002D68
:100BE0000000000000250028002B002E000000005F
:100BF000002300260029002C00040404040404043B
:100C000004020202020202030303030303050505B3
:100C100005050505030102040810204080010204B7
:100C200008102001020408102002080104104020CE
:100C3000400000000850020100000304070000000B
:100C400000000000000000005C1E11241FBECFEF5A
:100C5000D8E0DEBFCDBF11E0A0E0B1E0E4EDFFE6FB
:100C600002C005900D92A235B107D9F723E0A2E5A5
:100C7000B1E001C01D92AB38B207E1F716E0C5E262
:100C8000D6E004C02197FE010E94D835C432D107B6
:100C9000C9F70E94631E0C94E8370C9400003F9241
:100CA0004F925F926F927F928F929F92AF92BF927C
:100CB000CF92DF92EF92FF920F931F93CF93DF9328
:100CC00000D000D0CDB7DEB79C838B833B016A0197
:100CD0005901DC01ED91FC910284F385E02D099529
:100CE0002801B7E04B0E511C93E0559447949A9518
:100CF000E1F7C6018E0D9F1D9A838983912C812C6B
:100D0000312CF12CE12CC70187709927330C892BEA
:100D100059F4F70183E0F595E7958A95E1F7E80D39
:100D2000F91DEA0DFB1D349037FE10C0AB81BC816C
:100D3000ED91FC9111970484F585E02D21E030E0E0
:100D4000A601B701660D771DCD010995BFEFEB1A1E
:100D5000FB0A0E151F05B9F68FEFC81AD80A840CC6
:100D6000951CA981BA81CA16DB0659F6AB81BC81F4
:100D7000ED91FC9111970688F789E02DCD010F9038
:100D80000F900F900F90DF91CF911F910F91FF90D7
:100D9000EF90DF90CF90BF90AF909F908F907F901B
:100DA0006F905F904F903F90099481508B3088F501
:100DB000E82FF0E0E252F94F0C94D835F306F7062D
:100DC000E906EF0609070907FA06000704070A07FC
:100DD0000E07809180008F77809380000895809126
:100DE00080008F7DF9CF84B58F7784BD089584B559
:100DF0008F7DFBCF8091B0008F778093B0000895F6
:100E00008091B0008F7DF9CF809190008F77809393
:100E100090000895809190008F7DF9CF809190008F
:100E2000877FF5CFCF93DF93282F30E0F901EF5C78
:100E3000F34F8491F901EB5EF34FD491F901E75040
:100E4000F44FC491CC23A1F081110E94D506EC2F60
:100E5000F0E0EE0FFF1FE351F44FA591B491EC9138
:100E6000ED2381E090E009F480E0DF91CF910895D7
:100E700080E090E0FACF1F93CF93DF93282F30E0EC
:100E8000F901EF5CF34F8491F901EB5EF34FD491DC
:100E9000F901E750F44FC491CC23A9F0162F81112A
:100EA0000E94D506EC2FF0E0EE0FFF1FEF51F44F3C
:100EB000A591B4918FB7F894EC91111108C0D09519
:100EC000DE23DC938FBFDF91CF911F910895DE2B3E
:100ED000F8CFCF93DF93282F30E0F901EB5EF34F8B
:100EE00094912750344FF9012491633029F58430CF
:100EF00039F53091A0003C603093A0002223C9F066
:100F000030E0220F331FF901EB52F44FA591B49159
:100F1000F901EF51F44FC591D491611126C02FB75B
:100F2000F8948C91909589238C9388819823988349
:100F30002FBFDF91CF910895843011F433E0DCCFDF
:100F40003AEE380F323020F43FEF34BF34BFD6CF03
:100F50008931A1F63091F00032603EBB30E8309329
:100F6000F0003EB33093F000C9CF623051F42FB798
:100F7000F8943C91892F809583238C93E8819E2B54
:100F8000D6CF843011F46130A1F68FB7F894EC918C
:100F90009E2B9C938FBFCDCFE82FF0E0EF5CF34FFB
:100FA000E491E73009F447C0D0F4E230A9F148F405
:100FB000E13069F1603871050CF061C060E00C94BB
:100FC0003B07E33071F1E430A9F780918000806243
:100FD0008093800070938B0060938A000895EA30BC
:100FE000D1F170F4E83079F1E93021F78091900087
:100FF00080688093900070939900609398000895A2
:10100000EB3099F1E035B1F66093A100089584B515
:10101000806884BD67BD089584B5806284BD68BD65
:10102000089580918000806880938000709389008B
:101030006093880008958091B00080688093B0002C
:101040006093B30008958091B00080628093B000F7
:101050006093B40008958091900080628093900026
:1010600070939B0060939A0008958091900088602F
:101070008093900070939F0060939E00089561E0BC
:101080009ECF80917A00806480937A0080917A006C
:1010900086FDFCCF809178009091790008950F93A0
:1010A0001F93CF93DF93EDEAF0E08081807F808310
:1010B00080911C0120E4829FC001112487608093ED
:1010C0007C000DE710E0F8018081806280830E943F
:1010D0004108EC01F80180818F7D80830E944108E6
:1010E0008C0F9D1F9C0136952795892F9927A90163
:1010F000481B590BCA01DF91CF911F910F910895A1
:101100003FB7F8948091830390918403A091850365
:10111000B091860326B5A89B05C02F3F19F0019614
:10112000A11DB11D3FBFBA2FA92F982F8827BC0141
:10113000CD01620F711D811D911D660F771F881FE4
:10114000991F08958F929F92AF92BF92CF92DF9294
:10115000EF92FF924B015C010E9480086B017C01C1
:101160000E9480086C197D098E099F09683E7340B2
:1011700081059105A8F321E0821A9108A108B10820
:1011800088EEC80E83E0D81EE11CF11C8114910486
:10119000A104B10429F7FF90EF90DF90CF90BF90AA
:1011A000AF909F908F9008952FB7F89460917F0330
:1011B0007091800380918103909182032FBF0895E5
:1011C000089508950895DC01ED91FC910190F0815E
:1011D000E02D0994EF92FF920F931F93CF93DF932B
:1011E0008C017B01D0E0C0E0F701EC0FFD1F6491A2
:1011F000662361F0D801ED91FC910190F081E02D22
:10120000C8010995892B11F02196EECFCE01DF910F
:10121000CF911F910F91FF90EF900895AF92BF92E1
:10122000CF92DF92EF92FF920F931F93CF93DF93B2
:101230006C017B018B01040F151FEB015E01AE18E1
:10124000BF08C017D10759F06991D601ED91FC9103
:101250000190F081E02DC6010995892B79F7C50130
:10126000DF91CF911F910F91FF90EF90DF90CF9082
:10127000BF90AF900895EF92FF920F931F93CF937B
:10128000DF93EC01EC80FD806E157F050CF070C0E3
:1012900057FF04C0240F351F50E040E08E819F812E
:1012A000FA01E20FF31F8E179F071CF49C01241B09
:1012B000350B121613060CF05BC0922F842F869507
:1012C000869586958E9DD0018F9DB00D11246A0F55
:1012D0007B1FAF8DB8A1A60FB71F477049F188E0FB
:1012E000841B482F682F70E0FB01EF50FA4FE49108
:1012F000281708F063C0621B71092FEF30E002C0AD
:10130000359527956A95E2F7E2230130110539F00A
:10131000B0F10230110561F58C91E82702C08C9183
:10132000E82BEC93941720F12C813D81A20FB31F81
:10133000E92FE41BE83078F00230110521F58E2FFB
:101340009C9190959C932C813D81A20FB31F885056
:101350008830B0F7E770EE2359F0F0E0E751FA4F2C
:10136000E49101301105F9F010F10230110519F185
:10137000DF91CF911F910F91FF90EF900895E0952D
:101380008C91E823CECF81E00115110509F480E0AE
:1013900081959E2F8C932C813D81A20FB31F985075
:1013A0009830C0F7D7CF8C91E82BEC93E1CFE09544
:1013B0008C91E823FACF8C91E827F7CF0130110503
:1013C00009F4ADCFE0F20230110509F4A5CFAE0D5E
:1013D000BF1DAECF0F931F93CF93DF9377FF04C052
:1013E000260F371F70E060E0DC011496CD91DC9190
:1013F000FB01E20FF31FCE17DF071CF49E01261B33
:10140000370B121613064CF5FA0157FD3796A3E079
:10141000F595E795AA95E1F7EC9FD001ED9FB00D0A
:10142000FC9FB00D11246A0F7B1FDC015F96ED91CC
:10143000FC91E60FF71F4770552781E090E001C04F
:10144000880F4A95EAF7482F0130110559F0A8F0A6
:101450002E0F3F1F02301105E1F0DF91CF911F9158
:101460000F9108952E0F3F1FE217F307B1F38191FB
:10147000DF011197842B8C93F7CF80952E0F3F1FA0
:10148000E217F30751F39191DF01119798239C9391
:10149000F7CFE217F30709F38191DF011197842752
:1014A0008C93F7CF0F931F93FA01DC0156964C9162
:1014B00056974230E9F04330A1F1413061F514967E
:1014C0004D915C91DA01AE1BBF0BFD01E21BF30BEA
:1014D00077FD0BC0DC0116964D915C916417750782
:1014E00024F4AB01BF010E94EA091F910F910895F6
:1014F00014964D915C91DA01A61BB70BBD016150AA
:101500007109DC0116964D915C91DA01AE1BBF0B9F
:10151000FD01E21BF30B77FDE8CFAF010E943B0911
:10152000E4CF16964D915C91DA01A61BB70BBD0175
:1015300061507109CDCF0F931F93FA01DC015696CC
:101540004C9156974230A9F0433091F1413019F552
:1015500014964D915C91DA01AE1BBF0BFD013197E2
:10156000F7FD04C0AB01BF010E943B091F910F9121
:10157000089514964D915C91DA01A61BB70BBD013D
:10158000DC0116964D915C91DA01AE1BBF0BFD019B
:101590003197621B730BF7FDE9CFDC0116964D9175
:1015A0005C91E417F50714F7AF010E94EA09DECF5A
:1015B00016964D915C91DA01A61BB70BBD01621B1B
:1015C000730BCECFFC0177FD64C0808591856817D1
:1015D00079070CF05EC057FD5CC082859385481783
:1015E00059070CF056C086898230B1F0833029F15A
:1015F000813041F484819581841B950BAB01BC0142
:10160000615071092130310509F108F443C02230DD
:10161000310509F463C0089584819581DC01A61B1E
:10162000B70BBD016150710986819781DC01A41B54
:10163000B50BAD0141505109E5CF86819781861BDD
:10164000970BBA01AC0141505109DCCFCA0157FDDB
:101650000796A3E095958795AA95E1F7A481B581B2
:101660008A9F90018B9F300D9A9F300D1124620F3D
:10167000731F078CF0A1E02DE60FF71F4770552769
:1016800021E030E001C0220F4A95EAF78081822BE9
:1016900080830895CA0157FD079633E09595879595
:1016A0003A95E1F7A481B5818A9F90018B9F300D17
:1016B0009A9F300D1124620F731F078CF0A1E02D4B
:1016C000E60FF71F4770552781E090E001C0880FB3
:1016D0004A95EAF7809590818923DACFCA0157FDB0
:1016E000079623E0959587952A95E1F7A481B58122
:1016F0008A9F90018B9F300D9A9F300D1124620FAD
:10170000731F078CF0A1E02DE60FF71F47705527D8
:1017100021E030E001C0220F4A95EAF7808182275C
:10172000B7CF08958EBD0000CE99FECF8EB594E45C
:1017300099BB08958CBD9DBD08950895FC0163700B
:10174000668B8481958126813781613039F06330E1
:1017500029F09187808733872287089531872087F2
:101760009387828708952F923F924F925F926F9254
:101770007F928F929F92AF92BF92CF92DF92EF9221
:10178000FF920F931F93CF93DF93CDB7DEB76A9786
:101790000FB6F894DEBF0FBECDBF9A8F898F7A83C4
:1017A00069834A01D22E18870F833701BC2CDC01D4
:1017B00059962D913C915A972115310509F015C183
:1017C00018968D919C911997681779070CF0D7C1DD
:1017D0001A968D919C91481759070CF0D0C14C2C4A
:1017E000512CB6E0CB9E600D711D11247C876B8758
:1017F000161617060CF0C3C1EA2DF0E0FA87E98748
:1018000093E0EE0FFF1F9A95E1F7F88BEF87CF017A
:10181000840F951F181619060CF0B1C1A98DBA8D49
:1018200058968C91811104C0BFEABD1508F4D39479
:10183000A98DBA8DED91FC9111970284F385E02D6D
:10184000CD010995B5E0DB9EC0011124E981FA8143
:10185000FC83EB83312C212C9C012B513F4F388F83
:101860002F8B4A2D50E05E8B4D8BEF89F88DE20D6A
:10187000F31D44919E828D82D12CC12C69817A8185
:10188000620D731D7A8B698B842F90E09C8B8B8B00
:10189000E98DFA8DA081B18140FF82C0F1E0BF12D5
:1018A0006FC0AF126DC01C96ED91FC912F813885F1
:1018B000A4014C0D5D1D69897A89898D9A8D0995E0
:1018C000EB89FC89F595E7954E2F5FEFC51AD50A90
:1018D0006D817E818D899E89680F791F7E836D83DE
:1018E00098E0C916D10481F6AFEF2A1A3A0AEB81C3
:1018F000FC81E40DF51DFC83EB83F5E02F1631042C
:1019000009F0B3CF2F81388526153705B9F0A98D99
:10191000BA8DED91FC91B1E0BB1257C0AB1255C02E
:1019200069817A816B5F7F4F0088F189E02D8301A7
:1019300028E030E0A401898D9A8D0995A98DBA8D92
:10194000ED91FC9111970688F789E02DCD016A96FB
:101950000FB6F894DEBF0FBECDBFDF91CF911F91C0
:101960000F91FF90EF90DF90CF90BF90AF909F903E
:101970008F907F906F905F904F903F902F90099441
:101980001E96ED91FC91EF80F88409851A859201ED
:101990004D815E816B817C81898D9A8D099590CF77
:1019A0002F8138852615370509F48ACF31E0B31227
:1019B00007C0A31205C01C96ED91FC91930178CF4E
:1019C0001E96ED91FC917301E0CF6B857C856419C7
:1019D00075090684F785E02D73010F85188992013A
:1019E000A401898D9A8D0995A9CFF9013496949116
:1019F000329745915491D91AB7E0DB9E400D511DA5
:101A00001124F901259134913C8B2B8BFA012590FF
:101A10003490FA013296749031963491398B329623
:101A200064903196449041E04C1518F04A1508F046
:101A30007FC0662D062C000C770B7C836B83842D76
:101A4000042C000C990B9E838D83A98DBA8DED918A
:101A5000FC9111970284F385E02DCD010995512C5D
:101A6000D12CC12CEA2DF0E0FA87E9872B2D30E04C
:101A70003C872B87A401440D511D47FC5A95588F74
:101A80004F8B69817A81660D711D67FC7A957E871F
:101A90006D877989C71608F051CF2C2D30E04D8124
:101AA0005E81420F531FA985BA854A9FC0014B9F93
:101AB000900D5A9F900D1124FC01E80DF91DF88B33
:101AC000EF87852D612C4F89588D420F531F5E8BF8
:101AD0004D8B671408F050C044244394480E87701F
:101AE00041F4C1010196EB89FC89E20DF31DD4900C
:101AF0001C01D7FE19C0A98DBA8DED91FC91662D00
:101B000070E0B1E0BB1219C0AB1217C02D853E8545
:101B1000620F731F0484F585E02D2F8138854D8970
:101B20005E89898D9A8D0995DD0C6394842DD1CFC2
:101B30001E821D821C821B8288CF4B815C81640FB8
:101B4000751FAB85BC856A9FC0016B9F900D7A9F06
:101B5000900D112469817A81680F791F0684F785B9
:101B6000E02DEF80F88409851A859D014F855889FD
:101B7000898D9A8D0995D8CF570CC3948ACF6A96D0
:101B80000FB6F894DEBF0FBECDBFDF91CF911F918E
:101B90000F91FF90EF90DF90CF90BF90AF909F900C
:101BA0008F907F906F905F904F903F902F9008950F
:101BB0008F929F92AF92CF92EF92FF920F931F93CB
:101BC000CF93DF93EC01262F898D9A8D009709F032
:101BD00051C06A30D1F41D861C868D8948E0849FEF
:101BE000900111248E859F85820F931F9F878E877A
:101BF00081E090E0DF91CF911F910F91FF90EF90E6
:101C0000CF90AF909F908F9008956D3089F3CC88DE
:101C1000AD888F898823C1F08C859D8536E0C39E71
:101C2000800D911D1124488559854817590764F482
:101C30004E855F851D861C8638E0A39EC001112459
:101C4000840F951F9F878E87EA88FB8808891989EA
:101C50004E855F856C857D85CE010E94B30B2C89F6
:101C60008C859D8546E0249F800D911D11249D87C4
:101C70008C87BECF6A3069F41D861C86FC013896BD
:101C8000E4912D898E859F85E29F800D911D112401
:101C9000ADCF6D3009F4ACCFFC01349634916317AD
:101CA00008F4A6CF3296E491E61708F4A1CFFC0120
:101CB000329685909490462F431B342F47E0349FF3
:101CC000800C911C1124F401329634913196E491E8
:101CD0003323A9F1EE2399F1CC88F4013596E491F0
:101CE000AD884F89442301F10E2E000CFF0BE30F4A
:101CF000F11DCE9EA001CF9E500D11246C857D85D7
:101D0000460F571F68857985641775076CF44E85F3
:101D10005F851D861C86FC013896E491AE9E400DC1
:101D2000511D11245F874E87EA88FB88088919892D
:101D30004E855F856C857D85CE010E94B30BF401D5
:101D40003496E4912C898C859D85E29F800D911DB0
:101D500011248DCF6F927F928F929F92AF92BF92FC
:101D6000CF92DF92EF92FF920F931F93CF93DF9367
:101D7000EC016B015A0139014801E881F9810284C3
:101D8000F385E02D0995E881F9810288F389E02D3A
:101D900087019301A501B601CE010995A501480D62
:101DA000591D41505109E881F9810288F389E02DDC
:101DB0009301B601CE010995E881F9810088F18986
:101DC000E02D9401A501B601CE010995C60CD71CE2
:101DD000B60161507109E881F9810088F189E02D2F
:101DE0009401A501CE010995E881F9810688F7895A
:101DF000E02DCE01DF91CF911F910F91FF90EF90D9
:101E0000DF90CF90BF90AF909F908F907F906F901A
:101E100009946F927F928F929F92AF92BF92CF92CE
:101E2000DF92EF92FF920F931F93CF93DF935C01AA
:101E3000EB016A01490138018701DC01ED91FC9158
:101E40006217730719F5641675062CF0962D872D09
:101E50003A01C92ED82E9601261937092F5F3F4F18
:101E6000048CF58DE02DA301BE01C5010995DF911C
:101E7000CF911F910F91FF90EF90DF90CF90BF9087
:101E8000AF909F908F907F906F9008954615570563
:101E900091F42617370724F0892D4B01C22FD82F34
:101EA0009E01281939092F5F3F4F068CF78DE02DD1
:101EB000A601B401DACF0284F385E02D0995D5019E
:101EC000ED91FC910488F589E02D83019401A60130
:101ED000BE01C5010995D501ED91FC910688F789F0
:101EE000E02DC501DF91CF911F910F91FF90EF90F1
:101EF000DF90CF90BF90AF909F908F907F906F902A
:101F00000994EF92FF920F931F93DC011A960D91A3
:101F10001C911B9718962D913C911997ED91FC916E
:101F200000A0F1A1E02D7B0150E040E070E060E016
:101F300009951F910F91FF90EF9008954F925F9236
:101F40006F927F928F929F92AF92BF92CF92DF92C9
:101F5000EF92FF920F931F93CF93DF936C012B01AE
:101F60005A0139014801DC01ED91FC910284F385AD
:101F7000E02D0995E201640C751CD601ED91FC91F0
:101F8000C615D7055CF40088F189E02D870194011E
:101F9000A501BE01C60109952196EFCF0688F789F4
:101FA000E02DC601DF91CF911F910F91FF90EF902F
:101FB000DF90CF90BF90AF909F908F907F906F9069
:101FC0005F904F9009948F929F92AF92BF92CF9261
:101FD000DF92EF92FF920F931F93CF93DF93EC0169
:101FE0005B014A016901E881F9810284F385E02DF2
:101FF000099595012C0D3D1D21503109E881F9818C
:102000000488F589E02D78018401A401B501CE0191
:102010000995E881F9810688F789E02DCE01DF91E5
:10202000CF911F910F91FF90EF90DF90CF90BF90D5
:10203000AF909F908F9009948F929F92AF92BF9292
:10204000CF92DF92EF92FF920F931F93CF93DF9384
:10205000EC015B014A0169017801E881F9810284A0
:10206000F385E02D0995C80CD91C86010150110992
:10207000E881F9810488F589E02D9501A401B50175
:10208000CE010995E881F9810688F789E02DCE0116
:10209000DF91CF911F910F91FF90EF90DF90CF9044
:1020A000BF90AF909F908F9009940895EF92FF9208
:1020B0000F931F93DC01ED91FC9100A0F1A1E02DA5
:1020C00009951F910F91FF90EF9008950F931F9323
:1020D000DC01ED91FC91068CF78DE02D09951F91A7
:1020E0000F9108950F931F93DC01ED91FC91048CE7
:1020F000F58DE02D09951F910F910895DC01ED916B
:10210000FC910084F185E02D09942F923F924F922B
:102110005F926F927F928F929F92AF92BF92CF9277
:10212000DF92EF92FF920F931F93CF93DF9300D034
:1021300000D000D0CDB7DEB73C016A013E832D83CD
:10214000FC82EB825801A41AB50AB7FE03C0B19411
:10215000A194B1088D809E80861A970A97FE03C0CD
:102160009194819491088A149B045CF0902F812FA4
:102170000D811E819D838E839C2D8D2D6B01692F7A
:10218000782F0C151D055CF09D818E817E836D83FB
:10219000692F782F902F812F8601C92ED82E1601F6
:1021A000201A310A2B012D813E81421A530A57FE13
:1021B00003C0519441945108710137FE03C03FEFB1
:1021C000E31AF30AF594E7948D819E8186179707A9
:1021D0005CF5A1E0B0E0BA83A983C016D1064CF14A
:1021E000D301ED91FC910484F585E02D2B813C8198
:1021F000A8016D817E818A149B041CF04D815E8153
:10220000B801C3010995E418F508F7FE0AC02D814D
:102210003E8189819A81280F391F3E832D83E20CEC
:10222000F31C0F5F1F4FD9CF2FEF3FEF3A83298366
:10223000D4CF26960FB6F894DEBF0FBECDBFDF9188
:10224000CF911F910F91FF90EF90DF90CF90BF90B3
:10225000AF909F908F907F906F905F904F903F9046
:102260002F9008950895CF93CFB7F89480910B02E3
:10227000811127C0E3E0FCE08491EFE1FCE0949160
:10228000E82FF0E0EE0FFF1FEB52F44FA591B49151
:10229000EC91E92321F461E08AE00E943B0761E0D0
:1022A0008AE00E9469078CB580618CBD8CB5806422
:1022B0008CBD61E08DE00E94690761E08BE00E94C7
:1022C000690780910B028F5F80930B02CFBFCF9184
:1022D00008952091C101260F3327331F2132310584
:1022E000ECF42091E501FC0190E080E0243069F0FD
:1022F00082E00895A091C1012191AC014F555E4F3C
:10230000A40FB52FB11D2C930196861798F38091D9
:10231000C101680F6093C10180E0089581E00895D4
:102320001092E50181E08093E7011092E60161E0FF
:1023300082E10E943B0761E083E10E943B07E9EBF9
:10234000F0E080818E7F808380818D7F808388E92B
:102350008093B80085E48093BC000895CF93DF9309
:1023600091E09093A0018823B9F0C091B800D0917A
:10237000BA008091BC008A7B8093BC0060E082E15F
:102380000E943B0760E083E10E943B070E9490119E
:10239000D093BA00C093B800DF91CF910895E09137
:1023A000150280911402E81730F4F0E0E558FE4F72
:1023B000808190E008958FEF9FEF0895909115022E
:1023C000809114022FEF3FEF981748F4E92FF0E0C7
:1023D000E558FE4F208130E09F5F90931502C901C0
:1023E00008958091140290911502891B990B08950C
:1023F000CF92DF92EF92FF920F931F93CF93DF93D1
:102400007C01CB018A0120910D02222389F0EB018E
:102410006B01C40ED51ECC15DD0569F06991D7019D
:10242000ED91FC910190F081E02DC7010995F3CF6A
:10243000642F0E946911C801DF91CF911F910F9104
:10244000FF90EF90DF90CF900895CF93DF931F928E
:10245000CDB7DEB7698320910D022223F9F02091D8
:102460001202203258F021E030E0FC013383228355
:1024700090E080E00F90DF91CF910895809113025A
:10248000E82FF0E0E55AFE4F998190838F5F8093AB
:1024900013028093120281E090E0ECCF61E0CE0164
:1024A00001960E946911F7CFCF92DF92EF92FF92CF
:1024B0000F931F93CF93DF93D091120281E0D1321B
:1024C00008F09CC0C0910C020E9480086B017C0146
:1024D0008091E50181116CC082E08093E50181E08B
:1024E0008093E7018FEF8093E40110920902D0936B
:1024F0000802ABE5B1E0E8EEF1E080E0D8138DC072
:1025000010920A0280910A02CC0FC82BC0930A02D3
:102510008091E601813009F084C01092E6010E94AA
:1025200080086B017C0180910A028093BB0080913E
:102530009C0190919D01A0919E01B0919F01892BDA
:102540008A2B8B2BA1F00E94800800919C01109196
:102550009D0120919E0130919F016C197D098E098A
:102560009F09061717072807390708F442C080910A
:10257000BC0083FDD8CF85EC8093BC000E9480080E
:102580006B017C018091E501823009F44CC080919F
:10259000E4018F3F09F469C08091E401803209F4BD
:1025A00066C08091E401803309F463C084E026C0F2
:1025B00080919C0190919D01A0919E01B0919F01FD
:1025C000892B8A2B8B2B09F483CF0E9480080091E2
:1025D0009C0110919D0120919E0130919F016C19E9
:1025E0007D098E099F09061717072807390708F084
:1025F0006FCF80919B010E94AE1185E01092130273
:102600001092120210920D02DF91CF911F910F9143
:10261000FF90EF90DF90CF9008959D9191938F5F01
:102620006DCF85EEA9CF80919C0190919D01A091E5
:102630009E01B0919F01892B8A2B8B2B09F4A2CF8D
:102640000E94800800919C0110919D0120919E01A3
:1026500030919F016C197D098E099F090617170794
:102660002807390708F08ECFC4CF80E0C7CF82E0BB
:10267000C5CF83E0C3CFCF92DF92EF92FF920F934B
:102680001F93CF93DF93EC016B01142F8D8D9E8DE3
:10269000009709F454C029A131E030930D02209332
:1026A0000C021092130210921202DC01ED91FC91C7
:1026B0000190F081E02D60E009957601CC24C3946F
:1026C000D12C01E011508D8D9E8D1F3F71F1B0E234
:1026D000CB16D104C0F00E9454128D8D9E8D29A17D
:1026E00000930D0220930C0210921302109212021A
:1026F000DC01ED91FC910190F081E02D60E0099505
:10270000CC24C394D12C8D8D9E8DF7016491DC0176
:10271000ED91FC910190F081E02D0995BFEFCB1A6E
:10272000DB0AEFEFEE1AFE0ACDCFDF91CF911F91BA
:102730000F91FF90EF90DF90CF900C945412EDA585
:10274000FEA590818BA98095892380837B01115000
:1027500070F1F70184912B8D3C8D232B31F00E9479
:10276000920BFFEFEF1AFF0AF2CF28E030E040E8CB
:10277000E9A5FAA599A9582F5423A9F05081952BC2
:102780009083EBA5FCA590815AA9952B9083EBA58E
:10279000FCA550819AA99095952390834695215048
:1027A000310931F7DECF508190959523E9CFDF9144
:1027B000CF911F910F91FF90EF90DF90CF900895F0
:1027C0001F93CF93DF93EC018D8D9E8D009721F1A8
:1027D000162F29A131E030930D0220930C021092A4
:1027E000130210921202DC01ED91FC910190F08134
:1027F000E02D60E009958D8D9E8DDC01ED91FC91C1
:102800000190F081E02D612F09958D8D9E8DDF91D6
:10281000CF911F910C945412ADA5BEA59C918BA98C
:10282000809589238C938B8D9C8D892B31F0862FFD
:10283000DF91CF911F910C94920B28E030E080E85B
:10284000A9A5BAA599A9462F4823C1F04C91942B6C
:102850009C93ABA5BCA59C914AA9942B9C93ABA53A
:10286000BCA54C919AA9909594239C938695215050
:10287000310931F7DF91CF911F9108954C919095D7
:102880009423E6CF1F93CF93DF93EC01162F8D8D0A
:102890009E8D892BB1F12DA93EA94FA958AD60E0BD
:1028A00078E488EE91E00E942C33205131094109EF
:1028B000510956954795379527952093B80066EAB4
:1028C000111167EACE010E94E0138D8D9E8D892B38
:1028D00041F129AD3AAD4BAD5CAD60E078E488EEF6
:1028E00091E00E942C33205131094109510956953C
:1028F0004795379527952093B800DF91CF911F9189
:1029000008958B8D9C8D892B21F08EAD9FAD0E94FB
:102910009A0BEFA5F8A990818CA9809589238083D3
:10292000CECFEFA5F8A980819CA9892B8083E5CF24
:10293000BF92CF92DF92EF92FF920F931F93CF93AC
:10294000DF93EC018D8D9E8D892B09F48FC02DA90D
:102950003EA94FA958AD60E078E488EE91E00E946E
:102960002C33205131094109510956954795379526
:1029700027952093B80044E065EE75E0CE010E94F3
:102980003B138C819D818034910509F07FC060E20A
:10299000CE010E94E0136C81615ECE010E94E013C3
:1029A0002E813F81C901079697FD079633E09595E3
:1029B00087953A95E1F72C813D81829F7001839F35
:1029C000F00C929FF00C11240F8D18A18D8D9E8D0F
:1029D000E00EF11E009709F485C029A131E0309383
:1029E0000D0220930C021092130210921202DC01CD
:1029F000ED91FC910190F081E02D60E40995CC24EB
:102A0000C394D12CBB24B3948D8D9E8DE016F1061A
:102A100009F443C0B0E2CB16D104C0F00E945412B6
:102A20008D8D9E8D29A1B0920D0220930C021092E3
:102A3000130210921202DC01ED91FC910190F081E1
:102A4000E02D60E40995CC24C394D12C8D8D9E8D0E
:102A5000F80161918F01DC01ED91FC910190F08111
:102A6000E02D0995BFEFCB1ADB0ACECF8B8D9C8D65
:102A7000892B21F08EAD9FAD0E949A0BEFA5F8A98E
:102A800090818CA980958923808375CF60E0CE01E9
:102A90000E94E0136C81615080CF0E9454128D8D92
:102AA0009E8D892B09F453C029AD3AAD4BAD5CAD79
:102AB00060E078E488EE91E00E942C3320513109E7
:102AC0004109510956954795379527952093B800A8
:102AD000DF91CF911F910F91FF90EF90DF90CF90FA
:102AE000BF900895EDA5FEA580819BA9892B8083C9
:102AF000E016F106A1F2F80181918F012B8D3C8D3A
:102B0000232B19F00E94920BF3CF28E030E040E82D
:102B1000E9A5FAA599A9582F5423A9F05081952B1E
:102B20009083EBA5FCA590815AA9952B9083EBA5EA
:102B3000FCA550819AA990959523908346952150A4
:102B4000310931F7D5CF508190959523E9CFEFA585
:102B5000F8A980819CA9892B8083BACF90E080E07E
:102B60000895E0911B01E150E43090F48E2F90E045
:102B7000FC01EE0FFF1FE80FF91FE95EFD4F80918A
:102B80007103808380911101818380911001828380
:102B90000895823061F120F4813061F060E818C05E
:102BA0008330B1F08430D1F7E62FE0956E2F660FB9
:102BB000660B0EC0862F90E0FC01E858FF4F603492
:102BC00030F067FD07C0E7EFF0E0E81BF90B649118
:102BD000862F0895FC01E850F040603C20F0E7E7C4
:102BE000F1E0E81BF90BE4916E2F6095F1CF67FDE2
:102BF00002C0660FEDCFEFEFF0E0E61BF1096E2F9C
:102C0000F8CFEAE7F0E08081877D808310925A0157
:102C10000895F8941092590110925801909301016F
:102C2000809300011092460381E080935A01109234
:102C300057014093560180E680937C00686E609354
:102C40007A0010927B0078940895CF92DF92EF92F1
:102C5000FF920F931F93CF93DF9300D000D000D04B
:102C6000CDB7DEB7FC01CB018E010F5F1F4F77FFA1
:102C70001AC02DE220839195819591093196E12C1E
:102C80002AE0C22ED12C21E02E0DE00EF12EF11CF7
:102C9000B6010E94C435805DD7018C93CB01E22E32
:102CA000009789F705C0009751F780E3898321E0F9
:102CB000822F90E09801280F391FBF0102171307D8
:102CC00039F0D9014E919D01DB014D93BD01F6CF45
:102CD0008E0F9F1FFC01108226960FB6F894DEBF60
:102CE0000FBECDBFDF91CF911F910F91FF90EF905D
:102CF000DF90CF900895CF93FC01CB0177FF06C002
:102D00002DE2208391958195910931966AE070E0DA
:102D10000E94C435C82FCF010E942516FC018EE207
:102D20008083C05DC1831282CF010296CF91089546
:102D3000DC01ED91FD918081ED91FD919081ED910E
:102D4000FD916C9163708E2309F064609F2309F0FC
:102D50006860E5EBF6E1E60FF11D659565956D930D
:102D60006D917D918D919D91099423C01AC012C0DF
:102D700016C010C01EC009C014C013C006C019C0C0
:102D800009C00DC007C00DC014C062507040804023
:102D900090400BC0615070408040904006C06E5F14
:102DA00001C06F5F7F4F8F4F9F4F9E938E937E9397
:102DB0006E93089580915401909155010C9498164A
:102DC00080915201909153010C949816CF93DF9308
:102DD000EC018B85823060F4F894CE010E94981645
:102DE0006F81788589859A857894DF91CF91089550
:102DF000F894F6CF8C3F43E0940750F06CEF73E00B
:102E00000E94B035362F330F330F20E0820F931F0F
:102E100006B606FE13C046B743702CEF33E002C07F
:102E2000220F331F4A95E2F78217930750F481BDB2
:102E300092BDF89A0000000080B5089530E020E0CF
:102E4000F3CF80E008950F931F93CF93DF938C010E
:102E5000EB010E94FA168883C80101960E94FA16B7
:102E60008983CE01DF91CF911F910F9108950C942A
:102E7000FA16E62F8C3F43E0940750F06CEF73E0B6
:102E80000E94B035362F330F330F20E0820F931F8F
:102E900006B606FE17C046B743702CEF33E002C0FB
:102EA000220F331F4A95E2F78217930750F42FB78A
:102EB00081BD92BDE0BDF89484E08FBB82E08FBB02
:102EC0002FBF089530E020E0EFCF1F93CF93DF9323
:102ED000EC01162F888199810E94FA16181729F0A3
:102EE000612F888199810E943917CE01DF91CF919E
:102EF0001F910895CF93DF9300D0CDB7DEB79A83AB
:102F00008983CE0101960E9465170F900F90DF9183
:102F1000CF910895EF92FF920F931F93CF93DF937A
:102F200069EA90E080E00E947A1760911B0185E0D9
:102F300090E00E947A1707E112E0C6E0D0E0D801E5
:102F40006C91CE010E947A17F8016181CE01019641
:102F50000E947A17D80112966C91CE0102960E94B7
:102F60007A170D5F1F4F2396C231D10541F760914B
:102F7000580382E190E00E947A176091060183E194
:102F800090E00E947A1780916A0390916B03DC01B4
:102F9000ED91FC9100A0F1A1E02DEE24E394F12C41
:102FA0000AE010E020E830E046E350E070E060E046
:102FB0000995E0916A03F0916B03138A128A118AD2
:102FC000108A84E090E09587848787E390E0978774
:102FD000868768EB70E0CF010E94EA0880916A035F
:102FE00090916B030E94981464EF71E080E090E090
:102FF000DF91CF911F910F91FF90EF900C94A20859
:1030000060910601869FB0011124660F672F661F2D
:10301000770B80915803680F711D87FD7A956F3F7C
:10302000710519F014F06FEF70E077FF02C070E0E7
:1030300060E084E00C94CC07823021F08330A9F06A
:1030400080E00895709353016093520180EE96E101
:103050009093030180930201809169008C7F8160CD
:1030600080936900E89A81E0089570935501609318
:1030700054018AED96E190930501809304018091BB
:103080006900837F846080936900E99AECCFFB013B
:1030900001900020E9F73197AF01461B570BDC0187
:1030A000ED91FC910280F381E02D09948F929F9223
:1030B000AF92BF92EF92FF920F931F93CF93DF9344
:1030C000CDB7DEB7A1970FB6F894DEBF0FBECDBF68
:1030D0007C01FA01CB0119A2223008F42AE08E010A
:1030E0000F5D1F4F822E912CB12CA12CBF01A50189
:1030F00094010E942C33F901CA016A300CF5605D1D
:10310000D8016E938D01232B242B252B79F790E08A
:1031100080E0109721F0BD01C7010E944718A196D9
:103120000FB6F894DEBF0FBECDBFDF91CF911F91D8
:103130000F91FF90EF90BF90AF909F908F90089568
:10314000695CDECFCF92DF92EF92FF920F931F93D5
:10315000CF93DF936B01072E000CEE08FF0877FF7B
:103160001BC0EC016DE20E94E3088C014427552747
:10317000BA014C195D096E097F092AE0CE010E944F
:103180005618800F911FDF91CF911F910F91FF90E3
:10319000EF90DF90CF9008952AE0B701A601DF916C
:1031A000CF911F910F91FF90EF90DF90CF900C94F3
:1031B00056180F931F93CF93DF93EC010E94EA08F8
:1031C0008C016FE471E0CE010E944718800F911FBF
:1031D000DF91CF911F910F910895CF93DF93EC0171
:1031E000683E83E0780778F4CE010E947B16099050
:1031F0000020E9F7219788E488838AE789831A8287
:10320000DF91CF910895CB016AE070E00E94B03564
:10321000CE010E942516EBCF0F931F93CF93DF9320
:10322000CDB7DEB72A970FB6F894DEBF0FBECDBF7D
:1032300080916A0390916B0321E0FC01248B258B24
:103240004091710321E030E0413011F430E020E0A2
:10325000FC01318B208B21E030E0413011F030E077
:1032600020E0FC01338B228B158614861786168688
:1032700020911B01223009F481C008F075C061EE75
:1032800070E0213009F477C080916A0390916B035C
:103290004091710321E030E0423011F430E020E051
:1032A000FC01318B208B21E030E0423011F030E026
:1032B00020E0FC01338B228B24E230E03587248729
:1032C0001786168620911B01233009F490C008F060
:1032D0005BC0213008F07AC080911B01843009F076
:1032E000A9C000916A0310916B032091710381E0E2
:1032F00090E0233011F490E080E0F801918B808B16
:1033000081E090E0233011F090E080E0F801938BB1
:10331000828B82E490E09587848717861686E091F9
:10332000100180911101853009F069C06E2F70E0A5
:10333000CE0101960E947B16BE016F5F7F4FC801D0
:103340000E94471866E580916A0390916B030E9482
:10335000E3082A960FB6F894DEBF0FBECDBFDF910B
:10336000CF911F910F910895233059F063ED70E0D4
:10337000243009F089CF0E94EA0886CF6CED70E016
:10338000FACF67ED70E0F7CF243009F0A5CF609158
:103390001101662389F1663008F065E06150770B12
:1033A000660F771F660F771F6457744F44E050E035
:1033B000CE0101960E94F132BE016F5F7F4F809176
:1033C0006A0390916B030E94471886CF60ED70E00E
:1033D0000E94EA084091110150E070E060E02AE0AC
:1033E00080916A0390916B030E94561875CF6DEC23
:1033F00070E00E94EA0870CF70E060E0D1CFEE2369
:10340000B1F0EF3008F0EEE0E150FF0BEE0FFF1FE0
:10341000E056F44F65917491CE0101960E94ED182B
:10342000BE016F5F7F4FC8010E94471892CFF0E046
:10343000E0E0ECCF833009F48CCFE0916A03F091A7
:103440006B039091710321E030E0933011F430E090
:1034500020E0318B208B21E030E0933011F030E020
:1034600020E0338B228B2EE430E0358724871786CB
:1034700016866AEC70E0813011F067EC70E0CF01E5
:103480000E94EA084091100150E070E060E02AE0FC
:1034900080916A0390916B030E9456185ACF0E9444
:1034A000C137FC01868197819C01295F3F4F37FF1F
:1034B00002C0295F3F4F83E0359527958A95E1F754
:1034C00084819581289FA001299F500D389F500D20
:1034D000112470E060E0878D90A10C94D837AF92F2
:1034E000BF92CF92DF92EF92FF920F931F93CF93F1
:1034F000DF93C82F0E94011680916C03882349F046
:1035000070E060E084E00E94CC0760E084E00E940C
:1035100069078FEF8C0F843050F590E0FC01EE0FBF
:10352000FF1FE80FF91FE95EFD4F80818093710353
:10353000818180931101828180931001C330F1F168
:10354000C43009F454C0C23059F160E086E00E94F2
:10355000690761E083E00E94690760E083E00E9400
:103560003B0780917A00887F846080937A00EEE345
:10357000F2E080E091E0DF019C011D92215030409B
:10358000E1F710923D0210925703DF91CF911F9106
:103590000F91FF90EF90DF90CF90BF90AF90089584
:1035A00061E083E00E9469076FE770E083E00E94BA
:1035B000CC0760E086E00E946907D9CF61E083E034
:1035C0000E9469076FE770E083E00E94CC0760E02B
:1035D00086E00E9469071092420310924303109202
:1035E00044031092450382E080930701C0CF61E05D
:1035F00083E00E94690760E083E00E943B0760E08F
:1036000086E00E94690781E080931C018091AD00F3
:103610008F7B8093AD0080911C0181117AC08091D5
:10362000A0008C7081608093A0008091F00081FFE9
:103630000AC08091F0008D7F8EBB80E88093F000FF
:103640008EB38093F00080911C018295880F880FC3
:10365000807C80937C0063E084E00E94690770E0D6
:1036600060E084E00E94CC0780E593ECA0E0B0E04D
:1036700080930A0190930B01A0930C01B0930D016C
:1036800084E190E0909309018093080110925A031D
:1036900010925B0310925C0310925D038091110104
:1036A000853009F45CC0E0911001EE2309F455C0A7
:1036B000EF3008F0EEE0E150FF0BEE0FFF1FE05699
:1036C000F44F859194912AE9A22E39E9B32E49E964
:1036D000C42E59E1D52EE12CF12C00E010E09C0124
:1036E00040E050E060E070E080E090E00E94E5356E
:1036F000E0E5AE2EF3ECBF2EC12CD12C0E943F365C
:1037000020936203309363034093640350936503F3
:103710002ECF813031F48091A0008C708093A00076
:1037200092CF8091A0008C7082608093A0008091E5
:103730001C01823029F48091CE008093C80083CF91
:10374000843041F48091AD0080648093AD0080911D
:10375000CC00F3CF8091CD00F0CFE1E0ACCF109260
:103760006203109263031092640310926503FFCE0C
:1037700085ED8093BC0080919C0190919D01A0916A
:103780009E01B0919F010796A11DB11D23E0B69542
:10379000A795979587952A95D1F72091BC0024FD90
:1037A00003C01092E501089540919C0150919D0144
:1037B00060919E0170919F01452B462B472B69F329
:1037C0000097A105B10541F025E52A95F1F7000024
:1037D0000197A109B109E1CF80919B010C94AE1131
:1037E0000F931F93CF93DF93EC01062F142F62E00A
:1037F000802F0E94690762E0812F0E946907802F55
:1038000090E0FC01E750F44FE491F0E0EE0FFF1F71
:10381000E351F44F2591349139832883FC01EB5E09
:10382000F34FE491EC83812F90E0FC01E750F44FDB
:10383000E491F0E0EE0FFF1FE351F44F2591349136
:103840003B832A83FC01EB5EF34FE491ED831F82FF
:10385000188619861A8685E593E50197F1F7E881C0
:10386000F98190818C81982381E009F480E0EA81DC
:10387000FB8190812D81922309F082608E83BE01AD
:10388000802F0E941C188B87BE01812F0E941C185C
:103890009B85890F8B87DF91CF911F910F910895A1
:1038A0001F920F920FB60F9211242F933F938F9375
:1038B0009F93AF93BF9380917F0390918003A091DA
:1038C0008103B091820330917E0320E4230F2D37D2
:1038D00028F023EC230F0196A11DB11D20937E0338
:1038E00080937F0390938003A0938103B09382031E
:1038F0008091830390918403A0918503B091860306
:103900000196A11DB11D8093830390938403A0931E
:103910008503B0938603BF91AF919F918F913F91A3
:103920002F910F900FBE0F901F9018951F920F921E
:103930000FB60F9211242F933F934F935F936F9382
:103940007F938F939F93AF93BF93EF93FF93E091F8
:103950000401F09105010995FF91EF91BF91AF919D
:103960009F918F917F916F915F914F913F912F9197
:103970000F900FBE0F901F9018951F920F920FB6C9
:103980000F9211242F933F934F935F936F937F93E5
:103990008F939F93AF93BF93EF93FF93E0910201B7
:1039A000F09103010995FF91EF91BF91AF919F9124
:1039B0008F917F916F915F914F913F912F910F90D8
:1039C0000FBE0F901F9018951F920F920FB60F9277
:1039D00011242F933F934F935F936F937F938F9314
:1039E0009F93AF93BF93EF93FF938091B900887F2C
:1039F000803609F44AC0F0F5883209F4A7C018F5FA
:103A0000803109F49BC0B8F4882309F4F9C08830E8
:103A100009F494C0FF91EF91BF91AF919F918F9165
:103A20007F916F915F914F913F912F910F900FBEBA
:103A30000F901F901895883109F488C0803251F793
:103A40008093E40114C0803409F49DC040F48033B5
:103A5000B9F38833F9F68093E40185ECB0C0803582
:103A600009F485C0883509F496C0883499F60E9417
:103A7000B81BD0CF883909F48CC038F5883729F0C5
:103A800050F4883611F0803729F683E08093E50101
:103A90001092E30157C0883809F47BC0803919F0CF
:103AA000803809F0B7CF8091E301803208F071C00F
:103AB000E091E30181E08E0F8093E3018091BB00F0
:103AC000F0E0ED53FE4F80833DC0803B39F0E0F4E1
:103AD000803A09F479C0883A09F09CCF84E0809359
:103AE000E5011092C2011092C101E0911002F09123
:103AF000110209958091C10181110FC081E080936D
:103B0000C1011092A10109C0803C09F4A6CF883CF4
:103B100009F4A3CF883B09F07DCFE091C20181E099
:103B20008E0F8093C201F0E0EF55FE4F80818093AD
:103B3000BB009091C2018091C10129C080910A020D
:103B40008093BB0085EC8093BC0064CF9091090208
:103B500080910802981758F5E091090281E08E0FD4
:103B600080930902F0E0E851FE4F8081E9CFE091B7
:103B7000090281E08E0F809309028091BB00F0E082
:103B8000E851FE4F808390910902809108029817B6
:103B9000C8F285E8D8CFE091090281E08E0F8093CA
:103BA00009028091BB00F0E0E851FE4F80838091D4
:103BB000E70181115CCF81E08093E60184EA809384
:103BC000BC001092E50126CF85EC8093BC001092DA
:103BD000E5018091E301803230F4E091E301F0E00F
:103BE000ED53FE4F10826091E30170E0E0910E0210
:103BF000F0910F0283EC91E009951092E3010ACF56
:103C00001092E40134CF1F920F920FB60F9211243D
:103C10002F933F938F939F93EF93FF9380915A013C
:103C2000882359F09091570180915601981780F49C
:103C3000809157018F5F80935701FF91EF919F9182
:103C40008F913F912F910F900FBE0F901F9018955D
:103C50001092570120915801309159018091000133
:103C6000909101012817390740F7809158019091F0
:103C700059019C012F5F3F4F309359012093580108
:103C800020917900825C9D4FFC0120832091580196
:103C90003091590180910001909101012817390755
:103CA00060F281E08093460310925A0180917A007D
:103CB000877D80937A00C1CF90E896BF8CE486BF61
:103CC00096BF86BF0895CF93DF93CDB7DEB76F97CA
:103CD0000FB6F894DEBF0FBECDBF8091F2008061B9
:103CE0008EBB80E88093F2009EB39093F2008093A5
:103CF000610091E0909361002091F2002F792EBB3A
:103D00008093F2002EB32093F2002091F2002B7FDB
:103D10002EBB8093F2002EB32093F20080936100BB
:103D200010926100789484B5826084BD84B581600E
:103D300084BD85B5826085BD85B5816085BD809176
:103D40006E00816080936E001092810080918100EE
:103D500082608093810080918100816080938100E6
:103D6000809180008160809380008091B1008460A8
:103D70008093B1008091B00081608093B000809109
:103D80009100826080939100809191008160809386
:103D900091008091900081608093900080917A00E2
:103DA000846080937A0080917A008D7F80937A007E
:103DB00080917A008E7F80937A0080917A0080686B
:103DC00080937A001092C100909323020E944F08C2
:103DD0009C01359527953595279591E02436310539
:103DE0000CF090E09093240290936C038CE090E0B0
:103DF000243631050CF096C40E949C368C0141E1BA
:103E000060E1C8010E94F01B1093730300937203DA
:103E100063E171E081E090E00E942317809113013B
:103E2000909114018130910541F0019631F081E0CB
:103E300090E0909314018093130182E090E00E943F
:103E40003717809329028D7F11F0109229026EE0BE
:103E500071E083E090E00E94231780910E01909121
:103E60000F010197CC9730F085E090E090930F011F
:103E700080930E0185E090E00E9437179FEF980F26
:103E8000943008F455C481E080931B018091240292
:103E9000882309F458C40E9433118CB58C7F8CBDE3
:103EA0008DB581608DBD80E490E00E949C36FC0160
:103EB0001382128220E830E03583248380E490E08E
:103EC000978386833187208793878287168A158612
:103ED00014861786168681E0858B848B2FEF3FEF43
:103EE000338B228B318B208B878B108E128E118E11
:103EF00087E291E09183808386E192E0948F838FC3
:103F0000168E158E10A2178E8FEF84A385A389E0DD
:103F100086A38AE087A388E080A780E586AF17AEF6
:103F2000F0936B03E0936A03C0906A03D0906B0335
:103F3000D60116962D913C91C901079697FD0796DB
:103F4000A3E095958795AA95E1F7F601248135813F
:103F50007C01E29EC001E39E900DF29E900D112423
:103F60000E949C36D60190969C938E935F97892BE6
:103F700009F40CC1C6010E94511AF601868197818D
:103F800064817581AC0181970CF41AC440545109C5
:103F900057FF02C04F5F5F4F5595479562557109B6
:103FA00077FF02C06F5F7F4F75956795E0E4EE2E57
:103FB000F12C02E510E02BEE37E0C6010E944F061F
:103FC00082E0D60192968C9392975D968D919C910A
:103FD0005E97892B09F40EC416968D919C9180975B
:103FE00009F006C48CE3F60181A310921502109229
:103FF000140210921302109212020E94901180EE8D
:1040000098E0909311028093100281EE98E09093D3
:104010000F0280930E02D60198968C9187FD1FC0E7
:1040200061E00E94690761E0F60180A50E943B07FC
:1040300061E070E080E090E00E94A20860E0D601BC
:1040400098968C910E943B076AE070E080E090E0D7
:104050000E94A20861E0F60180A50E943B07D601FC
:104060005D968D919C915E97892B09F455C4D596E8
:104070002D913D914D915C91D89760E078E488EE68
:1040800091E00E942C332051310941095109569584
:104090004795379527952093B80044E067E076E090
:1040A000C6010E943B13F60166816150C6010E9461
:1040B000E01344E063E076E0C6010E943B13D601C2
:1040C00092968C9160E1813009F064E1C6010E9412
:1040D000E01344E06FEF75E0C6010E943B138FE8E8
:1040E000F60185AF848195818038910509F029C456
:1040F000868197818034910509F031C482A1813095
:1041000009F03DC48FE9D601DD968C9312E16AED8A
:10411000C6010E94E013612FC6010E94E01361E80E
:10412000C6010E94E013F60165ADC6010E94E013CE
:1041300069EDC6010E94E013D60192968C9162E26D
:10414000813009F061EFC6010E94E01346E069EF9B
:1041500075E0C6010E943B13F601858D968D892B73
:1041600009F40FC421AD32AD43AD54AD60E078E445
:1041700088EE91E00E942C33205131094109510908
:1041800056954795379527952093B80080916A03F7
:1041900090916B03DC01ED91FC91008CF18DE02D91
:1041A00060912902099500916A0310916B03C8017F
:1041B0000E94511AFF24F394F801F48AF58A81E0F1
:1041C00090E0938B828B918B808BC8010E94511A57
:1041D00082E0D80154968C93549755968C935597BA
:1041E00080E1C82ED12C1D96DC92CE921C978AE0DD
:1041F00090E01F969C938E931E9760ED7AE0C80125
:104200000E94EA08E0916A03F0916B03F48AF58A50
:10421000D586C48680E290E09787868762EC7AE054
:10422000CF010E94EA0880916A0390916B03FC0120
:104230001586148628E330E03787268720912402EC
:104240006DEB7AE0211102C06AEB7AE00E94EA0885
:1042500080916A0390916B032091230265EB7AE0D1
:10426000211102C060EB7AE00E94EA0880916C03A1
:10427000882341F06BEA7AE080916A0390916B03A6
:104280000E94EA0880916A0390916B030E9498143F
:1042900060E273E080E090E00E94A20861E083E0C9
:1042A0000E94690762E085E00E94690760E086E09D
:1042B0000E94690760E087E00E9469078091B10071
:1042C000887F81608093B10090E080E00E94371782
:1042D000893AC1F169EA90E080E00E947A1761E0D2
:1042E00081E090E00E947A1760E082E090E00E9416
:1042F0007A1765E083E090E00E947A1761E085E03C
:1043000090E00E947A1706E010E060E0C8010E9489
:104310007A1762E0C80101960E947A1761E0C8012D
:1043200002960E947A170D5F1F4F0231110569F73F
:1043300060E082E190E00E947A1760E883E190E01B
:104340000E947A1782E190E00E9437178093580309
:1043500083E190E00E94371780930601803218F4C1
:1043600080E880930601A7E1EA2EA2E0FA2E06E09B
:1043700010E0CC24C394D12CAA24A394C8010E9499
:104380003717982ED7018C93C80101960E943717D2
:10439000B82EF7018183C80102960E943717D70112
:1043A00012968C93B3E0B91510F4F7011082F3E084
:1043B000CF16D10409F402C324E0C216D10409F4D3
:1043C00002C332E0C316D10409F4E5C291E0BB2078
:1043D00021F09B2D993008F098E090931802982FC7
:1043E0008B3008F09AE090931902811102C0A092DC
:1043F00019028FEFC81AD80A0D5F1F4F93E0E90E1C
:10440000F11C0231110509F0B9CF80911B010E9406
:104410006F1ADE011D96BA8BA98B10917D03109344
:104420007C0380911B0180931A0185E00E94120792
:1044300021E0009709F020E020937D03892B09F00B
:10444000DEC2111111C00E94D408609378037093EA
:10445000790380937A0390937B0381E080937703C1
:104460001092760310927503809177038823F1F000
:104470008091760381111AC00E94D40800917803BC
:104480001091790320917A0330917B03601B710BAB
:10449000820B930B683E73408105910538F00E94B2
:1044A000B1150E948A1781E080937603B0907D0356
:1044B0000091720310917303BB20C9F180917403C2
:1044C00081110C94752E8091750381110C947F2EAF
:1044D00080917603882311F40C947F2E0E94D408D7
:1044E000C0907803D0907903E0907A03F0907B033A
:1044F0006C197D098E099F09683B7B4081059105F8
:1045000010F40C947F2E81E08093740380937503E4
:1045100080931901C8010E94E6160E9472346093CC
:104520001501709316018093170190931801C090A4
:104530001501D0901601E0901701F09018018091BC
:104540007403882311F40C94872EA0901301B0906B
:104550001401C8010E94E6160E9472342B013C012E
:1045600020E030E040E450E4C701B6010E945E3331
:104570009B01AC01C301B2010E94223518160CF058
:1045800078C2409215015092160160921701709204
:10459000180180911901833009F453C208F035C223
:1045A000813009F4B4C2823009F43DC28091130114
:1045B000909114018A159B0521F0B0921401A092EC
:1045C000130180917D0390917C0391110C94333001
:1045D000882311F40C9436308091190165E00E9413
:1045E000A4359F5F909319010E94D408609325021F
:1045F000709326028093270290932802C090250290
:10460000D0902602E0902702F0902802C114D10435
:10461000E104F10411F40C943E300E94D4086C19AA
:104620007D098E099F09603D77408105910510F451
:104630000C943E30EE24E394F12CFA82E9826091EE
:104640001301CE0101960E94651782E090E09A83E3
:10465000898360911401CE0101960E9465176091D3
:10466000290282E090E00E94391760910E0183E0F8
:1046700090E09A838983CE0101960E9465170E947B
:10468000B1150E948A1700916A0310916B03C8014B
:104690000E94511AF801F38AE28AF18AE08A80E1E5
:1046A00090E09587848789E190E09787868761E32A
:1046B0007BE0C8010E94EA0880916A0390916B0335
:1046C0000E94981460E273E080E090E00E94A208EB
:1046D0001092740310922502109226021092270263
:1046E0001092280280917203909173030E94E61643
:1046F0009B01AC01A0911301B09114010E942433DD
:104700000E94723460931501709316018093170113
:104710009093180180E090E0892B09F47ECE0E94EE
:1047200000007BCE0E949C368C0144E062E069CBA5
:1047300080931B01843009F0A9CB80916C038823FE
:1047400009F4A1CBA3CB80E490E00E949C36FC014D
:104750001382128220E830E03583248380E490E0E5
:10476000978386833187208793878287168A158669
:1047700014861786168681E0858B848B2FEF3FEF9A
:10478000338B228B318B208B878B108E128E118E68
:1047900027E231E031832083148E138E168E158E1E
:1047A00010A2178E99E094A39AE095A39BE096A39C
:1047B0009CE097A39DE090A791E596AF87AFB0CB23
:1047C0004052510957FF02C04F5F5F4F55954795C3
:1047D0006357710977FF02C06F5F7F4F75956795CB
:1047E00090E2E92EF12C03E710E02BE036E0E5CB78
:1047F0008DE3F9CB61E096968C910E94690761E0A8
:10480000F60187A10E946907D60196968C9196972A
:10481000082E000C990BFC01E750F44FE491F0E0F6
:10482000EE0FFF1FEF51F44F25913491F60136A79B
:1048300025A7FC01EB5EF34FE491D396EC93D3975D
:1048400097968C91082E000C990BFC01E750F44FC1
:10485000E491F0E0EE0FFF1FEF51F44FA591B491FA
:10486000F601B0ABA7A7FC01EB5EF34F9491F60104
:1048700094AB8C91E92FE82BEC93D6015B968D914C
:104880009C91892B19F00E943311C5CB61E0F60190
:1048900084A10E94690761E0D60195968C910E94DF
:1048A0006907F60184A1082E000C990BFC01E75062
:1048B000F44FE491F0E0EE0FFF1FEF51F44F25911C
:1048C0003491D6019A963C932E939997FC01EB5E16
:1048D000F34FE491D196EC93D19795968C91082E55
:1048E000000C990BFC01E750F44FE491F0E0EE0F5F
:1048F000FF1FEF51F44FA591B491F601B4A7A3A700
:10490000FC01EB5EF34F9491F60192AB8C91E92F91
:10491000E095E823EC937FCBF601838D948D892B72
:1049200021F086AD97AD0E949A0BD6019F96ED912E
:10493000FC91D0979081D4968C9180958923808327
:10494000ACCB8036910579F486819781409739F414
:1049500082A1813031F480E1D601DD968C9312E0A2
:10496000D6CB8FEAF9CF80349105C9F7868197813C
:104970008097A9F782A1813011F480E1C4CB8FEC3C
:10498000C2CBD60107A4F0A9E02D8081D4969C91DA
:10499000892B8083FBCB91E0BB2021F09B2D9930AC
:1049A00008F098E090931B02882331F0873008F0DC
:1049B00086E080931C021DCD81E0FBCFA0921E02F9
:1049C000A0921F0216CDB11008C0A0922102882328
:1049D000A1F08F3078F08EE00DC09B2D45E04B1597
:1049E00008F495E09093210254E05B1580F783333F
:1049F00008F082E380932202FCCC81E0FBCF1123FC
:104A000009F432CD109277032FCD843049F18530EF
:104A100009F0CCCD80910601813208F4C7CD8150D8
:104A200080930601C3CD80910E0190910F018230D9
:104A3000910508F4BBCD019790930F0180930E016F
:104A4000B5CD1092290280916A0390916B03DC012D
:104A5000ED91FC91008CF18DE02D60E00995A6CDE3
:104A6000809158038F3C0CF4A1CD81508093580362
:104A70009DCD20E030E040E450E4C701B6010E9443
:104A80005D339B01AC01C301B2010E94CA3387FFB1
:104A90008DCD4092150150921601609217017092CF
:104AA0001801809119018330E1F078F4813099F197
:104AB000823009F07BCD80910E0190910F018C33F3
:104AC000910508F073CD0196B7CF8430C9F08530D9
:104AD00009F06CCD809106018F3F09F467CD8F5F9F
:104AE0009FCF82E08093290280916A0390916B03AB
:104AF000DC01ED91FC91008CF18DE02D62E0AECFF8
:104B00008091580382330CF051CD8F5FAFCFAA2430
:104B1000A394B12C4BCDAA24AA94BA2C47CD9FEFD5
:104B2000980F933010F00C94A32E809371030C9483
:104B3000992E20E030E040E450E4C501B4010E9429
:104B40005E3320E030E040E85EE30E9427359B01C1
:104B5000AC01C701B6010E942235181614F00C945E
:104B6000FC2E8092150190921601A0921701B0922E
:104B700018010E94D40860936D0370936E038093B4
:104B80006F039093700381E00C94E92E933091F4BD
:104B900091E020911201820F79F0809312018091AF
:104BA0001201981710F00C94FC2E81E080931201F2
:104BB0000C94FC2E93E0EDCF90931201F0CF980F60
:104BC000D9F090931B0190911B01953018F091E062
:104BD00090931B0190911B01943011F00C94FC2ECA
:104BE00090916C0391110C94FC2E8C5F853031F008
:104BF00080931B010C94FC2E94E0E3CF81E0F8CF6E
:104C000021E0933021F028E0943009F425E0309140
:104C10001101830FD9F08093110180911101022EAF
:104C2000000C330B82171306A1F09CF081E08093F7
:104C30001101943011F00C94FC2E809110018150E0
:104C40008E3010F40C94FC2E84E010C020931101DF
:104C5000E4CF943011F00C94FC2E853071F78091E4
:104C60001001833310F40C94FC2E89E18093100121
:104C70000C94FC2E923061F19430F9F0913029F5CA
:104C80009AE02AEF30911001830F422F022E000C80
:104C9000550B8417150604F1809310013091100113
:104CA000892F990F990B3817190609F014F40C94F1
:104CB000FC2E209310010C94FC2E9091110121E008
:104CC000953041F420E092E3DDCF91E021E0DACFAE
:104CD00096E0FCCF9EE0D6CF90931001DFCF13304B
:104CE00009F472C1143011F00C94C5318091120195
:104CF000882309F4FEC5843008F083E08093120114
:104D000030901101332009F4F6C53B8E332D363037
:104D100010F045E04B8F8B8D8093110180916C03D7
:104D20008111ECC50E94D4080091660310916703BD
:104D30002091680330916903601B710B820B930B08
:104D4000683C71058105910508F4E4CC0E94D40803
:104D5000609366037093670380936803909369037D
:104D600000916A0310916B03C8010E94511A81E0FF
:104D7000D80154968C93549755968C9355978AE006
:104D800090E01D969C938E931C9788E190E01F966F
:104D90009C938E931E9766EC7BE0C80117C081E060
:104DA0000C94502F81E00C945B2F80913202882369
:104DB00079F080916A0390916B03FC01158614864B
:104DC00028E330E03787268760E47BE00E94EA082A
:104DD000EB88FC880D891E892F89388D498D5A8D65
:104DE000E216F3060407150710F00C94C5310E9473
:104DF0000C190C94C53180911201882309F46EC0FE
:104E0000843008F083E08093120110911101112386
:104E100009F466C0193008F018E010931101A09150
:104E2000100101E0AA2321F00A2FA73008F006E0C4
:104E30000093100180913D02813009F497C008F47D
:104E400051C0823011F00C94C53180916A03909169
:104E50006B030E94511A0EE3C02E02E0D02EF60121
:104E600020E08191DF01119790E0959587959595C8
:104E700087958C932F5F2038A1F76EE770E08091C3
:104E80006A0390916B03F60101815FEFC51AD50AA1
:104E900010E05B01A1E0AA1AB108408150E0DC01FA
:104EA000ED91FC9104A0F5A1E02DEE24E394F12C0A
:104EB00095010995B501AB2811F7EB88FC880D89A0
:104EC0001E892F89388D498D5A8DE216F306040705
:104ED000150708F075C00E940C1972C081E093CFCD
:104EE00011E09BCF0E94D4086B017C01402F415000
:104EF000550BDA012AE030E00E94DE356C5E7F4F10
:104F00008F4F9F4F8090390290903A02A0903B02C1
:104F1000B0903C02C818D908EA08FB08C616D706A4
:104F2000E806F90610F40C94C5311630C8F446E0D2
:104F300050E0411B5109440F65E080E890E00E9479
:104F4000091681E080933D020E94D40860933502E7
:104F50007093360280933702909338020C94C531D7
:104F60004BE3410F440F440F66E0E7CF80914603C7
:104F7000882379F00E94D4086093390270933A0232
:104F800080933B0290933C0282E080933D020C941C
:104F9000C5310E94D408009135021091360220914B
:104FA000370230913802601B710B820B930B653610
:104FB00071058105910510F40C94C5310E9401160C
:104FC00010923D020C94C53181E0809312018091D2
:104FD0005703813009F4EBC008F46CC0823009F447
:104FE00007C10E94D40800913E0310913F03209115
:104FF000400330914103601B710B820B930B6035B2
:1050000071058105910510F40C94C53180906A03F7
:1050100090906B030E94D40860933E0370933F030B
:105020008093400390934103C4010E94511A8B89DD
:105030009C89AD89BE89EF88F88C098D1A8D5AE05C
:10504000252E312C8E159F05A007B10710F0312CAD
:10505000212CC0904203D0904303E0904403F09091
:105060004503210108E0400E511C20E030E040E7FC
:1050700051E4C701B6010E94223518160CF0D7C3BF
:1050800020E030E040E251E4C701B6010E9427353C
:105090000E9441346B01CB0104E0803714E1910799
:1050A00008F4F9C1093009F4F6C10196969587957F
:1050B0000F5FF3CF0E94D408009153031091540363
:1050C0002091550330915603601B710B820B930B9B
:1050D000683271058105910508F483CFC0904F03B4
:1050E000D0905003E0905103F090520320E030E064
:1050F00040EA52E4C701B6010E94CA3387FD04C0EA
:1051000010910701113019F581E08093070180E0CB
:1051100090E9A1EBB5E480934B0390934C03A093EB
:105120004D03B0934E0341E067E080E091E00E94C0
:10513000091681E0809357030E94D40860934703C7
:10514000709348038093490390934A034ACF20E029
:1051500030E048E453E4C701B6010E94CA3387FD3A
:1051600002C0123091F482E080930701E12C10E933
:10517000F12E01E316E4E0924B03F0924C0300930E
:105180004D0310934E0340E0CFCF83E0809307019F
:1051900000E01EE821EB36E400934B0310934C0330
:1051A00020934D0330934E0340E066E0BECF8091E4
:1051B0004603882321F082E08093570312CF0E9498
:1051C000D40800914703109148032091490330917E
:1051D0004A03601B710B820B930B693C71058105BF
:1051E000910508F4FECE0E94011610925703F9CEE5
:1051F000EEE3F2E04EE353E090E02FEF819182176F
:1052000008F4282F981708F4982F4E175F07B1F766
:10521000892F821B8E3108F40AC1290F3327331FCF
:105220003595279566E00E94A43501E090913E02F5
:10523000291708F000E0AFE3B2E070E060E0F0E0D2
:10524000E0E010E041E050E090E07901E81AF90A6E
:10525000820F931F2D9130E001110AC0821793072E
:1052600064F41F5FBA01309709F489C001E005C0FA
:1052700001E02E153F050CF400E04F5F5F4F411534
:1052800021E0520739F7123008F4D1C06E1B7F0BB2
:1052900090E080E00E9470346B017C01412F41500E
:1052A000550BBA01072E000C880B990B0E94723423
:1052B0009B01AC01C701B6010E94CF339B01AC0139
:1052C00060914B0370914C0380914D0390914E037C
:1052D0000E94CF336B017C0120E030E040E751E4D5
:1052E0000E94223518160CF0A2C020E030E44CE9F0
:1052F00055E4C701B6010E94CA3387FF98C0809069
:10530000420390904303A0904403B0904503C092A1
:105310004F03D0925003E0925103F092520320E0E9
:1053200030E040E251E4C501B4010E94CA3387FF76
:1053300028C0C0924203D0924303E0924403F0920B
:105340004503C0904203D0904303E0904403F090A3
:10535000450320E030E040E752E4C701B6010E9477
:10536000CA3387FD5EC020E030E046E153E4C70168
:10537000B6010E94CA3387FF58C082E053C0FA01C9
:1053800075CFA5019401C701B6010E945D332B01C1
:105390003C0120E030E0A9010E942235181624F0DB
:1053A00077FA709477F87094A5019401C301B20163
:1053B0000E94CF332DEC3CEC4CEC5DE30E94223597
:1053C000412C512C612C7FE3772E18163CF063E3BF
:1053D000462E542C63EB662E6EE3762EA3019201CB
:1053E00060E070E080E89FE30E945D33A5019401D6
:1053F0000E9427354B015C01A7019601C301B20150
:105400000E9427359B01AC01C501B4010E945E33A7
:105410006093420370934303809344039093450346
:1054200090CF81E08093070122C083E0FBCF2AE97F
:1054300039E949E55FE3609142037091430380914C
:105440004403909145030E9427356B017C0120E0C5
:1054500030E040E751E40E94CA3387FD13C0C09298
:105460004203D0924303E0924403F09245030E942A
:10547000D40860935303709354038093550390931F
:105480005603B3CE1092420310924303109244038A
:105490001092450372CF88332AE0920730F4101639
:1054A00024F4880F991F0150F6CF2EE5A22E2BE091
:1054B000B22E10E0AFEFBFE7712CF50125913491CA
:1054C000AC01421B530B9A01BA0157FF04C0662777
:1054D0007727641B750BAD01B7FF04C04427552720
:1054E0004A1B5B0B6417750714F4D901172D7394CD
:1054F00052E0A50EB11CECE07E12DFCF1B30B1F400
:1055000080579441AC0197FF04C044275527481B9E
:10551000590B9D01B7FF04C0222733272A1B3B0BE1
:10552000421753071CF40F5FDC0110E0E12FF0E09D
:10553000EE0FFF1FE25AF44F4591549123EC36E0F1
:105540000E94DE359A0150E040E00E94FA32CA0122
:10555000B9012AE030E040E050E00E94FA32B22E79
:10556000A22EF2E3F2170CF035C172E3A72E110F51
:10557000812F90E0FC01EB5BF44FE491ED87FC019F
:10558000EA5BF44FE491EE871F86E03209F41E8651
:1055900082E0D40154968C93549755968C93E98964
:1055A000FA8901900020E9F7CF0129893A89821B05
:1055B000930B4CE0489F9001499F300D112480E8E7
:1055C00090E0821B930B97FD019695958795D401EA
:1055D0001D969C938E931C97C10104961F969C93D5
:1055E0008E931E97BE01635F7F4FC4010E944718D0
:1055F000602F000F770B80916A0390916B030E94DC
:10560000A218E0916A03F0916B0381E0848B858B93
:105610008A2CAA0C9908B7FEE4C084E090E0958734
:10562000848757864686B401CF010E94A21863E69C
:1056300080916A0390916B030E94E308B6018E018A
:105640000F5F1F4FC8010E94ED1880916A0390916F
:105650006B03F80101900020E9F73197E01BF10B93
:1056600026E02E9FA0012F9F500D112420E830E04E
:10567000241B350B36952795FC0135872487F8E1E7
:105680002F0E311CDC011F963C922E921E97B80102
:105690000E944718EB88FC880D891E892F89388D58
:1056A000498D5A8DE216F3060407150708F0BCC0B1
:1056B00004E210E0FFE3AF2EF2E0BF2EEE24E3940D
:1056C000F12C68013BE0C30ED11CBCE07B2ED50160
:1056D0008D915D01879DC0011124892F990F990B30
:1056E000F601E81BF90BA801E017F1072CF0A60161
:1056F000EC15FD050CF4AF0180916A0390916B03EA
:10570000DC01ED91FC910084F185E02D21E030E099
:10571000B7010995BFEFEB1AFB0AEFE7EE16F104AC
:10572000B1F6EB88FC880D891E892F89388D498D4B
:105730005A8D74E3C72ED12CE216F3060407150721
:1057400018F062E3C62ED12C80916A0390916B030E
:10575000DC01ED91FC9106A0F7A1E02DEE24E3948D
:10576000F12C06E010E024E630E0A6016EE070E0E7
:10577000099580916A0390916B03A60142505109EB
:10578000DC01ED91FC91048CF58DE02D01E010E041
:105790002AE030E060E470E0099580916A0390911E
:1057A0006B03A6014F5F5F4FB401625C7F4FDC016A
:1057B000ED91FC9100A0F1A1E02D04E010E025E0C6
:1057C00030E00995E0916A03F0916B0381E0848BEE
:1057D000858BFECA2EECB2160CF0C9CE6EECA62E4E
:1057E000C6CEBB20A9F0B9E088E690E0BB1514F066
:1057F0008EE690E095878487578646866BE2CF01D8
:105800000E94E308B40180916A0390916B030DCF6D
:105810008EE690E0958784875786468664E87BE02D
:10582000CF010E94EA080ACF02E210E043CF82E0F3
:10583000F401848B858B8CE290E095878487578672
:10584000468660E87BE0C4010E94EA08E0916A03B2
:10585000F0916B0381E0848B858B82E290E09587E9
:1058600084870AE1200E311C3786268666E77BE0B6
:10587000CF010E94EA082B893C894D895E898F8976
:10588000988DA98DBA8D281739074A075B0768F5E7
:1058900044E3C42ED12C80916A0390916B03DC0108
:1058A000ED91FC9106A0F7A1E02DEE24E394F12CFC
:1058B00006E010E024E630E0A6016EE070E0099515
:1058C00080916A0390916B03A60142505109DC015B
:1058D000ED91FC91048CF58DE02D01E010E02AE0C3
:1058E00030E060E470E009956DCF32E3C32ED12C37
:1058F000D2CF81E003CA51E05B8F0DCAE091100165
:105900003B8D353009F467C0EE2309F462C0EF30F7
:1059100008F0EEE0E0931001E150FF0BEE0FFF1FE7
:10592000E056F44F45915491BAE9AB2E19E9B12EE6
:1059300009E9C02E89E1D82EE12CF12C00E010E01D
:105940009A0140E050E060E070E080E090E00E946A
:10595000E535C0900A01D0900B01E0900C01F09069
:105960000D0156016701E12CF12C0E943F36209376
:1059700062033093630340936403509365030E9472
:10598000800880905E0390905F03A0906003B090C9
:1059900061038B019C01081919092A093B09C09070
:1059A0000801D0900901F12CE12CC016D106E206C5
:1059B000F306D0F10035134C2105310508F482C0FF
:1059C00060935E0370935F03809360039093610321
:1059D00079C0E1E09FCFE33308F0E2E3E093100108
:1059E0001092620310926303109264031092650395
:1059F0004FEFE49FC001112462E370E00E94B035D4
:105A0000862F0E9400188B899C89AD89BE89EF88FA
:105A1000F88C098D1A8D8E159F05A007B10708F027
:105A2000CFC410925903CCC4003543EC14072105B0
:105A3000310530F68091620390916303A091640375
:105A4000B09165038C8F9D8FAE8FBF8F892B8A2B72
:105A50008B2BC1F1C901B801A70196010E942C331B
:105A600029013A012C8D3D8D4E8D5F8DC301B20110
:105A70000E94943500915A0310915B0320915C03BE
:105A800030915D03DC01CB01800F911FA21FB31F7A
:105A900080935A0390935B03A0935C03B0935D03E0
:105AA000A7019601C301B2010E949435860E971E8C
:105AB000A81EB91E80925E0390925F03A0926003BD
:105AC000B09261030E9480084B015C01B0EA8B0E2A
:105AD000BFE09B1EA11CB11C0E94800868197909B7
