:100000000C9413060C94831B0C945C1B0C943B0601
:100010000C943B060C943B060C943B060C943B065C
:100020000C943B060C943B060C943B060C943B064C
:100030000C943B060C943B060C943B060C943B063C
:100040000C94121B0C943B060C943B060C943B0640
:100050000C943B060C94C91C0C943B060C943B0678
:100060000C94AA1B0C943B06808386898C8F9295F6
:10007000989B9EA2A5A7AAADB0B3B6B8BBBEC0C39D
:10008000C5C8CACCCFD1D3D5D7D9DBDDDFE0E2E418
:10009000E5E7E8E9EAECEDEEEFF0F0F1F2F2F3F388
:1000A000F4F4F4F5F5F5F5F553455454494E47533A
:1000B00020534156454400523A004F3A005A4300FB
:1000C000543A0047454E0054554E45005741564559
:1000D000004C464F0000000000003E5B4F5B3E3E80
:1000E0006B4F6B3E1C3E7C3E1C183C7E3C181C57E4
:1000F0007D571C1C5E7F5E1C00183C1800FFE7C388
:10010000E7FF0018241800FFE7DBE7FF30483A0656
:100110000E2629792926407F050507407F05253FC2
:100120005A3CE73C5A7F3E1C1C08081C1C3E7F14AE
:10013000227F22145F5F005F5F06097F017F0066F8
:1001400089956A606060606094A2FFA29408047E52
:10015000040810207E201008082A1C08081C2A0801
:10016000081E101010100C1E0C1E0C30383E3830BB
:10017000060E3E0E06000000000000005F000000BA
:1001800007000700147F147F14242A7F2A122313E8
:1001900008646236495620500008070300001C22FC
:1001A00041000041221C002A1C7F1C2A08083E082E
:1001B000080080703000080808080800006060002F
:1001C00020100804023E5149453E00427F40007223
:1001D000494949462141494D331814127F1027459A
:1001E0004545393C4A4949314121110907364949B8
:1001F0004936464949291E000014000000403400D9
:10020000000008142241141414141400412214088C
:1002100002015909063E415D594E7C1211127C7F44
:10022000494949363E414141227F4141413E7F4952
:100230004949417F090909013E414151737F08083D
:10024000087F00417F41002040413F017F08142288
:10025000417F404040407F021C027F7F0408107FA6
:100260003E4141413E7F090909063E4151215E7FE1
:1002700009192946264949493203017F01033F40B4
:1002800040403F1F2040201F3F4038403F6314083C
:10029000146303047804036159494D43007F4141CD
:1002A000410204081020004141417F040201020480
:1002B0004040404040000307080020545478407FED
:1002C000284444383844444428384444287F385427
:1002D00054541800087E090218A4A49C787F0804CE
:1002E000047800447D40002040403D007F102844B9
:1002F0000000417F40007C047804787C0804047886
:100300003844444438FC1824241818242418FC7C4D
:1003100008040408485454542404043F44243C4032
:1003200040207C1C2040201C3C4030403C44281095
:1003300028444C9090907C4464544C4400083641CE
:1003400000000077000000413608000201020402AC
:100350003C2623263C1EA1A161123A4040207A3857
:1003600054545559215555794122545478422155B8
:1003700054784020545579400C1E5272123955550C
:100380005559395454545939555454580000457CE2
:10039000410002457D420001457C407D1211127DE5
:1003A000F0282528F07C545545002054547C547C7A
:1003B0000A097F4932494949323A4444443A324A67
:1003C0004848303A4141217A3A42402078009DA085
:1003D000A07D3D4242423D3D4040403D3C24FF2403
:1003E00024487E4943662B2FFC2F2BFF0929F6203A
:1003F000C0887E090320545479410000447D413077
:1004000048484A32384040227A007A0A0A727D0D02
:1004100019317D2629292F28262929292630484DBA
:100420004020380808080808080808382F10C8AC09
:10043000BA2F102834FA00007B000008142A142276
:1004400022142A14085500550055AA55AA55AAFF8A
:1004500055FF55FF000000FF00101010FF0014149E
:1004600014FF001010FF00FF1010F010F01414140F
:10047000FC001414F700FF0000FF00FF1414F40444
:10048000FC141417101F10101F101F1414141F0039
:10049000101010F0000000001F101010101F10109E
:1004A0001010F010000000FF1010101010101010AD
:1004B00010FF10000000FF140000FF00FF00001FED
:1004C00010170000FC04F414141710171414F4048B
:1004D000F40000FF00F714141414141414F700F7B8
:1004E000141414171410101F101F141414F41410E3
:1004F00010F010F000001F101F0000001F1400007B
:1005000000FC140000F010F01010FF10FF14141481
:10051000FF141010101F00000000F010FFFFFFFF7D
:10052000FFF0F0F0F0F0FFFFFF0000000000FFFF21
:100530000F0F0F0F0F3844443844FC4A4A4A347EA8
:1005400002020606027E027E026355494163384478
:10055000443C04407E201E2006027E020299A5E74C
:10056000A5991C2A492A1C4C7201724C304A4D4DE7
:10057000303048784830BC625A463D3E49494900CF
:100580007E0101017E2A2A2A2A2A44445F444440EB
:10059000514A444040444A51400000FF0103E0807A
:1005A000FF000008086B6B083612362436060F0968
:1005B0000F06000018180000001010003040FF0166
:1005C00001001F01011E00191D1712003C3C3C3C9C
:1005D00000000000002200FF21000103070F1F3F61
:1005E0007F0080C0E0F0F8FCFEDB40A4A62EAF2028
:1005F00000A1C8D300408DAED580A80000600000E7
:10060000000000000000000000000000E00000000A
:100610000000000000000000000001E000000000F9
:1006200000000000000000000001F00000000000D9
:10063000000000000000000003F0000000000000C7
:100640000000000000000007F000000000000000B3
:1006500000000000000007F800000000000000009B
:1006600000000000000FF800000003C0007E000042
:1006700001E0007F0FF800000003C000FE00000151
:10068000E000FFEFF800000003C000FE000001E002
:1006900000FFFFF800000003C000F00000000F00A2
:1006A0007FFE7FC0000003C000F00000000F003F8D
:1006B000FE7FF83FF1FBCFFCFEF3BC3DEFE01FFEF9
:1006C0007FFF7FFBFFDFFEFEFFBC3DEFE01FC6FFAD
:1006D000FF7FFBFFDFFEFEFFBC3DEFE00FE3C7FE49
:1006E000787BC3DE1EF0FFBC3DEF0007FF87FC7880
:1006F0007BC3DE1EF0F83C3DEF0001FFFFF0007B06
:10070000C3C01EF0F03C3DEF0001F37FE03FFBC3B0
:10071000CFFEF0F03C3DEF0003E33F807FFBC3DF03
:10072000FEF0F03C3DEF0007E73C00787BC3DE1EA7
:10073000F0F03C3DEF0007FFBE00787BC3DE1EF00B
:10074000F03C3DEF0007FFFE00787BC3DE1EF0F0BB
:100750003C3DEF000FFFFE007FFBFFDFFEF0F03FB0
:10076000FDEFE00FFFFF007FFBFFDFFEF0F03FFD3E
:10077000EFE00FF9FF003E79F9CF9EF0F01F3DE763
:10078000E01FF1FF0000000000000000000000007A
:100790001F80FF007FFFFFFFFFFFFFFFFFFFE01C49
:1007A000007F007FFFFFFFFEB46D888D18E0000022
:1007B0001F007FFFFFFFFE95AD7DB577E000000FC6
:1007C000007FFFFFFFFEA5AD9D8D19E00000060034
:1007D0007FFFFFFFFEB5ADEDB57EE000000000003D
:1007E0000180000000000000000000038000000005
:1007F00000000000000007C0000000000000000032
:100800000007C00000000000000000000FC0000052
:10081000000000000000001FE000000000000000D9
:1008200000001FE00000000000000000003FE000AA
:1008300000000000000000003FF000000000000089
:100840000000007FF0000000000000001FF87FF0B3
:10085000000000000000003FFE7FF00000000000EC
:1008600000003FFF7FF0000000000000001FFFFBC2
:10087000E0000000000000000FFFF9FFC0000000D2
:100880000000000FFFF9FFF800000000000007FF64
:10089000F1FFFF00000000000003FC73FFFF800079
:1008A0000000000001FE3FFFFF800000000000008C
:1008B000FF1E0FFF000000000000007FFE1FFC0075
:1008C0000000000000003FFFFFF8000000000000F3
:1008D000000FDFFFE0000000000000001F19FFC054
:1008E000000000000000003F3CFF0000000000008E
:1008F00000007E7CF800000000000000007FFE7C0D
:100900000000000000000000FFFFFC0000000000ED
:10091000000000FFFFFE0000000000000000FFFFDD
:10092000FE0000000000000001FFEFFE00000000DC
:1009300000000001FFCFFE0000000000000003FFE8
:1009400007FE0000000000000003FC07FE0000009E
:100950000000000003F003FE0000000000000001A2
:100960008000FE000000000000000000007E00008B
:1009700000000000000000003E0000000000000039
:100980000000000C000000000000078000FC0000D8
:1009900003C0000000078001FC000003C00000004D
:1009A000078001FC000003C0000000078001E00098
:1009B00000001E000000078001E00000001E007F14
:1009C000E3F79FF9FDE7787BDFC0FFF7FFBFFDFD91
:1009D000FF787BDFC0FFF7FFBFFDFDFF787BDFC047
:1009E000F0F787BC3DE1FF787BDE00F0F787BC3D88
:1009F000E1F0787BDE0000F787803DE1E0787BDE88
:100A0000007FF7879FFDE1E0787BDE00FFF787BF7F
:100A1000FDE1E0787BDE00F0F787BC3DE1E0787B2C
:100A2000DE00F0F787BC3DE1E0787BDE00F0F78781
:100A3000BC3DE1E0787BDE00FFF7FFBFFDE1E07F3A
:100A4000FBDFC0FFF7FFBFFDE1E07FFBDFC07CF312
:100A5000F39F3DE1E03E7BCFC000000000000000BE
:100A600000000000FFFFFFFFFFFFFFFFFFFFC0FFD1
:100A7000FFFFFFFD68DB111A31C0FFFFFFFFFD2BF9
:100A80005AFB6AEFC0FFFFFFFFFD4B5B3B1A33C011
:100A9000FFFFFFFFFD6B5BDB6AFDC02044414300AD
:100AA00020493243002033323800204C475400762E
:100AB000320076322E35004D6F64756C6F7665208E
:100AC00076332E340053434F5045002033323800E4
:100AD000204C47540076320076322E3500486F6C39
:100AE00064203273200044414320476E3A20004482
:100AF0004143204F66733A20003138300030004FB8
:100B00004C45443A200054696D65723A20005265A4
:100B100076004E6F726D00456E633A200053455467
:100B200054494E47530053455454494E475320535C
:100B30004156454400545249470043204323442032
:100B40004423452046204623472047234120412374
:100B5000422000380AD40A790B270CE00CA40D744B
:100B60000E500F3910301136124B134E6F2073692F
:100B7000676E616C002D2D2D004F4B0043414C3AA8
:100B80000053494E005452490053415700535152AB
:100B900000444320000100020005000A0014003256
:100BA000006400C800F401E803D007881310272070
:100BB0004E43414C3A004441433A0047454E206E73
:100BC000656564732076322E350000000000240035
:100BD00027002A0000000000250028002B0000004C
:100BE0000000230026002900040404040404040473
:100BF00002020202020203030303030301020408C8
:100C00001020408001020408102001020408102076
:100C100000000008000201000003040700000000BB
:100C200000000000CC3111241FBECFEFD8E0DEBFA2
:100C3000CDBF11E0A0E0B1E0E8EDFDE602C0059017
:100C40000D92A436B107D9F723E0A4E6B1E001C0C4
:100C50001D92AB3AB207E1F716E0C3E1D6E004C05B
:100C60002197FE010E949835C231D107C9F70E9431
:100C7000221D0C94EA360C94000091E090939A03A4
:100C800080939903109298031092970308953F92CE
:100C90004F925F926F927F928F929F92AF92BF928C
:100CA000CF92DF92EF92FF920F931F93CF93DF9338
:100CB00000D000D0CDB7DEB79C838B833B016A01A7
:100CC0005901DC01ED91FC910284F385E02D099539
:100CD0002801B7E04B0E511C93E0559447949A9528
:100CE000E1F7C6018E0D9F1D9A838983912C812C7B
:100CF000312CF12CE12CC70187709927330C892BFB
:100D000059F4F70183E0F595E7958A95E1F7E80D49
:100D1000F91DEA0DFB1D349037FE10C0AB81BC817C
:100D2000ED91FC9111970484F585E02D21E030E0F0
:100D3000A601B701660D771DCD010995BFEFEB1A2E
:100D4000FB0A0E151F05B9F68FEFC81AD80A840CD6
:100D5000951CA981BA81CA16DB0659F6AB81BC8104
:100D6000ED91FC9111970688F789E02DCD010F9048
:100D70000F900F900F90DF91CF911F910F91FF90E7
:100D8000EF90DF90CF90BF90AF909F908F907F902B
:100D90006F905F904F903F900994833081F028F4DA
:100DA000813099F08230A9F008958730A9F0883019
:100DB000C9F08430B1F4809180008F7D03C08091B0
:100DC00080008F7780938000089584B58F7784BDED
:100DD000089584B58F7DFBCF8091B0008F7780938D
:100DE000B00008958091B0008F7DF9CFCF93DF934D
:100DF000282F30E0F901E05FF34F8491F901E450CE
:100E0000F44FD491F901E851F44FC491CC23A1F0EF
:100E100081110E94CD06EC2FF0E0EE0FFF1FE25291
:100E2000F44FA591B491EC91ED2381E090E009F4A9
:100E300080E0DF91CF91089580E090E0FACF1F939A
:100E4000CF93DF93282F30E0F901E05FF34F8491D7
:100E5000F901E450F44FD491F901E851F44FC491F1
:100E6000CC23A9F0162F81110E94CD06EC2FF0E0C3
:100E7000EE0FFF1FEC52F44FA591B4918FB7F89489
:100E8000EC91111108C0D095DE23DC938FBFDF9168
:100E9000CF911F910895DE2BF8CFE3E1FCE0E491C0
:100EA000E33019F140F4E130B1F0E230C9F060E034
:100EB00083E00C941F07E73011F1E83041F1E43092
:100EC000B1F72091800020622093800090938B00E6
:100ED00080938A00089594B5906894BD87BD089565
:100EE00094B5906294BD88BD0895209180002068DB
:100EF00020938000909389008093880008959091BA
:100F0000B00090689093B0008093B30008959091E2
:100F1000B00090629093B0008093B4000895CF9396
:100F2000DF9390E0FC01E450F44F24918851944FFA
:100F3000FC0184918823C9F090E0880F991FFC017F
:100F4000E653F44FA591B491FC01EC52F44FC591D6
:100F5000D49161110DC09FB7F8948C912095822394
:100F60008C938881282328839FBFDF91CF91089598
:100F7000623051F49FB7F8943C91822F809583237F
:100F80008C93E8812E2BEFCF8FB7F894EC912E2B1A
:100F90002C938FBFEACF3FB7F89480919303909141
:100FA0009403A0919503B091960326B5A89B05C024
:100FB0002F3F19F00196A11DB11D3FBFBA2FA92FD8
:100FC000982F8827BC01CD01620F711D811D911DD5
:100FD00042E0660F771F881F991F4A95D1F7089541
:100FE0008F929F92AF92BF92CF92DF92EF92FF9239
:100FF0004B015C010E94CB076B017C010E94CB0777
:101000006C197D098E099F09683E73408105910521
:10101000A8F321E0821A9108A108B10888EEC80E51
:1010200083E0D81EE11CF11C81149104A104B104D9
:1010300029F7FF90EF90DF90CF90BF90AF909F90F7
:101040008F9008952FB7F89460918F03709190035B
:1010500080919103909192032FBF08950895089570
:101060000895DC01ED91FC910190F081E02D09944F
:10107000EF92FF920F931F93CF93DF938C017B012D
:10108000D0E0C0E0F701EC0FFD1F6491662361F032
:10109000D801ED91FC910190F081E02DC8010995F6
:1010A000892B11F02196EECFCE01DF91CF911F91C8
:1010B0000F91FF90EF900895AF92BF92CF92DF9281
:1010C000EF92FF920F931F93CF93DF936C017B01FD
:1010D0008B01040F151FEB015E01AE18BF08C0178E
:1010E000D10759F06991D601ED91FC910190F08101
:1010F000E02DC6010995892B79F7C501DF91CF91C4
:101100001F910F91FF90EF90DF90CF90BF90AF9025
:101110000895EF92FF920F931F93CF93DF93EC010B
:10112000EC80FD806E157F050CF070C057FF04C089
:10113000240F351F50E040E08E819F81FA01E20FBD
:10114000F31F8E179F071CF49C01241B350B1216EE
:1011500013060CF05BC0922F842F8695869586959A
:101160008E9DD0018F9DB00D11246A0F7B1FAF8D16
:10117000B8A1A60FB71F477049F188E0841B482F1C
:10118000682F70E0FB01EF51FA4FE491281708F047
:1011900063C0621B71092FEF30E002C035952795BF
:1011A0006A95E2F7E2230130110539F0B0F102301F
:1011B000110561F58C91E82702C08C91E82BEC9326
:1011C000941720F12C813D81A20FB31FE92FE41B5E
:1011D000E83078F00230110521F58E2F9C91909522
:1011E0009C932C813D81A20FB31F88508830B0F7AB
:1011F000E770EE2359F0F0E0E752FA4FE491013046
:101200001105F9F010F10230110519F1DF91CF91BC
:101210001F910F91FF90EF900895E0958C91E82336
:10122000CECF81E00115110509F480E081959E2F54
:101230008C932C813D81A20FB31F98509830C0F73A
:10124000D7CF8C91E82BEC93E1CFE0958C91E823FC
:10125000FACF8C91E827F7CF0130110509F4ADCF13
:10126000E0F20230110509F4A5CFAE0DBF1DAECFDF
:101270000F931F93CF93DF9377FF04C0260F371F81
:1012800070E060E0DC011496CD91DC91FB01E20F8F
:10129000F31FCE17DF071CF49E01261B370B121617
:1012A00013064CF5FA0157FD3796A3E0F595E7953F
:1012B000AA95E1F7EC9FD001ED9FB00DFC9FB00D1A
:1012C00011246A0F7B1FDC015F96ED91FC91E60F04
:1012D000F71F4770552781E090E001C0880F4A95BD
:1012E000EAF7482F0130110559F0A8F02E0F3F1FE3
:1012F00002301105E1F0DF91CF911F910F91089518
:101300002E0F3F1FE217F307B1F38191DF01119711
:10131000842B8C93F7CF80952E0F3F1FE217F30796
:1013200051F39191DF01119798239C93F7CFE21726
:10133000F30709F38191DF01119784278C93F7CF8D
:101340000F931F93FA01DC0156964C915697423049
:10135000E9F04330A1F1413061F514964D915C9173
:10136000DA01AE1BBF0BFD01E21BF30B77FD0BC0D7
:10137000DC0116964D915C916417750724F4AB015E
:10138000BF010E9438091F910F91089514964D9145
:101390005C91DA01A61BB70BBD0161507109DC013C
:1013A00016964D915C91DA01AE1BBF0BFD01E21B5D
:1013B000F30B77FDE8CFAF010E948908E4CF1696C2
:1013C0004D915C91DA01A61BB70BBD01615071090B
:1013D000CDCF0F931F93FA01DC0156964C9156978F
:1013E0004230A9F0433091F1413019F514964D91F6
:1013F0005C91DA01AE1BBF0BFD013197F7FD04C014
:10140000AB01BF010E9489081F910F9108951496A6
:101410004D915C91DA01A61BB70BBD01DC0116965C
:101420004D915C91DA01AE1BBF0BFD013197621B40
:10143000730BF7FDE9CFDC0116964D915C91E41733
:10144000F50714F7AF010E943809DECF16964D91CB
:101450005C91DA01A61BB70BBD01621B730BCECFEB
:10146000FC0177FD64C080859185681779070CF0D1
:101470005EC057FD5CC082859385481759070CF004
:1014800056C086898230B1F0833029F1813041F431
:1014900084819581841B950BAB01BC01615071095E
:1014A0002130310509F108F443C02230310509F437
:1014B00063C0089584819581DC01A61BB70BBD0133
:1014C0006150710986819781DC01A41BB50BAD01C8
:1014D00041505109E5CF86819781861B970BBA0150
:1014E000AC0141505109DCCFCA0157FD0796A3E07A
:1014F00095958795AA95E1F7A481B5818A9F90017A
:101500008B9F300D9A9F300D1124620F731F078C33
:10151000F0A1E02DE60FF71F4770552721E030E0DE
:1015200001C0220F4A95EAF78081822B80830895BB
:10153000CA0157FD079633E0959587953A95E1F7EF
:10154000A481B5818A9F90018B9F300D9A9F300DA9
:101550001124620F731F078CF0A1E02DE60FF71F17
:101560004770552781E090E001C0880F4A95EAF75F
:10157000809590818923DACFCA0157FD079623E031
:10158000959587952A95E1F7A481B5818A9F900169
:101590008B9F300D9A9F300D1124620F731F078CA3
:1015A000F0A1E02DE60FF71F4770552721E030E04E
:1015B00001C0220F4A95EAF780818227B7CF0895AC
:1015C0008EBD00000DB407FEFDCF8EB508958CBD15
:1015D0009DBD08950895FC016370668B848195819B
:1015E00026813781613039F0633029F09187808717
:1015F00033872287089531872087938782870895CC
:101600002F923F924F925F926F927F928F929F9212
:10161000AF92BF92CF92DF92EF92FF920F931F9300
:10162000CF93DF93CDB7DEB76A970FB6F894DEBFDE
:101630000FBECDBF9A8F898F7A8369834A01D22EDC
:1016400018870F833701BC2CDC0159962D913C91F2
:101650005A972115310509F015C118968D919C9165
:101660001997681779070CF0D7C11A968D919C913C
:10167000481759070CF0D0C14C2C512CB6E0CB9E2A
:10168000600D711D11247C876B87161617060CF0F0
:10169000C3C1EA2DF0E0FA87E98793E0EE0FFF1F60
:1016A0009A95E1F7F88BEF87CF01840F951F1816F5
:1016B00019060CF0B1C1A98DBA8D58968C91811183
:1016C00004C0BFEABD1508F4D394A98DBA8DED917D
:1016D000FC9111970284F385E02DCD010995B5E0C9
:1016E000DB9EC0011124E981FA81FC83EB83312C5C
:1016F000212C9C012B523F4F388F2F8B4A2D50E0CD
:101700005E8B4D8BEF89F88DE20DF31D44919E8227
:101710008D82D12CC12C69817A81620D731D7A8BE7
:10172000698B842F90E09C8B8B8BE98DFA8DA08147
:10173000B18140FF82C0F1E0BF126FC0AF126DC037
:101740001C96ED91FC912F813885A4014C0D5D1DF7
:1017500069897A89898D9A8D0995EB89FC89F59536
:10176000E7954E2F5FEFC51AD50A6D817E818D8971
:101770009E89680F791F7E836D8398E0C916D10416
:1017800081F6AFEF2A1A3A0AEB81FC81E40DF51DD0
:10179000FC83EB83F5E02F16310409F0B3CF2F81E2
:1017A000388526153705B9F0A98DBA8DED91FC91D4
:1017B000B1E0BB1257C0AB1255C069817A816B5F33
:1017C0007F4F0088F189E02D830128E030E0A401FB
:1017D000898D9A8D0995A98DBA8DED91FC911197FE
:1017E0000688F789E02DCD016A960FB6F894DEBF22
:1017F0000FBECDBFDF91CF911F910F91FF90EF9062
:10180000DF90CF90BF90AF909F908F907F906F9020
:101810005F904F903F902F9009941E96ED91FC9110
:10182000EF80F88409851A8592014D815E816B8174
:101830007C81898D9A8D099590CF2F8138852615C9
:10184000370509F48ACF31E0B31207C0A31205C0EF
:101850001C96ED91FC91930178CF1E96ED91FC9131
:101860007301E0CF6B857C85641975090684F78563
:10187000E02D73010F8518899201A401898D9A8D3D
:101880000995A9CFF90134969491329745915491D5
:10189000D91AB7E0DB9E400D511D1124F9012591A5
:1018A00034913C8B2B8BFA0125903490FA013296BF
:1018B000749031963491398B32966490319644907D
:1018C00041E04C1518F04A1508F07FC0662D062C33
:1018D000000C770B7C836B83842D042C000C990BFC
:1018E0009E838D83A98DBA8DED91FC911197028411
:1018F000F385E02DCD010995512CD12CC12CEA2D79
:10190000F0E0FA87E9872B2D30E03C872B87A40194
:10191000440D511D47FC5A95588F4F8B69817A8130
:10192000660D711D67FC7A957E876D877989C7166C
:1019300008F051CF2C2D30E04D815E81420F531FB6
:10194000A985BA854A9FC0014B9F900D5A9F900D63
:101950001124FC01E80DF91DF88BEF87852D612C12
:101960004F89588D420F531F5E8B4D8B671408F0C3
:1019700050C044244394480E877041F4C10101963D
:10198000EB89FC89E20DF31DD4901C01D7FE19C030
:10199000A98DBA8DED91FC91662D70E0B1E0BB127E
:1019A00019C0AB1217C02D853E85620F731F0484CA
:1019B000F585E02D2F8138854D895E89898D9A8D39
:1019C0000995DD0C6394842DD1CF1E821D821C826B
:1019D0001B8288CF4B815C81640F751FAB85BC85F2
:1019E0006A9FC0016B9F900D7A9F900D11246981B1
:1019F0007A81680F791F0684F785E02DEF80F884DF
:101A000009851A859D014F855889898D9A8D09957B
:101A1000D8CF570CC3948ACF6A960FB6F894DEBF1E
:101A20000FBECDBFDF91CF911F910F91FF90EF902F
:101A3000DF90CF90BF90AF909F908F907F906F90EE
:101A40005F904F903F902F9008958F929F92AF920A
:101A5000CF92EF92FF920F931F93CF93DF93EC01FE
:101A6000262F898D9A8D009709F051C06A30D1F4E4
:101A70001D861C868D8948E0849F900111248E85E7
:101A80009F85820F931F9F878E8781E090E0DF9173
:101A9000CF911F910F91FF90EF90CF90AF909F90BB
:101AA0008F9008956D3089F3CC88AD888F89882315
:101AB000C1F08C859D8536E0C39E800D911D11245B
:101AC000488559854817590764F44E855F851D86FA
:101AD0001C8638E0A39EC0011124840F951F9F87A8
:101AE0008E87EA88FB88088919894E855F856C8511
:101AF0007D85CE010E94000B2C898C859D8546E05A
:101B0000249F800D911D11249D878C87BECF6A3044
:101B100069F41D861C86FC013896E4912D898E851A
:101B20009F85E29F800D911D1124ADCF6D3009F48A
:101B3000ACCFFC0134963491631708F4A6CF3296EB
:101B4000E491E61708F4A1CFFC01329685909490B9
:101B5000462F431B342F47E0349F800C911C1124E7
:101B6000F401329634913196E4913323A9F1EE23B6
:101B700099F1CC88F4013596E491AD884F894423DE
:101B800001F10E2E000CFF0BE30FF11DCE9EA00104
:101B9000CF9E500D11246C857D85460F571F68859B
:101BA0007985641775076CF44E855F851D861C86E4
:101BB000FC013896E491AE9E400D511D11245F87C3
:101BC0004E87EA88FB88088919894E855F856C8570
:101BD0007D85CE010E94000BF4013496E4912C899E
:101BE0008C859D85E29F800D911D11248DCF6F9274
:101BF0007F928F929F92AF92BF92CF92DF92EF929D
:101C0000FF920F931F93CF93DF93EC016B015A0167
:101C100039014801E881F9810284F385E02D0995B5
:101C2000E881F9810288F389E02D87019301A501FC
:101C3000B601CE010995A501480D591D4150510924
:101C4000E881F9810288F389E02D9301B601CE0184
:101C50000995E881F9810088F189E02D9401A501B9
:101C6000B601CE010995C60CD71CB60161507109A9
:101C7000E881F9810088F189E02D9401A501CE0168
:101C80000995E881F9810688F789E02DCE01DF9179
:101C9000CF911F910F91FF90EF90DF90CF90BF9069
:101CA000AF909F908F907F906F9009946F927F92EA
:101CB0008F929F92AF92BF92CF92DF92EF92FF925C
:101CC0000F931F93CF93DF935C01EB016A014901EE
:101CD00038018701DC01ED91FC916217730719F55A
:101CE000641675062CF0962D872D3A01C92ED82E34
:101CF0009601261937092F5F3F4F048CF58DE02D93
:101D0000A301BE01C5010995DF91CF911F910F91EC
:101D1000FF90EF90DF90CF90BF90AF909F908F900B
:101D20007F906F9008954615570591F42617370751
:101D300024F0892D4B01C22FD82F9E012819390973
:101D40002F5F3F4F068CF78DE02DA601B401DACF4F
:101D50000284F385E02D0995D501ED91FC9104886D
:101D6000F589E02D83019401A601BE01C501099505
:101D7000D501ED91FC910688F789E02DC501DF9131
:101D8000CF911F910F91FF90EF90DF90CF90BF9078
:101D9000AF909F908F907F906F900994EF92FF92F9
:101DA0000F931F93DC011A960D911C911B971896A7
:101DB0002D913C911997ED91FC9100A0F1A1E02D9E
:101DC0007B0150E040E070E060E009951F910F91C9
:101DD000FF90EF9008954F925F926F927F928F9253
:101DE0009F92AF92BF92CF92DF92EF92FF920F93AA
:101DF0001F93CF93DF936C012B015A0139014801E6
:101E0000DC01ED91FC910284F385E02D0995E2015E
:101E1000640C751CD601ED91FC91C615D7055CF4D8
:101E20000088F189E02D87019401A501BE01C6015A
:101E300009952196EFCF0688F789E02DC601DF913D
:101E4000CF911F910F91FF90EF90DF90CF90BF90B7
:101E5000AF909F908F907F906F905F904F9009947C
:101E60008F929F92AF92BF92CF92DF92EF92FF92AA
:101E70000F931F93CF93DF93EC015B014A0169013C
:101E8000E881F9810284F385E02D099595012C0DF7
:101E90003D1D21503109E881F9810488F589E02D43
:101EA00078018401A401B501CE010995E881F98189
:101EB0000688F789E02DCE01DF91CF911F910F9118
:101EC000FF90EF90DF90CF90BF90AF909F908F905A
:101ED00009948F929F92AF92BF92CF92DF92EF922E
:101EE000FF920F931F93CF93DF93EC015B014A01A5
:101EF00069017801E881F9810284F385E02D099573
:101F0000C80CD91C860101501109E881F9810488A7
:101F1000F589E02D9501A401B501CE010995E8816F
:101F2000F9810688F789E02DCE01DF91CF911F91CD
:101F30000F91FF90EF90DF90CF90BF90AF909F9068
:101F40008F9009940895EF92FF920F931F93DC01F5
:101F5000ED91FC9100A0F1A1E02D09951F910F9149
:101F6000FF90EF9008950F931F93DC01ED91FC918A
:101F7000068CF78DE02D09951F910F9108950F9311
:101F80001F93DC01ED91FC91048CF58DE02D0995FA
:101F90001F910F910895DC01ED91FC910084F18572
:101FA000E02D09942F923F924F925F926F927F9211
:101FB0008F929F92AF92BF92CF92DF92EF92FF9259
:101FC0000F931F93CF93DF9300D000D000D0CDB7F5
:101FD000DEB73C016A013E832D83FC82EB8258010F
:101FE000A41AB50AB7FE03C0B194A194B1088D80BC
:101FF0009E80861A970A97FE03C091948194910857
:102000008A149B045CF0902F812F0D811E819D838B
:102010008E839C2D8D2D6B01692F782F0C151D053E
:102020005CF09D818E817E836D83692F782F902F48
:10203000812F8601C92ED82E1601201A310A2B01B4
:102040002D813E81421A530A57FE03C05194419498
:102050005108710137FE03C03FEFE31AF30AF5940C
:10206000E7948D819E81861797075CF5A1E0B0E02B
:10207000BA83A983C016D1064CF1D301ED91FC912E
:102080000484F585E02D2B813C81A8016D817E8142
:102090008A149B041CF04D815E81B801C30109952F
:1020A000E418F508F7FE0AC02D813E8189819A81E6
:1020B000280F391F3E832D83E20CF31C0F5F1F4F47
:1020C000D9CF2FEF3FEF3A832983D4CF26960FB68F
:1020D000F894DEBF0FBECDBFDF91CF911F910F915E
:1020E000FF90EF90DF90CF90BF90AF909F908F9038
:1020F0007F906F905F904F903F902F90089508953C
:10210000CF93CFB7F89480911D02811127C0E2EFE1
:10211000FBE08491E6E0FCE09491E82FF0E0EE0F24
:10212000FF1FE653F44FA591B491EC91E92321F4FC
:1021300061E08AE00E941F0761E08AE00E948F0749
:102140008CB580618CBD8CB580648CBD61E08DE008
:102150000E948F0761E08BE00E948F0780911D0233
:102160008F5F80931D02CFBFCF9108952091D3013F
:10217000260F3327331F21323105ECF42091F7016C
:10218000FC0190E080E0243069F082E00895A091A5
:10219000D3012191AC014D545E4FA40FB52FB11D59
:1021A0002C930196861798F38091D301680F609362
:1021B000D30180E0089581E008951092F70181E055
:1021C0008093F9011092F80161E082E10E941F07FB
:1021D00061E083E10E941F07E9EBF0E080818E7FE0
:1021E000808380818D7F808388E48093B80085E43C
:1021F0008093BC000895CF93DF9391E09093B20158
:102200008823B9F0C091B800D091BA008091BC0089
:102210008A7B8093BC0060E082E10E941F0760E03F
:1022200083E10E941F070E94DD10D093BA00C09383
:10223000B800DF91CF910895E091240280912302AC
:10224000E81730F4F0E0E357FE4F808190E0089506
:102250008FEF9FEF089590912402809123022FEF3A
:102260003FEF981748F4E92FF0E0E357FE4F208145
:1022700030E09F5F90932402C9010895809123026A
:1022800090912402891B990B0895CF92DF92EF92CF
:10229000FF920F931F93CF93DF937C01CB018A01B1
:1022A00020919A03222389F0EB016B01C40ED51E05
:1022B000CC15DD0569F06991D701ED91FC91019094
:1022C000F081E02DC7010995F3CF642F0E94B6106D
:1022D000C801DF91CF911F910F91FF90EF90DF9098
:1022E000CF900895CF93DF931F92CDB7DEB7698368
:1022F00020919A032223F9F020919703203258F07D
:1023000021E030E0FC013383228390E080E00F90F5
:10231000DF91CF91089580919803E82FF0E0E35981
:10232000FE4F998190838F5F8093980380939703EA
:1023300081E090E0ECCF61E0CE0101960E94B61002
:10234000F7CF682F8BE993E00C947211CF92DF9254
:10235000EF92FF920F931F93CF93DF93D091970348
:1023600081E0D13208F09CC0C09199030E94CB0754
:102370006B017C018091F70181116CC082E0809338
:10238000F70181E08093F9018FEF8093F6011092BD
:102390001B02D0931A02ADE6B1E0EAEFF1E080E073
:1023A000D8138DC010921C0280911C02CC0FC82B38
:1023B000C0931C028091F801813009F084C0109212
:1023C000F8010E94CB076B017C0180911C02809375
:1023D000BB008091AE019091AF01A091B001B0918E
:1023E000B101892B8A2B8B2BA1F00E94CB07009186
:1023F000AE011091AF012091B0013091B1016C1983
:102400007D098E099F09061717072807390708F461
:1024100042C08091BC0083FDD8CF85EC8093BC0086
:102420000E94CB076B017C018091F701823009F497
:102430004CC08091F6018F3F09F469C08091F6018C
:10244000803209F466C08091F601803309F463C0DC
:1024500084E026C08091AE019091AF01A091B001BF
:10246000B091B101892B8A2B8B2B09F483CF0E9469
:10247000CB070091AE011091AF012091B0013091D6
:10248000B1016C197D098E099F09061717072807E6
:10249000390708F06FCF8091AD010E94FB1085E0F5
:1024A000109298031092970310929A03DF91CF91A4
:1024B0001F910F91FF90EF90DF90CF9008959D9125
:1024C00091938F5F6DCF85EEA9CF8091AE019091F2
:1024D000AF01A091B001B091B101892B8A2B8B2B58
:1024E00009F4A2CF0E94CB070091AE011091AF0179
:1024F0002091B0013091B1016C197D098E099F09BD
:10250000061717072807390708F08ECFC4CF80E0D9
:10251000C7CF82E0C5CF83E0C3CFCF92DF92EF92E7
:10252000FF921F93CF93DF93EC016B01142F8D8DDE
:102530009E8D892B09F447C089A10E943D068D8D8F
:102540009E8DDC01ED91FC910190F081E02D60E029
:1025500009957601CC24C394D12C11508D8D9E8D7C
:102560001F3F41F1B0E2CB16D10490F00E94A611BA
:1025700089A10E943D068D8D9E8DDC01ED91FC911F
:102580000190F081E02D60E00995CC24C394D12C1A
:102590008D8D9E8DF7016491DC01ED91FC91019090
:1025A000F081E02D0995BFEFCB1ADB0AEFEFEE1AB1
:1025B000FE0AD3CFDF91CF911F91FF90EF90DF9074
:1025C000CF900C94A611EDA5FEA590818BA98095C6
:1025D000892380837B01115070F1F70184912B8D49
:1025E0003C8D232B31F00E94E00AFFEFEF1AFF0A27
:1025F000F2CF28E030E040E8E9A5FAA599A9582FE4
:102600005423A9F05081952B9083EBA5FCA59081D4
:102610005AA9952B9083EBA5FCA550819AA990957A
:102620009523908346952150310931F7DECF5081B3
:1026300090959523E9CFDF91CF911F91FF90EF9077
:10264000DF90CF9008951F93CF93DF93EC018D8D92
:102650009E8D892BF9F0162F89A10E943D068D8D44
:102660009E8DDC01ED91FC910190F081E02D60E008
:1026700009958D8D9E8DDC01ED91FC910190F0818D
:10268000E02D612F09958D8D9E8DDF91CF911F914A
:102690000C94A611ADA5BEA59C918BA9809589230C
:1026A0008C938B8D9C8D892B31F0862FDF91CF9170
:1026B0001F910C94E00A28E030E080E8A9A5BAA5B3
:1026C00099A9462F4823C1F04C91942B9C93ABA51C
:1026D000BCA59C914AA9942B9C93ABA5BCA54C91FD
:1026E0009AA9909594239C9386952150310931F7AE
:1026F000DF91CF911F9108954C9190959423E6CF4F
:102700001F93CF93DF93EC01162F8D8D9E8D892B18
:10271000B1F12DA93EA94FA958AD60E074E284EF54
:1027200090E00E942E3220513109410951095695FD
:102730004795379527952093B80066EA111167EA07
:10274000CE010E9423138D8D9E8D892B41F129ADE1
:102750003AAD4BAD5CAD60E074E284EF90E00E9476
:102760002E32205131094109510956954795379527
:1027700027952093B800DF91CF911F9108958B8DFD
:102780009C8D892B21F08EAD9FAD0E94E70AEFA5AD
:10279000F8A990818CA9809589238083CECFEFA55D
:1027A000F8A980819CA9892B8083E5CFCF92DF9205
:1027B000EF92FF920F931F93CF93DF93EC018D8DD8
:1027C0009E8D892B09F481C02DA93EA94FA958AD32
:1027D00060E074E284EF90E00E942E3220513109D3
:1027E0004109510956954795379527952093B8008B
:1027F00044E065ED75E0CE010E948D128C819D81D3
:102800008034910509F071C060E2CE010E9423136B
:102810006C81615ECE010E9423132E813F81C9012C
:10282000079697FD079633E0959587953A95E1F7DA
:102830002C813D81829F7001839FF00C929FF00C50
:1028400011240F8D18A18D8D9E8DE00EF11E892B08
:1028500009F476C089A10E943D068D8D9E8DDC0114
:10286000ED91FC910190F081E02D60E40995CC247C
:10287000C394D12C8D8D9E8DE016F106E9F1B0E266
:10288000CB16D10490F00E94A61189A10E943D06AA
:102890008D8D9E8DDC01ED91FC910190F081E02DFC
:1028A00060E40995CC24C394D12C8D8D9E8DF801C4
:1028B00061918F01DC01ED91FC910190F081E02D9F
:1028C0000995BFEFCB1ADB0AD5CF8B8D9C8D892B59
:1028D00021F08EAD9FAD0E94E70AEFA5F8A9908187
:1028E0008CA980958923808383CF60E0CE010E94EC
:1028F00023136C8161508ECF0E94A6118D8D9E8D09
:10290000892B09F452C029AD3AAD4BAD5CAD60E006
:1029100074E284EF90E00E942E3220513109410987
:10292000510956954795379527952093B800DF9123
:10293000CF911F910F91FF90EF90DF90CF9008956E
:10294000EDA5FEA580819BA9892B8083E016F10669
:10295000A9F2F80181918F012B8D3C8D232B19F069
:102960000E94E00AF3CF28E030E040E8E9A5FAA5AC
:1029700099A9582F5423A9F05081952B9083EBA54A
:10298000FCA590815AA9952B9083EBA5FCA55081BD
:102990009AA990959523908346952150310931F756
:1029A000D5CF508190959523E9CFEFA5F8A98081E7
:1029B0009CA9892B8083BBCF90E080E00895E091B3
:1029C0001B01E150E43090F48E2F90E0FC01EE0FFB
:1029D000FF1FE80FF91FEA5DFD4F8091810380839F
:1029E000809111018183809110018283089582304A
:1029F00061F120F4813061F060E818C08330B1F0FB
:102A00008430D1F7E62FE0956E2F660F660B0EC06F
:102A1000862F90E0FC01E859FF4F603430F067FDED
:102A200007C0E7EEF0E0E81BF90B6491862F0895EC
:102A3000FC01E851F040603C20F0E7E6F1E0E81BE3
:102A4000F90BE4916E2F6095F1CF67FD02C0660F20
:102A5000EDCFEFEFF0E0E61BF1096E2FF8CFCF934B
:102A6000DF9390913202992399F160910601869F3C
:102A7000B0011124660F672F661F770B80916803E2
:102A8000680F711D87FD7A956F3F710519F014F07D
:102A90006FEF70E077FF02C070E060E0EB0184E070
:102AA000CC0FDD1F8A95E1F780911E020E943D0642
:102AB0006D2F8BE993E00E9472116C2F8BE993E0EC
:102AC0000E9472118BE993E0DF91CF910C94A611D3
:102AD000DF91CF910895EAE7F0E08081877D8083E0
:102AE00010926C010895F89410926B0110926A0193
:102AF00090930101809300011092560381E080932E
:102B00006C01109269014093680180E680937C001B
:102B1000686E60937A0010927B0078940895CF924B
:102B2000DF92EF92FF920F931F93CF93DF9300D02A
:102B300000D000D0CDB7DEB7FC01CB018E010F5F16
:102B40001F4F77FF1AC02DE220839195819591093F
:102B50003196E12C2AE0C22ED12C21E02E0DE00E80
:102B6000F12EF11CB6010E94C634805DD7018C9312
:102B7000CB01E22E009789F705C0009751F780E35B
:102B8000898321E0822F90E09801280F391FBF012F
:102B90000217130739F0D9014E919D01DB014D93C6
:102BA000BD01F6CF8E0F9F1FFC01108226960FB637
:102BB000F894DEBF0FBECDBFDF91CF911F910F9173
:102BC000FF90EF90DF90CF900895CF93FC01CB0161
:102BD00077FF06C02DE2208391958195910931966A
:102BE0006AE070E00E94C634C82FCF010E948F15A2
:102BF000FC018EE28083C05DC1831282CF01029608
:102C0000CF910895DC01ED91FD918081ED91FD91D1
:102C10009081ED91FD916C9163708E2309F0646059
:102C20009F2309F06860EFE1F6E1E60FF11D65957D
:102C300065956D936D917D918D919D91099423C0C2
:102C40001AC012C016C010C01EC009C014C013C0E4
:102C500006C019C009C00DC007C00DC014C0625025
:102C60007040804090400BC0615070408040904068
:102C700006C06E5F01C06F5F7F4F8F4F9F4F9E9367
:102C80008E937E936E930895809166019091670173
:102C90000C94021680916401909165010C940216C7
:102CA000CF93DF93EC018B85823060F4F894CE01F2
:102CB0000E9402166F81788589859A857894DF91C4
:102CC000CF910895F894F6CF823021F08330A9F0A7
:102CD00080E0089570936501609364018AE496E151
:102CE0009093030180930201809169008C7F816041
:102CF00080936900E89A81E008957093670160937A
:102D0000660184E496E1909305018093040180912B
:102D10006900837F846080936900E99AECCF0F9308
:102D20001F93CF93DF93EC01062F142F62E0802FC7
:102D30000E948F0762E0812F0E948F07802F90E012
:102D4000FC01E851F44FE491F0E0EE0FFF1FE25276
:102D5000F44FA591B491B983A883FC01E450F44FDA
:102D600024912C83812F90E0FC01E851F44FE491F1
:102D7000F0E0EE0FFF1FE252F44F459154915B8358
:102D80004A83FC01E450F44FE491ED831F821886DE
:102D900019861A868BE39FE10197F1F78C9128231E
:102DA00091E009F490E0DA018C91E82309F0926057
:102DB0009E83BE01802F0E9464168B87BE01812FE7
:102DC0000E9464169B85890F8B87DF91CF911F919D
:102DD0000F910895FB0101900020E9F73197AF01B1
:102DE000461B570BDC01ED91FC910280F381E02D35
:102DF00009948F929F92AF92BF92EF92FF920F939E
:102E00001F93CF93DF93CDB7DEB7A1970FB6F8949A
:102E1000DEBF0FBECDBF7C01FA01CB0119A222306B
:102E200008F42AE08E010F5D1F4F822E912CB12CE9
:102E3000A12CBF01A50194010E942E32F901CA0103
:102E40006A300CF5605DD8016E938D01232B242B25
:102E5000252B79F790E080E0109721F0BD01C701A4
:102E60000E94EA16A1960FB6F894DEBF0FBECDBF42
:102E7000DF91CF911F910F91FF90EF90BF90AF9096
:102E80009F908F900895695CDECFCF92DF92EF9292
:102E9000FF920F931F93CF93DF936B01072E000CCC
:102EA000EE08FF0877FF1BC0EC016DE20E943108BD
:102EB0008C0144275527BA014C195D096E097F0919
:102EC0002AE0CE010E94F916800F911FDF91CF9169
:102ED0001F910F91FF90EF90DF90CF9008952AE01F
:102EE000B701A601DF91CF911F910F91FF90EF9055
:102EF000DF90CF900C94F9160F931F93CF93DF932D
:102F0000EC010E9438088C0160E671E0CE010E945D
:102F1000EA16800F911FDF91CF911F910F910895B5
:102F2000CF93DF93EC01683E83E0780778F4CE011D
:102F30000E94E51509900020E9F7219788E488832D
:102F40008AE789831A82DF91CF910895CB016AE0E5
:102F500070E00E94B234CE010E948F15EBCF0F9328
:102F60001F93CF93DF93CDB7DEB72A970FB6F894B0
:102F7000DEBF0FBECDBF80917A0390917B0321E02D
:102F8000FC01248B258B4091810321E030E041300E
:102F900011F430E020E0FC01318B208B21E030E0A7
:102FA000413011F030E020E0FC01338B228B15869C
:102FB00014861786168620911B01223009F481C0E1
:102FC00008F075C061ED70E0213009F477C08091A0
:102FD0007A0390917B034091810321E030E04230FD
:102FE00011F430E020E0FC01318B208B21E030E057
:102FF000423011F030E020E0FC01338B228B24E2E0
:1030000030E0358724871786168620911B012330F0
:1030100009F490C008F05BC0213008F07AC08091BC
:103020001B01843009F0A9C000917A0310917B0341
:103030002091810381E090E0233011F490E080E062
:10304000F801918B808B81E090E0233011F090E0CB
:1030500080E0F801938B828B82E490E095878487EF
:1030600017861686E091100180911101853009F0D4
:1030700069C06E2F70E0CE0101960E94E515BE0179
:103080006F5F7F4FC8010E94EA1666E580917A0360
:1030900090917B030E9431082A960FB6F894DEBF08
:1030A0000FBECDBFDF91CF911F910F9108952330B7
:1030B00059F063EC70E0243009F089CF0E943808A1
:1030C00086CF6CEC70E0FACF67EC70E0F7CF24307D
:1030D00009F0A5CF60911101662389F1663008F0EF
:1030E00065E06150770B660F771F660F771F6F578C
:1030F000744F44E050E0CE0101960E94DD31BE01E4
:103100006F5F7F4F80917A0390917B030E94EA1654
:1031100086CF60EC70E00E9438084091110150E0C9
:1031200070E060E02AE080917A0390917B030E9436
:10313000F91675CF6DEB70E00E94380870CF70E023
:1031400060E0D1CFEE23B1F0EF3008F0EEE0E150D7
:10315000FF0BEE0FFF1FEB56F44F65917491CE01FC
:1031600001960E949017BE016F5F7F4FC8010E94B9
:10317000EA1692CFF0E0E0E0ECCF833009F48CCF98
:10318000E0917A03F0917B039091810321E030E09C
:10319000933011F430E020E0318B208B21E030E0DF
:1031A000933011F030E020E0338B228B2EE430E0BE
:1031B00035872487178616866AEB70E0813011F018
:1031C00067EB70E0CF010E9438084091100150E099
:1031D00070E060E02AE080917A0390917B030E9486
:1031E000F9165ACF0E94C336FC01868197819C0153
:1031F000295F3F4F37FF02C0295F3F4F83E035957E
:1032000027958A95E1F784819581289FA001299FC0
:10321000500D389F500D112470E060E0878D90A113
:103220000C94DA36AF92BF92CF92DF92EF92FF9278
:103230000F931F93CF93DF93D82F0E946B1580912C
:103240007C038823C1F0809132028823A1F0809111
:103250001E020E943D0680E490E00E94A11190E0D1
:1032600080E00E94A11190E080E00E94A1118BE912
:1032700093E00E94A6118FEF8D0F843050F590E0FF
:10328000FC01EE0FFF1FE80FF91FEA5DFD4F808183
:1032900080938103118110931101C281C0931001A9
:1032A000D330E9F1D43009F452C0D23059F160E0A2
:1032B00086E00E948F0761E083E00E948F0760E054
:1032C00083E00E941F0780917A00887F846080934A
:1032D0007A00EEE4F2E080E091E0DF019C011D92D3
:1032E00021503040E1F710924D0210926703DF91B8
:1032F000CF911F910F91FF90EF90DF90CF90BF90F3
:10330000AF90089561E083E00E948F078FE790E01F
:103310000E944D0760E086E00E948F07DACF61E0EF
:1033200083E00E948F078FE790E00E944D0760E0E6
:1033300086E00E948F07109252031092530310925E
:1033400054031092550382E080930701C2CF61E0DD
:1033500083E00E948F0760E083E00E941F0760E027
:1033600086E00E948F07809132028823A1F080912D
:103370001E020E943D0680E490E00E94A11190E0B0
:1033800080E00E94A11190E080E00E94A1118BE9F1
:1033900093E00E94A61180E197E2A0E0B0E0809364
:1033A0000A0190930B01A0930C01B0930D0184E6E8
:1033B00090E0909309018093080110926A031092A3
:1033C0006B0310926C0310926D031530A9F1E1E0CC
:1033D000CC2321F0EC2FCF3008F0EEE0E150FF0BD2
:1033E000EE0FFF1FEB56F44F859194912AE9A22E20
:1033F00039E9B32E49E9C42E59E1D52EE12CF12C3F
:1034000000E010E09C0140E050E060E070E080E00F
:1034100090E00E94E134E0E1AE2EF7E2BF2EC12C35
:10342000D12C0E943B352093720330937303409359
:103430007403509375034DCF10927203109273036F
:10344000109274031092750344CF85ED8093BC00F5
:103450008091AE019091AF01A091B001B091B10106
:103460000796A11DB11D23E0B695A7959795879561
:103470002A95D1F72091BC0024FD03C01092F701DA
:1034800008954091AE015091AF016091B0017091EB
:10349000B101452B462B472B69F30097A105B105D8
:1034A00041F02AE22A95F1F700C00197A109B1097C
:1034B000E1CF8091AD010C94FB10FF920F931F930D
:1034C000CF93DF93EC01F62E08811981C8010E9489
:1034D000E631F81621F06F2DC8010E94EE31CE01C1
:1034E000DF91CF911F910F91FF900895CF93DF93BC
:1034F00000D0CDB7DEB79A838983CE0101960E94B2
:103500005D1A0F900F90DF91CF910895EF92FF9287
:103510000F931F93CF93DF9369EA90E080E00E94BE
:10352000761A60911B0185E090E00E94761A06E20F
:1035300012E0C6E0D0E0D8016C91CE010E94761A6C
:10354000F8016181CE0101960E94761AD801129687
:103550006C91CE0102960E94761A0D5F1F4F239642
:10356000C231D10541F76091680382E190E00E9489
:10357000761A6091060183E190E00E94761A8091AC
:103580007A0390917B03DC01ED91FC9100A0F1A105
:10359000E02DEE24E394F12C0AE010E020E830E086
:1035A00046E350E070E060E00995E0917A03F09125
:1035B0007B03138A128A118A108A84E090E095872F
:1035C000848787E390E09787868768EA70E0CF0179
:1035D0000E94380880917A0390917B030E94D61351
:1035E00064EF71E080E090E0DF91CF911F910F9147
:1035F000FF90EF900C94F0070F931F93CF93DF93FE
:103600008C01EB010E94E6318883C80101960E947B
:10361000E6318983CE01DF91CF911F910F910895FB
:103620000C94E6311F920F920FB60F9211242F9334
:103630003F938F939F93AF93BF9380918F0390910C
:103640009003A0919103B091920330918E0323E0F7
:10365000230F2D3758F50196A11DB11D20938E0320
:1036600080938F0390939003A0939103B093920360
:103670008091930390919403A0919503B091960348
:103680000196A11DB11D8093930390939403A09381
:103690009503B0939603BF91AF919F918F913F9106
:1036A0002F910F900FBE0F901F90189526E8230FB3
:1036B0000296A11DB11DD2CF1F920F920FB60F928D
:1036C00011242F933F934F935F936F937F938F9327
:1036D0009F93AF93BF93EF93FF93E0910401F09119
:1036E00005010995FF91EF91BF91AF919F918F9146
:1036F0007F916F915F914F913F912F910F900FBEEE
:103700000F901F9018951F920F920FB60F921124D1
:103710002F933F934F935F936F937F938F939F93D9
:10372000AF93BF93EF93FF93E0910201F0910301F8
:103730000995FF91EF91BF91AF919F918F917F91EB
:103740006F915F914F913F912F910F900FBE0F900E
:103750001F9018951F920F920FB60F9211242F935E
:103760003F934F935F936F937F938F939F93AF9309
:10377000BF93EF93FF938091B900887F803609F45F
:103780004AC0F0F5883209F4A7C018F5803109F471
:103790009BC0B8F4882309F4F9C0883009F494C0B8
:1037A000FF91EF91BF91AF919F918F917F916F9119
:1037B0005F914F913F912F910F900FBE0F901F90EF
:1037C0001895883109F488C0803251F78093F6014A
:1037D00014C0803409F49DC040F48033B9F38833B9
:1037E000F9F68093F60185ECB0C0803509F485C008
:1037F000883509F496C0883499F60E94251AD0CFEE
:10380000883909F48CC038F5883729F050F48836A7
:1038100011F0803729F683E08093F7011092F501CB
:1038200057C0883809F47BC0803919F0803809F016
:10383000B7CF8091F501803208F071C0E091F501B9
:1038400081E08E0F8093F5018091BB00F0E0EB5298
:10385000FE4F80833DC0803B39F0E0F4803A09F4AC
:1038600079C0883A09F09CCF84E08093F7011092E8
:10387000D4011092D301E0912102F0912202099526
:103880008091D30181110FC081E08093D301109208
:10389000B30109C0803C09F4A6CF883C09F4A3CF4A
:1038A000883B09F07DCFE091D40181E08E0F8093B9
:1038B000D401F0E0ED54FE4F80818093BB009091E5
:1038C000D4018091D30129C080911C028093BB0058
:1038D00085EC8093BC0064CF90911B0280911A020A
:1038E000981758F5E0911B0281E08E0F80931B0220
:1038F000F0E0E650FE4F8081E9CFE0911B0281E0CD
:103900008E0F80931B028091BB00F0E0E650FE4FCB
:10391000808390911B0280911A029817C8F285E863
:10392000D8CFE0911B0281E08E0F80931B02809123
:10393000BB00F0E0E650FE4F80838091F9018111D9
:103940005CCF81E08093F80184EA8093BC00109200
:10395000F70126CF85EC8093BC001092F70180918F
:10396000F501803230F4E091F501F0E0EB52FE4FCA
:1039700010826091F50170E0E0911F02F091200249
:1039800085ED91E009951092F5010ACF1092F601AC
:1039900034CF1F920F920FB60F9211242F933F93A3
:1039A0008F939F93EF93FF9380916C01882359F03D
:1039B0009091690180916801981780F48091690164
:1039C0008F5F80936901FF91EF919F918F913F915C
:1039D0002F910F900FBE0F901F90189510926901B4
:1039E00020916A0130916B01809100019091010159
:1039F0002817390740F780916A0190916B019C016B
:103A00002F5F3F4F30936B0120936A012091790023
:103A1000825B9D4FFC01208320916A0130916B01F4
:103A200080910001909101012817390760F281E02F
:103A30008093560310926C0180917A00877D809369
:103A40007A00C1CFCF93DF93CDB7DEB76F970FB6B4
:103A5000F894DEBF0FBECDBF789484B5826084BD7C
:103A600084B5816084BD85B5826085BD85B5816082
:103A700085BD80916E00816080936E001092810000
:103A800080918100826080938100809181008160BB
:103A9000809381008091800081608093800080917C
:103AA000B10084608093B1008091B0008160809308
:103AB000B00080917A00846080937A0080917A00CF
:103AC000826080937A0080917A00816080937A008E
:103AD00080917A00806880937A001092C1001092E1
:103AE000330287E480937C0080917A008064809325
:103AF0007A0080917A0086FDFCCF809178009091C9
:103B0000790021E0843691050CF020E02093340206
:103B1000843691050CF0DEC4109224021092230228
:103B200010929803109297030E94DD108EE298E0A5
:103B300090932202809321028FE298E090932002DA
:103B400080931F028CE08093B80062E082E10E94C3
:103B50008F0762E083E10E948F0710E6812F0E94A9
:103B60003D068BE993E00E94A6118111AAC410932F
:103B70001E0281E0809332028091320280937C03A6
:103B8000F09034028CE090E0FF2009F4A6C40E947B
:103B90009E358C0141E160E1C8010E948F161093AF
:103BA00083030093820363E171E081E090E00E946F
:103BB000FC1A80911301909114018130910541F01C
:103BC000019631F081E090E090931401809313010D
:103BD00082E090E00E94101B809339028D7F11F0EB
:103BE000109239026EE071E083E090E00E94FC1ACE
:103BF00080910E0190910F010197CC9730F085E0F4
:103C000090E090930F0180930E0185E090E00E9478
:103C1000101B9FEF980F943008F465C481E08093E7
:103C20001B01FF2009F46AC40E9480108CB58C7FB0
:103C30008CBD8DB581608DBD80E490E00E949E3585
:103C4000FC011382128220E830E03583248380E473
:103C500090E0978386833187208793878287168AAF
:103C6000158614861786168681E0858B848B2FEF48
:103C70003FEF338B228B318B208B878B108E128EF4
:103C8000118E28E331E03183208325E232E0348F46
:103C9000238F168E158E10A2178E9FEF94A395A3D7
:103CA00099E096A39AE097A398E090A790E596AF45
:103CB00087AFF0937B03E0937A03C0907A03D090B0
:103CC0007B03D60116962D913C91C901079697FD6D
:103CD0000796A3E095958795AA95E1F7F6012481CB
:103CE00035817C01E29EC001E39E900DF29E900D15
:103CF00011240E949E35D60190969C938E935F97D7
:103D0000892B09F40CC1C6010E94F418F6018681C2
:103D1000978164817581AC0181970CF42CC4405467
:103D2000510957FF02C04F5F5F4F55954795625548
:103D3000710977FF02C06F5F7F4F75956795E0E46B
:103D4000EE2EF12C02E510E02BED37E0C6010E94CB
:103D5000470682E0D60192968C9392975D968D915C
:103D60009C915E97892B09F420C416968D919C91A5
:103D7000809709F018C48CE3F60181A31092240205
:103D80001092230210929803109297030E94DD1064
:103D90008EE298E090932202809321028FE298E0D5
:103DA0009093200280931F02D60198968C9187FDF4
:103DB0001FC061E00E948F0761E0F60180A50E94AC
:103DC0001F0761E070E080E090E00E94F00760E093
:103DD000D60198968C910E941F076AE070E080E0FF
:103DE00090E00E94F00761E0F60180A50E941F07A5
:103DF000D6015D968D919C915E97892B09F467C4DD
:103E0000D5962D913D914D915C91D89760E074E2EB
:103E100084EF90E00E942E3220513109410951096E
:103E200056954795379527952093B80044E067EF5E
:103E300075E0C6010E948D12F60166816150C601CF
:103E40000E94231344E063EF75E0C6010E948D12C7
:103E5000D60192968C9160E1813009F064E1C6014F
:103E60000E94231344E06FEE75E0C6010E948D129C
:103E70008FE8F60185AF848195818038910509F03E
:103E80003BC4868197818034910509F043C482A1A7
:103E9000813009F04FC48FE9D601DD968C9312E191
:103EA0006AEDC6010E942313612FC6010E942313ED
:103EB00061E8C6010E942313F60165ADC6010E94A8
:103EC000231369EDC6010E942313D60192968C91AB
:103ED00062E2813009F061EFC6010E94231346E0DF
:103EE00069EE75E0C6010E948D12F601858D968DF2
:103EF000892B09F421C421AD32AD43AD54AD60E04E
:103F000074E284EF90E00E942E3220513109410981
:103F1000510956954795379527952093B80080917C
:103F20007A0390917B03DC01ED91FC91008CF18D83
:103F3000E02D60913902099500917A0310917B037D
:103F4000C8010E94F418FF24F394F801F48AF58A5A
:103F500081E090E0938B828B918B808BC8010E94D3
:103F6000F41882E0D80154968C93549755968C930C
:103F7000559780E1C82ED12C1D96DC92CE921C97CD
:103F80008AE090E01F969C938E931E9765EC7AE0F2
:103F9000C8010E943808E0917A03F0917B03F48A0B
:103FA000F58AD586C48680E290E09787868767EB9E
:103FB0007AE0CF010E94380880917A0390917B03C8
:103FC000FC011586148628E330E037872687209188
:103FD000340262EB7AE0211102C06FEA7AE00E94BB
:103FE000380880917A0390917B03209133026AEA2A
:103FF0007AE0211102C065EA7AE00E9438088091D7
:104000007C03882371F080917A0390917B03209147
:10401000320260EA7AE0211102C06BE97AE00E9484
:10402000380880917A0390917B030E94D61360E256
:1040300073E080E090E00E94F00761E083E00E947E
:104040008F0762E085E00E948F0760E086E00E94B3
:104050008F0760E087E00E948F078091B100887F22
:1040600081608093B10090E080E00E94101B893A4B
:10407000C1F169EA90E080E00E94761A61E081E097
:1040800090E00E94761A60E082E090E00E94761A4A
:1040900065E083E090E00E94761A61E085E090E0C0
:1040A0000E94761A06E010E060E0C8010E94761ACD
:1040B00062E0C80101960E94761A61E0C80102968A
:1040C0000E94761A0D5F1F4F0231110569F760E0FB
:1040D00082E190E00E94761A60E883E190E00E941D
:1040E000761A82E190E00E94101B8093680383E1BE
:1040F00090E00E94101B80930601803218F480E843
:1041000080930601A6E2EA2EA2E0FA2E06E010E075
:10411000CC24C394D12CAA24A394C8010E94101BC0
:10412000982ED7018C93C80101960E94101BB82EBF
:10413000F7018183C80102960E94101BD7011296D5
:104140008C93B3E0B91510F4F7011082F3E0CF16A9
:10415000D10409F40EC324E0C216D10409F40EC33D
:1041600032E0C316D10409F4F1C291E0BB2021F082
:104170009B2D993008F098E090932702982F8B3070
:1041800008F09AE090932802811102C0A0922802C0
:104190008FEFC81AD80A0D5F1F4F93E0E90EF11C8C
:1041A0000231110509F0B9CF80911B010E9412194B
:1041B000DE011D96BA8BA98B10918D0310938C0391
:1041C00080911B0180931A0185E00E94F60621E090
:1041D000009709F020E020938D03892B09F0EAC2B3
:1041E000111111C00E942208609388037093890303
:1041F00080938A0390938B0381E0809387031092CE
:10420000860310928503809187038823F1F08091C3
:10421000860381111AC00E94220800918803109120
:10422000890320918A0330918B03601B710B820BF1
:10423000930B683E73408105910538F00E94DF14AE
:104240000E94861A81E080938603B0908D030091CE
:10425000820310918303BB20C9F1809184038111F3
:104260000C94042F8091850381110C94502D809122
:104270008603882311F40C94502D0E942208C090CC
:104280008803D0908903E0908A03F0908B036C1927
:104290007D098E099F09683B7B408105910510F4DB
:1042A0000C94502D81E08093840380938503809348
:1042B0001901C8010E9450160E94743360931501C1
:1042C000709316018093170190931801C090150107
:1042D000D0901601E0901701F090180180918403AE
:1042E000882311F40C94582DA0901301B090140160
:1042F000C8010E9450160E9474332B013C0120E03B
:1043000030E040E450E4C701B6010E9460329B01F6
:10431000AC01C301B2010E94243418160CF084C20F
:104320004092150150921601609217017092180187
:1043300080911901833009F45FC208F041C28130D5
:1043400009F4C0C2823009F449C2809113019091EE
:1043500014018A159B0521F0B0921401A09213015B
:1043600080918D0390918C0391110C940E2F8823D2
:1043700011F40C94112F8091190165E00E94A6346C
:104380009F5F909319010E942208609335027093F9
:1043900036028093370290933802C0903502D09055
:1043A0003602E0903702F0903802C114D104E104E3
:1043B000F10411F40C94192F0E9422086C197D0944
:1043C0008E099F09603D77408105910510F40C949A
:1043D000192FEE24E394F12CFA82E9826091130103
:1043E000CE0101960E945D1A82E090E09A83898353
:1043F00060911401CE0101960E945D1A609139020C
:1044000082E090E00E94EE3160910E0183E090E046
:104410009A838983CE0101960E945D1A0E94DF145F
:104420000E94861A00917A0310917B03C8010E94B2
:10443000F418F801F38AE28AF18AE08A80E190E0D8
:104440009587848789E190E09787868766E27BE09D
:10445000C8010E94380880917A0390917B030E94E2
:10446000D61360E273E080E090E00E94F0071092C3
:104470008403109235021092360210923702109285
:10448000380280918203909183030E9450169B0111
:10449000AC01A0911301B09114010E9426320E9438
:1044A00074336093150170931601809317019093F4
:1044B000180180E090E0892B09F47ECE0E94000074
:1044C0007BCE1F5F143609F049CB10921E0210926A
:1044D000320252CB10927C0353CB0E949E358C014A
:1044E00044E062E059CB80931B01843009F099CB02
:1044F00080917C03882309F491CB93CB80E490E0F6
:104500000E949E35FC011382128220E830E0358340
:10451000248380E490E09783868331872087938784
:104520008287168A158614861786168681E0858B03
:10453000848B2FEF3FEF338B228B318B208B878B3C
:10454000108E128E118E88E391E091838083148EF9
:10455000138E168E158E10A2178E89E084A38AE022
:1045600085A38BE086A38CE087A38DE080A780E500
:1045700086AF17AE9ECB4052510957FF02C04F5F26
:104580005F4F559547956357710977FF02C06F5F7D
:104590007F4F7595679590E2E92EF12C03E710E0C7
:1045A0002BEF35E0D3CB8DE3E7CB61E096968C9192
:1045B0000E948F0761E0F60187A10E948F07D60154
:1045C00096968C919697082E000C990BFC01E85159
:1045D000F44FE491F0E0EE0FFF1FEC52F44F259101
:1045E0003491F60136A725A7FC01E450F44FE4917D
:1045F000D396EC93D39797968C91082E000C990B39
:10460000FC01E851F44FE491F0E0EE0FFF1FEC5293
:10461000F44FA591B491F601B0ABA7A7FC01E4500B
:10462000F44F9491F60194AB8C91E92FE82BEC9325
:10463000D6015B968D919C91892B19F00E94801078
:10464000B3CB61E0F60184A10E948F0761E0D6013F
:1046500095968C910E948F07F60184A1082E000C7C
:10466000990BFC01E851F44FE491F0E0EE0FFF1FCD
:10467000EC52F44F25913491D6019A963C932E93A7
:104680009997FC01E450F44FE491D196EC93D197C3
:1046900095968C91082E000C990BFC01E851F44F73
:1046A000E491F0E0EE0FFF1FEC52F44FA591B491AE
:1046B000F601B4A7A3A7FC01E450F44F9491F601CE
:1046C00092AB8C91E92FE095E823EC936DCBF6014A
:1046D000838D948D892B21F086AD97AD0E94E70ADA
:1046E000D6019F96ED91FC91D0979081D4968C91B4
:1046F0008095892380839ACB8036910579F48681D1
:104700009781409739F482A1813031F480E1D6015C
:10471000DD968C9312E0C4CB8FEAF9CF80349105FB
:10472000C9F7868197818097A9F782A1813011F41A
:1047300080E1B2CB8FECB0CBD60107A4F0A9E02D7D
:104740008081D4969C91892B8083E9CB91E0BB201A
:1047500021F09B2D993008F098E090932A0288234D
:1047600031F0873008F086E080932B0211CD81E094
:10477000FBCFA0922D02A0922E020ACDB11008C04C
:10478000A09230028823A1F08F3078F08EE00DC027
:104790009B2D45E04B1508F495E09093300254E0D2
:1047A0005B1580F7833308F082E380933102F0CC0D
:1047B00081E0FBCF112309F426CD1092870323CD8E
:1047C000843049F1853009F0C0CD809106018132F5
:1047D00008F4BBCD815080930601B7CD80910E01C6
:1047E00090910F018230910508F4AFCD019790931D
:1047F0000F0180930E01A9CD1092390280917A03A6
:1048000090917B03DC01ED91FC91008CF18DE02D0A
:1048100060E009959ACD809168038F3C0CF495CDAA
:1048200081508093680391CD20E030E040E450E473
:10483000C701B6010E945F329B01AC01C301B20106
:104840000E94CC3287FF81CD409215015092160113
:104850006092170170921801809119018330E1F084
:1048600078F4813099F1823009F06FCD80910E019A
:1048700090910F018C33910508F067CD0196B7CF69
:104880008430C9F0853009F060CD809106018F3FFA
:1048900009F45BCD8F5F9FCF82E0809339028091D6
:1048A0007A0390917B03DC01ED91FC91008CF18DFA
:1048B000E02D62E0AECF8091680382330CF045CDED
:1048C0008F5FAFCFAA24A394B12C3FCDAA24AA9482
:1048D000BA2C3BCD9FEF980F933010F00C94742DB1
:1048E000809381030C946A2D20E030E040E450E492
:1048F000C501B4010E94603220E030E040E85EE390
:104900000E9429349B01AC01C701B6010E942434E6
:10491000181614F00C94CD2D80921501909216016A
:10492000A0921701B09218010E94220860937D03A3
:1049300070937E0380937F039093800381E00C94B7
:10494000BA2D933091F491E020911201820F79F009
:104950008093120180911201981710F00C94CD2DC4
:1049600081E0809312010C94CD2D93E0EDCF9093D4
:104970001201F0CF980FD9F090931B0190911B0179
:10498000953018F091E090931B0190911B019430A9
:1049900011F00C94CD2D90917C0391110C94CD2DA0
:1049A0008C5F853031F080931B010C94CD2D94E009
:1049B000E3CF81E0F8CF21E0933021F028E094307C
:1049C00009F425E030911101830FD9F08093110192
:1049D00080911101022E000C330B82171306A1F0F7
:1049E0009CF081E080931101943011F00C94CD2D56
:1049F0008091100181508E3010F40C94CD2D84E004
:104A000010C020931101E4CF943011F00C94CD2DFF
:104A1000853071F780911001833310F40C94CD2D03
:104A200089E1809310010C94CD2D923061F1943086
:104A3000F9F0913029F59AE02AEF30911001830FB7
:104A4000422F022E000C550B8417150604F180939B
:104A5000100130911001892F990F990B3817190601
:104A600009F014F40C94CD2D209310010C94CD2D4D
:104A70009091110121E0953041F420E092E3DDCFE7
:104A800091E021E0DACF96E0FCCF9EE0D6CF909384
:104A90001001DFCF133009F472C1143011F00C94FF
:104AA000A03080911201882309F4FEC5843008F0FB
:104AB00083E08093120130901101332009F4F6C590
:104AC0003B8E332D363010F045E04B8F8B8D80932D
:104AD000110180917C038111ECC50E942208009194
:104AE0007603109177032091780330917903601B4E
:104AF000710B820B930B683C71058105910508F4DD
:104B0000D8CC0E9422086093760370937703809339
:104B100078039093790300917A0310917B03C80185
:104B20000E94F41881E0D80154968C9354975596BE
:104B30008C9355978AE090E01D969C938E931C97DA
:104B400088E190E01F969C938E931E976BEB7BE021
:104B5000C80117C081E00C94212E81E00C942C2E0A
:104B600080914202882379F080917A0390917B03AF
:104B7000FC011586148628E330E03787268765E335
:104B80007BE00E943808EB88FC880D891E892F89FC
:104B9000388D498D5A8DE216F3060407150710F07B
:104BA0000C94A0300E94AF170C94A0308091120199
:104BB000882309F46EC0843008F083E080931201EA
:104BC00010911101112309F466C0193008F018E0A2
:104BD00010931101A091100101E0AA2321F00A2FE6
:104BE000A73008F006E00093100180914D0281305B
:104BF00009F497C008F451C0823011F00C94A03031
:104C000080917A0390917B030E94F4180EE4C02EE9
:104C100002E0D02EF60120E08191DF01119790E0B3
:104C200095958795959587958C932F5F2038A1F75B
:104C30006EE770E080917A0390917B03F601018129
:104C40005FEFC51AD50A10E05B01A1E0AA1AB1080E
:104C5000408150E0DC01ED91FC9104A0F5A1E02D34
:104C6000EE24E394F12C95010995B501AB2811F7D9
:104C7000EB88FC880D891E892F89388D498D5A8DC6
:104C8000E216F3060407150708F075C00E94AF1777
:104C900072C081E093CF11E09BCF0E9422086B018C
:104CA0007C01402F4150550BDA012AE030E00E9490
:104CB000DA346C5E7F4F8F4F9F4F80904902909007
:104CC0004A02A0904B02B0904C02C818D908EA08DA
:104CD000FB08C616D706E806F90610F40C94A030B7
:104CE0001630C8F446E050E0411B5109440F65E01E
:104CF00080E890E00E94731581E080934D020E944D
:104D00002208609345027093460280934702909375
:104D100048020C94A0304BE3410F440F440F66E06F
:104D2000E7CF80915603882379F00E942208609390
:104D3000490270934A0280934B0290934C0282E0A6
:104D400080934D020C94A0300E94220800914502ED
:104D5000109146022091470230914802601B710B6E
:104D6000820B930B653671058105910510F40C9447
:104D7000A0300E946B1510924D020C94A03081E07F
:104D80008093120180916703813009F4EBC008F42D
:104D90006CC0823009F407C10E94220800914E03C2
:104DA00010914F032091500330915103601B710B00
:104DB000820B930B603571058105910510F40C94FD
:104DC000A03080907A0390907B030E942208609329
:104DD0004E0370934F038093500390935103C4018B
:104DE0000E94F4188B899C89AD89BE89EF88F88C64
:104DF000098D1A8D5AE0252E312C8E159F05A0079E
:104E0000B10710F0312C212CC0905203D0905303E5
:104E1000E0905403F0905503210108E0400E511C2E
:104E200020E030E040E751E4C701B6010E9424349D
:104E300018160CF0D7C320E030E040E251E4C7017F
:104E4000B6010E9429340E9443336B01CB0104E078
:104E5000803714E1910708F4F9C1093009F4F6C16B
:104E60000196969587950F5FF3CF0E9422080091D7
:104E70006303109164032091650330916603601B06
:104E8000710B820B930B683271058105910508F453
:104E900083CFC0905F03D0906003E0906103F090F7
:104EA000620320E030E040EA52E4C701B6010E940C
:104EB000CC3287FD04C010910701113019F581E053
:104EC0008093070180E090E4A6E9B5E480935B035A
:104ED00090935C03A0935D03B0935E0341E067E0B1
:104EE00080E091E00E94731581E0809367030E9447
:104EF000220860935703709358038093590390934B
:104F00005A034ACF20E030E048E453E4C701B60139
:104F10000E94CC3287FD02C0123091F482E080936F
:104F20000701E12C1CE3F12E06E116E4E0925B039D
:104F3000F0925C0300935D0310935E0340E0CFCFDB
:104F400083E08093070100E01CE326E936E4009348
:104F50005B0310935C0320935D0330935E0340E09A
:104F600066E0BECF80915603882321F082E08093D3
:104F7000670312CF0E942208009157031091580333
:104F80002091590330915A03601B710B820B930BD4
:104F9000693C71058105910508F4FECE0E946B15F0
:104FA00010926703F9CEEEE4F2E04EE453E090E0B5
:104FB0002FEF8191821708F4282F981708F4982F63
:104FC0004E175F07B1F7892F821B8E3108F40AC193
:104FD000290F3327331F3595279566E00E94A634A5
:104FE00001E090914E02291708F000E0AFE4B2E032
:104FF00070E060E0F0E0E0E010E041E050E090E0E0
:105000007901E81AF90A820F931F2D9130E00111FE
:105010000AC08217930764F41F5FBA01309709F43E
:1050200089C001E005C001E02E153F050CF400E049
:105030004F5F5F4F411521E0520739F7123008F4F6
:10504000D1C06E1B7F0B90E080E00E9472336B0139
:105050007C01412F4150550BBA01072E000C880BE3
:10506000990B0E9474339B01AC01C701B6010E94E9
:10507000D1329B01AC0160915B0370915C03809124
:105080005D0390915E030E94D1326B017C0120E0B0
:1050900030E040E751E40E94243418160CF0A2C01E
:1050A00020E030E44CE955E4C701B6010E94CC325F
:1050B00087FF98C08090520390905303A0905403B0
:1050C000B0905503C0925F03D0926003E0926103F9
:1050D000F092620320E030E040E251E4C501B40107
:1050E0000E94CC3287FF28C0C0925203D092530353
:1050F000E0925403F0925503C0905203D0905303B2
:10510000E0905403F090550320E030E040E752E493
:10511000C701B6010E94CC3287FD5EC020E030E0BE
:1051200046E153E4C701B6010E94CC3287FF58C064
:1051300082E053C0FA0175CFA5019401C701B60101
:105140000E945F322B013C0120E030E0A9010E9467
:105150002434181624F077FA709477F87094A50127
:105160009401C301B2010E94D1322DEC3CEC4CEC15
:105170005DE30E942434412C512C612C7FE3772E77
:1051800018163CF063E3462E542C63EB662E6EE358
:10519000762EA301920160E070E080E89FE30E9418
:1051A0005F32A50194010E9429344B015C01A701E3
:1051B0009601C301B2010E9429349B01AC01C501D3
:1051C000B4010E9460326093520370935303809342
:1051D00054039093550390CF81E08093070122C040
:1051E00083E0FBCF2AE939E949E55FE360915203A7
:1051F0007091530380915403909155030E94293478
:105200006B017C0120E030E040E751E40E94CC32A9
:1052100087FD13C0C0925203D0925303E09254030F
:10522000F09255030E942208609363037093640315
:105230008093650390936603B3CE1092520310924D
:105240005303109254031092550372CF88332AE00F
:10525000920730F4101624F4880F991F0150F6CFEE
:1052600023E5A22E2BE0B22E10E0AFEFBFE7712CAA
:10527000F50125913491AC01421B530B9A01BA01FF
:1052800057FF04C066277727641B750BAD01B7FF76
:1052900004C0442755274A1B5B0B6417750714F499
:1052A000D901172D739452E0A50EB11CECE07E12CB
:1052B000DFCF1B30B1F480579441AC0197FF04C09D
:1052C00044275527481B590B9D01B7FF04C02227CF
:1052D00033272A1B3B0B421753071CF40F5FDC01DB
:1052E00010E0E12FF0E0EE0FFF1FED5AF44F459173
:1052F000549123EC36E00E94DA349A0150E040E009
:105300000E94FC31CA01B9012AE030E040E050E0DF
:105310000E94FC31B22EA22EF2E3F2170CF035C13E
:1053200072E3A72E110F812F90E0FC01E65CF44F91
:10533000E491ED87FC01E55CF44FE491EE871F8674
:10534000E03209F41E8682E0D40154968C9354977F
:1053500055968C93E989FA8901900020E9F7CF01ED
:1053600029893A89821B930B4CE0489F9001499F01
:10537000300D112480E890E0821B930B97FD01967D
:1053800095958795D4011D969C938E931C97C1018A
:1053900004961F969C938E931E97BE01635F7F4F6A
:1053A000C4010E94EA16602F000F770B80917A03E8
:1053B00090917B030E944517E0917A03F0917B0363
:1053C00081E0848B858B8A2CAA0C9908B7FEE4C0F7
:1053D00084E090E09587848757864686B401CF01A4
:1053E0000E94451763E680917A0390917B030E94A7
:1053F0003108B6018E010F5F1F4FC8010E94901740
:1054000080917A0390917B03F80101900020E9F7E5
:105410003197E01BF10B26E02E9FA0012F9F500D2E
:10542000112420E830E0241B350B36952795FC012C
:1054300035872487F8E12F0E311CDC011F963C9242
:105440002E921E97B8010E94EA16EB88FC880D89FF
:105450001E892F89388D498D5A8DE216F30604076F
:10546000150708F0BCC004E210E0FFE4AF2EF2E044
:10547000BF2EEE24E394F12C68013BE0C30ED11C57
:10548000BCE07B2ED5018D915D01879DC00111246B
:10549000892F990F990BF601E81BF90BA801E0176A
:1054A000F1072CF0A601EC15FD050CF4AF0180917D
:1054B0007A0390917B03DC01ED91FC910084F185EE
:1054C000E02D21E030E0B7010995BFEFEB1AFB0AB0
:1054D000EFE7EE16F104B1F6EB88FC880D891E8922
:1054E0002F89388D498D5A8D74E3C72ED12CE21641
:1054F000F3060407150718F062E3C62ED12C80913D
:105500007A0390917B03DC01ED91FC9106A0F7A159
:10551000E02DEE24E394F12C06E010E024E630E0E8
:10552000A6016EE070E0099580917A0390917B036B
:10553000A60142505109DC01ED91FC91048CF58DDE
:10554000E02D01E010E02AE030E060E470E0099531
:1055500080917A0390917B03A6014F5F5F4FB40166
:10556000625C7F4FDC01ED91FC9100A0F1A1E02D88
:1055700004E010E025E030E00995E0917A03F09135
:105580007B0381E0848B858BFECA2EECB2160CF077
:10559000C9CE6EECA62EC6CEBB20A9F0B9E088E637
:1055A00090E0BB1514F08EE690E0958784875786CF
:1055B00046866BE2CF010E943108B40180917A03E4
:1055C00090917B030DCF8EE690E095878487578678
:1055D000468669E77BE0CF010E9438080ACF02E2E5
:1055E00010E043CF82E0F401848B858B8CE290E065
:1055F000958784875786468665E77BE0C4010E94CD
:105600003808E0917A03F0917B0381E0848B858BED
:1056100082E290E0958784870AE1200E311C37866C
:1056200026866BE67BE0CF010E9438082B893C89F7
:105630004D895E898F89988DA98DBA8D2817390774
:105640004A075B0768F544E3C42ED12C80917A03A6
:1056500090917B03DC01ED91FC9106A0F7A1E02D78
:10566000EE24E394F12C06E010E024E630E0A601FD
:105670006EE070E0099580917A0390917B03A6011A
:1056800042505109DC01ED91FC91048CF58DE02D27
:1056900001E010E02AE030E060E470E009956DCFB1
:1056A00032E3C32ED12CD2CF81E003CA51E05B8F0D
:1056B0000DCAE09110013B8D353009F467C0EE232F
:1056C00009F462C0EF3008F0EEE0E0931001E15021
:1056D000FF0BEE0FFF1FEB56F44F45915491BAE9C3
:1056E000AB2E19E9B12E09E9C02E89E1D82EE12CA3
:1056F000F12C00E010E09A0140E050E060E070E042
:1057000080E090E00E94E134C0900A01D0900B014B
:10571000E0900C01F0900D0156016701E12CF12C95
:105720000E943B35209372033093730340937403BC
:10573000509375030E94CB0780906E0390906F0387
:10574000A0907003B09071038B019C010819190996
:105750002A093B09C0900801D0900901F12CE12CE5
:10576000C016D106E206F306D0F10035134C210530
:10577000310508F482C060936E0370936F038093C9
:1057800070039093710379C0E1E09FCFE33308F099
:10579000E2E3E093100110927203109273031092EF
:1057A0007403109275034FEFE49FC001112462E36C
:1057B00070E00E94B234862F0E942F158B899C893D
:1057C000AD89BE89EF88F88C098D1A8D8E159F05DD
:1057D000A007B10708F0CFC410926903CCC400350C
:1057E00043EC14072105310530F680917203909146
:1057F0007303A0917403B09175038C8F9D8FAE8F4E
:10580000BF8F892B8A2B8B2BC1F1C901B801A7014E
:1058100096010E942E3229013A012C8D3D8D4E8D2C
:105820005F8DC301B2010E94963400916A0310910A
:105830006B0320916C0330916D03DC01CB01800F71
:10584000911FA21FB31F80936A0390936B03A093D1
:105850006C03B0936D03A7019601C301B2010E94CE
:105860009634860E971EA81EB91E80926E039092E3
:105870006F03A0927003B09271030E94CB074B019B
:105880005C01B0EA8B0EBFE09B1EA11CB11C0E9404
:10589000CB07681979098A099B0997FF59C40E94A7
:1058A000CB0700916E0310916F032091700330912C
:1058B0007103AB01BC01401B510B620B730B4C1508
:1058C0005D056E057F0518F3D701C601800F911F96
:1058D000A21FB31F80936E0390936F03A093700376
:1058E000B093710340906A0350906B0360906C0317
:1058F00070906D03672D7727882799278B8D0E94DD
:10590000F7140E942F158091720390917303A09158
:105910007403B0917503840D951DA61DB71D80936A
:105920006A0390936B03A0936C03B0936D03AFCFA6
:105930005601B2E0AB0EB11CF12CE12C10E000E0FE
:105940004601EDE18E0E911C2224239433243A94D7
:105950003601FEE16F0E711C2401B701660F672F3F
:10596000661F770B7195809111010E94F7142BE14E
:10597000829FC0011124B1010E94C634680D791DB7
:1059800080917A0390917B03DC01ED91FC9100847E
:10599000F185E02D6A157B050CF47DC06615770551
:1059A0000CF42B0121E030E0A201B80109950F5F52
:1059B0001F4FBEEFFB1A0038110571F6E091100180
:1059C000EE2309F46AC0EF3008F0EEE0E150FF0B7F
:1059D000EE0FFF1FEB56F44F659174918E010F5F30
:1059E0001F4FC8010E949017E0917A03F0917B034A
:1059F00081E0848B858BD8010D900020E9F7119709
:105A0000A01BB10B86E08A9F90018B9F300D112463
:105A100080E890E0821B930B969587959587848705
:105A2000C601829697878687B801CF010E94EA1641
:105A3000609111016150770B660F771F660F771F1A
:105A40006F57744F44E050E0CE010D960E94DD3157
:105A500080917A0390917B03EEE2CE0ED11CDC01A3
:105A60001D961C921E921C971F96DC92CE921E973A
:105A7000BE01635F7F4F0E94EA1680917A03909186
:105A80007B032CE330E0FC0135872487D786C6866C
:105A90006CE77BE068C4250185CFF0E0E0E098CFBB
:105AA000C0901501D0901601E0901701F0901801F8
:105AB000C8010E94501680918C03811115C0BB2033
:105AC00099F0809112019091810398130C946A24AB
:105AD000109281030E94220860937D0370937E03DD
