:100000000C94AC120C94D4120C94D4120C94D41200
:100010000C94D4120C94D4120C94D4120C94D919BC
:100020000C94D4120C94D4120C94D4120C94D412B8
:100030000C94D4120C94D4120C94D4120C94D412A8
:100040000C9437190C94D4120C94A7190C948119A0
:100050000C94D4120C94D4120C94D4120C94D41288
:100060000C94D4120C94D4127F7F7F7F7F7F7F7F8C
:100070007E7A716D6E6C6967656462615F5F5D5CFD
:100080005C5C5C5C5C5E5F6162646668696C6D6F41
:1000900071727576797A7B7D7F8082838485848393
:1000A00083899798908A8885807C797673706D6A49
:1000B00067574D4F5353545560747B797B81888DBE
:1000C000939AA0A7AEB5BBC1B8AFB7C2C7CACED1CD
:1000D000D4D7D9DADADAD9D8D6D3D0CCC8C3BEBC13
:1000E000C9D2CAC0BBB7B2ACA6A09B95908B868183
:1000F0007D8293968C7769696A6763615F5D5B58FF
:1001000057555453525146312A2D2E2D2B2B2B2B24
:100110002C2D2D2E2F3132333537393A3D3F404289
:100120004445484A4C4E515254565B6B7776747531
:10013000787A7F8A97A2ADBAC7CFD5D6D6D1CBC4AD
:10014000BCB4ABA9ADA89D8B81807E7975716D69BA
:1001500065625E5A5753504E4B4A48464544433FAA
:10016000332F32353637383B495A5E5C5F646769F6
:100170006C6F727477787B7D7F8FA5A8A5A5A9AADF
:10018000ABACACADACABABABA9A9A39286888B886A
:1001900086858584838382838383827E6D64666A99
:1001A0006A696A6B6C6D6F7072737577787A7C7E32
:1001B00080828E9FA39F9FA2A4A5A6A7A8A8A9AA54
:1001C000AAAAAAABABABABAB928C8E90927D7B8292
:1001D000878A8B8D90929496989B9D9F9A8D8C93F5
:1001E000989A9DA1A6AAAEB3B7BBBFC3C6CACDDBC2
:1001F000F4FCF7F7F9FAFAF1DDD7DAD9D5D1CDCB9E
:10020000D5E7E6DDD8D6D3CEC9C5C0BCB6B1ADA85A
:10021000A49F9A968B776C6C6A65615D59565452AF
:100220004732292B2C210F0B0F1111111315171900
:100230001B170E0F14181B1E222736484C4B4E530B
:10024000575A5D5F6265676A6C6E70737577797A0D
:100250006F676A7072737C909A9695979B9FD9D0BE
:10026000D0D0D5F8F1EEEBE7E3DFDBD5CEBCB0AE16
:10027000ABA595827D7D7975788A908881807F7D18
:100280007A7774726F6D6B68676C828F89848381F3
:1002900078747676757474737272717170706F6F32
:1002A0006F6F6E6E6E6E6E6E6E6D6D6E6D6D6E6E70
:1002B0006D6E6E6E6F6E624F4C5152515152525371
:1002C00053555657595E6C6F5A52585D5D5D5F616C
:1002D00062636566686A6B6D6E6F7173747577784B
:1002E000797B7C7E889A9E9A999B9C9D9C9D9C9DE7
:1002F0009C9C9C9B73777675744450515456595B03
:100300005E6164686B6F73828981828B9094989C24
:10031000A0A4A7ABAFB2B4B8C2DBE6E3E1E3E4E389
:10032000E2E1DFDDDAD6D2CBB7AAA7A7A19B9793EC
:100330008E8985817D7976726E6B686462605D5BA3
:1003400058565452514F4D4C4B4A4947392B2A2E3F
:100350002D2C2C2C2C2E2E31404C4A48494A3F350E
:10036000373C3D3C3E404142444547494B4C4F5150
:1003700052535656585A5C5E616E7D7F7C7C7F81FD
:1003800082828384858586878787B6B3B3B3B3CCEF
:10039000CCC8C6C2BEBAB6B2ADA9A5A19D9EA29E4A
:1003A0009894918E8A86827E7B7874706D69666877
:1003B00078817C7675757372716F6D6C6C6A696823
:1003C000635A585A5A5A595A5A5A5A5B5C5C5D5F7A
:1003D0005F6061626465656768696A6B6C6E6E70A8
:1003E0007270645C5F6364646567686A6C6D707189
:1003F0007375767D87837C7E82848587888A8B8CE3
:100400008E8F9192929495959797999A9A9B9C9E8C
:100410009F9FA0A1A2A2A2A6B5C0BEBABBBBBCBBF7
:10042000ADA4A5A4A3927B8484858687888A8C8DBD
:100430009092949187868B909396999CA0A4AFC537
:10044000CFCED0D4D8DBDEE0E1E2E3E3E3E2E1E0EB
:10045000DEDFECF2F0EDEDEBE5D7C6C1C0BCB7B125
:10046000ADA8A39F9B96928E8986827A695E5E5D17
:100470005A565452504E4D46342B2E2F2F2E2D258A
:1004800019181D1F20222427292B2E2B25272C2F1E
:100490003133373A3D4144474A4E5D6B6D6D6F7362
:1004A000777A7C7E8182847D75767C7E7E80818475
:1004B0008587898A8D8D99C4B5B8B9BBDCD4D7D668
:1004C000D3D2DADEDBD6D4D1CDC2B2ABAAA7A29505
:1004D0008681807D7874716E6B68666463615F5D30
:1004E0005C5C5C5B5B5B5C5C5F6F7C7B787B7E8079
:1004F00081817B7475787A7A7A7B7C7C7D8499A201
:100500009E9C9D9F9F9E9F9F9E9D9D9B99907D776A
:100510007A7A777573727271706F6E6E6E6E6E6DC1
:100520006D6D63514D5052504E505051525455566E
:1005300057585B5C5D60636567686969696B6D6F7F
:100540007071727374767E8B8F8C8E918B6C7473DA
:1005500073754E575C5D60626467696C7073767129
:100560006A6D72777A7D8083878B8F9397A3B4B7F8
:10057000B6B9BDBFC1C2C2C3C4C4C3C3C3C2C0BF76
:10058000BDBCB9B6B3AB9A9495948F8C8A8684829D
:100590007F7B7978848F8D89878888868481807E27
:1005A0007C7A776B5B57595957555D6D706B6868EE
:1005B0006867666565646464645F4E4446484544A4
:1005C0004444444444454749494A4D4F505152538D
:1005D00053515253555757585B5D5E606263656770
:1005E00068696B96918F9191A7B4A7A6A6ADB2AE9C
:1005F000A8A6A39F9A8E8281807E7A7673706D6B97
:1006000069676563615F5D5B595856565655555528
:100610005A676B686768696A645A5A5E60606163AA
:100620006567696A6C6D707172737578797B7D7EB0
:10063000818283858E9DA29F9D938A8C90908F90BE
:1006400090908F90909090919191929299ABB3AF3E
:10065000ACA497949798979798989796969596960E
:10066000969595969797969391929292929192944D
:1006700094949393939495969574717877776E5933
:10068000626566686B6E76828787867F7E83888BDD
:100690008D909396999DA0A4A7AAAEB1B4B7B9BB0B
:1006A000BDC0C1C1C2C3C4CDD6D8D4CCBFBBBDBCF4
:1006B000BAB7B6B3B0ADABA8A7A5A19F9C989694C6
:1006C00092908D888584838382807F7D7B78777507
:1006D00074737271706F6E6E6D6D6D6E6C6867673E
:1006E00068696B6B6B6B6C6B6B69696A6B6B6B6B63
:1006F0006B6B6B6B6C6C6D6C6E6F6F6F6E6B6A6B34
:100700006C6D6D6D6E6E6F6F7071717071717188DF
:100710009F93929394B4ADA2A19F9C9895928F8C35
:10072000888482807C797673706E6C6A6765646297
:10073000605E5D5B59575756555454545454555543
:1007400055555658595A5C5D5F5F616364656769CA
:100750006A6D6E6F6F7272737476777979797A7B5E
:100760007D7E818182838484858687888788888945
:100770008888888A8B8B8A8A8A8B8B8B8B8B8B8BD6
:100780008B8B8B8B8B8A8A888787878888888888D9
:10079000888987848484848482818182828382831D
:1007A0008483838282765F656868685751595B5C91
:1007B0005F6365686B6E7275787A7C7F8386898CDF
:1007C0009093979B9EA0A3A5A7A9AAACADAFB0B1EB
:1007D000B2B2B3B3B4B4B3B1B1B0AEACAAA8A6A42C
:1007E000A2A09D9A979593908E8C8B8A88868483FD
:1007F0008283817F7C7B79777573727271716F6E82
:100800006D6C6B6A6A6A6867676766656565666668
:100810006767666666656565666665646464646583
:100820006666666566666767666464656667676769
:1008300068696A6B6B6B6B6C6E6E6F798E8B87867B
:10084000878F9D99949292918F8E8D8B89878482C8
:10085000807E7D7B7977757574737271706E6E6D45
:100860006C6A6A6968686867676767686867686804
:1008700069696A6A6B6C6C6E6E707172737575758E
:1008800076787878797B7C7C7D7D7D7F7F808081A8
:10089000828383848585858585848585868787870A
:1008A00087878788898A8A8A8989898889898989BD
:1008B00089898887878888898989888888888887B6
:1008C00087878787878787868687878888888889B4
:1008D00089857675797A7C796F6E72757677787995
:1008E0007B7C7E808283848587888A8B8D8F9092A3
:1008F000949596979899999A9B9B9C9D9C9D9D9D5C
:100900009D9F9E9C9C9B9A9A989795949392929265
:100910009291908E8D8B8988888786858484848344
:10092000828181807E7D7C7C7B7B7A797978787806
:100930007878777675757575747474747474747367
:100940007372717171717170707070717071727297
:100950007272727272707071727272737374747573
:1009600076767676767676778288878584858C909B
:10097000908D8B8B8A89888685848382807F7E7D1B
:100980007C7B7B7A797979787877767674747373EF
:100990007372717171717272727272737373747334
:1009A000737474757677777879797A7A7B7B7C7CC7
:1009B0007D7E7F7F7F808181818181818182838330
:1009C0008383828282838383838282828282828300
:1009D00084858585848483828282828181818181EC
:1009E00080808080818181818282818080808080FE
:1009F00080808080808081818181828281807C77FB
:100A000077787A7A777373757778797A7A7B7D7D60
:100A10007E7F808181828384858586878889898A93
:100A20008B8C8C8D8E8F8F8E8E8F8F8F90908F8EE4
:100A30008E8E8E8D8D8C8C8C8B8A8A898988878707
:100A4000868585848483838383828280807F7F7E82
:100A50007E7E7D7D7D7C7C7B7B7A7B7B7B7A797ADD
:100A60007979797979797979797878787776767703
:100A7000777878777878797979797A7A7A7A7A7AE8
:100A800079797979797A7A7A7A7A7A7B7B7A7A7AC9
:100A90007A7A7A7A7E828483828283868787868541
:100AA00084848483828281807F7E7E7D7D7C7C7B4A
:100AB0007B7B7A79797979797877777777777777B0
:100AC0007777777878777878787879797A7A7A7AA0
:100AD0007B7B7B7B7B7C7D7D7C7D7D7E7E7E7E7E4D
:100AE0007E7E7E7E7F7F7F7F7F80808080807F8014
:100AF00080808080808080808081818182828282EB
:100B000082828282838383838383838383838384B8
:100B100084848484848484838383828282828383A2
:100B200083838383838383838382817F7D7D7C7DB5
:100B30007D7B7A797A7B7B7C7C7D7D7D7E7E7E7EF3
:100B40007E7F80808081828282838383838383848B
:100B50008585858585868686868787868686868638
:100B60008685868685858584848483838382828244
:100B7000828181818181818080807F7F7F7F7E7E75
:100B80007E7F7E7E7E7E7E7E7E7D7C7C7C7C7C7C91
:100B90007C7D7D7D7D7D7D7D7D7D7D7D7C7C7C7C8A
:100BA0007C7D7D7C7D7D7D7E7E7E7E7E7D7D7D7D72
:100BB0007D7D7D7D7D7D7D7D7D7D7D7D7D7D7E7E63
:100BC0007E7E7E7E7F7F7F7F7F7F7F7F7F7F7F7F39
:100BD0007F7F7F7F7F7F7F7F7F7F7F7F7F8082841C
:100BE0008687888A8B8D95A0A391755C49413D3B92
:100BF000383532302D2B2826263F98B6875B985CF7
:100C000037376844BEACD9E4E4E3E2E1E0DFDEDD9F
:100C1000DCDAD9D8D7D6D5D4D3D2CDC1BD914E2127
:100C20003C1E131315161718191B1C1D1E1F2021FF
:100C3000232424262728292A2B2C2E2F3032333404
:100C40003B3F5766769FC3E0DFECE6EDEEEDECEA66
:100C5000E9E8E6E5E4E3E2E1E0DFDEDCDBDAD9D88F
:100C6000D7D6D5D4D3D1D0CFCECCCAC9C8C3C2ABC6
:100C7000A6AC8475776A4B5534333E1835111D1177
:100C800015151515171718191A1B1C1D1E1F2122C3
:100C9000232425262728292A2B2D2E2F31323335A0
:100CA0003637393D3E3C413F4045616A619387ACF0
:100CB000C5BDECD4F0E7F1E4F2CFCDCCBCD7BBD6C8
:100CC000ECDEE8E6E6E5E4E3E3E1E0DEDEDCDBDA09
:100CD000D9D8D7D6D5D4D3D2D1D0CFCECCCBCAC900
:100CE000C7C6C5C3C3C1C0BFBEBDBCBBBAB8B8B719
:100CF000B6B5B3ADAEA29D8A745F4E0C3E0F0F0227
:100D00000B0304050608090A0C0D0E10111213142A
:100D1000151718191A1B1C1D1F20212223242526F4
:100D20002728292A2B2C2D2E303132343638383CC6
:100D30003B505898A06C9AA8BAA6B7E6CCEBECEF5B
:100D4000F0EEEEEDECEBE9E8E1E5E4E4E2E1E0DF32
:100D5000DEDDDCDBD9D8D2D1CAC8B6C2CDCECDB1AA
:100D6000C4C9C9C8C6C4BAAEB38EAEA3B49FA6A93F
:100D7000819F938F89929D754D5C365546541335EE
:100D8000100A0C0C0D1514111214151618191A1E30
:100D900028373625815D9474AF9C5C9BB6B5B5C190
:100DA0007F515D8D82A98C908C71273C3F3E5543CD
:100DB0003842838E6E679686709EBFC0BB7A908FD6
:100DC000A5D0C3B567515B4F918FAFAC5A5960B492
:100DD0009C979149783A6C3B42304D32302527251B
:100DE000262728292A2B2C2D2E2F30313337363920
:100DF0004344664D4C453F3E665F6A7DDAD0E8D09D
:100E0000F4E0EEF0F3F1F0F0EEEDECEBEAE9E7E61A
:100E1000E4E5E3E1E0DFDDCFBCD0CFD1D7B9C09AC4
:100E2000B77E9F71817A954A744D7C4884A46AA5E7
:100E30006D936C58A94DB1AB6732269896A4C7C480
:100E4000CA9FC08457653C4E19151617181A1B1CEB
:100E50001D1E1F212223242526272828292D343B27
:100E600037343332324038393A393A3B51658B772F
:100E70006C564A674F746061A0BEEDE5BFEDAFDF11
:100E8000E2F3F2F1F0EEEDECEBE9E7E7B7CBE3E408
:100E9000E2E1DFDEDDDDDBDAD9D8D7D6D5D4D3D2B7
:100EA000D0CACCCCCCCBCAC9898F375A202824676A
:100EB0002942193015131315161718281D1B1C1E4F
:100EC000203D28492C376E9EAD7E899B728D80AA6D
:100ED0008B9A6C64427B78A2B79C8136453E6B3D11
:100EE000302B292C2C2E37334460567A48543F3807
:100EF0003A5E49694B4543574B9A7E624C5B696841
:100F00009CA9D4EAF4F3D9EDF1EFEEEDE1EAE0E0EB
:100F1000CBDDCAD3DBDED8CA8BD3DEDCD0A5CCD305
:100F2000D0CEC6D4A1B14C7A4E8AC4D4D0CF9CB115
:100F30008FA8AA8F857173802F374EA1C298978092
:100F40006D3F3D6A91A177623C2D354049886E40E6
:100F50001B191F2D233E56845E5E3B69839AB09712
:100F60008D6E65658972788647372323277F9FA515
:100F70004C4C2B2F2B35372B2B2C2D2E313E3A580A
:100F8000426952475B68957C6C8B96785F79CAEDB5
:100F9000F0EFDEEAA4CCE0E8E9E5E5E1E1E2E1E05A
:100FA000DFDEDDB8A08DC1D1C4A5B9CDD0A4AFAD71
:100FB000C8ABC580804D462B3A3C1C151617191B33
:100FC0002C5A6D2F2F2339A2BBD7C8CDA667694AEB
:100FD000BCBCD7B6CA9AB183B58D57373223352CEE
:100FE0002C39368E568C4549335B6172B590B1729F
:100FF0005486CBDECBCCA748583E884C37273C7470
:1010000091B2B1B59083817EACAECCC498B69EB39C
:101010006B5C5758837BC08ABB5FA6BED8D2D3B95E
:10102000C17B8583C4B9B59E82AE7BAA799B5A23C6
:10103000382A44543E32316978664E32251E1E1FCE
:101040002527272A3B402E4D365B342F2E30313357
:101050003339558CBCDDE0C1E1E8DCE0E9E8E7E5E7
:10106000E4E3E2E0DFDEDDC0CFCEC6B9C8C1B7D36E
:10107000D5D3D2C5AB7B665E344456624D536F40C8
:101080002E201719191F3C6D37325091B3B6CBC3C0
:10109000B394989B8EBABECAB9A09A9788656F49D7
:1010A000482B1D1E1D1E3A81B2755E54485B5FAC15
:1010B000B0CBB38DC1A5B89BA2845B2D302D2D463E
:1010C000785150569B998F628F78785E3892589CF1
:1010D000D0D6D6A9B198938D6DB0A6AA70527DAD29
:1010E000D5DBD9CA9B7C5E906FA6A7B8A1879197E4
:1010F0008DA27D8E5B512D3451505AB8C3A97258C0
:10110000323B47845656292021202626222122239D
:10111000252628292B2C2D2F6F8CB7C7B4AD9EA95F
:10112000B8D1E5E8E7E6E5E4E2DBCCC3D9DACFD82D
:10113000A4BEACCCD6D7D5BFACA16B93918CA18506
:101140008A43653353743A3D1B1C19191E31476499
:10115000598E7D674C7F819EB09986A08AADCBAEBB
:1011600099706D2D413059636661605F79ADBFD074
:101170009F958C7F8C86A6D0CCD1B5AD94546D5CF8
:1011800071545656534A4F6BA6A7A89D91586A6151
:101190008B8B6FAA71A27190908D79524D553C4105
:1011A000637A9BA1AC8E9670757E99AB999D96954E
:1011B00095A795AD7D6B59252925324F3A6044702E
:1011C0006560947A845579513E36405A6A5C472E60
:1011D0002B292828292B2C2E2F30323C4D6A75863E
:1011E00084688FAFABE8E6EEEDEDECEAE9E8E7E620
:1011F000E5E1E3E1DFDFDEDDDBDAD9D7CDD2CED347
:10120000D2CECCB7B9A9A79B8B593617101214238D
:10121000202E2A2B29343A4B555849514F5B6E8D5D
:10122000A4AC9E785E51394847686F5E5C56545452
:101230006D77938A676F4B595F789B999F93917CE9
:1012400079917E9A6F7B6A8181A0B7CCBBAF9A8778
:101250006F7C81ABBAA69C9F918D929D9F87696799
:1012600043544669838FA68F9C98A9BCB0C0A1B394
:10127000B2A7B2BDCAD0C7A97F613D4A465E535CE2
:101280003F3E373D5161817A65594D5259637E70B9
:10129000805C442622222326252627292A2B2C352A
:1012A00031333334353C3E56728C948BA6B3BED169
:1012B000EFEDEFE9E7E6EAE9E9E7E6E5E4E2E1E0B8
:1012C000DFDEDDDCDBDAD9D7D6D5CCB99D6E63495C
:1012D000433F4840342E2626233E506159424A4619
:1012E0004B60788285876D685A535F616D576E6772
:1012F0006D7073827F7978745946476883837B6306
:10130000685D5A6F7D8B92917F707C819BA9AEB98D
:10131000A5AFA0A19B99969AA59C9390A1AEA3A5D9
:101320008682706268707E8D948E837A7D97ACBC65
:10133000C0C6B1B2BCC2CAD4D5D4C3BC999385804F
:101340008B898373675B5965627162574D3E444C6C
:1013500063685F5D473B2F2A333D3C2E26232223C3
:1013600025252928292A2B2D2E2F3133383D3F4C76
:101370005978758D7F9D97A1A9BACFE1E4E7E4E99B
:10138000E9E9E8E7E6E5E4E3E1E0DFDEDDDCDBDA3E
:10139000D2D2C4C4B4AF9CA38C837F706B6E696CD3
:1013A00063534F5C6271726B6F5B5D58686B776BF8
:1013B000695D6171697571695E6062665C58566DE0
:1013C000627562726E6B766B6F626C61615D6F717C
:1013D000755C5F58676E7E8D9B8F8B9797A18A9BFC
:1013E000959E8388797370757E71717B7F877C8011
:1013F0008E909893A79DA69FB1B6B1AEB8B7BFBE69
:10140000B8B9B1B8AFABA6A8A29B867F6F7C747C3D
:1014100075666656655F626064605E5157556159D6
:101420005B4E423C39322C2826262C303337393E4D
:101430004544403D44414B494B555B5B63667B8370
:10144000959E9B999BA3C0C6D5D1E3DFE6E6E0E27B
:10145000E0E2E0E0DDD9D7D4D5D1CFCFC5B6A59BAA
:10146000939091928E7E7E777F7066626A656360EC
:1014700067646E6E7C76756E6A6B56535A6D767BBA
:101480007F7E7F87898D7F797B7A796F6A757479A2
:10149000706D7272706F6A5C545D707D75747A796C
:1014A000756B6D6B6A6A6E75767278857E7573770B
:1014B000726D646868767F8D8F8E929DA29F9C9BD3
:1014C000A7A0A8A5B2B1B2B1B5ABA79D9D8F7A6E0A
:1014D00075787E8484837D776F6D636666675B4F06
:1014E000515762656A6966645E585150566669660E
:1014F0005F585B63646E6861585655585E686F74D8
:101500006766605D5C605E5B6164707C898F9DACCA
:10151000AEACAAB0AEB2B5B8C3C3C4C2C2C2C2C92F
:10152000BEBEABA69D9FACB0B5ADB3B2A39E8F8837
:101530007F756F686B6B686A6A6C6D6F605F54591A
:1015400060636E6E736A75817F83868A857D797C20
:101550008A9298A399988C847C76706D6C666B6E79
:101560007576838A8A847A6E6D636B657278716F23
:101570006B6B6D75716A5A565B5B656F7F898C9278
:101580008E8B87858082847777808591939C9C9AC7
:10159000927F7E747E78787A7281858C8B8F8F8A29
:1015A000817D8283848687898383847E796B676269
:1015B000656063676E777B898B88867D76727473CE
:1015C00072777279757377767567645C6266646C3E
:1015D0006F7E868B86777371736F726E74787F8976
:1015E00090989D9D999287898C8B9094929397A2C5
:1015F0009FA4A39D9E90877D878D8B918B857E7305
:101600006B62665D5B5D5F63687682898D8E8686C0
:101610008287817A7F838985848E929C939B929224
:1016200090939D9E9DA2A1A8A39B9D948A817B7B64
:101630007E7C85847E7B787F756E656A615E5A628A
:101640005E6064747A78747771716D6B74707B838B
:101650008480777B6D6B5C5B606263656E797A8397
:10166000868987857D7D766F6F72807A7C7F86889C
:10167000868B807C787F817B7E858D9690908E8A0C
:101680007D7F7A787779868A8784898B8E877F7D3C
:10169000787A746D6E7283868A868A867D77777B88
:1016A0007A7D81807C76777B7F7D74716B74787CAA
:1016B0008188949B9B92949A96958D898683828645
:1016C0008A8787848374726D72746D686B717576A6
:1016D0007B74726F6F6A62626771737978797D7CEF
:1016E000818585858585898489939EA5AAAAACA3D1
:1016F0009F9E9D999392979990898D88857C787506
:101700007172737271727F83867D8381837D7C7534
:101710007270737D7A767D7F8177727274716E7468
:1017200073756F747C79776C6E6966686F707577A6
:101730007772716C787B7D787C7D7977757D828B13
:101740008F938C85848787888685868A8688878814
:101750008583827E7E7E83858184888B8C8A898A3C
:1017600088837F797676797E7B7C7B7A7576777ACB
:101770007C7A7D7979787E84868A8785817E838468
:10178000868385848485838684838386807A797C36
:101790007C7C7E8285827E807F7C7B7C7D78797973
:1017A0007C78747673747475787A7C7A7C7B7B7EB3
:1017B000838885858383807D7F8383818384838001
:1017C0007F7E7E7E7D7F817D807E8381818282811E
:1017D0007D7D7F82838386858384868785878686D1
:1017E00083808183838283858585848585828081CA
:1017F000807E7D7E7E7C7C79787676797C7C7D7D32
:101800007E7B7B7E80838281817F7D7C80818081E5
:1018100080807E7C7E7E7E7F81807E7E7D808080DB
:101820007F807E7D7A7B7A7C7E7F7E7D7C7E7D7EE6
:101830007D7D7B7A7A7A7C7D7E807E7F7F818281CE
:101840008180818080808081808081817E7E7F8197
:10185000808181828080808283838583817E7E7C7B
:101860007E7E80807F7C7D7C7D7B7D7D7E7E7E7F9D
:101870007F807F808080807F807F8080808080806C
:10188000807F807F7F7F7E7D7D7D7D7D7E7E7F7F73
:101890007F80807F80817F7F7F80808180807F7F4D
:1018A0007E7D7E7E7F7F7F80808080808080808143
:1018B00081807F7E7F7F81818180807F7F7F7E7E30
:1018C0007E7F7F7E7F7E7F7E7F8080807F7F7E7F2A
:1018D0007F8081807F7F8080808080807E7E7E7E12
:1018E0007F7F7F807F807F7F7F7F7F7F7F7E7F7E08
:1018F0007E7E7E7E7E7D7D7D7E7E7E7E7F7E7E7E0A
:101900007E7F7F7F7F7F7F7E7E7F808080807F7FE6
:101910007F7F7F7F808080808080808080808080CB
:10192000807F8080808080807F7F7F7F7F7E7E7EC3
:101930007E7E7E7E7F7F80808080807F80808080B2
:101940007F7F7F7F7F7F807F7F7F7E7F7F7F7F7FA7
:101950007F7F7F7F7F7F807F7F7F7E7E7E7F7F7F99
:101960007F7F7F7F7F7F7F7F7F7F7F7F7F7E7F7F88
:101970007F7F7F7F7F7F808080808080808080806D
:10198000807F7F7E7E7E7E7F7F7F7F7F7F7F7F7F6A
:101990007F7F7F7E7E7F7F7F7F7F7F7F7F7F7F7F59
:1019A0007F7F7F7F7F7F7F7F7F7F7F7F7F7F7F7F47
:1019B0007F7F7F7F7F818587898B8C8B8373686234
:1019C0005E5B585654535251515151525355585CC5
:1019D000657793B4CCD7DCDEDEDDDBD9D6D3D0CCD3
:1019E000C9C5C1BCB8B2AB9F886748362F2B29291F
:1019F000292A2C2F32363A3E454F5D71859AADBA71
:101A0000C1C5C7C7C7C6C4C2BFBCB9B4B0A99F8E41
:101A100074594437312D2B2A2B2D2F3134373A3D31
:101A20004145494D52575E68788EA6BBCBD5DADC6E
:101A3000DDDCDBD9D6D3D0CCC9C5C1BCB7B2ADA52E
:101A400099856D5543362E29262627282A2C2F3294
:101A500035393D41454A505863758AA2B7C5CED342
:101A6000D5D5D5D3D2D0CDCAC7C4C1BDB9B6B2AE13
:101A7000AAA5A19C968F83715B4330241D1A191966
:101A80001A1C1E2225282D3034383D41464A4F5419
:101A900059606975879BAEC1CFD7DCDEDFDFDDDB48
:101AA000D9D6D3D0CCC8C5C0BCB8B4B0ACA8A49F5C
:101AB0009A948B7D6A564231261F1B1A1A1C1E21CE
:101AC00023272A2D32363A3D4246494D52565A5F17
:101AD00063676C727B8A9EB5CBDAE4E9EBEBEAE9EB
:101AE000E6E3E0DCD9D5D0CCC9C4C0BBB8B4AFAB59
:101AF000A7A29F9A96928D88827869533D291B13DD
:101B0000100F101214171A1E22262A2E33373B3FAD
:101B100044484C5054585C6064686C7074797F879A
:101B200093A4B9CFE1EDF2F5F4F3F1EEEAE7E2DFE9
:101B3000DAD6D2CDC8C4C0BCB7B3AFABA7A39E9B07
:101B400097938F8B87837F7A756D635646362517FB
:101B50000E0A08090B0E1115191D22262B2F3338DA
:101B60003C4145494D5155595D6165686C707477CC
:101B70007B7F83888E97A3B4C6D8E8F2F7F9F9F78C
:101B8000F5F2EEEAE6E1DDD8D3CFCAC6C1BDB8B4FE
:101B9000B0ACA8A4A09C9895918D8986827F7B7714
:101BA000736D685F5447392A1E140C080708090C26
:101BB0001013171B1F24282D31363B3F43484C5030
:101BC00054585C5F63666A6E7175787B7E81858729
:101BD0008A8D9093979AA0A6AFBBC9D7E5F1F9FC7F
:101BE000FCFBF8F5F1EDE9E5E0DBD7D2CDC8C4BFE9
:101BF000BAB6B1ADA9A5A19D9996928E8B88848124
:101C00007E7A7774706D68645D564D42372B21176C
:101C10000F09060506080A0E12161A1F23282D3171
:101C2000363A3F43474C5054585C6063676B6E7163
:101C300075777B7E808386898B8E909295979A9C10
:101C4000A0A3A7ADB4BDC8D2DCE5EDF3F6F7F6F47A
:101C5000F1EEEAE6E2DDD9D4D0CBC7C2BEB9B5B168
:101C6000ADA9A5A19D9995928F8B8885827F7C795E
:101C70007774726F6C6A686563605E5B57534E473A
:101C80003F352B2219120C07050506090C0F1418F5
:101C90001C21262A2F34383D42464B4F53575B5F59
:101CA00062666A6D7173777A7D808285888A8C8F8F
:101CB00091939596999A9C9D9FA1A2A5A7A9ACAF37
:101CC000B4B9C0C6CCD2D9DFE4E9EDEEEFEDEBE874
:101CD000E5E1DDD9D5D1CCC7C3BFBAB6B1ADA9A5B1
:101CE000A19D9A9692908C898683807D7A7875736F
:101CF000716E6C6A67656462605E5C5A58575553D2
:101D0000504D4945403A342F2A241F1C18161414EC
:101D10001517191C2023272B2F33383C4145494DDB
:101D20005155595D6165686C6F7275787B7E8184F1
:101D300087898B8E90929497989A9C9EA0A1A3A538
:101D4000A6A7A9AAACAEB0B1B3B6B9BDC0C4C8CC41
:101D5000D0D4D7DBDDE0E1E2E1DFDDDAD7D4D0CCEF
:101D6000C8C4C0BCB9B5B1ADA9A5A19D9A969390C0
:101D70008C898683807D7B787573716F6C6A6967E7
:101D8000656361605E5D5C5A595856555452514FB7
:101D90004D4C494744413D3936332F2D29272523C2
:101DA0002222222325282B2E3135383C4043474B15
:101DB0004F53575A5E6265686C6F7275797B7E818E
:101DC0008386888B8D8F91939697999B9D9EA0A1DA
:101DD000A2A4A6A7A8A9ABACADAEB0B2B2B4B6B738
:101DE000B8BABCBEBFC0C2C3C4C6C6C8C9CACACBC3
:101DF000CCCBCBCAC9C7C5C4C1BEBBB8B5B2AEABEC
:101E0000A8A4A19E9B9894918E8C888683807E7BCB
:101E1000787674716F6D6A68666563615F5E5C5B3E
:101E20005A595856555454535251504E4D4C4B4993
:101E30004746444341403E3D3C3C3B3A3A393939C0
:101E40003A3A3A3B3C3E3F414345484A4D5053564F
:101E5000595C5F6264686B6D707376787B7E80839B
:101E60008587898C8E90929496989A9C9D9FA1A22A
:101E7000A4A5A6A8A9AAABADAEB0B1B3B4B6B7B885
:101E8000BABBBCBDBDBDBEBEBDBEBDBDBCBCBBBB8B
:101E9000BAB9B8B7B7B6B5B4B2B1AFADABA9A6A42D
:101EA000A29F9C9A9794918F8C8A878583807E7C51
:101EB0007978757371706E6C6A6967656462615F69
:101EC0005E5D5B5A59585755545453525151504FB7
:101ED0004E4D4C4C4B4A494848484747474848496B
:101EE0004A4A4B4C4E4E4F505252535455555657EA
:101EF00058595A5C5D5F61626566686B6D6F71749D
:101F000076797B7D7F818486888A8C8E9092949569
:101F100097989A9C9D9FA0A2A3A5A6A8A9AAABAC9E
:101F2000ADAEAFAFB0B1B1B2B3B3B4B4B5B5B6B690
:101F3000B7B7B7B7B8B8B7B7B6B6B5B4B4B2B1AF4C
:101F4000AEACAAA8A6A4A2A09E9C9A979593918FA6
:101F50008C8A88868482807D7C7A787674737170AE
:101F60006E6D6C6B6968676664646261605F5E5D1C
:101F70005B5A59585756555453535251515050501B
:101F80005050505051515252535354545555565726
:101F90005758595A5B5C5D5D5F5F60616162636465
:101FA000656667686A6B6C6E6F71737576797A7C3B
:101FB0007E7F81838587898A8C8E9091939597986F
:101FC0009A9B9D9E9FA1A2A3A4A5A6A7A8A9A9AAE2
:101FD000ABABABACACACACACACACACACABABAAAA4A
:101FE000A9A9A8A8A7A7A6A5A4A3A3A1A09F9E9DB1
:101FF0009B9997959391908E8C8B8987868483810A
:10200000807F7E7C7B7A7877767574737271706E60
:102010006E6D6C6B6A696867676664646362616051
:102020005F5D5D5C5B5A5A59595858585758585813
:1020300059595A5B5B5C5D5E5F5F606162636465BA
:10204000666769696B6C6D6E6F70717272737375B0
:102050007576777878797A7C7C7D7F7F80828283C1
:1020600084858687888A8B8C8D8E8E8F90919293B3
:1020700094949596969697969797979797979797FC
:1020800097969796969697969696969696959494F2
:102090009494949392929190908F8F8F8E8D8D8D3A
:1020A0008C8C8A8A898888878686858484848383C1
:1020B00083828181818180808080807F7F7F7E7E1E
:1020C0007D7D7C7C7B7B7A79787776767675747487
:1020D000737271717171707070706F706F6F6F6FFC
:1020E0006F6F6F6F6F6F6F707070707070717171F4
:1020F00072727272737373737373747474757576AA
:1021000076767777787879797A7A7B7B7C7C7D7E36
:102110007F7F80808181828283838383848485859D
:1021200086878788888989898A898A8A8A8A8A8A21
:102130008A8B8A8A8A8B8B8B8B8B8B8B8B8B8B8BF3
:102140008B8A8A8A8A898989898988888787868605
:102150008585858484838383828282818180808057
:102160007F7F7F7E7E7E7D7D7C7C7C7C7B7B7B7AA3
:102170007A7A7979797979797979787878787877D4
:1021800077777777777777777777787878787878D9
:1021900079797A7A7A7A7A7B7B7B7B7B7C7C7C7C94
:1021A0007C7D7E7E7E7E7E7E7F7F7F7F7F7F7F7F4A
:1021B000808080808080808080808080808080801F
:1021C0008181818181818180808080808080808008
:1021D00080808080808080808080808080818181FC
:1021E00080818081818181818181818181818181E1
:1021F00081818181818080808080808080808080DA
:102200007F7F7F7F7F7F7F7F7F7F7F7F7F7F7F7FDE
:102210007E7D8C9183615D899C8F6A4D79AB9F7DBA
:10222000363CA6CB882A3D6DD7E33F3576EDCFA26D
:10223000506B706763421E86DFAC273A6BADF8C106
:102240009095F6D49D6C4B3A38405A5B6BB18968D7
:1022500033639DDCFCEBE7EBC98E5B3A2A2A3561E0
:102260007D767B767877738DB2C7CBC8C2B0937515
:102270005F524F525D737A7B808789898B909697E6
:102280009898948D847A74706E7072767B7E828357
:1022900084848687888989898884817D7A7877771C
:1022A000787A7B7D7F808181838384848584838128
:1022B0007F7D7B7A797A7A7A7B7C7D7E7F80808154
:1022C00081818181807F7E7D7C7B7B7B7B7B7B7C36
:1022D0007C7D7E7E7F7F7F7F7F7F7E7D7D7C7C7B24
:1022E0007B7B7B7B7B7C7D7D7E7E7E7E7E7E7E7E21
:1022F0007E7D7D7D7C7C7C7B7B7C7C7C7C7C7C7D1A
:102300007D7D7D7D7D7D7D7C7C7C7B7B7B7C7C7C09
:102310007C7C7D7D7D7D7D7D7D7D7D7D7D7C7C7CF2
:102320007C7C7C7C7C7C7C7C7C7C7C7C7C7C7D7DEB
:102330007D7D7D7D7D7D7D7C7C7C7C7C7C7C7C7CD6
:102340007D7D7C7C7D7D7C7C7C7C7C7C7C7C7C7CC9
:102350007C7D7D7D7D7D7D7D7D7D7D7D7D7D7D7DAE
:102360007D7D7D7D7D7D7D7D7D7D7D7D7D7D7D7D9D
:102370007D7D7D7D7D7D7D7D7D7D7D7D7D7D7E7E8B
:102380007E7E7E7E7E7E7E7E7E7E7E7E7E7E7E7D6E
:102390007D7D7E7E7E7E7E7E7E7E7E7E7E7E7E7E5F
:1023A0007E7E7E7E7E7E7E7E7E7E7E7E7E7E7E7E4D
:1023B0007E7E7E7E7E7E7E7E7E7E7E7E7E7E7E7E3D
:1023C0007E7E7E7E7E7E7E7E7E7E7E7E7E7E7E7E2D
:1023D0007E7E7E7E7E7E7E7E7E7E7E7E7F7F7F7F19
:1023E0007F7F7F7F7F7F7F7F7F7F7F7F7F7F7F7FFD
:1023F0007F7F7F7F7F7F7F7F7F7F7F7F80838689D7
:102400008C8F9295989B9EA2A5A7AAADB0B3B6B9A2
:10241000BCBEC1C4C6C9CBCED0D3D5D7DADCDEE0D2
:10242000E2E4E6E8EAEBEDEEF0F1F3F4F5F6F8F9C4
:10243000FAFAFBFCFDFDFEFEFEFFFFFFFFFFFFFFC4
:10244000FEFEFEFDFDFCFBFAFAF9F8F6F5F4F3F1F9
:10245000F0EEEDEBEAE8E6E4E2E0DEDCDAD7D5D355
:10246000D0CECBC9C6C4C1BEBCB9B6B3B0ADAAA7A5
:10247000A5A29E9B9895928F8C898683807C797685
:1024800073706D6A6764615D5A5855524F4C494686
:1024900043413E3B393634312F2C2A282523211F36
:1024A0001D1B1917151412110F0E0C0B0A09070624
:1024B0000505040302020101010000000000000004
:1024C0000101010202030405050607090A0B0C0EAF
:1024D0000F1112141517191B1D1F212325282A2C33
:1024E0002F313436393B3E414346494C4F525558C3
:1024F0005A5D6164676A6D707376797C00000000D4
:10250000240027002A0000000000250028002B00DE
:102510000000000023002600290004040404040431
:102520000404020202020202030303030303010282
:102530000408102040800102040810200102040851
:102540001020000000080002010000030407000042
:102550000000000000009E1F11241FBECFEFD8E036
:10256000DEBFCDBF11E0A0E0B1E0EAE9F2E502C0D4
:1025700005900D92A832B107D9F727E0A8E2B1E0A3
:1025800001C01D92A139B207E1F712E1CCEAD2E114
:1025900004C02197FE010E942629CB3AD107C9F732
:1025A0000E946C200C944B290C940000E0912206B0
:1025B000F0912306309719F08DE596E0099580910A
:1025C0005E06823F09F4BAC090F5803C09F499C0D8
:1025D000B8F4803909F44FC040F4E0912606F09138
:1025E0002706803809F44BC00895803A09F484C066
:1025F000E0912C06F0912D06803B09F440C008952F
:10260000803E09F462C040F4E0913006F09131065A
:10261000803D09F47AC00895803F09F47DC0E091BF
:102620003606F0913706813F09F49BC008958A3F32
:10263000C1F1A8F4863F09F499C040F4E0913A064C
:10264000F0913B06833F09F48CC00895883F09F15F
:10265000E0914206F0914306893FF9F008958C3FDE
:1026600051F120F18E3F61F1E0914A06F0914B0665
:102670008F3F99F00895E0912806F0912906309750
:1026800009F479C04091600660915F0680915D0613
:102690000994E0913E06F0913F06309709F46BC033
:1026A0000994E0914006F0914106F7CFE09144068D
:1026B000F0914506F2CFE0914606F0914706EDCF46
:1026C000E0914806F0914906E8CFE0913206F0919A
:1026D0003306309709F44FC06091600620E8629F8E
:1026E000B001112460787F7380915F068F77682B2B
:1026F000705280915D060994E0912A06F0912B06B4
:10270000BECFE0912E06F0912F063097A1F1609197
:102710005F0680915D060994E0913406F0913506DC
:10272000309749F160915F067091600661387105DC
:1027300010F060E870E081E696E00994E0913806D8
:10274000F09139063097B9F08091600620E8829FB9
:10275000C001112480789F7320915F062F77822B10
:102760000994309741F080915F060994E0913C060E
:10277000F0913D0692CF0895833081F028F48130A6
:1027800099F08230A9F008958730A9F08830C9F017
:102790008430B1F4809180008F7D03C080918000EF
:1027A0008F7780938000089584B58F7784BD0895D6
:1027B00084B58F7DFBCF8091B0008F778093B00080
:1027C00008958091B0008F7DF9CFCF93DF93282FAC
:1027D00030E0F901EE5BFA4D8491F901E25DFA4DCA
:1027E000D491F901E65EFA4DC491CC23A1F0811198
:1027F0000E94BC13EC2FF0E0EE0FFF1FE05FFA4DDC
:10280000A591B491EC91ED2381E090E009F480E092
:10281000DF91CF91089580E090E0FACF1F93CF939E
:10282000DF93282F30E0F901EE5BFA4D8491F90136
:10283000E25DFA4DD491F901E65EFA4DC491CC23E4
:10284000A9F0162F81110E94BC13EC2FF0E0EE0FBF
:10285000FF1FEA5FFA4DA591B4918FB7F894EC9100
:10286000111108C0D095DE23DC938FBFDF91CF918B
:102870001F910895DE2BF8CFCF93DF9390E0FC01FA
:10288000E25DFA4D2491865E9A4DFC018491882385
:10289000C9F090E0880F991FFC01E450FB4DA59111
:1028A000B491FC01EA5FFA4DC591D49161110DC05C
:1028B0009FB7F8948C91209582238C93888128234C
:1028C00028839FBFDF91CF910895623051F49FB765
:1028D000F8943C91822F809583238C93E8812E2B52
:1028E000EFCF8FB7F894EC912E2B2C938FBFEACFBC
:1028F000806480937C0080917A00806480937A0069
:1029000080917A0086FDFCCF8091780090917900CB
:1029100008953FB7F8948091D6059091D705A0917E
:10292000D805B091D90526B5A89B05C02F3F19F051
:102930000196A11DB11D3FBFBA2FA92F982F88273F
:10294000BC01CD01620F711D811D911D42E0660F1A
:10295000771F881F991F4A95D1F708958F929F92EC
:10296000AF92BF92CF92DF92EF92FF924B015C0148
:102970000E9489146B017C010E9489146C197D09E5
:102980008E099F09683E734081059105A8F321E0F7
:10299000821A9108A108B10888EEC80E83E0D81EFB
:1029A000E11CF11C81149104A104B10429F7FF90EA
:1029B000EF90DF90CF90BF90AF909F908F90089551
:1029C0002FB7F8946091D2057091D3058091D4050A
:1029D0009091D5052FBF0895CF93DF93C2E2D6E043
:1029E000EAA5FBA50190F081E02DA089B18992E0D4
:1029F0009C93A485B5851C92A685B7859FE39C937F
:102A0000108EA489B58996E09C93A289B3899C9184
:102A100090619C93A289B3899C9198609C93A289B0
:102A2000B3899C9190689C930288F389E02D9081F2
:102A30009F7D90838CA71EA61DA61DAA1CAA1BAA5B
:102A40001AAA8FEF9FEF9FAB8EAB99AF88AF0E9412
:102A5000E0146093E4067093E5068093E606909395
:102A6000E7061092E1061CAE1BAE1DAE1EAE109224
:102A7000E3061092E206ECE5F6E080818170826068
:102A800081608083DF91CF910895AF92BF92CF9202
:102A9000DF92EF92FF920F931F93CF93DF936C011E
:102AA0007B018B01040F151FEB015E01AE18BF08FF
:102AB000C017D10759F06991D601ED91FC910190B1
:102AC000F081E02DC6010995892B79F7C501DF91C9
:102AD000CF911F910F91FF90EF90DF90CF90BF901B
:102AE000AF900895FC01538D448D252F30E0842F45
:102AF00090E0821B930B541710F0CF960895019726
:102B00000895FC01918D828D981761F0A28DAE0F12
:102B1000BF2FB11D5D968C91928D9F5F9F73928F99
:102B200090E008958FEF9FEF0895FC01918D828DC5
:102B3000981731F0828DE80FF11D858D90E0089592
:102B40008FEF9FEF0895FC01918D228D892F90E0EA
:102B5000805C9F4F821B91098F739927089582EFA4
:102B600096E00E94A31521E0892B09F420E0822F32
:102B7000089580E090E0892B29F00E94AF15811123
:102B80000C9400000895FC01A48DA80FB92FB11D6D
:102B9000A35ABF4F2C91848D90E001968F73992793
:102BA000848FA689B7892C93A089B1898C91837071
:102BB00080648C93938D848D981306C00288F3896A
:102BC000E02D80818F7D80830895EF92FF920F9397
:102BD0001F93CF93DF93EC0181E0888F9B8D8C8DC9
:102BE00098131AC0E889F989808185FF15C09FB7BD
:102BF000F894EE89FF896083E889F9898081837080
:102C0000806480839FBF81E090E0DF91CF911F912E
:102C10000F91FF90EF900895F62E0B8D10E00F5F4F
:102C20001F4F0F731127E02E8C8D8E110CC00FB625
:102C300007FCFACFE889F989808185FFF5CFCE01BD
:102C40000E94C315F1CFEB8DEC0FFD2FF11DE35A60
:102C5000FF4FF0829FB7F8940B8FEA89FB89808140
:102C60008062CFCFCF93DF93EC01888D8823B9F0BA
:102C7000AA89BB89E889F9898C9185FD03C0808187
:102C800086FD0DC00FB607FCF7CF8C9185FFF2CF04
:102C9000808185FFEDCFCE010E94C315E9CFDF9182
:102CA000CF910895862F642F0C943C14FC018189E8
:102CB0000E94E51321E0892B09F420E0822F08957A
:102CC000CF93DF93EC0118860E945616882319F0E3
:102CD0008885836088870E94E0146A837B838C8365
:102CE0009D83DF91CF910895CF92DF92EF92FF9273
:102CF0000F931F93CF93DF93EC0188858B7F888799
:102D0000CE010E945616182F888586958170181757
:102D1000B9F00E94E0146A837B838C839D8388854D
:102D200092E089278887888582FB882780F9DF9150
:102D3000CF911F910F91FF90EF90DF90CF9008956A
:102D40000E94E014CA80DB80EC80FD80AB01BC01F6
:102D50004C195D096E097F098E819F81B0E0A0E06A
:102D6000481759076A077B07F0F2888581701817A2
:102D7000D1F20E94E0146A837B838C839D838885D3
:102D800091E08927846088870E94E01409851A856C
:102D90002B853C85601B710B820B930B6D877E87A7
:102DA0008F87988B0E94E01469877A878B879C872E
:102DB000BACFDC018D919C91DC01ED91FC910190E9
:102DC000F081E02D09946D3F48F46A3F10F4683FAC
:102DD00039F4FC01808191810C94D9166E3FC8F7BB
:102DE00008951F93CF93DF93813E30F5215020311A
:102DF00068F587FF2BC0D42F162FC82F622F682BA2
:102E000080914C0690914D060E94D916612F6F77E4
:102E100080914C0690914D060E94D916CF7EC03C01
:102E2000A9F06D2F6F7780914C0690914D06DF9140
:102E3000CF911F910C94D916883F40F0682F8CE4F5
:102E400096E0DF91CF911F910C94E316DF91CF9123
:102E50001F91089587FF0AC09CE0980F923030F0D0
:102E60008D3F21F0803F18F4807F089580E0089521
:102E7000982F9F7E282F2F7C203839F0803E29F014
:102E800081E0903C19F080E0089581E00895CF93AF
:102E9000DF93D091BF05C3E081E09091BF05911110
:102EA00080E08093BF0560E570E080E090E00E94E4
:102EB000AE14C15089F7D093BF05DF91CF9108952B
:102EC0000E9446291F93CF93DF93EC01162F0E9497
:102ED000F428181739F0612FCE01DF91CF911F919F
:102EE0000C94FC28DF91CF911F91089560910D0102
:102EF00024E0629FB0011124647080910C0128E0ED
:102F0000829FC00111248870682B8091BF05817059
:102F1000682B83E090E00E9462176091BC0584E01A
:102F200090E00E9462176091040185E090E00C94AB
:102F30006217CF92DF92FF920F931F93CF93DF938D
:102F4000F82EC82FD0E0DC2FCC278E01005F1F4F5A
:102F5000D12C8091BC058D0D90E0FC01E65DFA4F0F
:102F600061E02081211101C060E0FC01E655FB4FCA
:102F7000208121116260FC01E655FC4F2081211166
:102F80006460FC01E65DFB4F2081211168600196C1
:102F9000FC01E65DFA4F208121116061FC01E655DC
:102FA000FB4F208121116062FC01E655FC4F20811E
:102FB00021116064865D9B4FFC01808181116068F6
:102FC000C8010E946217D394D3940F5F1F4FF0E2A1
:102FD000DF12BFCF10E000E06E0180E2C80ED11C0E
:102FE000E091BC05E00FF12FF11DEE0FFF1FE8553A
:102FF000FD4F60817181759567957595679577FD32
:1030000043C06F3F710519F014F06FEF70E0C60117
:10301000800F911F0E9462170F5F1F4F0032110532
:10302000F9F610E000E0C05CDF4FE091BC05E00F76
:10303000F12FF11DEE0FFF1FE955FE4F60817181E9
:10304000759567957595679577FD20C06F3F7105FC
:1030500019F014F06FEF70E0CE01800F911F0E9405
:1030600062170F5F1F4F00321105F9F60E947617A5
:103070006F2D82E090E0DF91CF911F910F91FF9033
:10308000DF90CF900C94621760E0C1CF60E0E4CF96
:103090000C94F4288F929F92AF92BF92CF92DF92BE
:1030A000EF92FF920F931F93CF93DF93082F10E0BF
:1030B000102F0027580120E1A20EB11CF090BC0592
:1030C000CF2DD0E0AE01465D5A4F9E0126553B4FB5
:1030D000CE0186559C4FBE01665D7B4FCC0FDD1F38
:1030E000FE01E855FD4F6F01C955DE4F4E01DF016E
:1030F000E12CFA011192AF01F90111929F01FC013B
:103100001192CF01FB011192BF011D921D92F4019A
:10311000119211924F01E394F0E2EF12EACF80E2B4
:10312000E82EEF0CC5010E944818EF2DF0E0DF01FA
:10313000A65DBA4F982F91709C93DF01A655BB4FA7
:1031400081FB992790F99C93DF01A655BC4F82FB28
:10315000992790F99C93DF01A65DBB4F83FB9927CC
:1031600090F99C933196DF01A65DBA4F84FB9927B5
:1031700090F99C93DF01A655BB4F85FB992790F9E9
:103180009C93DF01A655BC4F86FB222720F92C9388
:10319000E65DFB4F881F8827881F80832FEFA21AC8
:1031A000B20AF394F394EF10BDCF780180E2E80EF9
:1031B000F11C5801E0E4AE0EB11CC7010E94481892
:1031C000F4E08F9FC0011124F601819391936F0168
:1031D000FFEFEF1AFF0AAE14BF0479F7005A1F4F32
:1031E000C7010E94481824E0829FC00111248993DE
:1031F00099938FEFE81AF80A0E151F0589F7DF91EA
:10320000CF911F910F91FF90EF90DF90CF90BF90E3
:10321000AF909F908F90089583E090E00E944818AF
:10322000982F91709093BF0582FB992790F9909306
:103230000D0183FB882780F980930C0184E090E0E6
:103240000E944818882331F0982F9F7D9F3111F0FC
:103250008F3511F48093BC0585E090E00E944818FA
:103260009FEF980F903110F48093040108951F92FE
:103270000F920FB60F9211242F933F938F939F932A
:10328000AF93BF938091D2059091D305A091D405BF
:10329000B091D5053091D10523E0230F2D3758F596
:1032A0000196A11DB11D2093D1058093D205909365
:1032B000D305A093D405B093D5058091D605909100
:1032C000D705A091D805B091D9050196A11DB11DD2
:1032D0008093D6059093D705A093D805B093D905D0
:1032E000BF91AF919F918F913F912F910F900FBE02
:1032F0000F901F90189526E8230F0296A11DB11D6F
:10330000D2CF1F920F920FB60F9211242F933F939B
:103310004F935F936F937F938F939F93AF93BF93DD
:10332000EF93FF9382EF96E00E94C315FF91EF9118
:10333000BF91AF919F918F917F916F915F914F91CD
:103340003F912F910F900FBE0F901F9018951F92D5
:103350000F920FB60F9211242F938F939F93EF9399
:10336000FF93E0910207F09103078081E091080745
:10337000F091090782FD1BC0908180910B078F5F40
:103380008F7320910C07821741F0E0910B07F0E05A
:10339000EE50F94F958F80930B07FF91EF919F911E
:1033A0008F912F910F900FBE0F901F9018958081D5
:1033B000F4CF1F920F920FB60F921124CF92DF928B
:1033C000EF92FF922F933F934F935F936F937F936F
:1033D0008F939F93AF93BF93CF93DF93EF93FF931D
:1033E00080919C0190919D01A0919E01B0919F01BF
:1033F0000196A11DB11D80939C0190939D01A09306
:103400009E01B0939F0182E38093B300C091960127
:10341000C093950180919401C0909C01D0909D0132
:10342000E0909E01F0909F01811128C08091900151
:1034300090919101A0919201B0919301B701A601E1
:10344000481B590B6A0B7B0B80918E0190918F0169
:10345000B0E0A0E084179507A607B70778F4C092FC
:103460009001D0929101E0929201F092930181E05B
:103470008C0F803208F0F8C0809396018091B305DC
:10348000813009F048C08091C005813009F043C007
:103490001092C0051092C10510929401E1E0809154
:1034A0008D018111E0E0E0938D01F0E0EE0FFF1F50
:1034B000EB57FE4F8091890190918A01A0918B0179
:1034C000B0918C01A7019601281B390B4A0B5B0BAD
:1034D000DA01C901D2E0B695A79597958795DA9557
:1034E000D1F791838083809185019091860120910D
:1034F000870130918801820F931F9695879590934D
:10350000060180930501C0928901D0928A01E09260
:103510008B01F0928C0120910501309106013093CE
:103520008F0120938E0190919601409190015091CE
:103530009101B601641B750BAB01369527952417D5
:10354000350738F481E0890F803208F090C080930D
:10355000A903892F837031F42CED30E0309384017E
:1035600020938301892F877051F425E231E0911176
:1035700002C028EB31E030938401209383018091D5
:10358000BF05813009F076C0809382018091BC052F
:10359000890F9927991FFC01E65DFB4F208120933D
:1035A0008101FC01E65DFA4F208120938001FC013E
:1035B000E655FB4F208120937F0186559C4FFC01EF
:1035C000808180937E01D0919601CD1779F061E0E2
:1035D0008CE00E940E14C0927A01D0927B01E0929E
:1035E0007C01F0927D0181E08093790180917A01E4
:1035F00090917B01A0917C01B0917D01C81AD90AFC
:10360000EA0AFB0AF5EFCF16F1E0DF06E104F10468
:1036100050F080917901813031F41092790160E0AD
:103620008CE00E940E14CD1709F4DBC021E08091DC
:103630007E01813009F020E091E080917F018130AE
:1036400009F090E090937801CD1709F4CEC081E0A5
:1036500030918101313009F080E0309180013130CA
:1036600009F0C4C031E0C3C01092960107CF109298
:10367000A9036FCF8FE18093960110929001109271
:103680009101109292011092930110928201109276
:103690007E0110927F01109280011092810193CFE0
:1036A000E0917501F0917601E25FFD4DE491EF57F5
:1036B000E0934901E0916E01F0916F01ED54F64EF7
:1036C000E491EF57E0934601E0916701F0916801C2
:1036D000E452F44FE491EF57E0934301E091540139
:1036E000F0915501E859FF4FE491EF57E093400105
:1036F000E0916001F0916101E452F44FE491EF57E1
:10370000E0933D01E0915A01F0915B01E859FF4FD0
:10371000E491EF57E0933A01E0913801F0913901DB
:10372000E450FC4DE491EF57E093370130C1820F34
:10373000931F95C12E0F3F1F3595279521583F4F59
:1037400030933601209335018EC110923001809163
:103750004E01843020F0815080934E01F1C11092CF
:103760004E01EEC110926801109267011092630140
:10377000109264011092650110926601109262012C
:103780005CC2109255011092540110925001109297
:103790005101109252011092530110924F0180C2B8
:1037A00010927601109275011092710110927201BF
:1037B0001092730110927401109270019DC21092C8
:1037C0006F0110926E0110926A0110926B011092BB
:1037D0006C0110926D0110926901BAC28091A90327
:1037E0003AC31092780190E020E080E030E030931E
:1037F00077014091A501411102C0222379F0109276
:10380000760110927501109271011092720110925E
:1038100073011092740121E0209370012091A601A0
:10382000211102C0882379F010926F0110926E016D
:1038300010926A0110926B0110926C0110926D014E
:1038400081E0809369018091A803882379F0109228
:103850006801109267011092630110926401109246
:1038600065011092660181E080936201332361F06B
:10387000109261011092600110925C0110925D0142
:1038800010925E0110925F01992361F010925B012A
:1038900010925A011092560110925701109258013D
:1038A000109259018091A702882379F01092550156
:1038B0001092540110925001109251011092520135
:1038C0001092530181E080934F01D37029F4C370AB
:1038D00019F080E480934E01E0914D01F0E0E45056
:1038E000FC4DE491EF57FF0B60914E016E9FA001DC
:1038F0006F9F500D11248091820170910701879F65
:10390000902D1124959F902D112490934C0120917E
:103910000D012111C5CEE0914A01F0914B01E25F0A
:10392000FD4DE491EF57E0934901E0914701F0919B
:103930004801ED54F64EE491EF57E0934601E091D3
:103940004401F0914501E452F44FE491EF57E093C4
:103950004301E0914101F0914201E859FF4FE491A8
:10396000EF57E0934001E0913E01F0913F01E452B6
:10397000F44FE491EF57E0933D01E0913B01F0916A
:103980003C01E859FF4FE491EF57E0933A01409131
:10399000490120914601022E000C330B240F311DEA
:1039A00047FD3A9540914301240F311D47FD3A955B
:1039B00040914001240F311D47FD3A9540913D0152
:1039C000240F311D47FD3A9540913A01240F311DD6
:1039D00047FD3A95E92F990FFF0B90910C0191301B
:1039E00009F0A8CE40913701042E000C550B882316
:1039F000D9F0872F7723C1F080E06430A8F0DA0196
:103A0000B595A795B595A7956A9FC0016B9F900D39
:103A1000112495958795959587958E2B9F2B63E01F
:103A2000959587956A95E1F755954795242735270C
:103A30003595279521583F4F90E040916201411103
:103A400076CE40914F01411172CE409170014111EB
:103A50006ECE4091690141116ACE81589F4F90937B
:103A600036018093350120913501309136012F3F89
:103A7000310549F044F08EEF91E0821B930B909357
:103A8000360180933501809135019091360197FF81
:103A900007C09195819591099093360180933501E6
:103AA000C0913501D091360194E0CC0FDD1F9A957D
:103AB000E1F7C07FDF70D06760E08AE00E940E14FB
:103AC000DEBD00000DB407FEFDCF8EB5CEBD0000FB
:103AD0000DB407FEFDCF8EB561E08AE00E940E14A2
:103AE0002091830130918401220F331F220F331F55
:103AF000032E000C440B550B809131019091320143
:103B0000A0913301B0913401280F391F4A1F5B1F68
:103B100020933101309332014093330150933401AB
:103B200065EF7FEA86E090E00E940A2990934D01BC
:103B3000809130018F5F853008F007CE809330018F
:103B400080910D01811146C020917501309176015F
:103B50008DEE91E0821B930B90934B0180934A0171
:103B600020916E0130916F018AE598E0821B930BE2
:103B7000909348018093470126ED3DE080916701D5
:103B800090916801A901481B590B5093450140933E
:103B9000440183E79BE04091540150915501BC01E1
:103BA000641B750B70934201609341014091600169
:103BB00050916101241B350B30933F0120933E014E
:103BC00020915A0130915B01821B930B90933C0131
:103BD00080933B0180916201882379F120919A01C1
:103BE00030919B012530310520F42091B6053091AC
:103BF000B7058091630190916401A0916501B09136
:103C00006601820F931FA11DB11D809363019093E4
:103C10006401A0936501B0936601D6E0B695A795BF
:103C200097958795DA95D1F7873D7DE0970708F05E
:103C300099CD909368018093670180914F0188230B
:103C400079F120919801309199012530310520F4C6
:103C50002091B4053091B5058091500190915101AA
:103C6000A0915201B0915301820F931FA11DB11D6C
:103C70008093500190935101A0935201B09353014E
:103C8000C6E0B695A79597958795CA95D1F78437DD
:103C9000EBE09E0708F075CD909355018093540199
:103CA00080917001882341F120910201309103013C
:103CB0008091710190917201A0917301B091740192
:103CC000820F931FA11DB11D80937101909372010A
:103CD000A0937301B0937401F6E0B695A7959795FC
:103CE0008795FA95D1F78E3EF1E09F0708F058CD01
:103CF000909376018093750180916901882341F149
:103D0000209100013091010180916A0190916B0135
:103D1000A0916C01B0916D01820F931FA11DB11D87
:103D200080936A0190936B01A0936C01B0936D0135
:103D3000E6E0B695A79597958795EA95D1F78B35E7
:103D400028E0920708F03BCD90936F0180936E01BD
:103D500080912E0190912F01092E000CAA0BBB0B14
:103D600040915C0150915D0160915E0170915F0135
:103D7000840F951FA61FB71F80935C0190935D0170
:103D8000A0935E01B0935F0176E0B695A7959795F5
:103D900087957A95D1F79C0190936101809360019A
:103DA00080917701813089F4E09196018091BC0582
:103DB000E80FFF27FF1FEE0FFF1FE855FD4F808123
:103DC000918190932F0180932E01273D3D4080F0FB
:103DD00010922F0110922E01109261011092600139
:103DE00010925C0110925D0110925E0110925F01D1
:103DF00080912C0190912D01092E000CAA0BBB0B78
:103E000040915601509157016091580170915901AC
:103E1000840F951FA61FB71F8093560190935701DB
:103E2000A0935801B093590156E0B695A795979580
:103E300087955A95D1F79C0190935B0180935A0125
:103E4000809178018130B1F480919401882309F444
:103E5000C5CC80919601E091BC05E80FFF27FF1FBC
:103E6000EE0FFF1FE955FE4F8081918190932D0148
:103E700080932C0124373B4080F010922D0110924A
:103E80002C0110925B0110925A011092560110926F
:103E90005701109258011092590180910C01813004
:103EA000B1F520910A0130910B0180912801909188
:103EB0002901A0912A01B0912B01820F931FA11D0E
:103EC000B11D8093280190932901A0932A01B093FA
:103ED0002B0126E0B695A795979587952A95D1F75A
:103EE00090933901809338012091080130910901A4
:103EF0002817390760F41092390110923801109296
:103F000028011092290110922A0110922B01FF9191
:103F1000EF91DF91CF91BF91AF919F918F917F9161
:103F20006F915F914F913F912F91FF90EF90DF90B4
:103F3000CF900F900FBE0F901F901895E2EFF6E014
:103F40001382128288EE93E0A0E0B0E08483958330
:103F5000A683B78382E191E09183808385EC90E032
:103F60009587848784EC90E09787868780EC90E043
:103F7000918B808B81EC90E0938B828B82EC90E034
:103F8000958B848B86EC90E0978B868B118E128EAE
:103F9000138E148EF0939007E0938F07E2E2F6E021
:103FA0001182108213821282158214821782168265
:103FB0001186108613861286158614861786168635
:103FC000118A108A138A128A158A148A178A168A05
:103FD000118E108E138E128E158E148E178E168ED5
:103FE00011A210A213A212A215A214A217A216A225
:103FF00011A610A68FE897E093A782A714A615A68E
:1040000016A613AA12AA15AA14AA8FEF9FEF97ABB0
:1040100086AB91AF80AF83E080935C0613AE14AEA5
:1040200015AE16AE1092E106E1E6F6E080E8DF019B
:104030001D928A95E9F71092E4061092E506109217
:10404000E6061092E7061092E8061092E906109232
:10405000EA061092EB061092EC061092ED06109212
:10406000EE061092EF061092F0061092F106E0E1D3
:10407000F6E012821382148215822AE030E0378340
:104080002683108684E291E091838083118AEEEF8B
:10409000F5E01282138214821582378326831086FC
:1040A00091838083118AECEEF5E0128213821482F0
:1040B000158237832683108691838083118AEAEDE7
:1040C000F5E01282138214821582378326831086CC
:1040D00091838083118A0895CF93DF9300D000D01D
:1040E0001F92CDB7DEB7789484B5826084BD84B565
:1040F000816084BD85B5826085BD85B5816085BDE3
:1041000080916E00816080936E001092810080919A
:104110008100826080938100809181008160809322
:104120008100809180008160809380008091B10047
:1041300084608093B1008091B00081608093B00072
:1041400080917A00846080937A0080917A00826006
:1041500080937A0080917A00816080937A008091C8
:104160007A00806880937A001092C100F89461E030
:104170008CE00E943C1461E08DE00E943C1461E000
:104180008BE00E943C1461E08AE00E943C1461E0F4
:1041900080E10E943C1461E080E10E940E1462E024
:1041A00083E00E943C1462E088E00E943C1462E0DC
:1041B00082E10E943C1462E081E10E943C1462E0D2
:1041C00084E00E943C1462E082E00E943C1462E0C1
:1041D00087E00E943C1462E083E10E943C1487E087
:1041E00080930F068EEF95E00E94601622E030E08B
:1041F000309305062093040683E18093EB058AED56
:1042000095E00E94601682E090E09093E105809333
:10421000E0058093FD058CEE95E00E946016A2E01B
:10422000B0E0B093F305A093F20584E080932106FB
:1042300080E196E00E946016E2E0F0E0F09317065D
:10424000E093160664E670E080E090E00E94AE1411
:1042500081E08093040184E00E94E513F1E0F9839A
:10426000892B09F0198282E00E94E513892B09F05D
:1042700060C029812E5F298331E03A8387E00E9464
:10428000E513892B29F489818C5F898391E09A83D6
:1042900083E10E94E513892B09F04EC0A981A85F34
:1042A000A983E981EF5FE983E0930401EA30A0F09C
:1042B00061E08DE00E940E146CE271E080E090E01D
:1042C0000E94AE1460E08DE00E940E1468EC70E075
:1042D00080E090E00E94AE1489816AE00E941A2971
:1042E0009A83911102C0FAE0FA83198261E08DE0AD
:1042F0000E940E1464E670E080E090E00E94AE142C
:1043000060E08DE00E940E1464E670E080E090E0D2
:104310000E94AE1429812F5F29833A813213E6CFA0
:1043200064EF71E080E090E00E94AE1441E04A83C7
:1043300006C049814A83A2CFBA81B111B2CF809120
:1043400004010E94EC1410925C068FB78983F894E4
:1043500080919701811127C0E4E2F5E28491E8E3BE
:10436000F5E29491E82FF0E0EE0FFF1FE450FB4DD3
:10437000A591B491EC91E92321F461E08AE00E94D7
:104380000E1461E08AE00E943C148CB580618CBD03
:104390008CB580648CBD61E08DE00E943C1461E0CE
:1043A0008BE00E943C14809197018F5F809397016E
:1043B00099819FBF8CB58F7D8CBD82E0809370000A
:1043C00092E39093B3008093B00083E08093B100B8
:1043D00081E085BD80938100789481E10E94E5139E
:1043E00021E0892B09F020E020930C0190E080E08F
:1043F0000E944818898381E090E00E944818A981B2
:10440000982F8A2F85329E4B09F4A2C065E290E076
:1044100080E00E9462176EEB81E090E00E946217DC
:1044200060E082E090E00E94621761E085E090E049
:104430000E9462170E947617E0E1F0E0FC83EB83B4
:1044400060E08B819C810E9462172B813C812F5FF1
:104450003F4F3C832B832115344091F7612CA4E01E
:104460007A2EB0E02B2EB0E03B2E10E8E12EF12C9E
:1044700002E0C02ED12C01E010E0F0EF5F2E0E9490
:10448000E01480904E0690E1981508F498C0E091F1
:104490004C06F0914D0680819181DC01ED91FC91FB
:1044A0000084F185E02D0995892B09F488C080915D
:1044B000F1068E7F8093F106E0914C06F0914D0657
:1044C00080819181DC01ED91FC910284F385E02DE6
:1044D000099589838D3F09F472C0809156069091A9
:1044E0005706009709F019C1B981B0935106E091C0
:1044F0004F06EA838E2F0E942A170E9438178823BE
:1045000061F0F981F7FD09C02A8120935106F093EB
:104510005206109357060093560630915106398380
:10452000832F0E942A17813F09F4C2C008F057C0A8
:10453000803B39F038F5803921F0803A11F080382D
:1045400041F5A3E0B0E0B0935506A0935406B4C083
:104550008A81811112C00E940C19809104010E946D
:10456000EC1410925C0682E090E00E9448188430BF
:1045700008F074CF0E944A1871CF0E940C190E9453
:104580007617F1CF803D09F493C0D8F4803C09F44C
:104590008FC08091F10681608093F106E09124063E
:1045A000F0912506309709F0099510925706109260
:1045B0005606109255061092540610924F061B8212
:1045C0003EC2803E09F4BDCF803F19F7F0925506F8
:1045D000E092540610924F06809361066DC0873FAB
:1045E000A9F308F05EC0833F09F462C008F4A9CFC4
:1045F000863F79F680935E0610925D0610925F0604
:104600001092600681E08093E106109257061092A6
:104610005606109255061092540680915E06803917
:1046200039F480916006811103C040E840935E0632
:1046300080915E068058813638F480915D06881638
:1046400019F0412C811004C00E94D61244244394D6
:1046500090915C06392F317090FF36C1892F8E7F83
:1046600009F432C180915E0620E8280F213608F057
:1046700047C120915D06821619F031E0811030E0CB
:104680009695923009F41EC1933009F436C19130E9
:1046900009F01AC14091600660915F060E94F11610
:1046A00013C18D3F08F4A6CF8E3F08F0A3CF71CF82
:1046B000D0925506C0925406209156063091570666
:1046C0004091540650915506415051092417350721
:1046D000E8F080935E06B981BF70BF5FB0935D065E
:1046E0008091520680935F06109260061093E30655
:1046F0000093E20610925706109256061092550645
:104700001092540681E08093E10687CF2F5F3F4FE0
:10471000309357062093560652CFE981E7FF0CC02D
:10472000ED3F08F04AC0E83F08F04BC0E03F09F415
:1047300056C0E73F09F453C020915106FC01EE5DDD
:10474000F94F203F19F0273F09F073C0298127AFA7
:10475000A0905406B090550695012150310982175A
:10476000930708F4A9C04090510640EF441619F091
:1047700087EF481261C09091E00699835092E0065D
:1047800050925E06A0E8A0935F0610926006109219
:104790005D06F092E306E092E20681E08093E10696
:1047A0000E94D612B7EFB0936106E981E0936206EA
:1047B000D0925706C092560602CFF981FE3F08F408
:1047C000BBCF298120935E0610925F06109260068F
:1047D00010925D061093E3060093E20693CF2091BA
:1047E0006106203F19F0273F09F0D3CE9C012F5FCF
:1047F0003F4F8E5D994FE981DC01DF96EC9350923B
:104800005E0620935F063093600610925D0630933B
:10481000E3062093E20681E08093E10610925706BA
:1048200010925606109255061092540610924F069A
:10483000F4CE398137A78CCF842D0E942A17898323
:1048400080935E060E943817882351F1842D8F7063
:104850008F5F80935D068091520680935F06809102
:104860005306F3E0AF16B10409F080E080936006D0
:104870001092570610925606109255061092540642
:1048800081E08093E1062981203B39F060F42039F2
:1048900021F0203A11F0203849F640924F06BDCE63
:1048A00010925D06D8CF3981303DB9F3303EA9F37F
:1048B000303C09F0BBCFF1CF01969093570680931F
:1048C00056067DCE3111E6CE442009F478CE809193
:1048D0005E06883F08F48EC1883F09F07CC13091A4
:1048E000BF053B8331116BCE8091BE058F5F863053
:1048F00008F09FC08093BE0562CE3111E5CFCACECD
:10490000E0E1E80FE03100F7F0E0E757FB4D0C94F1
:1049100026299F240225D924C624642464249924AA
:10492000642499246424992499249924642499243E
:104930009924682F8CE496E00E94E316C5CF8090FE
:104940005F069090600681E88816910418F0E0E810
:104950008E2E912CA2E2B6E0BC83AB838B819C812E
:10496000825296408815990508F0AECFEB81FC8104
:1049700067AD80914C0690914D060E94D9162B810F
:104980003C812F5F3F4F3C832B83E8CF30915F0604
:10499000398363EF80914C0690914D060E94D916A1
:1049A00069816F7780914C0690914D060E94D916CF
:1049B0008BCF40916006A0E84A9FC00111249C83E0
:1049C0008B8380915F06AB81BC81A82BBC83AB83BA
:1049D00062EF80914C0690914D060E94D9166B8132
:1049E0006F7780914C0690914D060E94D916EB810D
:1049F000FC81EE0FEF2FEE1FFF0BF195FC83EB8395
:104A00006E2FCFCFF0915F0640E1F49F900111240B
:104A10003C832B832077809160068F70282B29831D
:104A200061EF80914C0690914D060E94D9166981E4
:104A3000B9CF1092BE0561E08CE00E940E142B816C
:104A40002093D0054090CF054092CE058090CD05B3
:104A50008092CC053091CB0539833093CA05B09054
:104A6000C905B092C80580E196E00E9474168CEEEC
:104A700095E00E9474168EEF95E00E9474168AED00
:104A800095E00E947416809118068170982E80938C
:104A9000CF054091F40541704D834093CD05809141
:104AA000060681708A838093CB058091E205817030
:104AB000A82E8093C90582E10E94E5138093C70563
:104AC000911002C091E0491290E09093C6059D813B
:104AD000911102C091E0891290E09093C505AA81DE
:104AE000A11104C091E0B981B13009F090E0909338
:104AF000C405A11002C091E0B91290E09093C305E3
:104B00008111BFC08091C205813009F0BAC0909177
:104B1000C1059111B6C08093C0058093C105EB819A
:104B2000E33409F0B3C081E09091BF05911180E0BA
:104B30008093BF051092BE0560E08CE00E940E14C9
:104B4000F091C705F983F093C2059090B305909258
:104B5000A40181E10E94E5138093B3058111FCC09B
:104B600021E09212D8C281E09091BD05911180E0C0
:104B70008093BD051092A3011092A20181E0809361
:104B8000A1013981313009F4CFC24981442309F4AC
:104B9000B1C08091B2058130A9F48091B005811136
:104BA00011C083E00E94E51381110AC09091A00119
:104BB000913031F420910D01211190E090930D017D
:104BC0008093A0011092A8031092A7021092A50151
:104BD0001092A601F4C08A3F19F41092BE05EFCCE2
:104BE0008C3F09F0ECCC1092BE0560E08CE00E9496
:104BF0000E14E5CC20915D06909104012913DFCCC1
:104C0000803949F480916006882309F4D8CC40911A
:104C10005F064B8314CF803B09F0D1CC90915F06A7
:104C200080916006963451F4A4E08A9FC00111245B
:104C3000039690939B0180939A01C1CC973451F4D1
:104C4000B4E08B9FC0011124039690939901809347
:104C50009801B5CC983449F4E4E08E9FC00111244A
:104C60009093030180930201AACC993409F0A7CC58
:104C7000F4E08F9FC0011124909301018093000103
:104C80009ECC1092C0051092C10549CFFB81F5342E
:104C900041F481E090910D01911180E080930D012C
:104CA0004FCF2B81263451F481E08093BD05909144
:104CB0000C01911180E080930C0142CF3B8138348C
:104CC00019F41092BC053CCF4B814A3421F48FE19A
:104CD0008093BC0535CF9B819C3421F4AFE3A09336
:104CE000BC052ECFBB81BD3409F02ACFEFE5E093A0
:104CF000BC0526CF8091B205813009F063CF809149
:104D0000CF05811102C01092BC058091CD058111A3
:104D100003C0BFE1B093BC058091CB05811103C0F6
:104D2000EFE3E093BC058091C905811103C0FFE565
:104D3000F093BC0581E08093BF050E947814930135
:104D4000281B390BC901880F991F880F991F909351
:104D50000601809305011DCF813009F033CF80918A
:104D6000B00581112FCF8091C605811103C181E06B
:104D70003B813C3309F080E08093A8038091C30518
:104D80008111FAC081E04B81413409F080E08093C9
:104D9000A6018091C5058111F1C081E09B819E3300
:104DA00009F080E08093A7028091C4058111E8C0DA
:104DB00081E0AB81A03409F080E08093A501909060
:104DC000B1059092AF0583E00E94E513898380933B
:104DD000B105B091B205BA83E1E09E1214C0811111
:104DE00012C08091B305813071F4B13061F49091BB
:104DF000BF05911180E08093BF051092BE0560E071
:104E00008CE00E940E14FA81F093AE0588E00E94B7
:104E1000E5138093B2058111B5C02A81213081F458
:104E200091E02091AD05211190E09093AD0591E0C6
:104E30009093BF059093AC051092AB051092AA0514
:104E40009091BF059111A7C01092AD05882309F478
:104E5000B4C18091B305811122C18091B205811145
:104E60007EC18091B105813091F48093B005B091FD
:104E7000BF05B98362E370E080E090E00E94AE1469
:104E800081E0E981E11101C080E08093BF0580915C
:104E9000B005813061F58091C605882339F080E046
:104EA0000E9499171092B0050E9447178091C5057E
:104EB000882339F081E00E9499171092B0050E9472
:104EC00047178091C405882339F082E00E94991722
:104ED0001092B0050E9447178091C305882339F0CE
:104EE00083E00E9499171092B0050E94471780E056
:104EF0000E9478149C01DC010E942C294B015C016A
:104F00008092B8059092B905A092BA05B092BB05FF
:104F100081E00E9478149C01DC010E942C292091E0
:104F20000C012111C2C02BE0B694A79497948794EA
:104F30002A95D1F794012E5F3F4F3093B705209308
:104F4000B6053BE096958795779567953A95D1F7A5
:104F5000665D7F4F7093B5056093B40521143104ED
:104F600009F48DCA0E94AF15882309F486CA0E94ED
:104F7000000083CA81E000CF81E009CF81E012CF39
:104F800081E01BCF813009F05BCF3A81311158CFDE
:104F90001092AC0555CF811104C04981442309F416
:104FA0000FC13091AD05313009F053CFF894209105
:104FB000A90378948091A8038823A1F08091BC056F
:104FC000820F9927991FFC01E65DFA4F3083880F05
:104FD000991FFC01E855FD4F8091B6059091B705EA
:104FE000918380838091A7028823A9F08091BC05DA
:104FF000820F9927991FFC01E655FB4F31E0308362
:10500000880F991FFC01E955FE4F8091B4059091DE
:10501000B505918380838091A601882349F0E091B2
:10502000BC05F0E0E65DFB4FE20FF11D81E08083FF
:105030008091A501882309F40CCF8091BC0590E0F4
:1050400086559C4F280F392F311D81E0D9018C9353
:1050500000CF1092AB051092AA051092AC052093D8
:10506000BF051092AD058091BC0590E0AC01465D96
:105070005A4FDC01A655BB4FBC01665D7B4F865580
:105080009C4F20E2FA011192AF011D92FB01119297
:10509000BF01FC011192CF012150A1F782CF8130D5
:1050A00009F0F5CE1092B005F2CE2091BD05211188
:1050B00018C0ABE0B694A79497948794AA95D1F7BB
:1050C00094012F5F3F4F3093B7052093B605BCE0A6
:1050D0009695879577956795BA95D1F76F5F7F4FCE
:1050E00039CFA5019401E6E0569547953795279568
:1050F000EA95D1F72F5F3F4F30930B0120930A01C0
:10510000672F782F892F99276F5F7F4F7093090141
:105110006093080123CFF981F13009F036CD8091F9
:10512000A101813009F035CD8091A2019091A301B8
:1051300001969093A3018093A2018132934008F4D9
:1051400028CD81E090910701911180E080930701C3
:105150001092A3011092A2011092A1011ACD8130E8
:1051600009F095CE8091B105813009F090CE809103
:10517000C605882329F080E00E944A180E9447173C
:105180008091C505882329F081E00E944A180E9479
:1051900047178091C405882329F082E00E944A18AD
:1051A0000E9447178091C305882309F470CE83E0DD
:1051B0000E944A180E9447176ACE2981211149CEC0
:1051C0002091AC05213009F0ECCE8091AA05909198
:1051D000AB0501968032A3E09A0708F03ACF90938E
:1051E000AB058093AA05DDCEF999FECF92BD81BDB6
:1051F000F89A992780B50895262FF999FECF1FBAFE
:1052000092BD81BD20BD0FB6F894FA9AF99A0FBEEF
:1052100001960895DB018F939F930E943B29BF91D4
:10522000AF91A29F800D911DA39F900DB29F900DF5
:1052300011240895991B79E004C0991F961708F06E
:10524000961B881F7A95C9F780950895EE0FFF1F6A
:105250000590F491E02D0994A29FB001B39FC00185
:10526000A39F700D811D1124911DB29F700D811D92
:105270001124911D08950E942C29A59F900DB49F83
:10528000900DA49F800D911D1124089581E090E060
:0A529000F8940C944B29F894FFCF1A
:10529A009D00800001E80301C800C8000101000068
:1052AA000000E515451572153216A31581159515D9
:0852BA00000000005616521618
:00000001FF
