:100000000C942C250C9454250C9454250C945425B4
:100010000C9454250C9454250C9454250C94592C70
:100020000C9454250C9454250C9454250C9454256C
:100030000C9454250C9454250C9454250C9454255C
:100040000C94B72B0C9454250C94272C0C94012C55
:100050000C9454250C9454250C9454250C9454253C
:100060000C9454250C9454257F8992999A9CA3AAA8
:10007000AFB3B7BDC1C1C6CACCCED2D3D5D7DADBF8
:10008000DCDEE0E1E2E1E1E1E1E0DDDBD9D7D4CFA4
:10009000CDCAC5C2BEB9B6B0A8A39E97928E857CC4
:1000A00077736E67605953514D47433F3C38343145
:1000B0002F2C2927262422211F20212224252729ED
:1000C0002C2D2F3135393B3D4043464A4E52565A2E
:1000D0005E61676D6F737A8084888F94979CA1A608
:1000E000A9AFB3B6BABEC1C5C8CACCCED1D3D5D6D6
:1000F000D8DBDDDFDFE0E1E2E2E2E0DEDCDAD7D42C
:10010000D2CFCBC8C3BEB9B4B1ABA39D98918882FE
:100110007D77706964605B57514B47423E3C39358F
:1001200032312F2C2A28272524232223242527294E
:100130002B2C2E31323437393C3F4244464A4E5004
:1001400053575C6063666A70767A7D80878F91937F
:100150009AA0A4A7ACB2B7BABCC1C4C7CACCCED10E
:10016000D3D5D7D9DCDDDEE0E2E2E3E2E0DEDCDAC3
:10017000D7D4D2CFCBC8C4C0BBB6B2AEA79F9C98D1
:10018000928A847F7A736C68635E5B57534E4946EC
:10019000433F3B3A383532302F2D2B2A292725254E
:1001A0002627292B2B2E30323436383A3D3F414317
:1001B000474B4D52565A5F6265686E72777D8186F5
:1001C0008A8F959A9EA2A6ACB2B6B8BBBFC4C7C967
:1001D000CACDD1D3D5D6D8DADCDDDEDFE0E2E3E28A
:1001E000E1DFDDDAD8D5D3D0CDC9C6C4C1BDB7B43F
:1001F000AFA7A19D9A938D8A827B76716B69655EAC
:100200005753504C4845413D3A383534312E2E2C09
:100210002A292827282A2B2C2E31333437383A3DE7
:10022000404346484C505254585D616566696F754D
:10023000797C8186898E92969B9FA2A7ACB0B4B739
:10024000BCBFC0C3C6C8CACDCFD1D3D4D6D8DADAE2
:10025000DCDEE0E0E1E0DFDDDBD8D5D4D1CECBC71A
:10026000C3C0BEB9B0ABA7A29D96918C867F7874AF
:10027000716C64605D59534D4A4946413D3C3A3783
:10028000353331302E2C2B2B29292B2C2E3031328B
:100290003436383A3C3E40424648494B4F53565814
:1002A0005D616567696E73757A7F81868B8F9497C0
:1002B0009DA3A5A8ADB1B5B7BAC0C4C6C8CACDD0B4
:1002C000D2D3D5D7D9DADBDDDEDFE0E0DEDCDAD78A
:1002D000D5D3D0CECBC7C4C2BFB9B3B1ACA6A09C56
:1002E00097928E88827F7B75716C67635E5A5754D4
:1002F0004F4B4A4743403F3B3937363432302F2E3D
:100300002D2B2C2E2F3132333536383C3E3F414495
:1003100046494C505255595C5F62666B6F73767BF1
:100320008083878C9195989BA1A5A9ACB0B4B7B9EF
:10033000BEC2C5C5C8CBCDCED0D2D4D5D7D9DADBD5
:10034000DCDDDEDFDEDCDAD8D5D4D2CFCDCAC7C55E
:10035000C1BDB9B5B1ABA7A39E99938D87827E7AB3
:10036000756F6A65625D5854514D4A4543413E3D43
:100370003A37353432302F2F2E2D2E30323334355C
:10038000373A3B3D41434445494C4D505357595CE6
:100390006163666A6D6F73787B7E80868C8E9094C5
:1003A000989C9FA4A9ABADB2B5B9BCBEC1C4C5C928
:1003B000CBCCCED0D2D3D5D7D8D9DADBDCDDDBD9E4
:1003C000D8D5D2D0CFCCC8C5C3BFBCB8B3AFAAA50F
:1003D000A09A96928D8783817B75706C6763615D4F
:1003E000585451504C484543413F3E3C39373535D0
:1003F000333231302F2F3133343537383A3B3D3FAC
:1004000041444648494B4F535556595E6163666BAC
:100410006E6F74797D8184878D9294989DA2A3A636
:10042000ACAFB3B7BABDBFC2C5C6C9CBCDCFD0D2B2
:10043000D4D5D6D7D9DADBDBDBDAD8D6D4D1CFCD59
:10044000CCCAC7C4C1BEBBB7B3AFABA8A39E9B9772
:10045000908A86837F7975726C6965615C595650A4
:100460004E4D49464341403D3A38373635333130B9
:10047000313234363638393B3E40414345474A4CA9
:100480004F515457595C6064666A6D6F70737A7E21
:100490008084898C8E90959A9C9FA2A6AAACAFB3BB
:1004A000B6B8BBBEC0C2C4C6C9CBCCCDCED1D2D3E8
:1004B000D4D5D6D8D9D9D8D6D4D2D0CFCDCAC6C41F
:1004C000C1BEBAB7B3AFAAA6A19B97938E8A868105
:1004D0007D78726F6B6763605D5A56504E4D4A4827
:1004E0004543413F3C3B3A3837353433333233357B
:1004F0003637383A3D3D3E40434445474A4D4F50DC
:100500005254585A5D606466696D6F7275797C806B
:1005100084888C8F9194999DA1A4A6AAADB0B3B8FC
:10052000BCBEBFC2C5C7C8CACCCDCFD0D1D3D5D52C
:10053000D6D6D8D7D5D3D2D1CECCCAC8C6C3C0BEE2
:10054000BAB6B2B0ACA8A3A09D9894928D87837FD1
:100550007A7775716B6766625E5A5754524F4B4893
:10056000474643413F3D3B393836353534343537DE
:10057000393A3C3D3E41434446484B4D5052535519
:10058000595B5F6363666A6D707476797E81848778
:100590008A8D8F92969B9EA0A5A8ABACAFB2B4B744
:1005A000BABDBFC1C2C4C5C7C9CBCBCDCECFD1D3D5
:1005B000D3D4D6D6D4D2D1CFCECBCAC7C4C1BFBD77
:1005C000BAB4B0AEABA6A29E9995918B86837F7B81
:1005D00076736E6A6865615D5A5753504F4C494750
:1005E0004643413F3E3C3B3A39373635353637385E
:1005F000393B3D3E3F4142444648494B4D4F5254A2
:1006000056595B5C5E6165676A6D707375787C7F57
:100610008285898E919394989EA0A2A5AAACAFB32F
:10062000B6B8BABDBFC0C3C6C7C8C9CBCDCECFD080
:10063000D1D2D3D4D3D2D1CECCCAC8C7C5C3BFBC04
:10064000BAB8B5B2AEA9A6A39E9B9994918E89849F
:1006500082807C7773706C6964615F5C595653501B
:100660004E4D4A48454343403E3D3C3A3837373784
:1006700038393A3B3D3F4042444547494B4D4F5244
:100680005455585B5E606165686B6E6F7377797CFB
:100690007F8287898B8E929596989C9FA2A5A8AB06
:1006A000ACAEB2B5B8B9BBBDBFC2C2C3C5C6C8C97E
:1006B000CACCCDCECFCFD1D2D1CFCECCCAC8C7C471
:1006C000C1C0BEBBB7B4B1ADA9A5A19D9B98938D88
:1006D000888583807B7774706C6866625F5C59572D
:1006E00055514E4C4A494745434241403E3C3B3AB6
:1006F000393838393A3B3D3E3F4041434546484909
:100700004B4D4F51535557595B5E5F6164686B6C3D
:100710006E7174777B7F828485878C8F9296989B8D
:100720009DA2A5A7A9ACAFB3B5B7B9BCBDBFC2C3A5
:10073000C4C5C7C9CACACCCDCECFCFD0CFCDCBCA06
:10074000C9C6C4C2C1BEBBB9B8B5B1AEABA8A5A13C
:100750009E9B9794918E8B8582817E7974706D6A51
:10076000686563605C585755524F4C4B4A48444348
:1007700042403F3E3D3B3A39393B3C3D3E4042439F
:100780004446484B4C4C4E51545556595D5F60623F
:1007900065676A6D6F7274787C7C7D8085888A8DD0
:1007A000909293979A9B9EA3A5A6A7ABADAEB1B42A
:1007B000B6B8BABDBEBFC0C1C3C4C5C6C8C9CACB1E
:1007C000CCCCCDCDCBC9C7C6C5C3C0BDBBB9B6B3F4
:1007D000B0AEABA6A29F9C9995918E8B86817F7CB3
:1007E0007976716E6C6A66625F5E5B585653514FE4
:1007F0004E4C4A484645444241403F3D3C3C3B3BD1
:100800003C3C3E3F404142444547484A4B4D4F5196
:10081000535556575A5E60616265686A6E707273AE
:10082000777A7D7F8185898C8E909396999C9D9F08
:10083000A4A7A9ABAEB0B1B3B8B9B8BBBEBFC0C274
:10084000C2C4C5C6C7C9CACACBCCCBCAC9C7C5C42E
:10085000C3C1BEBCBBB8B6B4B1B0ACA8A5A3A09D83
:100860009995918F8C878684807C7875726F6B6880
:1008700067635F5D5A575553514F4D4A4947454449
:100880004341403F3E3D3B3C3D3E3F40414345466A
:1008900047494B4C4E4F52535455585B5D5F606215
:1008A0006467696A6C70737375797C7E80828587F2
:1008B0008A8C8E91949798999CA1A2A3A6A9AAAC80
:1008C000AEB0B2B5B7B9BBBCBDBEBFC1C3C4C5C66F
:1008D000C7C7C8C9C9C8C6C4C3C1BFBDBBB9B7B4FF
:1008E000B2AFACA9A6A5A19D9A9795918E8C88834D
:1008F00082807D797572716F6C686463615E5B5A2A
:1009000058565452504E4C4B4A4846454443424038
:100910003F3E3E3E3E3F40414344454748494B4DA4
:100920004E5051535557595B5D5F616265686B6D01
:100930006F717477797C7E808386888A8C8F91949E
:1009400097999B9EA0A3A5A6A8ABABADB0B3B4B539
:10095000B7B9BBBCBCBDBEC0C2C3C3C3C5C5C7C796
:10096000C7C6C4C3C2C0BEBDBBB9B7B4B1AFADABDF
:10097000A8A5A2A09C989693908C888583807C786B
:100980007573716C696765635F5C5A58575452514F
:100990004F4D4B4A48464645434241403F3F3F400A
:1009A00041424344454647494A4B4D4E50515254AB
:1009B0005658595A5D5F60616365686A6C6E717202
:1009C0007478797A7C808284878A8C8F91929497CC
:1009D0009B9D9EA1A4A5A7A9ABADB0B1B3B5B7B976
:1009E000BABBBCBEBFC0C1C2C3C3C4C5C5C4C3C2F9
:1009F000C0BEBDBCBAB8B6B3B1B0ADAAA8A7A4A1D9
:100A00009E9B99979492908D8A8783817E7B78753F
:100A100073716F6B676664625F5C5A5956555250CA
:100A20004F4E4C4A4948464443424140404042426E
:100A300043444647484A4B4C4D4F515255575859DD
:100A40005C5D5D60636465676A6C6E6F7376767813
:100A50007A7D7F80838687888A8D91939497999AEF
:100A60009B9EA0A1A2A5A8A9AAACAEB0B1B3B5B6F1
:100A7000B7B9BABBBCBEBEBFC0C1C2C3C3C2C1C08E
:100A8000BEBCBAB8B7B6B3B0AEACAAA7A4A19E9C80
:100A90009B979491908D888584827E7C7976737102
:100AA0006F6D6A686664615F5D5A59575655525159
:100AB000504E4C4C4B4947474645444342414142C6
:100AC0004445454647494B4C4D4D4F515253555760
:100AD000595A5C5E5F62646567696C6E70727475AA
:100AE000777A7D7F818386888B8C8D8F929597987E
:100AF0009A9D9FA1A1A3A6A8AAACACAEB0B2B3B474
:100B0000B5B7B8B9BABBBBBDBEBEBEC0C1C1C1C01E
:100B1000BFBDBBBAB9B7B5B3B1AFAEACA9A7A4A2BC
:100B20009F9D9B9794918F8D898885817E7B797617
:100B300073706E6C6A686462605E5C5A5957555394
:100B400051504E4C4C4B4A4847464545444242431F
:100B50004445464748494A4B4D4E4F5052535454D2
:100B600056595A5B5C5E6061636566686A6B6E705D
:100B7000717374777A7B7D80828486888A8C8E906C
:100B8000919497989A9DA0A1A1A3A6A8A9ABADAF57
:100B9000AFB0B2B5B6B7B8B9BABBBBBDBEBEBFC0C9
:100BA000BFBEBDBCBAB8B7B5B4B2B0AFADAAA8A607
:100BB000A4A29F9E9D9B98959290908C88868482FB
:100BC000807D7A787673706E6D6A676564615F5E4A
:100BD0005B5858575553514F4D4D4C4B494747461D
:100BE00045444344454647484A4B4B4C4E5051526E
:100BF00054555658595A5C5D5F60626466686A6C09
:100C00006B6D7071737577797A7D7F80828485874B
:100C1000898A8C8E9092949597999A9C9E9FA2A572
:100C2000A6A6A7A9ABACAEAFB0B2B4B5B5B6B7B9CE
:100C3000BABABBBCBDBDBDBBBAB8B7B5B4B2B0AE35
:100C4000ADACA9A6A4A2A09E9C9A979593908D8CDA
:100C500089868583807D7A79777674716E6D6A690D
:100C6000686663615F5E5C5B595757555452504FDD
:100C70004F4D4C4B4A484747464545464747484AEB
:100C80004B4D4D4F505153545556585A5C5D5D5F16
:100C900062636466686A6C6C6F71727377797A7B71
:100CA0007D7F80838687898A8C8D8F919495979894
:100CB0009A9C9D9EA0A2A3A4A5A7A9AAACACADAEE8
:100CC000B0B1B2B3B4B5B6B7B8B8B9BABBBBBABABB
:100CD000B9B7B6B4B2B1AFADACA9A7A6A4A29E9C59
:100CE0009B989592908F8D8A878583807E7C7A777A
:100CF0007572716F6D6B6967646362605D5D5B598E
:100D0000585755535251504F4F4D4C4B4A494948F3
:100D100047464748484A4A4B4C4D4E4F5051535412
:100D2000555656585A5B5D5F5F6062646667686AD5
:100D30006C6E7070727577797A7C7F80818386881B
:100D40008A8B8C8E9294939496999B9C9EA0A2A33E
:100D5000A3A5A6A7A9AAABACAEB0B0B0B2B4B4B5C7
:100D6000B6B6B7B8B9B9B9B9B8B7B5B4B4B2B0AE28
:100D7000ADABA8A8A7A4A2A19E9C9A989694918F87
:100D80008D8B89868382807D7B78767472706D6BA3
:100D90006968666462605F5D5B5959575554535288
:100DA000514F4E4E4D4B4B4A49494847484A4B4B91
:100DB0004C4D4F505051525454565757585A5B5CF3
:100DC0005E5F606262646668686A6C6D6F707173A2
:100DD0007576787A7C7D7F8082858687898B8D8FFA
:100DE00091919395979A9B9B9D9FA1A3A4A4A5A73E
:100DF000A9AAABACAEAFAFB0B2B3B3B4B5B6B6B7E9
:100E0000B8B8B7B5B4B3B1B0AFAEADAAA9A9A6A4EE
:100E1000A3A2A09E9C9A97979592908F8C8A888780
:100E20008583817D7B7A787573726F6E6C6A696772
:100E30006563615F5E5C5A59585755535252515021
:100E40004E4D4C4C4B4A49494A4B4C4D4D4E5051DE
:100E5000515254555557585A5A5C5D5E60616162F3
:100E6000656666696B6A6B6D6F7172747475777A9B
:100E70007B7C7D7F8183838486898B8C8C8F909112
:100E800094959798999A9C9D9EA0A2A4A4A5A6A883
:100E9000AAAAACADADAFB1B1B2B2B3B4B4B5B6B548
:100EA000B4B3B2B1B0ADABAAA9A8A6A4A3A19F9EAA
:100EB0009C9B98959594928F8E8C8A888785838148
:100EC0007F7E7D7A77767573706E6C6B6B69666505
:100ED0006362615F5E5C5A59585756545352515081
:100EE0004F4E4D4C4B4B4A4B4C4D4E4E5051525227
:100EF0005455565758595A5B5D5F5F61626364662B
:100F00006769696A6C6E6F7071737576787A7B7CCD
:100F10007D7F81828384858889898B8C8E90929253
:100F200093949698999A9B9D9E9FA0A1A2A5A6A6F0
:100F3000A7A8A9AAABACAEAFB0B0B1B1B2B3B4B4CC
:100F4000B3B1B0AFADACABA9A7A6A5A4A19F9E9C21
:100F50009A9997959492908F8D8A898785838181BC
:100F60007F7D7A797776757271706E6C6A69686761
:100F700065636261605E5D5B5A59585756555453BC
:100F80005151504F4E4D4D4C4C4C4D4F5050515275
:100F9000535455565758595A5B5D5E5F60616264A1
:100FA000656768696B6C6E6F6F7173757778797947
:100FB0007B7C7E808182838586888A8A8B8C8E90DA
:100FC00092939394979898999B9B9D9D9FA0A1A382
:100FD000A3A4A5A6A7A8A8AAABACADADAEB0B0B06F
:100FE000B1B2B2B1AFAEADACAAA9A8A5A4A4A2A05B
:100FF0009E9C9B999796949190908E8B88878684DF
:1010000082807F7D7C7A7876747472706E6D6C6B82
:1010100069676766646261605F5D5C5C5A595857D6
:1010200056555553535251504F4F4E4D4E4F4F50B2
:10103000515252535455565758595A5B5C5D5F6034
:1010400061626465656667696B6D6E6E70727374FC
:101050007576787A7B7D7E80818183858687898A93
:101060008B8C8E8F90909395969697999A9A9C9D3B
:101070009E9EA0A1A2A2A3A4A6A6A7A8A8A9AAAB27
:10108000ACACADAEAFAFB1B1B0AEADACABA9A8A694
:10109000A5A4A2A09F9D9B9A9896959391908F8DC1
:1010A0008B8987868583807E7D7C7A77767674725D
:1010B000706F6E6C6A6A69666565636261605E5DC9
:1010C0005D5C5A59585757565654535352525150C3
:1010D0004F4E4F5051515253545455565759595AD7
:1010E0005B5B5D5E5F60616264656567696A6B6CCE
:1010F0006E6F70717374747678797A7C7D7E80817E
:1011000083838586888A8A8B8C8E8F909193949422
:101110009597999A9A9A9C9E9E9E9FA2A2A2A3A4FA
:10112000A5A5A6A7A9A9A9AAABACACADAEAEAEAE1B
:10113000ADACAAA9A8A7A5A4A3A2A1A09D9B9A997A
:101140009896939190908E8B898887858482807EF3
:101150007C7B797877757372706F6E6D6B69686779
:101160006565646261605F5E5E5D5B5A5A585857A0
:101170005655555454535251515050515253535443
:10118000555556575859595B5C5C5D5E5F606262AD
:101190006465656768696A6B6D6E6F71717274768C
:1011A0007778797B7C7D7E80818284848587898A3B
:1011B0008B8C8C8E90919192949595979899999A01
:1011C0009C9E9E9FA0A0A1A2A3A3A4A5A6A6A7A8FB
:1011D000A8A9A9AAABABACADADACABAAA9A8A7A670
:1011E000A5A3A1A09F9D9C9B999896959491908E64
:1011F0008C8B8A8887858382807E7D7C7A787776DF
:10120000757371706F6D6C6A696968666563626237
:10121000615F5E5D5D5C5B5A59595857565655552E
:101220005453525252525353545556565758595973
:101230005A5B5C5C5E5F5F606162646465666768A0
:101240006A6B6C6C6E7071717374757778797A7C77
:101250007D7D7E8082838384868989898B8C8D8E37
:101260008F909192939596979797999A9B9C9D9D15
:101270009E9FA0A0A1A2A3A4A4A4A5A6A7A8A8A835
:10128000A9AAAAABABABA9A9A8A7A5A4A3A2A1A0F0
:101290009E9D9C9B999796949292908F8E8C8A8813
:1012A00087868483817F7E7C7B7A7877757473717F
:1012B000706F6E6D6B6A69676666656463616160B5
:1012C0005E5E5D5D5C5A5A59595858575656565489
:1012D0005453535455555656575959595A5B5C5C9B
:1012E0005D5E5F606162636465666767696A6B6BB8
:1012F0006C6E6F7070727375767778797B7B7C7D9E
:101300007F8082838484858788898B8B8C8D8E8F68
:10131000919191939596969697989A9A9A9B9C9E5E
:101320009E9F9FA1A1A1A2A3A3A4A5A5A6A6A7A88D
:10133000A9A9A9A9A9A8A7A6A5A4A2A1A0A09E9D64
:101340009C9A99979695939291908E8C8B8A888689
:1013500085848381807E7D7C7B79777675747272DB
:10136000716F6D6D6C6B69686766666463636261FB
:10137000605F5E5D5D5C5B5B5A5A595958575656C3
:10138000555555555656575859595A5B5B5C5D5ED5
:101390005E5F60616263646566666768696A6B6DFB
:1013A0006E6E6F7072727375767777797A7B7C7DEB
:1013B0007E808182828485858688898A8B8C8D8DCA
:1013C0008E8F90929293949495979798999A9A9BCE
:1013D0009B9C9D9E9F9E9FA1A2A2A2A2A3A5A5A504
:1013E000A5A6A7A8A8A7A6A6A5A4A3A2A19F9E9DBF
:1013F0009C9B9A989796949392908F8E8D8C8B89C4
:10140000878685838281807F7D7C7B7A7876757400
:10141000737272706F6E6D6B6B6A69686766656414
:1014200064636261605F5F5E5E5D5C5C5B5A5959DC
:1014300059585756565657575859595A5B5B5D5D20
:101440005D5E5F60616162636465666668696A6A61
:101450006B6D6E6E6F707273737576767677797B5F
:101460007B7C7E7F7F808182838485858788898A53
:101470008A8B8C8D8E8F8F90919293949495959763
:101480009898999A9A9B9C9B9D9E9E9F9FA0A0A195
:10149000A2A3A3A4A4A5A6A5A6A7A6A4A3A2A2A00E
:1014A0009F9E9D9C9A9A9998969594939191908ECF
:1014B0008D8C8A8988868685838281807E7D7C7BEF
:1014C0007A787776767574727170706F6D6C6C6BFC
:1014D000696968686665646464636161605F5E5ED3
:1014E0005D5D5C5B5B5A59595858585858595A5B5E
:1014F0005B5C5C5D5E5F60606162636364656666E1
:1015000067686A6A6A6B6C6E6F6F707173737475FB
:1015100076777878797A7B7D7D7E7E7F8081828305
:1015200083858686878989898A8B8C8D8E908F8F1B
:10153000919292939394959697989999999A9C9C45
:101540009C9D9D9E9FA0A0A0A1A2A3A3A3A4A5A58E
:10155000A4A3A3A1A0A09E9D9D9C9B9998989796BB
:1015600094939291918F8E8C8B8B8A8988868584B7
:10157000838280807F7E7D7B7A7A797876757474B9
:10158000737171706F6E6D6C6B6B6968686766659F
:10159000646463626161605F5F5E5E5C5B5B5B5A5B
:1015A000595959595A5B5B5C5D5D5E5F5F60606174
:1015B000626363646566676868696A6B6B6C6D6EAD
:1015C0006E6F7071727373747575777878797A7BD2
:1015D0007C7C7D7E7F7F80818282848485868688F4
:1015E00088898A8B8B8C8D8E8E8E9091929393931B
:1015F00095969697979999999A9B9C9C9D9E9E9F4C
:10160000A0A0A0A1A2A2A3A3A3A3A2A1A09F9F9ECA
:101610009D9B9B9A99989796959594929190908F6F
:101620008E8D8C8B8A898887858584848381807F51
:101630007D7D7C7C7A787777777574737271706F43
:101640006E6D6C6C6B6A6967676665656463626121
:1016500061605F5F5E5E5D5C5C5B5B5A5A5B5B5BBF
:101660005C5D5E5E5F5F6061626262636465656669
:1016700067676869696A6B6C6C6D6D6F6F707171AB
:10168000727374747575767778797A7A7A7C7C7DE2
:101690007E7F808081828383858686878889898A08
:1016A0008B8C8D8E8F909090919293949495969729
:1016B000979898999A9B9B9B9C9D9D9E9E9F9FA06F
:1016C000A0A0A1A2A2A2A09F9F9E9E9D9C9C9B9A2F
:1016D00099989897959595949291908F8E8E8D8CE0
:1016E0008B8A898887868584838281807F7E7D7CC2
:1016F0007B7A7978767674747372716F6F6E6E6CB4
:101700006B6B6A6868676765656463626262616083
:101710005F5F5F5E5D5D5D5C5B5B5C5D5D5D5E5FF5
:101720005F5F606161626263646465656666676885
:101730006869696A6A6B6C6D6D6E6E6F6F717272DB
:101740007374757676767778797A7B7B7C7D7E7E0E
:101750007F81818283848485858788898A8B8A8B2F
:101760008C8E8E8E8F91919292929394959596975E
:1017700098989899999A9A9B9B9C9D9D9D9E9E9FB7
:101780009F9F9FA0A0A1A09F9E9E9D9C9B9A9A997F
:1017900098989795959493929191908F8D8C8C8B2E
:1017A0008A8987868685848281817F7F7E7C7B7A19
:1017B00079787876757574737271716F6F6E6D6C00
:1017C0006B6B6A69696867676665656464636262B2
:1017D00062616060605F5F5E5E5E5D5D5D5E5E5F1C
:1017E0005F606161616162636364646566666767C7
:1017F0006869696A6B6C6C6C6D6F6F6F7071717218
:101800007374757576777878797B7C7B7C7D7E7E4A
:101810007F808182828384858586878788898A8A7A
:101820008B8B8C8D8E8E8F8F9091919292939394BF
:101830009495969696979798989999999A9A9B9C29
:101840009C9C9D9D9D9E9E9F9F9E9E9D9D9C9B9AC8
:101850009A99989796959493929291908F8E8D8C59
:101860008C8A89888887868584838281807F7F7E31
:101870007C7B7B7A79797877777574737372727100
:10188000706F6F6E6E6D6C6C6B6A696968686767A4
:10189000666665646463636262616160605F5F5F26
:1018A0005F5F5F6060616162626364646465666615
:1018B00067676869696A6A6B6C6D6D6E6F7070716D
:1018C0007172727374747676777878797A7A7A7BB3
:1018D0007C7D7E7E7E7F80828281828384858585F9
:1018E0008687888888898A8A8B8B8C8D8D8E8F8F4E
:1018F00090909191929293939495959596979798AD
:101900009899999A9A9A9B9C9C9C9C9D9E9E9D9C22
:101910009C9B9A9998989896969595939292919166
:10192000908F8E8E8C8C8C8A898988878686858418
:101930008383828080807F7E7D7D7C7B7A797978CD
:1019400077767575747372717170706F6E6D6D6C82
:101950006C6B6A696968686766656565646363631B
:101960006261616160606060616161626263646460
:10197000646566666667676869696A6B6B6B6C6CE1
:101980006D6D6E6F6F707171727273737474757642
:101990007677787878797A7B7B7B7C7C7D7E7F809C
:1019A0008081818283838484858686878888898AEA
:1019B0008A8B8C8C8C8D8E8F909090919292939339
:1019C0009495959596969697979898999A9A9A9AA3
:1019D0009B9B9B9C9C9D9C9B9B9B9A999898989762
:1019E00096969594949392929190908F8E8D8D8CE3
:1019F0008B8A8A8988878686858484838180807F94
:101A00007E7D7C7C7B7A7978787776757474737256
:101A100071706F6F6F6E6D6D6C6B6B6A6969696801
:101A20006867676666656565646363636262626171
:101A30006161626262626364646465656666676769
:101A400067686869696A6B6B6C6C6C6D6E6E6E6FE3
:101A50007070717272737374747576777778787842
:101A60007A7B7B7B7C7D7E7F7F7F8081818283848C
:101A7000848485868687888889898A8B8B8C8C8CE0
:101A80008D8E8E8E8F90909090919292939293944F
:101A90009494959596969697979898989999999AD7
:101AA0009A9A9A9B9B9B9A999998979696969594B1
:101AB00093939291908F8F8E8D8C8B8B8A8989884E
:101AC000878686858483838281807F7E7E7E7D7CFF
:101AD0007B7A7A79787878777675757473737272A1
:101AE0007271706F6F6F6E6D6D6D6C6B6B6A6A6922
:101AF000696868676767666665656464646363638D
:101B0000626363636465656565666767686869697C
:101B10006A6A6B6B6C6C6D6E6E6E6F7070717272E8
:101B200073737474757576767778787879797A7B4B
:101B30007C7C7C7D7E7E7F7F7F80808182828383B0
:101B4000838485858686868788898889898A8B8B20
:101B50008B8C8D8D8D8E8F8F909090919292929391
:101B6000939494959595969697979798989999990F
:101B7000999A9A99999898979696959594939393FC
:101B8000919190908F8F8E8D8C8C8C8B8A8A898886
:101B9000888786868585848383828281807F7F7E15
:101BA0007E7D7C7B7A7A79797877777675747474B0
:101BB00073727171706F6F6E6D6D6D6C6B6B6A6A45
:101BC0006A696968676767666665656564646463B2
:101BD00063646465656666676767686868696A6A9A
:101BE0006A6B6B6B6C6D6D6D6E6E6E6F6F7070711E
:101BF0007172727373747474757676767778787898
:101C0000797A7B7B7C7C7D7D7D7E7F7F80818182FC
:101C100082838384848586868787888888898A8B5F
:101C20008B8B8C8C8D8D8E8E8F8F8F9090919191D0
:101C3000929293939394949495959595969696975E
:101C40009798989898989899989797979695959423
:101C500094939292919191908F8E8D8D8C8C8B8A92
:101C60008989888786868585848382828180807F32
:101C70007F7E7D7C7C7B7A7A7979787776767675CB
:101C800074747473727271717170706F6F6E6D6D48
:101C90006D6C6C6C6B6B6B6A6A69696868686867A5
:101CA00067666666656565656566666667686868D1
:101CB0006969696A6A6B6B6B6C6D6D6D6E6F6F6F66
:101CC00070717171727373737475757576777878D6
:101CD000787979797A7B7B7C7C7C7D7E7E7F7F7F47
:101CE00080808181818283838484848585858686C2
:101CF00087888888898989898A8A8B8B8C8C8D8D45
:101D00008D8E8F8F8F8F90909191919293939393CB
:101D10009494959595969696979797979897979662
:101D20009695949494939292929190908F8F8E8D99
:101D30008D8C8C8C8B8A8A89888887878686858417
:101D40008584838382818180807F7F7E7D7D7C7C92
:101D50007C7B797979787777777675757474737316
:101D600072717171706F6F6E6E6D6D6C6C6B6B6B91
:101D70006A696969686868686767676766666667E9
:101D8000676868686969696A6A6B6B6B6B6C6C6DB4
:101D90006D6D6E6E6F6F6F70707171717272727344
:101DA00074747474757676767777777879797A7AC9
:101DB0007A7B7B7C7C7D7D7E7E7F7F807F7E7D7C51
:101DC0007C7B7C7E8184868686898C8B888B8F8DBC
:101DD00084796E696B6B6A70726A696D605B6E8123
:101DE000919FAAA89A9DA19BA0AAB1B8B8B19A70D8
:101DF0004E404554544F4B454243402D2C5596BAC6
:101E0000B3B6CDD4C7C5CFCEC6D1D2BBA3743E2BFB
:101E10003B5046313D40353C3D3C5483A7C8D5C47A
:101E2000BECDE2EDF3D5B7C0B8B284443B2A1C3234
:101E30004629001B3F2610304F6289B3C7C6C9D060
:101E4000C7CBD2CCCFCAC0AE8B7A765B3D47594A5E
:101E50003D4D4F3D3C59787884A7B8AAB3DBC6A264
:101E6000AEB7C2B88580997E5D65431232421917BC
:101E7000504536645B71907C7D9BBEC6C0C6CAC0AF
:101E8000BBBDB2A59094AA8B585B7161595452683E
:101E90005F5066797576889B9EA3A69E96A5A885B9
:101EA00088816770726B553C526B4E3F5C5A5A7911
:101EB000856669AEAB92ACB3B29FA3C7A988ABB736
:101EC00091888F7E726A6775746962526463617EFD
:101ED00077617AA1756180909185868280857D7514
:101EE0007C7A7B7A6D6B7270676C78786B868F6F9B
:101EF0008B9B8897A3979FC0A87B9DBCA05A78D046
:101F00008336628363656A4058856C57717965686A
:101F1000928A5C7BAD857A9E7B8697717477797A9D
:101F2000717A7B7376877F5E759C938D866EB2DF48
:101F30007865A5A28F817A7B7B78929B594B7B89B0
:101F40005E60826D7D63649C6E5C90A17556779A2D
:101F50008371848375878A7C76889A899569589D70
:101F6000926B7B927D87967B859A78608A9577784D
:101F7000888C8570769C8C63799E7350918C59788F
:101F80009280656C8E866F7C8D867B7B848C7A7765
:101F900099947A787F8B81737B7D898C78788A8617
:101FA0006B7D8F767B8A7C81A283617B8785808530
:101FB000826D738A83788283807B7C858873749238
:101FC0008C7E72789185777F7C7E8C8A7872848C07
:101FD0007C7B848681777F857A788380727C8A7F18
:101FE0006F808B737493866B84907F7B8A82828FE1
:101FF0007A828C7C7881827A7E7E7B7C8181767B02
:102000008A85797B888582837983827C867F797EC5
:10201000827877807B7B7E7D7D81807C847D7A88E1
:102020008280848285847F8188867E7A7F837E7F9A
:10203000807D7D7F827A808B7E787F8182858077AC
:102040007D817E7E827D7A807D7A80817D81817CAA
:10205000817F7F807B7D828180808181808184837C
:102060007E82837E83837F7F818081817D7F817F6C
:102070007E7F7E7E81807D7C7E817E7D807F7F8075
:102080007F7F80807F7F80807D7F807F7F807F7E5D
:1020900082807F80818080817F80808083807E803D
:1020A00082807F80808080807F7E7F807E7F7F7E39
:1020B0007F7F7E7F7F7F7F7F7F7F7F7F807F7F7F30
:1020C0008080807F7F80807F80807F808080807F15
:1020D0008080808080808080808080808080808000
:1020E0008080807F7F7F7F7F7F7F7F7F7F7F7F7FFD
:1020F0007F7F7F7F808080807F807F7F7F7F7F7FEB
:102100007F7F7F7F7F7F7F7F7F7F7F7E7E7E7E7EE4
:102110007E7E7E7E7E7E7E7E7E7E7E7E7E7E7E7EDF
:102120007E7E7D7D7D7D7D7D7D7D7D7D7D7D7D7DDD
:102130007D7D7D7D7D7D7D7C7C7C7C7C7C7C7C7CD8
:102140007C7C7C7C7C7C7C7C7C7C7B7B7B7B7B7BD5
:102150007B7B7B7B7B7B7B7B7B7B7B7A7A7A7A7AD4
:102160007A7A7A7A7A7A7A7A7A7A7A7A7A797979D2
:1021700079797979797979797979797979797979CF
:1021800079797878787878787878787878787878CD
:1021900078787878787878787878787878787878BF
:1021A00078787778777777777777777777777777BC
:1021B00077777777777877787778777A7C7D7D7F90
:1021C0007F808181818082868B91989EA5B5E6FF74
:1021D000F8E6E4F0F0E9E4E4E4E0DCD9D8D8D4D1DE
:1021E000CCC7C2C0BEBDBAB8B6B3AEA8A099938ED4
:1021F00088827B746E67615C57524F4B47433F3A0E
:10220000353232312F2D2D2C2B2A2B2A2A2A2929FF
:102210002A2D2F30323436373A3D3D3F4142444734
:102220004A4D5055595D6063686C7075797D818445
:10223000898F959BA2A6ABB0B6BABFC2C3C4C4C5B2
:10224000C6C8C9C9C9C9CACACBCBCACBCAC7C6C501
:10225000C4C2BFBCBABABAB9B7B4B1AEACA9A5A131
:102260009B97948E88827E7975716B6764605E5BE4
:10227000585653504F4C4A4744403E3C3937383902
:1022800037363636353534333232343536373837FB
:1022900037383B3C3C3D3E3F3F404142424447484B
:1022A000494A4C4F515254595C606265686B6F7279
:1022B00076787B7F828487898B8D9093969A9EA275
:1022C000A5A8ABAFB2B6BABCBFC1C4C7C9CCCECF4C
:1022D000D0D1D2D2D2D1D1D1D2D3D2D2D3D3D3D3DF
:1022E000D4D5D5D5D4D2D0CDCCCBC9C8C7C6C4C21D
:1022F000C0BFBEBCBBB9B9B7B5B3B1AEACA9A6A29D
:102300009F9C9995928F8C8885827F7C7976747159
:102310006E6C696764625F5D5B58565452504E4CF8
:102320004B494746444341403F3E3D3C3B3A3939A7
:102330003837373736363636363636373737383831
:1023400039393A3A3B3B3C3C3D3E3E3F40404142BE
:10235000424344444546474748494A4B4C4D4F50F9
:102360005153545657595A5C5E6061636567696B97
:102370006D6F71737577797B7D7F81838587898B9D
:102380008D8F91939597999B9EA0A2A4A6A8AAAC85
:10239000AEB0B3B4B6B8BABCBEBFC1C2C4C5C6C87D
:1023A000C9CACBCCCCCDCECECFCFD0D0D0D1D1D14D
:1023B000D1D1D1D1D1D0D0D0D0CFCFCECECDCDCC28
:1023C000CCCBCACAC9C8C7C7C6C5C4C3C2C1C0BFAF
:1023D000BEBDBCBBB9B8B7B6B5B3B2B1AFAEACABAE
:1023E000A9A8A6A4A3A19F9D9C9A989694918F8D2D
:1023F0008B89878482807E7C7A777573716F6D6B31
:102400006967666462605F5D5C5A59575654535100
:10241000504F4E4C4B4A4947464544434241403F4A
:102420003E3D3C3B3A393938373736363535353429
:102430003434343434343434343434353535353656
:1024400036363637373738383939393A3A3B3B3C04
:102450003C3D3D3E3E3F3F40414142424344454575
:1024600046474748494A4A4B4C4D4D4E4F505151B3
:102470005253545556565758595A5B5C5D5E5F60CF
:10248000626364656668696A6C6D6E707173747599
:1024900077787A7B7D7E808183848687888A8B8D1E
:1024A0008E90919294959698999B9C9D9EA0A1A2A6
:1024B000A4A5A6A8A9AAACADAEB0B1B2B4B5B6B742
:1024C000B9BABBBCBEBFC0C1C2C3C4C5C6C7C8C9F8
:1024D000CACACBCCCCCDCDCECECECECFCFCFCFCF28
:1024E000CFCFCFCFCFCFCECECECECECDCDCDCDCC0C
:1024F000CCCCCCCBCBCBCACACAC9C9C8C8C8C7C642
:10250000C6C5C5C4C3C3C2C1C0C0BFBEBDBCBBBBC2
:10251000BAB9B8B7B6B5B4B3B2B1B0AFAFAEADAC8F
:10252000ABAAA9A8A7A6A5A4A3A2A1A09E9D9C9B77
:10253000999897959492918F8E8C8B8987868483B6
:10254000817F7E7C7B797776747371706E6D6C6A37
:1025500069686665646261605F5E5D5B5A59585781
:10256000565554535251504F4E4D4C4B4B4A49487F
:102570004746464544444342424140403F3E3E3D3B
:102580003D3C3C3B3B3B3A3A3939393938383838AD
:1025900038383838383838383838383839393939B7
:1025A0003A3A3A3B3B3B3C3C3C3D3D3D3E3E3E3F68
:1025B0003F3F404040414141424243434344444500
:1025C00045464647474849494A4A4B4B4C4D4D4E74
:1025D0004F4F5050515252535454555556575758C7
:1025E00058595A5A5B5C5C5D5E5F5F606162626312
:1025F0006465666768696A6B6C6D6E6F7071727323
:1026000074757677797A7B7C7D7E7F818283848501
:10261000868788898B8C8D8E8F90919293949597D5
:1026200098999A9B9C9D9E9FA0A1A2A3A4A5A6A7B2
:10263000A8A9AAABACADAEAFB0B1B2B3B4B5B6B7A2
:10264000B8B9BABBBBBCBDBEBFC0C0C1C2C3C3C4A6
:10265000C5C5C6C6C7C7C8C8C9C9C9C9CACACACAFA
:10266000CACACACACACACAC9C9C9C9C9C8C8C8C8D7
:10267000C7C7C7C6C6C6C5C5C5C4C4C4C3C3C3C20D
:10268000C2C2C1C1C0C0BFBFBFBEBEBDBCBCBBBB60
:10269000BAB9B9B8B7B7B6B5B4B4B3B2B1B0B0AFF0
:1026A000AEADACABABAAA9A8A7A7A6A5A4A3A3A2AD
:1026B000A1A09F9E9E9D9C9B9A9998979695949376
:1026C0009291908F8E8D8B8A898886858483818074
:1026D0007F7D7C7B79787776747372706F6E6D6CAA
:1026E0006B696867666564636261605F5E5D5C5BC1
:1026F0005A59595857565555545352525150504F94
:102700004E4E4D4C4C4B4B4A4A4949484847474628
:102710004646454544444443434342424242414184
:1027200041414140404040404040404040404040A6
:102730004141414141424242424343434444454571
:1027400045464646474748484849494A4A4A4B4B06
:102750004C4C4C4D4D4E4E4E4F4F5050515151528E
:1027600052535354545555565657585859595A5A06
:102770005B5B5C5C5D5E5E5F5F606061616262636B
:102780006364646565666767686869696A6A6B6CD3
:102790006C6D6D6E6F6F7071727273747475767725
:1027A0007778797A7B7B7C7D7E7F80808182838451
:1027B000848586878888898A8B8C8C8D8E8F8F9074
:1027C0009192929394959596979898999A9A9B9CA2
:1027D0009D9D9E9F9FA0A1A1A2A3A3A4A5A5A6A7DE
:1027E000A7A8A9A9AAABABACADADAEAEAFB0B0B126
:1027F000B1B2B2B3B3B4B4B5B5B6B6B6B7B7B7B88D
:10280000B8B8B8B8B9B9B9B9B9B9B9B9B9B9B8B83E
:10281000B8B8B8B8B7B7B7B7B7B6B6B6B6B5B5B54E
:10282000B4B4B4B4B3B3B3B3B2B2B2B1B1B1B0B083
:10283000B0B0AFAFAEAEAEADADADACACABABAAAAC7
:10284000A9A9A8A8A7A7A6A5A5A4A4A3A2A2A1A137
:10285000A0A09F9E9E9D9D9C9B9B9A9A99989897BD
:102860009796969594949392929190908F8E8D8D49
:102870008C8B8A89888887868584838281807F7E05
:102880007D7C7B7B7A7978777675747372717070E2
:102890006F6E6D6C6C6B6A696968676666656464A7
:1028A0006362626161605F5F5E5E5D5D5C5C5B5A3E
:1028B0005A5A5959585857575756565555555454AA
:1028C00054535353525252515151515050505050F1
:1028D0004F4F4F4F4F4F4F4F4F4F4F4F4F4F4F4F08
:1028E0004F4F4F4F4F4F4F505050505051515151EB
:1028F000525252525353535354545455555555569E
:102900005656575757575858585959595A5A5A5B43
:102910005B5B5C5C5D5D5D5E5E5F5F5F60606161D7
:102920006262636363646465656666676767686857
:1029300069696A6A6A6B6B6C6C6D6D6E6E6E6F6FD7
:102940007070717172727374747575767677787849
:1029500079797A7B7B7C7D7D7E7F7F80808182829E
:1029600083848485868687878889898A8A8B8C8CEC
:102970008D8D8E8E8F909091919292939494959547
:1029800096969797989899999A9A9B9B9C9C9D9DAF
:102990009E9E9F9F9FA0A0A1A1A2A2A3A3A3A4A427
:1029A000A5A5A5A6A6A7A7A7A8A8A8A8A9A9A9A9B3
:1029B000A9AAAAAAAAAAAAAAAAAAAAAAAAAAAAAA78
:1029C000AAAAAAA9A9A9A9A9A8A8A8A8A8A7A7A77F
:1029D000A7A6A6A6A6A6A5A5A5A5A4A4A4A4A3A3A8
:1029E000A3A3A3A2A2A2A1A1A1A1A0A0A09F9F9FD7
:1029F0009E9E9E9D9D9C9C9C9B9B9A9A9A99999821
:102A0000989797979696959594949493939292927B
:102A1000919190908F8F8F8E8E8D8D8C8C8B8B8AD9
:102A20008A8989888887868685858483838281814F
:102A3000807F7F7E7D7D7C7B7B7A797978777776E6
:102A400075757474737272717170706F6F6E6E6D74
:102A50006D6C6C6B6B6A6A696969686867676766E1
:102A60006665656564646463636362626261616133
:102A700061606060605F5F5F5F5E5E5E5E5E5D5D69
:102A80005D5D5D5D5C5C5C5C5C5C5C5C5C5C5C5C82
:102A90005C5C5C5C5C5C5C5C5C5C5C5C5D5D5D5D72
:102AA0005D5D5E5E5E5E5E5E5F5F5F5F5F6060603D
:102AB00060606161616161626262626263636363FB
:102AC00063646464656565656666666667676768AE
:102AD0006868696969696A6A6A6B6B6B6C6C6C6D52
:102AE0006D6D6E6E6E6F6F6F6F70707071717172F1
:102AF0007272737374747475757576767777777888
:102B00007879797A7A7B7B7C7C7D7D7D7E7E7F7F08
:102B1000808081818282838384848585868686877E
:102B200087888889898A8A8A8B8B8C8C8D8D8D8EFB
:102B30008E8F8F8F90909191919292929393949483
:102B40009495959596969797979898989999999A14
:102B50009A9A9B9B9B9B9C9C9C9D9D9D9D9E9E9EB3
:102B60009E9E9E9F9F9F9F9F9F9F9F9F9F9F9F9F78
:102B70009F9F9F9F9F9F9F9F9E9E9E9E9E9E9E9D6E
:102B80009D9D9D9D9D9C9C9C9C9C9C9B9B9B9B9B85
:102B90009B9A9A9A9A9A9A999999999998989898A1
:102BA00097979797969696969595959494949393D0
:102BB00093929292929191919090908F8F8F8E8E0E
:102BC0008E8D8D8D8C8C8C8C8B8B8B8A8A8A89894F
:102BD00088888887878686868585848483838282A1
:102BE000818180807F7F7E7E7D7D7C7C7B7B7A7A0D
:102BF0007979797878777776767575747474737374
:102C00007372727171717070706F6F6F6E6E6E6DC6
:102C10006D6D6C6C6C6C6B6B6B6B6A6A6A6A696904
:102C2000696968686868686767676767676666662E
:102C30006666666565656565656565656564646444
:102C4000646464646464646464646565656565653E
:102C50006565656565666666666666666767676715
:102C600067676768686868686868696969696969E1
:102C70006A6A6A6A6A6A6B6B6B6B6B6C6C6C6C6DA4
:102C80006D6D6D6D6E6E6E6E6F6F6F6F707070705C
:102C9000717171717272727273737373747474740C
:102CA00075757576767676777777787878787979B6
:102CB000797A7A7A7B7B7C7C7C7D7D7D7E7E7E7F53
:102CC0007F808080818181828283838384848485E4
:102CD00085858686868787878888888989898A8A7C
:102CE0008A8B8B8B8C8C8C8C8D8D8D8E8E8E8E8F1B
:102CF0008F8F9090909091919191929292929393C4
:102D00009393949494949495959595959696969678
:102D10009696969797979797979797979797979746
:102D20009797979797979797979796969696969639
:102D3000969595959595959594949494949493934C
:102D40009393939393929292929292919191919163
:102D50009190909090908F8F8F8F8E8E8E8E8E8D83
:102D60008D8D8D8C8C8C8C8B8B8B8B8A8A8A8A89AF
:102D700089898989888888888787878787868686DA
:102D80008685858585848484848383838282828109
:102D900081818080807F7F7F7E7E7E7D7D7D7C7C4B
:102DA0007C7B7B7B7A7A7A7979797978787877778E
:102DB00077777676767675757575747474747373C3
:102DC00073737372727272727171717171717070EA
:102DD000707070706F6F6F6F6F6F6F6E6E6E6E6E04
:102DE0006E6E6E6E6D6D6D6D6D6D6D6D6D6D6D6D0F
:102DF0006D6D6D6C6C6C6C6C6C6C6C6C6D6D6D6D0C
:102E00006D6D6D6D6D6D6D6D6D6D6D6D6E6E6E6EEE
:102E10006E6E6E6E6E6E6F6F6F6F6F6F6F6F6F6FC8
:102E20007070707070707070717171717171717299
:102E30007272727272737373737373747474747462
:102E40007475757575757576767676767777777726
:102E50007777787878787879797979797A7A7A7AE7
:102E60007A7B7B7B7B7C7C7C7C7D7D7D7D7E7E7E9E
:102E70007E7F7F7F7F80808080818181818282824E
:102E80008283838383848484848485858585868600
:102E900086868687878787878888888888898989BA
:102EA00089898A8A8A8A8A8A8B8B8B8B8B8B8C8C7A
:102EB0008C8C8C8C8D8D8D8D8D8D8E8E8E8E8E8E40
:102EC0008E8E8E8F8F8F8F8F8F8F8F8F8F8F8F8F15
:102ED0008F8F8F8F8F8F8F8F8F8F8F8F8F8F8F8F02
:102EE0008F8E8E8E8E8E8E8E8E8E8E8D8D8D8D8D06
:102EF0008D8D8D8D8D8D8C8C8C8C8C8C8C8C8C8C0C
:102F00008C8B8B8B8B8B8B8B8B8B8A8A8A8A8A8A16
:102F10008A89898989898989888888888888888828
:102F20008887878787878787868686868686868638
:102F3000858585858585858484848484838383834E
:102F400083828282828281818181808080807F7F72
:102F50007F7F7E7E7E7E7E7D7D7D7D7C7C7C7C7B9E
:102F60007B7B7B7B7A7A7A7A7A7A797979797978C4
:102F700078787878787777777777777676767676E1
:102F800076767575757575757575747474747474F5
:102F90007474747373737373737373737372727201
:102FA0007272727272727272727272727272727201
:102FB00072727272727272727272727272727272F1
:102FC00072727272727272727272727373737373DC
:102FD00073737373737373737373737474747474BC
:102FE0007474747474747475757575757575757598
:102FF0007676767676767676777777777777777769
:103000007878787878787878797979797979797A37
:103010007A7A7A7A7A7A7B7B7B7B7B7C7C7C7C7C01
:103020007C7D7D7D7D7D7E7E7E7E7E7F7F7F7F7FC2
:103030008080808080818181818181828282828280
:103040008383838383838484848484848585858542
:10305000858585868686868686878787878787870C
:1030600088888888888888888989898989898989D8
:103070008A8A8A8A8A8A8A8A8A8A8B8B8B8B8B8BAA
:103080008B8B8B8B8B8B8B8B8B8B8B8B8B8B8B8B90
:103090008B8B8B8B8B8B8B8B8A8A8A8A8A8A8A8A88
:1030A0008A8A8A8A8A8A8A8A8A8989898989898987
:1030B0008989898989898989898988888888888886
:1030C000888888888888878787878787878787878A
:1030D0008686868686868686868685858585858596
:1030E000858585858584848484848484848483839D
:1030F00083838383838282828282828181818181B0
:103100008180808080807F7F7F7F7F7F7E7E7E7ECC
:103110007E7E7D7D7D7D7D7D7C7C7C7C7C7C7C7BE6
:103120007B7B7B7B7B7B7A7A7A7A7A7A7A7A7979FB
:103130007979797979797978787878787878787808
:103140007777777777777777777777777676767613
:103150007676767676767676767676767676767510
:10316000757575757575757575757575757676760C
:1031700076767676767676767676767676767676EF
:1031800076767676767676767677777777777777D8
:1031900077777777777777777777787878787878B9
:1031A0007878787878787879797979797979797996
:1031B0007979797A7A7A7A7A7A7A7A7A7A7A7A7B71
:1031C0007B7B7B7B7B7B7B7B7B7C7C7C7C7C7C7C48
:1031D0007C7D7D7D7D7D7D7D7D7E7E7E7E7E7E7E19
:1031E0007E7F7F7F7F7F7F7F7F80808080808080E9
:1031F00080818181818181818181828282828282BA
:10320000828282838383838383838383838484848E
:103210008484848484848484858585858585858566
:103220008585858586868686868686868686868642
:10323000868686868686868686868787868686862C
:10324000868686868686868686868686868686861E
:103250008686868686868686868686858585858513
:10326000858585858585858585858585858585850E
:10327000858585858484848484848484848484840A
:10328000848484848383838383838383838383830A
:103290008383838383838282828282828282828208
:1032A000828282828181818181818181818181800B
:1032B00080808080808080807F7F7F7F7F7F7F7F16
:1032C0007E7E7E7E7E7E7E7E7E7E7D7D7D7D7D7D24
:1032D0007D7D7D7D7D7D7C7C7C7C7C7C7C7C7C7C28
:1032E0007C7C7C7B7B7B7B7B7B7B7B7B7B7B7B7B2B
:1032F0007B7B7B7B7A7A7A7A7A7A7A7A7A7A7A7A2A
:103300007A7A7A7A7A7A7A7A7A7A7A7A7A7A79791F
:103310007979797979797979797979797A7A7A7A19
:103320007A7A7A7A7A7A7A7A7A7A7A7A7A7A7A7AFD
:103330007A7A7A7A7A7A7A7A7A7A7A7A7A7A7A7AED
:103340007A7B7B7B7B7B7B7B7B7B7B7B7B7B7B7BCE
:103350007B7B7B7B7B7B7C7C7C7C7C7C7C7C7C7CB3
:103360007C7C7C7C7C7C7C7C7C7D7D7D7D7D7D7D96
:103370007D7D7D7D7D7D7D7D7D7D7D7E7E7E7E7E78
:103380007E7E7E7E7E7E7E7E7F7F7F7F7F7F7F7F55
:103390007F7F7F7F7F808080808080808080808032
:1033A0008080808181818181818181818181818110
:1033B00081818282828282828282828282828282EF
:1033C00082828282828283838383838383838383D3
:1033D00083838383838383838383838383838383BD
:1033E000838484848484848484848484848484839F
:1033F000838383838383838383838383838383839D
:103400008383838383838383838383838282828290
:10341000828282828282828282828282828282828C
:103420008282828282828282818181818181818184
:10343000818181818181818181818181818181807D
:10344000808080808080808080808080808080807C
:10345000808080808080807F7F7F7F7F7F7F7F7F75
:103460007F7F7F7F7F7F7F7E7E7E7E7E7E7E7E7E75
:103470007E7E7E7E7E7D7D7D7D7D7D7D7D7D7D7D77
:103480007D7D7D7D7D7D7D7D7C7C7C7C7C7C7C7C74
:103490007C7C7C7C7C7C7C7C7C7C7C7C7C7C7C7C6C
:1034A0007C7C7C7C7C7C7C7C7C7C7C7C7B7B7B7B60
:1034B0007B7B7B7B7B7B7B7B7B7B7B7B7B7B7B7B5C
:1034C0007B7B7B7B7B7B7B7B7B7B7B7C7C7C7C7C47
:1034D0007C7C7C7C7C7C7C7C7C7C7C7C7C7C7C7C2C
:1034E0007C7C7C7C7C7C7C7C7C7C7D7D7D7D7D7D16
:1034F0007D7D7D7D7D7D7D7D7D7D7D7D7D7D7D7DFC
:103500007D7D7D7D7D7D7E7E7E7E7E7E7E7E7E7EE1
:103510007E7E7E7E7E7E7E7E7E7E7E7E7E7E7E7ECB
:103520007E7F7F7F7F7F7F7F7F7F7F7F7F7F7F7FAC
:103530007F7F7F7F7F7F7F7F7F7F80808080808095
:10354000808080808080808080808080808080807B
:10355000808181818181818181818181818181815C
:10356000818181818181818181818181818181814B
:103570008181818181828282828282828282828230
:10358000828282828282828282828282828282821B
:10359000828282828282828282828282828282820B
:1035A0008282828282828282828282818181818100
:1035B00081818181818181818181818181818181FB
:1035C00081818181818180808080808080808080F5
:1035D00080808080808080808080808080808080EB
:1035E000808080808080808080807F7F7F7F7F7FE1
:1035F0007F7F7F7F7F7F7F7F7F7F7F7F7F7F7F7FDB
:103600007F7F7F7F7F7F7F7F7F7F7F7F7F7F7F7FCA
:103610007F7F7F7F7F7E7E7E7E7E7E7E7E7E7E7EC5
:103620007E7E7E7E7E7E7E7E7E7E7E7E7E7E7E7EBA
:103630007E7E7E7D7D7D7D7D7D7D7D7D7D7D7D7DB7
:103640007D7D7D7D7D7D7D7D7D7D7D7D7D7D7D7DAA
:103650007D7D7D7D7D7D7D7D7D7D7D7D7D7D7D7D9A
:103660007D7D7D7D7D7D7D7D7D7D7D7D7D7D7D7D8A
:103670007D7D7D7D7D7D7D7D7D7D7D7D7D7D7D7D7A
:103680007D7D7D7D7D7E7E7E7E7E7E7E7E7E7E7E5F
:103690007E7E7E7E7E7E7E7E7E7E7E7E7E7E7E7E4A
:1036A0007E7E7E7E7E7E7E7E7E7E7E7E7E7E7E7F39
:1036B0007F7F7F7F7F7F7F7F7F7F7F7F7F7F7F7F1A
:1036C0007F7F7F7F7F7F7F7F7F7F7F7F7F7F7F7F0A
:1036D0007F7F7F7F7F7F7F7F7F7F7F7F7F7F7F7FFA
:1036E0007F7F7F7F7F7F7F7F7F7F7F7F7F7F8080E8
:1036F00080808080808080808080808080808080CA
:1037000080808080808080808080808080808080B9
:1037100080808080808080808080808080808080A9
:103720008080808080808080808080808080808099
:103730008080808080808080808080808080808089
:103740008080808080808080808080808080808079
:103750008080808080808080808080808080808069
:103760008080808080808080807F7F7F817D827C60
:1037700083798672B2DEB4BAF4B1676E180A213B5F
:1037800077789965538F647691A192B6AA96AEAF79
:103790009C77484A455088767DA7856A706F6B8410
:1037A0009A8E86748B8C6E556398A59886636C751B
:1037B000667D707E816C67718EA6AEB6AA8D8F868F
:1037C000776A716B6074625B6472776E7477868FF0
:1037D000AAAEA28D8C8F777D737374726F696F6BD5
:1037E0007481847F858B9086797D82837C7D8589B9
:1037F0008A92908788817B7674736F676A6D707622
:103800007F868D8A8F908682848381827C77768082
:103810007E7F847F7E7E7E7A75787D7E82838384C0
:103820007C7B7C7C7E7E7E7F817D7F8083837E7DB2
:103830007F7E7C7F8285848586837F7E7D7F7C7B87
:103840007B7877797C7F8182828280807F8181848E
:103850008589898A86837F7C78767373737575779B
:10386000777A7C7E82868A8B8B888584827D7E7A3D
:10387000778DFA923F410912324D7F9784B1E0F87B
:10388000F1DBCEB18C8BA18D52605E1911255A4CA3
:1038900028486D76A3D1A6CCC7AC8E72978D6B5796
:1038A00049749AA09E8A80794E3461849C92A1A426
:1038B0008F71747E5C64636161718DA4B8C5C2ACA4
:1038C0009F76756E56544C624F56565C768F9EB5F9
:1038D000B3A3A9958B9174685C49556D828A767BF8
:1038E00085747C7D93938C8D8D7C8892858C756896
:1038F0006C77787A878881777C726D74848E9088F3
:103900007A88887F756C757F7B85887E828A8789B7
:103910008784817C77737E7B79797D7E7B787679ED
:103920007D7E8381848D8F8D898A897E7B7A756F78
:10393000727775767777787C848B8985838889849C
:103940007E7D7E7E7B7B7A7A7E8386848584807C86
:103950007A7A7B7B7C7B7D7F817E7E807F7F807F90
:103960007D7D7C7D7C7E7D7E8184888A8C8B888435
:10397000807F7C7B7A78767576777778787A7D80A9
:103980008183828577275DBFAE7E5BA2CEBCC97581
:10399000786B643E4272737E84A9526B75868C8507
:1039A0007981A689507B84AFBDA7B1783F3D899BC3
:1039B000B5905539657379615F907E707985A09275
:1039C0007A6669827F78A8A593887E9A86867672C1
:1039D000738A5F6683746D638296917D848C8C8616
:1039E0007191A493886D61545D698996A2A49183B5
:1039F0007F796C697B7C73796F746C6A737E88895C
:103A00008E888991938F99998882826D6C6964659B
:103A100063686F7D82878F988D92959080857C7882
:103A2000727878767273767F7E83808080838185DA
:103A3000848887897E767C828079A752444A7D413A
:103A400051667D8FAEDCDDCACFE8A5894B5D52495A
:103A50003048856E598064498FB4B3AF8D66446B2E
:103A6000A08E74548B8F85986E7D766E9599627F4B
:103A7000765F868FA7B8B38F939B527A60444E3699
:103A8000496F687E969EA8A1D5C7A77C8A788F913A
:103A9000846A73595C603B434464596C95C9D2CDC8
:103AA000A4726591928386424D6FA89786807B7D34
:103AB00068787F6163AA7D81A0908B8C7187635643
:103AC000534271808E7A96A0C3A98B556E757A8BFE
:103AD00082B6A19A8463688C948C5E6346535D774A
:103AE0007B7698725B6AA3CBB091928C909C7F5D41
:103AF0004D61907567535270827C7AA09189C3950D
:103B00007B7661695A8591A3AC8C686F81806B5E0E
:103B10007792949A918E9F969F867A69715B55757C
:103B20007F7A717F6B574F61A2AEA59B9077836DB3
:103B30005F767E7C606F8A8E7F799EC1988D7C5384
:103B40004E72837F939874706164665B71879BA3E8
:103B5000B4DAC7B2A69386734D576557533E626178
:103B60005A5860778E9D9C857CAAB9ABB28D97948C
:103B700093856D604D56645F4A567B878EA790890A
:103B8000978B8E7A7D79756874837687A49D8C80F7
:103B900073715F6B64777B8793947D909DA8917D13
:103BA00074695D77979CA07A73707270635F6A69BD
:103BB0007A8A7F636485978F96898F9989849AA082
:103BC000977979635F5B6A847A77686D768285A579
:103BD000A49479888D72796F6F7578816D75817C09
:103BE00082A0A5A4917D7D757F5F59676977797AF9
:103BF000838182777E8A888EA39F939594846F7B3E
:103C000065645D53616D7C8179858F989980788139
:103C1000877D8A868A8F796D64737D6C6F768783E2
:103C2000859B9C9F998A7670837D77736E7A8A894B
:103C300092938B8179776F645E5E76817F798186DE
:103C4000817980939BA1968F88817A79736A707746
:103C50006F66676B6B777579829299A4A6B6B298F6
:103C6000877C73667572665E626760626D79849840
:103C70009190958680847A7D807F827E938C736F0D
:103C800076757B8588807887867A797382838C863F
:103C9000747778767575868D848C7E757685959A21
:103CA000928F8074747170797E82857C7976787752
:103CB000857B6C6E7F828981767D8C8D918B8F8CDC
:103CC000816E667D76786D6F78787F8A949C9E9AF7
:103CD00091948481797A756C655F62697784949C2C
:103CE0009D9B908177726860645F68717E777C9439
:103CF0009289917F78777B8077827D767D8B969590
:103D0000898E827B827F7A74796F7683736D6E7011
:103D100081817E80879194939897908B807E797A29
:103D200072727768687B7070777E837E828A8B91EF
:103D30009A9B9C8D7E7B7B6D6F6968656C71757DD0
:103D4000828991959E9C9B9B8A84747572746F6C1A
:103D50006B6A757A81878B88848578797771767AB2
:103D6000857F7B7F797E7D7D8B847D7E817B777D6A
:103D7000828887848488878A8D8885868A89837BE0
:103D8000818076736C68656B706C6C6C737B888DEE
:103D90008F8A8E91888589878384827E79777B81DB
:103DA0007A72717A807E7876777E7C868B8D928827
:103DB0008186867E807F83868A8A89807877706D07
:103DC0006E7072767E7C7A83817C7E848C8C858218
:103DD000817F7D7C7D8585847E777A79767376791F
:103DE0007E80858B8C8C817F82807A76767A7E7BD2
:103DF0007D7C7B7E7E81848B8E8B8783807C7B7AAF
:103E00007A7A7A8183868B8B89837E7976787872C9
:103E10006D6B6D747779797B8387898C8F918D88B1
:103E20008785857E78777B79787A7D817F7F8486A8
:103E30008888878984807A787172737A7D7C8081A2
:103E40007D777D7B7B7B83817E7F7E7C7D80808395
:103E500083817B7A7A7A7A81807E7B7C79797D8294
:103E6000888A89878887807D7F7C7E7E7E797A7D3F
:103E70007E7E7E7F828182827E7E81807A7B7A7B5B
:103E800079777B84858581807B7E8181807C817F41
:103E90007E8283828383817C7B797C777979787A4F
:103EA0007E84878B8A888A8886807C7D797B7B7EEE
:103EB0007F828587837B7878737377787377787A56
:103EC0007D7D7E8285898A8787888B8C8B8B8B8989
:103ED000847F7D777373706D707376787C7B7E8161
:103EE00081827E83837F80858788888883807B7DAD
:103EF0007C7B7B7C7C787A7B7F80818082828387DD
:103F00008C888481807C77767572757B7D818184D5
:103F10008485827D7F7C7C7D7C7C7A7E80818385AC
:103F20008484817D7F807E7B77777A7B7C7B7777CB
:103F3000797E808387878585827E807D7D7C7A7C83
:103F40007F84878888888582807B7A7A7778787C76
:103F50007B787A7D7E80828387888584817C7C7A69
:103F60007E81818184807B7B7A7A787A7D7D7F8275
:103F70008584848483807D7C7A797C7D7D7C7D7C56
:103F80007B7C80817F7F7F81838583838381807F2A
:103F90007B7A7B7B7A7C7E7C7A7C7F808183838347
:103FA0008486847F7E7F7D7B797A7D7E8082868811
:103FB0008888868582817F7A767475757678797B34
:103FC0007C80818181838686848485827F7F7D7ADF
:103FD000797B7C7D7D80817F7E7E7F818282817FF7
:103FE0007D7D7D7F7F7C797A7B7A797C80818283FD
:103FF00084838585827F7C7C7B7B7B7B7B7D8181D1
:104000008284848384838382807F7F807F7C7A7AAA
:104010007B7A7A7A797A7B7B7A7C7F7E7E80807FDE
:10402000808081818486868584838382807D7B7C79
:104030007D7B7979797B7D80838688898785827F7E
:104040007E7E7D7B79787776787A7C7F81838586A2
:1040500087868484827E7C7978777A7D7D7D7C7E7C
:104060007F7E7F80838688898783807E7C7B7B7B45
:104070007A7A7C7F81828282817F7D7A7A79777772
:1040800077787A7C7F8285888888898582817F7D20
:104090007B7A7B7D7E80807F7E7D7D7F8182817F3C
:1040A0007F7C7C7B7B7B7B7A7B7D7F818282838331
:1040B0008383817F7D7D7D7D7E7F7F7D7D7E7F7F14
:1040C0007F80818180807E7E7F7E7E7E7E7E7E7E02
:1040D0007F807E7E7F7F7F818182818281818282DB
:1040E0008181807D7C7A7A7A7B7C7C7C7B7C7E7F04
:1040F0007F808081838483848483817E7D7C7B7BBD
:104100007B7C7D7C7D7C7D7E7E7E808182838483C2
:104110008283817F7E7E7E7C7C7E7E7E7E7E7E7EB6
:104120007E7D7F7E7F808182838486868684838174
:104130007E7B787776767779797A7C7D7E7F8182CF
:104140008181828280807F7F7E7E7E7F8183838368
:1041500082828383838485858482807E7D7B7A7955
:10416000787675767678797C7E7F81838484858580
:1041700084817F7D7C7C7B7B7A7A7B7C808182835F
:1041800083838282828282838282807F7D7C7B7B2A
:10419000797878797B7C7D7E80828483828181823C
:1041A0008281807D7C7C7B7B7B7C7E7D7D7E7F8035
:1041B000818385858585848482807F7E7B797878FC
:1041C0007A7B7B7C7E8080818282818282828383F3
:1041D000807D7C7B7B7C7C7E7D7D7D7D7F808385FF
:1041E00087878888878583807C7977777778797ADD
:1041F0007A7B7D7E7F80818383817F7D7B7A7A7BE2
:104200007B7B7B7B7D7F8081818281807F7F7E7FC6
:104210007F7F7F7E7E7F7F7E7E7E7E8081828384A5
:104220008585868584827F7E7C7B7A7A7A7A7A7AA3
:104230007B7E8081828383848382838281807F7E70
:104240007D7C7B7B7A7A7B7D7E7F80808080818293
:10425000838382807F7D7D7D7E7F80807F7E7E7E6A
:104260007E7E7E7D7C7C7D7D7D7D7C7D7E7E7F8077
:104270008080808182828383838384838281807F24
:104280007E7D7E7E7F81838586878685827F7C7921
:104290007675747474747576787A7D80828384857B
:1042A000858585848381807F7D7D7D7B7A797A7B1E
:1042B0007C7D7D7E7F807F7F7F7F80818283848500
:1042C0008787888684827E7B797877767676777919
:1042D0007B7E8081828384858686858482817F7EC1
:1042E0007C7B7A7A7B7B7C7C7D7D7E7E7F7F8082FF
:1042F000838483828180818180807F7E7D7D7D7EBD
:104300007F8081828283838382817F7E7E7D7B79B1
:104310007878787A7B7C7C7D7D7D7D7D7E7F8082D8
:10432000848585858483807E7D7C7B7B7C7C7C7B97
:104330007C7D7F80828384838382807F7E7E7E7E7D
:104340007E7E7F81828384858583817F7D7B7A7871
:1043500078777677797B7D7F81848485858585856F
:1043600084828281818081807F7D7C7A7977777772
:104370007778797A7C7D7F81828485868483817F4A
:104380007F7E7D7D7E7E7E7E7E7F7F80818181823D
:1043900081807F7E7E7E808080807F7E7C7C7C7D35
:1043A0007D7C7C7C7C7C7C7D7E8081828485858418
:1043B00082807E7D7C7C7D7E7D7D7C7C7D7E7F7F22
:1043C00080818282828281807F7E7D7D7D7D7E7DF7
:1043D0007C7C7C7D7E7F80808283838281807F7DE8
:1043E0007C7C7C7C7D7D7F808182828382818181D7
:1043F0007F7D7B7B7C7C7C7C7C7C7D7F80808080E7
:104400008181828383838281807F7E7D7D7C7D7DAF
:104410007D7E7F8183848482817F7D7B79787879BA
:104420007A7B7C7D7E7F818384858586858482817D
:104430007F7D7C7C7B7B7B7B7C7C7D7D7E7E7E7EB2
:104440007E7E7E7F7F81828383828181807F7E7D6D
:104450007D7D7E7F7F80807F7F7F7F7E7D7D7D7E77
:104460007E7F7F818283838383838281807F7D7C43
:104470007B7A7A7B7B7B7B7B7B7C7C7C7D7F808279
:10448000838484848383828181807E7D7C7C7B7C29
:104490007D7D7E7E7E7E7E7E7F7E7F7F808283842A
:1044A000848381807F7E7D7C7C7C7C7D7E7F7F7F22
:1044B0007F7E7E7D7D7D7D7E7F7E7F7F7F7E7F7F19
:1044C00081828383828180807F7E7E7E7F7F7F7FEB
:1044D00080808080818180807F7E7C7B7A7A7A7AFE
:1044E0007B7B7D7E7F8081828383848484848484BB
:1044F00083817F7C7B7A78787878797A7C7E7F80FC
:10450000818384858686858483817F7D7D7C7C7D97
:104510007D7D7D7D7D7D7E7F7F7F7F7F7F7E7D7DBD
:104520007E7E7E7E7E7E7E7E7E7F7F80818181819B
:1045300080807F7F7E7E7D7D7C7C7B7B7C7D7E7FA3
:104540008080808080807F7F7F8081828383838260
:10455000817F7D7C7B7A7A7B7C7C7D7D7E7F808188
:104560008181818180807F7F7F7F7F807F7F7F7E51
:104570007E7E7E7F7F7F7F7F7F7F7F7F7F7F7F7E4F
:104580007E7E7D7E7E7E7E7E7E7E7F7F8080818140
:104590008181808080807F7E7E7D7D7D7D7C7C7C36
:1045A0007D7E7E7E7F7F808081828282828180800C
:1045B0007F7F7F7F7E7D7D7D7C7C7C7C7D7E7E7E23
:1045C0007E7F8081828282828283838281807F7DDE
:1045D0007C7C7B7B7B7B7C7D7E7F7F808080807F03
:1045E0007F7F7F7F7F7F7F7F7E7E7E7E7E7F8080DE
:1045F000807F7F7F7F7F7F7F7F7F7F7F7E7E7E7ECE
:104600007E7E7E7E7E7E7E7F8081828283838383A8
:10461000838381807E7C7B7B7A7A7A7A7A7B7D7FCA
:104620008081828383838281807F7F7E7D7C7C7C8E
:104630007C7D7D7E7E7F7F80828383838381807F7C
:104640007D7C7C7C7C7D7E7F7F7F7F7E7E7E7E7E90
:104650007E7F7F7F7E7F7E7E7E7E7E7F808081826A
:1046600082838281807F7F7F7F7F7F7F7E7E7E7E51
:104670007E7E7E7E7E7E7E7E7E7F7F80808080804E
:104680007F7F7E7E7E7E7E7E7E7D7D7D7D7D7E7E4D
:104690007E7F7F808080808080818181808080801B
:1046A000818182828181807F7E7D7D7C7B7B7A7A25
:1046B0007B7B7D7E7F8081828383838383828180F5
:1046C0007F7E7E7D7D7D7D7D7D7D7E7E7F7F80800A
:1046D0008081818181807F7E7D7D7C7C7C7C7D7DF5
:1046E0007E7F7F7F7F7E7E7E7E7D7D7E7E7F8080E3
:1046F000818181807F7F7F7F7F7F7F7E7E7E7E7FC7
:104700007F7F808181818282828281807F7E7D7CA9
:104710007C7C7C7C7D7D7D7D7D7E7F7F7F808081BC
:104720008181818180808080807F7E7E7D7E7D7D95
:104730007D7D7D7D7D7D7E7E7F8082828383828282
:1047400081807F7E7D7C7C7B7B7B7C7C7D7D7E7F96
:104750007F808081828282828180807F7F7E7E7D59
:104760007D7D7D7D7D7E7F80808181818180807F58
:104770007F7E7E7E7D7D7D7D7D7D7E7E7E7F808059
:1047800081828281818180807F7E7E7D7D7D7D7D35
:104790007E7E7F7F7F7F7F8080807F7F7F7F7F7F28
:1047A0007F7F7E7E7E7E7E7F7F8080808080807F18
:1047B000808081818180807F7E7E7E7E7E7F7F8003
:1047C00080807F7E7E7D7D7D7D7E7E7E7E7F7F7F05
:1047D0007F7F7F7F7F80807F7F7F7E7E7D7D7D7EF0
:1047E0007E7E7F7F7F7F7F8080807F7F7F7F7F7FD8
:1047F0007E7E7F7F7F7F80808181818080807F7FC0
:104800007F7F7E7E7E7D7D7D7E7E7E7E7F7F7F80C4
:10481000818282828180807F7E7E7D7D7D7D7D7EA6
:104820007E7F7F808081818180807F7E7E7E7D7D96
:104830007E7E7E7E7F7F80808080807F7F7E7E7E8A
:104840007E7E7F7F7F7F7F7F7F7F7F7F7F7F808078
:10485000808181818180807F7E7D7C7C7C7C7C7D71
:104860007D7E7E7E7F80808080808080807F7F7E56
:104870007E7E7F7F7F8080808080818180807F7E40
:104880007E7D7D7D7C7D7D7D7E7E7F7F8080818144
:104890008180807F7F7F7F7F7F7F7F80808080801F
:1048A000807F7E7D7D7D7D7D7D7D7D7E7E7F808028
:1048B0008080808080807F7F808080807F7F7F7EFF
:1048C0007E7E7E7E7E7F7F7F7F7F7F7E7E7E7F7F00
:1048D00080808080807F7F7F7E7E7E7E7E7E7E7EEB
:1048E0007E7E7E7E7F7F7F7F7F807F7F80808080D7
:1048F00080808080807F7F7F7F7F7E7E80838689AF
:104900008C8F9295989B9EA2A5A7AAADB0B3B6B97D
:10491000BCBEC1C4C6C9CBCED0D3D5D7DADCDEE0AD
:10492000E2E4E6E8EAEBEDEEF0F1F3F4F5F6F8F99F
:10493000FAFAFBFCFDFDFEFEFEFFFFFFFFFFFFFF9F
:10494000FEFEFEFDFDFCFBFAFAF9F8F6F5F4F3F1D4
:10495000F0EEEDEBEAE8E6E4E2E0DEDCDAD7D5D330
:10496000D0CECBC9C6C4C1BEBCB9B6B3B0ADAAA780
:10497000A5A29E9B9895928F8C898683807C797660
:1049800073706D6A6764615D5A5855524F4C494661
:1049900043413E3B393634312F2C2A282523211F11
:1049A0001D1B1917151412110F0E0C0B0A090706FF
:1049B00005050403020201010100000000000000DF
:1049C0000101010202030405050607090A0B0C0E8A
:1049D0000F1112141517191B1D1F212325282A2C0E
:1049E0002F313436393B3E414346494C4F5255589E
:1049F0005A5D6164676A6D707376797C00000000AF
:104A0000240027002A0000000000250028002B00B9
:104A1000000000002300260029000404040404040C
:104A2000040402020202020203030303030301025D
:104A3000040810204080010204081020010204082C
:104A4000102000000008000201000003040700001D
:104A50000000000000001E3211241FBECFEFD8E07E
:104A6000DEBFCDBF11E0A0E0B1E0EAE9F7E702C0A8
:104A700005900D92A832B107D9F727E0A8E2B1E07E
:104A800001C01D92A139B207E1F715E2CCE2D5E2EF
:104A900004C02197FE010E94A63BCB32D107C9F783
:104AA0000E94EC320C94CB3B0C940000E091220667
:104AB000F0912306309719F08DE596E009958091E5
:104AC0005E06823F09F4BAC090F5803C09F499C0B3
:104AD000B8F4803909F44FC040F4E0912606F09113
:104AE0002706803809F44BC00895803A09F484C041
:104AF000E0912C06F0912D06803B09F440C008950A
:104B0000803E09F462C040F4E0913006F091310635
:104B1000803D09F47AC00895803F09F47DC0E0919A
:104B20003606F0913706813F09F49BC008958A3F0D
:104B3000C1F1A8F4863F09F499C040F4E0913A0627
:104B4000F0913B06833F09F48CC00895883F09F13A
:104B5000E0914206F0914306893FF9F008958C3FB9
:104B600051F120F18E3F61F1E0914A06F0914B0640
:104B70008F3F99F00895E0912806F091290630972B
:104B800009F479C04091600660915F0680915D06EE
:104B90000994E0913E06F0913F06309709F46BC00E
:104BA0000994E0914006F0914106F7CFE091440668
:104BB000F0914506F2CFE0914606F0914706EDCF21
:104BC000E0914806F0914906E8CFE0913206F09175
:104BD0003306309709F44FC06091600620E8629F69
:104BE000B001112460787F7380915F068F77682B06
:104BF000705280915D060994E0912A06F0912B068F
:104C0000BECFE0912E06F0912F063097A1F1609172
:104C10005F0680915D060994E0913406F0913506B7
:104C2000309749F160915F067091600661387105B7
:104C300010F060E870E081E696E00994E0913806B3
:104C4000F09139063097B9F08091600620E8829F94
:104C5000C001112480789F7320915F062F77822BEB
:104C60000994309741F080915F060994E0913C06E9
:104C7000F0913D0692CF0895833081F028F4813081
:104C800099F08230A9F008958730A9F08830C9F0F2
:104C90008430B1F4809180008F7D03C080918000CA
:104CA0008F7780938000089584B58F7784BD0895B1
:104CB00084B58F7DFBCF8091B0008F778093B0005B
:104CC00008958091B0008F7DF9CFCF93DF93282F87
:104CD00030E0F901EE5BF54B8491F901E25DF54BB3
:104CE000D491F901E65EF54BC491CC23A1F081117A
:104CF0000E943C26EC2FF0E0EE0FFF1FE05FF54B2B
:104D0000A591B491EC91ED2381E090E009F480E06D
:104D1000DF91CF91089580E090E0FACF1F93CF9379
:104D2000DF93282F30E0F901EE5BF54B8491F90118
:104D3000E25DF54BD491F901E65EF54BC491CC23CD
:104D4000A9F0162F81110E943C26EC2FF0E0EE0F07
:104D5000FF1FEA5FF54BA591B4918FB7F894EC91E2
:104D6000111108C0D095DE23DC938FBFDF91CF9166
:104D70001F910895DE2BF8CFCF93DF9390E0FC01D5
:104D8000E25DF54B2491865E954BFC01849188236E
:104D9000C9F090E0880F991FFC01E450F64BA591F3
:104DA000B491FC01EA5FF54BC591D49161110DC03E
:104DB0009FB7F8948C91209582238C938881282327
:104DC00028839FBFDF91CF910895623051F49FB740
:104DD000F8943C91822F809583238C93E8812E2B2D
:104DE000EFCF8FB7F894EC912E2B2C938FBFEACF97
:104DF000806480937C0080917A00806480937A0044
:104E000080917A0086FDFCCF8091780090917900A6
:104E100008953FB7F8948091D6059091D705A09159
:104E2000D805B091D90526B5A89B05C02F3F19F02C
:104E30000196A11DB11D3FBFBA2FA92F982F88271A
:104E4000BC01CD01620F711D811D911D42E0660FF5
:104E5000771F881F991F4A95D1F708958F929F92C7
:104E6000AF92BF92CF92DF92EF92FF924B015C0123
:104E70000E9409276B017C010E9409276C197D099A
:104E80008E099F09683E734081059105A8F321E0D2
:104E9000821A9108A108B10888EEC80E83E0D81ED6
:104EA000E11CF11C81149104A104B10429F7FF90C5
:104EB000EF90DF90CF90BF90AF909F908F9008952C
:104EC0002FB7F8946091D2057091D3058091D405E5
:104ED0009091D5052FBF0895CF93DF93C2E2D6E01E
:104EE000EAA5FBA50190F081E02DA089B18992E0AF
:104EF0009C93A485B5851C92A685B7859FE39C935A
:104F0000108EA489B58996E09C93A289B3899C915F
:104F100090619C93A289B3899C9198609C93A2898B
:104F2000B3899C9190689C930288F389E02D9081CD
:104F30009F7D90838CA71EA61DA61DAA1CAA1BAA36
:104F40001AAA8FEF9FEF9FAB8EAB99AF88AF0E94ED
:104F500060276093E4067093E5068093E6069093DD
:104F6000E7061092E1061CAE1BAE1DAE1EAE1092FF
:104F7000E3061092E206ECE5F6E080818170826043
:104F800081608083DF91CF910895AF92BF92CF92DD
:104F9000DF92EF92FF920F931F93CF93DF936C01F9
:104FA0007B018B01040F151FEB015E01AE18BF08DA
:104FB000C017D10759F06991D601ED91FC9101908C
:104FC000F081E02DC6010995892B79F7C501DF91A4
:104FD000CF911F910F91FF90EF90DF90CF90BF90F6
:104FE000AF900895FC01538D448D252F30E0842F20
:104FF00090E0821B930B541710F0CF960895019701
:105000000895FC01918D828D981761F0A28DAE0FED
:10501000BF2FB11D5D968C91928D9F5F9F73928F74
:1050200090E008958FEF9FEF0895FC01918D828DA0
:10503000981731F0828DE80FF11D858D90E008956D
:105040008FEF9FEF0895FC01918D228D892F90E0C5
:10505000805C9F4F821B91098F739927089582EF7F
:1050600096E00E94232821E0892B09F420E0822F7A
:10507000089580E090E0892B29F00E942F2881116B
:105080000C9400000895FC01A48DA80FB92FB11D48
:10509000A35ABF4F2C91848D90E001968F7399276E
:1050A000848FA689B7892C93A089B1898C9183704C
:1050B00080648C93938D848D981306C00288F38945
:1050C000E02D80818F7D80830895EF92FF920F9372
:1050D0001F93CF93DF93EC0181E0888F9B8D8C8DA4
:1050E00098131AC0E889F989808185FF15C09FB798
:1050F000F894EE89FF896083E889F989808183705B
:10510000806480839FBF81E090E0DF91CF911F9109
:105110000F91FF90EF900895F62E0B8D10E00F5F2A
:105120001F4F0F731127E02E8C8D8E110CC00FB600
:1051300007FCFACFE889F989808185FFF5CFCE0198
:105140000E944328F1CFEB8DEC0FFD2FF11DE35AA8
:10515000FF4FF0829FB7F8940B8FEA89FB8980811B
:105160008062CFCFCF93DF93EC01888D8823B9F095
:10517000AA89BB89E889F9898C9185FD03C0808162
:1051800086FD0DC00FB607FCF7CF8C9185FFF2CFDF
:10519000808185FFEDCFCE010E944328E9CFDF91CA
:1051A000CF910895862F642F0C94BC26FC01818931
:1051B0000E94652621E0892B09F420E0822F0895C2
:1051C000CF93DF93EC0118860E94D628882319F02C
:1051D0008885836088870E9460276A837B838C83AD
:1051E0009D83DF91CF910895CF92DF92EF92FF924E
:1051F0000F931F93CF93DF93EC0188858B7F888774
:10520000CE010E94D628182F8885869581701817A0
:10521000B9F00E9460276A837B838C839D83888595
:1052200092E089278887888582FB882780F9DF912B
:10523000CF911F910F91FF90EF90DF90CF90089545
:105240000E946027CA80DB80EC80FD80AB01BC013E
:105250004C195D096E097F098E819F81B0E0A0E045
:10526000481759076A077B07F0F28885817018177D
:10527000D1F20E9460276A837B838C839D8388851B
:1052800091E08927846088870E94602709851A85B4
:105290002B853C85601B710B820B930B6D877E8782
:1052A0008F87988B0E94602769877A878B879C8776
:1052B000BACFDC018D919C91DC01ED91FC910190C4
:1052C000F081E02D09946D3F48F46A3F10F4683F87
:1052D00039F4FC01808191810C9459296E3FC8F703
:1052E00008951F93CF93DF93813E30F521502031F5
:1052F00068F587FF2BC0D42F162FC82F622F682B7D
:1053000080914C0690914D060E945929612F6F772C
:1053100080914C0690914D060E945929CF7EC03C49
:10532000A9F06D2F6F7780914C0690914D06DF911B
:10533000CF911F910C945929883F40F0682F8CE43D
:1053400096E0DF91CF911F910C946329DF91CF916B
:105350001F91089587FF0AC09CE0980F923030F0AB
:105360008D3F21F0803F18F4807F089580E00895FC
:10537000982F9F7E282F2F7C203839F0803E29F0EF
:1053800081E0903C19F080E0089581E00895CF938A
:10539000DF93D091BF05C3E081E09091BF059111EB
:1053A00080E08093BF0560E570E080E090E00E94BF
:1053B0002E27C15089F7D093BF05DF91CF91089573
:1053C0000E94C63B1F93CF93DF93EC01162F0E94E0
:1053D000743B181739F0612FCE01DF91CF911F91E7
:1053E0000C947C3BDF91CF911F91089560910D014A
:1053F00024E0629FB0011124647080910C0128E0C8
:10540000829FC00111248870682B8091BF05817034
:10541000682B83E090E00E94E2296091BC0584E063
:1054200090E00E94E2296091040185E090E00C94F4
:10543000E229CF92DF92FF920F931F93CF93DF93D6
:10544000F82EC82FD0E0DC2FCC278E01005F1F4F35
:10545000D12C8091BC058D0D90E0FC01E65DFA4FEA
:1054600061E02081211101C060E0FC01E655FB4FA5
:10547000208121116260FC01E655FC4F2081211141
:105480006460FC01E65DFB4F20812111686001969C
:10549000FC01E65DFA4F208121116061FC01E655B7
:1054A000FB4F208121116062FC01E655FC4F2081F9
:1054B00021116064865D9B4FFC01808181116068D1
:1054C000C8010E94E229D394D3940F5F1F4FF0E2EA
:1054D000DF12BFCF10E000E06E0180E2C80ED11CE9
:1054E000E091BC05E00FF12FF11DEE0FFF1FE85515
:1054F000FD4F60817181759567957595679577FD0D
:1055000043C06F3F710519F014F06FEF70E0C601F2
:10551000800F911F0E94E2290F5F1F4F003211057B
:10552000F9F610E000E0C05CDF4FE091BC05E00F51
:10553000F12FF11DEE0FFF1FE955FE4F60817181C4
:10554000759567957595679577FD20C06F3F7105D7
:1055500019F014F06FEF70E0CE01800F911F0E94E0
:10556000E2290F5F1F4F00321105F9F60E94F6295C
:105570006F2D82E090E0DF91CF911F910F91FF900E
:10558000DF90CF900C94E22960E0C1CF60E0E4CFDF
:105590000C94743B8F929F92AF92BF92CF92DF9206
:1055A000EF92FF920F931F93CF93DF93082F10E09A
:1055B000102F0027580120E1A20EB11CF090BC056D
:1055C000CF2DD0E0AE01465D5A4F9E0126553B4F90
:1055D000CE0186559C4FBE01665D7B4FCC0FDD1F13
:1055E000FE01E855FD4F6F01C955DE4F4E01DF0149
:1055F000E12CFA011192AF01F90111929F01FC0116
:105600001192CF01FB011192BF011D921D92F40175
:10561000119211924F01E394F0E2EF12EACF80E28F
:10562000E82EEF0CC5010E94C82AEF2DF0E0DF0143
:10563000A65DBA4F982F91709C93DF01A655BB4F82
:1056400081FB992790F99C93DF01A655BC4F82FB03
:10565000992790F99C93DF01A65DBB4F83FB9927A7
:1056600090F99C933196DF01A65DBA4F84FB992790
:1056700090F99C93DF01A655BB4F85FB992790F9C4
:105680009C93DF01A655BC4F86FB222720F92C9363
:10569000E65DFB4F881F8827881F80832FEFA21AA3
:1056A000B20AF394F394EF10BDCF780180E2E80ED4
:1056B000F11C5801E0E4AE0EB11CC7010E94C82ADB
:1056C000F4E08F9FC0011124F601819391936F0143
:1056D000FFEFEF1AFF0AAE14BF0479F7005A1F4F0D
:1056E000C7010E94C82A24E0829FC0011124899327
:1056F00099938FEFE81AF80A0E151F0589F7DF91C5
:10570000CF911F910F91FF90EF90DF90CF90BF90BE
:10571000AF909F908F90089583E090E00E94C82AF8
:10572000982F91709093BF0582FB992790F99093E1
:105730000D0183FB882780F980930C0184E090E0C1
:105740000E94C82A882331F0982F9F7D9F3111F045
:105750008F3511F48093BC0585E090E00E94C82A43
:105760009FEF980F903110F48093040108951F92D9
:105770000F920FB60F9211242F933F938F939F9305
:10578000AF93BF938091D2059091D305A091D4059A
:10579000B091D5053091D10523E0230F2D3758F571
:1057A0000196A11DB11D2093D1058093D205909340
:1057B000D305A093D405B093D5058091D6059091DB
:1057C000D705A091D805B091D9050196A11DB11DAD
:1057D0008093D6059093D705A093D805B093D905AB
:1057E000BF91AF919F918F913F912F910F900FBEDD
:1057F0000F901F90189526E8230F0296A11DB11D4A
:10580000D2CF1F920F920FB60F9211242F933F9376
:105810004F935F936F937F938F939F93AF93BF93B8
:10582000EF93FF9382EF96E00E944328FF91EF9160
:10583000BF91AF919F918F917F916F915F914F91A8
:105840003F912F910F900FBE0F901F9018951F92B0
:105850000F920FB60F9211242F938F939F93EF9374
:10586000FF93E0910207F09103078081E091080720
:10587000F091090782FD1BC0908180910B078F5F1B
:105880008F7320910C07821741F0E0910B07F0E035
:10589000EE50F94F958F80930B07FF91EF919F91F9
:1058A0008F912F910F900FBE0F901F9018958081B0
:1058B000F4CF1F920F920FB60F921124CF92DF9266
:1058C000EF92FF922F933F934F935F936F937F934A
:1058D0008F939F93AF93BF93CF93DF93EF93FF93F8
:1058E00080919C0190919D01A0919E01B0919F019A
:1058F0000196A11DB11D80939C0190939D01A093E1
:105900009E01B0939F0182E38093B300C091960102
:10591000C093950180919401C0909C01D0909D010D
:10592000E0909E01F0909F01811128C0809190012C
:1059300090919101A0919201B0919301B701A601BC
:10594000481B590B6A0B7B0B80918E0190918F0144
:10595000B0E0A0E084179507A607B70778F4C092D7
:105960009001D0929101E0929201F092930181E036
:105970008C0F803208F0F8C0809396018091B305B7
:10598000813009F048C08091C005813009F043C0E2
:105990001092C0051092C10510929401E1E080912F
:1059A0008D018111E0E0E0938D01F0E0EE0FFF1F2B
:1059B000EB57FE4F8091890190918A01A0918B0154
:1059C000B0918C01A7019601281B390B4A0B5B0B88
:1059D000DA01C901D2E0B695A79597958795DA9532
:1059E000D1F79183808380918501909186012091E8
:1059F000870130918801820F931F96958795909328
:105A0000060180930501C0928901D0928A01E0923B
:105A10008B01F0928C0120910501309106013093A9
:105A20008F0120938E0190919601409190015091A9
:105A30009101B601641B750BAB01369527952417B0
:105A4000350738F481E0890F803208F090C08093E8
:105A5000A903892F837031F42CED30E03093840159
:105A600020938301892F877051F425E231E0911151
:105A700002C028EB31E030938401209383018091B0
:105A8000BF05813009F076C0809382018091BC050A
:105A9000890F9927991FFC01E65DFB4F2081209318
:105AA0008101FC01E65DFA4F208120938001FC0119
:105AB000E655FB4F208120937F0186559C4FFC01CA
:105AC000808180937E01D0919601CD1779F061E0BD
:105AD0008CE00E948E26C0927A01D0927B01E092E7
